{
	"contracts/solar_insurance.sol": {
		"SolarInsurance": {
			"abi": [
				{
					"inputs": [],
					"stateMutability": "payable",
					"type": "constructor"
				},
				{
					"inputs": [
						{
							"internalType": "address",
							"name": "",
							"type": "address"
						}
					],
					"name": "_allowedClaims",
					"outputs": [
						{
							"internalType": "uint256",
							"name": "",
							"type": "uint256"
						}
					],
					"stateMutability": "view",
					"type": "function"
				},
				{
					"inputs": [
						{
							"internalType": "string",
							"name": "",
							"type": "string"
						}
					],
					"name": "_sunshineRecords",
					"outputs": [
						{
							"internalType": "uint256",
							"name": "",
							"type": "uint256"
						}
					],
					"stateMutability": "view",
					"type": "function"
				},
				{
					"inputs": [
						{
							"internalType": "uint256",
							"name": "year",
							"type": "uint256"
						},
						{
							"internalType": "enum SolarInsurance.SwissRegion",
							"name": "region",
							"type": "uint8"
						},
						{
							"internalType": "uint256",
							"name": "duration",
							"type": "uint256"
						}
					],
					"name": "createSunshineRecord",
					"outputs": [],
					"stateMutability": "nonpayable",
					"type": "function"
				},
				{
					"inputs": [
						{
							"internalType": "uint256",
							"name": "year",
							"type": "uint256"
						}
					],
					"name": "fileClaim",
					"outputs": [],
					"stateMutability": "nonpayable",
					"type": "function"
				},
				{
					"inputs": [
						{
							"internalType": "uint256",
							"name": "year",
							"type": "uint256"
						}
					],
					"name": "fileClaimWithoutTimeoutCheck",
					"outputs": [],
					"stateMutability": "nonpayable",
					"type": "function"
				},
				{
					"inputs": [],
					"name": "fundContract",
					"outputs": [],
					"stateMutability": "payable",
					"type": "function"
				},
				{
					"inputs": [
						{
							"internalType": "uint256",
							"name": "year",
							"type": "uint256"
						}
					],
					"name": "getClaimAmount",
					"outputs": [
						{
							"internalType": "uint256",
							"name": "",
							"type": "uint256"
						}
					],
					"stateMutability": "view",
					"type": "function"
				},
				{
					"inputs": [],
					"name": "getContract",
					"outputs": [
						{
							"internalType": "bool",
							"name": "",
							"type": "bool"
						}
					],
					"stateMutability": "view",
					"type": "function"
				},
				{
					"inputs": [
						{
							"internalType": "enum SolarInsurance.ClientRiskLevels",
							"name": "riskLevel",
							"type": "uint8"
						},
						{
							"internalType": "uint256",
							"name": "panelArea",
							"type": "uint256"
						}
					],
					"name": "getRequiredPremium",
					"outputs": [
						{
							"internalType": "uint256",
							"name": "",
							"type": "uint256"
						}
					],
					"stateMutability": "view",
					"type": "function"
				},
				{
					"inputs": [],
					"name": "getSolarInsurance",
					"outputs": [
						{
							"components": [
								{
									"internalType": "address",
									"name": "client",
									"type": "address"
								},
								{
									"internalType": "enum SolarInsurance.SwissRegion",
									"name": "panelLocation",
									"type": "uint8"
								},
								{
									"internalType": "enum SolarInsurance.ClientRiskLevels",
									"name": "riskLevel",
									"type": "uint8"
								},
								{
									"internalType": "uint256",
									"name": "panelArea",
									"type": "uint256"
								},
								{
									"internalType": "uint256",
									"name": "premiumToPay",
									"type": "uint256"
								},
								{
									"internalType": "uint256",
									"name": "registrationDate",
									"type": "uint256"
								},
								{
									"internalType": "uint256",
									"name": "duration",
									"type": "uint256"
								},
								{
									"internalType": "uint256",
									"name": "claimTimeout",
									"type": "uint256"
								}
							],
							"internalType": "struct SolarInsurance.SolarInsuranceContract",
							"name": "",
							"type": "tuple"
						}
					],
					"stateMutability": "view",
					"type": "function"
				},
				{
					"inputs": [],
					"name": "owner",
					"outputs": [
						{
							"internalType": "address",
							"name": "",
							"type": "address"
						}
					],
					"stateMutability": "view",
					"type": "function"
				},
				{
					"inputs": [
						{
							"internalType": "enum SolarInsurance.ClientRiskLevels",
							"name": "riskLevel",
							"type": "uint8"
						},
						{
							"internalType": "uint256",
							"name": "panelArea",
							"type": "uint256"
						},
						{
							"internalType": "enum SolarInsurance.SwissRegion",
							"name": "location",
							"type": "uint8"
						}
					],
					"name": "registerPolicy",
					"outputs": [],
					"stateMutability": "payable",
					"type": "function"
				},
				{
					"inputs": [],
					"name": "renewPolicy",
					"outputs": [],
					"stateMutability": "payable",
					"type": "function"
				}
			],
			"devdoc": {
				"kind": "dev",
				"methods": {
					"fileClaim(uint256)": {
						"details": "File Claim for Insurance"
					},
					"getRequiredPremium(uint8,uint256)": {
						"details": "Get required premium"
					},
					"getSolarInsurance()": {
						"details": "Get details of own contract"
					},
					"owner()": {
						"details": "Get owner's address"
					},
					"registerPolicy(uint8,uint256,uint8)": {
						"details": "Register for Solar Insurance Policy"
					},
					"renewPolicy()": {
						"details": "Renew Solar Insurance Policy"
					}
				},
				"version": 1
			},
			"evm": {
				"assembly": "    /* \"contracts/solar_insurance.sol\":205:11028  contract SolarInsurance is Demoable {... */\n  mstore(0x40, 0x80)\n    /* \"contracts/solar_insurance.sol\":372:385  0.00016 ether */\n  0x9184e72a0000\n    /* \"contracts/solar_insurance.sol\":340:385  uint256 internal ENERGY_PRICE = 0.00016 ether */\n  0x01\n  sstore\n    /* \"contracts/solar_insurance.sol\":461:464  150 */\n  0x96\n    /* \"contracts/solar_insurance.sol\":426:464  uint256 internal RADIATION_VALUE = 150 */\n  0x02\n  sstore\n    /* \"contracts/solar_insurance.sol\":545:547  20 */\n  0x14\n    /* \"contracts/solar_insurance.sol\":515:547  uint256 internal EFFICIENCY = 20 */\n  0x03\n  sstore\n    /* \"contracts/solar_insurance.sol\":1955:1965  msg.sender */\n  caller\n    /* \"contracts/solar_insurance.sol\":1946:1952  _owner */\n  0x00\n  dup1\n    /* \"contracts/solar_insurance.sol\":1946:1965  _owner = msg.sender */\n  0x0100\n  exp\n  dup2\n  sload\n  dup2\n  0xffffffffffffffffffffffffffffffffffffffff\n  mul\n  not\n  and\n  swap1\n  dup4\n  0xffffffffffffffffffffffffffffffffffffffff\n  and\n  mul\n  or\n  swap1\n  sstore\n  pop\n    /* \"contracts/solar_insurance.sol\":2017:2086  InsuranceLevel(... */\n  mload(0x40)\n  dup1\n  0x40\n  add\n  0x40\n  mstore\n  dup1\n    /* \"contracts/solar_insurance.sol\":2045:2058  0.00005 ether */\n  0x2d79883d2000\n    /* \"contracts/solar_insurance.sol\":2017:2086  InsuranceLevel(... */\n  dup2\n  mstore\n  0x20\n  add\n    /* \"contracts/solar_insurance.sol\":2072:2076  1639 */\n  0x0667\n    /* \"contracts/solar_insurance.sol\":2017:2086  InsuranceLevel(... */\n  dup2\n  mstore\n  pop\n    /* \"contracts/solar_insurance.sol\":1975:1991  _insuranceLevels */\n  0x04\n    /* \"contracts/solar_insurance.sol\":1975:2014  _insuranceLevels[ClientRiskLevels.HIGH] */\n  0x00\n    /* \"contracts/solar_insurance.sol\":1992:2013  ClientRiskLevels.HIGH */\n  dup1\n    /* \"contracts/solar_insurance.sol\":1975:2014  _insuranceLevels[ClientRiskLevels.HIGH] */\n  0x02\n  dup2\n  gt\n  iszero\n  tag_5\n  jumpi\n  tag_6\n  tag_7\n  jump\t// in\ntag_6:\ntag_5:\n  0x02\n  dup2\n  gt\n  iszero\n  tag_8\n  jumpi\n  tag_9\n  tag_7\n  jump\t// in\ntag_9:\ntag_8:\n  dup2\n  mstore\n  0x20\n  add\n  swap1\n  dup2\n  mstore\n  0x20\n  add\n  0x00\n  keccak256\n    /* \"contracts/solar_insurance.sol\":1975:2086  _insuranceLevels[ClientRiskLevels.HIGH] = InsuranceLevel(... */\n  0x00\n  dup3\n  add\n  mload\n  dup2\n  0x00\n  add\n  sstore\n  0x20\n  dup3\n  add\n  mload\n  dup2\n  0x01\n  add\n  sstore\n  swap1\n  pop\n  pop\n    /* \"contracts/solar_insurance.sol\":2138:2207  InsuranceLevel(... */\n  mload(0x40)\n  dup1\n  0x40\n  add\n  0x40\n  mstore\n  dup1\n    /* \"contracts/solar_insurance.sol\":2166:2179  0.00012 ether */\n  0x6d23ad5f8000\n    /* \"contracts/solar_insurance.sol\":2138:2207  InsuranceLevel(... */\n  dup2\n  mstore\n  0x20\n  add\n    /* \"contracts/solar_insurance.sol\":2193:2197  1721 */\n  0x06b9\n    /* \"contracts/solar_insurance.sol\":2138:2207  InsuranceLevel(... */\n  dup2\n  mstore\n  pop\n    /* \"contracts/solar_insurance.sol\":2097:2113  _insuranceLevels */\n  0x04\n    /* \"contracts/solar_insurance.sol\":2097:2135  _insuranceLevels[ClientRiskLevels.MID] */\n  0x00\n    /* \"contracts/solar_insurance.sol\":2114:2134  ClientRiskLevels.MID */\n  0x01\n    /* \"contracts/solar_insurance.sol\":2097:2135  _insuranceLevels[ClientRiskLevels.MID] */\n  0x02\n  dup2\n  gt\n  iszero\n  tag_10\n  jumpi\n  tag_11\n  tag_7\n  jump\t// in\ntag_11:\ntag_10:\n  0x02\n  dup2\n  gt\n  iszero\n  tag_12\n  jumpi\n  tag_13\n  tag_7\n  jump\t// in\ntag_13:\ntag_12:\n  dup2\n  mstore\n  0x20\n  add\n  swap1\n  dup2\n  mstore\n  0x20\n  add\n  0x00\n  keccak256\n    /* \"contracts/solar_insurance.sol\":2097:2207  _insuranceLevels[ClientRiskLevels.MID] = InsuranceLevel(... */\n  0x00\n  dup3\n  add\n  mload\n  dup2\n  0x00\n  add\n  sstore\n  0x20\n  dup3\n  add\n  mload\n  dup2\n  0x01\n  add\n  sstore\n  swap1\n  pop\n  pop\n    /* \"contracts/solar_insurance.sol\":2259:2328  InsuranceLevel(... */\n  mload(0x40)\n  dup1\n  0x40\n  add\n  0x40\n  mstore\n  dup1\n    /* \"contracts/solar_insurance.sol\":2287:2300  0.00035 ether */\n  0x013e52b9abe000\n    /* \"contracts/solar_insurance.sol\":2259:2328  InsuranceLevel(... */\n  dup2\n  mstore\n  0x20\n  add\n    /* \"contracts/solar_insurance.sol\":2314:2318  1803 */\n  0x070b\n    /* \"contracts/solar_insurance.sol\":2259:2328  InsuranceLevel(... */\n  dup2\n  mstore\n  pop\n    /* \"contracts/solar_insurance.sol\":2218:2234  _insuranceLevels */\n  0x04\n    /* \"contracts/solar_insurance.sol\":2218:2256  _insuranceLevels[ClientRiskLevels.LOW] */\n  0x00\n    /* \"contracts/solar_insurance.sol\":2235:2255  ClientRiskLevels.LOW */\n  0x02\n    /* \"contracts/solar_insurance.sol\":2218:2256  _insuranceLevels[ClientRiskLevels.LOW] */\n  dup1\n  dup2\n  gt\n  iszero\n  tag_14\n  jumpi\n  tag_15\n  tag_7\n  jump\t// in\ntag_15:\ntag_14:\n  0x02\n  dup2\n  gt\n  iszero\n  tag_16\n  jumpi\n  tag_17\n  tag_7\n  jump\t// in\ntag_17:\ntag_16:\n  dup2\n  mstore\n  0x20\n  add\n  swap1\n  dup2\n  mstore\n  0x20\n  add\n  0x00\n  keccak256\n    /* \"contracts/solar_insurance.sol\":2218:2328  _insuranceLevels[ClientRiskLevels.LOW] = InsuranceLevel(... */\n  0x00\n  dup3\n  add\n  mload\n  dup2\n  0x00\n  add\n  sstore\n  0x20\n  dup3\n  add\n  mload\n  dup2\n  0x01\n  add\n  sstore\n  swap1\n  pop\n  pop\n    /* \"contracts/solar_insurance.sol\":205:11028  contract SolarInsurance is Demoable {... */\n  jump(tag_18)\n    /* \"#utility.yul\":7:187   */\ntag_7:\n    /* \"#utility.yul\":55:132   */\n  0x4e487b7100000000000000000000000000000000000000000000000000000000\n    /* \"#utility.yul\":52:53   */\n  0x00\n    /* \"#utility.yul\":45:133   */\n  mstore\n    /* \"#utility.yul\":152:156   */\n  0x21\n    /* \"#utility.yul\":149:150   */\n  0x04\n    /* \"#utility.yul\":142:157   */\n  mstore\n    /* \"#utility.yul\":176:180   */\n  0x24\n    /* \"#utility.yul\":173:174   */\n  0x00\n    /* \"#utility.yul\":166:181   */\n  revert\n    /* \"contracts/solar_insurance.sol\":205:11028  contract SolarInsurance is Demoable {... */\ntag_18:\n  dataSize(sub_0)\n  dup1\n  dataOffset(sub_0)\n  0x00\n  codecopy\n  0x00\n  return\nstop\n\nsub_0: assembly {\n        /* \"contracts/solar_insurance.sol\":205:11028  contract SolarInsurance is Demoable {... */\n      mstore(0x40, 0x80)\n      jumpi(tag_1, lt(calldatasize, 0x04))\n      shr(0xe0, calldataload(0x00))\n      dup1\n      0xa8e023eb\n      gt\n      tag_15\n      jumpi\n      dup1\n      0xcef63600\n      gt\n      tag_16\n      jumpi\n      dup1\n      0xcef63600\n      eq\n      tag_11\n      jumpi\n      dup1\n      0xd61909f9\n      eq\n      tag_12\n      jumpi\n      dup1\n      0xe7ebe5e0\n      eq\n      tag_13\n      jumpi\n      dup1\n      0xf82ac082\n      eq\n      tag_14\n      jumpi\n      jump(tag_1)\n    tag_16:\n      dup1\n      0xa8e023eb\n      eq\n      tag_8\n      jumpi\n      dup1\n      0xbd097e21\n      eq\n      tag_9\n      jumpi\n      dup1\n      0xbfd1a3a7\n      eq\n      tag_10\n      jumpi\n      jump(tag_1)\n    tag_15:\n      dup1\n      0x1d9aec76\n      eq\n      tag_2\n      jumpi\n      dup1\n      0x245503e9\n      eq\n      tag_3\n      jumpi\n      dup1\n      0x41b5e38d\n      eq\n      tag_4\n      jumpi\n      dup1\n      0x8da5cb5b\n      eq\n      tag_5\n      jumpi\n      dup1\n      0x958f85bd\n      eq\n      tag_6\n      jumpi\n      dup1\n      0x9b36474a\n      eq\n      tag_7\n      jumpi\n    tag_1:\n      0x00\n      dup1\n      revert\n        /* \"contracts/solar_insurance.sol\":1772:1821  mapping(address => uint256) public _allowedClaims */\n    tag_2:\n      callvalue\n      dup1\n      iszero\n      tag_17\n      jumpi\n      0x00\n      dup1\n      revert\n    tag_17:\n      pop\n      tag_18\n      0x04\n      dup1\n      calldatasize\n      sub\n      dup2\n      add\n      swap1\n      tag_19\n      swap2\n      swap1\n      tag_20\n      jump\t// in\n    tag_19:\n      tag_21\n      jump\t// in\n    tag_18:\n      mload(0x40)\n      tag_22\n      swap2\n      swap1\n      tag_23\n      jump\t// in\n    tag_22:\n      mload(0x40)\n      dup1\n      swap2\n      sub\n      swap1\n      return\n        /* \"contracts/solar_insurance.sol\":5824:6173  function createSunshineRecord(... */\n    tag_3:\n      callvalue\n      dup1\n      iszero\n      tag_24\n      jumpi\n      0x00\n      dup1\n      revert\n    tag_24:\n      pop\n      tag_25\n      0x04\n      dup1\n      calldatasize\n      sub\n      dup2\n      add\n      swap1\n      tag_26\n      swap2\n      swap1\n      tag_27\n      jump\t// in\n    tag_26:\n      tag_28\n      jump\t// in\n    tag_25:\n      stop\n        /* \"contracts/solar_insurance.sol\":6611:7210  function fileClaimWithoutTimeoutCheck(uint256 year)... */\n    tag_4:\n      callvalue\n      dup1\n      iszero\n      tag_29\n      jumpi\n      0x00\n      dup1\n      revert\n    tag_29:\n      pop\n      tag_30\n      0x04\n      dup1\n      calldatasize\n      sub\n      dup2\n      add\n      swap1\n      tag_31\n      swap2\n      swap1\n      tag_32\n      jump\t// in\n    tag_31:\n      tag_33\n      jump\t// in\n    tag_30:\n      stop\n        /* \"contracts/solar_insurance.sol\":4874:4964  function owner() public view requireOwner returns (address) {... */\n    tag_5:\n      callvalue\n      dup1\n      iszero\n      tag_34\n      jumpi\n      0x00\n      dup1\n      revert\n    tag_34:\n      pop\n      tag_35\n      tag_36\n      jump\t// in\n    tag_35:\n      mload(0x40)\n      tag_37\n      swap2\n      swap1\n      tag_38\n      jump\t// in\n    tag_37:\n      mload(0x40)\n      dup1\n      swap2\n      sub\n      swap1\n      return\n        /* \"contracts/solar_insurance.sol\":9316:9432  function getContract() public view returns (bool){... */\n    tag_6:\n      callvalue\n      dup1\n      iszero\n      tag_39\n      jumpi\n      0x00\n      dup1\n      revert\n    tag_39:\n      pop\n      tag_40\n      tag_41\n      jump\t// in\n    tag_40:\n      mload(0x40)\n      tag_42\n      swap2\n      swap1\n      tag_43\n      jump\t// in\n    tag_42:\n      mload(0x40)\n      dup1\n      swap2\n      sub\n      swap1\n      return\n        /* \"contracts/solar_insurance.sol\":5026:5204  function getSolarInsurance()... */\n    tag_7:\n      callvalue\n      dup1\n      iszero\n      tag_44\n      jumpi\n      0x00\n      dup1\n      revert\n    tag_44:\n      pop\n      tag_45\n      tag_46\n      jump\t// in\n    tag_45:\n      mload(0x40)\n      tag_47\n      swap2\n      swap1\n      tag_48\n      jump\t// in\n    tag_47:\n      mload(0x40)\n      dup1\n      swap2\n      sub\n      swap1\n      return\n        /* \"contracts/solar_insurance.sol\":2405:3315  function registerPolicy(... */\n    tag_8:\n      tag_49\n      0x04\n      dup1\n      calldatasize\n      sub\n      dup2\n      add\n      swap1\n      tag_50\n      swap2\n      swap1\n      tag_51\n      jump\t// in\n    tag_50:\n      tag_52\n      jump\t// in\n    tag_49:\n      stop\n        /* \"libraries/Demoable.sol\":576:643  function fundContract() public payable requireNonZeroValue {... */\n    tag_9:\n      tag_53\n      tag_54\n      jump\t// in\n    tag_53:\n      stop\n        /* \"contracts/solar_insurance.sol\":3378:3657  function renewPolicy()... */\n    tag_10:\n      tag_55\n      tag_56\n      jump\t// in\n    tag_55:\n      stop\n        /* \"contracts/solar_insurance.sol\":7216:7915  function getClaimAmount(uint256 year) public view returns (uint256) {... */\n    tag_11:\n      callvalue\n      dup1\n      iszero\n      tag_57\n      jumpi\n      0x00\n      dup1\n      revert\n    tag_57:\n      pop\n      tag_58\n      0x04\n      dup1\n      calldatasize\n      sub\n      dup2\n      add\n      swap1\n      tag_59\n      swap2\n      swap1\n      tag_32\n      jump\t// in\n    tag_59:\n      tag_60\n      jump\t// in\n    tag_58:\n      mload(0x40)\n      tag_61\n      swap2\n      swap1\n      tag_23\n      jump\t// in\n    tag_61:\n      mload(0x40)\n      dup1\n      swap2\n      sub\n      swap1\n      return\n        /* \"contracts/solar_insurance.sol\":3716:4820  function fileClaim(uint256 year)... */\n    tag_12:\n      callvalue\n      dup1\n      iszero\n      tag_62\n      jumpi\n      0x00\n      dup1\n      revert\n    tag_62:\n      pop\n      tag_63\n      0x04\n      dup1\n      calldatasize\n      sub\n      dup2\n      add\n      swap1\n      tag_64\n      swap2\n      swap1\n      tag_32\n      jump\t// in\n    tag_64:\n      tag_65\n      jump\t// in\n    tag_63:\n      stop\n        /* \"contracts/solar_insurance.sol\":1525:1575  mapping(string => uint256) public _sunshineRecords */\n    tag_13:\n      callvalue\n      dup1\n      iszero\n      tag_66\n      jumpi\n      0x00\n      dup1\n      revert\n    tag_66:\n      pop\n      tag_67\n      0x04\n      dup1\n      calldatasize\n      sub\n      dup2\n      add\n      swap1\n      tag_68\n      swap2\n      swap1\n      tag_69\n      jump\t// in\n    tag_68:\n      tag_70\n      jump\t// in\n    tag_67:\n      mload(0x40)\n      tag_71\n      swap2\n      swap1\n      tag_23\n      jump\t// in\n    tag_71:\n      mload(0x40)\n      dup1\n      swap2\n      sub\n      swap1\n      return\n        /* \"contracts/solar_insurance.sol\":5259:5481  function getRequiredPremium(ClientRiskLevels riskLevel, uint256 panelArea)... */\n    tag_14:\n      callvalue\n      dup1\n      iszero\n      tag_72\n      jumpi\n      0x00\n      dup1\n      revert\n    tag_72:\n      pop\n      tag_73\n      0x04\n      dup1\n      calldatasize\n      sub\n      dup2\n      add\n      swap1\n      tag_74\n      swap2\n      swap1\n      tag_75\n      jump\t// in\n    tag_74:\n      tag_76\n      jump\t// in\n    tag_73:\n      mload(0x40)\n      tag_77\n      swap2\n      swap1\n      tag_23\n      jump\t// in\n    tag_77:\n      mload(0x40)\n      dup1\n      swap2\n      sub\n      swap1\n      return\n        /* \"contracts/solar_insurance.sol\":1772:1821  mapping(address => uint256) public _allowedClaims */\n    tag_21:\n      mstore(0x20, 0x07)\n      dup1\n      0x00\n      mstore\n      keccak256(0x00, 0x40)\n      0x00\n      swap2\n      pop\n      swap1\n      pop\n      sload\n      dup2\n      jump\t// out\n        /* \"contracts/solar_insurance.sol\":5824:6173  function createSunshineRecord(... */\n    tag_28:\n        /* \"contracts/solar_insurance.sol\":5953:5970  string memory key */\n      0x00\n        /* \"contracts/solar_insurance.sol\":5983:6000  SwissRegion.SOUTH */\n      dup1\n        /* \"contracts/solar_insurance.sol\":5973:6000  region == SwissRegion.SOUTH */\n      0x01\n      dup2\n      gt\n      iszero\n      tag_79\n      jumpi\n      tag_80\n      tag_81\n      jump\t// in\n    tag_80:\n    tag_79:\n        /* \"contracts/solar_insurance.sol\":5973:5979  region */\n      dup4\n        /* \"contracts/solar_insurance.sol\":5973:6000  region == SwissRegion.SOUTH */\n      0x01\n      dup2\n      gt\n      iszero\n      tag_82\n      jumpi\n      tag_83\n      tag_81\n      jump\t// in\n    tag_83:\n    tag_82:\n      eq\n        /* \"contracts/solar_insurance.sol\":5973:6124  region == SwissRegion.SOUTH... */\n      tag_84\n      jumpi\n        /* \"contracts/solar_insurance.sol\":6091:6113  Strings.toString(year) */\n      tag_85\n        /* \"contracts/solar_insurance.sol\":6108:6112  year */\n      dup5\n        /* \"contracts/solar_insurance.sol\":6091:6107  Strings.toString */\n      tag_86\n        /* \"contracts/solar_insurance.sol\":6091:6113  Strings.toString(year) */\n      jump\t// in\n    tag_85:\n        /* \"contracts/solar_insurance.sol\":6077:6124  string.concat(Strings.toString(year), \"_NORTH\") */\n      add(0x20, mload(0x40))\n      tag_87\n      swap2\n      swap1\n      tag_88\n      jump\t// in\n    tag_87:\n      mload(0x40)\n      0x20\n      dup2\n      dup4\n      sub\n      sub\n      dup2\n      mstore\n      swap1\n      0x40\n      mstore\n        /* \"contracts/solar_insurance.sol\":5973:6124  region == SwissRegion.SOUTH... */\n      jump(tag_89)\n    tag_84:\n        /* \"contracts/solar_insurance.sol\":6029:6051  Strings.toString(year) */\n      tag_90\n        /* \"contracts/solar_insurance.sol\":6046:6050  year */\n      dup5\n        /* \"contracts/solar_insurance.sol\":6029:6045  Strings.toString */\n      tag_86\n        /* \"contracts/solar_insurance.sol\":6029:6051  Strings.toString(year) */\n      jump\t// in\n    tag_90:\n        /* \"contracts/solar_insurance.sol\":6015:6062  string.concat(Strings.toString(year), \"_SOUTH\") */\n      add(0x20, mload(0x40))\n      tag_91\n      swap2\n      swap1\n      tag_92\n      jump\t// in\n    tag_91:\n      mload(0x40)\n      0x20\n      dup2\n      dup4\n      sub\n      sub\n      dup2\n      mstore\n      swap1\n      0x40\n      mstore\n        /* \"contracts/solar_insurance.sol\":5973:6124  region == SwissRegion.SOUTH... */\n    tag_89:\n        /* \"contracts/solar_insurance.sol\":5953:6124  string memory key = region == SwissRegion.SOUTH... */\n      swap1\n      pop\n        /* \"contracts/solar_insurance.sol\":6158:6166  duration */\n      dup2\n        /* \"contracts/solar_insurance.sol\":6134:6150  _sunshineRecords */\n      0x05\n        /* \"contracts/solar_insurance.sol\":6151:6154  key */\n      dup3\n        /* \"contracts/solar_insurance.sol\":6134:6155  _sunshineRecords[key] */\n      mload(0x40)\n      tag_93\n      swap2\n      swap1\n      tag_94\n      jump\t// in\n    tag_93:\n      swap1\n      dup2\n      mstore\n      0x20\n      add\n      mload(0x40)\n      dup1\n      swap2\n      sub\n      swap1\n      keccak256\n        /* \"contracts/solar_insurance.sol\":6134:6166  _sunshineRecords[key] = duration */\n      dup2\n      swap1\n      sstore\n      pop\n        /* \"contracts/solar_insurance.sol\":5943:6173  {... */\n      pop\n        /* \"contracts/solar_insurance.sol\":5824:6173  function createSunshineRecord(... */\n      pop\n      pop\n      pop\n      jump\t// out\n        /* \"contracts/solar_insurance.sol\":6611:7210  function fileClaimWithoutTimeoutCheck(uint256 year)... */\n    tag_33:\n        /* \"contracts/solar_insurance.sol\":10030:10031  0 */\n      0x00\n        /* \"contracts/solar_insurance.sol\":9996:10006  _contracts */\n      0x06\n        /* \"contracts/solar_insurance.sol\":9996:10018  _contracts[msg.sender] */\n      0x00\n        /* \"contracts/solar_insurance.sol\":10007:10017  msg.sender */\n      caller\n        /* \"contracts/solar_insurance.sol\":9996:10018  _contracts[msg.sender] */\n      0xffffffffffffffffffffffffffffffffffffffff\n      and\n      0xffffffffffffffffffffffffffffffffffffffff\n      and\n      dup2\n      mstore\n      0x20\n      add\n      swap1\n      dup2\n      mstore\n      0x20\n      add\n      0x00\n      keccak256\n        /* \"contracts/solar_insurance.sol\":9996:10027  _contracts[msg.sender].duration */\n      0x04\n      add\n      sload\n        /* \"contracts/solar_insurance.sol\":9996:10031  _contracts[msg.sender].duration > 0 */\n      gt\n        /* \"contracts/solar_insurance.sol\":9996:10100  _contracts[msg.sender].duration > 0 &&... */\n      dup1\n      iszero\n      tag_96\n      jumpi\n      pop\n        /* \"contracts/solar_insurance.sol\":10085:10100  block.timestamp */\n      timestamp\n        /* \"contracts/solar_insurance.sol\":10051:10061  _contracts */\n      0x06\n        /* \"contracts/solar_insurance.sol\":10051:10073  _contracts[msg.sender] */\n      0x00\n        /* \"contracts/solar_insurance.sol\":10062:10072  msg.sender */\n      caller\n        /* \"contracts/solar_insurance.sol\":10051:10073  _contracts[msg.sender] */\n      0xffffffffffffffffffffffffffffffffffffffff\n      and\n      0xffffffffffffffffffffffffffffffffffffffff\n      and\n      dup2\n      mstore\n      0x20\n      add\n      swap1\n      dup2\n      mstore\n      0x20\n      add\n      0x00\n      keccak256\n        /* \"contracts/solar_insurance.sol\":10051:10082  _contracts[msg.sender].duration */\n      0x04\n      add\n      sload\n        /* \"contracts/solar_insurance.sol\":10051:10100  _contracts[msg.sender].duration > block.timestamp */\n      gt\n        /* \"contracts/solar_insurance.sol\":9996:10100  _contracts[msg.sender].duration > 0 &&... */\n    tag_96:\n        /* \"contracts/solar_insurance.sol\":9975:10152  require(... */\n      tag_97\n      jumpi\n      mload(0x40)\n      0x08c379a000000000000000000000000000000000000000000000000000000000\n      dup2\n      mstore\n      0x04\n      add\n      tag_98\n      swap1\n      tag_99\n      jump\t// in\n    tag_98:\n      mload(0x40)\n      dup1\n      swap2\n      sub\n      swap1\n      revert\n    tag_97:\n        /* \"contracts/solar_insurance.sol\":6729:6733  year */\n      dup1\n        /* \"contracts/solar_insurance.sol\":10933:10937  year */\n      dup1\n        /* \"contracts/solar_insurance.sol\":10903:10917  _allowedClaims */\n      0x07\n        /* \"contracts/solar_insurance.sol\":10903:10929  _allowedClaims[msg.sender] */\n      0x00\n        /* \"contracts/solar_insurance.sol\":10918:10928  msg.sender */\n      caller\n        /* \"contracts/solar_insurance.sol\":10903:10929  _allowedClaims[msg.sender] */\n      0xffffffffffffffffffffffffffffffffffffffff\n      and\n      0xffffffffffffffffffffffffffffffffffffffff\n      and\n      dup2\n      mstore\n      0x20\n      add\n      swap1\n      dup2\n      mstore\n      0x20\n      add\n      0x00\n      keccak256\n      sload\n        /* \"contracts/solar_insurance.sol\":10903:10937  _allowedClaims[msg.sender] == year */\n      eq\n        /* \"contracts/solar_insurance.sol\":10882:11008  require(... */\n      tag_101\n      jumpi\n      mload(0x40)\n      0x08c379a000000000000000000000000000000000000000000000000000000000\n      dup2\n      mstore\n      0x04\n      add\n      tag_102\n      swap1\n      tag_103\n      jump\t// in\n    tag_102:\n      mload(0x40)\n      dup1\n      swap2\n      sub\n      swap1\n      revert\n    tag_101:\n        /* \"contracts/solar_insurance.sol\":6763:6767  year */\n      dup2\n        /* \"contracts/solar_insurance.sol\":10229:10249  bool isLocationSouth */\n      0x00\n        /* \"contracts/solar_insurance.sol\":10292:10309  SwissRegion.SOUTH */\n      dup1\n        /* \"contracts/solar_insurance.sol\":10252:10309  _contracts[msg.sender].panelLocation == SwissRegion.SOUTH */\n      0x01\n      dup2\n      gt\n      iszero\n      tag_105\n      jumpi\n      tag_106\n      tag_81\n      jump\t// in\n    tag_106:\n    tag_105:\n        /* \"contracts/solar_insurance.sol\":10252:10262  _contracts */\n      0x06\n        /* \"contracts/solar_insurance.sol\":10252:10274  _contracts[msg.sender] */\n      0x00\n        /* \"contracts/solar_insurance.sol\":10263:10273  msg.sender */\n      caller\n        /* \"contracts/solar_insurance.sol\":10252:10274  _contracts[msg.sender] */\n      0xffffffffffffffffffffffffffffffffffffffff\n      and\n      0xffffffffffffffffffffffffffffffffffffffff\n      and\n      dup2\n      mstore\n      0x20\n      add\n      swap1\n      dup2\n      mstore\n      0x20\n      add\n      0x00\n      keccak256\n        /* \"contracts/solar_insurance.sol\":10252:10288  _contracts[msg.sender].panelLocation */\n      0x00\n      add\n      0x14\n      swap1\n      sload\n      swap1\n      0x0100\n      exp\n      swap1\n      div\n      0xff\n      and\n        /* \"contracts/solar_insurance.sol\":10252:10309  _contracts[msg.sender].panelLocation == SwissRegion.SOUTH */\n      0x01\n      dup2\n      gt\n      iszero\n      tag_107\n      jumpi\n      tag_108\n      tag_81\n      jump\t// in\n    tag_108:\n    tag_107:\n      eq\n        /* \"contracts/solar_insurance.sol\":10229:10309  bool isLocationSouth = _contracts[msg.sender].panelLocation == SwissRegion.SOUTH */\n      swap1\n      pop\n        /* \"contracts/solar_insurance.sol\":10319:10336  string memory key */\n      0x00\n        /* \"contracts/solar_insurance.sol\":10339:10354  isLocationSouth */\n      dup2\n        /* \"contracts/solar_insurance.sol\":10339:10478  isLocationSouth ?... */\n      tag_109\n      jumpi\n        /* \"contracts/solar_insurance.sol\":10445:10467  Strings.toString(year) */\n      tag_110\n        /* \"contracts/solar_insurance.sol\":10462:10466  year */\n      dup4\n        /* \"contracts/solar_insurance.sol\":10445:10461  Strings.toString */\n      tag_86\n        /* \"contracts/solar_insurance.sol\":10445:10467  Strings.toString(year) */\n      jump\t// in\n    tag_110:\n        /* \"contracts/solar_insurance.sol\":10431:10478  string.concat(Strings.toString(year), \"_NORTH\") */\n      add(0x20, mload(0x40))\n      tag_111\n      swap2\n      swap1\n      tag_88\n      jump\t// in\n    tag_111:\n      mload(0x40)\n      0x20\n      dup2\n      dup4\n      sub\n      sub\n      dup2\n      mstore\n      swap1\n      0x40\n      mstore\n        /* \"contracts/solar_insurance.sol\":10339:10478  isLocationSouth ?... */\n      jump(tag_112)\n    tag_109:\n        /* \"contracts/solar_insurance.sol\":10383:10405  Strings.toString(year) */\n      tag_113\n        /* \"contracts/solar_insurance.sol\":10400:10404  year */\n      dup4\n        /* \"contracts/solar_insurance.sol\":10383:10399  Strings.toString */\n      tag_86\n        /* \"contracts/solar_insurance.sol\":10383:10405  Strings.toString(year) */\n      jump\t// in\n    tag_113:\n        /* \"contracts/solar_insurance.sol\":10369:10416  string.concat(Strings.toString(year), \"_SOUTH\") */\n      add(0x20, mload(0x40))\n      tag_114\n      swap2\n      swap1\n      tag_92\n      jump\t// in\n    tag_114:\n      mload(0x40)\n      0x20\n      dup2\n      dup4\n      sub\n      sub\n      dup2\n      mstore\n      swap1\n      0x40\n      mstore\n        /* \"contracts/solar_insurance.sol\":10339:10478  isLocationSouth ?... */\n    tag_112:\n        /* \"contracts/solar_insurance.sol\":10319:10478  string memory key = isLocationSouth ?... */\n      swap1\n      pop\n        /* \"contracts/solar_insurance.sol\":10535:10536  0 */\n      0x00\n        /* \"contracts/solar_insurance.sol\":10510:10526  _sunshineRecords */\n      0x05\n        /* \"contracts/solar_insurance.sol\":10527:10530  key */\n      dup3\n        /* \"contracts/solar_insurance.sol\":10510:10531  _sunshineRecords[key] */\n      mload(0x40)\n      tag_115\n      swap2\n      swap1\n      tag_94\n      jump\t// in\n    tag_115:\n      swap1\n      dup2\n      mstore\n      0x20\n      add\n      mload(0x40)\n      dup1\n      swap2\n      sub\n      swap1\n      keccak256\n      sload\n        /* \"contracts/solar_insurance.sol\":10510:10536  _sunshineRecords[key] != 0 */\n      sub\n        /* \"contracts/solar_insurance.sol\":10489:10603  require(... */\n      tag_116\n      jumpi\n      mload(0x40)\n      0x08c379a000000000000000000000000000000000000000000000000000000000\n      dup2\n      mstore\n      0x04\n      add\n      tag_117\n      swap1\n      tag_118\n      jump\t// in\n    tag_117:\n      mload(0x40)\n      dup1\n      swap2\n      sub\n      swap1\n      revert\n    tag_116:\n        /* \"contracts/solar_insurance.sol\":6818:6837  uint256 claimAmount */\n      0x00\n        /* \"contracts/solar_insurance.sol\":6840:6860  getClaimAmount(year) */\n      tag_120\n        /* \"contracts/solar_insurance.sol\":6855:6859  year */\n      dup7\n        /* \"contracts/solar_insurance.sol\":6840:6854  getClaimAmount */\n      tag_60\n        /* \"contracts/solar_insurance.sol\":6840:6860  getClaimAmount(year) */\n      jump\t// in\n    tag_120:\n        /* \"contracts/solar_insurance.sol\":6818:6860  uint256 claimAmount = getClaimAmount(year) */\n      swap1\n      pop\n        /* \"contracts/solar_insurance.sol\":6930:6940  msg.sender */\n      caller\n        /* \"contracts/solar_insurance.sol\":6922:6950  payable(msg.sender).transfer */\n      0xffffffffffffffffffffffffffffffffffffffff\n      and\n        /* \"contracts/solar_insurance.sol\":6922:6963  payable(msg.sender).transfer(claimAmount) */\n      0x08fc\n        /* \"contracts/solar_insurance.sol\":6951:6962  claimAmount */\n      dup3\n        /* \"contracts/solar_insurance.sol\":6922:6963  payable(msg.sender).transfer(claimAmount) */\n      swap1\n      dup2\n      iszero\n      mul\n      swap1\n      mload(0x40)\n      0x00\n      mload(0x40)\n      dup1\n      dup4\n      sub\n      dup2\n      dup6\n      dup9\n      dup9\n      call\n      swap4\n      pop\n      pop\n      pop\n      pop\n      iszero\n      dup1\n      iszero\n      tag_122\n      jumpi\n      returndatasize\n      0x00\n      dup1\n      returndatacopy\n      revert(0x00, returndatasize)\n    tag_122:\n      pop\n        /* \"contracts/solar_insurance.sol\":7044:7097  _contracts[msg.sender].claimTimeout.add(1 * 365 days) */\n      tag_123\n        /* \"contracts/solar_insurance.sol\":7084:7096  1 * 365 days */\n      0x01e13380\n        /* \"contracts/solar_insurance.sol\":7044:7054  _contracts */\n      0x06\n        /* \"contracts/solar_insurance.sol\":7044:7066  _contracts[msg.sender] */\n      0x00\n        /* \"contracts/solar_insurance.sol\":7055:7065  msg.sender */\n      caller\n        /* \"contracts/solar_insurance.sol\":7044:7066  _contracts[msg.sender] */\n      0xffffffffffffffffffffffffffffffffffffffff\n      and\n      0xffffffffffffffffffffffffffffffffffffffff\n      and\n      dup2\n      mstore\n      0x20\n      add\n      swap1\n      dup2\n      mstore\n      0x20\n      add\n      0x00\n      keccak256\n        /* \"contracts/solar_insurance.sol\":7044:7079  _contracts[msg.sender].claimTimeout */\n      0x05\n      add\n      sload\n        /* \"contracts/solar_insurance.sol\":7044:7083  _contracts[msg.sender].claimTimeout.add */\n      tag_124\n      swap1\n        /* \"contracts/solar_insurance.sol\":7044:7097  _contracts[msg.sender].claimTimeout.add(1 * 365 days) */\n      swap2\n      swap1\n      0xffffffff\n      and\n      jump\t// in\n    tag_123:\n      pop\n        /* \"contracts/solar_insurance.sol\":7145:7146  0 */\n      0x00\n        /* \"contracts/solar_insurance.sol\":7111:7121  _contracts */\n      0x06\n        /* \"contracts/solar_insurance.sol\":7111:7133  _contracts[msg.sender] */\n      0x00\n        /* \"contracts/solar_insurance.sol\":7122:7132  msg.sender */\n      caller\n        /* \"contracts/solar_insurance.sol\":7111:7133  _contracts[msg.sender] */\n      0xffffffffffffffffffffffffffffffffffffffff\n      and\n      0xffffffffffffffffffffffffffffffffffffffff\n      and\n      dup2\n      mstore\n      0x20\n      add\n      swap1\n      dup2\n      mstore\n      0x20\n      add\n      0x00\n      keccak256\n        /* \"contracts/solar_insurance.sol\":7111:7142  _contracts[msg.sender].duration */\n      0x04\n      add\n      sload\n        /* \"contracts/solar_insurance.sol\":7111:7146  _contracts[msg.sender].duration > 0 */\n      gt\n        /* \"contracts/solar_insurance.sol\":7107:7204  if (_contracts[msg.sender].duration > 0) {... */\n      iszero\n      tag_125\n      jumpi\n        /* \"contracts/solar_insurance.sol\":7192:7193  1 */\n      0x01\n        /* \"contracts/solar_insurance.sol\":7162:7176  _allowedClaims */\n      0x07\n        /* \"contracts/solar_insurance.sol\":7162:7188  _allowedClaims[msg.sender] */\n      0x00\n        /* \"contracts/solar_insurance.sol\":7177:7187  msg.sender */\n      caller\n        /* \"contracts/solar_insurance.sol\":7162:7188  _allowedClaims[msg.sender] */\n      0xffffffffffffffffffffffffffffffffffffffff\n      and\n      0xffffffffffffffffffffffffffffffffffffffff\n      and\n      dup2\n      mstore\n      0x20\n      add\n      swap1\n      dup2\n      mstore\n      0x20\n      add\n      0x00\n      keccak256\n      0x00\n        /* \"contracts/solar_insurance.sol\":7162:7193  _allowedClaims[msg.sender] += 1 */\n      dup3\n      dup3\n      sload\n      tag_126\n      swap2\n      swap1\n      tag_127\n      jump\t// in\n    tag_126:\n      swap3\n      pop\n      pop\n      dup2\n      swap1\n      sstore\n      pop\n        /* \"contracts/solar_insurance.sol\":7107:7204  if (_contracts[msg.sender].duration > 0) {... */\n    tag_125:\n        /* \"contracts/solar_insurance.sol\":6769:7210  {... */\n      pop\n        /* \"contracts/solar_insurance.sol\":10219:10621  {... */\n      pop\n      pop\n        /* \"contracts/solar_insurance.sol\":11018:11019  _ */\n      pop\n        /* \"contracts/solar_insurance.sol\":10162:10163  _ */\n      pop\n        /* \"contracts/solar_insurance.sol\":6611:7210  function fileClaimWithoutTimeoutCheck(uint256 year)... */\n      pop\n      jump\t// out\n        /* \"contracts/solar_insurance.sol\":4874:4964  function owner() public view requireOwner returns (address) {... */\n    tag_36:\n        /* \"contracts/solar_insurance.sol\":4925:4932  address */\n      0x00\n        /* \"contracts/solar_insurance.sol\":8092:8110  bool senderIsOwner */\n      dup1\n        /* \"contracts/solar_insurance.sol\":8127:8133  _owner */\n      0x00\n      dup1\n      sload\n      swap1\n      0x0100\n      exp\n      swap1\n      div\n      0xffffffffffffffffffffffffffffffffffffffff\n      and\n        /* \"contracts/solar_insurance.sol\":8113:8133  msg.sender == _owner */\n      0xffffffffffffffffffffffffffffffffffffffff\n      and\n        /* \"contracts/solar_insurance.sol\":8113:8123  msg.sender */\n      caller\n        /* \"contracts/solar_insurance.sol\":8113:8133  msg.sender == _owner */\n      0xffffffffffffffffffffffffffffffffffffffff\n      and\n      eq\n        /* \"contracts/solar_insurance.sol\":8092:8133  bool senderIsOwner = msg.sender == _owner */\n      swap1\n      pop\n        /* \"contracts/solar_insurance.sol\":8164:8177  senderIsOwner */\n      dup1\n        /* \"contracts/solar_insurance.sol\":8143:8263  require(... */\n      tag_129\n      jumpi\n      mload(0x40)\n      0x08c379a000000000000000000000000000000000000000000000000000000000\n      dup2\n      mstore\n      0x04\n      add\n      tag_130\n      swap1\n      tag_131\n      jump\t// in\n    tag_130:\n      mload(0x40)\n      dup1\n      swap2\n      sub\n      swap1\n      revert\n    tag_129:\n        /* \"contracts/solar_insurance.sol\":4951:4957  _owner */\n      0x00\n      dup1\n      sload\n      swap1\n      0x0100\n      exp\n      swap1\n      div\n      0xffffffffffffffffffffffffffffffffffffffff\n      and\n        /* \"contracts/solar_insurance.sol\":4944:4957  return _owner */\n      swap2\n      pop\n        /* \"contracts/solar_insurance.sol\":8082:8281  {... */\n      pop\n        /* \"contracts/solar_insurance.sol\":4874:4964  function owner() public view requireOwner returns (address) {... */\n      swap1\n      jump\t// out\n        /* \"contracts/solar_insurance.sol\":9316:9432  function getContract() public view returns (bool){... */\n    tag_41:\n        /* \"contracts/solar_insurance.sol\":9360:9364  bool */\n      0x00\n        /* \"contracts/solar_insurance.sol\":9423:9424  0 */\n      dup1\n        /* \"contracts/solar_insurance.sol\":9382:9425  _contracts[msg.sender].client == address(0) */\n      0xffffffffffffffffffffffffffffffffffffffff\n      and\n        /* \"contracts/solar_insurance.sol\":9382:9392  _contracts */\n      0x06\n        /* \"contracts/solar_insurance.sol\":9382:9404  _contracts[msg.sender] */\n      0x00\n        /* \"contracts/solar_insurance.sol\":9393:9403  msg.sender */\n      caller\n        /* \"contracts/solar_insurance.sol\":9382:9404  _contracts[msg.sender] */\n      0xffffffffffffffffffffffffffffffffffffffff\n      and\n      0xffffffffffffffffffffffffffffffffffffffff\n      and\n      dup2\n      mstore\n      0x20\n      add\n      swap1\n      dup2\n      mstore\n      0x20\n      add\n      0x00\n      keccak256\n        /* \"contracts/solar_insurance.sol\":9382:9411  _contracts[msg.sender].client */\n      0x00\n      add\n      0x00\n      swap1\n      sload\n      swap1\n      0x0100\n      exp\n      swap1\n      div\n      0xffffffffffffffffffffffffffffffffffffffff\n      and\n        /* \"contracts/solar_insurance.sol\":9382:9425  _contracts[msg.sender].client == address(0) */\n      0xffffffffffffffffffffffffffffffffffffffff\n      and\n      eq\n        /* \"contracts/solar_insurance.sol\":9375:9425  return _contracts[msg.sender].client == address(0) */\n      swap1\n      pop\n        /* \"contracts/solar_insurance.sol\":9316:9432  function getContract() public view returns (bool){... */\n      swap1\n      jump\t// out\n        /* \"contracts/solar_insurance.sol\":5026:5204  function getSolarInsurance()... */\n    tag_46:\n        /* \"contracts/solar_insurance.sol\":5123:5152  SolarInsuranceContract memory */\n      tag_134\n      tag_135\n      jump\t// in\n    tag_134:\n        /* \"contracts/solar_insurance.sol\":10030:10031  0 */\n      0x00\n        /* \"contracts/solar_insurance.sol\":9996:10006  _contracts */\n      0x06\n        /* \"contracts/solar_insurance.sol\":9996:10018  _contracts[msg.sender] */\n      0x00\n        /* \"contracts/solar_insurance.sol\":10007:10017  msg.sender */\n      caller\n        /* \"contracts/solar_insurance.sol\":9996:10018  _contracts[msg.sender] */\n      0xffffffffffffffffffffffffffffffffffffffff\n      and\n      0xffffffffffffffffffffffffffffffffffffffff\n      and\n      dup2\n      mstore\n      0x20\n      add\n      swap1\n      dup2\n      mstore\n      0x20\n      add\n      0x00\n      keccak256\n        /* \"contracts/solar_insurance.sol\":9996:10027  _contracts[msg.sender].duration */\n      0x04\n      add\n      sload\n        /* \"contracts/solar_insurance.sol\":9996:10031  _contracts[msg.sender].duration > 0 */\n      gt\n        /* \"contracts/solar_insurance.sol\":9996:10100  _contracts[msg.sender].duration > 0 &&... */\n      dup1\n      iszero\n      tag_137\n      jumpi\n      pop\n        /* \"contracts/solar_insurance.sol\":10085:10100  block.timestamp */\n      timestamp\n        /* \"contracts/solar_insurance.sol\":10051:10061  _contracts */\n      0x06\n        /* \"contracts/solar_insurance.sol\":10051:10073  _contracts[msg.sender] */\n      0x00\n        /* \"contracts/solar_insurance.sol\":10062:10072  msg.sender */\n      caller\n        /* \"contracts/solar_insurance.sol\":10051:10073  _contracts[msg.sender] */\n      0xffffffffffffffffffffffffffffffffffffffff\n      and\n      0xffffffffffffffffffffffffffffffffffffffff\n      and\n      dup2\n      mstore\n      0x20\n      add\n      swap1\n      dup2\n      mstore\n      0x20\n      add\n      0x00\n      keccak256\n        /* \"contracts/solar_insurance.sol\":10051:10082  _contracts[msg.sender].duration */\n      0x04\n      add\n      sload\n        /* \"contracts/solar_insurance.sol\":10051:10100  _contracts[msg.sender].duration > block.timestamp */\n      gt\n        /* \"contracts/solar_insurance.sol\":9996:10100  _contracts[msg.sender].duration > 0 &&... */\n    tag_137:\n        /* \"contracts/solar_insurance.sol\":9975:10152  require(... */\n      tag_138\n      jumpi\n      mload(0x40)\n      0x08c379a000000000000000000000000000000000000000000000000000000000\n      dup2\n      mstore\n      0x04\n      add\n      tag_139\n      swap1\n      tag_99\n      jump\t// in\n    tag_139:\n      mload(0x40)\n      dup1\n      swap2\n      sub\n      swap1\n      revert\n    tag_138:\n        /* \"contracts/solar_insurance.sol\":5175:5185  _contracts */\n      0x06\n        /* \"contracts/solar_insurance.sol\":5175:5197  _contracts[msg.sender] */\n      0x00\n        /* \"contracts/solar_insurance.sol\":5186:5196  msg.sender */\n      caller\n        /* \"contracts/solar_insurance.sol\":5175:5197  _contracts[msg.sender] */\n      0xffffffffffffffffffffffffffffffffffffffff\n      and\n      0xffffffffffffffffffffffffffffffffffffffff\n      and\n      dup2\n      mstore\n      0x20\n      add\n      swap1\n      dup2\n      mstore\n      0x20\n      add\n      0x00\n      keccak256\n        /* \"contracts/solar_insurance.sol\":5168:5197  return _contracts[msg.sender] */\n      mload(0x40)\n      dup1\n      0x0100\n      add\n      0x40\n      mstore\n      swap1\n      dup2\n      0x00\n      dup3\n      add\n      0x00\n      swap1\n      sload\n      swap1\n      0x0100\n      exp\n      swap1\n      div\n      0xffffffffffffffffffffffffffffffffffffffff\n      and\n      0xffffffffffffffffffffffffffffffffffffffff\n      and\n      0xffffffffffffffffffffffffffffffffffffffff\n      and\n      dup2\n      mstore\n      0x20\n      add\n      0x00\n      dup3\n      add\n      0x14\n      swap1\n      sload\n      swap1\n      0x0100\n      exp\n      swap1\n      div\n      0xff\n      and\n      0x01\n      dup2\n      gt\n      iszero\n      tag_141\n      jumpi\n      tag_142\n      tag_81\n      jump\t// in\n    tag_142:\n    tag_141:\n      0x01\n      dup2\n      gt\n      iszero\n      tag_143\n      jumpi\n      tag_144\n      tag_81\n      jump\t// in\n    tag_144:\n    tag_143:\n      dup2\n      mstore\n      0x20\n      add\n      0x00\n      dup3\n      add\n      0x15\n      swap1\n      sload\n      swap1\n      0x0100\n      exp\n      swap1\n      div\n      0xff\n      and\n      0x02\n      dup2\n      gt\n      iszero\n      tag_145\n      jumpi\n      tag_146\n      tag_81\n      jump\t// in\n    tag_146:\n    tag_145:\n      0x02\n      dup2\n      gt\n      iszero\n      tag_147\n      jumpi\n      tag_148\n      tag_81\n      jump\t// in\n    tag_148:\n    tag_147:\n      dup2\n      mstore\n      0x20\n      add\n      0x01\n      dup3\n      add\n      sload\n      dup2\n      mstore\n      0x20\n      add\n      0x02\n      dup3\n      add\n      sload\n      dup2\n      mstore\n      0x20\n      add\n      0x03\n      dup3\n      add\n      sload\n      dup2\n      mstore\n      0x20\n      add\n      0x04\n      dup3\n      add\n      sload\n      dup2\n      mstore\n      0x20\n      add\n      0x05\n      dup3\n      add\n      sload\n      dup2\n      mstore\n      pop\n      pop\n      swap1\n      pop\n        /* \"contracts/solar_insurance.sol\":5026:5204  function getSolarInsurance()... */\n      swap1\n      jump\t// out\n        /* \"contracts/solar_insurance.sol\":2405:3315  function registerPolicy(... */\n    tag_52:\n        /* \"contracts/solar_insurance.sol\":9730:9731  0 */\n      0x00\n        /* \"contracts/solar_insurance.sol\":9695:9705  _contracts */\n      0x06\n        /* \"contracts/solar_insurance.sol\":9695:9717  _contracts[msg.sender] */\n      0x00\n        /* \"contracts/solar_insurance.sol\":9706:9716  msg.sender */\n      caller\n        /* \"contracts/solar_insurance.sol\":9695:9717  _contracts[msg.sender] */\n      0xffffffffffffffffffffffffffffffffffffffff\n      and\n      0xffffffffffffffffffffffffffffffffffffffff\n      and\n      dup2\n      mstore\n      0x20\n      add\n      swap1\n      dup2\n      mstore\n      0x20\n      add\n      0x00\n      keccak256\n        /* \"contracts/solar_insurance.sol\":9695:9726  _contracts[msg.sender].duration */\n      0x04\n      add\n      sload\n        /* \"contracts/solar_insurance.sol\":9695:9731  _contracts[msg.sender].duration == 0 */\n      eq\n        /* \"contracts/solar_insurance.sol\":9695:9785  _contracts[msg.sender].duration == 0 ||  _contracts[msg.sender].duration < block.timestamp */\n      dup1\n      tag_150\n      jumpi\n      pop\n        /* \"contracts/solar_insurance.sol\":9770:9785  block.timestamp */\n      timestamp\n        /* \"contracts/solar_insurance.sol\":9736:9746  _contracts */\n      0x06\n        /* \"contracts/solar_insurance.sol\":9736:9758  _contracts[msg.sender] */\n      0x00\n        /* \"contracts/solar_insurance.sol\":9747:9757  msg.sender */\n      caller\n        /* \"contracts/solar_insurance.sol\":9736:9758  _contracts[msg.sender] */\n      0xffffffffffffffffffffffffffffffffffffffff\n      and\n      0xffffffffffffffffffffffffffffffffffffffff\n      and\n      dup2\n      mstore\n      0x20\n      add\n      swap1\n      dup2\n      mstore\n      0x20\n      add\n      0x00\n      keccak256\n        /* \"contracts/solar_insurance.sol\":9736:9767  _contracts[msg.sender].duration */\n      0x04\n      add\n      sload\n        /* \"contracts/solar_insurance.sol\":9736:9785  _contracts[msg.sender].duration < block.timestamp */\n      lt\n        /* \"contracts/solar_insurance.sol\":9695:9785  _contracts[msg.sender].duration == 0 ||  _contracts[msg.sender].duration < block.timestamp */\n    tag_150:\n        /* \"contracts/solar_insurance.sol\":9674:9841  require(... */\n      tag_151\n      jumpi\n      mload(0x40)\n      0x08c379a000000000000000000000000000000000000000000000000000000000\n      dup2\n      mstore\n      0x04\n      add\n      tag_152\n      swap1\n      tag_153\n      jump\t// in\n    tag_152:\n      mload(0x40)\n      dup1\n      swap2\n      sub\n      swap1\n      revert\n    tag_151:\n        /* \"contracts/solar_insurance.sol\":2615:2624  riskLevel */\n      dup3\n        /* \"contracts/solar_insurance.sol\":2626:2635  panelArea */\n      dup3\n        /* \"contracts/solar_insurance.sol\":9043:9055  uint256 prem */\n      0x00\n        /* \"contracts/solar_insurance.sol\":9096:9105  panelArea */\n      dup2\n        /* \"contracts/solar_insurance.sol\":9058:9074  _insuranceLevels */\n      0x04\n        /* \"contracts/solar_insurance.sol\":9058:9085  _insuranceLevels[riskLevel] */\n      0x00\n        /* \"contracts/solar_insurance.sol\":9075:9084  riskLevel */\n      dup6\n        /* \"contracts/solar_insurance.sol\":9058:9085  _insuranceLevels[riskLevel] */\n      0x02\n      dup2\n      gt\n      iszero\n      tag_155\n      jumpi\n      tag_156\n      tag_81\n      jump\t// in\n    tag_156:\n    tag_155:\n      0x02\n      dup2\n      gt\n      iszero\n      tag_157\n      jumpi\n      tag_158\n      tag_81\n      jump\t// in\n    tag_158:\n    tag_157:\n      dup2\n      mstore\n      0x20\n      add\n      swap1\n      dup2\n      mstore\n      0x20\n      add\n      0x00\n      keccak256\n        /* \"contracts/solar_insurance.sol\":9058:9093  _insuranceLevels[riskLevel].premium */\n      0x00\n      add\n      sload\n        /* \"contracts/solar_insurance.sol\":9058:9105  _insuranceLevels[riskLevel].premium * panelArea */\n      tag_159\n      swap2\n      swap1\n      tag_160\n      jump\t// in\n    tag_159:\n        /* \"contracts/solar_insurance.sol\":9043:9105  uint256 prem = _insuranceLevels[riskLevel].premium * panelArea */\n      swap1\n      pop\n        /* \"contracts/solar_insurance.sol\":9124:9143  bool premiumCovered */\n      0x00\n        /* \"contracts/solar_insurance.sol\":9159:9163  prem */\n      dup2\n        /* \"contracts/solar_insurance.sol\":9146:9155  msg.value */\n      callvalue\n        /* \"contracts/solar_insurance.sol\":9146:9163  msg.value == prem */\n      eq\n        /* \"contracts/solar_insurance.sol\":9124:9163  bool premiumCovered = msg.value == prem */\n      swap1\n      pop\n        /* \"contracts/solar_insurance.sol\":9194:9208  premiumCovered */\n      dup1\n        /* \"contracts/solar_insurance.sol\":9173:9292  require(... */\n      tag_161\n      jumpi\n      mload(0x40)\n      0x08c379a000000000000000000000000000000000000000000000000000000000\n      dup2\n      mstore\n      0x04\n      add\n      tag_162\n      swap1\n      tag_163\n      jump\t// in\n    tag_162:\n      mload(0x40)\n      dup1\n      swap2\n      sub\n      swap1\n      revert\n    tag_161:\n        /* \"contracts/solar_insurance.sol\":2676:3134  SolarInsuranceContract(... */\n      mload(0x40)\n      dup1\n      0x0100\n      add\n      0x40\n      mstore\n      dup1\n        /* \"contracts/solar_insurance.sol\":2712:2722  msg.sender */\n      caller\n        /* \"contracts/solar_insurance.sol\":2676:3134  SolarInsuranceContract(... */\n      0xffffffffffffffffffffffffffffffffffffffff\n      and\n      dup2\n      mstore\n      0x20\n      add\n        /* \"contracts/solar_insurance.sol\":2746:2754  location */\n      dup7\n        /* \"contracts/solar_insurance.sol\":2676:3134  SolarInsuranceContract(... */\n      0x01\n      dup2\n      gt\n      iszero\n      tag_165\n      jumpi\n      tag_166\n      tag_81\n      jump\t// in\n    tag_166:\n    tag_165:\n      dup2\n      mstore\n      0x20\n      add\n        /* \"contracts/solar_insurance.sol\":2768:2777  riskLevel */\n      dup9\n        /* \"contracts/solar_insurance.sol\":2676:3134  SolarInsuranceContract(... */\n      0x02\n      dup2\n      gt\n      iszero\n      tag_167\n      jumpi\n      tag_168\n      tag_81\n      jump\t// in\n    tag_168:\n    tag_167:\n      dup2\n      mstore\n      0x20\n      add\n        /* \"contracts/solar_insurance.sol\":2791:2800  panelArea */\n      dup8\n        /* \"contracts/solar_insurance.sol\":2676:3134  SolarInsuranceContract(... */\n      dup2\n      mstore\n      0x20\n      add\n        /* \"contracts/solar_insurance.sol\":2846:2862  _insuranceLevels */\n      0x04\n        /* \"contracts/solar_insurance.sol\":2846:2873  _insuranceLevels[riskLevel] */\n      0x00\n        /* \"contracts/solar_insurance.sol\":2863:2872  riskLevel */\n      dup11\n        /* \"contracts/solar_insurance.sol\":2846:2873  _insuranceLevels[riskLevel] */\n      0x02\n      dup2\n      gt\n      iszero\n      tag_169\n      jumpi\n      tag_170\n      tag_81\n      jump\t// in\n    tag_170:\n    tag_169:\n      0x02\n      dup2\n      gt\n      iszero\n      tag_171\n      jumpi\n      tag_172\n      tag_81\n      jump\t// in\n    tag_172:\n    tag_171:\n      dup2\n      mstore\n      0x20\n      add\n      swap1\n      dup2\n      mstore\n      0x20\n      add\n      0x00\n      keccak256\n        /* \"contracts/solar_insurance.sol\":2846:2881  _insuranceLevels[riskLevel].premium */\n      0x00\n      add\n      sload\n        /* \"contracts/solar_insurance.sol\":2834:2843  panelArea */\n      dup9\n        /* \"contracts/solar_insurance.sol\":2834:2881  panelArea * _insuranceLevels[riskLevel].premium */\n      tag_173\n      swap2\n      swap1\n      tag_160\n      jump\t// in\n    tag_173:\n        /* \"contracts/solar_insurance.sol\":2676:3134  SolarInsuranceContract(... */\n      dup2\n      mstore\n      0x20\n      add\n        /* \"contracts/solar_insurance.sol\":2913:2928  block.timestamp */\n      timestamp\n        /* \"contracts/solar_insurance.sol\":2676:3134  SolarInsuranceContract(... */\n      dup2\n      mstore\n      0x20\n      add\n        /* \"contracts/solar_insurance.sol\":2966:2999  block.timestamp.add(1 * 365 days) */\n      tag_174\n        /* \"contracts/solar_insurance.sol\":2986:2998  1 * 365 days */\n      0x01e13380\n        /* \"contracts/solar_insurance.sol\":2966:2981  block.timestamp */\n      timestamp\n        /* \"contracts/solar_insurance.sol\":2966:2985  block.timestamp.add */\n      tag_124\n      swap1\n        /* \"contracts/solar_insurance.sol\":2966:2999  block.timestamp.add(1 * 365 days) */\n      swap2\n      swap1\n      0xffffffff\n      and\n      jump\t// in\n    tag_174:\n        /* \"contracts/solar_insurance.sol\":2676:3134  SolarInsuranceContract(... */\n      dup2\n      mstore\n      0x20\n      add\n        /* \"contracts/solar_insurance.sol\":3033:3066  block.timestamp.add(1 * 365 days) */\n      tag_175\n        /* \"contracts/solar_insurance.sol\":3053:3065  1 * 365 days */\n      0x01e13380\n        /* \"contracts/solar_insurance.sol\":3033:3048  block.timestamp */\n      timestamp\n        /* \"contracts/solar_insurance.sol\":3033:3052  block.timestamp.add */\n      tag_124\n      swap1\n        /* \"contracts/solar_insurance.sol\":3033:3066  block.timestamp.add(1 * 365 days) */\n      swap2\n      swap1\n      0xffffffff\n      and\n      jump\t// in\n    tag_175:\n        /* \"contracts/solar_insurance.sol\":2676:3134  SolarInsuranceContract(... */\n      dup2\n      mstore\n      pop\n        /* \"contracts/solar_insurance.sol\":2651:2661  _contracts */\n      0x06\n        /* \"contracts/solar_insurance.sol\":2651:2673  _contracts[msg.sender] */\n      0x00\n        /* \"contracts/solar_insurance.sol\":2662:2672  msg.sender */\n      caller\n        /* \"contracts/solar_insurance.sol\":2651:2673  _contracts[msg.sender] */\n      0xffffffffffffffffffffffffffffffffffffffff\n      and\n      0xffffffffffffffffffffffffffffffffffffffff\n      and\n      dup2\n      mstore\n      0x20\n      add\n      swap1\n      dup2\n      mstore\n      0x20\n      add\n      0x00\n      keccak256\n        /* \"contracts/solar_insurance.sol\":2651:3134  _contracts[msg.sender] = SolarInsuranceContract(... */\n      0x00\n      dup3\n      add\n      mload\n      dup2\n      0x00\n      add\n      exp(0x0100, 0x00)\n      dup2\n      sload\n      dup2\n      0xffffffffffffffffffffffffffffffffffffffff\n      mul\n      not\n      and\n      swap1\n      dup4\n      0xffffffffffffffffffffffffffffffffffffffff\n      and\n      mul\n      or\n      swap1\n      sstore\n      pop\n      0x20\n      dup3\n      add\n      mload\n      dup2\n      0x00\n      add\n      exp(0x0100, 0x14)\n      dup2\n      sload\n      dup2\n      0xff\n      mul\n      not\n      and\n      swap1\n      dup4\n      0x01\n      dup2\n      gt\n      iszero\n      tag_176\n      jumpi\n      tag_177\n      tag_81\n      jump\t// in\n    tag_177:\n    tag_176:\n      mul\n      or\n      swap1\n      sstore\n      pop\n      0x40\n      dup3\n      add\n      mload\n      dup2\n      0x00\n      add\n      exp(0x0100, 0x15)\n      dup2\n      sload\n      dup2\n      0xff\n      mul\n      not\n      and\n      swap1\n      dup4\n      0x02\n      dup2\n      gt\n      iszero\n      tag_178\n      jumpi\n      tag_179\n      tag_81\n      jump\t// in\n    tag_179:\n    tag_178:\n      mul\n      or\n      swap1\n      sstore\n      pop\n      0x60\n      dup3\n      add\n      mload\n      dup2\n      0x01\n      add\n      sstore\n      0x80\n      dup3\n      add\n      mload\n      dup2\n      0x02\n      add\n      sstore\n      0xa0\n      dup3\n      add\n      mload\n      dup2\n      0x03\n      add\n      sstore\n      0xc0\n      dup3\n      add\n      mload\n      dup2\n      0x04\n      add\n      sstore\n      0xe0\n      dup3\n      add\n      mload\n      dup2\n      0x05\n      add\n      sstore\n      swap1\n      pop\n      pop\n        /* \"contracts/solar_insurance.sol\":3251:3255  1970 */\n      0x07b2\n        /* \"contracts/solar_insurance.sol\":3217:3235  60 * 60 * 24 * 365 */\n      0x01e13380\n        /* \"contracts/solar_insurance.sol\":3186:3201  block.timestamp */\n      timestamp\n        /* \"contracts/solar_insurance.sol\":3186:3236  block.timestamp /... */\n      tag_180\n      swap2\n      swap1\n      tag_181\n      jump\t// in\n    tag_180:\n        /* \"contracts/solar_insurance.sol\":3186:3255  block.timestamp /... */\n      tag_182\n      swap2\n      swap1\n      tag_127\n      jump\t// in\n    tag_182:\n        /* \"contracts/solar_insurance.sol\":3145:3159  _allowedClaims */\n      0x07\n        /* \"contracts/solar_insurance.sol\":3145:3171  _allowedClaims[msg.sender] */\n      0x00\n        /* \"contracts/solar_insurance.sol\":3160:3170  msg.sender */\n      caller\n        /* \"contracts/solar_insurance.sol\":3145:3171  _allowedClaims[msg.sender] */\n      0xffffffffffffffffffffffffffffffffffffffff\n      and\n      0xffffffffffffffffffffffffffffffffffffffff\n      and\n      dup2\n      mstore\n      0x20\n      add\n      swap1\n      dup2\n      mstore\n      0x20\n      add\n      0x00\n      keccak256\n        /* \"contracts/solar_insurance.sol\":3145:3255  _allowedClaims[msg.sender] =... */\n      dup2\n      swap1\n      sstore\n      pop\n        /* \"contracts/solar_insurance.sol\":3265:3274  _payments */\n      0x09\n        /* \"contracts/solar_insurance.sol\":3265:3286  _payments[msg.sender] */\n      0x00\n        /* \"contracts/solar_insurance.sol\":3275:3285  msg.sender */\n      caller\n        /* \"contracts/solar_insurance.sol\":3265:3286  _payments[msg.sender] */\n      0xffffffffffffffffffffffffffffffffffffffff\n      and\n      0xffffffffffffffffffffffffffffffffffffffff\n      and\n      dup2\n      mstore\n      0x20\n      add\n      swap1\n      dup2\n      mstore\n      0x20\n      add\n      0x00\n      keccak256\n        /* \"contracts/solar_insurance.sol\":3292:3307  block.timestamp */\n      timestamp\n        /* \"contracts/solar_insurance.sol\":3265:3308  _payments[msg.sender].push(block.timestamp) */\n      swap1\n      dup1\n      0x01\n      dup2\n      sload\n      add\n      dup1\n      dup3\n      sstore\n      dup1\n      swap2\n      pop\n      pop\n      0x01\n      swap1\n      sub\n      swap1\n      0x00\n      mstore\n      keccak256(0x00, 0x20)\n      add\n      0x00\n      swap1\n      swap2\n      swap1\n      swap2\n      swap1\n      swap2\n      pop\n      sstore\n        /* \"contracts/solar_insurance.sol\":8944:9310  {... */\n      pop\n      pop\n        /* \"contracts/solar_insurance.sol\":9851:9852  _ */\n      pop\n      pop\n        /* \"contracts/solar_insurance.sol\":2405:3315  function registerPolicy(... */\n      pop\n      pop\n      pop\n      jump\t// out\n        /* \"libraries/Demoable.sol\":576:643  function fundContract() public payable requireNonZeroValue {... */\n    tag_54:\n        /* \"libraries/Demoable.sol\":711:712  0 */\n      0x00\n        /* \"libraries/Demoable.sol\":699:708  msg.value */\n      callvalue\n        /* \"libraries/Demoable.sol\":699:712  msg.value > 0 */\n      gt\n        /* \"libraries/Demoable.sol\":691:748  require(msg.value > 0, \"Cannot load the contract with 0\") */\n      tag_185\n      jumpi\n      mload(0x40)\n      0x08c379a000000000000000000000000000000000000000000000000000000000\n      dup2\n      mstore\n      0x04\n      add\n      tag_186\n      swap1\n      tag_187\n      jump\t// in\n    tag_186:\n      mload(0x40)\n      dup1\n      swap2\n      sub\n      swap1\n      revert\n    tag_185:\n        /* \"libraries/Demoable.sol\":576:643  function fundContract() public payable requireNonZeroValue {... */\n      jump\t// out\n        /* \"contracts/solar_insurance.sol\":3378:3657  function renewPolicy()... */\n    tag_56:\n        /* \"contracts/solar_insurance.sol\":10030:10031  0 */\n      0x00\n        /* \"contracts/solar_insurance.sol\":9996:10006  _contracts */\n      0x06\n        /* \"contracts/solar_insurance.sol\":9996:10018  _contracts[msg.sender] */\n      0x00\n        /* \"contracts/solar_insurance.sol\":10007:10017  msg.sender */\n      caller\n        /* \"contracts/solar_insurance.sol\":9996:10018  _contracts[msg.sender] */\n      0xffffffffffffffffffffffffffffffffffffffff\n      and\n      0xffffffffffffffffffffffffffffffffffffffff\n      and\n      dup2\n      mstore\n      0x20\n      add\n      swap1\n      dup2\n      mstore\n      0x20\n      add\n      0x00\n      keccak256\n        /* \"contracts/solar_insurance.sol\":9996:10027  _contracts[msg.sender].duration */\n      0x04\n      add\n      sload\n        /* \"contracts/solar_insurance.sol\":9996:10031  _contracts[msg.sender].duration > 0 */\n      gt\n        /* \"contracts/solar_insurance.sol\":9996:10100  _contracts[msg.sender].duration > 0 &&... */\n      dup1\n      iszero\n      tag_190\n      jumpi\n      pop\n        /* \"contracts/solar_insurance.sol\":10085:10100  block.timestamp */\n      timestamp\n        /* \"contracts/solar_insurance.sol\":10051:10061  _contracts */\n      0x06\n        /* \"contracts/solar_insurance.sol\":10051:10073  _contracts[msg.sender] */\n      0x00\n        /* \"contracts/solar_insurance.sol\":10062:10072  msg.sender */\n      caller\n        /* \"contracts/solar_insurance.sol\":10051:10073  _contracts[msg.sender] */\n      0xffffffffffffffffffffffffffffffffffffffff\n      and\n      0xffffffffffffffffffffffffffffffffffffffff\n      and\n      dup2\n      mstore\n      0x20\n      add\n      swap1\n      dup2\n      mstore\n      0x20\n      add\n      0x00\n      keccak256\n        /* \"contracts/solar_insurance.sol\":10051:10082  _contracts[msg.sender].duration */\n      0x04\n      add\n      sload\n        /* \"contracts/solar_insurance.sol\":10051:10100  _contracts[msg.sender].duration > block.timestamp */\n      gt\n        /* \"contracts/solar_insurance.sol\":9996:10100  _contracts[msg.sender].duration > 0 &&... */\n    tag_190:\n        /* \"contracts/solar_insurance.sol\":9975:10152  require(... */\n      tag_191\n      jumpi\n      mload(0x40)\n      0x08c379a000000000000000000000000000000000000000000000000000000000\n      dup2\n      mstore\n      0x04\n      add\n      tag_192\n      swap1\n      tag_99\n      jump\t// in\n    tag_192:\n      mload(0x40)\n      dup1\n      swap2\n      sub\n      swap1\n      revert\n    tag_191:\n        /* \"contracts/solar_insurance.sol\":3498:3508  _contracts */\n      0x06\n        /* \"contracts/solar_insurance.sol\":3498:3520  _contracts[msg.sender] */\n      0x00\n        /* \"contracts/solar_insurance.sol\":3509:3519  msg.sender */\n      caller\n        /* \"contracts/solar_insurance.sol\":3498:3520  _contracts[msg.sender] */\n      0xffffffffffffffffffffffffffffffffffffffff\n      and\n      0xffffffffffffffffffffffffffffffffffffffff\n      and\n      dup2\n      mstore\n      0x20\n      add\n      swap1\n      dup2\n      mstore\n      0x20\n      add\n      0x00\n      keccak256\n        /* \"contracts/solar_insurance.sol\":3498:3530  _contracts[msg.sender].riskLevel */\n      0x00\n      add\n      0x15\n      swap1\n      sload\n      swap1\n      0x0100\n      exp\n      swap1\n      div\n      0xff\n      and\n        /* \"contracts/solar_insurance.sol\":3544:3554  _contracts */\n      0x06\n        /* \"contracts/solar_insurance.sol\":3544:3566  _contracts[msg.sender] */\n      0x00\n        /* \"contracts/solar_insurance.sol\":3555:3565  msg.sender */\n      caller\n        /* \"contracts/solar_insurance.sol\":3544:3566  _contracts[msg.sender] */\n      0xffffffffffffffffffffffffffffffffffffffff\n      and\n      0xffffffffffffffffffffffffffffffffffffffff\n      and\n      dup2\n      mstore\n      0x20\n      add\n      swap1\n      dup2\n      mstore\n      0x20\n      add\n      0x00\n      keccak256\n        /* \"contracts/solar_insurance.sol\":3544:3576  _contracts[msg.sender].panelArea */\n      0x01\n      add\n      sload\n        /* \"contracts/solar_insurance.sol\":9043:9055  uint256 prem */\n      0x00\n        /* \"contracts/solar_insurance.sol\":9096:9105  panelArea */\n      dup2\n        /* \"contracts/solar_insurance.sol\":9058:9074  _insuranceLevels */\n      0x04\n        /* \"contracts/solar_insurance.sol\":9058:9085  _insuranceLevels[riskLevel] */\n      0x00\n        /* \"contracts/solar_insurance.sol\":9075:9084  riskLevel */\n      dup6\n        /* \"contracts/solar_insurance.sol\":9058:9085  _insuranceLevels[riskLevel] */\n      0x02\n      dup2\n      gt\n      iszero\n      tag_194\n      jumpi\n      tag_195\n      tag_81\n      jump\t// in\n    tag_195:\n    tag_194:\n      0x02\n      dup2\n      gt\n      iszero\n      tag_196\n      jumpi\n      tag_197\n      tag_81\n      jump\t// in\n    tag_197:\n    tag_196:\n      dup2\n      mstore\n      0x20\n      add\n      swap1\n      dup2\n      mstore\n      0x20\n      add\n      0x00\n      keccak256\n        /* \"contracts/solar_insurance.sol\":9058:9093  _insuranceLevels[riskLevel].premium */\n      0x00\n      add\n      sload\n        /* \"contracts/solar_insurance.sol\":9058:9105  _insuranceLevels[riskLevel].premium * panelArea */\n      tag_198\n      swap2\n      swap1\n      tag_160\n      jump\t// in\n    tag_198:\n        /* \"contracts/solar_insurance.sol\":9043:9105  uint256 prem = _insuranceLevels[riskLevel].premium * panelArea */\n      swap1\n      pop\n        /* \"contracts/solar_insurance.sol\":9124:9143  bool premiumCovered */\n      0x00\n        /* \"contracts/solar_insurance.sol\":9159:9163  prem */\n      dup2\n        /* \"contracts/solar_insurance.sol\":9146:9155  msg.value */\n      callvalue\n        /* \"contracts/solar_insurance.sol\":9146:9163  msg.value == prem */\n      eq\n        /* \"contracts/solar_insurance.sol\":9124:9163  bool premiumCovered = msg.value == prem */\n      swap1\n      pop\n        /* \"contracts/solar_insurance.sol\":9194:9208  premiumCovered */\n      dup1\n        /* \"contracts/solar_insurance.sol\":9173:9292  require(... */\n      tag_199\n      jumpi\n      mload(0x40)\n      0x08c379a000000000000000000000000000000000000000000000000000000000\n      dup2\n      mstore\n      0x04\n      add\n      tag_200\n      swap1\n      tag_163\n      jump\t// in\n    tag_200:\n      mload(0x40)\n      dup1\n      swap2\n      sub\n      swap1\n      revert\n    tag_199:\n        /* \"contracts/solar_insurance.sol\":3601:3650  _contracts[msg.sender].duration.add(1 * 365 days) */\n      tag_202\n        /* \"contracts/solar_insurance.sol\":3637:3649  1 * 365 days */\n      0x01e13380\n        /* \"contracts/solar_insurance.sol\":3601:3611  _contracts */\n      0x06\n        /* \"contracts/solar_insurance.sol\":3601:3623  _contracts[msg.sender] */\n      0x00\n        /* \"contracts/solar_insurance.sol\":3612:3622  msg.sender */\n      caller\n        /* \"contracts/solar_insurance.sol\":3601:3623  _contracts[msg.sender] */\n      0xffffffffffffffffffffffffffffffffffffffff\n      and\n      0xffffffffffffffffffffffffffffffffffffffff\n      and\n      dup2\n      mstore\n      0x20\n      add\n      swap1\n      dup2\n      mstore\n      0x20\n      add\n      0x00\n      keccak256\n        /* \"contracts/solar_insurance.sol\":3601:3632  _contracts[msg.sender].duration */\n      0x04\n      add\n      sload\n        /* \"contracts/solar_insurance.sol\":3601:3636  _contracts[msg.sender].duration.add */\n      tag_124\n      swap1\n        /* \"contracts/solar_insurance.sol\":3601:3650  _contracts[msg.sender].duration.add(1 * 365 days) */\n      swap2\n      swap1\n      0xffffffff\n      and\n      jump\t// in\n    tag_202:\n      pop\n        /* \"contracts/solar_insurance.sol\":8944:9310  {... */\n      pop\n      pop\n        /* \"contracts/solar_insurance.sol\":10162:10163  _ */\n      pop\n      pop\n        /* \"contracts/solar_insurance.sol\":3378:3657  function renewPolicy()... */\n      jump\t// out\n        /* \"contracts/solar_insurance.sol\":7216:7915  function getClaimAmount(uint256 year) public view returns (uint256) {... */\n    tag_60:\n        /* \"contracts/solar_insurance.sol\":7275:7282  uint256 */\n      0x00\n        /* \"contracts/solar_insurance.sol\":7294:7325  SolarInsuranceContract memory c */\n      dup1\n        /* \"contracts/solar_insurance.sol\":7328:7338  _contracts */\n      0x06\n        /* \"contracts/solar_insurance.sol\":7328:7350  _contracts[msg.sender] */\n      0x00\n        /* \"contracts/solar_insurance.sol\":7339:7349  msg.sender */\n      caller\n        /* \"contracts/solar_insurance.sol\":7328:7350  _contracts[msg.sender] */\n      0xffffffffffffffffffffffffffffffffffffffff\n      and\n      0xffffffffffffffffffffffffffffffffffffffff\n      and\n      dup2\n      mstore\n      0x20\n      add\n      swap1\n      dup2\n      mstore\n      0x20\n      add\n      0x00\n      keccak256\n        /* \"contracts/solar_insurance.sol\":7294:7350  SolarInsuranceContract memory c = _contracts[msg.sender] */\n      mload(0x40)\n      dup1\n      0x0100\n      add\n      0x40\n      mstore\n      swap1\n      dup2\n      0x00\n      dup3\n      add\n      0x00\n      swap1\n      sload\n      swap1\n      0x0100\n      exp\n      swap1\n      div\n      0xffffffffffffffffffffffffffffffffffffffff\n      and\n      0xffffffffffffffffffffffffffffffffffffffff\n      and\n      0xffffffffffffffffffffffffffffffffffffffff\n      and\n      dup2\n      mstore\n      0x20\n      add\n      0x00\n      dup3\n      add\n      0x14\n      swap1\n      sload\n      swap1\n      0x0100\n      exp\n      swap1\n      div\n      0xff\n      and\n      0x01\n      dup2\n      gt\n      iszero\n      tag_204\n      jumpi\n      tag_205\n      tag_81\n      jump\t// in\n    tag_205:\n    tag_204:\n      0x01\n      dup2\n      gt\n      iszero\n      tag_206\n      jumpi\n      tag_207\n      tag_81\n      jump\t// in\n    tag_207:\n    tag_206:\n      dup2\n      mstore\n      0x20\n      add\n      0x00\n      dup3\n      add\n      0x15\n      swap1\n      sload\n      swap1\n      0x0100\n      exp\n      swap1\n      div\n      0xff\n      and\n      0x02\n      dup2\n      gt\n      iszero\n      tag_208\n      jumpi\n      tag_209\n      tag_81\n      jump\t// in\n    tag_209:\n    tag_208:\n      0x02\n      dup2\n      gt\n      iszero\n      tag_210\n      jumpi\n      tag_211\n      tag_81\n      jump\t// in\n    tag_211:\n    tag_210:\n      dup2\n      mstore\n      0x20\n      add\n      0x01\n      dup3\n      add\n      sload\n      dup2\n      mstore\n      0x20\n      add\n      0x02\n      dup3\n      add\n      sload\n      dup2\n      mstore\n      0x20\n      add\n      0x03\n      dup3\n      add\n      sload\n      dup2\n      mstore\n      0x20\n      add\n      0x04\n      dup3\n      add\n      sload\n      dup2\n      mstore\n      0x20\n      add\n      0x05\n      dup3\n      add\n      sload\n      dup2\n      mstore\n      pop\n      pop\n      swap1\n      pop\n        /* \"contracts/solar_insurance.sol\":7361:7378  string memory key */\n      0x00\n        /* \"contracts/solar_insurance.sol\":7400:7417  SwissRegion.SOUTH */\n      dup1\n        /* \"contracts/solar_insurance.sol\":7381:7417  c.panelLocation == SwissRegion.SOUTH */\n      0x01\n      dup2\n      gt\n      iszero\n      tag_212\n      jumpi\n      tag_213\n      tag_81\n      jump\t// in\n    tag_213:\n    tag_212:\n        /* \"contracts/solar_insurance.sol\":7381:7382  c */\n      dup3\n        /* \"contracts/solar_insurance.sol\":7381:7396  c.panelLocation */\n      0x20\n      add\n      mload\n        /* \"contracts/solar_insurance.sol\":7381:7417  c.panelLocation == SwissRegion.SOUTH */\n      0x01\n      dup2\n      gt\n      iszero\n      tag_214\n      jumpi\n      tag_215\n      tag_81\n      jump\t// in\n    tag_215:\n    tag_214:\n      eq\n        /* \"contracts/solar_insurance.sol\":7381:7541  c.panelLocation == SwissRegion.SOUTH... */\n      tag_216\n      jumpi\n        /* \"contracts/solar_insurance.sol\":7508:7530  Strings.toString(year) */\n      tag_217\n        /* \"contracts/solar_insurance.sol\":7525:7529  year */\n      dup5\n        /* \"contracts/solar_insurance.sol\":7508:7524  Strings.toString */\n      tag_86\n        /* \"contracts/solar_insurance.sol\":7508:7530  Strings.toString(year) */\n      jump\t// in\n    tag_217:\n        /* \"contracts/solar_insurance.sol\":7494:7541  string.concat(Strings.toString(year), \"_NORTH\") */\n      add(0x20, mload(0x40))\n      tag_218\n      swap2\n      swap1\n      tag_88\n      jump\t// in\n    tag_218:\n      mload(0x40)\n      0x20\n      dup2\n      dup4\n      sub\n      sub\n      dup2\n      mstore\n      swap1\n      0x40\n      mstore\n        /* \"contracts/solar_insurance.sol\":7381:7541  c.panelLocation == SwissRegion.SOUTH... */\n      jump(tag_219)\n    tag_216:\n        /* \"contracts/solar_insurance.sol\":7446:7468  Strings.toString(year) */\n      tag_220\n        /* \"contracts/solar_insurance.sol\":7463:7467  year */\n      dup5\n        /* \"contracts/solar_insurance.sol\":7446:7462  Strings.toString */\n      tag_86\n        /* \"contracts/solar_insurance.sol\":7446:7468  Strings.toString(year) */\n      jump\t// in\n    tag_220:\n        /* \"contracts/solar_insurance.sol\":7432:7479  string.concat(Strings.toString(year), \"_SOUTH\") */\n      add(0x20, mload(0x40))\n      tag_221\n      swap2\n      swap1\n      tag_92\n      jump\t// in\n    tag_221:\n      mload(0x40)\n      0x20\n      dup2\n      dup4\n      sub\n      sub\n      dup2\n      mstore\n      swap1\n      0x40\n      mstore\n        /* \"contracts/solar_insurance.sol\":7381:7541  c.panelLocation == SwissRegion.SOUTH... */\n    tag_219:\n        /* \"contracts/solar_insurance.sol\":7361:7541  string memory key = c.panelLocation == SwissRegion.SOUTH... */\n      swap1\n      pop\n        /* \"contracts/solar_insurance.sol\":7552:7576  uint256 sunshineDuration */\n      0x00\n        /* \"contracts/solar_insurance.sol\":7579:7595  _sunshineRecords */\n      0x05\n        /* \"contracts/solar_insurance.sol\":7596:7599  key */\n      dup3\n        /* \"contracts/solar_insurance.sol\":7579:7600  _sunshineRecords[key] */\n      mload(0x40)\n      tag_222\n      swap2\n      swap1\n      tag_94\n      jump\t// in\n    tag_222:\n      swap1\n      dup2\n      mstore\n      0x20\n      add\n      mload(0x40)\n      dup1\n      swap2\n      sub\n      swap1\n      keccak256\n      sload\n        /* \"contracts/solar_insurance.sol\":7552:7600  uint256 sunshineDuration = _sunshineRecords[key] */\n      swap1\n      pop\n        /* \"contracts/solar_insurance.sol\":7610:7631  uint256 sunshineDelta */\n      0x00\n        /* \"contracts/solar_insurance.sol\":7691:7707  sunshineDuration */\n      dup2\n        /* \"contracts/solar_insurance.sol\":7634:7650  _insuranceLevels */\n      0x04\n        /* \"contracts/solar_insurance.sol\":7634:7663  _insuranceLevels[c.riskLevel] */\n      0x00\n        /* \"contracts/solar_insurance.sol\":7651:7652  c */\n      dup7\n        /* \"contracts/solar_insurance.sol\":7651:7662  c.riskLevel */\n      0x40\n      add\n      mload\n        /* \"contracts/solar_insurance.sol\":7634:7663  _insuranceLevels[c.riskLevel] */\n      0x02\n      dup2\n      gt\n      iszero\n      tag_223\n      jumpi\n      tag_224\n      tag_81\n      jump\t// in\n    tag_224:\n    tag_223:\n      0x02\n      dup2\n      gt\n      iszero\n      tag_225\n      jumpi\n      tag_226\n      tag_81\n      jump\t// in\n    tag_226:\n    tag_225:\n      dup2\n      mstore\n      0x20\n      add\n      swap1\n      dup2\n      mstore\n      0x20\n      add\n      0x00\n      keccak256\n        /* \"contracts/solar_insurance.sol\":7634:7676  _insuranceLevels[c.riskLevel].insuredHours */\n      0x01\n      add\n      sload\n        /* \"contracts/solar_insurance.sol\":7634:7707  _insuranceLevels[c.riskLevel].insuredHours -... */\n      tag_227\n      swap2\n      swap1\n      tag_228\n      jump\t// in\n    tag_227:\n        /* \"contracts/solar_insurance.sol\":7610:7707  uint256 sunshineDelta = _insuranceLevels[c.riskLevel].insuredHours -... */\n      swap1\n      pop\n        /* \"contracts/solar_insurance.sol\":7717:7731  uint256 amount */\n      0x00\n        /* \"contracts/solar_insurance.sol\":7864:7876  ENERGY_PRICE */\n      sload(0x01)\n        /* \"contracts/solar_insurance.sol\":7817:7827  _contracts */\n      0x06\n        /* \"contracts/solar_insurance.sol\":7817:7839  _contracts[msg.sender] */\n      0x00\n        /* \"contracts/solar_insurance.sol\":7828:7838  msg.sender */\n      caller\n        /* \"contracts/solar_insurance.sol\":7817:7839  _contracts[msg.sender] */\n      0xffffffffffffffffffffffffffffffffffffffff\n      and\n      0xffffffffffffffffffffffffffffffffffffffff\n      and\n      dup2\n      mstore\n      0x20\n      add\n      swap1\n      dup2\n      mstore\n      0x20\n      add\n      0x00\n      keccak256\n        /* \"contracts/solar_insurance.sol\":7817:7849  _contracts[msg.sender].panelArea */\n      0x01\n      add\n      sload\n        /* \"contracts/solar_insurance.sol\":7792:7802  EFFICIENCY */\n      sload(0x03)\n        /* \"contracts/solar_insurance.sol\":7764:7777  sunshineDelta */\n      dup5\n        /* \"contracts/solar_insurance.sol\":7734:7749  RADIATION_VALUE */\n      sload(0x02)\n        /* \"contracts/solar_insurance.sol\":7734:7777  RADIATION_VALUE *... */\n      tag_229\n      swap2\n      swap1\n      tag_160\n      jump\t// in\n    tag_229:\n        /* \"contracts/solar_insurance.sol\":7734:7802  RADIATION_VALUE *... */\n      tag_230\n      swap2\n      swap1\n      tag_160\n      jump\t// in\n    tag_230:\n        /* \"contracts/solar_insurance.sol\":7734:7849  RADIATION_VALUE *... */\n      tag_231\n      swap2\n      swap1\n      tag_160\n      jump\t// in\n    tag_231:\n        /* \"contracts/solar_insurance.sol\":7734:7876  RADIATION_VALUE *... */\n      tag_232\n      swap2\n      swap1\n      tag_160\n      jump\t// in\n    tag_232:\n        /* \"contracts/solar_insurance.sol\":7717:7876  uint256 amount = RADIATION_VALUE *... */\n      swap1\n      pop\n        /* \"contracts/solar_insurance.sol\":7902:7908  100000 */\n      0x0186a0\n        /* \"contracts/solar_insurance.sol\":7893:7899  amount */\n      dup2\n        /* \"contracts/solar_insurance.sol\":7893:7908  amount / 100000 */\n      tag_233\n      swap2\n      swap1\n      tag_181\n      jump\t// in\n    tag_233:\n        /* \"contracts/solar_insurance.sol\":7886:7908  return amount / 100000 */\n      swap6\n      pop\n      pop\n      pop\n      pop\n      pop\n      pop\n        /* \"contracts/solar_insurance.sol\":7216:7915  function getClaimAmount(uint256 year) public view returns (uint256) {... */\n      swap2\n      swap1\n      pop\n      jump\t// out\n        /* \"contracts/solar_insurance.sol\":3716:4820  function fileClaim(uint256 year)... */\n    tag_65:\n        /* \"contracts/solar_insurance.sol\":10030:10031  0 */\n      0x00\n        /* \"contracts/solar_insurance.sol\":9996:10006  _contracts */\n      0x06\n        /* \"contracts/solar_insurance.sol\":9996:10018  _contracts[msg.sender] */\n      0x00\n        /* \"contracts/solar_insurance.sol\":10007:10017  msg.sender */\n      caller\n        /* \"contracts/solar_insurance.sol\":9996:10018  _contracts[msg.sender] */\n      0xffffffffffffffffffffffffffffffffffffffff\n      and\n      0xffffffffffffffffffffffffffffffffffffffff\n      and\n      dup2\n      mstore\n      0x20\n      add\n      swap1\n      dup2\n      mstore\n      0x20\n      add\n      0x00\n      keccak256\n        /* \"contracts/solar_insurance.sol\":9996:10027  _contracts[msg.sender].duration */\n      0x04\n      add\n      sload\n        /* \"contracts/solar_insurance.sol\":9996:10031  _contracts[msg.sender].duration > 0 */\n      gt\n        /* \"contracts/solar_insurance.sol\":9996:10100  _contracts[msg.sender].duration > 0 &&... */\n      dup1\n      iszero\n      tag_235\n      jumpi\n      pop\n        /* \"contracts/solar_insurance.sol\":10085:10100  block.timestamp */\n      timestamp\n        /* \"contracts/solar_insurance.sol\":10051:10061  _contracts */\n      0x06\n        /* \"contracts/solar_insurance.sol\":10051:10073  _contracts[msg.sender] */\n      0x00\n        /* \"contracts/solar_insurance.sol\":10062:10072  msg.sender */\n      caller\n        /* \"contracts/solar_insurance.sol\":10051:10073  _contracts[msg.sender] */\n      0xffffffffffffffffffffffffffffffffffffffff\n      and\n      0xffffffffffffffffffffffffffffffffffffffff\n      and\n      dup2\n      mstore\n      0x20\n      add\n      swap1\n      dup2\n      mstore\n      0x20\n      add\n      0x00\n      keccak256\n        /* \"contracts/solar_insurance.sol\":10051:10082  _contracts[msg.sender].duration */\n      0x04\n      add\n      sload\n        /* \"contracts/solar_insurance.sol\":10051:10100  _contracts[msg.sender].duration > block.timestamp */\n      gt\n        /* \"contracts/solar_insurance.sol\":9996:10100  _contracts[msg.sender].duration > 0 &&... */\n    tag_235:\n        /* \"contracts/solar_insurance.sol\":9975:10152  require(... */\n      tag_236\n      jumpi\n      mload(0x40)\n      0x08c379a000000000000000000000000000000000000000000000000000000000\n      dup2\n      mstore\n      0x04\n      add\n      tag_237\n      swap1\n      tag_99\n      jump\t// in\n    tag_237:\n      mload(0x40)\n      dup1\n      swap2\n      sub\n      swap1\n      revert\n    tag_236:\n        /* \"contracts/solar_insurance.sol\":10728:10743  block.timestamp */\n      timestamp\n        /* \"contracts/solar_insurance.sol\":10690:10700  _contracts */\n      0x06\n        /* \"contracts/solar_insurance.sol\":10690:10712  _contracts[msg.sender] */\n      0x00\n        /* \"contracts/solar_insurance.sol\":10701:10711  msg.sender */\n      caller\n        /* \"contracts/solar_insurance.sol\":10690:10712  _contracts[msg.sender] */\n      0xffffffffffffffffffffffffffffffffffffffff\n      and\n      0xffffffffffffffffffffffffffffffffffffffff\n      and\n      dup2\n      mstore\n      0x20\n      add\n      swap1\n      dup2\n      mstore\n      0x20\n      add\n      0x00\n      keccak256\n        /* \"contracts/solar_insurance.sol\":10690:10725  _contracts[msg.sender].claimTimeout */\n      0x05\n      add\n      sload\n        /* \"contracts/solar_insurance.sol\":10690:10743  _contracts[msg.sender].claimTimeout < block.timestamp */\n      lt\n        /* \"contracts/solar_insurance.sol\":10669:10805  require(... */\n      tag_239\n      jumpi\n      mload(0x40)\n      0x08c379a000000000000000000000000000000000000000000000000000000000\n      dup2\n      mstore\n      0x04\n      add\n      tag_240\n      swap1\n      tag_241\n      jump\t// in\n    tag_240:\n      mload(0x40)\n      dup1\n      swap2\n      sub\n      swap1\n      revert\n    tag_239:\n        /* \"contracts/solar_insurance.sol\":3844:3848  year */\n      dup1\n        /* \"contracts/solar_insurance.sol\":10933:10937  year */\n      dup1\n        /* \"contracts/solar_insurance.sol\":10903:10917  _allowedClaims */\n      0x07\n        /* \"contracts/solar_insurance.sol\":10903:10929  _allowedClaims[msg.sender] */\n      0x00\n        /* \"contracts/solar_insurance.sol\":10918:10928  msg.sender */\n      caller\n        /* \"contracts/solar_insurance.sol\":10903:10929  _allowedClaims[msg.sender] */\n      0xffffffffffffffffffffffffffffffffffffffff\n      and\n      0xffffffffffffffffffffffffffffffffffffffff\n      and\n      dup2\n      mstore\n      0x20\n      add\n      swap1\n      dup2\n      mstore\n      0x20\n      add\n      0x00\n      keccak256\n      sload\n        /* \"contracts/solar_insurance.sol\":10903:10937  _allowedClaims[msg.sender] == year */\n      eq\n        /* \"contracts/solar_insurance.sol\":10882:11008  require(... */\n      tag_243\n      jumpi\n      mload(0x40)\n      0x08c379a000000000000000000000000000000000000000000000000000000000\n      dup2\n      mstore\n      0x04\n      add\n      tag_244\n      swap1\n      tag_103\n      jump\t// in\n    tag_244:\n      mload(0x40)\n      dup1\n      swap2\n      sub\n      swap1\n      revert\n    tag_243:\n        /* \"contracts/solar_insurance.sol\":3878:3882  year */\n      dup2\n        /* \"contracts/solar_insurance.sol\":10229:10249  bool isLocationSouth */\n      0x00\n        /* \"contracts/solar_insurance.sol\":10292:10309  SwissRegion.SOUTH */\n      dup1\n        /* \"contracts/solar_insurance.sol\":10252:10309  _contracts[msg.sender].panelLocation == SwissRegion.SOUTH */\n      0x01\n      dup2\n      gt\n      iszero\n      tag_246\n      jumpi\n      tag_247\n      tag_81\n      jump\t// in\n    tag_247:\n    tag_246:\n        /* \"contracts/solar_insurance.sol\":10252:10262  _contracts */\n      0x06\n        /* \"contracts/solar_insurance.sol\":10252:10274  _contracts[msg.sender] */\n      0x00\n        /* \"contracts/solar_insurance.sol\":10263:10273  msg.sender */\n      caller\n        /* \"contracts/solar_insurance.sol\":10252:10274  _contracts[msg.sender] */\n      0xffffffffffffffffffffffffffffffffffffffff\n      and\n      0xffffffffffffffffffffffffffffffffffffffff\n      and\n      dup2\n      mstore\n      0x20\n      add\n      swap1\n      dup2\n      mstore\n      0x20\n      add\n      0x00\n      keccak256\n        /* \"contracts/solar_insurance.sol\":10252:10288  _contracts[msg.sender].panelLocation */\n      0x00\n      add\n      0x14\n      swap1\n      sload\n      swap1\n      0x0100\n      exp\n      swap1\n      div\n      0xff\n      and\n        /* \"contracts/solar_insurance.sol\":10252:10309  _contracts[msg.sender].panelLocation == SwissRegion.SOUTH */\n      0x01\n      dup2\n      gt\n      iszero\n      tag_248\n      jumpi\n      tag_249\n      tag_81\n      jump\t// in\n    tag_249:\n    tag_248:\n      eq\n        /* \"contracts/solar_insurance.sol\":10229:10309  bool isLocationSouth = _contracts[msg.sender].panelLocation == SwissRegion.SOUTH */\n      swap1\n      pop\n        /* \"contracts/solar_insurance.sol\":10319:10336  string memory key */\n      0x00\n        /* \"contracts/solar_insurance.sol\":10339:10354  isLocationSouth */\n      dup2\n        /* \"contracts/solar_insurance.sol\":10339:10478  isLocationSouth ?... */\n      tag_250\n      jumpi\n        /* \"contracts/solar_insurance.sol\":10445:10467  Strings.toString(year) */\n      tag_251\n        /* \"contracts/solar_insurance.sol\":10462:10466  year */\n      dup4\n        /* \"contracts/solar_insurance.sol\":10445:10461  Strings.toString */\n      tag_86\n        /* \"contracts/solar_insurance.sol\":10445:10467  Strings.toString(year) */\n      jump\t// in\n    tag_251:\n        /* \"contracts/solar_insurance.sol\":10431:10478  string.concat(Strings.toString(year), \"_NORTH\") */\n      add(0x20, mload(0x40))\n      tag_252\n      swap2\n      swap1\n      tag_88\n      jump\t// in\n    tag_252:\n      mload(0x40)\n      0x20\n      dup2\n      dup4\n      sub\n      sub\n      dup2\n      mstore\n      swap1\n      0x40\n      mstore\n        /* \"contracts/solar_insurance.sol\":10339:10478  isLocationSouth ?... */\n      jump(tag_253)\n    tag_250:\n        /* \"contracts/solar_insurance.sol\":10383:10405  Strings.toString(year) */\n      tag_254\n        /* \"contracts/solar_insurance.sol\":10400:10404  year */\n      dup4\n        /* \"contracts/solar_insurance.sol\":10383:10399  Strings.toString */\n      tag_86\n        /* \"contracts/solar_insurance.sol\":10383:10405  Strings.toString(year) */\n      jump\t// in\n    tag_254:\n        /* \"contracts/solar_insurance.sol\":10369:10416  string.concat(Strings.toString(year), \"_SOUTH\") */\n      add(0x20, mload(0x40))\n      tag_255\n      swap2\n      swap1\n      tag_92\n      jump\t// in\n    tag_255:\n      mload(0x40)\n      0x20\n      dup2\n      dup4\n      sub\n      sub\n      dup2\n      mstore\n      swap1\n      0x40\n      mstore\n        /* \"contracts/solar_insurance.sol\":10339:10478  isLocationSouth ?... */\n    tag_253:\n        /* \"contracts/solar_insurance.sol\":10319:10478  string memory key = isLocationSouth ?... */\n      swap1\n      pop\n        /* \"contracts/solar_insurance.sol\":10535:10536  0 */\n      0x00\n        /* \"contracts/solar_insurance.sol\":10510:10526  _sunshineRecords */\n      0x05\n        /* \"contracts/solar_insurance.sol\":10527:10530  key */\n      dup3\n        /* \"contracts/solar_insurance.sol\":10510:10531  _sunshineRecords[key] */\n      mload(0x40)\n      tag_256\n      swap2\n      swap1\n      tag_94\n      jump\t// in\n    tag_256:\n      swap1\n      dup2\n      mstore\n      0x20\n      add\n      mload(0x40)\n      dup1\n      swap2\n      sub\n      swap1\n      keccak256\n      sload\n        /* \"contracts/solar_insurance.sol\":10510:10536  _sunshineRecords[key] != 0 */\n      sub\n        /* \"contracts/solar_insurance.sol\":10489:10603  require(... */\n      tag_257\n      jumpi\n      mload(0x40)\n      0x08c379a000000000000000000000000000000000000000000000000000000000\n      dup2\n      mstore\n      0x04\n      add\n      tag_258\n      swap1\n      tag_118\n      jump\t// in\n    tag_258:\n      mload(0x40)\n      dup1\n      swap2\n      sub\n      swap1\n      revert\n    tag_257:\n        /* \"contracts/solar_insurance.sol\":3898:3929  SolarInsuranceContract memory c */\n      0x00\n        /* \"contracts/solar_insurance.sol\":3932:3942  _contracts */\n      0x06\n        /* \"contracts/solar_insurance.sol\":3932:3954  _contracts[msg.sender] */\n      0x00\n        /* \"contracts/solar_insurance.sol\":3943:3953  msg.sender */\n      caller\n        /* \"contracts/solar_insurance.sol\":3932:3954  _contracts[msg.sender] */\n      0xffffffffffffffffffffffffffffffffffffffff\n      and\n      0xffffffffffffffffffffffffffffffffffffffff\n      and\n      dup2\n      mstore\n      0x20\n      add\n      swap1\n      dup2\n      mstore\n      0x20\n      add\n      0x00\n      keccak256\n        /* \"contracts/solar_insurance.sol\":3898:3954  SolarInsuranceContract memory c = _contracts[msg.sender] */\n      mload(0x40)\n      dup1\n      0x0100\n      add\n      0x40\n      mstore\n      swap1\n      dup2\n      0x00\n      dup3\n      add\n      0x00\n      swap1\n      sload\n      swap1\n      0x0100\n      exp\n      swap1\n      div\n      0xffffffffffffffffffffffffffffffffffffffff\n      and\n      0xffffffffffffffffffffffffffffffffffffffff\n      and\n      0xffffffffffffffffffffffffffffffffffffffff\n      and\n      dup2\n      mstore\n      0x20\n      add\n      0x00\n      dup3\n      add\n      0x14\n      swap1\n      sload\n      swap1\n      0x0100\n      exp\n      swap1\n      div\n      0xff\n      and\n      0x01\n      dup2\n      gt\n      iszero\n      tag_260\n      jumpi\n      tag_261\n      tag_81\n      jump\t// in\n    tag_261:\n    tag_260:\n      0x01\n      dup2\n      gt\n      iszero\n      tag_262\n      jumpi\n      tag_263\n      tag_81\n      jump\t// in\n    tag_263:\n    tag_262:\n      dup2\n      mstore\n      0x20\n      add\n      0x00\n      dup3\n      add\n      0x15\n      swap1\n      sload\n      swap1\n      0x0100\n      exp\n      swap1\n      div\n      0xff\n      and\n      0x02\n      dup2\n      gt\n      iszero\n      tag_264\n      jumpi\n      tag_265\n      tag_81\n      jump\t// in\n    tag_265:\n    tag_264:\n      0x02\n      dup2\n      gt\n      iszero\n      tag_266\n      jumpi\n      tag_267\n      tag_81\n      jump\t// in\n    tag_267:\n    tag_266:\n      dup2\n      mstore\n      0x20\n      add\n      0x01\n      dup3\n      add\n      sload\n      dup2\n      mstore\n      0x20\n      add\n      0x02\n      dup3\n      add\n      sload\n      dup2\n      mstore\n      0x20\n      add\n      0x03\n      dup3\n      add\n      sload\n      dup2\n      mstore\n      0x20\n      add\n      0x04\n      dup3\n      add\n      sload\n      dup2\n      mstore\n      0x20\n      add\n      0x05\n      dup3\n      add\n      sload\n      dup2\n      mstore\n      pop\n      pop\n      swap1\n      pop\n        /* \"contracts/solar_insurance.sol\":3965:3982  string memory key */\n      0x00\n        /* \"contracts/solar_insurance.sol\":4004:4021  SwissRegion.SOUTH */\n      dup1\n        /* \"contracts/solar_insurance.sol\":3985:4021  c.panelLocation == SwissRegion.SOUTH */\n      0x01\n      dup2\n      gt\n      iszero\n      tag_268\n      jumpi\n      tag_269\n      tag_81\n      jump\t// in\n    tag_269:\n    tag_268:\n        /* \"contracts/solar_insurance.sol\":3985:3986  c */\n      dup3\n        /* \"contracts/solar_insurance.sol\":3985:4000  c.panelLocation */\n      0x20\n      add\n      mload\n        /* \"contracts/solar_insurance.sol\":3985:4021  c.panelLocation == SwissRegion.SOUTH */\n      0x01\n      dup2\n      gt\n      iszero\n      tag_270\n      jumpi\n      tag_271\n      tag_81\n      jump\t// in\n    tag_271:\n    tag_270:\n      eq\n        /* \"contracts/solar_insurance.sol\":3985:4145  c.panelLocation == SwissRegion.SOUTH... */\n      tag_272\n      jumpi\n        /* \"contracts/solar_insurance.sol\":4112:4134  Strings.toString(year) */\n      tag_273\n        /* \"contracts/solar_insurance.sol\":4129:4133  year */\n      dup8\n        /* \"contracts/solar_insurance.sol\":4112:4128  Strings.toString */\n      tag_86\n        /* \"contracts/solar_insurance.sol\":4112:4134  Strings.toString(year) */\n      jump\t// in\n    tag_273:\n        /* \"contracts/solar_insurance.sol\":4098:4145  string.concat(Strings.toString(year), \"_NORTH\") */\n      add(0x20, mload(0x40))\n      tag_274\n      swap2\n      swap1\n      tag_88\n      jump\t// in\n    tag_274:\n      mload(0x40)\n      0x20\n      dup2\n      dup4\n      sub\n      sub\n      dup2\n      mstore\n      swap1\n      0x40\n      mstore\n        /* \"contracts/solar_insurance.sol\":3985:4145  c.panelLocation == SwissRegion.SOUTH... */\n      jump(tag_275)\n    tag_272:\n        /* \"contracts/solar_insurance.sol\":4050:4072  Strings.toString(year) */\n      tag_276\n        /* \"contracts/solar_insurance.sol\":4067:4071  year */\n      dup8\n        /* \"contracts/solar_insurance.sol\":4050:4066  Strings.toString */\n      tag_86\n        /* \"contracts/solar_insurance.sol\":4050:4072  Strings.toString(year) */\n      jump\t// in\n    tag_276:\n        /* \"contracts/solar_insurance.sol\":4036:4083  string.concat(Strings.toString(year), \"_SOUTH\") */\n      add(0x20, mload(0x40))\n      tag_277\n      swap2\n      swap1\n      tag_92\n      jump\t// in\n    tag_277:\n      mload(0x40)\n      0x20\n      dup2\n      dup4\n      sub\n      sub\n      dup2\n      mstore\n      swap1\n      0x40\n      mstore\n        /* \"contracts/solar_insurance.sol\":3985:4145  c.panelLocation == SwissRegion.SOUTH... */\n    tag_275:\n        /* \"contracts/solar_insurance.sol\":3965:4145  string memory key = c.panelLocation == SwissRegion.SOUTH... */\n      swap1\n      pop\n        /* \"contracts/solar_insurance.sol\":4156:4180  uint256 sunshineDuration */\n      0x00\n        /* \"contracts/solar_insurance.sol\":4183:4199  _sunshineRecords */\n      0x05\n        /* \"contracts/solar_insurance.sol\":4200:4203  key */\n      dup3\n        /* \"contracts/solar_insurance.sol\":4183:4204  _sunshineRecords[key] */\n      mload(0x40)\n      tag_278\n      swap2\n      swap1\n      tag_94\n      jump\t// in\n    tag_278:\n      swap1\n      dup2\n      mstore\n      0x20\n      add\n      mload(0x40)\n      dup1\n      swap2\n      sub\n      swap1\n      keccak256\n      sload\n        /* \"contracts/solar_insurance.sol\":4156:4204  uint256 sunshineDuration = _sunshineRecords[key] */\n      swap1\n      pop\n        /* \"contracts/solar_insurance.sol\":4214:4235  uint256 sunshineDelta */\n      0x00\n        /* \"contracts/solar_insurance.sol\":4295:4311  sunshineDuration */\n      dup2\n        /* \"contracts/solar_insurance.sol\":4238:4254  _insuranceLevels */\n      0x04\n        /* \"contracts/solar_insurance.sol\":4238:4267  _insuranceLevels[c.riskLevel] */\n      0x00\n        /* \"contracts/solar_insurance.sol\":4255:4256  c */\n      dup7\n        /* \"contracts/solar_insurance.sol\":4255:4266  c.riskLevel */\n      0x40\n      add\n      mload\n        /* \"contracts/solar_insurance.sol\":4238:4267  _insuranceLevels[c.riskLevel] */\n      0x02\n      dup2\n      gt\n      iszero\n      tag_279\n      jumpi\n      tag_280\n      tag_81\n      jump\t// in\n    tag_280:\n    tag_279:\n      0x02\n      dup2\n      gt\n      iszero\n      tag_281\n      jumpi\n      tag_282\n      tag_81\n      jump\t// in\n    tag_282:\n    tag_281:\n      dup2\n      mstore\n      0x20\n      add\n      swap1\n      dup2\n      mstore\n      0x20\n      add\n      0x00\n      keccak256\n        /* \"contracts/solar_insurance.sol\":4238:4280  _insuranceLevels[c.riskLevel].insuredHours */\n      0x01\n      add\n      sload\n        /* \"contracts/solar_insurance.sol\":4238:4311  _insuranceLevels[c.riskLevel].insuredHours -... */\n      tag_283\n      swap2\n      swap1\n      tag_228\n      jump\t// in\n    tag_283:\n        /* \"contracts/solar_insurance.sol\":4214:4311  uint256 sunshineDelta = _insuranceLevels[c.riskLevel].insuredHours -... */\n      swap1\n      pop\n        /* \"contracts/solar_insurance.sol\":4358:4359  0 */\n      0x00\n        /* \"contracts/solar_insurance.sol\":4342:4355  sunshineDelta */\n      dup2\n        /* \"contracts/solar_insurance.sol\":4342:4359  sunshineDelta > 0 */\n      gt\n        /* \"contracts/solar_insurance.sol\":4321:4450  require(... */\n      tag_284\n      jumpi\n      mload(0x40)\n      0x08c379a000000000000000000000000000000000000000000000000000000000\n      dup2\n      mstore\n      0x04\n      add\n      tag_285\n      swap1\n      tag_286\n      jump\t// in\n    tag_285:\n      mload(0x40)\n      dup1\n      swap2\n      sub\n      swap1\n      revert\n    tag_284:\n        /* \"contracts/solar_insurance.sol\":4461:4475  uint256 amount */\n      0x00\n        /* \"contracts/solar_insurance.sol\":4627:4639  ENERGY_PRICE */\n      sload(0x01)\n        /* \"contracts/solar_insurance.sol\":4580:4590  _contracts */\n      0x06\n        /* \"contracts/solar_insurance.sol\":4580:4602  _contracts[msg.sender] */\n      0x00\n        /* \"contracts/solar_insurance.sol\":4591:4601  msg.sender */\n      caller\n        /* \"contracts/solar_insurance.sol\":4580:4602  _contracts[msg.sender] */\n      0xffffffffffffffffffffffffffffffffffffffff\n      and\n      0xffffffffffffffffffffffffffffffffffffffff\n      and\n      dup2\n      mstore\n      0x20\n      add\n      swap1\n      dup2\n      mstore\n      0x20\n      add\n      0x00\n      keccak256\n        /* \"contracts/solar_insurance.sol\":4580:4612  _contracts[msg.sender].panelArea */\n      0x01\n      add\n      sload\n        /* \"contracts/solar_insurance.sol\":4561:4564  100 */\n      0x64\n        /* \"contracts/solar_insurance.sol\":4547:4557  EFFICIENCY */\n      sload(0x03)\n        /* \"contracts/solar_insurance.sol\":4519:4532  sunshineDelta */\n      dup6\n        /* \"contracts/solar_insurance.sol\":4499:4503  1000 */\n      0x03e8\n        /* \"contracts/solar_insurance.sol\":4481:4496  RADIATION_VALUE */\n      sload(0x02)\n        /* \"contracts/solar_insurance.sol\":4481:4503  RADIATION_VALUE / 1000 */\n      tag_287\n      swap2\n      swap1\n      tag_181\n      jump\t// in\n    tag_287:\n        /* \"contracts/solar_insurance.sol\":4480:4532  (RADIATION_VALUE / 1000) *... */\n      tag_288\n      swap2\n      swap1\n      tag_160\n      jump\t// in\n    tag_288:\n        /* \"contracts/solar_insurance.sol\":4480:4557  (RADIATION_VALUE / 1000) *... */\n      tag_289\n      swap2\n      swap1\n      tag_160\n      jump\t// in\n    tag_289:\n        /* \"contracts/solar_insurance.sol\":4479:4564  ((RADIATION_VALUE / 1000) *... */\n      tag_290\n      swap2\n      swap1\n      tag_181\n      jump\t// in\n    tag_290:\n        /* \"contracts/solar_insurance.sol\":4478:4612  (((RADIATION_VALUE / 1000) *... */\n      tag_291\n      swap2\n      swap1\n      tag_160\n      jump\t// in\n    tag_291:\n        /* \"contracts/solar_insurance.sol\":4478:4639  (((RADIATION_VALUE / 1000) *... */\n      tag_292\n      swap2\n      swap1\n      tag_160\n      jump\t// in\n    tag_292:\n        /* \"contracts/solar_insurance.sol\":4461:4639  uint256 amount = (((RADIATION_VALUE / 1000) *... */\n      swap1\n      pop\n        /* \"contracts/solar_insurance.sol\":4657:4667  msg.sender */\n      caller\n        /* \"contracts/solar_insurance.sol\":4649:4677  payable(msg.sender).transfer */\n      0xffffffffffffffffffffffffffffffffffffffff\n      and\n        /* \"contracts/solar_insurance.sol\":4649:4685  payable(msg.sender).transfer(amount) */\n      0x08fc\n        /* \"contracts/solar_insurance.sol\":4678:4684  amount */\n      dup3\n        /* \"contracts/solar_insurance.sol\":4649:4685  payable(msg.sender).transfer(amount) */\n      swap1\n      dup2\n      iszero\n      mul\n      swap1\n      mload(0x40)\n      0x00\n      mload(0x40)\n      dup1\n      dup4\n      sub\n      dup2\n      dup6\n      dup9\n      dup9\n      call\n      swap4\n      pop\n      pop\n      pop\n      pop\n      iszero\n      dup1\n      iszero\n      tag_294\n      jumpi\n      returndatasize\n      0x00\n      dup1\n      returndatacopy\n      revert(0x00, returndatasize)\n    tag_294:\n      pop\n        /* \"contracts/solar_insurance.sol\":4696:4728  c.claimTimeout.add(1 * 365 days) */\n      tag_295\n        /* \"contracts/solar_insurance.sol\":4715:4727  1 * 365 days */\n      0x01e13380\n        /* \"contracts/solar_insurance.sol\":4696:4697  c */\n      dup7\n        /* \"contracts/solar_insurance.sol\":4696:4710  c.claimTimeout */\n      0xe0\n      add\n      mload\n        /* \"contracts/solar_insurance.sol\":4696:4714  c.claimTimeout.add */\n      tag_124\n      swap1\n        /* \"contracts/solar_insurance.sol\":4696:4728  c.claimTimeout.add(1 * 365 days) */\n      swap2\n      swap1\n      0xffffffff\n      and\n      jump\t// in\n    tag_295:\n      pop\n        /* \"contracts/solar_insurance.sol\":4755:4756  0 */\n      0x00\n        /* \"contracts/solar_insurance.sol\":4742:4743  c */\n      dup6\n        /* \"contracts/solar_insurance.sol\":4742:4752  c.duration */\n      0xc0\n      add\n      mload\n        /* \"contracts/solar_insurance.sol\":4742:4756  c.duration > 0 */\n      gt\n        /* \"contracts/solar_insurance.sol\":4738:4814  if (c.duration > 0) {... */\n      iszero\n      tag_296\n      jumpi\n        /* \"contracts/solar_insurance.sol\":4802:4803  1 */\n      0x01\n        /* \"contracts/solar_insurance.sol\":4772:4786  _allowedClaims */\n      0x07\n        /* \"contracts/solar_insurance.sol\":4772:4798  _allowedClaims[msg.sender] */\n      0x00\n        /* \"contracts/solar_insurance.sol\":4787:4797  msg.sender */\n      caller\n        /* \"contracts/solar_insurance.sol\":4772:4798  _allowedClaims[msg.sender] */\n      0xffffffffffffffffffffffffffffffffffffffff\n      and\n      0xffffffffffffffffffffffffffffffffffffffff\n      and\n      dup2\n      mstore\n      0x20\n      add\n      swap1\n      dup2\n      mstore\n      0x20\n      add\n      0x00\n      keccak256\n      0x00\n        /* \"contracts/solar_insurance.sol\":4772:4803  _allowedClaims[msg.sender] += 1 */\n      dup3\n      dup3\n      sload\n      tag_297\n      swap2\n      swap1\n      tag_127\n      jump\t// in\n    tag_297:\n      swap3\n      pop\n      pop\n      dup2\n      swap1\n      sstore\n      pop\n        /* \"contracts/solar_insurance.sol\":4738:4814  if (c.duration > 0) {... */\n    tag_296:\n        /* \"contracts/solar_insurance.sol\":3888:4820  {... */\n      pop\n      pop\n      pop\n      pop\n      pop\n        /* \"contracts/solar_insurance.sol\":10219:10621  {... */\n      pop\n      pop\n        /* \"contracts/solar_insurance.sol\":11018:11019  _ */\n      pop\n        /* \"contracts/solar_insurance.sol\":10815:10816  _ */\n      pop\n        /* \"contracts/solar_insurance.sol\":3716:4820  function fileClaim(uint256 year)... */\n      pop\n      jump\t// out\n        /* \"contracts/solar_insurance.sol\":1525:1575  mapping(string => uint256) public _sunshineRecords */\n    tag_70:\n      0x05\n      dup2\n      dup1\n      mload\n      0x20\n      dup2\n      add\n      dup3\n      add\n      dup1\n      mload\n      dup5\n      dup3\n      mstore\n      0x20\n      dup4\n      add\n      0x20\n      dup6\n      add\n      keccak256\n      dup2\n      dup4\n      mstore\n      dup1\n      swap6\n      pop\n      pop\n      pop\n      pop\n      pop\n      pop\n      0x00\n      swap2\n      pop\n      swap1\n      pop\n      sload\n      dup2\n      jump\t// out\n        /* \"contracts/solar_insurance.sol\":5259:5481  function getRequiredPremium(ClientRiskLevels riskLevel, uint256 panelArea)... */\n    tag_76:\n        /* \"contracts/solar_insurance.sol\":5379:5386  uint256 */\n      0x00\n        /* \"contracts/solar_insurance.sol\":5421:5437  _insuranceLevels */\n      0x04\n        /* \"contracts/solar_insurance.sol\":5421:5448  _insuranceLevels[riskLevel] */\n      0x00\n        /* \"contracts/solar_insurance.sol\":5438:5447  riskLevel */\n      dup5\n        /* \"contracts/solar_insurance.sol\":5421:5448  _insuranceLevels[riskLevel] */\n      0x02\n      dup2\n      gt\n      iszero\n      tag_299\n      jumpi\n      tag_300\n      tag_81\n      jump\t// in\n    tag_300:\n    tag_299:\n      0x02\n      dup2\n      gt\n      iszero\n      tag_301\n      jumpi\n      tag_302\n      tag_81\n      jump\t// in\n    tag_302:\n    tag_301:\n      dup2\n      mstore\n      0x20\n      add\n      swap1\n      dup2\n      mstore\n      0x20\n      add\n      0x00\n      keccak256\n        /* \"contracts/solar_insurance.sol\":5421:5456  _insuranceLevels[riskLevel].premium */\n      0x00\n      add\n      sload\n        /* \"contracts/solar_insurance.sol\":5409:5418  panelArea */\n      dup3\n        /* \"contracts/solar_insurance.sol\":5409:5456  panelArea * _insuranceLevels[riskLevel].premium */\n      tag_303\n      swap2\n      swap1\n      tag_160\n      jump\t// in\n    tag_303:\n        /* \"contracts/solar_insurance.sol\":5402:5456  return panelArea * _insuranceLevels[riskLevel].premium */\n      swap1\n      pop\n        /* \"contracts/solar_insurance.sol\":5259:5481  function getRequiredPremium(ClientRiskLevels riskLevel, uint256 panelArea)... */\n      swap3\n      swap2\n      pop\n      pop\n      jump\t// out\n        /* \"@openzeppelin/contracts/utils/Strings.sol\":637:1335  function toString(uint256 value) internal pure returns (string memory) {... */\n    tag_86:\n        /* \"@openzeppelin/contracts/utils/Strings.sol\":693:706  string memory */\n      0x60\n        /* \"@openzeppelin/contracts/utils/Strings.sol\":742:756  uint256 length */\n      0x00\n        /* \"@openzeppelin/contracts/utils/Strings.sol\":779:780  1 */\n      0x01\n        /* \"@openzeppelin/contracts/utils/Strings.sol\":759:776  Math.log10(value) */\n      tag_305\n        /* \"@openzeppelin/contracts/utils/Strings.sol\":770:775  value */\n      dup5\n        /* \"@openzeppelin/contracts/utils/Strings.sol\":759:769  Math.log10 */\n      tag_306\n        /* \"@openzeppelin/contracts/utils/Strings.sol\":759:776  Math.log10(value) */\n      jump\t// in\n    tag_305:\n        /* \"@openzeppelin/contracts/utils/Strings.sol\":759:780  Math.log10(value) + 1 */\n      add\n        /* \"@openzeppelin/contracts/utils/Strings.sol\":742:780  uint256 length = Math.log10(value) + 1 */\n      swap1\n      pop\n        /* \"@openzeppelin/contracts/utils/Strings.sol\":794:814  string memory buffer */\n      0x00\n        /* \"@openzeppelin/contracts/utils/Strings.sol\":828:834  length */\n      dup2\n        /* \"@openzeppelin/contracts/utils/Strings.sol\":817:835  new string(length) */\n      0xffffffffffffffff\n      dup2\n      gt\n      iszero\n      tag_307\n      jumpi\n      tag_308\n      tag_309\n      jump\t// in\n    tag_308:\n    tag_307:\n      mload(0x40)\n      swap1\n      dup1\n      dup3\n      mstore\n      dup1\n      0x1f\n      add\n      not(0x1f)\n      and\n      0x20\n      add\n      dup3\n      add\n      0x40\n      mstore\n      dup1\n      iszero\n      tag_310\n      jumpi\n      dup2\n      0x20\n      add\n      0x01\n      dup3\n      mul\n      dup1\n      calldatasize\n      dup4\n      calldatacopy\n      dup1\n      dup3\n      add\n      swap2\n      pop\n      pop\n      swap1\n      pop\n    tag_310:\n      pop\n        /* \"@openzeppelin/contracts/utils/Strings.sol\":794:835  string memory buffer = new string(length) */\n      swap1\n      pop\n        /* \"@openzeppelin/contracts/utils/Strings.sol\":849:860  uint256 ptr */\n      0x00\n        /* \"@openzeppelin/contracts/utils/Strings.sol\":975:981  length */\n      dup3\n        /* \"@openzeppelin/contracts/utils/Strings.sol\":971:973  32 */\n      0x20\n        /* \"@openzeppelin/contracts/utils/Strings.sol\":967:982  add(32, length) */\n      add\n        /* \"@openzeppelin/contracts/utils/Strings.sol\":959:965  buffer */\n      dup3\n        /* \"@openzeppelin/contracts/utils/Strings.sol\":955:983  add(buffer, add(32, length)) */\n      add\n        /* \"@openzeppelin/contracts/utils/Strings.sol\":948:983  ptr := add(buffer, add(32, length)) */\n      swap1\n      pop\n        /* \"@openzeppelin/contracts/utils/Strings.sol\":1010:1292  while (true) {... */\n    tag_311:\n        /* \"@openzeppelin/contracts/utils/Strings.sol\":1017:1021  true */\n      0x01\n        /* \"@openzeppelin/contracts/utils/Strings.sol\":1010:1292  while (true) {... */\n      iszero\n      tag_312\n      jumpi\n        /* \"@openzeppelin/contracts/utils/Strings.sol\":1041:1046  ptr-- */\n      dup1\n      dup1\n      0x01\n      swap1\n      sub\n      swap2\n      pop\n      pop\n        /* \"@openzeppelin/contracts/utils/Strings.sol\":1180:1190  HEX_DIGITS */\n      0x3031323334353637383961626364656600000000000000000000000000000000\n        /* \"@openzeppelin/contracts/utils/Strings.sol\":1175:1177  10 */\n      0x0a\n        /* \"@openzeppelin/contracts/utils/Strings.sol\":1168:1173  value */\n      dup7\n        /* \"@openzeppelin/contracts/utils/Strings.sol\":1164:1178  mod(value, 10) */\n      mod\n        /* \"@openzeppelin/contracts/utils/Strings.sol\":1159:1191  byte(mod(value, 10), HEX_DIGITS) */\n      byte\n        /* \"@openzeppelin/contracts/utils/Strings.sol\":1154:1157  ptr */\n      dup2\n        /* \"@openzeppelin/contracts/utils/Strings.sol\":1146:1192  mstore8(ptr, byte(mod(value, 10), HEX_DIGITS)) */\n      mstore8\n        /* \"@openzeppelin/contracts/utils/Strings.sol\":1236:1238  10 */\n      0x0a\n        /* \"@openzeppelin/contracts/utils/Strings.sol\":1227:1238  value /= 10 */\n      dup6\n      dup2\n      tag_313\n      jumpi\n      tag_314\n      tag_315\n      jump\t// in\n    tag_314:\n    tag_313:\n      div\n      swap5\n      pop\n        /* \"@openzeppelin/contracts/utils/Strings.sol\":1269:1270  0 */\n      0x00\n        /* \"@openzeppelin/contracts/utils/Strings.sol\":1260:1265  value */\n      dup6\n        /* \"@openzeppelin/contracts/utils/Strings.sol\":1260:1270  value == 0 */\n      sub\n        /* \"@openzeppelin/contracts/utils/Strings.sol\":1010:1292  while (true) {... */\n      tag_311\n        /* \"@openzeppelin/contracts/utils/Strings.sol\":1256:1277  if (value == 0) break */\n      jumpi\n        /* \"@openzeppelin/contracts/utils/Strings.sol\":1010:1292  while (true) {... */\n    tag_312:\n        /* \"@openzeppelin/contracts/utils/Strings.sol\":1312:1318  buffer */\n      dup2\n        /* \"@openzeppelin/contracts/utils/Strings.sol\":1305:1318  return buffer */\n      swap4\n      pop\n      pop\n      pop\n      pop\n        /* \"@openzeppelin/contracts/utils/Strings.sol\":637:1335  function toString(uint256 value) internal pure returns (string memory) {... */\n      swap2\n      swap1\n      pop\n      jump\t// out\n        /* \"@openzeppelin/contracts/utils/math/SafeMath.sol\":2755:2851  function add(uint256 a, uint256 b) internal pure returns (uint256) {... */\n    tag_124:\n        /* \"@openzeppelin/contracts/utils/math/SafeMath.sol\":2813:2820  uint256 */\n      0x00\n        /* \"@openzeppelin/contracts/utils/math/SafeMath.sol\":2843:2844  b */\n      dup2\n        /* \"@openzeppelin/contracts/utils/math/SafeMath.sol\":2839:2840  a */\n      dup4\n        /* \"@openzeppelin/contracts/utils/math/SafeMath.sol\":2839:2844  a + b */\n      tag_318\n      swap2\n      swap1\n      tag_127\n      jump\t// in\n    tag_318:\n        /* \"@openzeppelin/contracts/utils/math/SafeMath.sol\":2832:2844  return a + b */\n      swap1\n      pop\n        /* \"@openzeppelin/contracts/utils/math/SafeMath.sol\":2755:2851  function add(uint256 a, uint256 b) internal pure returns (uint256) {... */\n      swap3\n      swap2\n      pop\n      pop\n      jump\t// out\n        /* \"@openzeppelin/contracts/utils/math/Math.sol\":12214:13130  function log10(uint256 value) internal pure returns (uint256) {... */\n    tag_306:\n        /* \"@openzeppelin/contracts/utils/math/Math.sol\":12267:12274  uint256 */\n      0x00\n        /* \"@openzeppelin/contracts/utils/math/Math.sol\":12286:12300  uint256 result */\n      dup1\n        /* \"@openzeppelin/contracts/utils/math/Math.sol\":12303:12304  0 */\n      0x00\n        /* \"@openzeppelin/contracts/utils/math/Math.sol\":12286:12304  uint256 result = 0 */\n      swap1\n      pop\n        /* \"@openzeppelin/contracts/utils/math/Math.sol\":12351:12359  10 ** 64 */\n      0x184f03e93ff9f4daa797ed6e38ed64bf6a1f010000000000000000\n        /* \"@openzeppelin/contracts/utils/math/Math.sol\":12342:12347  value */\n      dup4\n        /* \"@openzeppelin/contracts/utils/math/Math.sol\":12342:12359  value >= 10 ** 64 */\n      lt\n        /* \"@openzeppelin/contracts/utils/math/Math.sol\":12338:12441  if (value >= 10 ** 64) {... */\n      tag_320\n      jumpi\n        /* \"@openzeppelin/contracts/utils/math/Math.sol\":12388:12396  10 ** 64 */\n      0x184f03e93ff9f4daa797ed6e38ed64bf6a1f010000000000000000\n        /* \"@openzeppelin/contracts/utils/math/Math.sol\":12379:12396  value /= 10 ** 64 */\n      dup4\n      dup2\n      tag_321\n      jumpi\n      tag_322\n      tag_315\n      jump\t// in\n    tag_322:\n    tag_321:\n      div\n      swap3\n      pop\n        /* \"@openzeppelin/contracts/utils/math/Math.sol\":12424:12426  64 */\n      0x40\n        /* \"@openzeppelin/contracts/utils/math/Math.sol\":12414:12426  result += 64 */\n      dup2\n      add\n      swap1\n      pop\n        /* \"@openzeppelin/contracts/utils/math/Math.sol\":12338:12441  if (value >= 10 ** 64) {... */\n    tag_320:\n        /* \"@openzeppelin/contracts/utils/math/Math.sol\":12467:12475  10 ** 32 */\n      0x04ee2d6d415b85acef8100000000\n        /* \"@openzeppelin/contracts/utils/math/Math.sol\":12458:12463  value */\n      dup4\n        /* \"@openzeppelin/contracts/utils/math/Math.sol\":12458:12475  value >= 10 ** 32 */\n      lt\n        /* \"@openzeppelin/contracts/utils/math/Math.sol\":12454:12557  if (value >= 10 ** 32) {... */\n      tag_323\n      jumpi\n        /* \"@openzeppelin/contracts/utils/math/Math.sol\":12504:12512  10 ** 32 */\n      0x04ee2d6d415b85acef8100000000\n        /* \"@openzeppelin/contracts/utils/math/Math.sol\":12495:12512  value /= 10 ** 32 */\n      dup4\n      dup2\n      tag_324\n      jumpi\n      tag_325\n      tag_315\n      jump\t// in\n    tag_325:\n    tag_324:\n      div\n      swap3\n      pop\n        /* \"@openzeppelin/contracts/utils/math/Math.sol\":12540:12542  32 */\n      0x20\n        /* \"@openzeppelin/contracts/utils/math/Math.sol\":12530:12542  result += 32 */\n      dup2\n      add\n      swap1\n      pop\n        /* \"@openzeppelin/contracts/utils/math/Math.sol\":12454:12557  if (value >= 10 ** 32) {... */\n    tag_323:\n        /* \"@openzeppelin/contracts/utils/math/Math.sol\":12583:12591  10 ** 16 */\n      0x2386f26fc10000\n        /* \"@openzeppelin/contracts/utils/math/Math.sol\":12574:12579  value */\n      dup4\n        /* \"@openzeppelin/contracts/utils/math/Math.sol\":12574:12591  value >= 10 ** 16 */\n      lt\n        /* \"@openzeppelin/contracts/utils/math/Math.sol\":12570:12673  if (value >= 10 ** 16) {... */\n      tag_326\n      jumpi\n        /* \"@openzeppelin/contracts/utils/math/Math.sol\":12620:12628  10 ** 16 */\n      0x2386f26fc10000\n        /* \"@openzeppelin/contracts/utils/math/Math.sol\":12611:12628  value /= 10 ** 16 */\n      dup4\n      dup2\n      tag_327\n      jumpi\n      tag_328\n      tag_315\n      jump\t// in\n    tag_328:\n    tag_327:\n      div\n      swap3\n      pop\n        /* \"@openzeppelin/contracts/utils/math/Math.sol\":12656:12658  16 */\n      0x10\n        /* \"@openzeppelin/contracts/utils/math/Math.sol\":12646:12658  result += 16 */\n      dup2\n      add\n      swap1\n      pop\n        /* \"@openzeppelin/contracts/utils/math/Math.sol\":12570:12673  if (value >= 10 ** 16) {... */\n    tag_326:\n        /* \"@openzeppelin/contracts/utils/math/Math.sol\":12699:12706  10 ** 8 */\n      0x05f5e100\n        /* \"@openzeppelin/contracts/utils/math/Math.sol\":12690:12695  value */\n      dup4\n        /* \"@openzeppelin/contracts/utils/math/Math.sol\":12690:12706  value >= 10 ** 8 */\n      lt\n        /* \"@openzeppelin/contracts/utils/math/Math.sol\":12686:12786  if (value >= 10 ** 8) {... */\n      tag_329\n      jumpi\n        /* \"@openzeppelin/contracts/utils/math/Math.sol\":12735:12742  10 ** 8 */\n      0x05f5e100\n        /* \"@openzeppelin/contracts/utils/math/Math.sol\":12726:12742  value /= 10 ** 8 */\n      dup4\n      dup2\n      tag_330\n      jumpi\n      tag_331\n      tag_315\n      jump\t// in\n    tag_331:\n    tag_330:\n      div\n      swap3\n      pop\n        /* \"@openzeppelin/contracts/utils/math/Math.sol\":12770:12771  8 */\n      0x08\n        /* \"@openzeppelin/contracts/utils/math/Math.sol\":12760:12771  result += 8 */\n      dup2\n      add\n      swap1\n      pop\n        /* \"@openzeppelin/contracts/utils/math/Math.sol\":12686:12786  if (value >= 10 ** 8) {... */\n    tag_329:\n        /* \"@openzeppelin/contracts/utils/math/Math.sol\":12812:12819  10 ** 4 */\n      0x2710\n        /* \"@openzeppelin/contracts/utils/math/Math.sol\":12803:12808  value */\n      dup4\n        /* \"@openzeppelin/contracts/utils/math/Math.sol\":12803:12819  value >= 10 ** 4 */\n      lt\n        /* \"@openzeppelin/contracts/utils/math/Math.sol\":12799:12899  if (value >= 10 ** 4) {... */\n      tag_332\n      jumpi\n        /* \"@openzeppelin/contracts/utils/math/Math.sol\":12848:12855  10 ** 4 */\n      0x2710\n        /* \"@openzeppelin/contracts/utils/math/Math.sol\":12839:12855  value /= 10 ** 4 */\n      dup4\n      dup2\n      tag_333\n      jumpi\n      tag_334\n      tag_315\n      jump\t// in\n    tag_334:\n    tag_333:\n      div\n      swap3\n      pop\n        /* \"@openzeppelin/contracts/utils/math/Math.sol\":12883:12884  4 */\n      0x04\n        /* \"@openzeppelin/contracts/utils/math/Math.sol\":12873:12884  result += 4 */\n      dup2\n      add\n      swap1\n      pop\n        /* \"@openzeppelin/contracts/utils/math/Math.sol\":12799:12899  if (value >= 10 ** 4) {... */\n    tag_332:\n        /* \"@openzeppelin/contracts/utils/math/Math.sol\":12925:12932  10 ** 2 */\n      0x64\n        /* \"@openzeppelin/contracts/utils/math/Math.sol\":12916:12921  value */\n      dup4\n        /* \"@openzeppelin/contracts/utils/math/Math.sol\":12916:12932  value >= 10 ** 2 */\n      lt\n        /* \"@openzeppelin/contracts/utils/math/Math.sol\":12912:13012  if (value >= 10 ** 2) {... */\n      tag_335\n      jumpi\n        /* \"@openzeppelin/contracts/utils/math/Math.sol\":12961:12968  10 ** 2 */\n      0x64\n        /* \"@openzeppelin/contracts/utils/math/Math.sol\":12952:12968  value /= 10 ** 2 */\n      dup4\n      dup2\n      tag_336\n      jumpi\n      tag_337\n      tag_315\n      jump\t// in\n    tag_337:\n    tag_336:\n      div\n      swap3\n      pop\n        /* \"@openzeppelin/contracts/utils/math/Math.sol\":12996:12997  2 */\n      0x02\n        /* \"@openzeppelin/contracts/utils/math/Math.sol\":12986:12997  result += 2 */\n      dup2\n      add\n      swap1\n      pop\n        /* \"@openzeppelin/contracts/utils/math/Math.sol\":12912:13012  if (value >= 10 ** 2) {... */\n    tag_335:\n        /* \"@openzeppelin/contracts/utils/math/Math.sol\":13038:13045  10 ** 1 */\n      0x0a\n        /* \"@openzeppelin/contracts/utils/math/Math.sol\":13029:13034  value */\n      dup4\n        /* \"@openzeppelin/contracts/utils/math/Math.sol\":13029:13045  value >= 10 ** 1 */\n      lt\n        /* \"@openzeppelin/contracts/utils/math/Math.sol\":13025:13091  if (value >= 10 ** 1) {... */\n      tag_338\n      jumpi\n        /* \"@openzeppelin/contracts/utils/math/Math.sol\":13075:13076  1 */\n      0x01\n        /* \"@openzeppelin/contracts/utils/math/Math.sol\":13065:13076  result += 1 */\n      dup2\n      add\n      swap1\n      pop\n        /* \"@openzeppelin/contracts/utils/math/Math.sol\":13025:13091  if (value >= 10 ** 1) {... */\n    tag_338:\n        /* \"@openzeppelin/contracts/utils/math/Math.sol\":13117:13123  result */\n      dup1\n        /* \"@openzeppelin/contracts/utils/math/Math.sol\":13110:13123  return result */\n      swap2\n      pop\n      pop\n        /* \"@openzeppelin/contracts/utils/math/Math.sol\":12214:13130  function log10(uint256 value) internal pure returns (uint256) {... */\n      swap2\n      swap1\n      pop\n      jump\t// out\n    tag_135:\n      mload(0x40)\n      dup1\n      0x0100\n      add\n      0x40\n      mstore\n      dup1\n      and(0xffffffffffffffffffffffffffffffffffffffff, 0x00)\n      dup2\n      mstore\n      0x20\n      add\n      0x00\n      0x01\n      dup2\n      gt\n      iszero\n      tag_339\n      jumpi\n      tag_340\n      tag_81\n      jump\t// in\n    tag_340:\n    tag_339:\n      dup2\n      mstore\n      0x20\n      add\n      0x00\n      0x02\n      dup2\n      gt\n      iszero\n      tag_341\n      jumpi\n      tag_342\n      tag_81\n      jump\t// in\n    tag_342:\n    tag_341:\n      dup2\n      mstore\n      0x20\n      add\n      0x00\n      dup2\n      mstore\n      0x20\n      add\n      0x00\n      dup2\n      mstore\n      0x20\n      add\n      0x00\n      dup2\n      mstore\n      0x20\n      add\n      0x00\n      dup2\n      mstore\n      0x20\n      add\n      0x00\n      dup2\n      mstore\n      pop\n      swap1\n      jump\t// out\n        /* \"#utility.yul\":7:82   */\n    tag_343:\n        /* \"#utility.yul\":40:46   */\n      0x00\n        /* \"#utility.yul\":73:75   */\n      0x40\n        /* \"#utility.yul\":67:76   */\n      mload\n        /* \"#utility.yul\":57:76   */\n      swap1\n      pop\n        /* \"#utility.yul\":7:82   */\n      swap1\n      jump\t// out\n        /* \"#utility.yul\":88:205   */\n    tag_344:\n        /* \"#utility.yul\":197:198   */\n      0x00\n        /* \"#utility.yul\":194:195   */\n      dup1\n        /* \"#utility.yul\":187:199   */\n      revert\n        /* \"#utility.yul\":211:328   */\n    tag_345:\n        /* \"#utility.yul\":320:321   */\n      0x00\n        /* \"#utility.yul\":317:318   */\n      dup1\n        /* \"#utility.yul\":310:322   */\n      revert\n        /* \"#utility.yul\":334:460   */\n    tag_346:\n        /* \"#utility.yul\":371:378   */\n      0x00\n        /* \"#utility.yul\":411:453   */\n      0xffffffffffffffffffffffffffffffffffffffff\n        /* \"#utility.yul\":404:409   */\n      dup3\n        /* \"#utility.yul\":400:454   */\n      and\n        /* \"#utility.yul\":389:454   */\n      swap1\n      pop\n        /* \"#utility.yul\":334:460   */\n      swap2\n      swap1\n      pop\n      jump\t// out\n        /* \"#utility.yul\":466:562   */\n    tag_347:\n        /* \"#utility.yul\":503:510   */\n      0x00\n        /* \"#utility.yul\":532:556   */\n      tag_413\n        /* \"#utility.yul\":550:555   */\n      dup3\n        /* \"#utility.yul\":532:556   */\n      tag_346\n      jump\t// in\n    tag_413:\n        /* \"#utility.yul\":521:556   */\n      swap1\n      pop\n        /* \"#utility.yul\":466:562   */\n      swap2\n      swap1\n      pop\n      jump\t// out\n        /* \"#utility.yul\":568:690   */\n    tag_348:\n        /* \"#utility.yul\":641:665   */\n      tag_415\n        /* \"#utility.yul\":659:664   */\n      dup2\n        /* \"#utility.yul\":641:665   */\n      tag_347\n      jump\t// in\n    tag_415:\n        /* \"#utility.yul\":634:639   */\n      dup2\n        /* \"#utility.yul\":631:666   */\n      eq\n        /* \"#utility.yul\":621:684   */\n      tag_416\n      jumpi\n        /* \"#utility.yul\":680:681   */\n      0x00\n        /* \"#utility.yul\":677:678   */\n      dup1\n        /* \"#utility.yul\":670:682   */\n      revert\n        /* \"#utility.yul\":621:684   */\n    tag_416:\n        /* \"#utility.yul\":568:690   */\n      pop\n      jump\t// out\n        /* \"#utility.yul\":696:835   */\n    tag_349:\n        /* \"#utility.yul\":742:747   */\n      0x00\n        /* \"#utility.yul\":780:786   */\n      dup2\n        /* \"#utility.yul\":767:787   */\n      calldataload\n        /* \"#utility.yul\":758:787   */\n      swap1\n      pop\n        /* \"#utility.yul\":796:829   */\n      tag_418\n        /* \"#utility.yul\":823:828   */\n      dup2\n        /* \"#utility.yul\":796:829   */\n      tag_348\n      jump\t// in\n    tag_418:\n        /* \"#utility.yul\":696:835   */\n      swap3\n      swap2\n      pop\n      pop\n      jump\t// out\n        /* \"#utility.yul\":841:1170   */\n    tag_20:\n        /* \"#utility.yul\":900:906   */\n      0x00\n        /* \"#utility.yul\":949:951   */\n      0x20\n        /* \"#utility.yul\":937:946   */\n      dup3\n        /* \"#utility.yul\":928:935   */\n      dup5\n        /* \"#utility.yul\":924:947   */\n      sub\n        /* \"#utility.yul\":920:952   */\n      slt\n        /* \"#utility.yul\":917:1036   */\n      iszero\n      tag_420\n      jumpi\n        /* \"#utility.yul\":955:1034   */\n      tag_421\n      tag_344\n      jump\t// in\n    tag_421:\n        /* \"#utility.yul\":917:1036   */\n    tag_420:\n        /* \"#utility.yul\":1075:1076   */\n      0x00\n        /* \"#utility.yul\":1100:1153   */\n      tag_422\n        /* \"#utility.yul\":1145:1152   */\n      dup5\n        /* \"#utility.yul\":1136:1142   */\n      dup3\n        /* \"#utility.yul\":1125:1134   */\n      dup6\n        /* \"#utility.yul\":1121:1143   */\n      add\n        /* \"#utility.yul\":1100:1153   */\n      tag_349\n      jump\t// in\n    tag_422:\n        /* \"#utility.yul\":1090:1153   */\n      swap2\n      pop\n        /* \"#utility.yul\":1046:1163   */\n      pop\n        /* \"#utility.yul\":841:1170   */\n      swap3\n      swap2\n      pop\n      pop\n      jump\t// out\n        /* \"#utility.yul\":1176:1253   */\n    tag_350:\n        /* \"#utility.yul\":1213:1220   */\n      0x00\n        /* \"#utility.yul\":1242:1247   */\n      dup2\n        /* \"#utility.yul\":1231:1247   */\n      swap1\n      pop\n        /* \"#utility.yul\":1176:1253   */\n      swap2\n      swap1\n      pop\n      jump\t// out\n        /* \"#utility.yul\":1259:1377   */\n    tag_351:\n        /* \"#utility.yul\":1346:1370   */\n      tag_425\n        /* \"#utility.yul\":1364:1369   */\n      dup2\n        /* \"#utility.yul\":1346:1370   */\n      tag_350\n      jump\t// in\n    tag_425:\n        /* \"#utility.yul\":1341:1344   */\n      dup3\n        /* \"#utility.yul\":1334:1371   */\n      mstore\n        /* \"#utility.yul\":1259:1377   */\n      pop\n      pop\n      jump\t// out\n        /* \"#utility.yul\":1383:1605   */\n    tag_23:\n        /* \"#utility.yul\":1476:1480   */\n      0x00\n        /* \"#utility.yul\":1514:1516   */\n      0x20\n        /* \"#utility.yul\":1503:1512   */\n      dup3\n        /* \"#utility.yul\":1499:1517   */\n      add\n        /* \"#utility.yul\":1491:1517   */\n      swap1\n      pop\n        /* \"#utility.yul\":1527:1598   */\n      tag_427\n        /* \"#utility.yul\":1595:1596   */\n      0x00\n        /* \"#utility.yul\":1584:1593   */\n      dup4\n        /* \"#utility.yul\":1580:1597   */\n      add\n        /* \"#utility.yul\":1571:1577   */\n      dup5\n        /* \"#utility.yul\":1527:1598   */\n      tag_351\n      jump\t// in\n    tag_427:\n        /* \"#utility.yul\":1383:1605   */\n      swap3\n      swap2\n      pop\n      pop\n      jump\t// out\n        /* \"#utility.yul\":1611:1733   */\n    tag_352:\n        /* \"#utility.yul\":1684:1708   */\n      tag_429\n        /* \"#utility.yul\":1702:1707   */\n      dup2\n        /* \"#utility.yul\":1684:1708   */\n      tag_350\n      jump\t// in\n    tag_429:\n        /* \"#utility.yul\":1677:1682   */\n      dup2\n        /* \"#utility.yul\":1674:1709   */\n      eq\n        /* \"#utility.yul\":1664:1727   */\n      tag_430\n      jumpi\n        /* \"#utility.yul\":1723:1724   */\n      0x00\n        /* \"#utility.yul\":1720:1721   */\n      dup1\n        /* \"#utility.yul\":1713:1725   */\n      revert\n        /* \"#utility.yul\":1664:1727   */\n    tag_430:\n        /* \"#utility.yul\":1611:1733   */\n      pop\n      jump\t// out\n        /* \"#utility.yul\":1739:1878   */\n    tag_353:\n        /* \"#utility.yul\":1785:1790   */\n      0x00\n        /* \"#utility.yul\":1823:1829   */\n      dup2\n        /* \"#utility.yul\":1810:1830   */\n      calldataload\n        /* \"#utility.yul\":1801:1830   */\n      swap1\n      pop\n        /* \"#utility.yul\":1839:1872   */\n      tag_432\n        /* \"#utility.yul\":1866:1871   */\n      dup2\n        /* \"#utility.yul\":1839:1872   */\n      tag_352\n      jump\t// in\n    tag_432:\n        /* \"#utility.yul\":1739:1878   */\n      swap3\n      swap2\n      pop\n      pop\n      jump\t// out\n        /* \"#utility.yul\":1884:1999   */\n    tag_354:\n        /* \"#utility.yul\":1973:1974   */\n      0x02\n        /* \"#utility.yul\":1966:1971   */\n      dup2\n        /* \"#utility.yul\":1963:1975   */\n      lt\n        /* \"#utility.yul\":1953:1993   */\n      tag_434\n      jumpi\n        /* \"#utility.yul\":1989:1990   */\n      0x00\n        /* \"#utility.yul\":1986:1987   */\n      dup1\n        /* \"#utility.yul\":1979:1991   */\n      revert\n        /* \"#utility.yul\":1953:1993   */\n    tag_434:\n        /* \"#utility.yul\":1884:1999   */\n      pop\n      jump\t// out\n        /* \"#utility.yul\":2005:2176   */\n    tag_355:\n        /* \"#utility.yul\":2067:2072   */\n      0x00\n        /* \"#utility.yul\":2105:2111   */\n      dup2\n        /* \"#utility.yul\":2092:2112   */\n      calldataload\n        /* \"#utility.yul\":2083:2112   */\n      swap1\n      pop\n        /* \"#utility.yul\":2121:2170   */\n      tag_436\n        /* \"#utility.yul\":2164:2169   */\n      dup2\n        /* \"#utility.yul\":2121:2170   */\n      tag_354\n      jump\t// in\n    tag_436:\n        /* \"#utility.yul\":2005:2176   */\n      swap3\n      swap2\n      pop\n      pop\n      jump\t// out\n        /* \"#utility.yul\":2182:2833   */\n    tag_27:\n        /* \"#utility.yul\":2275:2281   */\n      0x00\n        /* \"#utility.yul\":2283:2289   */\n      dup1\n        /* \"#utility.yul\":2291:2297   */\n      0x00\n        /* \"#utility.yul\":2340:2342   */\n      0x60\n        /* \"#utility.yul\":2328:2337   */\n      dup5\n        /* \"#utility.yul\":2319:2326   */\n      dup7\n        /* \"#utility.yul\":2315:2338   */\n      sub\n        /* \"#utility.yul\":2311:2343   */\n      slt\n        /* \"#utility.yul\":2308:2427   */\n      iszero\n      tag_438\n      jumpi\n        /* \"#utility.yul\":2346:2425   */\n      tag_439\n      tag_344\n      jump\t// in\n    tag_439:\n        /* \"#utility.yul\":2308:2427   */\n    tag_438:\n        /* \"#utility.yul\":2466:2467   */\n      0x00\n        /* \"#utility.yul\":2491:2544   */\n      tag_440\n        /* \"#utility.yul\":2536:2543   */\n      dup7\n        /* \"#utility.yul\":2527:2533   */\n      dup3\n        /* \"#utility.yul\":2516:2525   */\n      dup8\n        /* \"#utility.yul\":2512:2534   */\n      add\n        /* \"#utility.yul\":2491:2544   */\n      tag_353\n      jump\t// in\n    tag_440:\n        /* \"#utility.yul\":2481:2544   */\n      swap4\n      pop\n        /* \"#utility.yul\":2437:2554   */\n      pop\n        /* \"#utility.yul\":2593:2595   */\n      0x20\n        /* \"#utility.yul\":2619:2688   */\n      tag_441\n        /* \"#utility.yul\":2680:2687   */\n      dup7\n        /* \"#utility.yul\":2671:2677   */\n      dup3\n        /* \"#utility.yul\":2660:2669   */\n      dup8\n        /* \"#utility.yul\":2656:2678   */\n      add\n        /* \"#utility.yul\":2619:2688   */\n      tag_355\n      jump\t// in\n    tag_441:\n        /* \"#utility.yul\":2609:2688   */\n      swap3\n      pop\n        /* \"#utility.yul\":2564:2698   */\n      pop\n        /* \"#utility.yul\":2737:2739   */\n      0x40\n        /* \"#utility.yul\":2763:2816   */\n      tag_442\n        /* \"#utility.yul\":2808:2815   */\n      dup7\n        /* \"#utility.yul\":2799:2805   */\n      dup3\n        /* \"#utility.yul\":2788:2797   */\n      dup8\n        /* \"#utility.yul\":2784:2806   */\n      add\n        /* \"#utility.yul\":2763:2816   */\n      tag_353\n      jump\t// in\n    tag_442:\n        /* \"#utility.yul\":2753:2816   */\n      swap2\n      pop\n        /* \"#utility.yul\":2708:2826   */\n      pop\n        /* \"#utility.yul\":2182:2833   */\n      swap3\n      pop\n      swap3\n      pop\n      swap3\n      jump\t// out\n        /* \"#utility.yul\":2839:3168   */\n    tag_32:\n        /* \"#utility.yul\":2898:2904   */\n      0x00\n        /* \"#utility.yul\":2947:2949   */\n      0x20\n        /* \"#utility.yul\":2935:2944   */\n      dup3\n        /* \"#utility.yul\":2926:2933   */\n      dup5\n        /* \"#utility.yul\":2922:2945   */\n      sub\n        /* \"#utility.yul\":2918:2950   */\n      slt\n        /* \"#utility.yul\":2915:3034   */\n      iszero\n      tag_444\n      jumpi\n        /* \"#utility.yul\":2953:3032   */\n      tag_445\n      tag_344\n      jump\t// in\n    tag_445:\n        /* \"#utility.yul\":2915:3034   */\n    tag_444:\n        /* \"#utility.yul\":3073:3074   */\n      0x00\n        /* \"#utility.yul\":3098:3151   */\n      tag_446\n        /* \"#utility.yul\":3143:3150   */\n      dup5\n        /* \"#utility.yul\":3134:3140   */\n      dup3\n        /* \"#utility.yul\":3123:3132   */\n      dup6\n        /* \"#utility.yul\":3119:3141   */\n      add\n        /* \"#utility.yul\":3098:3151   */\n      tag_353\n      jump\t// in\n    tag_446:\n        /* \"#utility.yul\":3088:3151   */\n      swap2\n      pop\n        /* \"#utility.yul\":3044:3161   */\n      pop\n        /* \"#utility.yul\":2839:3168   */\n      swap3\n      swap2\n      pop\n      pop\n      jump\t// out\n        /* \"#utility.yul\":3174:3292   */\n    tag_356:\n        /* \"#utility.yul\":3261:3285   */\n      tag_448\n        /* \"#utility.yul\":3279:3284   */\n      dup2\n        /* \"#utility.yul\":3261:3285   */\n      tag_347\n      jump\t// in\n    tag_448:\n        /* \"#utility.yul\":3256:3259   */\n      dup3\n        /* \"#utility.yul\":3249:3286   */\n      mstore\n        /* \"#utility.yul\":3174:3292   */\n      pop\n      pop\n      jump\t// out\n        /* \"#utility.yul\":3298:3520   */\n    tag_38:\n        /* \"#utility.yul\":3391:3395   */\n      0x00\n        /* \"#utility.yul\":3429:3431   */\n      0x20\n        /* \"#utility.yul\":3418:3427   */\n      dup3\n        /* \"#utility.yul\":3414:3432   */\n      add\n        /* \"#utility.yul\":3406:3432   */\n      swap1\n      pop\n        /* \"#utility.yul\":3442:3513   */\n      tag_450\n        /* \"#utility.yul\":3510:3511   */\n      0x00\n        /* \"#utility.yul\":3499:3508   */\n      dup4\n        /* \"#utility.yul\":3495:3512   */\n      add\n        /* \"#utility.yul\":3486:3492   */\n      dup5\n        /* \"#utility.yul\":3442:3513   */\n      tag_356\n      jump\t// in\n    tag_450:\n        /* \"#utility.yul\":3298:3520   */\n      swap3\n      swap2\n      pop\n      pop\n      jump\t// out\n        /* \"#utility.yul\":3526:3616   */\n    tag_357:\n        /* \"#utility.yul\":3560:3567   */\n      0x00\n        /* \"#utility.yul\":3603:3608   */\n      dup2\n        /* \"#utility.yul\":3596:3609   */\n      iszero\n        /* \"#utility.yul\":3589:3610   */\n      iszero\n        /* \"#utility.yul\":3578:3610   */\n      swap1\n      pop\n        /* \"#utility.yul\":3526:3616   */\n      swap2\n      swap1\n      pop\n      jump\t// out\n        /* \"#utility.yul\":3622:3731   */\n    tag_358:\n        /* \"#utility.yul\":3703:3724   */\n      tag_453\n        /* \"#utility.yul\":3718:3723   */\n      dup2\n        /* \"#utility.yul\":3703:3724   */\n      tag_357\n      jump\t// in\n    tag_453:\n        /* \"#utility.yul\":3698:3701   */\n      dup3\n        /* \"#utility.yul\":3691:3725   */\n      mstore\n        /* \"#utility.yul\":3622:3731   */\n      pop\n      pop\n      jump\t// out\n        /* \"#utility.yul\":3737:3947   */\n    tag_43:\n        /* \"#utility.yul\":3824:3828   */\n      0x00\n        /* \"#utility.yul\":3862:3864   */\n      0x20\n        /* \"#utility.yul\":3851:3860   */\n      dup3\n        /* \"#utility.yul\":3847:3865   */\n      add\n        /* \"#utility.yul\":3839:3865   */\n      swap1\n      pop\n        /* \"#utility.yul\":3875:3940   */\n      tag_455\n        /* \"#utility.yul\":3937:3938   */\n      0x00\n        /* \"#utility.yul\":3926:3935   */\n      dup4\n        /* \"#utility.yul\":3922:3939   */\n      add\n        /* \"#utility.yul\":3913:3919   */\n      dup5\n        /* \"#utility.yul\":3875:3940   */\n      tag_358\n      jump\t// in\n    tag_455:\n        /* \"#utility.yul\":3737:3947   */\n      swap3\n      swap2\n      pop\n      pop\n      jump\t// out\n        /* \"#utility.yul\":3953:4061   */\n    tag_359:\n        /* \"#utility.yul\":4030:4054   */\n      tag_457\n        /* \"#utility.yul\":4048:4053   */\n      dup2\n        /* \"#utility.yul\":4030:4054   */\n      tag_347\n      jump\t// in\n    tag_457:\n        /* \"#utility.yul\":4025:4028   */\n      dup3\n        /* \"#utility.yul\":4018:4055   */\n      mstore\n        /* \"#utility.yul\":3953:4061   */\n      pop\n      pop\n      jump\t// out\n        /* \"#utility.yul\":4067:4247   */\n    tag_81:\n        /* \"#utility.yul\":4115:4192   */\n      0x4e487b7100000000000000000000000000000000000000000000000000000000\n        /* \"#utility.yul\":4112:4113   */\n      0x00\n        /* \"#utility.yul\":4105:4193   */\n      mstore\n        /* \"#utility.yul\":4212:4216   */\n      0x21\n        /* \"#utility.yul\":4209:4210   */\n      0x04\n        /* \"#utility.yul\":4202:4217   */\n      mstore\n        /* \"#utility.yul\":4236:4240   */\n      0x24\n        /* \"#utility.yul\":4233:4234   */\n      0x00\n        /* \"#utility.yul\":4226:4241   */\n      revert\n        /* \"#utility.yul\":4253:4374   */\n    tag_360:\n        /* \"#utility.yul\":4342:4343   */\n      0x02\n        /* \"#utility.yul\":4335:4340   */\n      dup2\n        /* \"#utility.yul\":4332:4344   */\n      lt\n        /* \"#utility.yul\":4322:4368   */\n      tag_460\n      jumpi\n        /* \"#utility.yul\":4348:4366   */\n      tag_461\n      tag_81\n      jump\t// in\n    tag_461:\n        /* \"#utility.yul\":4322:4368   */\n    tag_460:\n        /* \"#utility.yul\":4253:4374   */\n      pop\n      jump\t// out\n        /* \"#utility.yul\":4380:4523   */\n    tag_361:\n        /* \"#utility.yul\":4433:4440   */\n      0x00\n        /* \"#utility.yul\":4462:4467   */\n      dup2\n        /* \"#utility.yul\":4451:4467   */\n      swap1\n      pop\n        /* \"#utility.yul\":4468:4517   */\n      tag_463\n        /* \"#utility.yul\":4511:4516   */\n      dup3\n        /* \"#utility.yul\":4468:4517   */\n      tag_360\n      jump\t// in\n    tag_463:\n        /* \"#utility.yul\":4380:4523   */\n      swap2\n      swap1\n      pop\n      jump\t// out\n        /* \"#utility.yul\":4529:4672   */\n    tag_362:\n        /* \"#utility.yul\":4593:4602   */\n      0x00\n        /* \"#utility.yul\":4626:4666   */\n      tag_465\n        /* \"#utility.yul\":4660:4665   */\n      dup3\n        /* \"#utility.yul\":4626:4666   */\n      tag_361\n      jump\t// in\n    tag_465:\n        /* \"#utility.yul\":4613:4666   */\n      swap1\n      pop\n        /* \"#utility.yul\":4529:4672   */\n      swap2\n      swap1\n      pop\n      jump\t// out\n        /* \"#utility.yul\":4678:4827   */\n    tag_363:\n        /* \"#utility.yul\":4769:4820   */\n      tag_467\n        /* \"#utility.yul\":4814:4819   */\n      dup2\n        /* \"#utility.yul\":4769:4820   */\n      tag_362\n      jump\t// in\n    tag_467:\n        /* \"#utility.yul\":4764:4767   */\n      dup3\n        /* \"#utility.yul\":4757:4821   */\n      mstore\n        /* \"#utility.yul\":4678:4827   */\n      pop\n      pop\n      jump\t// out\n        /* \"#utility.yul\":4833:4959   */\n    tag_364:\n        /* \"#utility.yul\":4927:4928   */\n      0x03\n        /* \"#utility.yul\":4920:4925   */\n      dup2\n        /* \"#utility.yul\":4917:4929   */\n      lt\n        /* \"#utility.yul\":4907:4953   */\n      tag_469\n      jumpi\n        /* \"#utility.yul\":4933:4951   */\n      tag_470\n      tag_81\n      jump\t// in\n    tag_470:\n        /* \"#utility.yul\":4907:4953   */\n    tag_469:\n        /* \"#utility.yul\":4833:4959   */\n      pop\n      jump\t// out\n        /* \"#utility.yul\":4965:5118   */\n    tag_365:\n        /* \"#utility.yul\":5023:5030   */\n      0x00\n        /* \"#utility.yul\":5052:5057   */\n      dup2\n        /* \"#utility.yul\":5041:5057   */\n      swap1\n      pop\n        /* \"#utility.yul\":5058:5112   */\n      tag_472\n        /* \"#utility.yul\":5106:5111   */\n      dup3\n        /* \"#utility.yul\":5058:5112   */\n      tag_364\n      jump\t// in\n    tag_472:\n        /* \"#utility.yul\":4965:5118   */\n      swap2\n      swap1\n      pop\n      jump\t// out\n        /* \"#utility.yul\":5124:5277   */\n    tag_366:\n        /* \"#utility.yul\":5193:5202   */\n      0x00\n        /* \"#utility.yul\":5226:5271   */\n      tag_474\n        /* \"#utility.yul\":5265:5270   */\n      dup3\n        /* \"#utility.yul\":5226:5271   */\n      tag_365\n      jump\t// in\n    tag_474:\n        /* \"#utility.yul\":5213:5271   */\n      swap1\n      pop\n        /* \"#utility.yul\":5124:5277   */\n      swap2\n      swap1\n      pop\n      jump\t// out\n        /* \"#utility.yul\":5283:5442   */\n    tag_367:\n        /* \"#utility.yul\":5379:5435   */\n      tag_476\n        /* \"#utility.yul\":5429:5434   */\n      dup2\n        /* \"#utility.yul\":5379:5435   */\n      tag_366\n      jump\t// in\n    tag_476:\n        /* \"#utility.yul\":5374:5377   */\n      dup3\n        /* \"#utility.yul\":5367:5436   */\n      mstore\n        /* \"#utility.yul\":5283:5442   */\n      pop\n      pop\n      jump\t// out\n        /* \"#utility.yul\":5448:5556   */\n    tag_368:\n        /* \"#utility.yul\":5525:5549   */\n      tag_478\n        /* \"#utility.yul\":5543:5548   */\n      dup2\n        /* \"#utility.yul\":5525:5549   */\n      tag_350\n      jump\t// in\n    tag_478:\n        /* \"#utility.yul\":5520:5523   */\n      dup3\n        /* \"#utility.yul\":5513:5550   */\n      mstore\n        /* \"#utility.yul\":5448:5556   */\n      pop\n      pop\n      jump\t// out\n        /* \"#utility.yul\":5662:7331   */\n    tag_369:\n        /* \"#utility.yul\":5839:5845   */\n      0x0100\n        /* \"#utility.yul\":5834:5837   */\n      dup3\n        /* \"#utility.yul\":5830:5846   */\n      add\n        /* \"#utility.yul\":5930:5934   */\n      0x00\n        /* \"#utility.yul\":5923:5928   */\n      dup3\n        /* \"#utility.yul\":5919:5935   */\n      add\n        /* \"#utility.yul\":5913:5936   */\n      mload\n        /* \"#utility.yul\":5949:6012   */\n      tag_480\n        /* \"#utility.yul\":6006:6010   */\n      0x00\n        /* \"#utility.yul\":6001:6004   */\n      dup6\n        /* \"#utility.yul\":5997:6011   */\n      add\n        /* \"#utility.yul\":5983:5995   */\n      dup3\n        /* \"#utility.yul\":5949:6012   */\n      tag_359\n      jump\t// in\n    tag_480:\n        /* \"#utility.yul\":5856:6022   */\n      pop\n        /* \"#utility.yul\":6113:6117   */\n      0x20\n        /* \"#utility.yul\":6106:6111   */\n      dup3\n        /* \"#utility.yul\":6102:6118   */\n      add\n        /* \"#utility.yul\":6096:6119   */\n      mload\n        /* \"#utility.yul\":6132:6209   */\n      tag_481\n        /* \"#utility.yul\":6203:6207   */\n      0x20\n        /* \"#utility.yul\":6198:6201   */\n      dup6\n        /* \"#utility.yul\":6194:6208   */\n      add\n        /* \"#utility.yul\":6180:6192   */\n      dup3\n        /* \"#utility.yul\":6132:6209   */\n      tag_363\n      jump\t// in\n    tag_481:\n        /* \"#utility.yul\":6032:6219   */\n      pop\n        /* \"#utility.yul\":6306:6310   */\n      0x40\n        /* \"#utility.yul\":6299:6304   */\n      dup3\n        /* \"#utility.yul\":6295:6311   */\n      add\n        /* \"#utility.yul\":6289:6312   */\n      mload\n        /* \"#utility.yul\":6325:6407   */\n      tag_482\n        /* \"#utility.yul\":6401:6405   */\n      0x40\n        /* \"#utility.yul\":6396:6399   */\n      dup6\n        /* \"#utility.yul\":6392:6406   */\n      add\n        /* \"#utility.yul\":6378:6390   */\n      dup3\n        /* \"#utility.yul\":6325:6407   */\n      tag_367\n      jump\t// in\n    tag_482:\n        /* \"#utility.yul\":6229:6417   */\n      pop\n        /* \"#utility.yul\":6504:6508   */\n      0x60\n        /* \"#utility.yul\":6497:6502   */\n      dup3\n        /* \"#utility.yul\":6493:6509   */\n      add\n        /* \"#utility.yul\":6487:6510   */\n      mload\n        /* \"#utility.yul\":6523:6586   */\n      tag_483\n        /* \"#utility.yul\":6580:6584   */\n      0x60\n        /* \"#utility.yul\":6575:6578   */\n      dup6\n        /* \"#utility.yul\":6571:6585   */\n      add\n        /* \"#utility.yul\":6557:6569   */\n      dup3\n        /* \"#utility.yul\":6523:6586   */\n      tag_368\n      jump\t// in\n    tag_483:\n        /* \"#utility.yul\":6427:6596   */\n      pop\n        /* \"#utility.yul\":6686:6690   */\n      0x80\n        /* \"#utility.yul\":6679:6684   */\n      dup3\n        /* \"#utility.yul\":6675:6691   */\n      add\n        /* \"#utility.yul\":6669:6692   */\n      mload\n        /* \"#utility.yul\":6705:6768   */\n      tag_484\n        /* \"#utility.yul\":6762:6766   */\n      0x80\n        /* \"#utility.yul\":6757:6760   */\n      dup6\n        /* \"#utility.yul\":6753:6767   */\n      add\n        /* \"#utility.yul\":6739:6751   */\n      dup3\n        /* \"#utility.yul\":6705:6768   */\n      tag_368\n      jump\t// in\n    tag_484:\n        /* \"#utility.yul\":6606:6778   */\n      pop\n        /* \"#utility.yul\":6872:6876   */\n      0xa0\n        /* \"#utility.yul\":6865:6870   */\n      dup3\n        /* \"#utility.yul\":6861:6877   */\n      add\n        /* \"#utility.yul\":6855:6878   */\n      mload\n        /* \"#utility.yul\":6891:6954   */\n      tag_485\n        /* \"#utility.yul\":6948:6952   */\n      0xa0\n        /* \"#utility.yul\":6943:6946   */\n      dup6\n        /* \"#utility.yul\":6939:6953   */\n      add\n        /* \"#utility.yul\":6925:6937   */\n      dup3\n        /* \"#utility.yul\":6891:6954   */\n      tag_368\n      jump\t// in\n    tag_485:\n        /* \"#utility.yul\":6788:6964   */\n      pop\n        /* \"#utility.yul\":7050:7054   */\n      0xc0\n        /* \"#utility.yul\":7043:7048   */\n      dup3\n        /* \"#utility.yul\":7039:7055   */\n      add\n        /* \"#utility.yul\":7033:7056   */\n      mload\n        /* \"#utility.yul\":7069:7132   */\n      tag_486\n        /* \"#utility.yul\":7126:7130   */\n      0xc0\n        /* \"#utility.yul\":7121:7124   */\n      dup6\n        /* \"#utility.yul\":7117:7131   */\n      add\n        /* \"#utility.yul\":7103:7115   */\n      dup3\n        /* \"#utility.yul\":7069:7132   */\n      tag_368\n      jump\t// in\n    tag_486:\n        /* \"#utility.yul\":6974:7142   */\n      pop\n        /* \"#utility.yul\":7232:7236   */\n      0xe0\n        /* \"#utility.yul\":7225:7230   */\n      dup3\n        /* \"#utility.yul\":7221:7237   */\n      add\n        /* \"#utility.yul\":7215:7238   */\n      mload\n        /* \"#utility.yul\":7251:7314   */\n      tag_487\n        /* \"#utility.yul\":7308:7312   */\n      0xe0\n        /* \"#utility.yul\":7303:7306   */\n      dup6\n        /* \"#utility.yul\":7299:7313   */\n      add\n        /* \"#utility.yul\":7285:7297   */\n      dup3\n        /* \"#utility.yul\":7251:7314   */\n      tag_368\n      jump\t// in\n    tag_487:\n        /* \"#utility.yul\":7152:7324   */\n      pop\n        /* \"#utility.yul\":5808:7331   */\n      pop\n        /* \"#utility.yul\":5662:7331   */\n      pop\n      pop\n      jump\t// out\n        /* \"#utility.yul\":7337:7720   */\n    tag_48:\n        /* \"#utility.yul\":7510:7514   */\n      0x00\n        /* \"#utility.yul\":7548:7551   */\n      0x0100\n        /* \"#utility.yul\":7537:7546   */\n      dup3\n        /* \"#utility.yul\":7533:7552   */\n      add\n        /* \"#utility.yul\":7525:7552   */\n      swap1\n      pop\n        /* \"#utility.yul\":7562:7713   */\n      tag_489\n        /* \"#utility.yul\":7710:7711   */\n      0x00\n        /* \"#utility.yul\":7699:7708   */\n      dup4\n        /* \"#utility.yul\":7695:7712   */\n      add\n        /* \"#utility.yul\":7686:7692   */\n      dup5\n        /* \"#utility.yul\":7562:7713   */\n      tag_369\n      jump\t// in\n    tag_489:\n        /* \"#utility.yul\":7337:7720   */\n      swap3\n      swap2\n      pop\n      pop\n      jump\t// out\n        /* \"#utility.yul\":7726:7846   */\n    tag_370:\n        /* \"#utility.yul\":7820:7821   */\n      0x03\n        /* \"#utility.yul\":7813:7818   */\n      dup2\n        /* \"#utility.yul\":7810:7822   */\n      lt\n        /* \"#utility.yul\":7800:7840   */\n      tag_491\n      jumpi\n        /* \"#utility.yul\":7836:7837   */\n      0x00\n        /* \"#utility.yul\":7833:7834   */\n      dup1\n        /* \"#utility.yul\":7826:7838   */\n      revert\n        /* \"#utility.yul\":7800:7840   */\n    tag_491:\n        /* \"#utility.yul\":7726:7846   */\n      pop\n      jump\t// out\n        /* \"#utility.yul\":7852:8033   */\n    tag_371:\n        /* \"#utility.yul\":7919:7924   */\n      0x00\n        /* \"#utility.yul\":7957:7963   */\n      dup2\n        /* \"#utility.yul\":7944:7964   */\n      calldataload\n        /* \"#utility.yul\":7935:7964   */\n      swap1\n      pop\n        /* \"#utility.yul\":7973:8027   */\n      tag_493\n        /* \"#utility.yul\":8021:8026   */\n      dup2\n        /* \"#utility.yul\":7973:8027   */\n      tag_370\n      jump\t// in\n    tag_493:\n        /* \"#utility.yul\":7852:8033   */\n      swap3\n      swap2\n      pop\n      pop\n      jump\t// out\n        /* \"#utility.yul\":8039:8732   */\n    tag_51:\n        /* \"#utility.yul\":8153:8159   */\n      0x00\n        /* \"#utility.yul\":8161:8167   */\n      dup1\n        /* \"#utility.yul\":8169:8175   */\n      0x00\n        /* \"#utility.yul\":8218:8220   */\n      0x60\n        /* \"#utility.yul\":8206:8215   */\n      dup5\n        /* \"#utility.yul\":8197:8204   */\n      dup7\n        /* \"#utility.yul\":8193:8216   */\n      sub\n        /* \"#utility.yul\":8189:8221   */\n      slt\n        /* \"#utility.yul\":8186:8305   */\n      iszero\n      tag_495\n      jumpi\n        /* \"#utility.yul\":8224:8303   */\n      tag_496\n      tag_344\n      jump\t// in\n    tag_496:\n        /* \"#utility.yul\":8186:8305   */\n    tag_495:\n        /* \"#utility.yul\":8344:8345   */\n      0x00\n        /* \"#utility.yul\":8369:8443   */\n      tag_497\n        /* \"#utility.yul\":8435:8442   */\n      dup7\n        /* \"#utility.yul\":8426:8432   */\n      dup3\n        /* \"#utility.yul\":8415:8424   */\n      dup8\n        /* \"#utility.yul\":8411:8433   */\n      add\n        /* \"#utility.yul\":8369:8443   */\n      tag_371\n      jump\t// in\n    tag_497:\n        /* \"#utility.yul\":8359:8443   */\n      swap4\n      pop\n        /* \"#utility.yul\":8315:8453   */\n      pop\n        /* \"#utility.yul\":8492:8494   */\n      0x20\n        /* \"#utility.yul\":8518:8571   */\n      tag_498\n        /* \"#utility.yul\":8563:8570   */\n      dup7\n        /* \"#utility.yul\":8554:8560   */\n      dup3\n        /* \"#utility.yul\":8543:8552   */\n      dup8\n        /* \"#utility.yul\":8539:8561   */\n      add\n        /* \"#utility.yul\":8518:8571   */\n      tag_353\n      jump\t// in\n    tag_498:\n        /* \"#utility.yul\":8508:8571   */\n      swap3\n      pop\n        /* \"#utility.yul\":8463:8581   */\n      pop\n        /* \"#utility.yul\":8620:8622   */\n      0x40\n        /* \"#utility.yul\":8646:8715   */\n      tag_499\n        /* \"#utility.yul\":8707:8714   */\n      dup7\n        /* \"#utility.yul\":8698:8704   */\n      dup3\n        /* \"#utility.yul\":8687:8696   */\n      dup8\n        /* \"#utility.yul\":8683:8705   */\n      add\n        /* \"#utility.yul\":8646:8715   */\n      tag_355\n      jump\t// in\n    tag_499:\n        /* \"#utility.yul\":8636:8715   */\n      swap2\n      pop\n        /* \"#utility.yul\":8591:8725   */\n      pop\n        /* \"#utility.yul\":8039:8732   */\n      swap3\n      pop\n      swap3\n      pop\n      swap3\n      jump\t// out\n        /* \"#utility.yul\":8738:8855   */\n    tag_372:\n        /* \"#utility.yul\":8847:8848   */\n      0x00\n        /* \"#utility.yul\":8844:8845   */\n      dup1\n        /* \"#utility.yul\":8837:8849   */\n      revert\n        /* \"#utility.yul\":8861:8978   */\n    tag_373:\n        /* \"#utility.yul\":8970:8971   */\n      0x00\n        /* \"#utility.yul\":8967:8968   */\n      dup1\n        /* \"#utility.yul\":8960:8972   */\n      revert\n        /* \"#utility.yul\":8984:9086   */\n    tag_374:\n        /* \"#utility.yul\":9025:9031   */\n      0x00\n        /* \"#utility.yul\":9076:9078   */\n      0x1f\n        /* \"#utility.yul\":9072:9079   */\n      not\n        /* \"#utility.yul\":9067:9069   */\n      0x1f\n        /* \"#utility.yul\":9060:9065   */\n      dup4\n        /* \"#utility.yul\":9056:9070   */\n      add\n        /* \"#utility.yul\":9052:9080   */\n      and\n        /* \"#utility.yul\":9042:9080   */\n      swap1\n      pop\n        /* \"#utility.yul\":8984:9086   */\n      swap2\n      swap1\n      pop\n      jump\t// out\n        /* \"#utility.yul\":9092:9272   */\n    tag_309:\n        /* \"#utility.yul\":9140:9217   */\n      0x4e487b7100000000000000000000000000000000000000000000000000000000\n        /* \"#utility.yul\":9137:9138   */\n      0x00\n        /* \"#utility.yul\":9130:9218   */\n      mstore\n        /* \"#utility.yul\":9237:9241   */\n      0x41\n        /* \"#utility.yul\":9234:9235   */\n      0x04\n        /* \"#utility.yul\":9227:9242   */\n      mstore\n        /* \"#utility.yul\":9261:9265   */\n      0x24\n        /* \"#utility.yul\":9258:9259   */\n      0x00\n        /* \"#utility.yul\":9251:9266   */\n      revert\n        /* \"#utility.yul\":9278:9559   */\n    tag_375:\n        /* \"#utility.yul\":9361:9388   */\n      tag_505\n        /* \"#utility.yul\":9383:9387   */\n      dup3\n        /* \"#utility.yul\":9361:9388   */\n      tag_374\n      jump\t// in\n    tag_505:\n        /* \"#utility.yul\":9353:9359   */\n      dup2\n        /* \"#utility.yul\":9349:9389   */\n      add\n        /* \"#utility.yul\":9491:9497   */\n      dup2\n        /* \"#utility.yul\":9479:9489   */\n      dup2\n        /* \"#utility.yul\":9476:9498   */\n      lt\n        /* \"#utility.yul\":9455:9473   */\n      0xffffffffffffffff\n        /* \"#utility.yul\":9443:9453   */\n      dup3\n        /* \"#utility.yul\":9440:9474   */\n      gt\n        /* \"#utility.yul\":9437:9499   */\n      or\n        /* \"#utility.yul\":9434:9522   */\n      iszero\n      tag_506\n      jumpi\n        /* \"#utility.yul\":9502:9520   */\n      tag_507\n      tag_309\n      jump\t// in\n    tag_507:\n        /* \"#utility.yul\":9434:9522   */\n    tag_506:\n        /* \"#utility.yul\":9542:9552   */\n      dup1\n        /* \"#utility.yul\":9538:9540   */\n      0x40\n        /* \"#utility.yul\":9531:9553   */\n      mstore\n        /* \"#utility.yul\":9321:9559   */\n      pop\n        /* \"#utility.yul\":9278:9559   */\n      pop\n      pop\n      jump\t// out\n        /* \"#utility.yul\":9565:9694   */\n    tag_376:\n        /* \"#utility.yul\":9599:9605   */\n      0x00\n        /* \"#utility.yul\":9626:9646   */\n      tag_509\n      tag_343\n      jump\t// in\n    tag_509:\n        /* \"#utility.yul\":9616:9646   */\n      swap1\n      pop\n        /* \"#utility.yul\":9655:9688   */\n      tag_510\n        /* \"#utility.yul\":9683:9687   */\n      dup3\n        /* \"#utility.yul\":9675:9681   */\n      dup3\n        /* \"#utility.yul\":9655:9688   */\n      tag_375\n      jump\t// in\n    tag_510:\n        /* \"#utility.yul\":9565:9694   */\n      swap2\n      swap1\n      pop\n      jump\t// out\n        /* \"#utility.yul\":9700:10008   */\n    tag_377:\n        /* \"#utility.yul\":9762:9766   */\n      0x00\n        /* \"#utility.yul\":9852:9870   */\n      0xffffffffffffffff\n        /* \"#utility.yul\":9844:9850   */\n      dup3\n        /* \"#utility.yul\":9841:9871   */\n      gt\n        /* \"#utility.yul\":9838:9894   */\n      iszero\n      tag_512\n      jumpi\n        /* \"#utility.yul\":9874:9892   */\n      tag_513\n      tag_309\n      jump\t// in\n    tag_513:\n        /* \"#utility.yul\":9838:9894   */\n    tag_512:\n        /* \"#utility.yul\":9912:9941   */\n      tag_514\n        /* \"#utility.yul\":9934:9940   */\n      dup3\n        /* \"#utility.yul\":9912:9941   */\n      tag_374\n      jump\t// in\n    tag_514:\n        /* \"#utility.yul\":9904:9941   */\n      swap1\n      pop\n        /* \"#utility.yul\":9996:10000   */\n      0x20\n        /* \"#utility.yul\":9990:9994   */\n      dup2\n        /* \"#utility.yul\":9986:10001   */\n      add\n        /* \"#utility.yul\":9978:10001   */\n      swap1\n      pop\n        /* \"#utility.yul\":9700:10008   */\n      swap2\n      swap1\n      pop\n      jump\t// out\n        /* \"#utility.yul\":10014:10160   */\n    tag_378:\n        /* \"#utility.yul\":10111:10117   */\n      dup3\n        /* \"#utility.yul\":10106:10109   */\n      dup2\n        /* \"#utility.yul\":10101:10104   */\n      dup4\n        /* \"#utility.yul\":10088:10118   */\n      calldatacopy\n        /* \"#utility.yul\":10152:10153   */\n      0x00\n        /* \"#utility.yul\":10143:10149   */\n      dup4\n        /* \"#utility.yul\":10138:10141   */\n      dup4\n        /* \"#utility.yul\":10134:10150   */\n      add\n        /* \"#utility.yul\":10127:10154   */\n      mstore\n        /* \"#utility.yul\":10014:10160   */\n      pop\n      pop\n      pop\n      jump\t// out\n        /* \"#utility.yul\":10166:10591   */\n    tag_379:\n        /* \"#utility.yul\":10244:10249   */\n      0x00\n        /* \"#utility.yul\":10269:10335   */\n      tag_517\n        /* \"#utility.yul\":10285:10334   */\n      tag_518\n        /* \"#utility.yul\":10327:10333   */\n      dup5\n        /* \"#utility.yul\":10285:10334   */\n      tag_377\n      jump\t// in\n    tag_518:\n        /* \"#utility.yul\":10269:10335   */\n      tag_376\n      jump\t// in\n    tag_517:\n        /* \"#utility.yul\":10260:10335   */\n      swap1\n      pop\n        /* \"#utility.yul\":10358:10364   */\n      dup3\n        /* \"#utility.yul\":10351:10356   */\n      dup2\n        /* \"#utility.yul\":10344:10365   */\n      mstore\n        /* \"#utility.yul\":10396:10400   */\n      0x20\n        /* \"#utility.yul\":10389:10394   */\n      dup2\n        /* \"#utility.yul\":10385:10401   */\n      add\n        /* \"#utility.yul\":10434:10437   */\n      dup5\n        /* \"#utility.yul\":10425:10431   */\n      dup5\n        /* \"#utility.yul\":10420:10423   */\n      dup5\n        /* \"#utility.yul\":10416:10432   */\n      add\n        /* \"#utility.yul\":10413:10438   */\n      gt\n        /* \"#utility.yul\":10410:10522   */\n      iszero\n      tag_519\n      jumpi\n        /* \"#utility.yul\":10441:10520   */\n      tag_520\n      tag_373\n      jump\t// in\n    tag_520:\n        /* \"#utility.yul\":10410:10522   */\n    tag_519:\n        /* \"#utility.yul\":10531:10585   */\n      tag_521\n        /* \"#utility.yul\":10578:10584   */\n      dup5\n        /* \"#utility.yul\":10573:10576   */\n      dup3\n        /* \"#utility.yul\":10568:10571   */\n      dup6\n        /* \"#utility.yul\":10531:10585   */\n      tag_378\n      jump\t// in\n    tag_521:\n        /* \"#utility.yul\":10250:10591   */\n      pop\n        /* \"#utility.yul\":10166:10591   */\n      swap4\n      swap3\n      pop\n      pop\n      pop\n      jump\t// out\n        /* \"#utility.yul\":10611:10951   */\n    tag_380:\n        /* \"#utility.yul\":10667:10672   */\n      0x00\n        /* \"#utility.yul\":10716:10719   */\n      dup3\n        /* \"#utility.yul\":10709:10713   */\n      0x1f\n        /* \"#utility.yul\":10701:10707   */\n      dup4\n        /* \"#utility.yul\":10697:10714   */\n      add\n        /* \"#utility.yul\":10693:10720   */\n      slt\n        /* \"#utility.yul\":10683:10805   */\n      tag_523\n      jumpi\n        /* \"#utility.yul\":10724:10803   */\n      tag_524\n      tag_372\n      jump\t// in\n    tag_524:\n        /* \"#utility.yul\":10683:10805   */\n    tag_523:\n        /* \"#utility.yul\":10841:10847   */\n      dup2\n        /* \"#utility.yul\":10828:10848   */\n      calldataload\n        /* \"#utility.yul\":10866:10945   */\n      tag_525\n        /* \"#utility.yul\":10941:10944   */\n      dup5\n        /* \"#utility.yul\":10933:10939   */\n      dup3\n        /* \"#utility.yul\":10926:10930   */\n      0x20\n        /* \"#utility.yul\":10918:10924   */\n      dup7\n        /* \"#utility.yul\":10914:10931   */\n      add\n        /* \"#utility.yul\":10866:10945   */\n      tag_379\n      jump\t// in\n    tag_525:\n        /* \"#utility.yul\":10857:10945   */\n      swap2\n      pop\n        /* \"#utility.yul\":10673:10951   */\n      pop\n        /* \"#utility.yul\":10611:10951   */\n      swap3\n      swap2\n      pop\n      pop\n      jump\t// out\n        /* \"#utility.yul\":10957:11466   */\n    tag_69:\n        /* \"#utility.yul\":11026:11032   */\n      0x00\n        /* \"#utility.yul\":11075:11077   */\n      0x20\n        /* \"#utility.yul\":11063:11072   */\n      dup3\n        /* \"#utility.yul\":11054:11061   */\n      dup5\n        /* \"#utility.yul\":11050:11073   */\n      sub\n        /* \"#utility.yul\":11046:11078   */\n      slt\n        /* \"#utility.yul\":11043:11162   */\n      iszero\n      tag_527\n      jumpi\n        /* \"#utility.yul\":11081:11160   */\n      tag_528\n      tag_344\n      jump\t// in\n    tag_528:\n        /* \"#utility.yul\":11043:11162   */\n    tag_527:\n        /* \"#utility.yul\":11229:11230   */\n      0x00\n        /* \"#utility.yul\":11218:11227   */\n      dup3\n        /* \"#utility.yul\":11214:11231   */\n      add\n        /* \"#utility.yul\":11201:11232   */\n      calldataload\n        /* \"#utility.yul\":11259:11277   */\n      0xffffffffffffffff\n        /* \"#utility.yul\":11251:11257   */\n      dup2\n        /* \"#utility.yul\":11248:11278   */\n      gt\n        /* \"#utility.yul\":11245:11362   */\n      iszero\n      tag_529\n      jumpi\n        /* \"#utility.yul\":11281:11360   */\n      tag_530\n      tag_345\n      jump\t// in\n    tag_530:\n        /* \"#utility.yul\":11245:11362   */\n    tag_529:\n        /* \"#utility.yul\":11386:11449   */\n      tag_531\n        /* \"#utility.yul\":11441:11448   */\n      dup5\n        /* \"#utility.yul\":11432:11438   */\n      dup3\n        /* \"#utility.yul\":11421:11430   */\n      dup6\n        /* \"#utility.yul\":11417:11439   */\n      add\n        /* \"#utility.yul\":11386:11449   */\n      tag_380\n      jump\t// in\n    tag_531:\n        /* \"#utility.yul\":11376:11449   */\n      swap2\n      pop\n        /* \"#utility.yul\":11172:11459   */\n      pop\n        /* \"#utility.yul\":10957:11466   */\n      swap3\n      swap2\n      pop\n      pop\n      jump\t// out\n        /* \"#utility.yul\":11472:11988   */\n    tag_75:\n        /* \"#utility.yul\":11561:11567   */\n      0x00\n        /* \"#utility.yul\":11569:11575   */\n      dup1\n        /* \"#utility.yul\":11618:11620   */\n      0x40\n        /* \"#utility.yul\":11606:11615   */\n      dup4\n        /* \"#utility.yul\":11597:11604   */\n      dup6\n        /* \"#utility.yul\":11593:11616   */\n      sub\n        /* \"#utility.yul\":11589:11621   */\n      slt\n        /* \"#utility.yul\":11586:11705   */\n      iszero\n      tag_533\n      jumpi\n        /* \"#utility.yul\":11624:11703   */\n      tag_534\n      tag_344\n      jump\t// in\n    tag_534:\n        /* \"#utility.yul\":11586:11705   */\n    tag_533:\n        /* \"#utility.yul\":11744:11745   */\n      0x00\n        /* \"#utility.yul\":11769:11843   */\n      tag_535\n        /* \"#utility.yul\":11835:11842   */\n      dup6\n        /* \"#utility.yul\":11826:11832   */\n      dup3\n        /* \"#utility.yul\":11815:11824   */\n      dup7\n        /* \"#utility.yul\":11811:11833   */\n      add\n        /* \"#utility.yul\":11769:11843   */\n      tag_371\n      jump\t// in\n    tag_535:\n        /* \"#utility.yul\":11759:11843   */\n      swap3\n      pop\n        /* \"#utility.yul\":11715:11853   */\n      pop\n        /* \"#utility.yul\":11892:11894   */\n      0x20\n        /* \"#utility.yul\":11918:11971   */\n      tag_536\n        /* \"#utility.yul\":11963:11970   */\n      dup6\n        /* \"#utility.yul\":11954:11960   */\n      dup3\n        /* \"#utility.yul\":11943:11952   */\n      dup7\n        /* \"#utility.yul\":11939:11961   */\n      add\n        /* \"#utility.yul\":11918:11971   */\n      tag_353\n      jump\t// in\n    tag_536:\n        /* \"#utility.yul\":11908:11971   */\n      swap2\n      pop\n        /* \"#utility.yul\":11863:11981   */\n      pop\n        /* \"#utility.yul\":11472:11988   */\n      swap3\n      pop\n      swap3\n      swap1\n      pop\n      jump\t// out\n        /* \"#utility.yul\":11994:12093   */\n    tag_381:\n        /* \"#utility.yul\":12046:12052   */\n      0x00\n        /* \"#utility.yul\":12080:12085   */\n      dup2\n        /* \"#utility.yul\":12074:12086   */\n      mload\n        /* \"#utility.yul\":12064:12086   */\n      swap1\n      pop\n        /* \"#utility.yul\":11994:12093   */\n      swap2\n      swap1\n      pop\n      jump\t// out\n        /* \"#utility.yul\":12099:12247   */\n    tag_382:\n        /* \"#utility.yul\":12201:12212   */\n      0x00\n        /* \"#utility.yul\":12238:12241   */\n      dup2\n        /* \"#utility.yul\":12223:12241   */\n      swap1\n      pop\n        /* \"#utility.yul\":12099:12247   */\n      swap3\n      swap2\n      pop\n      pop\n      jump\t// out\n        /* \"#utility.yul\":12253:12499   */\n    tag_383:\n        /* \"#utility.yul\":12334:12335   */\n      0x00\n        /* \"#utility.yul\":12344:12457   */\n    tag_540:\n        /* \"#utility.yul\":12358:12364   */\n      dup4\n        /* \"#utility.yul\":12355:12356   */\n      dup2\n        /* \"#utility.yul\":12352:12365   */\n      lt\n        /* \"#utility.yul\":12344:12457   */\n      iszero\n      tag_542\n      jumpi\n        /* \"#utility.yul\":12443:12444   */\n      dup1\n        /* \"#utility.yul\":12438:12441   */\n      dup3\n        /* \"#utility.yul\":12434:12445   */\n      add\n        /* \"#utility.yul\":12428:12446   */\n      mload\n        /* \"#utility.yul\":12424:12425   */\n      dup2\n        /* \"#utility.yul\":12419:12422   */\n      dup5\n        /* \"#utility.yul\":12415:12426   */\n      add\n        /* \"#utility.yul\":12408:12447   */\n      mstore\n        /* \"#utility.yul\":12380:12382   */\n      0x20\n        /* \"#utility.yul\":12377:12378   */\n      dup2\n        /* \"#utility.yul\":12373:12383   */\n      add\n        /* \"#utility.yul\":12368:12383   */\n      swap1\n      pop\n        /* \"#utility.yul\":12344:12457   */\n      jump(tag_540)\n    tag_542:\n        /* \"#utility.yul\":12491:12492   */\n      0x00\n        /* \"#utility.yul\":12482:12488   */\n      dup5\n        /* \"#utility.yul\":12477:12480   */\n      dup5\n        /* \"#utility.yul\":12473:12489   */\n      add\n        /* \"#utility.yul\":12466:12493   */\n      mstore\n        /* \"#utility.yul\":12315:12499   */\n      pop\n        /* \"#utility.yul\":12253:12499   */\n      pop\n      pop\n      pop\n      jump\t// out\n        /* \"#utility.yul\":12505:12895   */\n    tag_384:\n        /* \"#utility.yul\":12611:12614   */\n      0x00\n        /* \"#utility.yul\":12639:12678   */\n      tag_544\n        /* \"#utility.yul\":12672:12677   */\n      dup3\n        /* \"#utility.yul\":12639:12678   */\n      tag_381\n      jump\t// in\n    tag_544:\n        /* \"#utility.yul\":12694:12783   */\n      tag_545\n        /* \"#utility.yul\":12776:12782   */\n      dup2\n        /* \"#utility.yul\":12771:12774   */\n      dup6\n        /* \"#utility.yul\":12694:12783   */\n      tag_382\n      jump\t// in\n    tag_545:\n        /* \"#utility.yul\":12687:12783   */\n      swap4\n      pop\n        /* \"#utility.yul\":12792:12857   */\n      tag_546\n        /* \"#utility.yul\":12850:12856   */\n      dup2\n        /* \"#utility.yul\":12845:12848   */\n      dup6\n        /* \"#utility.yul\":12838:12842   */\n      0x20\n        /* \"#utility.yul\":12831:12836   */\n      dup7\n        /* \"#utility.yul\":12827:12843   */\n      add\n        /* \"#utility.yul\":12792:12857   */\n      tag_383\n      jump\t// in\n    tag_546:\n        /* \"#utility.yul\":12882:12888   */\n      dup1\n        /* \"#utility.yul\":12877:12880   */\n      dup5\n        /* \"#utility.yul\":12873:12889   */\n      add\n        /* \"#utility.yul\":12866:12889   */\n      swap2\n      pop\n        /* \"#utility.yul\":12615:12895   */\n      pop\n        /* \"#utility.yul\":12505:12895   */\n      swap3\n      swap2\n      pop\n      pop\n      jump\t// out\n        /* \"#utility.yul\":12901:13084   */\n    tag_385:\n        /* \"#utility.yul\":13069:13077   */\n      0x5f4e4f5254480000000000000000000000000000000000000000000000000000\n        /* \"#utility.yul\":13064:13067   */\n      dup2\n        /* \"#utility.yul\":13057:13078   */\n      mstore\n        /* \"#utility.yul\":12901:13084   */\n      pop\n      jump\t// out\n        /* \"#utility.yul\":13090:13629   */\n    tag_88:\n        /* \"#utility.yul\":13312:13315   */\n      0x00\n        /* \"#utility.yul\":13334:13429   */\n      tag_549\n        /* \"#utility.yul\":13425:13428   */\n      dup3\n        /* \"#utility.yul\":13416:13422   */\n      dup5\n        /* \"#utility.yul\":13334:13429   */\n      tag_384\n      jump\t// in\n    tag_549:\n        /* \"#utility.yul\":13327:13429   */\n      swap2\n      pop\n        /* \"#utility.yul\":13439:13576   */\n      tag_550\n        /* \"#utility.yul\":13572:13575   */\n      dup3\n        /* \"#utility.yul\":13439:13576   */\n      tag_385\n      jump\t// in\n    tag_550:\n        /* \"#utility.yul\":13601:13602   */\n      0x06\n        /* \"#utility.yul\":13596:13599   */\n      dup3\n        /* \"#utility.yul\":13592:13603   */\n      add\n        /* \"#utility.yul\":13585:13603   */\n      swap2\n      pop\n        /* \"#utility.yul\":13620:13623   */\n      dup2\n        /* \"#utility.yul\":13613:13623   */\n      swap1\n      pop\n        /* \"#utility.yul\":13090:13629   */\n      swap3\n      swap2\n      pop\n      pop\n      jump\t// out\n        /* \"#utility.yul\":13635:13818   */\n    tag_386:\n        /* \"#utility.yul\":13803:13811   */\n      0x5f534f5554480000000000000000000000000000000000000000000000000000\n        /* \"#utility.yul\":13798:13801   */\n      dup2\n        /* \"#utility.yul\":13791:13812   */\n      mstore\n        /* \"#utility.yul\":13635:13818   */\n      pop\n      jump\t// out\n        /* \"#utility.yul\":13824:14363   */\n    tag_92:\n        /* \"#utility.yul\":14046:14049   */\n      0x00\n        /* \"#utility.yul\":14068:14163   */\n      tag_553\n        /* \"#utility.yul\":14159:14162   */\n      dup3\n        /* \"#utility.yul\":14150:14156   */\n      dup5\n        /* \"#utility.yul\":14068:14163   */\n      tag_384\n      jump\t// in\n    tag_553:\n        /* \"#utility.yul\":14061:14163   */\n      swap2\n      pop\n        /* \"#utility.yul\":14173:14310   */\n      tag_554\n        /* \"#utility.yul\":14306:14309   */\n      dup3\n        /* \"#utility.yul\":14173:14310   */\n      tag_386\n      jump\t// in\n    tag_554:\n        /* \"#utility.yul\":14335:14336   */\n      0x06\n        /* \"#utility.yul\":14330:14333   */\n      dup3\n        /* \"#utility.yul\":14326:14337   */\n      add\n        /* \"#utility.yul\":14319:14337   */\n      swap2\n      pop\n        /* \"#utility.yul\":14354:14357   */\n      dup2\n        /* \"#utility.yul\":14347:14357   */\n      swap1\n      pop\n        /* \"#utility.yul\":13824:14363   */\n      swap3\n      swap2\n      pop\n      pop\n      jump\t// out\n        /* \"#utility.yul\":14369:14644   */\n    tag_94:\n        /* \"#utility.yul\":14501:14504   */\n      0x00\n        /* \"#utility.yul\":14523:14618   */\n      tag_556\n        /* \"#utility.yul\":14614:14617   */\n      dup3\n        /* \"#utility.yul\":14605:14611   */\n      dup5\n        /* \"#utility.yul\":14523:14618   */\n      tag_384\n      jump\t// in\n    tag_556:\n        /* \"#utility.yul\":14516:14618   */\n      swap2\n      pop\n        /* \"#utility.yul\":14635:14638   */\n      dup2\n        /* \"#utility.yul\":14628:14638   */\n      swap1\n      pop\n        /* \"#utility.yul\":14369:14644   */\n      swap3\n      swap2\n      pop\n      pop\n      jump\t// out\n        /* \"#utility.yul\":14650:14819   */\n    tag_387:\n        /* \"#utility.yul\":14734:14745   */\n      0x00\n        /* \"#utility.yul\":14768:14774   */\n      dup3\n        /* \"#utility.yul\":14763:14766   */\n      dup3\n        /* \"#utility.yul\":14756:14775   */\n      mstore\n        /* \"#utility.yul\":14808:14812   */\n      0x20\n        /* \"#utility.yul\":14803:14806   */\n      dup3\n        /* \"#utility.yul\":14799:14813   */\n      add\n        /* \"#utility.yul\":14784:14813   */\n      swap1\n      pop\n        /* \"#utility.yul\":14650:14819   */\n      swap3\n      swap2\n      pop\n      pop\n      jump\t// out\n        /* \"#utility.yul\":14825:15001   */\n    tag_388:\n        /* \"#utility.yul\":14965:14993   */\n      0x54686520636c69656e74206973206e6f7420696e73757265642e000000000000\n        /* \"#utility.yul\":14961:14962   */\n      0x00\n        /* \"#utility.yul\":14953:14959   */\n      dup3\n        /* \"#utility.yul\":14949:14963   */\n      add\n        /* \"#utility.yul\":14942:14994   */\n      mstore\n        /* \"#utility.yul\":14825:15001   */\n      pop\n      jump\t// out\n        /* \"#utility.yul\":15007:15373   */\n    tag_389:\n        /* \"#utility.yul\":15149:15152   */\n      0x00\n        /* \"#utility.yul\":15170:15237   */\n      tag_560\n        /* \"#utility.yul\":15234:15236   */\n      0x1a\n        /* \"#utility.yul\":15229:15232   */\n      dup4\n        /* \"#utility.yul\":15170:15237   */\n      tag_387\n      jump\t// in\n    tag_560:\n        /* \"#utility.yul\":15163:15237   */\n      swap2\n      pop\n        /* \"#utility.yul\":15246:15339   */\n      tag_561\n        /* \"#utility.yul\":15335:15338   */\n      dup3\n        /* \"#utility.yul\":15246:15339   */\n      tag_388\n      jump\t// in\n    tag_561:\n        /* \"#utility.yul\":15364:15366   */\n      0x20\n        /* \"#utility.yul\":15359:15362   */\n      dup3\n        /* \"#utility.yul\":15355:15367   */\n      add\n        /* \"#utility.yul\":15348:15367   */\n      swap1\n      pop\n        /* \"#utility.yul\":15007:15373   */\n      swap2\n      swap1\n      pop\n      jump\t// out\n        /* \"#utility.yul\":15379:15798   */\n    tag_99:\n        /* \"#utility.yul\":15545:15549   */\n      0x00\n        /* \"#utility.yul\":15583:15585   */\n      0x20\n        /* \"#utility.yul\":15572:15581   */\n      dup3\n        /* \"#utility.yul\":15568:15586   */\n      add\n        /* \"#utility.yul\":15560:15586   */\n      swap1\n      pop\n        /* \"#utility.yul\":15632:15641   */\n      dup2\n        /* \"#utility.yul\":15626:15630   */\n      dup2\n        /* \"#utility.yul\":15622:15642   */\n      sub\n        /* \"#utility.yul\":15618:15619   */\n      0x00\n        /* \"#utility.yul\":15607:15616   */\n      dup4\n        /* \"#utility.yul\":15603:15620   */\n      add\n        /* \"#utility.yul\":15596:15643   */\n      mstore\n        /* \"#utility.yul\":15660:15791   */\n      tag_563\n        /* \"#utility.yul\":15786:15790   */\n      dup2\n        /* \"#utility.yul\":15660:15791   */\n      tag_389\n      jump\t// in\n    tag_563:\n        /* \"#utility.yul\":15652:15791   */\n      swap1\n      pop\n        /* \"#utility.yul\":15379:15798   */\n      swap2\n      swap1\n      pop\n      jump\t// out\n        /* \"#utility.yul\":15804:16036   */\n    tag_390:\n        /* \"#utility.yul\":15944:15978   */\n      0x596f752063616e6e6f742066696c65206120636c61696d20666f722074686520\n        /* \"#utility.yul\":15940:15941   */\n      0x00\n        /* \"#utility.yul\":15932:15938   */\n      dup3\n        /* \"#utility.yul\":15928:15942   */\n      add\n        /* \"#utility.yul\":15921:15979   */\n      mstore\n        /* \"#utility.yul\":16013:16028   */\n      0x6465736972656420796561722e00000000000000000000000000000000000000\n        /* \"#utility.yul\":16008:16010   */\n      0x20\n        /* \"#utility.yul\":16000:16006   */\n      dup3\n        /* \"#utility.yul\":15996:16011   */\n      add\n        /* \"#utility.yul\":15989:16029   */\n      mstore\n        /* \"#utility.yul\":15804:16036   */\n      pop\n      jump\t// out\n        /* \"#utility.yul\":16042:16408   */\n    tag_391:\n        /* \"#utility.yul\":16184:16187   */\n      0x00\n        /* \"#utility.yul\":16205:16272   */\n      tag_566\n        /* \"#utility.yul\":16269:16271   */\n      0x2d\n        /* \"#utility.yul\":16264:16267   */\n      dup4\n        /* \"#utility.yul\":16205:16272   */\n      tag_387\n      jump\t// in\n    tag_566:\n        /* \"#utility.yul\":16198:16272   */\n      swap2\n      pop\n        /* \"#utility.yul\":16281:16374   */\n      tag_567\n        /* \"#utility.yul\":16370:16373   */\n      dup3\n        /* \"#utility.yul\":16281:16374   */\n      tag_390\n      jump\t// in\n    tag_567:\n        /* \"#utility.yul\":16399:16401   */\n      0x40\n        /* \"#utility.yul\":16394:16397   */\n      dup3\n        /* \"#utility.yul\":16390:16402   */\n      add\n        /* \"#utility.yul\":16383:16402   */\n      swap1\n      pop\n        /* \"#utility.yul\":16042:16408   */\n      swap2\n      swap1\n      pop\n      jump\t// out\n        /* \"#utility.yul\":16414:16833   */\n    tag_103:\n        /* \"#utility.yul\":16580:16584   */\n      0x00\n        /* \"#utility.yul\":16618:16620   */\n      0x20\n        /* \"#utility.yul\":16607:16616   */\n      dup3\n        /* \"#utility.yul\":16603:16621   */\n      add\n        /* \"#utility.yul\":16595:16621   */\n      swap1\n      pop\n        /* \"#utility.yul\":16667:16676   */\n      dup2\n        /* \"#utility.yul\":16661:16665   */\n      dup2\n        /* \"#utility.yul\":16657:16677   */\n      sub\n        /* \"#utility.yul\":16653:16654   */\n      0x00\n        /* \"#utility.yul\":16642:16651   */\n      dup4\n        /* \"#utility.yul\":16638:16655   */\n      add\n        /* \"#utility.yul\":16631:16678   */\n      mstore\n        /* \"#utility.yul\":16695:16826   */\n      tag_569\n        /* \"#utility.yul\":16821:16825   */\n      dup2\n        /* \"#utility.yul\":16695:16826   */\n      tag_391\n      jump\t// in\n    tag_569:\n        /* \"#utility.yul\":16687:16826   */\n      swap1\n      pop\n        /* \"#utility.yul\":16414:16833   */\n      swap2\n      swap1\n      pop\n      jump\t// out\n        /* \"#utility.yul\":16839:17067   */\n    tag_392:\n        /* \"#utility.yul\":16979:17013   */\n      0x5468657265206973206e6f207265636f726420666f7220746865207265717569\n        /* \"#utility.yul\":16975:16976   */\n      0x00\n        /* \"#utility.yul\":16967:16973   */\n      dup3\n        /* \"#utility.yul\":16963:16977   */\n      add\n        /* \"#utility.yul\":16956:17014   */\n      mstore\n        /* \"#utility.yul\":17048:17059   */\n      0x72656420796561722e0000000000000000000000000000000000000000000000\n        /* \"#utility.yul\":17043:17045   */\n      0x20\n        /* \"#utility.yul\":17035:17041   */\n      dup3\n        /* \"#utility.yul\":17031:17046   */\n      add\n        /* \"#utility.yul\":17024:17060   */\n      mstore\n        /* \"#utility.yul\":16839:17067   */\n      pop\n      jump\t// out\n        /* \"#utility.yul\":17073:17439   */\n    tag_393:\n        /* \"#utility.yul\":17215:17218   */\n      0x00\n        /* \"#utility.yul\":17236:17303   */\n      tag_572\n        /* \"#utility.yul\":17300:17302   */\n      0x29\n        /* \"#utility.yul\":17295:17298   */\n      dup4\n        /* \"#utility.yul\":17236:17303   */\n      tag_387\n      jump\t// in\n    tag_572:\n        /* \"#utility.yul\":17229:17303   */\n      swap2\n      pop\n        /* \"#utility.yul\":17312:17405   */\n      tag_573\n        /* \"#utility.yul\":17401:17404   */\n      dup3\n        /* \"#utility.yul\":17312:17405   */\n      tag_392\n      jump\t// in\n    tag_573:\n        /* \"#utility.yul\":17430:17432   */\n      0x40\n        /* \"#utility.yul\":17425:17428   */\n      dup3\n        /* \"#utility.yul\":17421:17433   */\n      add\n        /* \"#utility.yul\":17414:17433   */\n      swap1\n      pop\n        /* \"#utility.yul\":17073:17439   */\n      swap2\n      swap1\n      pop\n      jump\t// out\n        /* \"#utility.yul\":17445:17864   */\n    tag_118:\n        /* \"#utility.yul\":17611:17615   */\n      0x00\n        /* \"#utility.yul\":17649:17651   */\n      0x20\n        /* \"#utility.yul\":17638:17647   */\n      dup3\n        /* \"#utility.yul\":17634:17652   */\n      add\n        /* \"#utility.yul\":17626:17652   */\n      swap1\n      pop\n        /* \"#utility.yul\":17698:17707   */\n      dup2\n        /* \"#utility.yul\":17692:17696   */\n      dup2\n        /* \"#utility.yul\":17688:17708   */\n      sub\n        /* \"#utility.yul\":17684:17685   */\n      0x00\n        /* \"#utility.yul\":17673:17682   */\n      dup4\n        /* \"#utility.yul\":17669:17686   */\n      add\n        /* \"#utility.yul\":17662:17709   */\n      mstore\n        /* \"#utility.yul\":17726:17857   */\n      tag_575\n        /* \"#utility.yul\":17852:17856   */\n      dup2\n        /* \"#utility.yul\":17726:17857   */\n      tag_393\n      jump\t// in\n    tag_575:\n        /* \"#utility.yul\":17718:17857   */\n      swap1\n      pop\n        /* \"#utility.yul\":17445:17864   */\n      swap2\n      swap1\n      pop\n      jump\t// out\n        /* \"#utility.yul\":17870:18050   */\n    tag_394:\n        /* \"#utility.yul\":17918:17995   */\n      0x4e487b7100000000000000000000000000000000000000000000000000000000\n        /* \"#utility.yul\":17915:17916   */\n      0x00\n        /* \"#utility.yul\":17908:17996   */\n      mstore\n        /* \"#utility.yul\":18015:18019   */\n      0x11\n        /* \"#utility.yul\":18012:18013   */\n      0x04\n        /* \"#utility.yul\":18005:18020   */\n      mstore\n        /* \"#utility.yul\":18039:18043   */\n      0x24\n        /* \"#utility.yul\":18036:18037   */\n      0x00\n        /* \"#utility.yul\":18029:18044   */\n      revert\n        /* \"#utility.yul\":18056:18247   */\n    tag_127:\n        /* \"#utility.yul\":18096:18099   */\n      0x00\n        /* \"#utility.yul\":18115:18135   */\n      tag_578\n        /* \"#utility.yul\":18133:18134   */\n      dup3\n        /* \"#utility.yul\":18115:18135   */\n      tag_350\n      jump\t// in\n    tag_578:\n        /* \"#utility.yul\":18110:18135   */\n      swap2\n      pop\n        /* \"#utility.yul\":18149:18169   */\n      tag_579\n        /* \"#utility.yul\":18167:18168   */\n      dup4\n        /* \"#utility.yul\":18149:18169   */\n      tag_350\n      jump\t// in\n    tag_579:\n        /* \"#utility.yul\":18144:18169   */\n      swap3\n      pop\n        /* \"#utility.yul\":18192:18193   */\n      dup3\n        /* \"#utility.yul\":18189:18190   */\n      dup3\n        /* \"#utility.yul\":18185:18194   */\n      add\n        /* \"#utility.yul\":18178:18194   */\n      swap1\n      pop\n        /* \"#utility.yul\":18213:18216   */\n      dup1\n        /* \"#utility.yul\":18210:18211   */\n      dup3\n        /* \"#utility.yul\":18207:18217   */\n      gt\n        /* \"#utility.yul\":18204:18240   */\n      iszero\n      tag_580\n      jumpi\n        /* \"#utility.yul\":18220:18238   */\n      tag_581\n      tag_394\n      jump\t// in\n    tag_581:\n        /* \"#utility.yul\":18204:18240   */\n    tag_580:\n        /* \"#utility.yul\":18056:18247   */\n      swap3\n      swap2\n      pop\n      pop\n      jump\t// out\n        /* \"#utility.yul\":18253:18500   */\n    tag_395:\n        /* \"#utility.yul\":18393:18427   */\n      0x4f6e6c792074686520636f6e7472616374206f776e657220697320616c6c6f77\n        /* \"#utility.yul\":18389:18390   */\n      0x00\n        /* \"#utility.yul\":18381:18387   */\n      dup3\n        /* \"#utility.yul\":18377:18391   */\n      add\n        /* \"#utility.yul\":18370:18428   */\n      mstore\n        /* \"#utility.yul\":18462:18492   */\n      0x656420746f20646f20746865206465736972656420616374696f6e2e00000000\n        /* \"#utility.yul\":18457:18459   */\n      0x20\n        /* \"#utility.yul\":18449:18455   */\n      dup3\n        /* \"#utility.yul\":18445:18460   */\n      add\n        /* \"#utility.yul\":18438:18493   */\n      mstore\n        /* \"#utility.yul\":18253:18500   */\n      pop\n      jump\t// out\n        /* \"#utility.yul\":18506:18872   */\n    tag_396:\n        /* \"#utility.yul\":18648:18651   */\n      0x00\n        /* \"#utility.yul\":18669:18736   */\n      tag_584\n        /* \"#utility.yul\":18733:18735   */\n      0x3c\n        /* \"#utility.yul\":18728:18731   */\n      dup4\n        /* \"#utility.yul\":18669:18736   */\n      tag_387\n      jump\t// in\n    tag_584:\n        /* \"#utility.yul\":18662:18736   */\n      swap2\n      pop\n        /* \"#utility.yul\":18745:18838   */\n      tag_585\n        /* \"#utility.yul\":18834:18837   */\n      dup3\n        /* \"#utility.yul\":18745:18838   */\n      tag_395\n      jump\t// in\n    tag_585:\n        /* \"#utility.yul\":18863:18865   */\n      0x40\n        /* \"#utility.yul\":18858:18861   */\n      dup3\n        /* \"#utility.yul\":18854:18866   */\n      add\n        /* \"#utility.yul\":18847:18866   */\n      swap1\n      pop\n        /* \"#utility.yul\":18506:18872   */\n      swap2\n      swap1\n      pop\n      jump\t// out\n        /* \"#utility.yul\":18878:19297   */\n    tag_131:\n        /* \"#utility.yul\":19044:19048   */\n      0x00\n        /* \"#utility.yul\":19082:19084   */\n      0x20\n        /* \"#utility.yul\":19071:19080   */\n      dup3\n        /* \"#utility.yul\":19067:19085   */\n      add\n        /* \"#utility.yul\":19059:19085   */\n      swap1\n      pop\n        /* \"#utility.yul\":19131:19140   */\n      dup2\n        /* \"#utility.yul\":19125:19129   */\n      dup2\n        /* \"#utility.yul\":19121:19141   */\n      sub\n        /* \"#utility.yul\":19117:19118   */\n      0x00\n        /* \"#utility.yul\":19106:19115   */\n      dup4\n        /* \"#utility.yul\":19102:19119   */\n      add\n        /* \"#utility.yul\":19095:19142   */\n      mstore\n        /* \"#utility.yul\":19159:19290   */\n      tag_587\n        /* \"#utility.yul\":19285:19289   */\n      dup2\n        /* \"#utility.yul\":19159:19290   */\n      tag_396\n      jump\t// in\n    tag_587:\n        /* \"#utility.yul\":19151:19290   */\n      swap1\n      pop\n        /* \"#utility.yul\":18878:19297   */\n      swap2\n      swap1\n      pop\n      jump\t// out\n        /* \"#utility.yul\":19303:19483   */\n    tag_397:\n        /* \"#utility.yul\":19443:19475   */\n      0x54686520636c69656e7420697320616c726561647920696e73757265642e0000\n        /* \"#utility.yul\":19439:19440   */\n      0x00\n        /* \"#utility.yul\":19431:19437   */\n      dup3\n        /* \"#utility.yul\":19427:19441   */\n      add\n        /* \"#utility.yul\":19420:19476   */\n      mstore\n        /* \"#utility.yul\":19303:19483   */\n      pop\n      jump\t// out\n        /* \"#utility.yul\":19489:19855   */\n    tag_398:\n        /* \"#utility.yul\":19631:19634   */\n      0x00\n        /* \"#utility.yul\":19652:19719   */\n      tag_590\n        /* \"#utility.yul\":19716:19718   */\n      0x1e\n        /* \"#utility.yul\":19711:19714   */\n      dup4\n        /* \"#utility.yul\":19652:19719   */\n      tag_387\n      jump\t// in\n    tag_590:\n        /* \"#utility.yul\":19645:19719   */\n      swap2\n      pop\n        /* \"#utility.yul\":19728:19821   */\n      tag_591\n        /* \"#utility.yul\":19817:19820   */\n      dup3\n        /* \"#utility.yul\":19728:19821   */\n      tag_397\n      jump\t// in\n    tag_591:\n        /* \"#utility.yul\":19846:19848   */\n      0x20\n        /* \"#utility.yul\":19841:19844   */\n      dup3\n        /* \"#utility.yul\":19837:19849   */\n      add\n        /* \"#utility.yul\":19830:19849   */\n      swap1\n      pop\n        /* \"#utility.yul\":19489:19855   */\n      swap2\n      swap1\n      pop\n      jump\t// out\n        /* \"#utility.yul\":19861:20280   */\n    tag_153:\n        /* \"#utility.yul\":20027:20031   */\n      0x00\n        /* \"#utility.yul\":20065:20067   */\n      0x20\n        /* \"#utility.yul\":20054:20063   */\n      dup3\n        /* \"#utility.yul\":20050:20068   */\n      add\n        /* \"#utility.yul\":20042:20068   */\n      swap1\n      pop\n        /* \"#utility.yul\":20114:20123   */\n      dup2\n        /* \"#utility.yul\":20108:20112   */\n      dup2\n        /* \"#utility.yul\":20104:20124   */\n      sub\n        /* \"#utility.yul\":20100:20101   */\n      0x00\n        /* \"#utility.yul\":20089:20098   */\n      dup4\n        /* \"#utility.yul\":20085:20102   */\n      add\n        /* \"#utility.yul\":20078:20125   */\n      mstore\n        /* \"#utility.yul\":20142:20273   */\n      tag_593\n        /* \"#utility.yul\":20268:20272   */\n      dup2\n        /* \"#utility.yul\":20142:20273   */\n      tag_398\n      jump\t// in\n    tag_593:\n        /* \"#utility.yul\":20134:20273   */\n      swap1\n      pop\n        /* \"#utility.yul\":19861:20280   */\n      swap2\n      swap1\n      pop\n      jump\t// out\n        /* \"#utility.yul\":20286:20696   */\n    tag_160:\n        /* \"#utility.yul\":20326:20333   */\n      0x00\n        /* \"#utility.yul\":20349:20369   */\n      tag_595\n        /* \"#utility.yul\":20367:20368   */\n      dup3\n        /* \"#utility.yul\":20349:20369   */\n      tag_350\n      jump\t// in\n    tag_595:\n        /* \"#utility.yul\":20344:20369   */\n      swap2\n      pop\n        /* \"#utility.yul\":20383:20403   */\n      tag_596\n        /* \"#utility.yul\":20401:20402   */\n      dup4\n        /* \"#utility.yul\":20383:20403   */\n      tag_350\n      jump\t// in\n    tag_596:\n        /* \"#utility.yul\":20378:20403   */\n      swap3\n      pop\n        /* \"#utility.yul\":20438:20439   */\n      dup3\n        /* \"#utility.yul\":20435:20436   */\n      dup3\n        /* \"#utility.yul\":20431:20440   */\n      mul\n        /* \"#utility.yul\":20460:20490   */\n      tag_597\n        /* \"#utility.yul\":20478:20489   */\n      dup2\n        /* \"#utility.yul\":20460:20490   */\n      tag_350\n      jump\t// in\n    tag_597:\n        /* \"#utility.yul\":20449:20490   */\n      swap2\n      pop\n        /* \"#utility.yul\":20639:20640   */\n      dup3\n        /* \"#utility.yul\":20630:20637   */\n      dup3\n        /* \"#utility.yul\":20626:20641   */\n      div\n        /* \"#utility.yul\":20623:20624   */\n      dup5\n        /* \"#utility.yul\":20620:20642   */\n      eq\n        /* \"#utility.yul\":20600:20601   */\n      dup4\n        /* \"#utility.yul\":20593:20602   */\n      iszero\n        /* \"#utility.yul\":20573:20656   */\n      or\n        /* \"#utility.yul\":20550:20689   */\n      tag_598\n      jumpi\n        /* \"#utility.yul\":20669:20687   */\n      tag_599\n      tag_394\n      jump\t// in\n    tag_599:\n        /* \"#utility.yul\":20550:20689   */\n    tag_598:\n        /* \"#utility.yul\":20334:20696   */\n      pop\n        /* \"#utility.yul\":20286:20696   */\n      swap3\n      swap2\n      pop\n      pop\n      jump\t// out\n        /* \"#utility.yul\":20702:20947   */\n    tag_399:\n        /* \"#utility.yul\":20842:20876   */\n      0x546865207072656d69756d206d75737420626520636f766572656420746f2072\n        /* \"#utility.yul\":20838:20839   */\n      0x00\n        /* \"#utility.yul\":20830:20836   */\n      dup3\n        /* \"#utility.yul\":20826:20840   */\n      add\n        /* \"#utility.yul\":20819:20877   */\n      mstore\n        /* \"#utility.yul\":20911:20939   */\n      0x65676973746572206f722072656e6577206120706f6c6963792e000000000000\n        /* \"#utility.yul\":20906:20908   */\n      0x20\n        /* \"#utility.yul\":20898:20904   */\n      dup3\n        /* \"#utility.yul\":20894:20909   */\n      add\n        /* \"#utility.yul\":20887:20940   */\n      mstore\n        /* \"#utility.yul\":20702:20947   */\n      pop\n      jump\t// out\n        /* \"#utility.yul\":20953:21319   */\n    tag_400:\n        /* \"#utility.yul\":21095:21098   */\n      0x00\n        /* \"#utility.yul\":21116:21183   */\n      tag_602\n        /* \"#utility.yul\":21180:21182   */\n      0x3a\n        /* \"#utility.yul\":21175:21178   */\n      dup4\n        /* \"#utility.yul\":21116:21183   */\n      tag_387\n      jump\t// in\n    tag_602:\n        /* \"#utility.yul\":21109:21183   */\n      swap2\n      pop\n        /* \"#utility.yul\":21192:21285   */\n      tag_603\n        /* \"#utility.yul\":21281:21284   */\n      dup3\n        /* \"#utility.yul\":21192:21285   */\n      tag_399\n      jump\t// in\n    tag_603:\n        /* \"#utility.yul\":21310:21312   */\n      0x40\n        /* \"#utility.yul\":21305:21308   */\n      dup3\n        /* \"#utility.yul\":21301:21313   */\n      add\n        /* \"#utility.yul\":21294:21313   */\n      swap1\n      pop\n        /* \"#utility.yul\":20953:21319   */\n      swap2\n      swap1\n      pop\n      jump\t// out\n        /* \"#utility.yul\":21325:21744   */\n    tag_163:\n        /* \"#utility.yul\":21491:21495   */\n      0x00\n        /* \"#utility.yul\":21529:21531   */\n      0x20\n        /* \"#utility.yul\":21518:21527   */\n      dup3\n        /* \"#utility.yul\":21514:21532   */\n      add\n        /* \"#utility.yul\":21506:21532   */\n      swap1\n      pop\n        /* \"#utility.yul\":21578:21587   */\n      dup2\n        /* \"#utility.yul\":21572:21576   */\n      dup2\n        /* \"#utility.yul\":21568:21588   */\n      sub\n        /* \"#utility.yul\":21564:21565   */\n      0x00\n        /* \"#utility.yul\":21553:21562   */\n      dup4\n        /* \"#utility.yul\":21549:21566   */\n      add\n        /* \"#utility.yul\":21542:21589   */\n      mstore\n        /* \"#utility.yul\":21606:21737   */\n      tag_605\n        /* \"#utility.yul\":21732:21736   */\n      dup2\n        /* \"#utility.yul\":21606:21737   */\n      tag_400\n      jump\t// in\n    tag_605:\n        /* \"#utility.yul\":21598:21737   */\n      swap1\n      pop\n        /* \"#utility.yul\":21325:21744   */\n      swap2\n      swap1\n      pop\n      jump\t// out\n        /* \"#utility.yul\":21750:21930   */\n    tag_315:\n        /* \"#utility.yul\":21798:21875   */\n      0x4e487b7100000000000000000000000000000000000000000000000000000000\n        /* \"#utility.yul\":21795:21796   */\n      0x00\n        /* \"#utility.yul\":21788:21876   */\n      mstore\n        /* \"#utility.yul\":21895:21899   */\n      0x12\n        /* \"#utility.yul\":21892:21893   */\n      0x04\n        /* \"#utility.yul\":21885:21900   */\n      mstore\n        /* \"#utility.yul\":21919:21923   */\n      0x24\n        /* \"#utility.yul\":21916:21917   */\n      0x00\n        /* \"#utility.yul\":21909:21924   */\n      revert\n        /* \"#utility.yul\":21936:22121   */\n    tag_181:\n        /* \"#utility.yul\":21976:21977   */\n      0x00\n        /* \"#utility.yul\":21993:22013   */\n      tag_608\n        /* \"#utility.yul\":22011:22012   */\n      dup3\n        /* \"#utility.yul\":21993:22013   */\n      tag_350\n      jump\t// in\n    tag_608:\n        /* \"#utility.yul\":21988:22013   */\n      swap2\n      pop\n        /* \"#utility.yul\":22027:22047   */\n      tag_609\n        /* \"#utility.yul\":22045:22046   */\n      dup4\n        /* \"#utility.yul\":22027:22047   */\n      tag_350\n      jump\t// in\n    tag_609:\n        /* \"#utility.yul\":22022:22047   */\n      swap3\n      pop\n        /* \"#utility.yul\":22066:22067   */\n      dup3\n        /* \"#utility.yul\":22056:22091   */\n      tag_610\n      jumpi\n        /* \"#utility.yul\":22071:22089   */\n      tag_611\n      tag_315\n      jump\t// in\n    tag_611:\n        /* \"#utility.yul\":22056:22091   */\n    tag_610:\n        /* \"#utility.yul\":22113:22114   */\n      dup3\n        /* \"#utility.yul\":22110:22111   */\n      dup3\n        /* \"#utility.yul\":22106:22115   */\n      div\n        /* \"#utility.yul\":22101:22115   */\n      swap1\n      pop\n        /* \"#utility.yul\":21936:22121   */\n      swap3\n      swap2\n      pop\n      pop\n      jump\t// out\n        /* \"#utility.yul\":22127:22308   */\n    tag_401:\n        /* \"#utility.yul\":22267:22300   */\n      0x43616e6e6f74206c6f61642074686520636f6e74726163742077697468203000\n        /* \"#utility.yul\":22263:22264   */\n      0x00\n        /* \"#utility.yul\":22255:22261   */\n      dup3\n        /* \"#utility.yul\":22251:22265   */\n      add\n        /* \"#utility.yul\":22244:22301   */\n      mstore\n        /* \"#utility.yul\":22127:22308   */\n      pop\n      jump\t// out\n        /* \"#utility.yul\":22314:22680   */\n    tag_402:\n        /* \"#utility.yul\":22456:22459   */\n      0x00\n        /* \"#utility.yul\":22477:22544   */\n      tag_614\n        /* \"#utility.yul\":22541:22543   */\n      0x1f\n        /* \"#utility.yul\":22536:22539   */\n      dup4\n        /* \"#utility.yul\":22477:22544   */\n      tag_387\n      jump\t// in\n    tag_614:\n        /* \"#utility.yul\":22470:22544   */\n      swap2\n      pop\n        /* \"#utility.yul\":22553:22646   */\n      tag_615\n        /* \"#utility.yul\":22642:22645   */\n      dup3\n        /* \"#utility.yul\":22553:22646   */\n      tag_401\n      jump\t// in\n    tag_615:\n        /* \"#utility.yul\":22671:22673   */\n      0x20\n        /* \"#utility.yul\":22666:22669   */\n      dup3\n        /* \"#utility.yul\":22662:22674   */\n      add\n        /* \"#utility.yul\":22655:22674   */\n      swap1\n      pop\n        /* \"#utility.yul\":22314:22680   */\n      swap2\n      swap1\n      pop\n      jump\t// out\n        /* \"#utility.yul\":22686:23105   */\n    tag_187:\n        /* \"#utility.yul\":22852:22856   */\n      0x00\n        /* \"#utility.yul\":22890:22892   */\n      0x20\n        /* \"#utility.yul\":22879:22888   */\n      dup3\n        /* \"#utility.yul\":22875:22893   */\n      add\n        /* \"#utility.yul\":22867:22893   */\n      swap1\n      pop\n        /* \"#utility.yul\":22939:22948   */\n      dup2\n        /* \"#utility.yul\":22933:22937   */\n      dup2\n        /* \"#utility.yul\":22929:22949   */\n      sub\n        /* \"#utility.yul\":22925:22926   */\n      0x00\n        /* \"#utility.yul\":22914:22923   */\n      dup4\n        /* \"#utility.yul\":22910:22927   */\n      add\n        /* \"#utility.yul\":22903:22950   */\n      mstore\n        /* \"#utility.yul\":22967:23098   */\n      tag_617\n        /* \"#utility.yul\":23093:23097   */\n      dup2\n        /* \"#utility.yul\":22967:23098   */\n      tag_402\n      jump\t// in\n    tag_617:\n        /* \"#utility.yul\":22959:23098   */\n      swap1\n      pop\n        /* \"#utility.yul\":22686:23105   */\n      swap2\n      swap1\n      pop\n      jump\t// out\n        /* \"#utility.yul\":23111:23305   */\n    tag_228:\n        /* \"#utility.yul\":23151:23155   */\n      0x00\n        /* \"#utility.yul\":23171:23191   */\n      tag_619\n        /* \"#utility.yul\":23189:23190   */\n      dup3\n        /* \"#utility.yul\":23171:23191   */\n      tag_350\n      jump\t// in\n    tag_619:\n        /* \"#utility.yul\":23166:23191   */\n      swap2\n      pop\n        /* \"#utility.yul\":23205:23225   */\n      tag_620\n        /* \"#utility.yul\":23223:23224   */\n      dup4\n        /* \"#utility.yul\":23205:23225   */\n      tag_350\n      jump\t// in\n    tag_620:\n        /* \"#utility.yul\":23200:23225   */\n      swap3\n      pop\n        /* \"#utility.yul\":23249:23250   */\n      dup3\n        /* \"#utility.yul\":23246:23247   */\n      dup3\n        /* \"#utility.yul\":23242:23251   */\n      sub\n        /* \"#utility.yul\":23234:23251   */\n      swap1\n      pop\n        /* \"#utility.yul\":23273:23274   */\n      dup2\n        /* \"#utility.yul\":23267:23271   */\n      dup2\n        /* \"#utility.yul\":23264:23275   */\n      gt\n        /* \"#utility.yul\":23261:23298   */\n      iszero\n      tag_621\n      jumpi\n        /* \"#utility.yul\":23278:23296   */\n      tag_622\n      tag_394\n      jump\t// in\n    tag_622:\n        /* \"#utility.yul\":23261:23298   */\n    tag_621:\n        /* \"#utility.yul\":23111:23305   */\n      swap3\n      swap2\n      pop\n      pop\n      jump\t// out\n        /* \"#utility.yul\":23311:23534   */\n    tag_403:\n        /* \"#utility.yul\":23451:23485   */\n      0x436c61696d732063616e206f6e6c792062652066696c65642065766572792079\n        /* \"#utility.yul\":23447:23448   */\n      0x00\n        /* \"#utility.yul\":23439:23445   */\n      dup3\n        /* \"#utility.yul\":23435:23449   */\n      add\n        /* \"#utility.yul\":23428:23486   */\n      mstore\n        /* \"#utility.yul\":23520:23526   */\n      0x6561722e00000000000000000000000000000000000000000000000000000000\n        /* \"#utility.yul\":23515:23517   */\n      0x20\n        /* \"#utility.yul\":23507:23513   */\n      dup3\n        /* \"#utility.yul\":23503:23518   */\n      add\n        /* \"#utility.yul\":23496:23527   */\n      mstore\n        /* \"#utility.yul\":23311:23534   */\n      pop\n      jump\t// out\n        /* \"#utility.yul\":23540:23906   */\n    tag_404:\n        /* \"#utility.yul\":23682:23685   */\n      0x00\n        /* \"#utility.yul\":23703:23770   */\n      tag_625\n        /* \"#utility.yul\":23767:23769   */\n      0x24\n        /* \"#utility.yul\":23762:23765   */\n      dup4\n        /* \"#utility.yul\":23703:23770   */\n      tag_387\n      jump\t// in\n    tag_625:\n        /* \"#utility.yul\":23696:23770   */\n      swap2\n      pop\n        /* \"#utility.yul\":23779:23872   */\n      tag_626\n        /* \"#utility.yul\":23868:23871   */\n      dup3\n        /* \"#utility.yul\":23779:23872   */\n      tag_403\n      jump\t// in\n    tag_626:\n        /* \"#utility.yul\":23897:23899   */\n      0x40\n        /* \"#utility.yul\":23892:23895   */\n      dup3\n        /* \"#utility.yul\":23888:23900   */\n      add\n        /* \"#utility.yul\":23881:23900   */\n      swap1\n      pop\n        /* \"#utility.yul\":23540:23906   */\n      swap2\n      swap1\n      pop\n      jump\t// out\n        /* \"#utility.yul\":23912:24331   */\n    tag_241:\n        /* \"#utility.yul\":24078:24082   */\n      0x00\n        /* \"#utility.yul\":24116:24118   */\n      0x20\n        /* \"#utility.yul\":24105:24114   */\n      dup3\n        /* \"#utility.yul\":24101:24119   */\n      add\n        /* \"#utility.yul\":24093:24119   */\n      swap1\n      pop\n        /* \"#utility.yul\":24165:24174   */\n      dup2\n        /* \"#utility.yul\":24159:24163   */\n      dup2\n        /* \"#utility.yul\":24155:24175   */\n      sub\n        /* \"#utility.yul\":24151:24152   */\n      0x00\n        /* \"#utility.yul\":24140:24149   */\n      dup4\n        /* \"#utility.yul\":24136:24153   */\n      add\n        /* \"#utility.yul\":24129:24176   */\n      mstore\n        /* \"#utility.yul\":24193:24324   */\n      tag_628\n        /* \"#utility.yul\":24319:24323   */\n      dup2\n        /* \"#utility.yul\":24193:24324   */\n      tag_404\n      jump\t// in\n    tag_628:\n        /* \"#utility.yul\":24185:24324   */\n      swap1\n      pop\n        /* \"#utility.yul\":23912:24331   */\n      swap2\n      swap1\n      pop\n      jump\t// out\n        /* \"#utility.yul\":24337:24626   */\n    tag_405:\n        /* \"#utility.yul\":24477:24511   */\n      0x5468652073756e7368696e65206475726174696f6e2077617320657175616c20\n        /* \"#utility.yul\":24473:24474   */\n      0x00\n        /* \"#utility.yul\":24465:24471   */\n      dup3\n        /* \"#utility.yul\":24461:24475   */\n      add\n        /* \"#utility.yul\":24454:24512   */\n      mstore\n        /* \"#utility.yul\":24546:24580   */\n      0x746f206f722065786365656465642074686520696e737572656420686f757273\n        /* \"#utility.yul\":24541:24543   */\n      0x20\n        /* \"#utility.yul\":24533:24539   */\n      dup3\n        /* \"#utility.yul\":24529:24544   */\n      add\n        /* \"#utility.yul\":24522:24581   */\n      mstore\n        /* \"#utility.yul\":24615:24618   */\n      0x2e00000000000000000000000000000000000000000000000000000000000000\n        /* \"#utility.yul\":24610:24612   */\n      0x40\n        /* \"#utility.yul\":24602:24608   */\n      dup3\n        /* \"#utility.yul\":24598:24613   */\n      add\n        /* \"#utility.yul\":24591:24619   */\n      mstore\n        /* \"#utility.yul\":24337:24626   */\n      pop\n      jump\t// out\n        /* \"#utility.yul\":24632:24998   */\n    tag_406:\n        /* \"#utility.yul\":24774:24777   */\n      0x00\n        /* \"#utility.yul\":24795:24862   */\n      tag_631\n        /* \"#utility.yul\":24859:24861   */\n      0x41\n        /* \"#utility.yul\":24854:24857   */\n      dup4\n        /* \"#utility.yul\":24795:24862   */\n      tag_387\n      jump\t// in\n    tag_631:\n        /* \"#utility.yul\":24788:24862   */\n      swap2\n      pop\n        /* \"#utility.yul\":24871:24964   */\n      tag_632\n        /* \"#utility.yul\":24960:24963   */\n      dup3\n        /* \"#utility.yul\":24871:24964   */\n      tag_405\n      jump\t// in\n    tag_632:\n        /* \"#utility.yul\":24989:24991   */\n      0x60\n        /* \"#utility.yul\":24984:24987   */\n      dup3\n        /* \"#utility.yul\":24980:24992   */\n      add\n        /* \"#utility.yul\":24973:24992   */\n      swap1\n      pop\n        /* \"#utility.yul\":24632:24998   */\n      swap2\n      swap1\n      pop\n      jump\t// out\n        /* \"#utility.yul\":25004:25423   */\n    tag_286:\n        /* \"#utility.yul\":25170:25174   */\n      0x00\n        /* \"#utility.yul\":25208:25210   */\n      0x20\n        /* \"#utility.yul\":25197:25206   */\n      dup3\n        /* \"#utility.yul\":25193:25211   */\n      add\n        /* \"#utility.yul\":25185:25211   */\n      swap1\n      pop\n        /* \"#utility.yul\":25257:25266   */\n      dup2\n        /* \"#utility.yul\":25251:25255   */\n      dup2\n        /* \"#utility.yul\":25247:25267   */\n      sub\n        /* \"#utility.yul\":25243:25244   */\n      0x00\n        /* \"#utility.yul\":25232:25241   */\n      dup4\n        /* \"#utility.yul\":25228:25245   */\n      add\n        /* \"#utility.yul\":25221:25268   */\n      mstore\n        /* \"#utility.yul\":25285:25416   */\n      tag_634\n        /* \"#utility.yul\":25411:25415   */\n      dup2\n        /* \"#utility.yul\":25285:25416   */\n      tag_406\n      jump\t// in\n    tag_634:\n        /* \"#utility.yul\":25277:25416   */\n      swap1\n      pop\n        /* \"#utility.yul\":25004:25423   */\n      swap2\n      swap1\n      pop\n      jump\t// out\n\n    auxdata: 0xa26469706673582212206ccb0e977545157cccf611a7cfe5e5d41038566fb17707b3d8d2156fcb351b3964736f6c63430008160033\n}\n",
				"bytecode": {
					"linkReferences": {},
					"object": "6080604052659184e72a000060015560966002556014600355335f806101000a81548173ffffffffffffffffffffffffffffffffffffffff021916908373ffffffffffffffffffffffffffffffffffffffff1602179055506040518060400160405280652d79883d2000815260200161066781525060045f8060028111156200008d576200008c620001a6565b5b6002811115620000a257620000a1620001a6565b5b81526020019081526020015f205f820151815f0155602082015181600101559050506040518060400160405280656d23ad5f800081526020016106b981525060045f60016002811115620000fb57620000fa620001a6565b5b600281111562000110576200010f620001a6565b5b81526020019081526020015f205f820151815f015560208201518160010155905050604051806040016040528066013e52b9abe000815260200161070b81525060045f600280811115620001695762000168620001a6565b5b60028111156200017e576200017d620001a6565b5b81526020019081526020015f205f820151815f015560208201518160010155905050620001d3565b7f4e487b71000000000000000000000000000000000000000000000000000000005f52602160045260245ffd5b612b2f80620001e15f395ff3fe6080604052600436106100c1575f3560e01c8063a8e023eb1161007e578063cef6360011610058578063cef63600146101ff578063d61909f91461023b578063e7ebe5e014610263578063f82ac0821461029f576100c1565b8063a8e023eb146101cf578063bd097e21146101eb578063bfd1a3a7146101f5576100c1565b80631d9aec76146100c5578063245503e91461010157806341b5e38d146101295780638da5cb5b14610151578063958f85bd1461017b5780639b36474a146101a5575b5f80fd5b3480156100d0575f80fd5b506100eb60048036038101906100e69190611eaa565b6102db565b6040516100f89190611eed565b60405180910390f35b34801561010c575f80fd5b5061012760048036038101906101229190611f53565b6102f0565b005b348015610134575f80fd5b5061014f600480360381019061014a9190611fa3565b61039d565b005b34801561015c575f80fd5b5061016561076c565b6040516101729190611fdd565b60405180910390f35b348015610186575f80fd5b5061018f610824565b60405161019c9190612010565b60405180910390f35b3480156101b0575f80fd5b506101b96108b7565b6040516101c691906121a0565b60405180910390f35b6101e960048036038101906101e491906121dd565b610ad4565b005b6101f3610eec565b005b6101fd610f30565b005b34801561020a575f80fd5b5061022560048036038101906102209190611fa3565b611175565b6040516102329190611eed565b60405180910390f35b348015610246575f80fd5b50610261600480360381019061025c9190611fa3565b611442565b005b34801561026e575f80fd5b5061028960048036038101906102849190612369565b611b1f565b6040516102969190611eed565b60405180910390f35b3480156102aa575f80fd5b506102c560048036038101906102c091906123b0565b611b4c565b6040516102d29190611eed565b60405180910390f35b6007602052805f5260405f205f915090505481565b5f80600181111561030457610303612038565b5b83600181111561031757610316612038565b5b146103495761032584611b98565b6040516020016103359190612480565b604051602081830303815290604052610372565b61035284611b98565b60405160200161036291906124cb565b6040516020818303038152906040525b90508160058260405161038591906124f0565b90815260200160405180910390208190555050505050565b5f60065f3373ffffffffffffffffffffffffffffffffffffffff1673ffffffffffffffffffffffffffffffffffffffff1681526020019081526020015f206004015411801561042b57504260065f3373ffffffffffffffffffffffffffffffffffffffff1673ffffffffffffffffffffffffffffffffffffffff1681526020019081526020015f2060040154115b61046a576040517f08c379a000000000000000000000000000000000000000000000000000000000815260040161046190612560565b60405180910390fd5b808060075f3373ffffffffffffffffffffffffffffffffffffffff1673ffffffffffffffffffffffffffffffffffffffff1681526020019081526020015f2054146104ea576040517f08c379a00000000000000000000000000000000000000000000000000000000081526004016104e1906125ee565b60405180910390fd5b815f8060018111156104ff576104fe612038565b5b60065f3373ffffffffffffffffffffffffffffffffffffffff1673ffffffffffffffffffffffffffffffffffffffff1681526020019081526020015f205f0160149054906101000a900460ff16600181111561055e5761055d612038565b5b1490505f816105945761057083611b98565b6040516020016105809190612480565b6040516020818303038152906040526105bd565b61059d83611b98565b6040516020016105ad91906124cb565b6040516020818303038152906040525b90505f6005826040516105d091906124f0565b9081526020016040518091039020540361061f576040517f08c379a00000000000000000000000000000000000000000000000000000000081526004016106169061267c565b60405180910390fd5b5f61062986611175565b90503373ffffffffffffffffffffffffffffffffffffffff166108fc8290811502906040515f60405180830381858888f1935050505015801561066e573d5f803e3d5ffd5b506106c66301e1338060065f3373ffffffffffffffffffffffffffffffffffffffff1673ffffffffffffffffffffffffffffffffffffffff1681526020019081526020015f2060050154611c6290919063ffffffff16565b505f60065f3373ffffffffffffffffffffffffffffffffffffffff1673ffffffffffffffffffffffffffffffffffffffff1681526020019081526020015f2060040154111561076457600160075f3373ffffffffffffffffffffffffffffffffffffffff1673ffffffffffffffffffffffffffffffffffffffff1681526020019081526020015f205f82825461075c91906126c7565b925050819055505b505050505050565b5f805f8054906101000a900473ffffffffffffffffffffffffffffffffffffffff1673ffffffffffffffffffffffffffffffffffffffff163373ffffffffffffffffffffffffffffffffffffffff16149050806107fe576040517f08c379a00000000000000000000000000000000000000000000000000000000081526004016107f59061276a565b60405180910390fd5b5f8054906101000a900473ffffffffffffffffffffffffffffffffffffffff1691505090565b5f8073ffffffffffffffffffffffffffffffffffffffff1660065f3373ffffffffffffffffffffffffffffffffffffffff1673ffffffffffffffffffffffffffffffffffffffff1681526020019081526020015f205f015f9054906101000a900473ffffffffffffffffffffffffffffffffffffffff1673ffffffffffffffffffffffffffffffffffffffff1614905090565b6108bf611dc8565b5f60065f3373ffffffffffffffffffffffffffffffffffffffff1673ffffffffffffffffffffffffffffffffffffffff1681526020019081526020015f206004015411801561094d57504260065f3373ffffffffffffffffffffffffffffffffffffffff1673ffffffffffffffffffffffffffffffffffffffff1681526020019081526020015f2060040154115b61098c576040517f08c379a000000000000000000000000000000000000000000000000000000000815260040161098390612560565b60405180910390fd5b60065f3373ffffffffffffffffffffffffffffffffffffffff1673ffffffffffffffffffffffffffffffffffffffff1681526020019081526020015f20604051806101000160405290815f82015f9054906101000a900473ffffffffffffffffffffffffffffffffffffffff1673ffffffffffffffffffffffffffffffffffffffff1673ffffffffffffffffffffffffffffffffffffffff1681526020015f820160149054906101000a900460ff166001811115610a4d57610a4c612038565b5b6001811115610a5f57610a5e612038565b5b81526020015f820160159054906101000a900460ff166002811115610a8757610a86612038565b5b6002811115610a9957610a98612038565b5b815260200160018201548152602001600282015481526020016003820154815260200160048201548152602001600582015481525050905090565b5f60065f3373ffffffffffffffffffffffffffffffffffffffff1673ffffffffffffffffffffffffffffffffffffffff1681526020019081526020015f20600401541480610b6157504260065f3373ffffffffffffffffffffffffffffffffffffffff1673ffffffffffffffffffffffffffffffffffffffff1681526020019081526020015f2060040154105b610ba0576040517f08c379a0000000000000000000000000000000000000000000000000000000008152600401610b97906127d2565b60405180910390fd5b82825f8160045f856002811115610bba57610bb9612038565b5b6002811115610bcc57610bcb612038565b5b81526020019081526020015f205f0154610be691906127f0565b90505f813414905080610c2e576040517f08c379a0000000000000000000000000000000000000000000000000000000008152600401610c25906128a1565b60405180910390fd5b6040518061010001604052803373ffffffffffffffffffffffffffffffffffffffff168152602001866001811115610c6957610c68612038565b5b8152602001886002811115610c8157610c80612038565b5b815260200187815260200160045f8a6002811115610ca257610ca1612038565b5b6002811115610cb457610cb3612038565b5b81526020019081526020015f205f015488610ccf91906127f0565b8152602001428152602001610cf16301e1338042611c6290919063ffffffff16565b8152602001610d0d6301e1338042611c6290919063ffffffff16565b81525060065f3373ffffffffffffffffffffffffffffffffffffffff1673ffffffffffffffffffffffffffffffffffffffff1681526020019081526020015f205f820151815f015f6101000a81548173ffffffffffffffffffffffffffffffffffffffff021916908373ffffffffffffffffffffffffffffffffffffffff1602179055506020820151815f0160146101000a81548160ff02191690836001811115610dbb57610dba612038565b5b02179055506040820151815f0160156101000a81548160ff02191690836002811115610dea57610de9612038565b5b0217905550606082015181600101556080820151816002015560a0820151816003015560c0820151816004015560e082015181600501559050506107b26301e1338042610e3791906128ec565b610e4191906126c7565b60075f3373ffffffffffffffffffffffffffffffffffffffff1673ffffffffffffffffffffffffffffffffffffffff1681526020019081526020015f208190555060095f3373ffffffffffffffffffffffffffffffffffffffff1673ffffffffffffffffffffffffffffffffffffffff1681526020019081526020015f2042908060018154018082558091505060019003905f5260205f20015f909190919091505550505050505050565b5f3411610f2e576040517f08c379a0000000000000000000000000000000000000000000000000000000008152600401610f2590612966565b60405180910390fd5b565b5f60065f3373ffffffffffffffffffffffffffffffffffffffff1673ffffffffffffffffffffffffffffffffffffffff1681526020019081526020015f2060040154118015610fbe57504260065f3373ffffffffffffffffffffffffffffffffffffffff1673ffffffffffffffffffffffffffffffffffffffff1681526020019081526020015f2060040154115b610ffd576040517f08c379a0000000000000000000000000000000000000000000000000000000008152600401610ff490612560565b60405180910390fd5b60065f3373ffffffffffffffffffffffffffffffffffffffff1673ffffffffffffffffffffffffffffffffffffffff1681526020019081526020015f205f0160159054906101000a900460ff1660065f3373ffffffffffffffffffffffffffffffffffffffff1673ffffffffffffffffffffffffffffffffffffffff1681526020019081526020015f20600101545f8160045f8560028111156110a3576110a2612038565b5b60028111156110b5576110b4612038565b5b81526020019081526020015f205f01546110cf91906127f0565b90505f813414905080611117576040517f08c379a000000000000000000000000000000000000000000000000000000000815260040161110e906128a1565b60405180910390fd5b61116e6301e1338060065f3373ffffffffffffffffffffffffffffffffffffffff1673ffffffffffffffffffffffffffffffffffffffff1681526020019081526020015f2060040154611c6290919063ffffffff16565b5050505050565b5f8060065f3373ffffffffffffffffffffffffffffffffffffffff1673ffffffffffffffffffffffffffffffffffffffff1681526020019081526020015f20604051806101000160405290815f82015f9054906101000a900473ffffffffffffffffffffffffffffffffffffffff1673ffffffffffffffffffffffffffffffffffffffff1673ffffffffffffffffffffffffffffffffffffffff1681526020015f820160149054906101000a900460ff16600181111561123857611237612038565b5b600181111561124a57611249612038565b5b81526020015f820160159054906101000a900460ff16600281111561127257611271612038565b5b600281111561128457611283612038565b5b81526020016001820154815260200160028201548152602001600382015481526020016004820154815260200160058201548152505090505f8060018111156112d0576112cf612038565b5b826020015160018111156112e7576112e6612038565b5b14611319576112f584611b98565b6040516020016113059190612480565b604051602081830303815290604052611342565b61132284611b98565b60405160200161133291906124cb565b6040516020818303038152906040525b90505f60058260405161135591906124f0565b90815260200160405180910390205490505f8160045f8660400151600281111561138257611381612038565b5b600281111561139457611393612038565b5b81526020019081526020015f20600101546113af9190612984565b90505f60015460065f3373ffffffffffffffffffffffffffffffffffffffff1673ffffffffffffffffffffffffffffffffffffffff1681526020019081526020015f20600101546003548460025461140791906127f0565b61141191906127f0565b61141b91906127f0565b61142591906127f0565b9050620186a08161143691906128ec565b95505050505050919050565b5f60065f3373ffffffffffffffffffffffffffffffffffffffff1673ffffffffffffffffffffffffffffffffffffffff1681526020019081526020015f20600401541180156114d057504260065f3373ffffffffffffffffffffffffffffffffffffffff1673ffffffffffffffffffffffffffffffffffffffff1681526020019081526020015f2060040154115b61150f576040517f08c379a000000000000000000000000000000000000000000000000000000000815260040161150690612560565b60405180910390fd5b4260065f3373ffffffffffffffffffffffffffffffffffffffff1673ffffffffffffffffffffffffffffffffffffffff1681526020019081526020015f206005015410611591576040517f08c379a000000000000000000000000000000000000000000000000000000000815260040161158890612a27565b60405180910390fd5b808060075f3373ffffffffffffffffffffffffffffffffffffffff1673ffffffffffffffffffffffffffffffffffffffff1681526020019081526020015f205414611611576040517f08c379a0000000000000000000000000000000000000000000000000000000008152600401611608906125ee565b60405180910390fd5b815f80600181111561162657611625612038565b5b60065f3373ffffffffffffffffffffffffffffffffffffffff1673ffffffffffffffffffffffffffffffffffffffff1681526020019081526020015f205f0160149054906101000a900460ff16600181111561168557611684612038565b5b1490505f816116bb5761169783611b98565b6040516020016116a79190612480565b6040516020818303038152906040526116e4565b6116c483611b98565b6040516020016116d491906124cb565b6040516020818303038152906040525b90505f6005826040516116f791906124f0565b90815260200160405180910390205403611746576040517f08c379a000000000000000000000000000000000000000000000000000000000815260040161173d9061267c565b60405180910390fd5b5f60065f3373ffffffffffffffffffffffffffffffffffffffff1673ffffffffffffffffffffffffffffffffffffffff1681526020019081526020015f20604051806101000160405290815f82015f9054906101000a900473ffffffffffffffffffffffffffffffffffffffff1673ffffffffffffffffffffffffffffffffffffffff1673ffffffffffffffffffffffffffffffffffffffff1681526020015f820160149054906101000a900460ff16600181111561180857611807612038565b5b600181111561181a57611819612038565b5b81526020015f820160159054906101000a900460ff16600281111561184257611841612038565b5b600281111561185457611853612038565b5b81526020016001820154815260200160028201548152602001600382015481526020016004820154815260200160058201548152505090505f8060018111156118a05761189f612038565b5b826020015160018111156118b7576118b6612038565b5b146118e9576118c587611b98565b6040516020016118d59190612480565b604051602081830303815290604052611912565b6118f287611b98565b60405160200161190291906124cb565b6040516020818303038152906040525b90505f60058260405161192591906124f0565b90815260200160405180910390205490505f8160045f8660400151600281111561195257611951612038565b5b600281111561196457611963612038565b5b81526020019081526020015f206001015461197f9190612984565b90505f81116119c3576040517f08c379a00000000000000000000000000000000000000000000000000000000081526004016119ba90612adb565b60405180910390fd5b5f60015460065f3373ffffffffffffffffffffffffffffffffffffffff1673ffffffffffffffffffffffffffffffffffffffff1681526020019081526020015f20600101546064600354856103e8600254611a1e91906128ec565b611a2891906127f0565b611a3291906127f0565b611a3c91906128ec565b611a4691906127f0565b611a5091906127f0565b90503373ffffffffffffffffffffffffffffffffffffffff166108fc8290811502906040515f60405180830381858888f19350505050158015611a95573d5f803e3d5ffd5b50611ab16301e133808660e00151611c6290919063ffffffff16565b505f8560c001511115611b1357600160075f3373ffffffffffffffffffffffffffffffffffffffff1673ffffffffffffffffffffffffffffffffffffffff1681526020019081526020015f205f828254611b0b91906126c7565b925050819055505b50505050505050505050565b6005818051602081018201805184825260208301602085012081835280955050505050505f915090505481565b5f60045f846002811115611b6357611b62612038565b5b6002811115611b7557611b74612038565b5b81526020019081526020015f205f015482611b9091906127f0565b905092915050565b60605f6001611ba684611c77565b0190505f8167ffffffffffffffff811115611bc457611bc3612245565b5b6040519080825280601f01601f191660200182016040528015611bf65781602001600182028036833780820191505090505b5090505f82602001820190505b600115611c57578080600190039150507f3031323334353637383961626364656600000000000000000000000000000000600a86061a8153600a8581611c4c57611c4b6128bf565b5b0494505f8503611c03575b819350505050919050565b5f8183611c6f91906126c7565b905092915050565b5f805f90507a184f03e93ff9f4daa797ed6e38ed64bf6a1f0100000000000000008310611cd3577a184f03e93ff9f4daa797ed6e38ed64bf6a1f0100000000000000008381611cc957611cc86128bf565b5b0492506040810190505b6d04ee2d6d415b85acef81000000008310611d10576d04ee2d6d415b85acef81000000008381611d0657611d056128bf565b5b0492506020810190505b662386f26fc100008310611d3f57662386f26fc100008381611d3557611d346128bf565b5b0492506010810190505b6305f5e1008310611d68576305f5e1008381611d5e57611d5d6128bf565b5b0492506008810190505b6127108310611d8d576127108381611d8357611d826128bf565b5b0492506004810190505b60648310611db05760648381611da657611da56128bf565b5b0492506002810190505b600a8310611dbf576001810190505b80915050919050565b6040518061010001604052805f73ffffffffffffffffffffffffffffffffffffffff1681526020015f6001811115611e0357611e02612038565b5b81526020015f6002811115611e1b57611e1a612038565b5b81526020015f81526020015f81526020015f81526020015f81526020015f81525090565b5f604051905090565b5f80fd5b5f80fd5b5f73ffffffffffffffffffffffffffffffffffffffff82169050919050565b5f611e7982611e50565b9050919050565b611e8981611e6f565b8114611e93575f80fd5b50565b5f81359050611ea481611e80565b92915050565b5f60208284031215611ebf57611ebe611e48565b5b5f611ecc84828501611e96565b91505092915050565b5f819050919050565b611ee781611ed5565b82525050565b5f602082019050611f005f830184611ede565b92915050565b611f0f81611ed5565b8114611f19575f80fd5b50565b5f81359050611f2a81611f06565b92915050565b60028110611f3c575f80fd5b50565b5f81359050611f4d81611f30565b92915050565b5f805f60608486031215611f6a57611f69611e48565b5b5f611f7786828701611f1c565b9350506020611f8886828701611f3f565b9250506040611f9986828701611f1c565b9150509250925092565b5f60208284031215611fb857611fb7611e48565b5b5f611fc584828501611f1c565b91505092915050565b611fd781611e6f565b82525050565b5f602082019050611ff05f830184611fce565b92915050565b5f8115159050919050565b61200a81611ff6565b82525050565b5f6020820190506120235f830184612001565b92915050565b61203281611e6f565b82525050565b7f4e487b71000000000000000000000000000000000000000000000000000000005f52602160045260245ffd5b6002811061207657612075612038565b5b50565b5f81905061208682612065565b919050565b5f61209582612079565b9050919050565b6120a58161208b565b82525050565b600381106120bc576120bb612038565b5b50565b5f8190506120cc826120ab565b919050565b5f6120db826120bf565b9050919050565b6120eb816120d1565b82525050565b6120fa81611ed5565b82525050565b61010082015f8201516121155f850182612029565b506020820151612128602085018261209c565b50604082015161213b60408501826120e2565b50606082015161214e60608501826120f1565b50608082015161216160808501826120f1565b5060a082015161217460a08501826120f1565b5060c082015161218760c08501826120f1565b5060e082015161219a60e08501826120f1565b50505050565b5f610100820190506121b45f830184612100565b92915050565b600381106121c6575f80fd5b50565b5f813590506121d7816121ba565b92915050565b5f805f606084860312156121f4576121f3611e48565b5b5f612201868287016121c9565b935050602061221286828701611f1c565b925050604061222386828701611f3f565b9150509250925092565b5f80fd5b5f80fd5b5f601f19601f8301169050919050565b7f4e487b71000000000000000000000000000000000000000000000000000000005f52604160045260245ffd5b61227b82612235565b810181811067ffffffffffffffff8211171561229a57612299612245565b5b80604052505050565b5f6122ac611e3f565b90506122b88282612272565b919050565b5f67ffffffffffffffff8211156122d7576122d6612245565b5b6122e082612235565b9050602081019050919050565b828183375f83830152505050565b5f61230d612308846122bd565b6122a3565b90508281526020810184848401111561232957612328612231565b5b6123348482856122ed565b509392505050565b5f82601f8301126123505761234f61222d565b5b81356123608482602086016122fb565b91505092915050565b5f6020828403121561237e5761237d611e48565b5b5f82013567ffffffffffffffff81111561239b5761239a611e4c565b5b6123a78482850161233c565b91505092915050565b5f80604083850312156123c6576123c5611e48565b5b5f6123d3858286016121c9565b92505060206123e485828601611f1c565b9150509250929050565b5f81519050919050565b5f81905092915050565b5f5b8381101561241f578082015181840152602081019050612404565b5f8484015250505050565b5f612434826123ee565b61243e81856123f8565b935061244e818560208601612402565b80840191505092915050565b7f5f4e4f5254480000000000000000000000000000000000000000000000000000815250565b5f61248b828461242a565b91506124968261245a565b60068201915081905092915050565b7f5f534f5554480000000000000000000000000000000000000000000000000000815250565b5f6124d6828461242a565b91506124e1826124a5565b60068201915081905092915050565b5f6124fb828461242a565b915081905092915050565b5f82825260208201905092915050565b7f54686520636c69656e74206973206e6f7420696e73757265642e0000000000005f82015250565b5f61254a601a83612506565b915061255582612516565b602082019050919050565b5f6020820190508181035f8301526125778161253e565b9050919050565b7f596f752063616e6e6f742066696c65206120636c61696d20666f7220746865205f8201527f6465736972656420796561722e00000000000000000000000000000000000000602082015250565b5f6125d8602d83612506565b91506125e38261257e565b604082019050919050565b5f6020820190508181035f830152612605816125cc565b9050919050565b7f5468657265206973206e6f207265636f726420666f72207468652072657175695f8201527f72656420796561722e0000000000000000000000000000000000000000000000602082015250565b5f612666602983612506565b91506126718261260c565b604082019050919050565b5f6020820190508181035f8301526126938161265a565b9050919050565b7f4e487b71000000000000000000000000000000000000000000000000000000005f52601160045260245ffd5b5f6126d182611ed5565b91506126dc83611ed5565b92508282019050808211156126f4576126f361269a565b5b92915050565b7f4f6e6c792074686520636f6e7472616374206f776e657220697320616c6c6f775f8201527f656420746f20646f20746865206465736972656420616374696f6e2e00000000602082015250565b5f612754603c83612506565b915061275f826126fa565b604082019050919050565b5f6020820190508181035f83015261278181612748565b9050919050565b7f54686520636c69656e7420697320616c726561647920696e73757265642e00005f82015250565b5f6127bc601e83612506565b91506127c782612788565b602082019050919050565b5f6020820190508181035f8301526127e9816127b0565b9050919050565b5f6127fa82611ed5565b915061280583611ed5565b925082820261281381611ed5565b9150828204841483151761282a5761282961269a565b5b5092915050565b7f546865207072656d69756d206d75737420626520636f766572656420746f20725f8201527f65676973746572206f722072656e6577206120706f6c6963792e000000000000602082015250565b5f61288b603a83612506565b915061289682612831565b604082019050919050565b5f6020820190508181035f8301526128b88161287f565b9050919050565b7f4e487b71000000000000000000000000000000000000000000000000000000005f52601260045260245ffd5b5f6128f682611ed5565b915061290183611ed5565b925082612911576129106128bf565b5b828204905092915050565b7f43616e6e6f74206c6f61642074686520636f6e747261637420776974682030005f82015250565b5f612950601f83612506565b915061295b8261291c565b602082019050919050565b5f6020820190508181035f83015261297d81612944565b9050919050565b5f61298e82611ed5565b915061299983611ed5565b92508282039050818111156129b1576129b061269a565b5b92915050565b7f436c61696d732063616e206f6e6c792062652066696c656420657665727920795f8201527f6561722e00000000000000000000000000000000000000000000000000000000602082015250565b5f612a11602483612506565b9150612a1c826129b7565b604082019050919050565b5f6020820190508181035f830152612a3e81612a05565b9050919050565b7f5468652073756e7368696e65206475726174696f6e2077617320657175616c205f8201527f746f206f722065786365656465642074686520696e737572656420686f75727360208201527f2e00000000000000000000000000000000000000000000000000000000000000604082015250565b5f612ac5604183612506565b9150612ad082612a45565b606082019050919050565b5f6020820190508181035f830152612af281612ab9565b905091905056fea26469706673582212206ccb0e977545157cccf611a7cfe5e5d41038566fb17707b3d8d2156fcb351b3964736f6c63430008160033",
					"opcodes": "PUSH1 0x80 PUSH1 0x40 MSTORE PUSH6 0x9184E72A0000 PUSH1 0x1 SSTORE PUSH1 0x96 PUSH1 0x2 SSTORE PUSH1 0x14 PUSH1 0x3 SSTORE CALLER PUSH0 DUP1 PUSH2 0x100 EXP DUP2 SLOAD DUP2 PUSH20 0xFFFFFFFFFFFFFFFFFFFFFFFFFFFFFFFFFFFFFFFF MUL NOT AND SWAP1 DUP4 PUSH20 0xFFFFFFFFFFFFFFFFFFFFFFFFFFFFFFFFFFFFFFFF AND MUL OR SWAP1 SSTORE POP PUSH1 0x40 MLOAD DUP1 PUSH1 0x40 ADD PUSH1 0x40 MSTORE DUP1 PUSH6 0x2D79883D2000 DUP2 MSTORE PUSH1 0x20 ADD PUSH2 0x667 DUP2 MSTORE POP PUSH1 0x4 PUSH0 DUP1 PUSH1 0x2 DUP2 GT ISZERO PUSH3 0x8D JUMPI PUSH3 0x8C PUSH3 0x1A6 JUMP JUMPDEST JUMPDEST PUSH1 0x2 DUP2 GT ISZERO PUSH3 0xA2 JUMPI PUSH3 0xA1 PUSH3 0x1A6 JUMP JUMPDEST JUMPDEST DUP2 MSTORE PUSH1 0x20 ADD SWAP1 DUP2 MSTORE PUSH1 0x20 ADD PUSH0 KECCAK256 PUSH0 DUP3 ADD MLOAD DUP2 PUSH0 ADD SSTORE PUSH1 0x20 DUP3 ADD MLOAD DUP2 PUSH1 0x1 ADD SSTORE SWAP1 POP POP PUSH1 0x40 MLOAD DUP1 PUSH1 0x40 ADD PUSH1 0x40 MSTORE DUP1 PUSH6 0x6D23AD5F8000 DUP2 MSTORE PUSH1 0x20 ADD PUSH2 0x6B9 DUP2 MSTORE POP PUSH1 0x4 PUSH0 PUSH1 0x1 PUSH1 0x2 DUP2 GT ISZERO PUSH3 0xFB JUMPI PUSH3 0xFA PUSH3 0x1A6 JUMP JUMPDEST JUMPDEST PUSH1 0x2 DUP2 GT ISZERO PUSH3 0x110 JUMPI PUSH3 0x10F PUSH3 0x1A6 JUMP JUMPDEST JUMPDEST DUP2 MSTORE PUSH1 0x20 ADD SWAP1 DUP2 MSTORE PUSH1 0x20 ADD PUSH0 KECCAK256 PUSH0 DUP3 ADD MLOAD DUP2 PUSH0 ADD SSTORE PUSH1 0x20 DUP3 ADD MLOAD DUP2 PUSH1 0x1 ADD SSTORE SWAP1 POP POP PUSH1 0x40 MLOAD DUP1 PUSH1 0x40 ADD PUSH1 0x40 MSTORE DUP1 PUSH7 0x13E52B9ABE000 DUP2 MSTORE PUSH1 0x20 ADD PUSH2 0x70B DUP2 MSTORE POP PUSH1 0x4 PUSH0 PUSH1 0x2 DUP1 DUP2 GT ISZERO PUSH3 0x169 JUMPI PUSH3 0x168 PUSH3 0x1A6 JUMP JUMPDEST JUMPDEST PUSH1 0x2 DUP2 GT ISZERO PUSH3 0x17E JUMPI PUSH3 0x17D PUSH3 0x1A6 JUMP JUMPDEST JUMPDEST DUP2 MSTORE PUSH1 0x20 ADD SWAP1 DUP2 MSTORE PUSH1 0x20 ADD PUSH0 KECCAK256 PUSH0 DUP3 ADD MLOAD DUP2 PUSH0 ADD SSTORE PUSH1 0x20 DUP3 ADD MLOAD DUP2 PUSH1 0x1 ADD SSTORE SWAP1 POP POP PUSH3 0x1D3 JUMP JUMPDEST PUSH32 0x4E487B7100000000000000000000000000000000000000000000000000000000 PUSH0 MSTORE PUSH1 0x21 PUSH1 0x4 MSTORE PUSH1 0x24 PUSH0 REVERT JUMPDEST PUSH2 0x2B2F DUP1 PUSH3 0x1E1 PUSH0 CODECOPY PUSH0 RETURN INVALID PUSH1 0x80 PUSH1 0x40 MSTORE PUSH1 0x4 CALLDATASIZE LT PUSH2 0xC1 JUMPI PUSH0 CALLDATALOAD PUSH1 0xE0 SHR DUP1 PUSH4 0xA8E023EB GT PUSH2 0x7E JUMPI DUP1 PUSH4 0xCEF63600 GT PUSH2 0x58 JUMPI DUP1 PUSH4 0xCEF63600 EQ PUSH2 0x1FF JUMPI DUP1 PUSH4 0xD61909F9 EQ PUSH2 0x23B JUMPI DUP1 PUSH4 0xE7EBE5E0 EQ PUSH2 0x263 JUMPI DUP1 PUSH4 0xF82AC082 EQ PUSH2 0x29F JUMPI PUSH2 0xC1 JUMP JUMPDEST DUP1 PUSH4 0xA8E023EB EQ PUSH2 0x1CF JUMPI DUP1 PUSH4 0xBD097E21 EQ PUSH2 0x1EB JUMPI DUP1 PUSH4 0xBFD1A3A7 EQ PUSH2 0x1F5 JUMPI PUSH2 0xC1 JUMP JUMPDEST DUP1 PUSH4 0x1D9AEC76 EQ PUSH2 0xC5 JUMPI DUP1 PUSH4 0x245503E9 EQ PUSH2 0x101 JUMPI DUP1 PUSH4 0x41B5E38D EQ PUSH2 0x129 JUMPI DUP1 PUSH4 0x8DA5CB5B EQ PUSH2 0x151 JUMPI DUP1 PUSH4 0x958F85BD EQ PUSH2 0x17B JUMPI DUP1 PUSH4 0x9B36474A EQ PUSH2 0x1A5 JUMPI JUMPDEST PUSH0 DUP1 REVERT JUMPDEST CALLVALUE DUP1 ISZERO PUSH2 0xD0 JUMPI PUSH0 DUP1 REVERT JUMPDEST POP PUSH2 0xEB PUSH1 0x4 DUP1 CALLDATASIZE SUB DUP2 ADD SWAP1 PUSH2 0xE6 SWAP2 SWAP1 PUSH2 0x1EAA JUMP JUMPDEST PUSH2 0x2DB JUMP JUMPDEST PUSH1 0x40 MLOAD PUSH2 0xF8 SWAP2 SWAP1 PUSH2 0x1EED JUMP JUMPDEST PUSH1 0x40 MLOAD DUP1 SWAP2 SUB SWAP1 RETURN JUMPDEST CALLVALUE DUP1 ISZERO PUSH2 0x10C JUMPI PUSH0 DUP1 REVERT JUMPDEST POP PUSH2 0x127 PUSH1 0x4 DUP1 CALLDATASIZE SUB DUP2 ADD SWAP1 PUSH2 0x122 SWAP2 SWAP1 PUSH2 0x1F53 JUMP JUMPDEST PUSH2 0x2F0 JUMP JUMPDEST STOP JUMPDEST CALLVALUE DUP1 ISZERO PUSH2 0x134 JUMPI PUSH0 DUP1 REVERT JUMPDEST POP PUSH2 0x14F PUSH1 0x4 DUP1 CALLDATASIZE SUB DUP2 ADD SWAP1 PUSH2 0x14A SWAP2 SWAP1 PUSH2 0x1FA3 JUMP JUMPDEST PUSH2 0x39D JUMP JUMPDEST STOP JUMPDEST CALLVALUE DUP1 ISZERO PUSH2 0x15C JUMPI PUSH0 DUP1 REVERT JUMPDEST POP PUSH2 0x165 PUSH2 0x76C JUMP JUMPDEST PUSH1 0x40 MLOAD PUSH2 0x172 SWAP2 SWAP1 PUSH2 0x1FDD JUMP JUMPDEST PUSH1 0x40 MLOAD DUP1 SWAP2 SUB SWAP1 RETURN JUMPDEST CALLVALUE DUP1 ISZERO PUSH2 0x186 JUMPI PUSH0 DUP1 REVERT JUMPDEST POP PUSH2 0x18F PUSH2 0x824 JUMP JUMPDEST PUSH1 0x40 MLOAD PUSH2 0x19C SWAP2 SWAP1 PUSH2 0x2010 JUMP JUMPDEST PUSH1 0x40 MLOAD DUP1 SWAP2 SUB SWAP1 RETURN JUMPDEST CALLVALUE DUP1 ISZERO PUSH2 0x1B0 JUMPI PUSH0 DUP1 REVERT JUMPDEST POP PUSH2 0x1B9 PUSH2 0x8B7 JUMP JUMPDEST PUSH1 0x40 MLOAD PUSH2 0x1C6 SWAP2 SWAP1 PUSH2 0x21A0 JUMP JUMPDEST PUSH1 0x40 MLOAD DUP1 SWAP2 SUB SWAP1 RETURN JUMPDEST PUSH2 0x1E9 PUSH1 0x4 DUP1 CALLDATASIZE SUB DUP2 ADD SWAP1 PUSH2 0x1E4 SWAP2 SWAP1 PUSH2 0x21DD JUMP JUMPDEST PUSH2 0xAD4 JUMP JUMPDEST STOP JUMPDEST PUSH2 0x1F3 PUSH2 0xEEC JUMP JUMPDEST STOP JUMPDEST PUSH2 0x1FD PUSH2 0xF30 JUMP JUMPDEST STOP JUMPDEST CALLVALUE DUP1 ISZERO PUSH2 0x20A JUMPI PUSH0 DUP1 REVERT JUMPDEST POP PUSH2 0x225 PUSH1 0x4 DUP1 CALLDATASIZE SUB DUP2 ADD SWAP1 PUSH2 0x220 SWAP2 SWAP1 PUSH2 0x1FA3 JUMP JUMPDEST PUSH2 0x1175 JUMP JUMPDEST PUSH1 0x40 MLOAD PUSH2 0x232 SWAP2 SWAP1 PUSH2 0x1EED JUMP JUMPDEST PUSH1 0x40 MLOAD DUP1 SWAP2 SUB SWAP1 RETURN JUMPDEST CALLVALUE DUP1 ISZERO PUSH2 0x246 JUMPI PUSH0 DUP1 REVERT JUMPDEST POP PUSH2 0x261 PUSH1 0x4 DUP1 CALLDATASIZE SUB DUP2 ADD SWAP1 PUSH2 0x25C SWAP2 SWAP1 PUSH2 0x1FA3 JUMP JUMPDEST PUSH2 0x1442 JUMP JUMPDEST STOP JUMPDEST CALLVALUE DUP1 ISZERO PUSH2 0x26E JUMPI PUSH0 DUP1 REVERT JUMPDEST POP PUSH2 0x289 PUSH1 0x4 DUP1 CALLDATASIZE SUB DUP2 ADD SWAP1 PUSH2 0x284 SWAP2 SWAP1 PUSH2 0x2369 JUMP JUMPDEST PUSH2 0x1B1F JUMP JUMPDEST PUSH1 0x40 MLOAD PUSH2 0x296 SWAP2 SWAP1 PUSH2 0x1EED JUMP JUMPDEST PUSH1 0x40 MLOAD DUP1 SWAP2 SUB SWAP1 RETURN JUMPDEST CALLVALUE DUP1 ISZERO PUSH2 0x2AA JUMPI PUSH0 DUP1 REVERT JUMPDEST POP PUSH2 0x2C5 PUSH1 0x4 DUP1 CALLDATASIZE SUB DUP2 ADD SWAP1 PUSH2 0x2C0 SWAP2 SWAP1 PUSH2 0x23B0 JUMP JUMPDEST PUSH2 0x1B4C JUMP JUMPDEST PUSH1 0x40 MLOAD PUSH2 0x2D2 SWAP2 SWAP1 PUSH2 0x1EED JUMP JUMPDEST PUSH1 0x40 MLOAD DUP1 SWAP2 SUB SWAP1 RETURN JUMPDEST PUSH1 0x7 PUSH1 0x20 MSTORE DUP1 PUSH0 MSTORE PUSH1 0x40 PUSH0 KECCAK256 PUSH0 SWAP2 POP SWAP1 POP SLOAD DUP2 JUMP JUMPDEST PUSH0 DUP1 PUSH1 0x1 DUP2 GT ISZERO PUSH2 0x304 JUMPI PUSH2 0x303 PUSH2 0x2038 JUMP JUMPDEST JUMPDEST DUP4 PUSH1 0x1 DUP2 GT ISZERO PUSH2 0x317 JUMPI PUSH2 0x316 PUSH2 0x2038 JUMP JUMPDEST JUMPDEST EQ PUSH2 0x349 JUMPI PUSH2 0x325 DUP5 PUSH2 0x1B98 JUMP JUMPDEST PUSH1 0x40 MLOAD PUSH1 0x20 ADD PUSH2 0x335 SWAP2 SWAP1 PUSH2 0x2480 JUMP JUMPDEST PUSH1 0x40 MLOAD PUSH1 0x20 DUP2 DUP4 SUB SUB DUP2 MSTORE SWAP1 PUSH1 0x40 MSTORE PUSH2 0x372 JUMP JUMPDEST PUSH2 0x352 DUP5 PUSH2 0x1B98 JUMP JUMPDEST PUSH1 0x40 MLOAD PUSH1 0x20 ADD PUSH2 0x362 SWAP2 SWAP1 PUSH2 0x24CB JUMP JUMPDEST PUSH1 0x40 MLOAD PUSH1 0x20 DUP2 DUP4 SUB SUB DUP2 MSTORE SWAP1 PUSH1 0x40 MSTORE JUMPDEST SWAP1 POP DUP2 PUSH1 0x5 DUP3 PUSH1 0x40 MLOAD PUSH2 0x385 SWAP2 SWAP1 PUSH2 0x24F0 JUMP JUMPDEST SWAP1 DUP2 MSTORE PUSH1 0x20 ADD PUSH1 0x40 MLOAD DUP1 SWAP2 SUB SWAP1 KECCAK256 DUP2 SWAP1 SSTORE POP POP POP POP POP JUMP JUMPDEST PUSH0 PUSH1 0x6 PUSH0 CALLER PUSH20 0xFFFFFFFFFFFFFFFFFFFFFFFFFFFFFFFFFFFFFFFF AND PUSH20 0xFFFFFFFFFFFFFFFFFFFFFFFFFFFFFFFFFFFFFFFF AND DUP2 MSTORE PUSH1 0x20 ADD SWAP1 DUP2 MSTORE PUSH1 0x20 ADD PUSH0 KECCAK256 PUSH1 0x4 ADD SLOAD GT DUP1 ISZERO PUSH2 0x42B JUMPI POP TIMESTAMP PUSH1 0x6 PUSH0 CALLER PUSH20 0xFFFFFFFFFFFFFFFFFFFFFFFFFFFFFFFFFFFFFFFF AND PUSH20 0xFFFFFFFFFFFFFFFFFFFFFFFFFFFFFFFFFFFFFFFF AND DUP2 MSTORE PUSH1 0x20 ADD SWAP1 DUP2 MSTORE PUSH1 0x20 ADD PUSH0 KECCAK256 PUSH1 0x4 ADD SLOAD GT JUMPDEST PUSH2 0x46A JUMPI PUSH1 0x40 MLOAD PUSH32 0x8C379A000000000000000000000000000000000000000000000000000000000 DUP2 MSTORE PUSH1 0x4 ADD PUSH2 0x461 SWAP1 PUSH2 0x2560 JUMP JUMPDEST PUSH1 0x40 MLOAD DUP1 SWAP2 SUB SWAP1 REVERT JUMPDEST DUP1 DUP1 PUSH1 0x7 PUSH0 CALLER PUSH20 0xFFFFFFFFFFFFFFFFFFFFFFFFFFFFFFFFFFFFFFFF AND PUSH20 0xFFFFFFFFFFFFFFFFFFFFFFFFFFFFFFFFFFFFFFFF AND DUP2 MSTORE PUSH1 0x20 ADD SWAP1 DUP2 MSTORE PUSH1 0x20 ADD PUSH0 KECCAK256 SLOAD EQ PUSH2 0x4EA JUMPI PUSH1 0x40 MLOAD PUSH32 0x8C379A000000000000000000000000000000000000000000000000000000000 DUP2 MSTORE PUSH1 0x4 ADD PUSH2 0x4E1 SWAP1 PUSH2 0x25EE JUMP JUMPDEST PUSH1 0x40 MLOAD DUP1 SWAP2 SUB SWAP1 REVERT JUMPDEST DUP2 PUSH0 DUP1 PUSH1 0x1 DUP2 GT ISZERO PUSH2 0x4FF JUMPI PUSH2 0x4FE PUSH2 0x2038 JUMP JUMPDEST JUMPDEST PUSH1 0x6 PUSH0 CALLER PUSH20 0xFFFFFFFFFFFFFFFFFFFFFFFFFFFFFFFFFFFFFFFF AND PUSH20 0xFFFFFFFFFFFFFFFFFFFFFFFFFFFFFFFFFFFFFFFF AND DUP2 MSTORE PUSH1 0x20 ADD SWAP1 DUP2 MSTORE PUSH1 0x20 ADD PUSH0 KECCAK256 PUSH0 ADD PUSH1 0x14 SWAP1 SLOAD SWAP1 PUSH2 0x100 EXP SWAP1 DIV PUSH1 0xFF AND PUSH1 0x1 DUP2 GT ISZERO PUSH2 0x55E JUMPI PUSH2 0x55D PUSH2 0x2038 JUMP JUMPDEST JUMPDEST EQ SWAP1 POP PUSH0 DUP2 PUSH2 0x594 JUMPI PUSH2 0x570 DUP4 PUSH2 0x1B98 JUMP JUMPDEST PUSH1 0x40 MLOAD PUSH1 0x20 ADD PUSH2 0x580 SWAP2 SWAP1 PUSH2 0x2480 JUMP JUMPDEST PUSH1 0x40 MLOAD PUSH1 0x20 DUP2 DUP4 SUB SUB DUP2 MSTORE SWAP1 PUSH1 0x40 MSTORE PUSH2 0x5BD JUMP JUMPDEST PUSH2 0x59D DUP4 PUSH2 0x1B98 JUMP JUMPDEST PUSH1 0x40 MLOAD PUSH1 0x20 ADD PUSH2 0x5AD SWAP2 SWAP1 PUSH2 0x24CB JUMP JUMPDEST PUSH1 0x40 MLOAD PUSH1 0x20 DUP2 DUP4 SUB SUB DUP2 MSTORE SWAP1 PUSH1 0x40 MSTORE JUMPDEST SWAP1 POP PUSH0 PUSH1 0x5 DUP3 PUSH1 0x40 MLOAD PUSH2 0x5D0 SWAP2 SWAP1 PUSH2 0x24F0 JUMP JUMPDEST SWAP1 DUP2 MSTORE PUSH1 0x20 ADD PUSH1 0x40 MLOAD DUP1 SWAP2 SUB SWAP1 KECCAK256 SLOAD SUB PUSH2 0x61F JUMPI PUSH1 0x40 MLOAD PUSH32 0x8C379A000000000000000000000000000000000000000000000000000000000 DUP2 MSTORE PUSH1 0x4 ADD PUSH2 0x616 SWAP1 PUSH2 0x267C JUMP JUMPDEST PUSH1 0x40 MLOAD DUP1 SWAP2 SUB SWAP1 REVERT JUMPDEST PUSH0 PUSH2 0x629 DUP7 PUSH2 0x1175 JUMP JUMPDEST SWAP1 POP CALLER PUSH20 0xFFFFFFFFFFFFFFFFFFFFFFFFFFFFFFFFFFFFFFFF AND PUSH2 0x8FC DUP3 SWAP1 DUP2 ISZERO MUL SWAP1 PUSH1 0x40 MLOAD PUSH0 PUSH1 0x40 MLOAD DUP1 DUP4 SUB DUP2 DUP6 DUP9 DUP9 CALL SWAP4 POP POP POP POP ISZERO DUP1 ISZERO PUSH2 0x66E JUMPI RETURNDATASIZE PUSH0 DUP1 RETURNDATACOPY RETURNDATASIZE PUSH0 REVERT JUMPDEST POP PUSH2 0x6C6 PUSH4 0x1E13380 PUSH1 0x6 PUSH0 CALLER PUSH20 0xFFFFFFFFFFFFFFFFFFFFFFFFFFFFFFFFFFFFFFFF AND PUSH20 0xFFFFFFFFFFFFFFFFFFFFFFFFFFFFFFFFFFFFFFFF AND DUP2 MSTORE PUSH1 0x20 ADD SWAP1 DUP2 MSTORE PUSH1 0x20 ADD PUSH0 KECCAK256 PUSH1 0x5 ADD SLOAD PUSH2 0x1C62 SWAP1 SWAP2 SWAP1 PUSH4 0xFFFFFFFF AND JUMP JUMPDEST POP PUSH0 PUSH1 0x6 PUSH0 CALLER PUSH20 0xFFFFFFFFFFFFFFFFFFFFFFFFFFFFFFFFFFFFFFFF AND PUSH20 0xFFFFFFFFFFFFFFFFFFFFFFFFFFFFFFFFFFFFFFFF AND DUP2 MSTORE PUSH1 0x20 ADD SWAP1 DUP2 MSTORE PUSH1 0x20 ADD PUSH0 KECCAK256 PUSH1 0x4 ADD SLOAD GT ISZERO PUSH2 0x764 JUMPI PUSH1 0x1 PUSH1 0x7 PUSH0 CALLER PUSH20 0xFFFFFFFFFFFFFFFFFFFFFFFFFFFFFFFFFFFFFFFF AND PUSH20 0xFFFFFFFFFFFFFFFFFFFFFFFFFFFFFFFFFFFFFFFF AND DUP2 MSTORE PUSH1 0x20 ADD SWAP1 DUP2 MSTORE PUSH1 0x20 ADD PUSH0 KECCAK256 PUSH0 DUP3 DUP3 SLOAD PUSH2 0x75C SWAP2 SWAP1 PUSH2 0x26C7 JUMP JUMPDEST SWAP3 POP POP DUP2 SWAP1 SSTORE POP JUMPDEST POP POP POP POP POP POP JUMP JUMPDEST PUSH0 DUP1 PUSH0 DUP1 SLOAD SWAP1 PUSH2 0x100 EXP SWAP1 DIV PUSH20 0xFFFFFFFFFFFFFFFFFFFFFFFFFFFFFFFFFFFFFFFF AND PUSH20 0xFFFFFFFFFFFFFFFFFFFFFFFFFFFFFFFFFFFFFFFF AND CALLER PUSH20 0xFFFFFFFFFFFFFFFFFFFFFFFFFFFFFFFFFFFFFFFF AND EQ SWAP1 POP DUP1 PUSH2 0x7FE JUMPI PUSH1 0x40 MLOAD PUSH32 0x8C379A000000000000000000000000000000000000000000000000000000000 DUP2 MSTORE PUSH1 0x4 ADD PUSH2 0x7F5 SWAP1 PUSH2 0x276A JUMP JUMPDEST PUSH1 0x40 MLOAD DUP1 SWAP2 SUB SWAP1 REVERT JUMPDEST PUSH0 DUP1 SLOAD SWAP1 PUSH2 0x100 EXP SWAP1 DIV PUSH20 0xFFFFFFFFFFFFFFFFFFFFFFFFFFFFFFFFFFFFFFFF AND SWAP2 POP POP SWAP1 JUMP JUMPDEST PUSH0 DUP1 PUSH20 0xFFFFFFFFFFFFFFFFFFFFFFFFFFFFFFFFFFFFFFFF AND PUSH1 0x6 PUSH0 CALLER PUSH20 0xFFFFFFFFFFFFFFFFFFFFFFFFFFFFFFFFFFFFFFFF AND PUSH20 0xFFFFFFFFFFFFFFFFFFFFFFFFFFFFFFFFFFFFFFFF AND DUP2 MSTORE PUSH1 0x20 ADD SWAP1 DUP2 MSTORE PUSH1 0x20 ADD PUSH0 KECCAK256 PUSH0 ADD PUSH0 SWAP1 SLOAD SWAP1 PUSH2 0x100 EXP SWAP1 DIV PUSH20 0xFFFFFFFFFFFFFFFFFFFFFFFFFFFFFFFFFFFFFFFF AND PUSH20 0xFFFFFFFFFFFFFFFFFFFFFFFFFFFFFFFFFFFFFFFF AND EQ SWAP1 POP SWAP1 JUMP JUMPDEST PUSH2 0x8BF PUSH2 0x1DC8 JUMP JUMPDEST PUSH0 PUSH1 0x6 PUSH0 CALLER PUSH20 0xFFFFFFFFFFFFFFFFFFFFFFFFFFFFFFFFFFFFFFFF AND PUSH20 0xFFFFFFFFFFFFFFFFFFFFFFFFFFFFFFFFFFFFFFFF AND DUP2 MSTORE PUSH1 0x20 ADD SWAP1 DUP2 MSTORE PUSH1 0x20 ADD PUSH0 KECCAK256 PUSH1 0x4 ADD SLOAD GT DUP1 ISZERO PUSH2 0x94D JUMPI POP TIMESTAMP PUSH1 0x6 PUSH0 CALLER PUSH20 0xFFFFFFFFFFFFFFFFFFFFFFFFFFFFFFFFFFFFFFFF AND PUSH20 0xFFFFFFFFFFFFFFFFFFFFFFFFFFFFFFFFFFFFFFFF AND DUP2 MSTORE PUSH1 0x20 ADD SWAP1 DUP2 MSTORE PUSH1 0x20 ADD PUSH0 KECCAK256 PUSH1 0x4 ADD SLOAD GT JUMPDEST PUSH2 0x98C JUMPI PUSH1 0x40 MLOAD PUSH32 0x8C379A000000000000000000000000000000000000000000000000000000000 DUP2 MSTORE PUSH1 0x4 ADD PUSH2 0x983 SWAP1 PUSH2 0x2560 JUMP JUMPDEST PUSH1 0x40 MLOAD DUP1 SWAP2 SUB SWAP1 REVERT JUMPDEST PUSH1 0x6 PUSH0 CALLER PUSH20 0xFFFFFFFFFFFFFFFFFFFFFFFFFFFFFFFFFFFFFFFF AND PUSH20 0xFFFFFFFFFFFFFFFFFFFFFFFFFFFFFFFFFFFFFFFF AND DUP2 MSTORE PUSH1 0x20 ADD SWAP1 DUP2 MSTORE PUSH1 0x20 ADD PUSH0 KECCAK256 PUSH1 0x40 MLOAD DUP1 PUSH2 0x100 ADD PUSH1 0x40 MSTORE SWAP1 DUP2 PUSH0 DUP3 ADD PUSH0 SWAP1 SLOAD SWAP1 PUSH2 0x100 EXP SWAP1 DIV PUSH20 0xFFFFFFFFFFFFFFFFFFFFFFFFFFFFFFFFFFFFFFFF AND PUSH20 0xFFFFFFFFFFFFFFFFFFFFFFFFFFFFFFFFFFFFFFFF AND PUSH20 0xFFFFFFFFFFFFFFFFFFFFFFFFFFFFFFFFFFFFFFFF AND DUP2 MSTORE PUSH1 0x20 ADD PUSH0 DUP3 ADD PUSH1 0x14 SWAP1 SLOAD SWAP1 PUSH2 0x100 EXP SWAP1 DIV PUSH1 0xFF AND PUSH1 0x1 DUP2 GT ISZERO PUSH2 0xA4D JUMPI PUSH2 0xA4C PUSH2 0x2038 JUMP JUMPDEST JUMPDEST PUSH1 0x1 DUP2 GT ISZERO PUSH2 0xA5F JUMPI PUSH2 0xA5E PUSH2 0x2038 JUMP JUMPDEST JUMPDEST DUP2 MSTORE PUSH1 0x20 ADD PUSH0 DUP3 ADD PUSH1 0x15 SWAP1 SLOAD SWAP1 PUSH2 0x100 EXP SWAP1 DIV PUSH1 0xFF AND PUSH1 0x2 DUP2 GT ISZERO PUSH2 0xA87 JUMPI PUSH2 0xA86 PUSH2 0x2038 JUMP JUMPDEST JUMPDEST PUSH1 0x2 DUP2 GT ISZERO PUSH2 0xA99 JUMPI PUSH2 0xA98 PUSH2 0x2038 JUMP JUMPDEST JUMPDEST DUP2 MSTORE PUSH1 0x20 ADD PUSH1 0x1 DUP3 ADD SLOAD DUP2 MSTORE PUSH1 0x20 ADD PUSH1 0x2 DUP3 ADD SLOAD DUP2 MSTORE PUSH1 0x20 ADD PUSH1 0x3 DUP3 ADD SLOAD DUP2 MSTORE PUSH1 0x20 ADD PUSH1 0x4 DUP3 ADD SLOAD DUP2 MSTORE PUSH1 0x20 ADD PUSH1 0x5 DUP3 ADD SLOAD DUP2 MSTORE POP POP SWAP1 POP SWAP1 JUMP JUMPDEST PUSH0 PUSH1 0x6 PUSH0 CALLER PUSH20 0xFFFFFFFFFFFFFFFFFFFFFFFFFFFFFFFFFFFFFFFF AND PUSH20 0xFFFFFFFFFFFFFFFFFFFFFFFFFFFFFFFFFFFFFFFF AND DUP2 MSTORE PUSH1 0x20 ADD SWAP1 DUP2 MSTORE PUSH1 0x20 ADD PUSH0 KECCAK256 PUSH1 0x4 ADD SLOAD EQ DUP1 PUSH2 0xB61 JUMPI POP TIMESTAMP PUSH1 0x6 PUSH0 CALLER PUSH20 0xFFFFFFFFFFFFFFFFFFFFFFFFFFFFFFFFFFFFFFFF AND PUSH20 0xFFFFFFFFFFFFFFFFFFFFFFFFFFFFFFFFFFFFFFFF AND DUP2 MSTORE PUSH1 0x20 ADD SWAP1 DUP2 MSTORE PUSH1 0x20 ADD PUSH0 KECCAK256 PUSH1 0x4 ADD SLOAD LT JUMPDEST PUSH2 0xBA0 JUMPI PUSH1 0x40 MLOAD PUSH32 0x8C379A000000000000000000000000000000000000000000000000000000000 DUP2 MSTORE PUSH1 0x4 ADD PUSH2 0xB97 SWAP1 PUSH2 0x27D2 JUMP JUMPDEST PUSH1 0x40 MLOAD DUP1 SWAP2 SUB SWAP1 REVERT JUMPDEST DUP3 DUP3 PUSH0 DUP2 PUSH1 0x4 PUSH0 DUP6 PUSH1 0x2 DUP2 GT ISZERO PUSH2 0xBBA JUMPI PUSH2 0xBB9 PUSH2 0x2038 JUMP JUMPDEST JUMPDEST PUSH1 0x2 DUP2 GT ISZERO PUSH2 0xBCC JUMPI PUSH2 0xBCB PUSH2 0x2038 JUMP JUMPDEST JUMPDEST DUP2 MSTORE PUSH1 0x20 ADD SWAP1 DUP2 MSTORE PUSH1 0x20 ADD PUSH0 KECCAK256 PUSH0 ADD SLOAD PUSH2 0xBE6 SWAP2 SWAP1 PUSH2 0x27F0 JUMP JUMPDEST SWAP1 POP PUSH0 DUP2 CALLVALUE EQ SWAP1 POP DUP1 PUSH2 0xC2E JUMPI PUSH1 0x40 MLOAD PUSH32 0x8C379A000000000000000000000000000000000000000000000000000000000 DUP2 MSTORE PUSH1 0x4 ADD PUSH2 0xC25 SWAP1 PUSH2 0x28A1 JUMP JUMPDEST PUSH1 0x40 MLOAD DUP1 SWAP2 SUB SWAP1 REVERT JUMPDEST PUSH1 0x40 MLOAD DUP1 PUSH2 0x100 ADD PUSH1 0x40 MSTORE DUP1 CALLER PUSH20 0xFFFFFFFFFFFFFFFFFFFFFFFFFFFFFFFFFFFFFFFF AND DUP2 MSTORE PUSH1 0x20 ADD DUP7 PUSH1 0x1 DUP2 GT ISZERO PUSH2 0xC69 JUMPI PUSH2 0xC68 PUSH2 0x2038 JUMP JUMPDEST JUMPDEST DUP2 MSTORE PUSH1 0x20 ADD DUP9 PUSH1 0x2 DUP2 GT ISZERO PUSH2 0xC81 JUMPI PUSH2 0xC80 PUSH2 0x2038 JUMP JUMPDEST JUMPDEST DUP2 MSTORE PUSH1 0x20 ADD DUP8 DUP2 MSTORE PUSH1 0x20 ADD PUSH1 0x4 PUSH0 DUP11 PUSH1 0x2 DUP2 GT ISZERO PUSH2 0xCA2 JUMPI PUSH2 0xCA1 PUSH2 0x2038 JUMP JUMPDEST JUMPDEST PUSH1 0x2 DUP2 GT ISZERO PUSH2 0xCB4 JUMPI PUSH2 0xCB3 PUSH2 0x2038 JUMP JUMPDEST JUMPDEST DUP2 MSTORE PUSH1 0x20 ADD SWAP1 DUP2 MSTORE PUSH1 0x20 ADD PUSH0 KECCAK256 PUSH0 ADD SLOAD DUP9 PUSH2 0xCCF SWAP2 SWAP1 PUSH2 0x27F0 JUMP JUMPDEST DUP2 MSTORE PUSH1 0x20 ADD TIMESTAMP DUP2 MSTORE PUSH1 0x20 ADD PUSH2 0xCF1 PUSH4 0x1E13380 TIMESTAMP PUSH2 0x1C62 SWAP1 SWAP2 SWAP1 PUSH4 0xFFFFFFFF AND JUMP JUMPDEST DUP2 MSTORE PUSH1 0x20 ADD PUSH2 0xD0D PUSH4 0x1E13380 TIMESTAMP PUSH2 0x1C62 SWAP1 SWAP2 SWAP1 PUSH4 0xFFFFFFFF AND JUMP JUMPDEST DUP2 MSTORE POP PUSH1 0x6 PUSH0 CALLER PUSH20 0xFFFFFFFFFFFFFFFFFFFFFFFFFFFFFFFFFFFFFFFF AND PUSH20 0xFFFFFFFFFFFFFFFFFFFFFFFFFFFFFFFFFFFFFFFF AND DUP2 MSTORE PUSH1 0x20 ADD SWAP1 DUP2 MSTORE PUSH1 0x20 ADD PUSH0 KECCAK256 PUSH0 DUP3 ADD MLOAD DUP2 PUSH0 ADD PUSH0 PUSH2 0x100 EXP DUP2 SLOAD DUP2 PUSH20 0xFFFFFFFFFFFFFFFFFFFFFFFFFFFFFFFFFFFFFFFF MUL NOT AND SWAP1 DUP4 PUSH20 0xFFFFFFFFFFFFFFFFFFFFFFFFFFFFFFFFFFFFFFFF AND MUL OR SWAP1 SSTORE POP PUSH1 0x20 DUP3 ADD MLOAD DUP2 PUSH0 ADD PUSH1 0x14 PUSH2 0x100 EXP DUP2 SLOAD DUP2 PUSH1 0xFF MUL NOT AND SWAP1 DUP4 PUSH1 0x1 DUP2 GT ISZERO PUSH2 0xDBB JUMPI PUSH2 0xDBA PUSH2 0x2038 JUMP JUMPDEST JUMPDEST MUL OR SWAP1 SSTORE POP PUSH1 0x40 DUP3 ADD MLOAD DUP2 PUSH0 ADD PUSH1 0x15 PUSH2 0x100 EXP DUP2 SLOAD DUP2 PUSH1 0xFF MUL NOT AND SWAP1 DUP4 PUSH1 0x2 DUP2 GT ISZERO PUSH2 0xDEA JUMPI PUSH2 0xDE9 PUSH2 0x2038 JUMP JUMPDEST JUMPDEST MUL OR SWAP1 SSTORE POP PUSH1 0x60 DUP3 ADD MLOAD DUP2 PUSH1 0x1 ADD SSTORE PUSH1 0x80 DUP3 ADD MLOAD DUP2 PUSH1 0x2 ADD SSTORE PUSH1 0xA0 DUP3 ADD MLOAD DUP2 PUSH1 0x3 ADD SSTORE PUSH1 0xC0 DUP3 ADD MLOAD DUP2 PUSH1 0x4 ADD SSTORE PUSH1 0xE0 DUP3 ADD MLOAD DUP2 PUSH1 0x5 ADD SSTORE SWAP1 POP POP PUSH2 0x7B2 PUSH4 0x1E13380 TIMESTAMP PUSH2 0xE37 SWAP2 SWAP1 PUSH2 0x28EC JUMP JUMPDEST PUSH2 0xE41 SWAP2 SWAP1 PUSH2 0x26C7 JUMP JUMPDEST PUSH1 0x7 PUSH0 CALLER PUSH20 0xFFFFFFFFFFFFFFFFFFFFFFFFFFFFFFFFFFFFFFFF AND PUSH20 0xFFFFFFFFFFFFFFFFFFFFFFFFFFFFFFFFFFFFFFFF AND DUP2 MSTORE PUSH1 0x20 ADD SWAP1 DUP2 MSTORE PUSH1 0x20 ADD PUSH0 KECCAK256 DUP2 SWAP1 SSTORE POP PUSH1 0x9 PUSH0 CALLER PUSH20 0xFFFFFFFFFFFFFFFFFFFFFFFFFFFFFFFFFFFFFFFF AND PUSH20 0xFFFFFFFFFFFFFFFFFFFFFFFFFFFFFFFFFFFFFFFF AND DUP2 MSTORE PUSH1 0x20 ADD SWAP1 DUP2 MSTORE PUSH1 0x20 ADD PUSH0 KECCAK256 TIMESTAMP SWAP1 DUP1 PUSH1 0x1 DUP2 SLOAD ADD DUP1 DUP3 SSTORE DUP1 SWAP2 POP POP PUSH1 0x1 SWAP1 SUB SWAP1 PUSH0 MSTORE PUSH1 0x20 PUSH0 KECCAK256 ADD PUSH0 SWAP1 SWAP2 SWAP1 SWAP2 SWAP1 SWAP2 POP SSTORE POP POP POP POP POP POP POP JUMP JUMPDEST PUSH0 CALLVALUE GT PUSH2 0xF2E JUMPI PUSH1 0x40 MLOAD PUSH32 0x8C379A000000000000000000000000000000000000000000000000000000000 DUP2 MSTORE PUSH1 0x4 ADD PUSH2 0xF25 SWAP1 PUSH2 0x2966 JUMP JUMPDEST PUSH1 0x40 MLOAD DUP1 SWAP2 SUB SWAP1 REVERT JUMPDEST JUMP JUMPDEST PUSH0 PUSH1 0x6 PUSH0 CALLER PUSH20 0xFFFFFFFFFFFFFFFFFFFFFFFFFFFFFFFFFFFFFFFF AND PUSH20 0xFFFFFFFFFFFFFFFFFFFFFFFFFFFFFFFFFFFFFFFF AND DUP2 MSTORE PUSH1 0x20 ADD SWAP1 DUP2 MSTORE PUSH1 0x20 ADD PUSH0 KECCAK256 PUSH1 0x4 ADD SLOAD GT DUP1 ISZERO PUSH2 0xFBE JUMPI POP TIMESTAMP PUSH1 0x6 PUSH0 CALLER PUSH20 0xFFFFFFFFFFFFFFFFFFFFFFFFFFFFFFFFFFFFFFFF AND PUSH20 0xFFFFFFFFFFFFFFFFFFFFFFFFFFFFFFFFFFFFFFFF AND DUP2 MSTORE PUSH1 0x20 ADD SWAP1 DUP2 MSTORE PUSH1 0x20 ADD PUSH0 KECCAK256 PUSH1 0x4 ADD SLOAD GT JUMPDEST PUSH2 0xFFD JUMPI PUSH1 0x40 MLOAD PUSH32 0x8C379A000000000000000000000000000000000000000000000000000000000 DUP2 MSTORE PUSH1 0x4 ADD PUSH2 0xFF4 SWAP1 PUSH2 0x2560 JUMP JUMPDEST PUSH1 0x40 MLOAD DUP1 SWAP2 SUB SWAP1 REVERT JUMPDEST PUSH1 0x6 PUSH0 CALLER PUSH20 0xFFFFFFFFFFFFFFFFFFFFFFFFFFFFFFFFFFFFFFFF AND PUSH20 0xFFFFFFFFFFFFFFFFFFFFFFFFFFFFFFFFFFFFFFFF AND DUP2 MSTORE PUSH1 0x20 ADD SWAP1 DUP2 MSTORE PUSH1 0x20 ADD PUSH0 KECCAK256 PUSH0 ADD PUSH1 0x15 SWAP1 SLOAD SWAP1 PUSH2 0x100 EXP SWAP1 DIV PUSH1 0xFF AND PUSH1 0x6 PUSH0 CALLER PUSH20 0xFFFFFFFFFFFFFFFFFFFFFFFFFFFFFFFFFFFFFFFF AND PUSH20 0xFFFFFFFFFFFFFFFFFFFFFFFFFFFFFFFFFFFFFFFF AND DUP2 MSTORE PUSH1 0x20 ADD SWAP1 DUP2 MSTORE PUSH1 0x20 ADD PUSH0 KECCAK256 PUSH1 0x1 ADD SLOAD PUSH0 DUP2 PUSH1 0x4 PUSH0 DUP6 PUSH1 0x2 DUP2 GT ISZERO PUSH2 0x10A3 JUMPI PUSH2 0x10A2 PUSH2 0x2038 JUMP JUMPDEST JUMPDEST PUSH1 0x2 DUP2 GT ISZERO PUSH2 0x10B5 JUMPI PUSH2 0x10B4 PUSH2 0x2038 JUMP JUMPDEST JUMPDEST DUP2 MSTORE PUSH1 0x20 ADD SWAP1 DUP2 MSTORE PUSH1 0x20 ADD PUSH0 KECCAK256 PUSH0 ADD SLOAD PUSH2 0x10CF SWAP2 SWAP1 PUSH2 0x27F0 JUMP JUMPDEST SWAP1 POP PUSH0 DUP2 CALLVALUE EQ SWAP1 POP DUP1 PUSH2 0x1117 JUMPI PUSH1 0x40 MLOAD PUSH32 0x8C379A000000000000000000000000000000000000000000000000000000000 DUP2 MSTORE PUSH1 0x4 ADD PUSH2 0x110E SWAP1 PUSH2 0x28A1 JUMP JUMPDEST PUSH1 0x40 MLOAD DUP1 SWAP2 SUB SWAP1 REVERT JUMPDEST PUSH2 0x116E PUSH4 0x1E13380 PUSH1 0x6 PUSH0 CALLER PUSH20 0xFFFFFFFFFFFFFFFFFFFFFFFFFFFFFFFFFFFFFFFF AND PUSH20 0xFFFFFFFFFFFFFFFFFFFFFFFFFFFFFFFFFFFFFFFF AND DUP2 MSTORE PUSH1 0x20 ADD SWAP1 DUP2 MSTORE PUSH1 0x20 ADD PUSH0 KECCAK256 PUSH1 0x4 ADD SLOAD PUSH2 0x1C62 SWAP1 SWAP2 SWAP1 PUSH4 0xFFFFFFFF AND JUMP JUMPDEST POP POP POP POP POP JUMP JUMPDEST PUSH0 DUP1 PUSH1 0x6 PUSH0 CALLER PUSH20 0xFFFFFFFFFFFFFFFFFFFFFFFFFFFFFFFFFFFFFFFF AND PUSH20 0xFFFFFFFFFFFFFFFFFFFFFFFFFFFFFFFFFFFFFFFF AND DUP2 MSTORE PUSH1 0x20 ADD SWAP1 DUP2 MSTORE PUSH1 0x20 ADD PUSH0 KECCAK256 PUSH1 0x40 MLOAD DUP1 PUSH2 0x100 ADD PUSH1 0x40 MSTORE SWAP1 DUP2 PUSH0 DUP3 ADD PUSH0 SWAP1 SLOAD SWAP1 PUSH2 0x100 EXP SWAP1 DIV PUSH20 0xFFFFFFFFFFFFFFFFFFFFFFFFFFFFFFFFFFFFFFFF AND PUSH20 0xFFFFFFFFFFFFFFFFFFFFFFFFFFFFFFFFFFFFFFFF AND PUSH20 0xFFFFFFFFFFFFFFFFFFFFFFFFFFFFFFFFFFFFFFFF AND DUP2 MSTORE PUSH1 0x20 ADD PUSH0 DUP3 ADD PUSH1 0x14 SWAP1 SLOAD SWAP1 PUSH2 0x100 EXP SWAP1 DIV PUSH1 0xFF AND PUSH1 0x1 DUP2 GT ISZERO PUSH2 0x1238 JUMPI PUSH2 0x1237 PUSH2 0x2038 JUMP JUMPDEST JUMPDEST PUSH1 0x1 DUP2 GT ISZERO PUSH2 0x124A JUMPI PUSH2 0x1249 PUSH2 0x2038 JUMP JUMPDEST JUMPDEST DUP2 MSTORE PUSH1 0x20 ADD PUSH0 DUP3 ADD PUSH1 0x15 SWAP1 SLOAD SWAP1 PUSH2 0x100 EXP SWAP1 DIV PUSH1 0xFF AND PUSH1 0x2 DUP2 GT ISZERO PUSH2 0x1272 JUMPI PUSH2 0x1271 PUSH2 0x2038 JUMP JUMPDEST JUMPDEST PUSH1 0x2 DUP2 GT ISZERO PUSH2 0x1284 JUMPI PUSH2 0x1283 PUSH2 0x2038 JUMP JUMPDEST JUMPDEST DUP2 MSTORE PUSH1 0x20 ADD PUSH1 0x1 DUP3 ADD SLOAD DUP2 MSTORE PUSH1 0x20 ADD PUSH1 0x2 DUP3 ADD SLOAD DUP2 MSTORE PUSH1 0x20 ADD PUSH1 0x3 DUP3 ADD SLOAD DUP2 MSTORE PUSH1 0x20 ADD PUSH1 0x4 DUP3 ADD SLOAD DUP2 MSTORE PUSH1 0x20 ADD PUSH1 0x5 DUP3 ADD SLOAD DUP2 MSTORE POP POP SWAP1 POP PUSH0 DUP1 PUSH1 0x1 DUP2 GT ISZERO PUSH2 0x12D0 JUMPI PUSH2 0x12CF PUSH2 0x2038 JUMP JUMPDEST JUMPDEST DUP3 PUSH1 0x20 ADD MLOAD PUSH1 0x1 DUP2 GT ISZERO PUSH2 0x12E7 JUMPI PUSH2 0x12E6 PUSH2 0x2038 JUMP JUMPDEST JUMPDEST EQ PUSH2 0x1319 JUMPI PUSH2 0x12F5 DUP5 PUSH2 0x1B98 JUMP JUMPDEST PUSH1 0x40 MLOAD PUSH1 0x20 ADD PUSH2 0x1305 SWAP2 SWAP1 PUSH2 0x2480 JUMP JUMPDEST PUSH1 0x40 MLOAD PUSH1 0x20 DUP2 DUP4 SUB SUB DUP2 MSTORE SWAP1 PUSH1 0x40 MSTORE PUSH2 0x1342 JUMP JUMPDEST PUSH2 0x1322 DUP5 PUSH2 0x1B98 JUMP JUMPDEST PUSH1 0x40 MLOAD PUSH1 0x20 ADD PUSH2 0x1332 SWAP2 SWAP1 PUSH2 0x24CB JUMP JUMPDEST PUSH1 0x40 MLOAD PUSH1 0x20 DUP2 DUP4 SUB SUB DUP2 MSTORE SWAP1 PUSH1 0x40 MSTORE JUMPDEST SWAP1 POP PUSH0 PUSH1 0x5 DUP3 PUSH1 0x40 MLOAD PUSH2 0x1355 SWAP2 SWAP1 PUSH2 0x24F0 JUMP JUMPDEST SWAP1 DUP2 MSTORE PUSH1 0x20 ADD PUSH1 0x40 MLOAD DUP1 SWAP2 SUB SWAP1 KECCAK256 SLOAD SWAP1 POP PUSH0 DUP2 PUSH1 0x4 PUSH0 DUP7 PUSH1 0x40 ADD MLOAD PUSH1 0x2 DUP2 GT ISZERO PUSH2 0x1382 JUMPI PUSH2 0x1381 PUSH2 0x2038 JUMP JUMPDEST JUMPDEST PUSH1 0x2 DUP2 GT ISZERO PUSH2 0x1394 JUMPI PUSH2 0x1393 PUSH2 0x2038 JUMP JUMPDEST JUMPDEST DUP2 MSTORE PUSH1 0x20 ADD SWAP1 DUP2 MSTORE PUSH1 0x20 ADD PUSH0 KECCAK256 PUSH1 0x1 ADD SLOAD PUSH2 0x13AF SWAP2 SWAP1 PUSH2 0x2984 JUMP JUMPDEST SWAP1 POP PUSH0 PUSH1 0x1 SLOAD PUSH1 0x6 PUSH0 CALLER PUSH20 0xFFFFFFFFFFFFFFFFFFFFFFFFFFFFFFFFFFFFFFFF AND PUSH20 0xFFFFFFFFFFFFFFFFFFFFFFFFFFFFFFFFFFFFFFFF AND DUP2 MSTORE PUSH1 0x20 ADD SWAP1 DUP2 MSTORE PUSH1 0x20 ADD PUSH0 KECCAK256 PUSH1 0x1 ADD SLOAD PUSH1 0x3 SLOAD DUP5 PUSH1 0x2 SLOAD PUSH2 0x1407 SWAP2 SWAP1 PUSH2 0x27F0 JUMP JUMPDEST PUSH2 0x1411 SWAP2 SWAP1 PUSH2 0x27F0 JUMP JUMPDEST PUSH2 0x141B SWAP2 SWAP1 PUSH2 0x27F0 JUMP JUMPDEST PUSH2 0x1425 SWAP2 SWAP1 PUSH2 0x27F0 JUMP JUMPDEST SWAP1 POP PUSH3 0x186A0 DUP2 PUSH2 0x1436 SWAP2 SWAP1 PUSH2 0x28EC JUMP JUMPDEST SWAP6 POP POP POP POP POP POP SWAP2 SWAP1 POP JUMP JUMPDEST PUSH0 PUSH1 0x6 PUSH0 CALLER PUSH20 0xFFFFFFFFFFFFFFFFFFFFFFFFFFFFFFFFFFFFFFFF AND PUSH20 0xFFFFFFFFFFFFFFFFFFFFFFFFFFFFFFFFFFFFFFFF AND DUP2 MSTORE PUSH1 0x20 ADD SWAP1 DUP2 MSTORE PUSH1 0x20 ADD PUSH0 KECCAK256 PUSH1 0x4 ADD SLOAD GT DUP1 ISZERO PUSH2 0x14D0 JUMPI POP TIMESTAMP PUSH1 0x6 PUSH0 CALLER PUSH20 0xFFFFFFFFFFFFFFFFFFFFFFFFFFFFFFFFFFFFFFFF AND PUSH20 0xFFFFFFFFFFFFFFFFFFFFFFFFFFFFFFFFFFFFFFFF AND DUP2 MSTORE PUSH1 0x20 ADD SWAP1 DUP2 MSTORE PUSH1 0x20 ADD PUSH0 KECCAK256 PUSH1 0x4 ADD SLOAD GT JUMPDEST PUSH2 0x150F JUMPI PUSH1 0x40 MLOAD PUSH32 0x8C379A000000000000000000000000000000000000000000000000000000000 DUP2 MSTORE PUSH1 0x4 ADD PUSH2 0x1506 SWAP1 PUSH2 0x2560 JUMP JUMPDEST PUSH1 0x40 MLOAD DUP1 SWAP2 SUB SWAP1 REVERT JUMPDEST TIMESTAMP PUSH1 0x6 PUSH0 CALLER PUSH20 0xFFFFFFFFFFFFFFFFFFFFFFFFFFFFFFFFFFFFFFFF AND PUSH20 0xFFFFFFFFFFFFFFFFFFFFFFFFFFFFFFFFFFFFFFFF AND DUP2 MSTORE PUSH1 0x20 ADD SWAP1 DUP2 MSTORE PUSH1 0x20 ADD PUSH0 KECCAK256 PUSH1 0x5 ADD SLOAD LT PUSH2 0x1591 JUMPI PUSH1 0x40 MLOAD PUSH32 0x8C379A000000000000000000000000000000000000000000000000000000000 DUP2 MSTORE PUSH1 0x4 ADD PUSH2 0x1588 SWAP1 PUSH2 0x2A27 JUMP JUMPDEST PUSH1 0x40 MLOAD DUP1 SWAP2 SUB SWAP1 REVERT JUMPDEST DUP1 DUP1 PUSH1 0x7 PUSH0 CALLER PUSH20 0xFFFFFFFFFFFFFFFFFFFFFFFFFFFFFFFFFFFFFFFF AND PUSH20 0xFFFFFFFFFFFFFFFFFFFFFFFFFFFFFFFFFFFFFFFF AND DUP2 MSTORE PUSH1 0x20 ADD SWAP1 DUP2 MSTORE PUSH1 0x20 ADD PUSH0 KECCAK256 SLOAD EQ PUSH2 0x1611 JUMPI PUSH1 0x40 MLOAD PUSH32 0x8C379A000000000000000000000000000000000000000000000000000000000 DUP2 MSTORE PUSH1 0x4 ADD PUSH2 0x1608 SWAP1 PUSH2 0x25EE JUMP JUMPDEST PUSH1 0x40 MLOAD DUP1 SWAP2 SUB SWAP1 REVERT JUMPDEST DUP2 PUSH0 DUP1 PUSH1 0x1 DUP2 GT ISZERO PUSH2 0x1626 JUMPI PUSH2 0x1625 PUSH2 0x2038 JUMP JUMPDEST JUMPDEST PUSH1 0x6 PUSH0 CALLER PUSH20 0xFFFFFFFFFFFFFFFFFFFFFFFFFFFFFFFFFFFFFFFF AND PUSH20 0xFFFFFFFFFFFFFFFFFFFFFFFFFFFFFFFFFFFFFFFF AND DUP2 MSTORE PUSH1 0x20 ADD SWAP1 DUP2 MSTORE PUSH1 0x20 ADD PUSH0 KECCAK256 PUSH0 ADD PUSH1 0x14 SWAP1 SLOAD SWAP1 PUSH2 0x100 EXP SWAP1 DIV PUSH1 0xFF AND PUSH1 0x1 DUP2 GT ISZERO PUSH2 0x1685 JUMPI PUSH2 0x1684 PUSH2 0x2038 JUMP JUMPDEST JUMPDEST EQ SWAP1 POP PUSH0 DUP2 PUSH2 0x16BB JUMPI PUSH2 0x1697 DUP4 PUSH2 0x1B98 JUMP JUMPDEST PUSH1 0x40 MLOAD PUSH1 0x20 ADD PUSH2 0x16A7 SWAP2 SWAP1 PUSH2 0x2480 JUMP JUMPDEST PUSH1 0x40 MLOAD PUSH1 0x20 DUP2 DUP4 SUB SUB DUP2 MSTORE SWAP1 PUSH1 0x40 MSTORE PUSH2 0x16E4 JUMP JUMPDEST PUSH2 0x16C4 DUP4 PUSH2 0x1B98 JUMP JUMPDEST PUSH1 0x40 MLOAD PUSH1 0x20 ADD PUSH2 0x16D4 SWAP2 SWAP1 PUSH2 0x24CB JUMP JUMPDEST PUSH1 0x40 MLOAD PUSH1 0x20 DUP2 DUP4 SUB SUB DUP2 MSTORE SWAP1 PUSH1 0x40 MSTORE JUMPDEST SWAP1 POP PUSH0 PUSH1 0x5 DUP3 PUSH1 0x40 MLOAD PUSH2 0x16F7 SWAP2 SWAP1 PUSH2 0x24F0 JUMP JUMPDEST SWAP1 DUP2 MSTORE PUSH1 0x20 ADD PUSH1 0x40 MLOAD DUP1 SWAP2 SUB SWAP1 KECCAK256 SLOAD SUB PUSH2 0x1746 JUMPI PUSH1 0x40 MLOAD PUSH32 0x8C379A000000000000000000000000000000000000000000000000000000000 DUP2 MSTORE PUSH1 0x4 ADD PUSH2 0x173D SWAP1 PUSH2 0x267C JUMP JUMPDEST PUSH1 0x40 MLOAD DUP1 SWAP2 SUB SWAP1 REVERT JUMPDEST PUSH0 PUSH1 0x6 PUSH0 CALLER PUSH20 0xFFFFFFFFFFFFFFFFFFFFFFFFFFFFFFFFFFFFFFFF AND PUSH20 0xFFFFFFFFFFFFFFFFFFFFFFFFFFFFFFFFFFFFFFFF AND DUP2 MSTORE PUSH1 0x20 ADD SWAP1 DUP2 MSTORE PUSH1 0x20 ADD PUSH0 KECCAK256 PUSH1 0x40 MLOAD DUP1 PUSH2 0x100 ADD PUSH1 0x40 MSTORE SWAP1 DUP2 PUSH0 DUP3 ADD PUSH0 SWAP1 SLOAD SWAP1 PUSH2 0x100 EXP SWAP1 DIV PUSH20 0xFFFFFFFFFFFFFFFFFFFFFFFFFFFFFFFFFFFFFFFF AND PUSH20 0xFFFFFFFFFFFFFFFFFFFFFFFFFFFFFFFFFFFFFFFF AND PUSH20 0xFFFFFFFFFFFFFFFFFFFFFFFFFFFFFFFFFFFFFFFF AND DUP2 MSTORE PUSH1 0x20 ADD PUSH0 DUP3 ADD PUSH1 0x14 SWAP1 SLOAD SWAP1 PUSH2 0x100 EXP SWAP1 DIV PUSH1 0xFF AND PUSH1 0x1 DUP2 GT ISZERO PUSH2 0x1808 JUMPI PUSH2 0x1807 PUSH2 0x2038 JUMP JUMPDEST JUMPDEST PUSH1 0x1 DUP2 GT ISZERO PUSH2 0x181A JUMPI PUSH2 0x1819 PUSH2 0x2038 JUMP JUMPDEST JUMPDEST DUP2 MSTORE PUSH1 0x20 ADD PUSH0 DUP3 ADD PUSH1 0x15 SWAP1 SLOAD SWAP1 PUSH2 0x100 EXP SWAP1 DIV PUSH1 0xFF AND PUSH1 0x2 DUP2 GT ISZERO PUSH2 0x1842 JUMPI PUSH2 0x1841 PUSH2 0x2038 JUMP JUMPDEST JUMPDEST PUSH1 0x2 DUP2 GT ISZERO PUSH2 0x1854 JUMPI PUSH2 0x1853 PUSH2 0x2038 JUMP JUMPDEST JUMPDEST DUP2 MSTORE PUSH1 0x20 ADD PUSH1 0x1 DUP3 ADD SLOAD DUP2 MSTORE PUSH1 0x20 ADD PUSH1 0x2 DUP3 ADD SLOAD DUP2 MSTORE PUSH1 0x20 ADD PUSH1 0x3 DUP3 ADD SLOAD DUP2 MSTORE PUSH1 0x20 ADD PUSH1 0x4 DUP3 ADD SLOAD DUP2 MSTORE PUSH1 0x20 ADD PUSH1 0x5 DUP3 ADD SLOAD DUP2 MSTORE POP POP SWAP1 POP PUSH0 DUP1 PUSH1 0x1 DUP2 GT ISZERO PUSH2 0x18A0 JUMPI PUSH2 0x189F PUSH2 0x2038 JUMP JUMPDEST JUMPDEST DUP3 PUSH1 0x20 ADD MLOAD PUSH1 0x1 DUP2 GT ISZERO PUSH2 0x18B7 JUMPI PUSH2 0x18B6 PUSH2 0x2038 JUMP JUMPDEST JUMPDEST EQ PUSH2 0x18E9 JUMPI PUSH2 0x18C5 DUP8 PUSH2 0x1B98 JUMP JUMPDEST PUSH1 0x40 MLOAD PUSH1 0x20 ADD PUSH2 0x18D5 SWAP2 SWAP1 PUSH2 0x2480 JUMP JUMPDEST PUSH1 0x40 MLOAD PUSH1 0x20 DUP2 DUP4 SUB SUB DUP2 MSTORE SWAP1 PUSH1 0x40 MSTORE PUSH2 0x1912 JUMP JUMPDEST PUSH2 0x18F2 DUP8 PUSH2 0x1B98 JUMP JUMPDEST PUSH1 0x40 MLOAD PUSH1 0x20 ADD PUSH2 0x1902 SWAP2 SWAP1 PUSH2 0x24CB JUMP JUMPDEST PUSH1 0x40 MLOAD PUSH1 0x20 DUP2 DUP4 SUB SUB DUP2 MSTORE SWAP1 PUSH1 0x40 MSTORE JUMPDEST SWAP1 POP PUSH0 PUSH1 0x5 DUP3 PUSH1 0x40 MLOAD PUSH2 0x1925 SWAP2 SWAP1 PUSH2 0x24F0 JUMP JUMPDEST SWAP1 DUP2 MSTORE PUSH1 0x20 ADD PUSH1 0x40 MLOAD DUP1 SWAP2 SUB SWAP1 KECCAK256 SLOAD SWAP1 POP PUSH0 DUP2 PUSH1 0x4 PUSH0 DUP7 PUSH1 0x40 ADD MLOAD PUSH1 0x2 DUP2 GT ISZERO PUSH2 0x1952 JUMPI PUSH2 0x1951 PUSH2 0x2038 JUMP JUMPDEST JUMPDEST PUSH1 0x2 DUP2 GT ISZERO PUSH2 0x1964 JUMPI PUSH2 0x1963 PUSH2 0x2038 JUMP JUMPDEST JUMPDEST DUP2 MSTORE PUSH1 0x20 ADD SWAP1 DUP2 MSTORE PUSH1 0x20 ADD PUSH0 KECCAK256 PUSH1 0x1 ADD SLOAD PUSH2 0x197F SWAP2 SWAP1 PUSH2 0x2984 JUMP JUMPDEST SWAP1 POP PUSH0 DUP2 GT PUSH2 0x19C3 JUMPI PUSH1 0x40 MLOAD PUSH32 0x8C379A000000000000000000000000000000000000000000000000000000000 DUP2 MSTORE PUSH1 0x4 ADD PUSH2 0x19BA SWAP1 PUSH2 0x2ADB JUMP JUMPDEST PUSH1 0x40 MLOAD DUP1 SWAP2 SUB SWAP1 REVERT JUMPDEST PUSH0 PUSH1 0x1 SLOAD PUSH1 0x6 PUSH0 CALLER PUSH20 0xFFFFFFFFFFFFFFFFFFFFFFFFFFFFFFFFFFFFFFFF AND PUSH20 0xFFFFFFFFFFFFFFFFFFFFFFFFFFFFFFFFFFFFFFFF AND DUP2 MSTORE PUSH1 0x20 ADD SWAP1 DUP2 MSTORE PUSH1 0x20 ADD PUSH0 KECCAK256 PUSH1 0x1 ADD SLOAD PUSH1 0x64 PUSH1 0x3 SLOAD DUP6 PUSH2 0x3E8 PUSH1 0x2 SLOAD PUSH2 0x1A1E SWAP2 SWAP1 PUSH2 0x28EC JUMP JUMPDEST PUSH2 0x1A28 SWAP2 SWAP1 PUSH2 0x27F0 JUMP JUMPDEST PUSH2 0x1A32 SWAP2 SWAP1 PUSH2 0x27F0 JUMP JUMPDEST PUSH2 0x1A3C SWAP2 SWAP1 PUSH2 0x28EC JUMP JUMPDEST PUSH2 0x1A46 SWAP2 SWAP1 PUSH2 0x27F0 JUMP JUMPDEST PUSH2 0x1A50 SWAP2 SWAP1 PUSH2 0x27F0 JUMP JUMPDEST SWAP1 POP CALLER PUSH20 0xFFFFFFFFFFFFFFFFFFFFFFFFFFFFFFFFFFFFFFFF AND PUSH2 0x8FC DUP3 SWAP1 DUP2 ISZERO MUL SWAP1 PUSH1 0x40 MLOAD PUSH0 PUSH1 0x40 MLOAD DUP1 DUP4 SUB DUP2 DUP6 DUP9 DUP9 CALL SWAP4 POP POP POP POP ISZERO DUP1 ISZERO PUSH2 0x1A95 JUMPI RETURNDATASIZE PUSH0 DUP1 RETURNDATACOPY RETURNDATASIZE PUSH0 REVERT JUMPDEST POP PUSH2 0x1AB1 PUSH4 0x1E13380 DUP7 PUSH1 0xE0 ADD MLOAD PUSH2 0x1C62 SWAP1 SWAP2 SWAP1 PUSH4 0xFFFFFFFF AND JUMP JUMPDEST POP PUSH0 DUP6 PUSH1 0xC0 ADD MLOAD GT ISZERO PUSH2 0x1B13 JUMPI PUSH1 0x1 PUSH1 0x7 PUSH0 CALLER PUSH20 0xFFFFFFFFFFFFFFFFFFFFFFFFFFFFFFFFFFFFFFFF AND PUSH20 0xFFFFFFFFFFFFFFFFFFFFFFFFFFFFFFFFFFFFFFFF AND DUP2 MSTORE PUSH1 0x20 ADD SWAP1 DUP2 MSTORE PUSH1 0x20 ADD PUSH0 KECCAK256 PUSH0 DUP3 DUP3 SLOAD PUSH2 0x1B0B SWAP2 SWAP1 PUSH2 0x26C7 JUMP JUMPDEST SWAP3 POP POP DUP2 SWAP1 SSTORE POP JUMPDEST POP POP POP POP POP POP POP POP POP POP JUMP JUMPDEST PUSH1 0x5 DUP2 DUP1 MLOAD PUSH1 0x20 DUP2 ADD DUP3 ADD DUP1 MLOAD DUP5 DUP3 MSTORE PUSH1 0x20 DUP4 ADD PUSH1 0x20 DUP6 ADD KECCAK256 DUP2 DUP4 MSTORE DUP1 SWAP6 POP POP POP POP POP POP PUSH0 SWAP2 POP SWAP1 POP SLOAD DUP2 JUMP JUMPDEST PUSH0 PUSH1 0x4 PUSH0 DUP5 PUSH1 0x2 DUP2 GT ISZERO PUSH2 0x1B63 JUMPI PUSH2 0x1B62 PUSH2 0x2038 JUMP JUMPDEST JUMPDEST PUSH1 0x2 DUP2 GT ISZERO PUSH2 0x1B75 JUMPI PUSH2 0x1B74 PUSH2 0x2038 JUMP JUMPDEST JUMPDEST DUP2 MSTORE PUSH1 0x20 ADD SWAP1 DUP2 MSTORE PUSH1 0x20 ADD PUSH0 KECCAK256 PUSH0 ADD SLOAD DUP3 PUSH2 0x1B90 SWAP2 SWAP1 PUSH2 0x27F0 JUMP JUMPDEST SWAP1 POP SWAP3 SWAP2 POP POP JUMP JUMPDEST PUSH1 0x60 PUSH0 PUSH1 0x1 PUSH2 0x1BA6 DUP5 PUSH2 0x1C77 JUMP JUMPDEST ADD SWAP1 POP PUSH0 DUP2 PUSH8 0xFFFFFFFFFFFFFFFF DUP2 GT ISZERO PUSH2 0x1BC4 JUMPI PUSH2 0x1BC3 PUSH2 0x2245 JUMP JUMPDEST JUMPDEST PUSH1 0x40 MLOAD SWAP1 DUP1 DUP3 MSTORE DUP1 PUSH1 0x1F ADD PUSH1 0x1F NOT AND PUSH1 0x20 ADD DUP3 ADD PUSH1 0x40 MSTORE DUP1 ISZERO PUSH2 0x1BF6 JUMPI DUP2 PUSH1 0x20 ADD PUSH1 0x1 DUP3 MUL DUP1 CALLDATASIZE DUP4 CALLDATACOPY DUP1 DUP3 ADD SWAP2 POP POP SWAP1 POP JUMPDEST POP SWAP1 POP PUSH0 DUP3 PUSH1 0x20 ADD DUP3 ADD SWAP1 POP JUMPDEST PUSH1 0x1 ISZERO PUSH2 0x1C57 JUMPI DUP1 DUP1 PUSH1 0x1 SWAP1 SUB SWAP2 POP POP PUSH32 0x3031323334353637383961626364656600000000000000000000000000000000 PUSH1 0xA DUP7 MOD BYTE DUP2 MSTORE8 PUSH1 0xA DUP6 DUP2 PUSH2 0x1C4C JUMPI PUSH2 0x1C4B PUSH2 0x28BF JUMP JUMPDEST JUMPDEST DIV SWAP5 POP PUSH0 DUP6 SUB PUSH2 0x1C03 JUMPI JUMPDEST DUP2 SWAP4 POP POP POP POP SWAP2 SWAP1 POP JUMP JUMPDEST PUSH0 DUP2 DUP4 PUSH2 0x1C6F SWAP2 SWAP1 PUSH2 0x26C7 JUMP JUMPDEST SWAP1 POP SWAP3 SWAP2 POP POP JUMP JUMPDEST PUSH0 DUP1 PUSH0 SWAP1 POP PUSH27 0x184F03E93FF9F4DAA797ED6E38ED64BF6A1F010000000000000000 DUP4 LT PUSH2 0x1CD3 JUMPI PUSH27 0x184F03E93FF9F4DAA797ED6E38ED64BF6A1F010000000000000000 DUP4 DUP2 PUSH2 0x1CC9 JUMPI PUSH2 0x1CC8 PUSH2 0x28BF JUMP JUMPDEST JUMPDEST DIV SWAP3 POP PUSH1 0x40 DUP2 ADD SWAP1 POP JUMPDEST PUSH14 0x4EE2D6D415B85ACEF8100000000 DUP4 LT PUSH2 0x1D10 JUMPI PUSH14 0x4EE2D6D415B85ACEF8100000000 DUP4 DUP2 PUSH2 0x1D06 JUMPI PUSH2 0x1D05 PUSH2 0x28BF JUMP JUMPDEST JUMPDEST DIV SWAP3 POP PUSH1 0x20 DUP2 ADD SWAP1 POP JUMPDEST PUSH7 0x2386F26FC10000 DUP4 LT PUSH2 0x1D3F JUMPI PUSH7 0x2386F26FC10000 DUP4 DUP2 PUSH2 0x1D35 JUMPI PUSH2 0x1D34 PUSH2 0x28BF JUMP JUMPDEST JUMPDEST DIV SWAP3 POP PUSH1 0x10 DUP2 ADD SWAP1 POP JUMPDEST PUSH4 0x5F5E100 DUP4 LT PUSH2 0x1D68 JUMPI PUSH4 0x5F5E100 DUP4 DUP2 PUSH2 0x1D5E JUMPI PUSH2 0x1D5D PUSH2 0x28BF JUMP JUMPDEST JUMPDEST DIV SWAP3 POP PUSH1 0x8 DUP2 ADD SWAP1 POP JUMPDEST PUSH2 0x2710 DUP4 LT PUSH2 0x1D8D JUMPI PUSH2 0x2710 DUP4 DUP2 PUSH2 0x1D83 JUMPI PUSH2 0x1D82 PUSH2 0x28BF JUMP JUMPDEST JUMPDEST DIV SWAP3 POP PUSH1 0x4 DUP2 ADD SWAP1 POP JUMPDEST PUSH1 0x64 DUP4 LT PUSH2 0x1DB0 JUMPI PUSH1 0x64 DUP4 DUP2 PUSH2 0x1DA6 JUMPI PUSH2 0x1DA5 PUSH2 0x28BF JUMP JUMPDEST JUMPDEST DIV SWAP3 POP PUSH1 0x2 DUP2 ADD SWAP1 POP JUMPDEST PUSH1 0xA DUP4 LT PUSH2 0x1DBF JUMPI PUSH1 0x1 DUP2 ADD SWAP1 POP JUMPDEST DUP1 SWAP2 POP POP SWAP2 SWAP1 POP JUMP JUMPDEST PUSH1 0x40 MLOAD DUP1 PUSH2 0x100 ADD PUSH1 0x40 MSTORE DUP1 PUSH0 PUSH20 0xFFFFFFFFFFFFFFFFFFFFFFFFFFFFFFFFFFFFFFFF AND DUP2 MSTORE PUSH1 0x20 ADD PUSH0 PUSH1 0x1 DUP2 GT ISZERO PUSH2 0x1E03 JUMPI PUSH2 0x1E02 PUSH2 0x2038 JUMP JUMPDEST JUMPDEST DUP2 MSTORE PUSH1 0x20 ADD PUSH0 PUSH1 0x2 DUP2 GT ISZERO PUSH2 0x1E1B JUMPI PUSH2 0x1E1A PUSH2 0x2038 JUMP JUMPDEST JUMPDEST DUP2 MSTORE PUSH1 0x20 ADD PUSH0 DUP2 MSTORE PUSH1 0x20 ADD PUSH0 DUP2 MSTORE PUSH1 0x20 ADD PUSH0 DUP2 MSTORE PUSH1 0x20 ADD PUSH0 DUP2 MSTORE PUSH1 0x20 ADD PUSH0 DUP2 MSTORE POP SWAP1 JUMP JUMPDEST PUSH0 PUSH1 0x40 MLOAD SWAP1 POP SWAP1 JUMP JUMPDEST PUSH0 DUP1 REVERT JUMPDEST PUSH0 DUP1 REVERT JUMPDEST PUSH0 PUSH20 0xFFFFFFFFFFFFFFFFFFFFFFFFFFFFFFFFFFFFFFFF DUP3 AND SWAP1 POP SWAP2 SWAP1 POP JUMP JUMPDEST PUSH0 PUSH2 0x1E79 DUP3 PUSH2 0x1E50 JUMP JUMPDEST SWAP1 POP SWAP2 SWAP1 POP JUMP JUMPDEST PUSH2 0x1E89 DUP2 PUSH2 0x1E6F JUMP JUMPDEST DUP2 EQ PUSH2 0x1E93 JUMPI PUSH0 DUP1 REVERT JUMPDEST POP JUMP JUMPDEST PUSH0 DUP2 CALLDATALOAD SWAP1 POP PUSH2 0x1EA4 DUP2 PUSH2 0x1E80 JUMP JUMPDEST SWAP3 SWAP2 POP POP JUMP JUMPDEST PUSH0 PUSH1 0x20 DUP3 DUP5 SUB SLT ISZERO PUSH2 0x1EBF JUMPI PUSH2 0x1EBE PUSH2 0x1E48 JUMP JUMPDEST JUMPDEST PUSH0 PUSH2 0x1ECC DUP5 DUP3 DUP6 ADD PUSH2 0x1E96 JUMP JUMPDEST SWAP2 POP POP SWAP3 SWAP2 POP POP JUMP JUMPDEST PUSH0 DUP2 SWAP1 POP SWAP2 SWAP1 POP JUMP JUMPDEST PUSH2 0x1EE7 DUP2 PUSH2 0x1ED5 JUMP JUMPDEST DUP3 MSTORE POP POP JUMP JUMPDEST PUSH0 PUSH1 0x20 DUP3 ADD SWAP1 POP PUSH2 0x1F00 PUSH0 DUP4 ADD DUP5 PUSH2 0x1EDE JUMP JUMPDEST SWAP3 SWAP2 POP POP JUMP JUMPDEST PUSH2 0x1F0F DUP2 PUSH2 0x1ED5 JUMP JUMPDEST DUP2 EQ PUSH2 0x1F19 JUMPI PUSH0 DUP1 REVERT JUMPDEST POP JUMP JUMPDEST PUSH0 DUP2 CALLDATALOAD SWAP1 POP PUSH2 0x1F2A DUP2 PUSH2 0x1F06 JUMP JUMPDEST SWAP3 SWAP2 POP POP JUMP JUMPDEST PUSH1 0x2 DUP2 LT PUSH2 0x1F3C JUMPI PUSH0 DUP1 REVERT JUMPDEST POP JUMP JUMPDEST PUSH0 DUP2 CALLDATALOAD SWAP1 POP PUSH2 0x1F4D DUP2 PUSH2 0x1F30 JUMP JUMPDEST SWAP3 SWAP2 POP POP JUMP JUMPDEST PUSH0 DUP1 PUSH0 PUSH1 0x60 DUP5 DUP7 SUB SLT ISZERO PUSH2 0x1F6A JUMPI PUSH2 0x1F69 PUSH2 0x1E48 JUMP JUMPDEST JUMPDEST PUSH0 PUSH2 0x1F77 DUP7 DUP3 DUP8 ADD PUSH2 0x1F1C JUMP JUMPDEST SWAP4 POP POP PUSH1 0x20 PUSH2 0x1F88 DUP7 DUP3 DUP8 ADD PUSH2 0x1F3F JUMP JUMPDEST SWAP3 POP POP PUSH1 0x40 PUSH2 0x1F99 DUP7 DUP3 DUP8 ADD PUSH2 0x1F1C JUMP JUMPDEST SWAP2 POP POP SWAP3 POP SWAP3 POP SWAP3 JUMP JUMPDEST PUSH0 PUSH1 0x20 DUP3 DUP5 SUB SLT ISZERO PUSH2 0x1FB8 JUMPI PUSH2 0x1FB7 PUSH2 0x1E48 JUMP JUMPDEST JUMPDEST PUSH0 PUSH2 0x1FC5 DUP5 DUP3 DUP6 ADD PUSH2 0x1F1C JUMP JUMPDEST SWAP2 POP POP SWAP3 SWAP2 POP POP JUMP JUMPDEST PUSH2 0x1FD7 DUP2 PUSH2 0x1E6F JUMP JUMPDEST DUP3 MSTORE POP POP JUMP JUMPDEST PUSH0 PUSH1 0x20 DUP3 ADD SWAP1 POP PUSH2 0x1FF0 PUSH0 DUP4 ADD DUP5 PUSH2 0x1FCE JUMP JUMPDEST SWAP3 SWAP2 POP POP JUMP JUMPDEST PUSH0 DUP2 ISZERO ISZERO SWAP1 POP SWAP2 SWAP1 POP JUMP JUMPDEST PUSH2 0x200A DUP2 PUSH2 0x1FF6 JUMP JUMPDEST DUP3 MSTORE POP POP JUMP JUMPDEST PUSH0 PUSH1 0x20 DUP3 ADD SWAP1 POP PUSH2 0x2023 PUSH0 DUP4 ADD DUP5 PUSH2 0x2001 JUMP JUMPDEST SWAP3 SWAP2 POP POP JUMP JUMPDEST PUSH2 0x2032 DUP2 PUSH2 0x1E6F JUMP JUMPDEST DUP3 MSTORE POP POP JUMP JUMPDEST PUSH32 0x4E487B7100000000000000000000000000000000000000000000000000000000 PUSH0 MSTORE PUSH1 0x21 PUSH1 0x4 MSTORE PUSH1 0x24 PUSH0 REVERT JUMPDEST PUSH1 0x2 DUP2 LT PUSH2 0x2076 JUMPI PUSH2 0x2075 PUSH2 0x2038 JUMP JUMPDEST JUMPDEST POP JUMP JUMPDEST PUSH0 DUP2 SWAP1 POP PUSH2 0x2086 DUP3 PUSH2 0x2065 JUMP JUMPDEST SWAP2 SWAP1 POP JUMP JUMPDEST PUSH0 PUSH2 0x2095 DUP3 PUSH2 0x2079 JUMP JUMPDEST SWAP1 POP SWAP2 SWAP1 POP JUMP JUMPDEST PUSH2 0x20A5 DUP2 PUSH2 0x208B JUMP JUMPDEST DUP3 MSTORE POP POP JUMP JUMPDEST PUSH1 0x3 DUP2 LT PUSH2 0x20BC JUMPI PUSH2 0x20BB PUSH2 0x2038 JUMP JUMPDEST JUMPDEST POP JUMP JUMPDEST PUSH0 DUP2 SWAP1 POP PUSH2 0x20CC DUP3 PUSH2 0x20AB JUMP JUMPDEST SWAP2 SWAP1 POP JUMP JUMPDEST PUSH0 PUSH2 0x20DB DUP3 PUSH2 0x20BF JUMP JUMPDEST SWAP1 POP SWAP2 SWAP1 POP JUMP JUMPDEST PUSH2 0x20EB DUP2 PUSH2 0x20D1 JUMP JUMPDEST DUP3 MSTORE POP POP JUMP JUMPDEST PUSH2 0x20FA DUP2 PUSH2 0x1ED5 JUMP JUMPDEST DUP3 MSTORE POP POP JUMP JUMPDEST PUSH2 0x100 DUP3 ADD PUSH0 DUP3 ADD MLOAD PUSH2 0x2115 PUSH0 DUP6 ADD DUP3 PUSH2 0x2029 JUMP JUMPDEST POP PUSH1 0x20 DUP3 ADD MLOAD PUSH2 0x2128 PUSH1 0x20 DUP6 ADD DUP3 PUSH2 0x209C JUMP JUMPDEST POP PUSH1 0x40 DUP3 ADD MLOAD PUSH2 0x213B PUSH1 0x40 DUP6 ADD DUP3 PUSH2 0x20E2 JUMP JUMPDEST POP PUSH1 0x60 DUP3 ADD MLOAD PUSH2 0x214E PUSH1 0x60 DUP6 ADD DUP3 PUSH2 0x20F1 JUMP JUMPDEST POP PUSH1 0x80 DUP3 ADD MLOAD PUSH2 0x2161 PUSH1 0x80 DUP6 ADD DUP3 PUSH2 0x20F1 JUMP JUMPDEST POP PUSH1 0xA0 DUP3 ADD MLOAD PUSH2 0x2174 PUSH1 0xA0 DUP6 ADD DUP3 PUSH2 0x20F1 JUMP JUMPDEST POP PUSH1 0xC0 DUP3 ADD MLOAD PUSH2 0x2187 PUSH1 0xC0 DUP6 ADD DUP3 PUSH2 0x20F1 JUMP JUMPDEST POP PUSH1 0xE0 DUP3 ADD MLOAD PUSH2 0x219A PUSH1 0xE0 DUP6 ADD DUP3 PUSH2 0x20F1 JUMP JUMPDEST POP POP POP POP JUMP JUMPDEST PUSH0 PUSH2 0x100 DUP3 ADD SWAP1 POP PUSH2 0x21B4 PUSH0 DUP4 ADD DUP5 PUSH2 0x2100 JUMP JUMPDEST SWAP3 SWAP2 POP POP JUMP JUMPDEST PUSH1 0x3 DUP2 LT PUSH2 0x21C6 JUMPI PUSH0 DUP1 REVERT JUMPDEST POP JUMP JUMPDEST PUSH0 DUP2 CALLDATALOAD SWAP1 POP PUSH2 0x21D7 DUP2 PUSH2 0x21BA JUMP JUMPDEST SWAP3 SWAP2 POP POP JUMP JUMPDEST PUSH0 DUP1 PUSH0 PUSH1 0x60 DUP5 DUP7 SUB SLT ISZERO PUSH2 0x21F4 JUMPI PUSH2 0x21F3 PUSH2 0x1E48 JUMP JUMPDEST JUMPDEST PUSH0 PUSH2 0x2201 DUP7 DUP3 DUP8 ADD PUSH2 0x21C9 JUMP JUMPDEST SWAP4 POP POP PUSH1 0x20 PUSH2 0x2212 DUP7 DUP3 DUP8 ADD PUSH2 0x1F1C JUMP JUMPDEST SWAP3 POP POP PUSH1 0x40 PUSH2 0x2223 DUP7 DUP3 DUP8 ADD PUSH2 0x1F3F JUMP JUMPDEST SWAP2 POP POP SWAP3 POP SWAP3 POP SWAP3 JUMP JUMPDEST PUSH0 DUP1 REVERT JUMPDEST PUSH0 DUP1 REVERT JUMPDEST PUSH0 PUSH1 0x1F NOT PUSH1 0x1F DUP4 ADD AND SWAP1 POP SWAP2 SWAP1 POP JUMP JUMPDEST PUSH32 0x4E487B7100000000000000000000000000000000000000000000000000000000 PUSH0 MSTORE PUSH1 0x41 PUSH1 0x4 MSTORE PUSH1 0x24 PUSH0 REVERT JUMPDEST PUSH2 0x227B DUP3 PUSH2 0x2235 JUMP JUMPDEST DUP2 ADD DUP2 DUP2 LT PUSH8 0xFFFFFFFFFFFFFFFF DUP3 GT OR ISZERO PUSH2 0x229A JUMPI PUSH2 0x2299 PUSH2 0x2245 JUMP JUMPDEST JUMPDEST DUP1 PUSH1 0x40 MSTORE POP POP POP JUMP JUMPDEST PUSH0 PUSH2 0x22AC PUSH2 0x1E3F JUMP JUMPDEST SWAP1 POP PUSH2 0x22B8 DUP3 DUP3 PUSH2 0x2272 JUMP JUMPDEST SWAP2 SWAP1 POP JUMP JUMPDEST PUSH0 PUSH8 0xFFFFFFFFFFFFFFFF DUP3 GT ISZERO PUSH2 0x22D7 JUMPI PUSH2 0x22D6 PUSH2 0x2245 JUMP JUMPDEST JUMPDEST PUSH2 0x22E0 DUP3 PUSH2 0x2235 JUMP JUMPDEST SWAP1 POP PUSH1 0x20 DUP2 ADD SWAP1 POP SWAP2 SWAP1 POP JUMP JUMPDEST DUP3 DUP2 DUP4 CALLDATACOPY PUSH0 DUP4 DUP4 ADD MSTORE POP POP POP JUMP JUMPDEST PUSH0 PUSH2 0x230D PUSH2 0x2308 DUP5 PUSH2 0x22BD JUMP JUMPDEST PUSH2 0x22A3 JUMP JUMPDEST SWAP1 POP DUP3 DUP2 MSTORE PUSH1 0x20 DUP2 ADD DUP5 DUP5 DUP5 ADD GT ISZERO PUSH2 0x2329 JUMPI PUSH2 0x2328 PUSH2 0x2231 JUMP JUMPDEST JUMPDEST PUSH2 0x2334 DUP5 DUP3 DUP6 PUSH2 0x22ED JUMP JUMPDEST POP SWAP4 SWAP3 POP POP POP JUMP JUMPDEST PUSH0 DUP3 PUSH1 0x1F DUP4 ADD SLT PUSH2 0x2350 JUMPI PUSH2 0x234F PUSH2 0x222D JUMP JUMPDEST JUMPDEST DUP2 CALLDATALOAD PUSH2 0x2360 DUP5 DUP3 PUSH1 0x20 DUP7 ADD PUSH2 0x22FB JUMP JUMPDEST SWAP2 POP POP SWAP3 SWAP2 POP POP JUMP JUMPDEST PUSH0 PUSH1 0x20 DUP3 DUP5 SUB SLT ISZERO PUSH2 0x237E JUMPI PUSH2 0x237D PUSH2 0x1E48 JUMP JUMPDEST JUMPDEST PUSH0 DUP3 ADD CALLDATALOAD PUSH8 0xFFFFFFFFFFFFFFFF DUP2 GT ISZERO PUSH2 0x239B JUMPI PUSH2 0x239A PUSH2 0x1E4C JUMP JUMPDEST JUMPDEST PUSH2 0x23A7 DUP5 DUP3 DUP6 ADD PUSH2 0x233C JUMP JUMPDEST SWAP2 POP POP SWAP3 SWAP2 POP POP JUMP JUMPDEST PUSH0 DUP1 PUSH1 0x40 DUP4 DUP6 SUB SLT ISZERO PUSH2 0x23C6 JUMPI PUSH2 0x23C5 PUSH2 0x1E48 JUMP JUMPDEST JUMPDEST PUSH0 PUSH2 0x23D3 DUP6 DUP3 DUP7 ADD PUSH2 0x21C9 JUMP JUMPDEST SWAP3 POP POP PUSH1 0x20 PUSH2 0x23E4 DUP6 DUP3 DUP7 ADD PUSH2 0x1F1C JUMP JUMPDEST SWAP2 POP POP SWAP3 POP SWAP3 SWAP1 POP JUMP JUMPDEST PUSH0 DUP2 MLOAD SWAP1 POP SWAP2 SWAP1 POP JUMP JUMPDEST PUSH0 DUP2 SWAP1 POP SWAP3 SWAP2 POP POP JUMP JUMPDEST PUSH0 JUMPDEST DUP4 DUP2 LT ISZERO PUSH2 0x241F JUMPI DUP1 DUP3 ADD MLOAD DUP2 DUP5 ADD MSTORE PUSH1 0x20 DUP2 ADD SWAP1 POP PUSH2 0x2404 JUMP JUMPDEST PUSH0 DUP5 DUP5 ADD MSTORE POP POP POP POP JUMP JUMPDEST PUSH0 PUSH2 0x2434 DUP3 PUSH2 0x23EE JUMP JUMPDEST PUSH2 0x243E DUP2 DUP6 PUSH2 0x23F8 JUMP JUMPDEST SWAP4 POP PUSH2 0x244E DUP2 DUP6 PUSH1 0x20 DUP7 ADD PUSH2 0x2402 JUMP JUMPDEST DUP1 DUP5 ADD SWAP2 POP POP SWAP3 SWAP2 POP POP JUMP JUMPDEST PUSH32 0x5F4E4F5254480000000000000000000000000000000000000000000000000000 DUP2 MSTORE POP JUMP JUMPDEST PUSH0 PUSH2 0x248B DUP3 DUP5 PUSH2 0x242A JUMP JUMPDEST SWAP2 POP PUSH2 0x2496 DUP3 PUSH2 0x245A JUMP JUMPDEST PUSH1 0x6 DUP3 ADD SWAP2 POP DUP2 SWAP1 POP SWAP3 SWAP2 POP POP JUMP JUMPDEST PUSH32 0x5F534F5554480000000000000000000000000000000000000000000000000000 DUP2 MSTORE POP JUMP JUMPDEST PUSH0 PUSH2 0x24D6 DUP3 DUP5 PUSH2 0x242A JUMP JUMPDEST SWAP2 POP PUSH2 0x24E1 DUP3 PUSH2 0x24A5 JUMP JUMPDEST PUSH1 0x6 DUP3 ADD SWAP2 POP DUP2 SWAP1 POP SWAP3 SWAP2 POP POP JUMP JUMPDEST PUSH0 PUSH2 0x24FB DUP3 DUP5 PUSH2 0x242A JUMP JUMPDEST SWAP2 POP DUP2 SWAP1 POP SWAP3 SWAP2 POP POP JUMP JUMPDEST PUSH0 DUP3 DUP3 MSTORE PUSH1 0x20 DUP3 ADD SWAP1 POP SWAP3 SWAP2 POP POP JUMP JUMPDEST PUSH32 0x54686520636C69656E74206973206E6F7420696E73757265642E000000000000 PUSH0 DUP3 ADD MSTORE POP JUMP JUMPDEST PUSH0 PUSH2 0x254A PUSH1 0x1A DUP4 PUSH2 0x2506 JUMP JUMPDEST SWAP2 POP PUSH2 0x2555 DUP3 PUSH2 0x2516 JUMP JUMPDEST PUSH1 0x20 DUP3 ADD SWAP1 POP SWAP2 SWAP1 POP JUMP JUMPDEST PUSH0 PUSH1 0x20 DUP3 ADD SWAP1 POP DUP2 DUP2 SUB PUSH0 DUP4 ADD MSTORE PUSH2 0x2577 DUP2 PUSH2 0x253E JUMP JUMPDEST SWAP1 POP SWAP2 SWAP1 POP JUMP JUMPDEST PUSH32 0x596F752063616E6E6F742066696C65206120636C61696D20666F722074686520 PUSH0 DUP3 ADD MSTORE PUSH32 0x6465736972656420796561722E00000000000000000000000000000000000000 PUSH1 0x20 DUP3 ADD MSTORE POP JUMP JUMPDEST PUSH0 PUSH2 0x25D8 PUSH1 0x2D DUP4 PUSH2 0x2506 JUMP JUMPDEST SWAP2 POP PUSH2 0x25E3 DUP3 PUSH2 0x257E JUMP JUMPDEST PUSH1 0x40 DUP3 ADD SWAP1 POP SWAP2 SWAP1 POP JUMP JUMPDEST PUSH0 PUSH1 0x20 DUP3 ADD SWAP1 POP DUP2 DUP2 SUB PUSH0 DUP4 ADD MSTORE PUSH2 0x2605 DUP2 PUSH2 0x25CC JUMP JUMPDEST SWAP1 POP SWAP2 SWAP1 POP JUMP JUMPDEST PUSH32 0x5468657265206973206E6F207265636F726420666F7220746865207265717569 PUSH0 DUP3 ADD MSTORE PUSH32 0x72656420796561722E0000000000000000000000000000000000000000000000 PUSH1 0x20 DUP3 ADD MSTORE POP JUMP JUMPDEST PUSH0 PUSH2 0x2666 PUSH1 0x29 DUP4 PUSH2 0x2506 JUMP JUMPDEST SWAP2 POP PUSH2 0x2671 DUP3 PUSH2 0x260C JUMP JUMPDEST PUSH1 0x40 DUP3 ADD SWAP1 POP SWAP2 SWAP1 POP JUMP JUMPDEST PUSH0 PUSH1 0x20 DUP3 ADD SWAP1 POP DUP2 DUP2 SUB PUSH0 DUP4 ADD MSTORE PUSH2 0x2693 DUP2 PUSH2 0x265A JUMP JUMPDEST SWAP1 POP SWAP2 SWAP1 POP JUMP JUMPDEST PUSH32 0x4E487B7100000000000000000000000000000000000000000000000000000000 PUSH0 MSTORE PUSH1 0x11 PUSH1 0x4 MSTORE PUSH1 0x24 PUSH0 REVERT JUMPDEST PUSH0 PUSH2 0x26D1 DUP3 PUSH2 0x1ED5 JUMP JUMPDEST SWAP2 POP PUSH2 0x26DC DUP4 PUSH2 0x1ED5 JUMP JUMPDEST SWAP3 POP DUP3 DUP3 ADD SWAP1 POP DUP1 DUP3 GT ISZERO PUSH2 0x26F4 JUMPI PUSH2 0x26F3 PUSH2 0x269A JUMP JUMPDEST JUMPDEST SWAP3 SWAP2 POP POP JUMP JUMPDEST PUSH32 0x4F6E6C792074686520636F6E7472616374206F776E657220697320616C6C6F77 PUSH0 DUP3 ADD MSTORE PUSH32 0x656420746F20646F20746865206465736972656420616374696F6E2E00000000 PUSH1 0x20 DUP3 ADD MSTORE POP JUMP JUMPDEST PUSH0 PUSH2 0x2754 PUSH1 0x3C DUP4 PUSH2 0x2506 JUMP JUMPDEST SWAP2 POP PUSH2 0x275F DUP3 PUSH2 0x26FA JUMP JUMPDEST PUSH1 0x40 DUP3 ADD SWAP1 POP SWAP2 SWAP1 POP JUMP JUMPDEST PUSH0 PUSH1 0x20 DUP3 ADD SWAP1 POP DUP2 DUP2 SUB PUSH0 DUP4 ADD MSTORE PUSH2 0x2781 DUP2 PUSH2 0x2748 JUMP JUMPDEST SWAP1 POP SWAP2 SWAP1 POP JUMP JUMPDEST PUSH32 0x54686520636C69656E7420697320616C726561647920696E73757265642E0000 PUSH0 DUP3 ADD MSTORE POP JUMP JUMPDEST PUSH0 PUSH2 0x27BC PUSH1 0x1E DUP4 PUSH2 0x2506 JUMP JUMPDEST SWAP2 POP PUSH2 0x27C7 DUP3 PUSH2 0x2788 JUMP JUMPDEST PUSH1 0x20 DUP3 ADD SWAP1 POP SWAP2 SWAP1 POP JUMP JUMPDEST PUSH0 PUSH1 0x20 DUP3 ADD SWAP1 POP DUP2 DUP2 SUB PUSH0 DUP4 ADD MSTORE PUSH2 0x27E9 DUP2 PUSH2 0x27B0 JUMP JUMPDEST SWAP1 POP SWAP2 SWAP1 POP JUMP JUMPDEST PUSH0 PUSH2 0x27FA DUP3 PUSH2 0x1ED5 JUMP JUMPDEST SWAP2 POP PUSH2 0x2805 DUP4 PUSH2 0x1ED5 JUMP JUMPDEST SWAP3 POP DUP3 DUP3 MUL PUSH2 0x2813 DUP2 PUSH2 0x1ED5 JUMP JUMPDEST SWAP2 POP DUP3 DUP3 DIV DUP5 EQ DUP4 ISZERO OR PUSH2 0x282A JUMPI PUSH2 0x2829 PUSH2 0x269A JUMP JUMPDEST JUMPDEST POP SWAP3 SWAP2 POP POP JUMP JUMPDEST PUSH32 0x546865207072656D69756D206D75737420626520636F766572656420746F2072 PUSH0 DUP3 ADD MSTORE PUSH32 0x65676973746572206F722072656E6577206120706F6C6963792E000000000000 PUSH1 0x20 DUP3 ADD MSTORE POP JUMP JUMPDEST PUSH0 PUSH2 0x288B PUSH1 0x3A DUP4 PUSH2 0x2506 JUMP JUMPDEST SWAP2 POP PUSH2 0x2896 DUP3 PUSH2 0x2831 JUMP JUMPDEST PUSH1 0x40 DUP3 ADD SWAP1 POP SWAP2 SWAP1 POP JUMP JUMPDEST PUSH0 PUSH1 0x20 DUP3 ADD SWAP1 POP DUP2 DUP2 SUB PUSH0 DUP4 ADD MSTORE PUSH2 0x28B8 DUP2 PUSH2 0x287F JUMP JUMPDEST SWAP1 POP SWAP2 SWAP1 POP JUMP JUMPDEST PUSH32 0x4E487B7100000000000000000000000000000000000000000000000000000000 PUSH0 MSTORE PUSH1 0x12 PUSH1 0x4 MSTORE PUSH1 0x24 PUSH0 REVERT JUMPDEST PUSH0 PUSH2 0x28F6 DUP3 PUSH2 0x1ED5 JUMP JUMPDEST SWAP2 POP PUSH2 0x2901 DUP4 PUSH2 0x1ED5 JUMP JUMPDEST SWAP3 POP DUP3 PUSH2 0x2911 JUMPI PUSH2 0x2910 PUSH2 0x28BF JUMP JUMPDEST JUMPDEST DUP3 DUP3 DIV SWAP1 POP SWAP3 SWAP2 POP POP JUMP JUMPDEST PUSH32 0x43616E6E6F74206C6F61642074686520636F6E74726163742077697468203000 PUSH0 DUP3 ADD MSTORE POP JUMP JUMPDEST PUSH0 PUSH2 0x2950 PUSH1 0x1F DUP4 PUSH2 0x2506 JUMP JUMPDEST SWAP2 POP PUSH2 0x295B DUP3 PUSH2 0x291C JUMP JUMPDEST PUSH1 0x20 DUP3 ADD SWAP1 POP SWAP2 SWAP1 POP JUMP JUMPDEST PUSH0 PUSH1 0x20 DUP3 ADD SWAP1 POP DUP2 DUP2 SUB PUSH0 DUP4 ADD MSTORE PUSH2 0x297D DUP2 PUSH2 0x2944 JUMP JUMPDEST SWAP1 POP SWAP2 SWAP1 POP JUMP JUMPDEST PUSH0 PUSH2 0x298E DUP3 PUSH2 0x1ED5 JUMP JUMPDEST SWAP2 POP PUSH2 0x2999 DUP4 PUSH2 0x1ED5 JUMP JUMPDEST SWAP3 POP DUP3 DUP3 SUB SWAP1 POP DUP2 DUP2 GT ISZERO PUSH2 0x29B1 JUMPI PUSH2 0x29B0 PUSH2 0x269A JUMP JUMPDEST JUMPDEST SWAP3 SWAP2 POP POP JUMP JUMPDEST PUSH32 0x436C61696D732063616E206F6E6C792062652066696C65642065766572792079 PUSH0 DUP3 ADD MSTORE PUSH32 0x6561722E00000000000000000000000000000000000000000000000000000000 PUSH1 0x20 DUP3 ADD MSTORE POP JUMP JUMPDEST PUSH0 PUSH2 0x2A11 PUSH1 0x24 DUP4 PUSH2 0x2506 JUMP JUMPDEST SWAP2 POP PUSH2 0x2A1C DUP3 PUSH2 0x29B7 JUMP JUMPDEST PUSH1 0x40 DUP3 ADD SWAP1 POP SWAP2 SWAP1 POP JUMP JUMPDEST PUSH0 PUSH1 0x20 DUP3 ADD SWAP1 POP DUP2 DUP2 SUB PUSH0 DUP4 ADD MSTORE PUSH2 0x2A3E DUP2 PUSH2 0x2A05 JUMP JUMPDEST SWAP1 POP SWAP2 SWAP1 POP JUMP JUMPDEST PUSH32 0x5468652073756E7368696E65206475726174696F6E2077617320657175616C20 PUSH0 DUP3 ADD MSTORE PUSH32 0x746F206F722065786365656465642074686520696E737572656420686F757273 PUSH1 0x20 DUP3 ADD MSTORE PUSH32 0x2E00000000000000000000000000000000000000000000000000000000000000 PUSH1 0x40 DUP3 ADD MSTORE POP JUMP JUMPDEST PUSH0 PUSH2 0x2AC5 PUSH1 0x41 DUP4 PUSH2 0x2506 JUMP JUMPDEST SWAP2 POP PUSH2 0x2AD0 DUP3 PUSH2 0x2A45 JUMP JUMPDEST PUSH1 0x60 DUP3 ADD SWAP1 POP SWAP2 SWAP1 POP JUMP JUMPDEST PUSH0 PUSH1 0x20 DUP3 ADD SWAP1 POP DUP2 DUP2 SUB PUSH0 DUP4 ADD MSTORE PUSH2 0x2AF2 DUP2 PUSH2 0x2AB9 JUMP JUMPDEST SWAP1 POP SWAP2 SWAP1 POP JUMP INVALID LOG2 PUSH5 0x6970667358 0x22 SLT KECCAK256 PUSH13 0xCB0E977545157CCCF611A7CFE5 0xE5 0xD4 LT CODESIZE JUMP PUSH16 0xB17707B3D8D2156FCB351B3964736F6C PUSH4 0x43000816 STOP CALLER "
				},
				"gasEstimates": {
					"creation": {
						"codeDepositCost": "2211000",
						"executionCost": "226213",
						"totalCost": "2437213"
					},
					"external": {
						"_allowedClaims(address)": "2803",
						"_sunshineRecords(string)": "infinite",
						"createSunshineRecord(uint256,uint8,uint256)": "infinite",
						"fileClaim(uint256)": "infinite",
						"fileClaimWithoutTimeoutCheck(uint256)": "infinite",
						"fundContract()": "469",
						"getClaimAmount(uint256)": "infinite",
						"getContract()": "2672",
						"getRequiredPremium(uint8,uint256)": "infinite",
						"getSolarInsurance()": "infinite",
						"owner()": "4758",
						"registerPolicy(uint8,uint256,uint8)": "infinite",
						"renewPolicy()": "infinite"
					}
				},
				"methodIdentifiers": {
					"_allowedClaims(address)": "1d9aec76",
					"_sunshineRecords(string)": "e7ebe5e0",
					"createSunshineRecord(uint256,uint8,uint256)": "245503e9",
					"fileClaim(uint256)": "d61909f9",
					"fileClaimWithoutTimeoutCheck(uint256)": "41b5e38d",
					"fundContract()": "bd097e21",
					"getClaimAmount(uint256)": "cef63600",
					"getContract()": "958f85bd",
					"getRequiredPremium(uint8,uint256)": "f82ac082",
					"getSolarInsurance()": "9b36474a",
					"owner()": "8da5cb5b",
					"registerPolicy(uint8,uint256,uint8)": "a8e023eb",
					"renewPolicy()": "bfd1a3a7"
				}
			},
			"storageLayout": {
				"storage": [
					{
						"astId": 1740,
						"contract": "contracts/solar_insurance.sol:SolarInsurance",
						"label": "_owner",
						"offset": 0,
						"slot": "0",
						"type": "t_address"
					},
					{
						"astId": 1743,
						"contract": "contracts/solar_insurance.sol:SolarInsurance",
						"label": "ENERGY_PRICE",
						"offset": 0,
						"slot": "1",
						"type": "t_uint256"
					},
					{
						"astId": 1746,
						"contract": "contracts/solar_insurance.sol:SolarInsurance",
						"label": "RADIATION_VALUE",
						"offset": 0,
						"slot": "2",
						"type": "t_uint256"
					},
					{
						"astId": 1749,
						"contract": "contracts/solar_insurance.sol:SolarInsurance",
						"label": "EFFICIENCY",
						"offset": 0,
						"slot": "3",
						"type": "t_uint256"
					},
					{
						"astId": 1783,
						"contract": "contracts/solar_insurance.sol:SolarInsurance",
						"label": "_insuranceLevels",
						"offset": 0,
						"slot": "4",
						"type": "t_mapping(t_enum(ClientRiskLevels)1777,t_struct(InsuranceLevel)1773_storage)"
					},
					{
						"astId": 1790,
						"contract": "contracts/solar_insurance.sol:SolarInsurance",
						"label": "_sunshineRecords",
						"offset": 0,
						"slot": "5",
						"type": "t_mapping(t_string_memory_ptr,t_uint256)"
					},
					{
						"astId": 1800,
						"contract": "contracts/solar_insurance.sol:SolarInsurance",
						"label": "_contracts",
						"offset": 0,
						"slot": "6",
						"type": "t_mapping(t_address,t_struct(SolarInsuranceContract)1768_storage)"
					},
					{
						"astId": 1804,
						"contract": "contracts/solar_insurance.sol:SolarInsurance",
						"label": "_allowedClaims",
						"offset": 0,
						"slot": "7",
						"type": "t_mapping(t_address,t_uint256)"
					},
					{
						"astId": 1810,
						"contract": "contracts/solar_insurance.sol:SolarInsurance",
						"label": "_claims",
						"offset": 0,
						"slot": "8",
						"type": "t_mapping(t_address,t_array(t_struct(Claim)1795_storage)dyn_storage)"
					},
					{
						"astId": 1815,
						"contract": "contracts/solar_insurance.sol:SolarInsurance",
						"label": "_payments",
						"offset": 0,
						"slot": "9",
						"type": "t_mapping(t_address,t_array(t_uint256)dyn_storage)"
					}
				],
				"types": {
					"t_address": {
						"encoding": "inplace",
						"label": "address",
						"numberOfBytes": "20"
					},
					"t_array(t_struct(Claim)1795_storage)dyn_storage": {
						"base": "t_struct(Claim)1795_storage",
						"encoding": "dynamic_array",
						"label": "struct SolarInsurance.Claim[]",
						"numberOfBytes": "32"
					},
					"t_array(t_uint256)dyn_storage": {
						"base": "t_uint256",
						"encoding": "dynamic_array",
						"label": "uint256[]",
						"numberOfBytes": "32"
					},
					"t_enum(ClientRiskLevels)1777": {
						"encoding": "inplace",
						"label": "enum SolarInsurance.ClientRiskLevels",
						"numberOfBytes": "1"
					},
					"t_enum(SwissRegion)1786": {
						"encoding": "inplace",
						"label": "enum SolarInsurance.SwissRegion",
						"numberOfBytes": "1"
					},
					"t_mapping(t_address,t_array(t_struct(Claim)1795_storage)dyn_storage)": {
						"encoding": "mapping",
						"key": "t_address",
						"label": "mapping(address => struct SolarInsurance.Claim[])",
						"numberOfBytes": "32",
						"value": "t_array(t_struct(Claim)1795_storage)dyn_storage"
					},
					"t_mapping(t_address,t_array(t_uint256)dyn_storage)": {
						"encoding": "mapping",
						"key": "t_address",
						"label": "mapping(address => uint256[])",
						"numberOfBytes": "32",
						"value": "t_array(t_uint256)dyn_storage"
					},
					"t_mapping(t_address,t_struct(SolarInsuranceContract)1768_storage)": {
						"encoding": "mapping",
						"key": "t_address",
						"label": "mapping(address => struct SolarInsurance.SolarInsuranceContract)",
						"numberOfBytes": "32",
						"value": "t_struct(SolarInsuranceContract)1768_storage"
					},
					"t_mapping(t_address,t_uint256)": {
						"encoding": "mapping",
						"key": "t_address",
						"label": "mapping(address => uint256)",
						"numberOfBytes": "32",
						"value": "t_uint256"
					},
					"t_mapping(t_enum(ClientRiskLevels)1777,t_struct(InsuranceLevel)1773_storage)": {
						"encoding": "mapping",
						"key": "t_enum(ClientRiskLevels)1777",
						"label": "mapping(enum SolarInsurance.ClientRiskLevels => struct SolarInsurance.InsuranceLevel)",
						"numberOfBytes": "32",
						"value": "t_struct(InsuranceLevel)1773_storage"
					},
					"t_mapping(t_string_memory_ptr,t_uint256)": {
						"encoding": "mapping",
						"key": "t_string_memory_ptr",
						"label": "mapping(string => uint256)",
						"numberOfBytes": "32",
						"value": "t_uint256"
					},
					"t_string_memory_ptr": {
						"encoding": "bytes",
						"label": "string",
						"numberOfBytes": "32"
					},
					"t_struct(Claim)1795_storage": {
						"encoding": "inplace",
						"label": "struct SolarInsurance.Claim",
						"members": [
							{
								"astId": 1792,
								"contract": "contracts/solar_insurance.sol:SolarInsurance",
								"label": "year",
								"offset": 0,
								"slot": "0",
								"type": "t_uint256"
							},
							{
								"astId": 1794,
								"contract": "contracts/solar_insurance.sol:SolarInsurance",
								"label": "amount",
								"offset": 0,
								"slot": "1",
								"type": "t_uint256"
							}
						],
						"numberOfBytes": "64"
					},
					"t_struct(InsuranceLevel)1773_storage": {
						"encoding": "inplace",
						"label": "struct SolarInsurance.InsuranceLevel",
						"members": [
							{
								"astId": 1770,
								"contract": "contracts/solar_insurance.sol:SolarInsurance",
								"label": "premium",
								"offset": 0,
								"slot": "0",
								"type": "t_uint256"
							},
							{
								"astId": 1772,
								"contract": "contracts/solar_insurance.sol:SolarInsurance",
								"label": "insuredHours",
								"offset": 0,
								"slot": "1",
								"type": "t_uint256"
							}
						],
						"numberOfBytes": "64"
					},
					"t_struct(SolarInsuranceContract)1768_storage": {
						"encoding": "inplace",
						"label": "struct SolarInsurance.SolarInsuranceContract",
						"members": [
							{
								"astId": 1751,
								"contract": "contracts/solar_insurance.sol:SolarInsurance",
								"label": "client",
								"offset": 0,
								"slot": "0",
								"type": "t_address"
							},
							{
								"astId": 1754,
								"contract": "contracts/solar_insurance.sol:SolarInsurance",
								"label": "panelLocation",
								"offset": 20,
								"slot": "0",
								"type": "t_enum(SwissRegion)1786"
							},
							{
								"astId": 1757,
								"contract": "contracts/solar_insurance.sol:SolarInsurance",
								"label": "riskLevel",
								"offset": 21,
								"slot": "0",
								"type": "t_enum(ClientRiskLevels)1777"
							},
							{
								"astId": 1759,
								"contract": "contracts/solar_insurance.sol:SolarInsurance",
								"label": "panelArea",
								"offset": 0,
								"slot": "1",
								"type": "t_uint256"
							},
							{
								"astId": 1761,
								"contract": "contracts/solar_insurance.sol:SolarInsurance",
								"label": "premiumToPay",
								"offset": 0,
								"slot": "2",
								"type": "t_uint256"
							},
							{
								"astId": 1763,
								"contract": "contracts/solar_insurance.sol:SolarInsurance",
								"label": "registrationDate",
								"offset": 0,
								"slot": "3",
								"type": "t_uint256"
							},
							{
								"astId": 1765,
								"contract": "contracts/solar_insurance.sol:SolarInsurance",
								"label": "duration",
								"offset": 0,
								"slot": "4",
								"type": "t_uint256"
							},
							{
								"astId": 1767,
								"contract": "contracts/solar_insurance.sol:SolarInsurance",
								"label": "claimTimeout",
								"offset": 0,
								"slot": "5",
								"type": "t_uint256"
							}
						],
						"numberOfBytes": "192"
					},
					"t_uint256": {
						"encoding": "inplace",
						"label": "uint256",
						"numberOfBytes": "32"
					}
				}
			},
			"userdoc": {
				"kind": "user",
				"methods": {},
				"version": 1
			}
		}
	}
}