{
	"contracts/solar_insurance.sol": {
		"SolarInsurance": {
			"abi": [
				{
					"inputs": [],
					"stateMutability": "payable",
					"type": "constructor"
				},
				{
					"inputs": [
						{
							"internalType": "address",
							"name": "",
							"type": "address"
						}
					],
					"name": "_allowedClaims",
					"outputs": [
						{
							"internalType": "uint256",
							"name": "",
							"type": "uint256"
						}
					],
					"stateMutability": "view",
					"type": "function"
				},
				{
					"inputs": [
						{
							"internalType": "string",
							"name": "",
							"type": "string"
						}
					],
					"name": "_sunshineRecords",
					"outputs": [
						{
							"internalType": "uint256",
							"name": "",
							"type": "uint256"
						}
					],
					"stateMutability": "view",
					"type": "function"
				},
				{
					"inputs": [
						{
							"internalType": "uint256",
							"name": "year",
							"type": "uint256"
						},
						{
							"internalType": "enum SolarInsurance.SwissRegion",
							"name": "region",
							"type": "uint8"
						},
						{
							"internalType": "uint256",
							"name": "duration",
							"type": "uint256"
						}
					],
					"name": "createSunshineRecord",
					"outputs": [],
					"stateMutability": "nonpayable",
					"type": "function"
				},
				{
					"inputs": [
						{
							"internalType": "uint256",
							"name": "year",
							"type": "uint256"
						}
					],
					"name": "fileClaim",
					"outputs": [],
					"stateMutability": "nonpayable",
					"type": "function"
				},
				{
					"inputs": [
						{
							"internalType": "uint256",
							"name": "year",
							"type": "uint256"
						}
					],
					"name": "fileClaimWithoutTimeoutCheck",
					"outputs": [],
					"stateMutability": "nonpayable",
					"type": "function"
				},
				{
					"inputs": [],
					"name": "fundContract",
					"outputs": [],
					"stateMutability": "payable",
					"type": "function"
				},
				{
					"inputs": [
						{
							"internalType": "uint256",
							"name": "year",
							"type": "uint256"
						}
					],
					"name": "getClaimAmount",
					"outputs": [
						{
							"internalType": "uint256",
							"name": "",
							"type": "uint256"
						}
					],
					"stateMutability": "view",
					"type": "function"
				},
				{
					"inputs": [
						{
							"internalType": "enum SolarInsurance.ClientRiskLevels",
							"name": "riskLevel",
							"type": "uint8"
						},
						{
							"internalType": "uint256",
							"name": "panelArea",
							"type": "uint256"
						}
					],
					"name": "getRequiredPremium",
					"outputs": [
						{
							"internalType": "uint256",
							"name": "",
							"type": "uint256"
						}
					],
					"stateMutability": "view",
					"type": "function"
				},
				{
					"inputs": [],
					"name": "getSolarInsurance",
					"outputs": [
						{
							"components": [
								{
									"internalType": "address",
									"name": "client",
									"type": "address"
								},
								{
									"internalType": "enum SolarInsurance.SwissRegion",
									"name": "panelLocation",
									"type": "uint8"
								},
								{
									"internalType": "enum SolarInsurance.ClientRiskLevels",
									"name": "riskLevel",
									"type": "uint8"
								},
								{
									"internalType": "uint256",
									"name": "panelArea",
									"type": "uint256"
								},
								{
									"internalType": "uint256",
									"name": "premiumToPay",
									"type": "uint256"
								},
								{
									"internalType": "uint256",
									"name": "registrationDate",
									"type": "uint256"
								},
								{
									"internalType": "uint256",
									"name": "duration",
									"type": "uint256"
								},
								{
									"internalType": "uint256",
									"name": "claimTimeout",
									"type": "uint256"
								}
							],
							"internalType": "struct SolarInsurance.SolarInsuranceContract",
							"name": "",
							"type": "tuple"
						}
					],
					"stateMutability": "view",
					"type": "function"
				},
				{
					"inputs": [],
					"name": "owner",
					"outputs": [
						{
							"internalType": "address",
							"name": "",
							"type": "address"
						}
					],
					"stateMutability": "view",
					"type": "function"
				},
				{
					"inputs": [
						{
							"internalType": "enum SolarInsurance.ClientRiskLevels",
							"name": "riskLevel",
							"type": "uint8"
						},
						{
							"internalType": "uint256",
							"name": "panelArea",
							"type": "uint256"
						},
						{
							"internalType": "enum SolarInsurance.SwissRegion",
							"name": "location",
							"type": "uint8"
						}
					],
					"name": "registerPolicy",
					"outputs": [],
					"stateMutability": "payable",
					"type": "function"
				},
				{
					"inputs": [],
					"name": "renewPolicy",
					"outputs": [],
					"stateMutability": "payable",
					"type": "function"
				}
			],
			"devdoc": {
				"kind": "dev",
				"methods": {
					"fileClaim(uint256)": {
						"details": "File Claim for Insurance"
					},
					"fileClaimWithoutTimeoutCheck(uint256)": {
						"details": "File a claim without checking the timeout (for demo purpose only!!)"
					},
					"fundContract()": {
						"details": "Load contract with some eth to be able to payout claims (for demo purpose only!!)"
					},
					"getRequiredPremium(uint8,uint256)": {
						"details": "Get required premium"
					},
					"getSolarInsurance()": {
						"details": "Get details of own contract"
					},
					"registerPolicy(uint8,uint256,uint8)": {
						"details": "Register for Solar Insurance Policy"
					},
					"renewPolicy()": {
						"details": "Renew Solar Insurance Policy"
					}
				},
				"version": 1
			},
			"evm": {
				"assembly": "    /* \"contracts/solar_insurance.sol\":174:8687  contract SolarInsurance{... */\n  mstore(0x40, 0x80)\n    /* \"contracts/solar_insurance.sol\":325:338  0.00016 ether */\n  0x9184e72a0000\n    /* \"contracts/solar_insurance.sol\":302:338  uint256 ENERGY_PRICE = 0.00016 ether */\n  0x01\n  sstore\n    /* \"contracts/solar_insurance.sol\":406:409  150 */\n  0x96\n    /* \"contracts/solar_insurance.sol\":380:409  uint256 RADIATION_VALUE = 150 */\n  0x02\n  sstore\n    /* \"contracts/solar_insurance.sol\":482:484  20 */\n  0x14\n    /* \"contracts/solar_insurance.sol\":461:484  uint256 EFFICIENCY = 20 */\n  0x03\n  sstore\n    /* \"contracts/solar_insurance.sol\":1731:1741  msg.sender */\n  caller\n    /* \"contracts/solar_insurance.sol\":1722:1728  _owner */\n  0x00\n  dup1\n    /* \"contracts/solar_insurance.sol\":1722:1741  _owner = msg.sender */\n  0x0100\n  exp\n  dup2\n  sload\n  dup2\n  0xffffffffffffffffffffffffffffffffffffffff\n  mul\n  not\n  and\n  swap1\n  dup4\n  0xffffffffffffffffffffffffffffffffffffffff\n  and\n  mul\n  or\n  swap1\n  sstore\n  pop\n    /* \"contracts/solar_insurance.sol\":1794:1866  InsuranceLevel(... */\n  mload(0x40)\n  dup1\n  0x40\n  add\n  0x40\n  mstore\n  dup1\n    /* \"contracts/solar_insurance.sol\":1823:1836  0.00005 ether */\n  0x2d79883d2000\n    /* \"contracts/solar_insurance.sol\":1794:1866  InsuranceLevel(... */\n  dup2\n  mstore\n  0x20\n  add\n    /* \"contracts/solar_insurance.sol\":1851:1855  1639 */\n  0x0667\n    /* \"contracts/solar_insurance.sol\":1794:1866  InsuranceLevel(... */\n  dup2\n  mstore\n  pop\n    /* \"contracts/solar_insurance.sol\":1752:1768  _insuranceLevels */\n  0x04\n    /* \"contracts/solar_insurance.sol\":1752:1791  _insuranceLevels[ClientRiskLevels.HIGH] */\n  0x00\n    /* \"contracts/solar_insurance.sol\":1769:1790  ClientRiskLevels.HIGH */\n  dup1\n    /* \"contracts/solar_insurance.sol\":1752:1791  _insuranceLevels[ClientRiskLevels.HIGH] */\n  0x02\n  dup2\n  gt\n  iszero\n  tag_3\n  jumpi\n  tag_4\n  tag_5\n  jump\t// in\ntag_4:\ntag_3:\n  0x02\n  dup2\n  gt\n  iszero\n  tag_6\n  jumpi\n  tag_7\n  tag_5\n  jump\t// in\ntag_7:\ntag_6:\n  dup2\n  mstore\n  0x20\n  add\n  swap1\n  dup2\n  mstore\n  0x20\n  add\n  0x00\n  keccak256\n    /* \"contracts/solar_insurance.sol\":1752:1866  _insuranceLevels[ClientRiskLevels.HIGH] = InsuranceLevel(... */\n  0x00\n  dup3\n  add\n  mload\n  dup2\n  0x00\n  add\n  sstore\n  0x20\n  dup3\n  add\n  mload\n  dup2\n  0x01\n  add\n  sstore\n  swap1\n  pop\n  pop\n    /* \"contracts/solar_insurance.sol\":1920:1992  InsuranceLevel(... */\n  mload(0x40)\n  dup1\n  0x40\n  add\n  0x40\n  mstore\n  dup1\n    /* \"contracts/solar_insurance.sol\":1949:1962  0.00012 ether */\n  0x6d23ad5f8000\n    /* \"contracts/solar_insurance.sol\":1920:1992  InsuranceLevel(... */\n  dup2\n  mstore\n  0x20\n  add\n    /* \"contracts/solar_insurance.sol\":1977:1981  1721 */\n  0x06b9\n    /* \"contracts/solar_insurance.sol\":1920:1992  InsuranceLevel(... */\n  dup2\n  mstore\n  pop\n    /* \"contracts/solar_insurance.sol\":1879:1895  _insuranceLevels */\n  0x04\n    /* \"contracts/solar_insurance.sol\":1879:1917  _insuranceLevels[ClientRiskLevels.MID] */\n  0x00\n    /* \"contracts/solar_insurance.sol\":1896:1916  ClientRiskLevels.MID */\n  0x01\n    /* \"contracts/solar_insurance.sol\":1879:1917  _insuranceLevels[ClientRiskLevels.MID] */\n  0x02\n  dup2\n  gt\n  iszero\n  tag_8\n  jumpi\n  tag_9\n  tag_5\n  jump\t// in\ntag_9:\ntag_8:\n  0x02\n  dup2\n  gt\n  iszero\n  tag_10\n  jumpi\n  tag_11\n  tag_5\n  jump\t// in\ntag_11:\ntag_10:\n  dup2\n  mstore\n  0x20\n  add\n  swap1\n  dup2\n  mstore\n  0x20\n  add\n  0x00\n  keccak256\n    /* \"contracts/solar_insurance.sol\":1879:1992  _insuranceLevels[ClientRiskLevels.MID] = InsuranceLevel(... */\n  0x00\n  dup3\n  add\n  mload\n  dup2\n  0x00\n  add\n  sstore\n  0x20\n  dup3\n  add\n  mload\n  dup2\n  0x01\n  add\n  sstore\n  swap1\n  pop\n  pop\n    /* \"contracts/solar_insurance.sol\":2046:2118  InsuranceLevel(... */\n  mload(0x40)\n  dup1\n  0x40\n  add\n  0x40\n  mstore\n  dup1\n    /* \"contracts/solar_insurance.sol\":2075:2088  0.00035 ether */\n  0x013e52b9abe000\n    /* \"contracts/solar_insurance.sol\":2046:2118  InsuranceLevel(... */\n  dup2\n  mstore\n  0x20\n  add\n    /* \"contracts/solar_insurance.sol\":2103:2107  1803 */\n  0x070b\n    /* \"contracts/solar_insurance.sol\":2046:2118  InsuranceLevel(... */\n  dup2\n  mstore\n  pop\n    /* \"contracts/solar_insurance.sol\":2005:2021  _insuranceLevels */\n  0x04\n    /* \"contracts/solar_insurance.sol\":2005:2043  _insuranceLevels[ClientRiskLevels.LOW] */\n  0x00\n    /* \"contracts/solar_insurance.sol\":2022:2042  ClientRiskLevels.LOW */\n  0x02\n    /* \"contracts/solar_insurance.sol\":2005:2043  _insuranceLevels[ClientRiskLevels.LOW] */\n  dup1\n  dup2\n  gt\n  iszero\n  tag_12\n  jumpi\n  tag_13\n  tag_5\n  jump\t// in\ntag_13:\ntag_12:\n  0x02\n  dup2\n  gt\n  iszero\n  tag_14\n  jumpi\n  tag_15\n  tag_5\n  jump\t// in\ntag_15:\ntag_14:\n  dup2\n  mstore\n  0x20\n  add\n  swap1\n  dup2\n  mstore\n  0x20\n  add\n  0x00\n  keccak256\n    /* \"contracts/solar_insurance.sol\":2005:2118  _insuranceLevels[ClientRiskLevels.LOW] = InsuranceLevel(... */\n  0x00\n  dup3\n  add\n  mload\n  dup2\n  0x00\n  add\n  sstore\n  0x20\n  dup3\n  add\n  mload\n  dup2\n  0x01\n  add\n  sstore\n  swap1\n  pop\n  pop\n    /* \"contracts/solar_insurance.sol\":174:8687  contract SolarInsurance{... */\n  jump(tag_16)\n    /* \"#utility.yul\":7:187   */\ntag_5:\n    /* \"#utility.yul\":55:132   */\n  0x4e487b7100000000000000000000000000000000000000000000000000000000\n    /* \"#utility.yul\":52:53   */\n  0x00\n    /* \"#utility.yul\":45:133   */\n  mstore\n    /* \"#utility.yul\":152:156   */\n  0x21\n    /* \"#utility.yul\":149:150   */\n  0x04\n    /* \"#utility.yul\":142:157   */\n  mstore\n    /* \"#utility.yul\":176:180   */\n  0x24\n    /* \"#utility.yul\":173:174   */\n  0x00\n    /* \"#utility.yul\":166:181   */\n  revert\n    /* \"contracts/solar_insurance.sol\":174:8687  contract SolarInsurance{... */\ntag_16:\n  dataSize(sub_0)\n  dup1\n  dataOffset(sub_0)\n  0x00\n  codecopy\n  0x00\n  return\nstop\n\nsub_0: assembly {\n        /* \"contracts/solar_insurance.sol\":174:8687  contract SolarInsurance{... */\n      mstore(0x40, 0x80)\n      jumpi(tag_1, lt(calldatasize, 0x04))\n      shr(0xe0, calldataload(0x00))\n      dup1\n      0xbd097e21\n      gt\n      tag_14\n      jumpi\n      dup1\n      0xbd097e21\n      eq\n      tag_8\n      jumpi\n      dup1\n      0xbfd1a3a7\n      eq\n      tag_9\n      jumpi\n      dup1\n      0xcef63600\n      eq\n      tag_10\n      jumpi\n      dup1\n      0xd61909f9\n      eq\n      tag_11\n      jumpi\n      dup1\n      0xe7ebe5e0\n      eq\n      tag_12\n      jumpi\n      dup1\n      0xf82ac082\n      eq\n      tag_13\n      jumpi\n      jump(tag_1)\n    tag_14:\n      dup1\n      0x1d9aec76\n      eq\n      tag_2\n      jumpi\n      dup1\n      0x245503e9\n      eq\n      tag_3\n      jumpi\n      dup1\n      0x41b5e38d\n      eq\n      tag_4\n      jumpi\n      dup1\n      0x8da5cb5b\n      eq\n      tag_5\n      jumpi\n      dup1\n      0x9b36474a\n      eq\n      tag_6\n      jumpi\n      dup1\n      0xa8e023eb\n      eq\n      tag_7\n      jumpi\n    tag_1:\n      0x00\n      dup1\n      revert\n        /* \"contracts/solar_insurance.sol\":1544:1593  mapping(address => uint256) public _allowedClaims */\n    tag_2:\n      callvalue\n      dup1\n      iszero\n      tag_15\n      jumpi\n      0x00\n      dup1\n      revert\n    tag_15:\n      pop\n      tag_16\n      0x04\n      dup1\n      calldatasize\n      sub\n      dup2\n      add\n      swap1\n      tag_17\n      swap2\n      swap1\n      tag_18\n      jump\t// in\n    tag_17:\n      tag_19\n      jump\t// in\n    tag_16:\n      mload(0x40)\n      tag_20\n      swap2\n      swap1\n      tag_21\n      jump\t// in\n    tag_20:\n      mload(0x40)\n      dup1\n      swap2\n      sub\n      swap1\n      return\n        /* \"contracts/solar_insurance.sol\":4502:4800  function createSunshineRecord(uint256 year, SwissRegion region, uint256 duration) public {... */\n    tag_3:\n      callvalue\n      dup1\n      iszero\n      tag_22\n      jumpi\n      0x00\n      dup1\n      revert\n    tag_22:\n      pop\n      tag_23\n      0x04\n      dup1\n      calldatasize\n      sub\n      dup2\n      add\n      swap1\n      tag_24\n      swap2\n      swap1\n      tag_25\n      jump\t// in\n    tag_24:\n      tag_26\n      jump\t// in\n    tag_23:\n      stop\n        /* \"contracts/solar_insurance.sol\":5611:6061  function fileClaimWithoutTimeoutCheck(uint256 year) public ... */\n    tag_4:\n      callvalue\n      dup1\n      iszero\n      tag_27\n      jumpi\n      0x00\n      dup1\n      revert\n    tag_27:\n      pop\n      tag_28\n      0x04\n      dup1\n      calldatasize\n      sub\n      dup2\n      add\n      swap1\n      tag_29\n      swap2\n      swap1\n      tag_30\n      jump\t// in\n    tag_29:\n      tag_31\n      jump\t// in\n    tag_28:\n      stop\n        /* \"contracts/solar_insurance.sol\":2134:2226  function owner() public view requireOwner() returns(address){... */\n    tag_5:\n      callvalue\n      dup1\n      iszero\n      tag_32\n      jumpi\n      0x00\n      dup1\n      revert\n    tag_32:\n      pop\n      tag_33\n      tag_34\n      jump\t// in\n    tag_33:\n      mload(0x40)\n      tag_35\n      swap2\n      swap1\n      tag_36\n      jump\t// in\n    tag_35:\n      mload(0x40)\n      dup1\n      swap2\n      sub\n      swap1\n      return\n        /* \"contracts/solar_insurance.sol\":4865:5018  function getSolarInsurance() public ... */\n    tag_6:\n      callvalue\n      dup1\n      iszero\n      tag_37\n      jumpi\n      0x00\n      dup1\n      revert\n    tag_37:\n      pop\n      tag_38\n      tag_39\n      jump\t// in\n    tag_38:\n      mload(0x40)\n      tag_40\n      swap2\n      swap1\n      tag_41\n      jump\t// in\n    tag_40:\n      mload(0x40)\n      dup1\n      swap2\n      sub\n      swap1\n      return\n        /* \"contracts/solar_insurance.sol\":2299:3142  function registerPolicy(ClientRiskLevels riskLevel, uint256 panelArea, SwissRegion location) public payable ... */\n    tag_7:\n      tag_42\n      0x04\n      dup1\n      calldatasize\n      sub\n      dup2\n      add\n      swap1\n      tag_43\n      swap2\n      swap1\n      tag_44\n      jump\t// in\n    tag_43:\n      tag_45\n      jump\t// in\n    tag_42:\n      stop\n        /* \"contracts/solar_insurance.sol\":5391:5506  function fundContract() public payable {... */\n    tag_8:\n      tag_46\n      tag_47\n      jump\t// in\n    tag_46:\n      stop\n        /* \"contracts/solar_insurance.sol\":3208:3439  function renewPolicy() public payable... */\n    tag_9:\n      tag_48\n      tag_49\n      jump\t// in\n    tag_48:\n      stop\n        /* \"contracts/solar_insurance.sol\":6069:6690  function getClaimAmount(uint256 year) public view returns(uint256) {... */\n    tag_10:\n      callvalue\n      dup1\n      iszero\n      tag_50\n      jumpi\n      0x00\n      dup1\n      revert\n    tag_50:\n      pop\n      tag_51\n      0x04\n      dup1\n      calldatasize\n      sub\n      dup2\n      add\n      swap1\n      tag_52\n      swap2\n      swap1\n      tag_30\n      jump\t// in\n    tag_52:\n      tag_53\n      jump\t// in\n    tag_51:\n      mload(0x40)\n      tag_54\n      swap2\n      swap1\n      tag_21\n      jump\t// in\n    tag_54:\n      mload(0x40)\n      dup1\n      swap2\n      sub\n      swap1\n      return\n        /* \"contracts/solar_insurance.sol\":3501:4494  function fileClaim(uint256 year) public ... */\n    tag_11:\n      callvalue\n      dup1\n      iszero\n      tag_55\n      jumpi\n      0x00\n      dup1\n      revert\n    tag_55:\n      pop\n      tag_56\n      0x04\n      dup1\n      calldatasize\n      sub\n      dup2\n      add\n      swap1\n      tag_57\n      swap2\n      swap1\n      tag_30\n      jump\t// in\n    tag_57:\n      tag_58\n      jump\t// in\n    tag_56:\n      stop\n        /* \"contracts/solar_insurance.sol\":1289:1339  mapping(string => uint256) public _sunshineRecords */\n    tag_12:\n      callvalue\n      dup1\n      iszero\n      tag_59\n      jumpi\n      0x00\n      dup1\n      revert\n    tag_59:\n      pop\n      tag_60\n      0x04\n      dup1\n      calldatasize\n      sub\n      dup2\n      add\n      swap1\n      tag_61\n      swap2\n      swap1\n      tag_62\n      jump\t// in\n    tag_61:\n      tag_63\n      jump\t// in\n    tag_60:\n      mload(0x40)\n      tag_64\n      swap2\n      swap1\n      tag_21\n      jump\t// in\n    tag_64:\n      mload(0x40)\n      dup1\n      swap2\n      sub\n      swap1\n      return\n        /* \"contracts/solar_insurance.sol\":5076:5272  function getRequiredPremium(ClientRiskLevels riskLevel, uint256 panelArea) public view returns (uint256) {... */\n    tag_13:\n      callvalue\n      dup1\n      iszero\n      tag_65\n      jumpi\n      0x00\n      dup1\n      revert\n    tag_65:\n      pop\n      tag_66\n      0x04\n      dup1\n      calldatasize\n      sub\n      dup2\n      add\n      swap1\n      tag_67\n      swap2\n      swap1\n      tag_68\n      jump\t// in\n    tag_67:\n      tag_69\n      jump\t// in\n    tag_66:\n      mload(0x40)\n      tag_70\n      swap2\n      swap1\n      tag_21\n      jump\t// in\n    tag_70:\n      mload(0x40)\n      dup1\n      swap2\n      sub\n      swap1\n      return\n        /* \"contracts/solar_insurance.sol\":1544:1593  mapping(address => uint256) public _allowedClaims */\n    tag_19:\n      mstore(0x20, 0x07)\n      dup1\n      0x00\n      mstore\n      keccak256(0x00, 0x40)\n      0x00\n      swap2\n      pop\n      swap1\n      pop\n      sload\n      dup2\n      jump\t// out\n        /* \"contracts/solar_insurance.sol\":4502:4800  function createSunshineRecord(uint256 year, SwissRegion region, uint256 duration) public {... */\n    tag_26:\n        /* \"contracts/solar_insurance.sol\":4602:4619  string memory key */\n      0x00\n        /* \"contracts/solar_insurance.sol\":4632:4649  SwissRegion.SOUTH */\n      dup1\n        /* \"contracts/solar_insurance.sol\":4622:4649  region == SwissRegion.SOUTH */\n      0x01\n      dup2\n      gt\n      iszero\n      tag_72\n      jumpi\n      tag_73\n      tag_74\n      jump\t// in\n    tag_73:\n    tag_72:\n        /* \"contracts/solar_insurance.sol\":4622:4628  region */\n      dup4\n        /* \"contracts/solar_insurance.sol\":4622:4649  region == SwissRegion.SOUTH */\n      0x01\n      dup2\n      gt\n      iszero\n      tag_75\n      jumpi\n      tag_76\n      tag_74\n      jump\t// in\n    tag_76:\n    tag_75:\n      eq\n        /* \"contracts/solar_insurance.sol\":4622:4749  region == SwissRegion.SOUTH ? string.concat(Strings.toString(year), \"_SOUTH\") : string.concat(Strings.toString(year), \"_NORTH\") */\n      tag_77\n      jumpi\n        /* \"contracts/solar_insurance.sol\":4716:4738  Strings.toString(year) */\n      tag_78\n        /* \"contracts/solar_insurance.sol\":4733:4737  year */\n      dup5\n        /* \"contracts/solar_insurance.sol\":4716:4732  Strings.toString */\n      tag_79\n        /* \"contracts/solar_insurance.sol\":4716:4738  Strings.toString(year) */\n      jump\t// in\n    tag_78:\n        /* \"contracts/solar_insurance.sol\":4702:4749  string.concat(Strings.toString(year), \"_NORTH\") */\n      add(0x20, mload(0x40))\n      tag_80\n      swap2\n      swap1\n      tag_81\n      jump\t// in\n    tag_80:\n      mload(0x40)\n      0x20\n      dup2\n      dup4\n      sub\n      sub\n      dup2\n      mstore\n      swap1\n      0x40\n      mstore\n        /* \"contracts/solar_insurance.sol\":4622:4749  region == SwissRegion.SOUTH ? string.concat(Strings.toString(year), \"_SOUTH\") : string.concat(Strings.toString(year), \"_NORTH\") */\n      jump(tag_82)\n    tag_77:\n        /* \"contracts/solar_insurance.sol\":4666:4688  Strings.toString(year) */\n      tag_83\n        /* \"contracts/solar_insurance.sol\":4683:4687  year */\n      dup5\n        /* \"contracts/solar_insurance.sol\":4666:4682  Strings.toString */\n      tag_79\n        /* \"contracts/solar_insurance.sol\":4666:4688  Strings.toString(year) */\n      jump\t// in\n    tag_83:\n        /* \"contracts/solar_insurance.sol\":4652:4699  string.concat(Strings.toString(year), \"_SOUTH\") */\n      add(0x20, mload(0x40))\n      tag_84\n      swap2\n      swap1\n      tag_85\n      jump\t// in\n    tag_84:\n      mload(0x40)\n      0x20\n      dup2\n      dup4\n      sub\n      sub\n      dup2\n      mstore\n      swap1\n      0x40\n      mstore\n        /* \"contracts/solar_insurance.sol\":4622:4749  region == SwissRegion.SOUTH ? string.concat(Strings.toString(year), \"_SOUTH\") : string.concat(Strings.toString(year), \"_NORTH\") */\n    tag_82:\n        /* \"contracts/solar_insurance.sol\":4602:4749  string memory key = region == SwissRegion.SOUTH ? string.concat(Strings.toString(year), \"_SOUTH\") : string.concat(Strings.toString(year), \"_NORTH\") */\n      swap1\n      pop\n        /* \"contracts/solar_insurance.sol\":4784:4792  duration */\n      dup2\n        /* \"contracts/solar_insurance.sol\":4760:4776  _sunshineRecords */\n      0x05\n        /* \"contracts/solar_insurance.sol\":4777:4780  key */\n      dup3\n        /* \"contracts/solar_insurance.sol\":4760:4781  _sunshineRecords[key] */\n      mload(0x40)\n      tag_86\n      swap2\n      swap1\n      tag_87\n      jump\t// in\n    tag_86:\n      swap1\n      dup2\n      mstore\n      0x20\n      add\n      mload(0x40)\n      dup1\n      swap2\n      sub\n      swap1\n      keccak256\n        /* \"contracts/solar_insurance.sol\":4760:4792  _sunshineRecords[key] = duration */\n      dup2\n      swap1\n      sstore\n      pop\n        /* \"contracts/solar_insurance.sol\":4591:4800  {... */\n      pop\n        /* \"contracts/solar_insurance.sol\":4502:4800  function createSunshineRecord(uint256 year, SwissRegion region, uint256 duration) public {... */\n      pop\n      pop\n      pop\n      jump\t// out\n        /* \"contracts/solar_insurance.sol\":5611:6061  function fileClaimWithoutTimeoutCheck(uint256 year) public ... */\n    tag_31:\n        /* \"contracts/solar_insurance.sol\":7812:7813  0 */\n      0x00\n        /* \"contracts/solar_insurance.sol\":7778:7788  _contracts */\n      0x06\n        /* \"contracts/solar_insurance.sol\":7778:7800  _contracts[msg.sender] */\n      0x00\n        /* \"contracts/solar_insurance.sol\":7789:7799  msg.sender */\n      caller\n        /* \"contracts/solar_insurance.sol\":7778:7800  _contracts[msg.sender] */\n      0xffffffffffffffffffffffffffffffffffffffff\n      and\n      0xffffffffffffffffffffffffffffffffffffffff\n      and\n      dup2\n      mstore\n      0x20\n      add\n      swap1\n      dup2\n      mstore\n      0x20\n      add\n      0x00\n      keccak256\n        /* \"contracts/solar_insurance.sol\":7778:7809  _contracts[msg.sender].duration */\n      0x04\n      add\n      sload\n        /* \"contracts/solar_insurance.sol\":7778:7813  _contracts[msg.sender].duration > 0 */\n      gt\n        /* \"contracts/solar_insurance.sol\":7778:7866  _contracts[msg.sender].duration > 0 && _contracts[msg.sender].duration > block.timestamp */\n      dup1\n      iszero\n      tag_89\n      jumpi\n      pop\n        /* \"contracts/solar_insurance.sol\":7851:7866  block.timestamp */\n      timestamp\n        /* \"contracts/solar_insurance.sol\":7817:7827  _contracts */\n      0x06\n        /* \"contracts/solar_insurance.sol\":7817:7839  _contracts[msg.sender] */\n      0x00\n        /* \"contracts/solar_insurance.sol\":7828:7838  msg.sender */\n      caller\n        /* \"contracts/solar_insurance.sol\":7817:7839  _contracts[msg.sender] */\n      0xffffffffffffffffffffffffffffffffffffffff\n      and\n      0xffffffffffffffffffffffffffffffffffffffff\n      and\n      dup2\n      mstore\n      0x20\n      add\n      swap1\n      dup2\n      mstore\n      0x20\n      add\n      0x00\n      keccak256\n        /* \"contracts/solar_insurance.sol\":7817:7848  _contracts[msg.sender].duration */\n      0x04\n      add\n      sload\n        /* \"contracts/solar_insurance.sol\":7817:7866  _contracts[msg.sender].duration > block.timestamp */\n      gt\n        /* \"contracts/solar_insurance.sol\":7778:7866  _contracts[msg.sender].duration > 0 && _contracts[msg.sender].duration > block.timestamp */\n    tag_89:\n        /* \"contracts/solar_insurance.sol\":7756:7911  require(... */\n      tag_90\n      jumpi\n      mload(0x40)\n      0x08c379a000000000000000000000000000000000000000000000000000000000\n      dup2\n      mstore\n      0x04\n      add\n      tag_91\n      swap1\n      tag_92\n      jump\t// in\n    tag_91:\n      mload(0x40)\n      dup1\n      swap2\n      sub\n      swap1\n      revert\n    tag_90:\n        /* \"contracts/solar_insurance.sol\":5724:5728  year */\n      dup1\n        /* \"contracts/solar_insurance.sol\":8610:8614  year */\n      dup1\n        /* \"contracts/solar_insurance.sol\":8580:8594  _allowedClaims */\n      0x07\n        /* \"contracts/solar_insurance.sol\":8580:8606  _allowedClaims[msg.sender] */\n      0x00\n        /* \"contracts/solar_insurance.sol\":8595:8605  msg.sender */\n      caller\n        /* \"contracts/solar_insurance.sol\":8580:8606  _allowedClaims[msg.sender] */\n      0xffffffffffffffffffffffffffffffffffffffff\n      and\n      0xffffffffffffffffffffffffffffffffffffffff\n      and\n      dup2\n      mstore\n      0x20\n      add\n      swap1\n      dup2\n      mstore\n      0x20\n      add\n      0x00\n      keccak256\n      sload\n        /* \"contracts/solar_insurance.sol\":8580:8614  _allowedClaims[msg.sender] == year */\n      eq\n        /* \"contracts/solar_insurance.sol\":8572:8664  require(_allowedClaims[msg.sender] == year, \"You cannot file a claim for the desired year.\") */\n      tag_94\n      jumpi\n      mload(0x40)\n      0x08c379a000000000000000000000000000000000000000000000000000000000\n      dup2\n      mstore\n      0x04\n      add\n      tag_95\n      swap1\n      tag_96\n      jump\t// in\n    tag_95:\n      mload(0x40)\n      dup1\n      swap2\n      sub\n      swap1\n      revert\n    tag_94:\n        /* \"contracts/solar_insurance.sol\":5759:5763  year */\n      dup2\n        /* \"contracts/solar_insurance.sol\":7992:8009  string memory key */\n      0x00\n        /* \"contracts/solar_insurance.sol\":8052:8069  SwissRegion.SOUTH */\n      dup1\n        /* \"contracts/solar_insurance.sol\":8012:8069  _contracts[msg.sender].panelLocation == SwissRegion.SOUTH */\n      0x01\n      dup2\n      gt\n      iszero\n      tag_98\n      jumpi\n      tag_99\n      tag_74\n      jump\t// in\n    tag_99:\n    tag_98:\n        /* \"contracts/solar_insurance.sol\":8012:8022  _contracts */\n      0x06\n        /* \"contracts/solar_insurance.sol\":8012:8034  _contracts[msg.sender] */\n      0x00\n        /* \"contracts/solar_insurance.sol\":8023:8033  msg.sender */\n      caller\n        /* \"contracts/solar_insurance.sol\":8012:8034  _contracts[msg.sender] */\n      0xffffffffffffffffffffffffffffffffffffffff\n      and\n      0xffffffffffffffffffffffffffffffffffffffff\n      and\n      dup2\n      mstore\n      0x20\n      add\n      swap1\n      dup2\n      mstore\n      0x20\n      add\n      0x00\n      keccak256\n        /* \"contracts/solar_insurance.sol\":8012:8048  _contracts[msg.sender].panelLocation */\n      0x00\n      add\n      0x14\n      swap1\n      sload\n      swap1\n      0x0100\n      exp\n      swap1\n      div\n      0xff\n      and\n        /* \"contracts/solar_insurance.sol\":8012:8069  _contracts[msg.sender].panelLocation == SwissRegion.SOUTH */\n      0x01\n      dup2\n      gt\n      iszero\n      tag_100\n      jumpi\n      tag_101\n      tag_74\n      jump\t// in\n    tag_101:\n    tag_100:\n      eq\n        /* \"contracts/solar_insurance.sol\":8012:8169  _contracts[msg.sender].panelLocation == SwissRegion.SOUTH ? string.concat(Strings.toString(year), \"_SOUTH\") : string.concat(Strings.toString(year), \"_NORTH\") */\n      tag_102\n      jumpi\n        /* \"contracts/solar_insurance.sol\":8136:8158  Strings.toString(year) */\n      tag_103\n        /* \"contracts/solar_insurance.sol\":8153:8157  year */\n      dup3\n        /* \"contracts/solar_insurance.sol\":8136:8152  Strings.toString */\n      tag_79\n        /* \"contracts/solar_insurance.sol\":8136:8158  Strings.toString(year) */\n      jump\t// in\n    tag_103:\n        /* \"contracts/solar_insurance.sol\":8122:8169  string.concat(Strings.toString(year), \"_NORTH\") */\n      add(0x20, mload(0x40))\n      tag_104\n      swap2\n      swap1\n      tag_81\n      jump\t// in\n    tag_104:\n      mload(0x40)\n      0x20\n      dup2\n      dup4\n      sub\n      sub\n      dup2\n      mstore\n      swap1\n      0x40\n      mstore\n        /* \"contracts/solar_insurance.sol\":8012:8169  _contracts[msg.sender].panelLocation == SwissRegion.SOUTH ? string.concat(Strings.toString(year), \"_SOUTH\") : string.concat(Strings.toString(year), \"_NORTH\") */\n      jump(tag_105)\n    tag_102:\n        /* \"contracts/solar_insurance.sol\":8086:8108  Strings.toString(year) */\n      tag_106\n        /* \"contracts/solar_insurance.sol\":8103:8107  year */\n      dup3\n        /* \"contracts/solar_insurance.sol\":8086:8102  Strings.toString */\n      tag_79\n        /* \"contracts/solar_insurance.sol\":8086:8108  Strings.toString(year) */\n      jump\t// in\n    tag_106:\n        /* \"contracts/solar_insurance.sol\":8072:8119  string.concat(Strings.toString(year), \"_SOUTH\") */\n      add(0x20, mload(0x40))\n      tag_107\n      swap2\n      swap1\n      tag_85\n      jump\t// in\n    tag_107:\n      mload(0x40)\n      0x20\n      dup2\n      dup4\n      sub\n      sub\n      dup2\n      mstore\n      swap1\n      0x40\n      mstore\n        /* \"contracts/solar_insurance.sol\":8012:8169  _contracts[msg.sender].panelLocation == SwissRegion.SOUTH ? string.concat(Strings.toString(year), \"_SOUTH\") : string.concat(Strings.toString(year), \"_NORTH\") */\n    tag_105:\n        /* \"contracts/solar_insurance.sol\":7992:8169  string memory key = _contracts[msg.sender].panelLocation == SwissRegion.SOUTH ? string.concat(Strings.toString(year), \"_SOUTH\") : string.concat(Strings.toString(year), \"_NORTH\") */\n      swap1\n      pop\n        /* \"contracts/solar_insurance.sol\":8229:8230  0 */\n      0x00\n        /* \"contracts/solar_insurance.sol\":8204:8220  _sunshineRecords */\n      0x05\n        /* \"contracts/solar_insurance.sol\":8221:8224  key */\n      dup3\n        /* \"contracts/solar_insurance.sol\":8204:8225  _sunshineRecords[key] */\n      mload(0x40)\n      tag_108\n      swap2\n      swap1\n      tag_87\n      jump\t// in\n    tag_108:\n      swap1\n      dup2\n      mstore\n      0x20\n      add\n      mload(0x40)\n      dup1\n      swap2\n      sub\n      swap1\n      keccak256\n      sload\n        /* \"contracts/solar_insurance.sol\":8204:8230  _sunshineRecords[key] != 0 */\n      sub\n        /* \"contracts/solar_insurance.sol\":8182:8290  require(... */\n      tag_109\n      jumpi\n      mload(0x40)\n      0x08c379a000000000000000000000000000000000000000000000000000000000\n      dup2\n      mstore\n      0x04\n      add\n      tag_110\n      swap1\n      tag_111\n      jump\t// in\n    tag_110:\n      mload(0x40)\n      dup1\n      swap2\n      sub\n      swap1\n      revert\n    tag_109:\n        /* \"contracts/solar_insurance.sol\":5786:5805  uint256 claimAmount */\n      0x00\n        /* \"contracts/solar_insurance.sol\":5808:5828  getClaimAmount(year) */\n      tag_113\n        /* \"contracts/solar_insurance.sol\":5823:5827  year */\n      dup6\n        /* \"contracts/solar_insurance.sol\":5808:5822  getClaimAmount */\n      tag_53\n        /* \"contracts/solar_insurance.sol\":5808:5828  getClaimAmount(year) */\n      jump\t// in\n    tag_113:\n        /* \"contracts/solar_insurance.sol\":5786:5828  uint256 claimAmount = getClaimAmount(year) */\n      swap1\n      pop\n        /* \"contracts/solar_insurance.sol\":5847:5857  msg.sender */\n      caller\n        /* \"contracts/solar_insurance.sol\":5839:5867  payable(msg.sender).transfer */\n      0xffffffffffffffffffffffffffffffffffffffff\n      and\n        /* \"contracts/solar_insurance.sol\":5839:5880  payable(msg.sender).transfer(claimAmount) */\n      0x08fc\n        /* \"contracts/solar_insurance.sol\":5868:5879  claimAmount */\n      dup3\n        /* \"contracts/solar_insurance.sol\":5839:5880  payable(msg.sender).transfer(claimAmount) */\n      swap1\n      dup2\n      iszero\n      mul\n      swap1\n      mload(0x40)\n      0x00\n      mload(0x40)\n      dup1\n      dup4\n      sub\n      dup2\n      dup6\n      dup9\n      dup9\n      call\n      swap4\n      pop\n      pop\n      pop\n      pop\n      iszero\n      dup1\n      iszero\n      tag_115\n      jumpi\n      returndatasize\n      0x00\n      dup1\n      returndatacopy\n      revert(0x00, returndatasize)\n    tag_115:\n      pop\n        /* \"contracts/solar_insurance.sol\":5893:5946  _contracts[msg.sender].claimTimeout.add(1 * 365 days) */\n      tag_116\n        /* \"contracts/solar_insurance.sol\":5933:5945  1 * 365 days */\n      0x01e13380\n        /* \"contracts/solar_insurance.sol\":5893:5903  _contracts */\n      0x06\n        /* \"contracts/solar_insurance.sol\":5893:5915  _contracts[msg.sender] */\n      0x00\n        /* \"contracts/solar_insurance.sol\":5904:5914  msg.sender */\n      caller\n        /* \"contracts/solar_insurance.sol\":5893:5915  _contracts[msg.sender] */\n      0xffffffffffffffffffffffffffffffffffffffff\n      and\n      0xffffffffffffffffffffffffffffffffffffffff\n      and\n      dup2\n      mstore\n      0x20\n      add\n      swap1\n      dup2\n      mstore\n      0x20\n      add\n      0x00\n      keccak256\n        /* \"contracts/solar_insurance.sol\":5893:5928  _contracts[msg.sender].claimTimeout */\n      0x05\n      add\n      sload\n        /* \"contracts/solar_insurance.sol\":5893:5932  _contracts[msg.sender].claimTimeout.add */\n      tag_117\n      swap1\n        /* \"contracts/solar_insurance.sol\":5893:5946  _contracts[msg.sender].claimTimeout.add(1 * 365 days) */\n      swap2\n      swap1\n      0xffffffff\n      and\n      jump\t// in\n    tag_116:\n      pop\n        /* \"contracts/solar_insurance.sol\":5994:5995  0 */\n      0x00\n        /* \"contracts/solar_insurance.sol\":5960:5970  _contracts */\n      0x06\n        /* \"contracts/solar_insurance.sol\":5960:5982  _contracts[msg.sender] */\n      0x00\n        /* \"contracts/solar_insurance.sol\":5971:5981  msg.sender */\n      caller\n        /* \"contracts/solar_insurance.sol\":5960:5982  _contracts[msg.sender] */\n      0xffffffffffffffffffffffffffffffffffffffff\n      and\n      0xffffffffffffffffffffffffffffffffffffffff\n      and\n      dup2\n      mstore\n      0x20\n      add\n      swap1\n      dup2\n      mstore\n      0x20\n      add\n      0x00\n      keccak256\n        /* \"contracts/solar_insurance.sol\":5960:5991  _contracts[msg.sender].duration */\n      0x04\n      add\n      sload\n        /* \"contracts/solar_insurance.sol\":5960:5995  _contracts[msg.sender].duration > 0 */\n      gt\n        /* \"contracts/solar_insurance.sol\":5957:6054  if(_contracts[msg.sender].duration > 0){... */\n      iszero\n      tag_118\n      jumpi\n        /* \"contracts/solar_insurance.sol\":6041:6042  1 */\n      0x01\n        /* \"contracts/solar_insurance.sol\":6011:6025  _allowedClaims */\n      0x07\n        /* \"contracts/solar_insurance.sol\":6011:6037  _allowedClaims[msg.sender] */\n      0x00\n        /* \"contracts/solar_insurance.sol\":6026:6036  msg.sender */\n      caller\n        /* \"contracts/solar_insurance.sol\":6011:6037  _allowedClaims[msg.sender] */\n      0xffffffffffffffffffffffffffffffffffffffff\n      and\n      0xffffffffffffffffffffffffffffffffffffffff\n      and\n      dup2\n      mstore\n      0x20\n      add\n      swap1\n      dup2\n      mstore\n      0x20\n      add\n      0x00\n      keccak256\n      0x00\n        /* \"contracts/solar_insurance.sol\":6011:6042  _allowedClaims[msg.sender] += 1 */\n      dup3\n      dup3\n      sload\n      tag_119\n      swap2\n      swap1\n      tag_120\n      jump\t// in\n    tag_119:\n      swap3\n      pop\n      pop\n      dup2\n      swap1\n      sstore\n      pop\n        /* \"contracts/solar_insurance.sol\":5957:6054  if(_contracts[msg.sender].duration > 0){... */\n    tag_118:\n        /* \"contracts/solar_insurance.sol\":5765:6061  {... */\n      pop\n        /* \"contracts/solar_insurance.sol\":7981:8310  {... */\n      pop\n        /* \"contracts/solar_insurance.sol\":8675:8676  _ */\n      pop\n        /* \"contracts/solar_insurance.sol\":7922:7923  _ */\n      pop\n        /* \"contracts/solar_insurance.sol\":5611:6061  function fileClaimWithoutTimeoutCheck(uint256 year) public ... */\n      pop\n      jump\t// out\n        /* \"contracts/solar_insurance.sol\":2134:2226  function owner() public view requireOwner() returns(address){... */\n    tag_34:\n        /* \"contracts/solar_insurance.sol\":2186:2193  address */\n      0x00\n        /* \"contracts/solar_insurance.sol\":6838:6844  _owner */\n      dup1\n      0x00\n      swap1\n      sload\n      swap1\n      0x0100\n      exp\n      swap1\n      div\n      0xffffffffffffffffffffffffffffffffffffffff\n      and\n        /* \"contracts/solar_insurance.sol\":6824:6844  msg.sender == _owner */\n      0xffffffffffffffffffffffffffffffffffffffff\n      and\n        /* \"contracts/solar_insurance.sol\":6824:6834  msg.sender */\n      caller\n        /* \"contracts/solar_insurance.sol\":6824:6844  msg.sender == _owner */\n      0xffffffffffffffffffffffffffffffffffffffff\n      and\n      eq\n        /* \"contracts/solar_insurance.sol\":6802:6923  require(... */\n      tag_122\n      jumpi\n      mload(0x40)\n      0x08c379a000000000000000000000000000000000000000000000000000000000\n      dup2\n      mstore\n      0x04\n      add\n      tag_123\n      swap1\n      tag_124\n      jump\t// in\n    tag_123:\n      mload(0x40)\n      dup1\n      swap2\n      sub\n      swap1\n      revert\n    tag_122:\n        /* \"contracts/solar_insurance.sol\":2212:2218  _owner */\n      0x00\n      dup1\n      sload\n      swap1\n      0x0100\n      exp\n      swap1\n      div\n      0xffffffffffffffffffffffffffffffffffffffff\n      and\n        /* \"contracts/solar_insurance.sol\":2205:2218  return _owner */\n      swap1\n      pop\n        /* \"contracts/solar_insurance.sol\":2134:2226  function owner() public view requireOwner() returns(address){... */\n      swap1\n      jump\t// out\n        /* \"contracts/solar_insurance.sol\":4865:5018  function getSolarInsurance() public ... */\n    tag_39:\n        /* \"contracts/solar_insurance.sol\":4940:4969  SolarInsuranceContract memory */\n      tag_126\n      tag_127\n      jump\t// in\n    tag_126:\n        /* \"contracts/solar_insurance.sol\":7812:7813  0 */\n      0x00\n        /* \"contracts/solar_insurance.sol\":7778:7788  _contracts */\n      0x06\n        /* \"contracts/solar_insurance.sol\":7778:7800  _contracts[msg.sender] */\n      0x00\n        /* \"contracts/solar_insurance.sol\":7789:7799  msg.sender */\n      caller\n        /* \"contracts/solar_insurance.sol\":7778:7800  _contracts[msg.sender] */\n      0xffffffffffffffffffffffffffffffffffffffff\n      and\n      0xffffffffffffffffffffffffffffffffffffffff\n      and\n      dup2\n      mstore\n      0x20\n      add\n      swap1\n      dup2\n      mstore\n      0x20\n      add\n      0x00\n      keccak256\n        /* \"contracts/solar_insurance.sol\":7778:7809  _contracts[msg.sender].duration */\n      0x04\n      add\n      sload\n        /* \"contracts/solar_insurance.sol\":7778:7813  _contracts[msg.sender].duration > 0 */\n      gt\n        /* \"contracts/solar_insurance.sol\":7778:7866  _contracts[msg.sender].duration > 0 && _contracts[msg.sender].duration > block.timestamp */\n      dup1\n      iszero\n      tag_129\n      jumpi\n      pop\n        /* \"contracts/solar_insurance.sol\":7851:7866  block.timestamp */\n      timestamp\n        /* \"contracts/solar_insurance.sol\":7817:7827  _contracts */\n      0x06\n        /* \"contracts/solar_insurance.sol\":7817:7839  _contracts[msg.sender] */\n      0x00\n        /* \"contracts/solar_insurance.sol\":7828:7838  msg.sender */\n      caller\n        /* \"contracts/solar_insurance.sol\":7817:7839  _contracts[msg.sender] */\n      0xffffffffffffffffffffffffffffffffffffffff\n      and\n      0xffffffffffffffffffffffffffffffffffffffff\n      and\n      dup2\n      mstore\n      0x20\n      add\n      swap1\n      dup2\n      mstore\n      0x20\n      add\n      0x00\n      keccak256\n        /* \"contracts/solar_insurance.sol\":7817:7848  _contracts[msg.sender].duration */\n      0x04\n      add\n      sload\n        /* \"contracts/solar_insurance.sol\":7817:7866  _contracts[msg.sender].duration > block.timestamp */\n      gt\n        /* \"contracts/solar_insurance.sol\":7778:7866  _contracts[msg.sender].duration > 0 && _contracts[msg.sender].duration > block.timestamp */\n    tag_129:\n        /* \"contracts/solar_insurance.sol\":7756:7911  require(... */\n      tag_130\n      jumpi\n      mload(0x40)\n      0x08c379a000000000000000000000000000000000000000000000000000000000\n      dup2\n      mstore\n      0x04\n      add\n      tag_131\n      swap1\n      tag_92\n      jump\t// in\n    tag_131:\n      mload(0x40)\n      dup1\n      swap2\n      sub\n      swap1\n      revert\n    tag_130:\n        /* \"contracts/solar_insurance.sol\":4988:4998  _contracts */\n      0x06\n        /* \"contracts/solar_insurance.sol\":4988:5010  _contracts[msg.sender] */\n      0x00\n        /* \"contracts/solar_insurance.sol\":4999:5009  msg.sender */\n      caller\n        /* \"contracts/solar_insurance.sol\":4988:5010  _contracts[msg.sender] */\n      0xffffffffffffffffffffffffffffffffffffffff\n      and\n      0xffffffffffffffffffffffffffffffffffffffff\n      and\n      dup2\n      mstore\n      0x20\n      add\n      swap1\n      dup2\n      mstore\n      0x20\n      add\n      0x00\n      keccak256\n        /* \"contracts/solar_insurance.sol\":4981:5010  return _contracts[msg.sender] */\n      mload(0x40)\n      dup1\n      0x0100\n      add\n      0x40\n      mstore\n      swap1\n      dup2\n      0x00\n      dup3\n      add\n      0x00\n      swap1\n      sload\n      swap1\n      0x0100\n      exp\n      swap1\n      div\n      0xffffffffffffffffffffffffffffffffffffffff\n      and\n      0xffffffffffffffffffffffffffffffffffffffff\n      and\n      0xffffffffffffffffffffffffffffffffffffffff\n      and\n      dup2\n      mstore\n      0x20\n      add\n      0x00\n      dup3\n      add\n      0x14\n      swap1\n      sload\n      swap1\n      0x0100\n      exp\n      swap1\n      div\n      0xff\n      and\n      0x01\n      dup2\n      gt\n      iszero\n      tag_133\n      jumpi\n      tag_134\n      tag_74\n      jump\t// in\n    tag_134:\n    tag_133:\n      0x01\n      dup2\n      gt\n      iszero\n      tag_135\n      jumpi\n      tag_136\n      tag_74\n      jump\t// in\n    tag_136:\n    tag_135:\n      dup2\n      mstore\n      0x20\n      add\n      0x00\n      dup3\n      add\n      0x15\n      swap1\n      sload\n      swap1\n      0x0100\n      exp\n      swap1\n      div\n      0xff\n      and\n      0x02\n      dup2\n      gt\n      iszero\n      tag_137\n      jumpi\n      tag_138\n      tag_74\n      jump\t// in\n    tag_138:\n    tag_137:\n      0x02\n      dup2\n      gt\n      iszero\n      tag_139\n      jumpi\n      tag_140\n      tag_74\n      jump\t// in\n    tag_140:\n    tag_139:\n      dup2\n      mstore\n      0x20\n      add\n      0x01\n      dup3\n      add\n      sload\n      dup2\n      mstore\n      0x20\n      add\n      0x02\n      dup3\n      add\n      sload\n      dup2\n      mstore\n      0x20\n      add\n      0x03\n      dup3\n      add\n      sload\n      dup2\n      mstore\n      0x20\n      add\n      0x04\n      dup3\n      add\n      sload\n      dup2\n      mstore\n      0x20\n      add\n      0x05\n      dup3\n      add\n      sload\n      dup2\n      mstore\n      pop\n      pop\n      swap1\n      pop\n        /* \"contracts/solar_insurance.sol\":4865:5018  function getSolarInsurance() public ... */\n      swap1\n      jump\t// out\n        /* \"contracts/solar_insurance.sol\":2299:3142  function registerPolicy(ClientRiskLevels riskLevel, uint256 panelArea, SwissRegion location) public payable ... */\n    tag_45:\n        /* \"contracts/solar_insurance.sol\":7514:7515  0 */\n      0x00\n        /* \"contracts/solar_insurance.sol\":7479:7489  _contracts */\n      0x06\n        /* \"contracts/solar_insurance.sol\":7479:7501  _contracts[msg.sender] */\n      0x00\n        /* \"contracts/solar_insurance.sol\":7490:7500  msg.sender */\n      caller\n        /* \"contracts/solar_insurance.sol\":7479:7501  _contracts[msg.sender] */\n      0xffffffffffffffffffffffffffffffffffffffff\n      and\n      0xffffffffffffffffffffffffffffffffffffffff\n      and\n      dup2\n      mstore\n      0x20\n      add\n      swap1\n      dup2\n      mstore\n      0x20\n      add\n      0x00\n      keccak256\n        /* \"contracts/solar_insurance.sol\":7479:7510  _contracts[msg.sender].duration */\n      0x04\n      add\n      sload\n        /* \"contracts/solar_insurance.sol\":7479:7515  _contracts[msg.sender].duration == 0 */\n      eq\n        /* \"contracts/solar_insurance.sol\":7479:7568  _contracts[msg.sender].duration == 0 || _contracts[msg.sender].duration < block.timestamp */\n      dup1\n      tag_142\n      jumpi\n      pop\n        /* \"contracts/solar_insurance.sol\":7553:7568  block.timestamp */\n      timestamp\n        /* \"contracts/solar_insurance.sol\":7519:7529  _contracts */\n      0x06\n        /* \"contracts/solar_insurance.sol\":7519:7541  _contracts[msg.sender] */\n      0x00\n        /* \"contracts/solar_insurance.sol\":7530:7540  msg.sender */\n      caller\n        /* \"contracts/solar_insurance.sol\":7519:7541  _contracts[msg.sender] */\n      0xffffffffffffffffffffffffffffffffffffffff\n      and\n      0xffffffffffffffffffffffffffffffffffffffff\n      and\n      dup2\n      mstore\n      0x20\n      add\n      swap1\n      dup2\n      mstore\n      0x20\n      add\n      0x00\n      keccak256\n        /* \"contracts/solar_insurance.sol\":7519:7550  _contracts[msg.sender].duration */\n      0x04\n      add\n      sload\n        /* \"contracts/solar_insurance.sol\":7519:7568  _contracts[msg.sender].duration < block.timestamp */\n      lt\n        /* \"contracts/solar_insurance.sol\":7479:7568  _contracts[msg.sender].duration == 0 || _contracts[msg.sender].duration < block.timestamp */\n    tag_142:\n        /* \"contracts/solar_insurance.sol\":7457:7617  require(... */\n      tag_143\n      jumpi\n      mload(0x40)\n      0x08c379a000000000000000000000000000000000000000000000000000000000\n      dup2\n      mstore\n      0x04\n      add\n      tag_144\n      swap1\n      tag_145\n      jump\t// in\n    tag_144:\n      mload(0x40)\n      dup1\n      swap2\n      sub\n      swap1\n      revert\n    tag_143:\n        /* \"contracts/solar_insurance.sol\":2466:2475  riskLevel */\n      dup3\n        /* \"contracts/solar_insurance.sol\":2477:2486  panelArea */\n      dup3\n        /* \"contracts/solar_insurance.sol\":7117:7129  uint256 prem */\n      0x00\n        /* \"contracts/solar_insurance.sol\":7170:7179  panelArea */\n      dup2\n        /* \"contracts/solar_insurance.sol\":7132:7148  _insuranceLevels */\n      0x04\n        /* \"contracts/solar_insurance.sol\":7132:7159  _insuranceLevels[riskLevel] */\n      0x00\n        /* \"contracts/solar_insurance.sol\":7149:7158  riskLevel */\n      dup6\n        /* \"contracts/solar_insurance.sol\":7132:7159  _insuranceLevels[riskLevel] */\n      0x02\n      dup2\n      gt\n      iszero\n      tag_147\n      jumpi\n      tag_148\n      tag_74\n      jump\t// in\n    tag_148:\n    tag_147:\n      0x02\n      dup2\n      gt\n      iszero\n      tag_149\n      jumpi\n      tag_150\n      tag_74\n      jump\t// in\n    tag_150:\n    tag_149:\n      dup2\n      mstore\n      0x20\n      add\n      swap1\n      dup2\n      mstore\n      0x20\n      add\n      0x00\n      keccak256\n        /* \"contracts/solar_insurance.sol\":7132:7167  _insuranceLevels[riskLevel].premium */\n      0x00\n      add\n      sload\n        /* \"contracts/solar_insurance.sol\":7132:7179  _insuranceLevels[riskLevel].premium * panelArea */\n      tag_151\n      swap2\n      swap1\n      tag_152\n      jump\t// in\n    tag_151:\n        /* \"contracts/solar_insurance.sol\":7117:7179  uint256 prem = _insuranceLevels[riskLevel].premium * panelArea */\n      swap1\n      pop\n        /* \"contracts/solar_insurance.sol\":7225:7229  prem */\n      dup1\n        /* \"contracts/solar_insurance.sol\":7212:7221  msg.value */\n      callvalue\n        /* \"contracts/solar_insurance.sol\":7212:7229  msg.value == prem */\n      eq\n        /* \"contracts/solar_insurance.sol\":7190:7306  require(... */\n      tag_153\n      jumpi\n      mload(0x40)\n      0x08c379a000000000000000000000000000000000000000000000000000000000\n      dup2\n      mstore\n      0x04\n      add\n      tag_154\n      swap1\n      tag_155\n      jump\t// in\n    tag_154:\n      mload(0x40)\n      dup1\n      swap2\n      sub\n      swap1\n      revert\n    tag_153:\n        /* \"contracts/solar_insurance.sol\":2526:2995  SolarInsuranceContract(... */\n      mload(0x40)\n      dup1\n      0x0100\n      add\n      0x40\n      mstore\n      dup1\n        /* \"contracts/solar_insurance.sol\":2563:2573  msg.sender */\n      caller\n        /* \"contracts/solar_insurance.sol\":2526:2995  SolarInsuranceContract(... */\n      0xffffffffffffffffffffffffffffffffffffffff\n      and\n      dup2\n      mstore\n      0x20\n      add\n        /* \"contracts/solar_insurance.sol\":2598:2606  location */\n      dup6\n        /* \"contracts/solar_insurance.sol\":2526:2995  SolarInsuranceContract(... */\n      0x01\n      dup2\n      gt\n      iszero\n      tag_157\n      jumpi\n      tag_158\n      tag_74\n      jump\t// in\n    tag_158:\n    tag_157:\n      dup2\n      mstore\n      0x20\n      add\n        /* \"contracts/solar_insurance.sol\":2622:2631  riskLevel */\n      dup8\n        /* \"contracts/solar_insurance.sol\":2526:2995  SolarInsuranceContract(... */\n      0x02\n      dup2\n      gt\n      iszero\n      tag_159\n      jumpi\n      tag_160\n      tag_74\n      jump\t// in\n    tag_160:\n    tag_159:\n      dup2\n      mstore\n      0x20\n      add\n        /* \"contracts/solar_insurance.sol\":2647:2656  panelArea */\n      dup7\n        /* \"contracts/solar_insurance.sol\":2526:2995  SolarInsuranceContract(... */\n      dup2\n      mstore\n      0x20\n      add\n        /* \"contracts/solar_insurance.sol\":2703:2719  _insuranceLevels */\n      0x04\n        /* \"contracts/solar_insurance.sol\":2703:2730  _insuranceLevels[riskLevel] */\n      0x00\n        /* \"contracts/solar_insurance.sol\":2720:2729  riskLevel */\n      dup10\n        /* \"contracts/solar_insurance.sol\":2703:2730  _insuranceLevels[riskLevel] */\n      0x02\n      dup2\n      gt\n      iszero\n      tag_161\n      jumpi\n      tag_162\n      tag_74\n      jump\t// in\n    tag_162:\n    tag_161:\n      0x02\n      dup2\n      gt\n      iszero\n      tag_163\n      jumpi\n      tag_164\n      tag_74\n      jump\t// in\n    tag_164:\n    tag_163:\n      dup2\n      mstore\n      0x20\n      add\n      swap1\n      dup2\n      mstore\n      0x20\n      add\n      0x00\n      keccak256\n        /* \"contracts/solar_insurance.sol\":2703:2738  _insuranceLevels[riskLevel].premium */\n      0x00\n      add\n      sload\n        /* \"contracts/solar_insurance.sol\":2691:2700  panelArea */\n      dup8\n        /* \"contracts/solar_insurance.sol\":2691:2738  panelArea * _insuranceLevels[riskLevel].premium */\n      tag_165\n      swap2\n      swap1\n      tag_152\n      jump\t// in\n    tag_165:\n        /* \"contracts/solar_insurance.sol\":2526:2995  SolarInsuranceContract(... */\n      dup2\n      mstore\n      0x20\n      add\n        /* \"contracts/solar_insurance.sol\":2771:2786  block.timestamp */\n      timestamp\n        /* \"contracts/solar_insurance.sol\":2526:2995  SolarInsuranceContract(... */\n      dup2\n      mstore\n      0x20\n      add\n        /* \"contracts/solar_insurance.sol\":2825:2858  block.timestamp.add(1 * 365 days) */\n      tag_166\n        /* \"contracts/solar_insurance.sol\":2845:2857  1 * 365 days */\n      0x01e13380\n        /* \"contracts/solar_insurance.sol\":2825:2840  block.timestamp */\n      timestamp\n        /* \"contracts/solar_insurance.sol\":2825:2844  block.timestamp.add */\n      tag_117\n      swap1\n        /* \"contracts/solar_insurance.sol\":2825:2858  block.timestamp.add(1 * 365 days) */\n      swap2\n      swap1\n      0xffffffff\n      and\n      jump\t// in\n    tag_166:\n        /* \"contracts/solar_insurance.sol\":2526:2995  SolarInsuranceContract(... */\n      dup2\n      mstore\n      0x20\n      add\n        /* \"contracts/solar_insurance.sol\":2893:2926  block.timestamp.add(1 * 365 days) */\n      tag_167\n        /* \"contracts/solar_insurance.sol\":2913:2925  1 * 365 days */\n      0x01e13380\n        /* \"contracts/solar_insurance.sol\":2893:2908  block.timestamp */\n      timestamp\n        /* \"contracts/solar_insurance.sol\":2893:2912  block.timestamp.add */\n      tag_117\n      swap1\n        /* \"contracts/solar_insurance.sol\":2893:2926  block.timestamp.add(1 * 365 days) */\n      swap2\n      swap1\n      0xffffffff\n      and\n      jump\t// in\n    tag_167:\n        /* \"contracts/solar_insurance.sol\":2526:2995  SolarInsuranceContract(... */\n      dup2\n      mstore\n      pop\n        /* \"contracts/solar_insurance.sol\":2501:2511  _contracts */\n      0x06\n        /* \"contracts/solar_insurance.sol\":2501:2523  _contracts[msg.sender] */\n      0x00\n        /* \"contracts/solar_insurance.sol\":2512:2522  msg.sender */\n      caller\n        /* \"contracts/solar_insurance.sol\":2501:2523  _contracts[msg.sender] */\n      0xffffffffffffffffffffffffffffffffffffffff\n      and\n      0xffffffffffffffffffffffffffffffffffffffff\n      and\n      dup2\n      mstore\n      0x20\n      add\n      swap1\n      dup2\n      mstore\n      0x20\n      add\n      0x00\n      keccak256\n        /* \"contracts/solar_insurance.sol\":2501:2995  _contracts[msg.sender] = SolarInsuranceContract(... */\n      0x00\n      dup3\n      add\n      mload\n      dup2\n      0x00\n      add\n      exp(0x0100, 0x00)\n      dup2\n      sload\n      dup2\n      0xffffffffffffffffffffffffffffffffffffffff\n      mul\n      not\n      and\n      swap1\n      dup4\n      0xffffffffffffffffffffffffffffffffffffffff\n      and\n      mul\n      or\n      swap1\n      sstore\n      pop\n      0x20\n      dup3\n      add\n      mload\n      dup2\n      0x00\n      add\n      exp(0x0100, 0x14)\n      dup2\n      sload\n      dup2\n      0xff\n      mul\n      not\n      and\n      swap1\n      dup4\n      0x01\n      dup2\n      gt\n      iszero\n      tag_168\n      jumpi\n      tag_169\n      tag_74\n      jump\t// in\n    tag_169:\n    tag_168:\n      mul\n      or\n      swap1\n      sstore\n      pop\n      0x40\n      dup3\n      add\n      mload\n      dup2\n      0x00\n      add\n      exp(0x0100, 0x15)\n      dup2\n      sload\n      dup2\n      0xff\n      mul\n      not\n      and\n      swap1\n      dup4\n      0x02\n      dup2\n      gt\n      iszero\n      tag_170\n      jumpi\n      tag_171\n      tag_74\n      jump\t// in\n    tag_171:\n    tag_170:\n      mul\n      or\n      swap1\n      sstore\n      pop\n      0x60\n      dup3\n      add\n      mload\n      dup2\n      0x01\n      add\n      sstore\n      0x80\n      dup3\n      add\n      mload\n      dup2\n      0x02\n      add\n      sstore\n      0xa0\n      dup3\n      add\n      mload\n      dup2\n      0x03\n      add\n      sstore\n      0xc0\n      dup3\n      add\n      mload\n      dup2\n      0x04\n      add\n      sstore\n      0xe0\n      dup3\n      add\n      mload\n      dup2\n      0x05\n      add\n      sstore\n      swap1\n      pop\n      pop\n        /* \"contracts/solar_insurance.sol\":3076:3080  1970 */\n      0x07b2\n        /* \"contracts/solar_insurance.sol\":3054:3072  60 * 60 * 24 * 365 */\n      0x01e13380\n        /* \"contracts/solar_insurance.sol\":3037:3052  block.timestamp */\n      timestamp\n        /* \"contracts/solar_insurance.sol\":3037:3073  block.timestamp/(60 * 60 * 24 * 365) */\n      tag_172\n      swap2\n      swap1\n      tag_173\n      jump\t// in\n    tag_172:\n        /* \"contracts/solar_insurance.sol\":3037:3080  block.timestamp/(60 * 60 * 24 * 365) + 1970 */\n      tag_174\n      swap2\n      swap1\n      tag_120\n      jump\t// in\n    tag_174:\n        /* \"contracts/solar_insurance.sol\":3008:3022  _allowedClaims */\n      0x07\n        /* \"contracts/solar_insurance.sol\":3008:3034  _allowedClaims[msg.sender] */\n      0x00\n        /* \"contracts/solar_insurance.sol\":3023:3033  msg.sender */\n      caller\n        /* \"contracts/solar_insurance.sol\":3008:3034  _allowedClaims[msg.sender] */\n      0xffffffffffffffffffffffffffffffffffffffff\n      and\n      0xffffffffffffffffffffffffffffffffffffffff\n      and\n      dup2\n      mstore\n      0x20\n      add\n      swap1\n      dup2\n      mstore\n      0x20\n      add\n      0x00\n      keccak256\n        /* \"contracts/solar_insurance.sol\":3008:3080  _allowedClaims[msg.sender] = block.timestamp/(60 * 60 * 24 * 365) + 1970 */\n      dup2\n      swap1\n      sstore\n      pop\n        /* \"contracts/solar_insurance.sol\":3091:3100  _payments */\n      0x09\n        /* \"contracts/solar_insurance.sol\":3091:3112  _payments[msg.sender] */\n      0x00\n        /* \"contracts/solar_insurance.sol\":3101:3111  msg.sender */\n      caller\n        /* \"contracts/solar_insurance.sol\":3091:3112  _payments[msg.sender] */\n      0xffffffffffffffffffffffffffffffffffffffff\n      and\n      0xffffffffffffffffffffffffffffffffffffffff\n      and\n      dup2\n      mstore\n      0x20\n      add\n      swap1\n      dup2\n      mstore\n      0x20\n      add\n      0x00\n      keccak256\n        /* \"contracts/solar_insurance.sol\":3118:3133  block.timestamp */\n      timestamp\n        /* \"contracts/solar_insurance.sol\":3091:3134  _payments[msg.sender].push(block.timestamp) */\n      swap1\n      dup1\n      0x01\n      dup2\n      sload\n      add\n      dup1\n      dup3\n      sstore\n      dup1\n      swap2\n      pop\n      pop\n      0x01\n      swap1\n      sub\n      swap1\n      0x00\n      mstore\n      keccak256(0x00, 0x20)\n      add\n      0x00\n      swap1\n      swap2\n      swap1\n      swap2\n      swap1\n      swap2\n      pop\n      sstore\n        /* \"contracts/solar_insurance.sol\":7106:7327  {... */\n      pop\n        /* \"contracts/solar_insurance.sol\":7628:7629  _ */\n      pop\n      pop\n        /* \"contracts/solar_insurance.sol\":2299:3142  function registerPolicy(ClientRiskLevels riskLevel, uint256 panelArea, SwissRegion location) public payable ... */\n      pop\n      pop\n      pop\n      jump\t// out\n        /* \"contracts/solar_insurance.sol\":5391:5506  function fundContract() public payable {... */\n    tag_47:\n        /* \"contracts/solar_insurance.sol\":5461:5462  0 */\n      0x00\n        /* \"contracts/solar_insurance.sol\":5449:5458  msg.value */\n      callvalue\n        /* \"contracts/solar_insurance.sol\":5449:5462  msg.value > 0 */\n      gt\n        /* \"contracts/solar_insurance.sol\":5441:5498  require(msg.value > 0, \"Cannot load the contract with 0\") */\n      tag_177\n      jumpi\n      mload(0x40)\n      0x08c379a000000000000000000000000000000000000000000000000000000000\n      dup2\n      mstore\n      0x04\n      add\n      tag_178\n      swap1\n      tag_179\n      jump\t// in\n    tag_178:\n      mload(0x40)\n      dup1\n      swap2\n      sub\n      swap1\n      revert\n    tag_177:\n        /* \"contracts/solar_insurance.sol\":5391:5506  function fundContract() public payable {... */\n      jump\t// out\n        /* \"contracts/solar_insurance.sol\":3208:3439  function renewPolicy() public payable... */\n    tag_49:\n        /* \"contracts/solar_insurance.sol\":7812:7813  0 */\n      0x00\n        /* \"contracts/solar_insurance.sol\":7778:7788  _contracts */\n      0x06\n        /* \"contracts/solar_insurance.sol\":7778:7800  _contracts[msg.sender] */\n      0x00\n        /* \"contracts/solar_insurance.sol\":7789:7799  msg.sender */\n      caller\n        /* \"contracts/solar_insurance.sol\":7778:7800  _contracts[msg.sender] */\n      0xffffffffffffffffffffffffffffffffffffffff\n      and\n      0xffffffffffffffffffffffffffffffffffffffff\n      and\n      dup2\n      mstore\n      0x20\n      add\n      swap1\n      dup2\n      mstore\n      0x20\n      add\n      0x00\n      keccak256\n        /* \"contracts/solar_insurance.sol\":7778:7809  _contracts[msg.sender].duration */\n      0x04\n      add\n      sload\n        /* \"contracts/solar_insurance.sol\":7778:7813  _contracts[msg.sender].duration > 0 */\n      gt\n        /* \"contracts/solar_insurance.sol\":7778:7866  _contracts[msg.sender].duration > 0 && _contracts[msg.sender].duration > block.timestamp */\n      dup1\n      iszero\n      tag_181\n      jumpi\n      pop\n        /* \"contracts/solar_insurance.sol\":7851:7866  block.timestamp */\n      timestamp\n        /* \"contracts/solar_insurance.sol\":7817:7827  _contracts */\n      0x06\n        /* \"contracts/solar_insurance.sol\":7817:7839  _contracts[msg.sender] */\n      0x00\n        /* \"contracts/solar_insurance.sol\":7828:7838  msg.sender */\n      caller\n        /* \"contracts/solar_insurance.sol\":7817:7839  _contracts[msg.sender] */\n      0xffffffffffffffffffffffffffffffffffffffff\n      and\n      0xffffffffffffffffffffffffffffffffffffffff\n      and\n      dup2\n      mstore\n      0x20\n      add\n      swap1\n      dup2\n      mstore\n      0x20\n      add\n      0x00\n      keccak256\n        /* \"contracts/solar_insurance.sol\":7817:7848  _contracts[msg.sender].duration */\n      0x04\n      add\n      sload\n        /* \"contracts/solar_insurance.sol\":7817:7866  _contracts[msg.sender].duration > block.timestamp */\n      gt\n        /* \"contracts/solar_insurance.sol\":7778:7866  _contracts[msg.sender].duration > 0 && _contracts[msg.sender].duration > block.timestamp */\n    tag_181:\n        /* \"contracts/solar_insurance.sol\":7756:7911  require(... */\n      tag_182\n      jumpi\n      mload(0x40)\n      0x08c379a000000000000000000000000000000000000000000000000000000000\n      dup2\n      mstore\n      0x04\n      add\n      tag_183\n      swap1\n      tag_92\n      jump\t// in\n    tag_183:\n      mload(0x40)\n      dup1\n      swap2\n      sub\n      swap1\n      revert\n    tag_182:\n        /* \"contracts/solar_insurance.sol\":3301:3311  _contracts */\n      0x06\n        /* \"contracts/solar_insurance.sol\":3301:3323  _contracts[msg.sender] */\n      0x00\n        /* \"contracts/solar_insurance.sol\":3312:3322  msg.sender */\n      caller\n        /* \"contracts/solar_insurance.sol\":3301:3323  _contracts[msg.sender] */\n      0xffffffffffffffffffffffffffffffffffffffff\n      and\n      0xffffffffffffffffffffffffffffffffffffffff\n      and\n      dup2\n      mstore\n      0x20\n      add\n      swap1\n      dup2\n      mstore\n      0x20\n      add\n      0x00\n      keccak256\n        /* \"contracts/solar_insurance.sol\":3301:3333  _contracts[msg.sender].riskLevel */\n      0x00\n      add\n      0x15\n      swap1\n      sload\n      swap1\n      0x0100\n      exp\n      swap1\n      div\n      0xff\n      and\n        /* \"contracts/solar_insurance.sol\":3335:3345  _contracts */\n      0x06\n        /* \"contracts/solar_insurance.sol\":3335:3357  _contracts[msg.sender] */\n      0x00\n        /* \"contracts/solar_insurance.sol\":3346:3356  msg.sender */\n      caller\n        /* \"contracts/solar_insurance.sol\":3335:3357  _contracts[msg.sender] */\n      0xffffffffffffffffffffffffffffffffffffffff\n      and\n      0xffffffffffffffffffffffffffffffffffffffff\n      and\n      dup2\n      mstore\n      0x20\n      add\n      swap1\n      dup2\n      mstore\n      0x20\n      add\n      0x00\n      keccak256\n        /* \"contracts/solar_insurance.sol\":3335:3367  _contracts[msg.sender].panelArea */\n      0x01\n      add\n      sload\n        /* \"contracts/solar_insurance.sol\":7117:7129  uint256 prem */\n      0x00\n        /* \"contracts/solar_insurance.sol\":7170:7179  panelArea */\n      dup2\n        /* \"contracts/solar_insurance.sol\":7132:7148  _insuranceLevels */\n      0x04\n        /* \"contracts/solar_insurance.sol\":7132:7159  _insuranceLevels[riskLevel] */\n      0x00\n        /* \"contracts/solar_insurance.sol\":7149:7158  riskLevel */\n      dup6\n        /* \"contracts/solar_insurance.sol\":7132:7159  _insuranceLevels[riskLevel] */\n      0x02\n      dup2\n      gt\n      iszero\n      tag_185\n      jumpi\n      tag_186\n      tag_74\n      jump\t// in\n    tag_186:\n    tag_185:\n      0x02\n      dup2\n      gt\n      iszero\n      tag_187\n      jumpi\n      tag_188\n      tag_74\n      jump\t// in\n    tag_188:\n    tag_187:\n      dup2\n      mstore\n      0x20\n      add\n      swap1\n      dup2\n      mstore\n      0x20\n      add\n      0x00\n      keccak256\n        /* \"contracts/solar_insurance.sol\":7132:7167  _insuranceLevels[riskLevel].premium */\n      0x00\n      add\n      sload\n        /* \"contracts/solar_insurance.sol\":7132:7179  _insuranceLevels[riskLevel].premium * panelArea */\n      tag_189\n      swap2\n      swap1\n      tag_152\n      jump\t// in\n    tag_189:\n        /* \"contracts/solar_insurance.sol\":7117:7179  uint256 prem = _insuranceLevels[riskLevel].premium * panelArea */\n      swap1\n      pop\n        /* \"contracts/solar_insurance.sol\":7225:7229  prem */\n      dup1\n        /* \"contracts/solar_insurance.sol\":7212:7221  msg.value */\n      callvalue\n        /* \"contracts/solar_insurance.sol\":7212:7229  msg.value == prem */\n      eq\n        /* \"contracts/solar_insurance.sol\":7190:7306  require(... */\n      tag_190\n      jumpi\n      mload(0x40)\n      0x08c379a000000000000000000000000000000000000000000000000000000000\n      dup2\n      mstore\n      0x04\n      add\n      tag_191\n      swap1\n      tag_155\n      jump\t// in\n    tag_191:\n      mload(0x40)\n      dup1\n      swap2\n      sub\n      swap1\n      revert\n    tag_190:\n        /* \"contracts/solar_insurance.sol\":3382:3431  _contracts[msg.sender].duration.add(1 * 365 days) */\n      tag_193\n        /* \"contracts/solar_insurance.sol\":3418:3430  1 * 365 days */\n      0x01e13380\n        /* \"contracts/solar_insurance.sol\":3382:3392  _contracts */\n      0x06\n        /* \"contracts/solar_insurance.sol\":3382:3404  _contracts[msg.sender] */\n      0x00\n        /* \"contracts/solar_insurance.sol\":3393:3403  msg.sender */\n      caller\n        /* \"contracts/solar_insurance.sol\":3382:3404  _contracts[msg.sender] */\n      0xffffffffffffffffffffffffffffffffffffffff\n      and\n      0xffffffffffffffffffffffffffffffffffffffff\n      and\n      dup2\n      mstore\n      0x20\n      add\n      swap1\n      dup2\n      mstore\n      0x20\n      add\n      0x00\n      keccak256\n        /* \"contracts/solar_insurance.sol\":3382:3413  _contracts[msg.sender].duration */\n      0x04\n      add\n      sload\n        /* \"contracts/solar_insurance.sol\":3382:3417  _contracts[msg.sender].duration.add */\n      tag_117\n      swap1\n        /* \"contracts/solar_insurance.sol\":3382:3431  _contracts[msg.sender].duration.add(1 * 365 days) */\n      swap2\n      swap1\n      0xffffffff\n      and\n      jump\t// in\n    tag_193:\n      pop\n        /* \"contracts/solar_insurance.sol\":7106:7327  {... */\n      pop\n        /* \"contracts/solar_insurance.sol\":7922:7923  _ */\n      pop\n      pop\n        /* \"contracts/solar_insurance.sol\":3208:3439  function renewPolicy() public payable... */\n      jump\t// out\n        /* \"contracts/solar_insurance.sol\":6069:6690  function getClaimAmount(uint256 year) public view returns(uint256) {... */\n    tag_53:\n        /* \"contracts/solar_insurance.sol\":6127:6134  uint256 */\n      0x00\n        /* \"contracts/solar_insurance.sol\":6147:6178  SolarInsuranceContract memory c */\n      dup1\n        /* \"contracts/solar_insurance.sol\":6181:6191  _contracts */\n      0x06\n        /* \"contracts/solar_insurance.sol\":6181:6203  _contracts[msg.sender] */\n      0x00\n        /* \"contracts/solar_insurance.sol\":6192:6202  msg.sender */\n      caller\n        /* \"contracts/solar_insurance.sol\":6181:6203  _contracts[msg.sender] */\n      0xffffffffffffffffffffffffffffffffffffffff\n      and\n      0xffffffffffffffffffffffffffffffffffffffff\n      and\n      dup2\n      mstore\n      0x20\n      add\n      swap1\n      dup2\n      mstore\n      0x20\n      add\n      0x00\n      keccak256\n        /* \"contracts/solar_insurance.sol\":6147:6203  SolarInsuranceContract memory c = _contracts[msg.sender] */\n      mload(0x40)\n      dup1\n      0x0100\n      add\n      0x40\n      mstore\n      swap1\n      dup2\n      0x00\n      dup3\n      add\n      0x00\n      swap1\n      sload\n      swap1\n      0x0100\n      exp\n      swap1\n      div\n      0xffffffffffffffffffffffffffffffffffffffff\n      and\n      0xffffffffffffffffffffffffffffffffffffffff\n      and\n      0xffffffffffffffffffffffffffffffffffffffff\n      and\n      dup2\n      mstore\n      0x20\n      add\n      0x00\n      dup3\n      add\n      0x14\n      swap1\n      sload\n      swap1\n      0x0100\n      exp\n      swap1\n      div\n      0xff\n      and\n      0x01\n      dup2\n      gt\n      iszero\n      tag_195\n      jumpi\n      tag_196\n      tag_74\n      jump\t// in\n    tag_196:\n    tag_195:\n      0x01\n      dup2\n      gt\n      iszero\n      tag_197\n      jumpi\n      tag_198\n      tag_74\n      jump\t// in\n    tag_198:\n    tag_197:\n      dup2\n      mstore\n      0x20\n      add\n      0x00\n      dup3\n      add\n      0x15\n      swap1\n      sload\n      swap1\n      0x0100\n      exp\n      swap1\n      div\n      0xff\n      and\n      0x02\n      dup2\n      gt\n      iszero\n      tag_199\n      jumpi\n      tag_200\n      tag_74\n      jump\t// in\n    tag_200:\n    tag_199:\n      0x02\n      dup2\n      gt\n      iszero\n      tag_201\n      jumpi\n      tag_202\n      tag_74\n      jump\t// in\n    tag_202:\n    tag_201:\n      dup2\n      mstore\n      0x20\n      add\n      0x01\n      dup3\n      add\n      sload\n      dup2\n      mstore\n      0x20\n      add\n      0x02\n      dup3\n      add\n      sload\n      dup2\n      mstore\n      0x20\n      add\n      0x03\n      dup3\n      add\n      sload\n      dup2\n      mstore\n      0x20\n      add\n      0x04\n      dup3\n      add\n      sload\n      dup2\n      mstore\n      0x20\n      add\n      0x05\n      dup3\n      add\n      sload\n      dup2\n      mstore\n      pop\n      pop\n      swap1\n      pop\n        /* \"contracts/solar_insurance.sol\":6216:6233  string memory key */\n      0x00\n        /* \"contracts/solar_insurance.sol\":6255:6272  SwissRegion.SOUTH */\n      dup1\n        /* \"contracts/solar_insurance.sol\":6236:6272  c.panelLocation == SwissRegion.SOUTH */\n      0x01\n      dup2\n      gt\n      iszero\n      tag_203\n      jumpi\n      tag_204\n      tag_74\n      jump\t// in\n    tag_204:\n    tag_203:\n        /* \"contracts/solar_insurance.sol\":6236:6237  c */\n      dup3\n        /* \"contracts/solar_insurance.sol\":6236:6251  c.panelLocation */\n      0x20\n      add\n      mload\n        /* \"contracts/solar_insurance.sol\":6236:6272  c.panelLocation == SwissRegion.SOUTH */\n      0x01\n      dup2\n      gt\n      iszero\n      tag_205\n      jumpi\n      tag_206\n      tag_74\n      jump\t// in\n    tag_206:\n    tag_205:\n      eq\n        /* \"contracts/solar_insurance.sol\":6236:6372  c.panelLocation == SwissRegion.SOUTH ? string.concat(Strings.toString(year), \"_SOUTH\") : string.concat(Strings.toString(year), \"_NORTH\") */\n      tag_207\n      jumpi\n        /* \"contracts/solar_insurance.sol\":6339:6361  Strings.toString(year) */\n      tag_208\n        /* \"contracts/solar_insurance.sol\":6356:6360  year */\n      dup5\n        /* \"contracts/solar_insurance.sol\":6339:6355  Strings.toString */\n      tag_79\n        /* \"contracts/solar_insurance.sol\":6339:6361  Strings.toString(year) */\n      jump\t// in\n    tag_208:\n        /* \"contracts/solar_insurance.sol\":6325:6372  string.concat(Strings.toString(year), \"_NORTH\") */\n      add(0x20, mload(0x40))\n      tag_209\n      swap2\n      swap1\n      tag_81\n      jump\t// in\n    tag_209:\n      mload(0x40)\n      0x20\n      dup2\n      dup4\n      sub\n      sub\n      dup2\n      mstore\n      swap1\n      0x40\n      mstore\n        /* \"contracts/solar_insurance.sol\":6236:6372  c.panelLocation == SwissRegion.SOUTH ? string.concat(Strings.toString(year), \"_SOUTH\") : string.concat(Strings.toString(year), \"_NORTH\") */\n      jump(tag_210)\n    tag_207:\n        /* \"contracts/solar_insurance.sol\":6289:6311  Strings.toString(year) */\n      tag_211\n        /* \"contracts/solar_insurance.sol\":6306:6310  year */\n      dup5\n        /* \"contracts/solar_insurance.sol\":6289:6305  Strings.toString */\n      tag_79\n        /* \"contracts/solar_insurance.sol\":6289:6311  Strings.toString(year) */\n      jump\t// in\n    tag_211:\n        /* \"contracts/solar_insurance.sol\":6275:6322  string.concat(Strings.toString(year), \"_SOUTH\") */\n      add(0x20, mload(0x40))\n      tag_212\n      swap2\n      swap1\n      tag_85\n      jump\t// in\n    tag_212:\n      mload(0x40)\n      0x20\n      dup2\n      dup4\n      sub\n      sub\n      dup2\n      mstore\n      swap1\n      0x40\n      mstore\n        /* \"contracts/solar_insurance.sol\":6236:6372  c.panelLocation == SwissRegion.SOUTH ? string.concat(Strings.toString(year), \"_SOUTH\") : string.concat(Strings.toString(year), \"_NORTH\") */\n    tag_210:\n        /* \"contracts/solar_insurance.sol\":6216:6372  string memory key = c.panelLocation == SwissRegion.SOUTH ? string.concat(Strings.toString(year), \"_SOUTH\") : string.concat(Strings.toString(year), \"_NORTH\") */\n      swap1\n      pop\n        /* \"contracts/solar_insurance.sol\":6385:6409  uint256 sunshineDuration */\n      0x00\n        /* \"contracts/solar_insurance.sol\":6412:6428  _sunshineRecords */\n      0x05\n        /* \"contracts/solar_insurance.sol\":6429:6432  key */\n      dup3\n        /* \"contracts/solar_insurance.sol\":6412:6433  _sunshineRecords[key] */\n      mload(0x40)\n      tag_213\n      swap2\n      swap1\n      tag_87\n      jump\t// in\n    tag_213:\n      swap1\n      dup2\n      mstore\n      0x20\n      add\n      mload(0x40)\n      dup1\n      swap2\n      sub\n      swap1\n      keccak256\n      sload\n        /* \"contracts/solar_insurance.sol\":6385:6433  uint256 sunshineDuration = _sunshineRecords[key] */\n      swap1\n      pop\n        /* \"contracts/solar_insurance.sol\":6444:6465  uint256 sunshineDelta */\n      0x00\n        /* \"contracts/solar_insurance.sol\":6513:6529  sunshineDuration */\n      dup2\n        /* \"contracts/solar_insurance.sol\":6468:6484  _insuranceLevels */\n      0x04\n        /* \"contracts/solar_insurance.sol\":6468:6497  _insuranceLevels[c.riskLevel] */\n      0x00\n        /* \"contracts/solar_insurance.sol\":6485:6486  c */\n      dup7\n        /* \"contracts/solar_insurance.sol\":6485:6496  c.riskLevel */\n      0x40\n      add\n      mload\n        /* \"contracts/solar_insurance.sol\":6468:6497  _insuranceLevels[c.riskLevel] */\n      0x02\n      dup2\n      gt\n      iszero\n      tag_214\n      jumpi\n      tag_215\n      tag_74\n      jump\t// in\n    tag_215:\n    tag_214:\n      0x02\n      dup2\n      gt\n      iszero\n      tag_216\n      jumpi\n      tag_217\n      tag_74\n      jump\t// in\n    tag_217:\n    tag_216:\n      dup2\n      mstore\n      0x20\n      add\n      swap1\n      dup2\n      mstore\n      0x20\n      add\n      0x00\n      keccak256\n        /* \"contracts/solar_insurance.sol\":6468:6510  _insuranceLevels[c.riskLevel].insuredHours */\n      0x01\n      add\n      sload\n        /* \"contracts/solar_insurance.sol\":6468:6529  _insuranceLevels[c.riskLevel].insuredHours - sunshineDuration */\n      tag_218\n      swap2\n      swap1\n      tag_219\n      jump\t// in\n    tag_218:\n        /* \"contracts/solar_insurance.sol\":6444:6529  uint256 sunshineDelta = _insuranceLevels[c.riskLevel].insuredHours - sunshineDuration */\n      swap1\n      pop\n        /* \"contracts/solar_insurance.sol\":6540:6554  uint256 amount */\n      0x00\n        /* \"contracts/solar_insurance.sol\":6639:6651  ENERGY_PRICE */\n      sload(0x01)\n        /* \"contracts/solar_insurance.sol\":6604:6614  _contracts */\n      0x06\n        /* \"contracts/solar_insurance.sol\":6604:6626  _contracts[msg.sender] */\n      0x00\n        /* \"contracts/solar_insurance.sol\":6615:6625  msg.sender */\n      caller\n        /* \"contracts/solar_insurance.sol\":6604:6626  _contracts[msg.sender] */\n      0xffffffffffffffffffffffffffffffffffffffff\n      and\n      0xffffffffffffffffffffffffffffffffffffffff\n      and\n      dup2\n      mstore\n      0x20\n      add\n      swap1\n      dup2\n      mstore\n      0x20\n      add\n      0x00\n      keccak256\n        /* \"contracts/solar_insurance.sol\":6604:6636  _contracts[msg.sender].panelArea */\n      0x01\n      add\n      sload\n        /* \"contracts/solar_insurance.sol\":6591:6601  EFFICIENCY */\n      sload(0x03)\n        /* \"contracts/solar_insurance.sol\":6575:6588  sunshineDelta */\n      dup5\n        /* \"contracts/solar_insurance.sol\":6557:6572  RADIATION_VALUE */\n      sload(0x02)\n        /* \"contracts/solar_insurance.sol\":6557:6588  RADIATION_VALUE * sunshineDelta */\n      tag_220\n      swap2\n      swap1\n      tag_152\n      jump\t// in\n    tag_220:\n        /* \"contracts/solar_insurance.sol\":6557:6601  RADIATION_VALUE * sunshineDelta * EFFICIENCY */\n      tag_221\n      swap2\n      swap1\n      tag_152\n      jump\t// in\n    tag_221:\n        /* \"contracts/solar_insurance.sol\":6557:6636  RADIATION_VALUE * sunshineDelta * EFFICIENCY * _contracts[msg.sender].panelArea */\n      tag_222\n      swap2\n      swap1\n      tag_152\n      jump\t// in\n    tag_222:\n        /* \"contracts/solar_insurance.sol\":6557:6651  RADIATION_VALUE * sunshineDelta * EFFICIENCY * _contracts[msg.sender].panelArea * ENERGY_PRICE */\n      tag_223\n      swap2\n      swap1\n      tag_152\n      jump\t// in\n    tag_223:\n        /* \"contracts/solar_insurance.sol\":6540:6651  uint256 amount = RADIATION_VALUE * sunshineDelta * EFFICIENCY * _contracts[msg.sender].panelArea * ENERGY_PRICE */\n      swap1\n      pop\n        /* \"contracts/solar_insurance.sol\":6676:6682  100000 */\n      0x0186a0\n        /* \"contracts/solar_insurance.sol\":6669:6675  amount */\n      dup2\n        /* \"contracts/solar_insurance.sol\":6669:6682  amount/100000 */\n      tag_224\n      swap2\n      swap1\n      tag_173\n      jump\t// in\n    tag_224:\n        /* \"contracts/solar_insurance.sol\":6662:6682  return amount/100000 */\n      swap6\n      pop\n      pop\n      pop\n      pop\n      pop\n      pop\n        /* \"contracts/solar_insurance.sol\":6069:6690  function getClaimAmount(uint256 year) public view returns(uint256) {... */\n      swap2\n      swap1\n      pop\n      jump\t// out\n        /* \"contracts/solar_insurance.sol\":3501:4494  function fileClaim(uint256 year) public ... */\n    tag_58:\n        /* \"contracts/solar_insurance.sol\":7812:7813  0 */\n      0x00\n        /* \"contracts/solar_insurance.sol\":7778:7788  _contracts */\n      0x06\n        /* \"contracts/solar_insurance.sol\":7778:7800  _contracts[msg.sender] */\n      0x00\n        /* \"contracts/solar_insurance.sol\":7789:7799  msg.sender */\n      caller\n        /* \"contracts/solar_insurance.sol\":7778:7800  _contracts[msg.sender] */\n      0xffffffffffffffffffffffffffffffffffffffff\n      and\n      0xffffffffffffffffffffffffffffffffffffffff\n      and\n      dup2\n      mstore\n      0x20\n      add\n      swap1\n      dup2\n      mstore\n      0x20\n      add\n      0x00\n      keccak256\n        /* \"contracts/solar_insurance.sol\":7778:7809  _contracts[msg.sender].duration */\n      0x04\n      add\n      sload\n        /* \"contracts/solar_insurance.sol\":7778:7813  _contracts[msg.sender].duration > 0 */\n      gt\n        /* \"contracts/solar_insurance.sol\":7778:7866  _contracts[msg.sender].duration > 0 && _contracts[msg.sender].duration > block.timestamp */\n      dup1\n      iszero\n      tag_226\n      jumpi\n      pop\n        /* \"contracts/solar_insurance.sol\":7851:7866  block.timestamp */\n      timestamp\n        /* \"contracts/solar_insurance.sol\":7817:7827  _contracts */\n      0x06\n        /* \"contracts/solar_insurance.sol\":7817:7839  _contracts[msg.sender] */\n      0x00\n        /* \"contracts/solar_insurance.sol\":7828:7838  msg.sender */\n      caller\n        /* \"contracts/solar_insurance.sol\":7817:7839  _contracts[msg.sender] */\n      0xffffffffffffffffffffffffffffffffffffffff\n      and\n      0xffffffffffffffffffffffffffffffffffffffff\n      and\n      dup2\n      mstore\n      0x20\n      add\n      swap1\n      dup2\n      mstore\n      0x20\n      add\n      0x00\n      keccak256\n        /* \"contracts/solar_insurance.sol\":7817:7848  _contracts[msg.sender].duration */\n      0x04\n      add\n      sload\n        /* \"contracts/solar_insurance.sol\":7817:7866  _contracts[msg.sender].duration > block.timestamp */\n      gt\n        /* \"contracts/solar_insurance.sol\":7778:7866  _contracts[msg.sender].duration > 0 && _contracts[msg.sender].duration > block.timestamp */\n    tag_226:\n        /* \"contracts/solar_insurance.sol\":7756:7911  require(... */\n      tag_227\n      jumpi\n      mload(0x40)\n      0x08c379a000000000000000000000000000000000000000000000000000000000\n      dup2\n      mstore\n      0x04\n      add\n      tag_228\n      swap1\n      tag_92\n      jump\t// in\n    tag_228:\n      mload(0x40)\n      dup1\n      swap2\n      sub\n      swap1\n      revert\n    tag_227:\n        /* \"contracts/solar_insurance.sol\":8420:8435  block.timestamp */\n      timestamp\n        /* \"contracts/solar_insurance.sol\":8382:8392  _contracts */\n      0x06\n        /* \"contracts/solar_insurance.sol\":8382:8404  _contracts[msg.sender] */\n      0x00\n        /* \"contracts/solar_insurance.sol\":8393:8403  msg.sender */\n      caller\n        /* \"contracts/solar_insurance.sol\":8382:8404  _contracts[msg.sender] */\n      0xffffffffffffffffffffffffffffffffffffffff\n      and\n      0xffffffffffffffffffffffffffffffffffffffff\n      and\n      dup2\n      mstore\n      0x20\n      add\n      swap1\n      dup2\n      mstore\n      0x20\n      add\n      0x00\n      keccak256\n        /* \"contracts/solar_insurance.sol\":8382:8417  _contracts[msg.sender].claimTimeout */\n      0x05\n      add\n      sload\n        /* \"contracts/solar_insurance.sol\":8382:8435  _contracts[msg.sender].claimTimeout < block.timestamp */\n      lt\n        /* \"contracts/solar_insurance.sol\":8360:8491  require(... */\n      tag_230\n      jumpi\n      mload(0x40)\n      0x08c379a000000000000000000000000000000000000000000000000000000000\n      dup2\n      mstore\n      0x04\n      add\n      tag_231\n      swap1\n      tag_232\n      jump\t// in\n    tag_231:\n      mload(0x40)\n      dup1\n      swap2\n      sub\n      swap1\n      revert\n    tag_230:\n        /* \"contracts/solar_insurance.sol\":3625:3629  year */\n      dup1\n        /* \"contracts/solar_insurance.sol\":8610:8614  year */\n      dup1\n        /* \"contracts/solar_insurance.sol\":8580:8594  _allowedClaims */\n      0x07\n        /* \"contracts/solar_insurance.sol\":8580:8606  _allowedClaims[msg.sender] */\n      0x00\n        /* \"contracts/solar_insurance.sol\":8595:8605  msg.sender */\n      caller\n        /* \"contracts/solar_insurance.sol\":8580:8606  _allowedClaims[msg.sender] */\n      0xffffffffffffffffffffffffffffffffffffffff\n      and\n      0xffffffffffffffffffffffffffffffffffffffff\n      and\n      dup2\n      mstore\n      0x20\n      add\n      swap1\n      dup2\n      mstore\n      0x20\n      add\n      0x00\n      keccak256\n      sload\n        /* \"contracts/solar_insurance.sol\":8580:8614  _allowedClaims[msg.sender] == year */\n      eq\n        /* \"contracts/solar_insurance.sol\":8572:8664  require(_allowedClaims[msg.sender] == year, \"You cannot file a claim for the desired year.\") */\n      tag_234\n      jumpi\n      mload(0x40)\n      0x08c379a000000000000000000000000000000000000000000000000000000000\n      dup2\n      mstore\n      0x04\n      add\n      tag_235\n      swap1\n      tag_96\n      jump\t// in\n    tag_235:\n      mload(0x40)\n      dup1\n      swap2\n      sub\n      swap1\n      revert\n    tag_234:\n        /* \"contracts/solar_insurance.sol\":3660:3664  year */\n      dup2\n        /* \"contracts/solar_insurance.sol\":7992:8009  string memory key */\n      0x00\n        /* \"contracts/solar_insurance.sol\":8052:8069  SwissRegion.SOUTH */\n      dup1\n        /* \"contracts/solar_insurance.sol\":8012:8069  _contracts[msg.sender].panelLocation == SwissRegion.SOUTH */\n      0x01\n      dup2\n      gt\n      iszero\n      tag_237\n      jumpi\n      tag_238\n      tag_74\n      jump\t// in\n    tag_238:\n    tag_237:\n        /* \"contracts/solar_insurance.sol\":8012:8022  _contracts */\n      0x06\n        /* \"contracts/solar_insurance.sol\":8012:8034  _contracts[msg.sender] */\n      0x00\n        /* \"contracts/solar_insurance.sol\":8023:8033  msg.sender */\n      caller\n        /* \"contracts/solar_insurance.sol\":8012:8034  _contracts[msg.sender] */\n      0xffffffffffffffffffffffffffffffffffffffff\n      and\n      0xffffffffffffffffffffffffffffffffffffffff\n      and\n      dup2\n      mstore\n      0x20\n      add\n      swap1\n      dup2\n      mstore\n      0x20\n      add\n      0x00\n      keccak256\n        /* \"contracts/solar_insurance.sol\":8012:8048  _contracts[msg.sender].panelLocation */\n      0x00\n      add\n      0x14\n      swap1\n      sload\n      swap1\n      0x0100\n      exp\n      swap1\n      div\n      0xff\n      and\n        /* \"contracts/solar_insurance.sol\":8012:8069  _contracts[msg.sender].panelLocation == SwissRegion.SOUTH */\n      0x01\n      dup2\n      gt\n      iszero\n      tag_239\n      jumpi\n      tag_240\n      tag_74\n      jump\t// in\n    tag_240:\n    tag_239:\n      eq\n        /* \"contracts/solar_insurance.sol\":8012:8169  _contracts[msg.sender].panelLocation == SwissRegion.SOUTH ? string.concat(Strings.toString(year), \"_SOUTH\") : string.concat(Strings.toString(year), \"_NORTH\") */\n      tag_241\n      jumpi\n        /* \"contracts/solar_insurance.sol\":8136:8158  Strings.toString(year) */\n      tag_242\n        /* \"contracts/solar_insurance.sol\":8153:8157  year */\n      dup3\n        /* \"contracts/solar_insurance.sol\":8136:8152  Strings.toString */\n      tag_79\n        /* \"contracts/solar_insurance.sol\":8136:8158  Strings.toString(year) */\n      jump\t// in\n    tag_242:\n        /* \"contracts/solar_insurance.sol\":8122:8169  string.concat(Strings.toString(year), \"_NORTH\") */\n      add(0x20, mload(0x40))\n      tag_243\n      swap2\n      swap1\n      tag_81\n      jump\t// in\n    tag_243:\n      mload(0x40)\n      0x20\n      dup2\n      dup4\n      sub\n      sub\n      dup2\n      mstore\n      swap1\n      0x40\n      mstore\n        /* \"contracts/solar_insurance.sol\":8012:8169  _contracts[msg.sender].panelLocation == SwissRegion.SOUTH ? string.concat(Strings.toString(year), \"_SOUTH\") : string.concat(Strings.toString(year), \"_NORTH\") */\n      jump(tag_244)\n    tag_241:\n        /* \"contracts/solar_insurance.sol\":8086:8108  Strings.toString(year) */\n      tag_245\n        /* \"contracts/solar_insurance.sol\":8103:8107  year */\n      dup3\n        /* \"contracts/solar_insurance.sol\":8086:8102  Strings.toString */\n      tag_79\n        /* \"contracts/solar_insurance.sol\":8086:8108  Strings.toString(year) */\n      jump\t// in\n    tag_245:\n        /* \"contracts/solar_insurance.sol\":8072:8119  string.concat(Strings.toString(year), \"_SOUTH\") */\n      add(0x20, mload(0x40))\n      tag_246\n      swap2\n      swap1\n      tag_85\n      jump\t// in\n    tag_246:\n      mload(0x40)\n      0x20\n      dup2\n      dup4\n      sub\n      sub\n      dup2\n      mstore\n      swap1\n      0x40\n      mstore\n        /* \"contracts/solar_insurance.sol\":8012:8169  _contracts[msg.sender].panelLocation == SwissRegion.SOUTH ? string.concat(Strings.toString(year), \"_SOUTH\") : string.concat(Strings.toString(year), \"_NORTH\") */\n    tag_244:\n        /* \"contracts/solar_insurance.sol\":7992:8169  string memory key = _contracts[msg.sender].panelLocation == SwissRegion.SOUTH ? string.concat(Strings.toString(year), \"_SOUTH\") : string.concat(Strings.toString(year), \"_NORTH\") */\n      swap1\n      pop\n        /* \"contracts/solar_insurance.sol\":8229:8230  0 */\n      0x00\n        /* \"contracts/solar_insurance.sol\":8204:8220  _sunshineRecords */\n      0x05\n        /* \"contracts/solar_insurance.sol\":8221:8224  key */\n      dup3\n        /* \"contracts/solar_insurance.sol\":8204:8225  _sunshineRecords[key] */\n      mload(0x40)\n      tag_247\n      swap2\n      swap1\n      tag_87\n      jump\t// in\n    tag_247:\n      swap1\n      dup2\n      mstore\n      0x20\n      add\n      mload(0x40)\n      dup1\n      swap2\n      sub\n      swap1\n      keccak256\n      sload\n        /* \"contracts/solar_insurance.sol\":8204:8230  _sunshineRecords[key] != 0 */\n      sub\n        /* \"contracts/solar_insurance.sol\":8182:8290  require(... */\n      tag_248\n      jumpi\n      mload(0x40)\n      0x08c379a000000000000000000000000000000000000000000000000000000000\n      dup2\n      mstore\n      0x04\n      add\n      tag_249\n      swap1\n      tag_111\n      jump\t// in\n    tag_249:\n      mload(0x40)\n      dup1\n      swap2\n      sub\n      swap1\n      revert\n    tag_248:\n        /* \"contracts/solar_insurance.sol\":3687:3718  SolarInsuranceContract memory c */\n      0x00\n        /* \"contracts/solar_insurance.sol\":3721:3731  _contracts */\n      0x06\n        /* \"contracts/solar_insurance.sol\":3721:3743  _contracts[msg.sender] */\n      0x00\n        /* \"contracts/solar_insurance.sol\":3732:3742  msg.sender */\n      caller\n        /* \"contracts/solar_insurance.sol\":3721:3743  _contracts[msg.sender] */\n      0xffffffffffffffffffffffffffffffffffffffff\n      and\n      0xffffffffffffffffffffffffffffffffffffffff\n      and\n      dup2\n      mstore\n      0x20\n      add\n      swap1\n      dup2\n      mstore\n      0x20\n      add\n      0x00\n      keccak256\n        /* \"contracts/solar_insurance.sol\":3687:3743  SolarInsuranceContract memory c = _contracts[msg.sender] */\n      mload(0x40)\n      dup1\n      0x0100\n      add\n      0x40\n      mstore\n      swap1\n      dup2\n      0x00\n      dup3\n      add\n      0x00\n      swap1\n      sload\n      swap1\n      0x0100\n      exp\n      swap1\n      div\n      0xffffffffffffffffffffffffffffffffffffffff\n      and\n      0xffffffffffffffffffffffffffffffffffffffff\n      and\n      0xffffffffffffffffffffffffffffffffffffffff\n      and\n      dup2\n      mstore\n      0x20\n      add\n      0x00\n      dup3\n      add\n      0x14\n      swap1\n      sload\n      swap1\n      0x0100\n      exp\n      swap1\n      div\n      0xff\n      and\n      0x01\n      dup2\n      gt\n      iszero\n      tag_251\n      jumpi\n      tag_252\n      tag_74\n      jump\t// in\n    tag_252:\n    tag_251:\n      0x01\n      dup2\n      gt\n      iszero\n      tag_253\n      jumpi\n      tag_254\n      tag_74\n      jump\t// in\n    tag_254:\n    tag_253:\n      dup2\n      mstore\n      0x20\n      add\n      0x00\n      dup3\n      add\n      0x15\n      swap1\n      sload\n      swap1\n      0x0100\n      exp\n      swap1\n      div\n      0xff\n      and\n      0x02\n      dup2\n      gt\n      iszero\n      tag_255\n      jumpi\n      tag_256\n      tag_74\n      jump\t// in\n    tag_256:\n    tag_255:\n      0x02\n      dup2\n      gt\n      iszero\n      tag_257\n      jumpi\n      tag_258\n      tag_74\n      jump\t// in\n    tag_258:\n    tag_257:\n      dup2\n      mstore\n      0x20\n      add\n      0x01\n      dup3\n      add\n      sload\n      dup2\n      mstore\n      0x20\n      add\n      0x02\n      dup3\n      add\n      sload\n      dup2\n      mstore\n      0x20\n      add\n      0x03\n      dup3\n      add\n      sload\n      dup2\n      mstore\n      0x20\n      add\n      0x04\n      dup3\n      add\n      sload\n      dup2\n      mstore\n      0x20\n      add\n      0x05\n      dup3\n      add\n      sload\n      dup2\n      mstore\n      pop\n      pop\n      swap1\n      pop\n        /* \"contracts/solar_insurance.sol\":3756:3773  string memory key */\n      0x00\n        /* \"contracts/solar_insurance.sol\":3795:3812  SwissRegion.SOUTH */\n      dup1\n        /* \"contracts/solar_insurance.sol\":3776:3812  c.panelLocation == SwissRegion.SOUTH */\n      0x01\n      dup2\n      gt\n      iszero\n      tag_259\n      jumpi\n      tag_260\n      tag_74\n      jump\t// in\n    tag_260:\n    tag_259:\n        /* \"contracts/solar_insurance.sol\":3776:3777  c */\n      dup3\n        /* \"contracts/solar_insurance.sol\":3776:3791  c.panelLocation */\n      0x20\n      add\n      mload\n        /* \"contracts/solar_insurance.sol\":3776:3812  c.panelLocation == SwissRegion.SOUTH */\n      0x01\n      dup2\n      gt\n      iszero\n      tag_261\n      jumpi\n      tag_262\n      tag_74\n      jump\t// in\n    tag_262:\n    tag_261:\n      eq\n        /* \"contracts/solar_insurance.sol\":3776:3912  c.panelLocation == SwissRegion.SOUTH ? string.concat(Strings.toString(year), \"_SOUTH\") : string.concat(Strings.toString(year), \"_NORTH\") */\n      tag_263\n      jumpi\n        /* \"contracts/solar_insurance.sol\":3879:3901  Strings.toString(year) */\n      tag_264\n        /* \"contracts/solar_insurance.sol\":3896:3900  year */\n      dup7\n        /* \"contracts/solar_insurance.sol\":3879:3895  Strings.toString */\n      tag_79\n        /* \"contracts/solar_insurance.sol\":3879:3901  Strings.toString(year) */\n      jump\t// in\n    tag_264:\n        /* \"contracts/solar_insurance.sol\":3865:3912  string.concat(Strings.toString(year), \"_NORTH\") */\n      add(0x20, mload(0x40))\n      tag_265\n      swap2\n      swap1\n      tag_81\n      jump\t// in\n    tag_265:\n      mload(0x40)\n      0x20\n      dup2\n      dup4\n      sub\n      sub\n      dup2\n      mstore\n      swap1\n      0x40\n      mstore\n        /* \"contracts/solar_insurance.sol\":3776:3912  c.panelLocation == SwissRegion.SOUTH ? string.concat(Strings.toString(year), \"_SOUTH\") : string.concat(Strings.toString(year), \"_NORTH\") */\n      jump(tag_266)\n    tag_263:\n        /* \"contracts/solar_insurance.sol\":3829:3851  Strings.toString(year) */\n      tag_267\n        /* \"contracts/solar_insurance.sol\":3846:3850  year */\n      dup7\n        /* \"contracts/solar_insurance.sol\":3829:3845  Strings.toString */\n      tag_79\n        /* \"contracts/solar_insurance.sol\":3829:3851  Strings.toString(year) */\n      jump\t// in\n    tag_267:\n        /* \"contracts/solar_insurance.sol\":3815:3862  string.concat(Strings.toString(year), \"_SOUTH\") */\n      add(0x20, mload(0x40))\n      tag_268\n      swap2\n      swap1\n      tag_85\n      jump\t// in\n    tag_268:\n      mload(0x40)\n      0x20\n      dup2\n      dup4\n      sub\n      sub\n      dup2\n      mstore\n      swap1\n      0x40\n      mstore\n        /* \"contracts/solar_insurance.sol\":3776:3912  c.panelLocation == SwissRegion.SOUTH ? string.concat(Strings.toString(year), \"_SOUTH\") : string.concat(Strings.toString(year), \"_NORTH\") */\n    tag_266:\n        /* \"contracts/solar_insurance.sol\":3756:3912  string memory key = c.panelLocation == SwissRegion.SOUTH ? string.concat(Strings.toString(year), \"_SOUTH\") : string.concat(Strings.toString(year), \"_NORTH\") */\n      swap1\n      pop\n        /* \"contracts/solar_insurance.sol\":3925:3949  uint256 sunshineDuration */\n      0x00\n        /* \"contracts/solar_insurance.sol\":3952:3968  _sunshineRecords */\n      0x05\n        /* \"contracts/solar_insurance.sol\":3969:3972  key */\n      dup3\n        /* \"contracts/solar_insurance.sol\":3952:3973  _sunshineRecords[key] */\n      mload(0x40)\n      tag_269\n      swap2\n      swap1\n      tag_87\n      jump\t// in\n    tag_269:\n      swap1\n      dup2\n      mstore\n      0x20\n      add\n      mload(0x40)\n      dup1\n      swap2\n      sub\n      swap1\n      keccak256\n      sload\n        /* \"contracts/solar_insurance.sol\":3925:3973  uint256 sunshineDuration = _sunshineRecords[key] */\n      swap1\n      pop\n        /* \"contracts/solar_insurance.sol\":3984:4005  uint256 sunshineDelta */\n      0x00\n        /* \"contracts/solar_insurance.sol\":4053:4069  sunshineDuration */\n      dup2\n        /* \"contracts/solar_insurance.sol\":4008:4024  _insuranceLevels */\n      0x04\n        /* \"contracts/solar_insurance.sol\":4008:4037  _insuranceLevels[c.riskLevel] */\n      0x00\n        /* \"contracts/solar_insurance.sol\":4025:4026  c */\n      dup7\n        /* \"contracts/solar_insurance.sol\":4025:4036  c.riskLevel */\n      0x40\n      add\n      mload\n        /* \"contracts/solar_insurance.sol\":4008:4037  _insuranceLevels[c.riskLevel] */\n      0x02\n      dup2\n      gt\n      iszero\n      tag_270\n      jumpi\n      tag_271\n      tag_74\n      jump\t// in\n    tag_271:\n    tag_270:\n      0x02\n      dup2\n      gt\n      iszero\n      tag_272\n      jumpi\n      tag_273\n      tag_74\n      jump\t// in\n    tag_273:\n    tag_272:\n      dup2\n      mstore\n      0x20\n      add\n      swap1\n      dup2\n      mstore\n      0x20\n      add\n      0x00\n      keccak256\n        /* \"contracts/solar_insurance.sol\":4008:4050  _insuranceLevels[c.riskLevel].insuredHours */\n      0x01\n      add\n      sload\n        /* \"contracts/solar_insurance.sol\":4008:4069  _insuranceLevels[c.riskLevel].insuredHours - sunshineDuration */\n      tag_274\n      swap2\n      swap1\n      tag_219\n      jump\t// in\n    tag_274:\n        /* \"contracts/solar_insurance.sol\":3984:4069  uint256 sunshineDelta = _insuranceLevels[c.riskLevel].insuredHours - sunshineDuration */\n      swap1\n      pop\n        /* \"contracts/solar_insurance.sol\":4104:4105  0 */\n      0x00\n        /* \"contracts/solar_insurance.sol\":4088:4101  sunshineDelta */\n      dup2\n        /* \"contracts/solar_insurance.sol\":4088:4105  sunshineDelta > 0 */\n      gt\n        /* \"contracts/solar_insurance.sol\":4080:4175  require(sunshineDelta > 0, \"The sunshine duration was equal to or exceeded the insured hours.\") */\n      tag_275\n      jumpi\n      mload(0x40)\n      0x08c379a000000000000000000000000000000000000000000000000000000000\n      dup2\n      mstore\n      0x04\n      add\n      tag_276\n      swap1\n      tag_277\n      jump\t// in\n    tag_276:\n      mload(0x40)\n      dup1\n      swap2\n      sub\n      swap1\n      revert\n    tag_275:\n        /* \"contracts/solar_insurance.sol\":4188:4202  uint256 amount */\n      0x00\n        /* \"contracts/solar_insurance.sol\":4296:4308  ENERGY_PRICE */\n      sload(0x01)\n        /* \"contracts/solar_insurance.sol\":4261:4271  _contracts */\n      0x06\n        /* \"contracts/solar_insurance.sol\":4261:4283  _contracts[msg.sender] */\n      0x00\n        /* \"contracts/solar_insurance.sol\":4272:4282  msg.sender */\n      caller\n        /* \"contracts/solar_insurance.sol\":4261:4283  _contracts[msg.sender] */\n      0xffffffffffffffffffffffffffffffffffffffff\n      and\n      0xffffffffffffffffffffffffffffffffffffffff\n      and\n      dup2\n      mstore\n      0x20\n      add\n      swap1\n      dup2\n      mstore\n      0x20\n      add\n      0x00\n      keccak256\n        /* \"contracts/solar_insurance.sol\":4261:4293  _contracts[msg.sender].panelArea */\n      0x01\n      add\n      sload\n        /* \"contracts/solar_insurance.sol\":4255:4258  100 */\n      0x64\n        /* \"contracts/solar_insurance.sol\":4244:4254  EFFICIENCY */\n      sload(0x03)\n        /* \"contracts/solar_insurance.sol\":4228:4241  sunshineDelta */\n      dup6\n        /* \"contracts/solar_insurance.sol\":4221:4225  1000 */\n      0x03e8\n        /* \"contracts/solar_insurance.sol\":4205:4220  RADIATION_VALUE */\n      sload(0x02)\n        /* \"contracts/solar_insurance.sol\":4205:4225  RADIATION_VALUE/1000 */\n      tag_278\n      swap2\n      swap1\n      tag_173\n      jump\t// in\n    tag_278:\n        /* \"contracts/solar_insurance.sol\":4205:4241  RADIATION_VALUE/1000 * sunshineDelta */\n      tag_279\n      swap2\n      swap1\n      tag_152\n      jump\t// in\n    tag_279:\n        /* \"contracts/solar_insurance.sol\":4205:4254  RADIATION_VALUE/1000 * sunshineDelta * EFFICIENCY */\n      tag_280\n      swap2\n      swap1\n      tag_152\n      jump\t// in\n    tag_280:\n        /* \"contracts/solar_insurance.sol\":4205:4258  RADIATION_VALUE/1000 * sunshineDelta * EFFICIENCY/100 */\n      tag_281\n      swap2\n      swap1\n      tag_173\n      jump\t// in\n    tag_281:\n        /* \"contracts/solar_insurance.sol\":4205:4293  RADIATION_VALUE/1000 * sunshineDelta * EFFICIENCY/100 * _contracts[msg.sender].panelArea */\n      tag_282\n      swap2\n      swap1\n      tag_152\n      jump\t// in\n    tag_282:\n        /* \"contracts/solar_insurance.sol\":4205:4308  RADIATION_VALUE/1000 * sunshineDelta * EFFICIENCY/100 * _contracts[msg.sender].panelArea * ENERGY_PRICE */\n      tag_283\n      swap2\n      swap1\n      tag_152\n      jump\t// in\n    tag_283:\n        /* \"contracts/solar_insurance.sol\":4188:4308  uint256 amount = RADIATION_VALUE/1000 * sunshineDelta * EFFICIENCY/100 * _contracts[msg.sender].panelArea * ENERGY_PRICE */\n      swap1\n      pop\n        /* \"contracts/solar_insurance.sol\":4327:4337  msg.sender */\n      caller\n        /* \"contracts/solar_insurance.sol\":4319:4347  payable(msg.sender).transfer */\n      0xffffffffffffffffffffffffffffffffffffffff\n      and\n        /* \"contracts/solar_insurance.sol\":4319:4355  payable(msg.sender).transfer(amount) */\n      0x08fc\n        /* \"contracts/solar_insurance.sol\":4348:4354  amount */\n      dup3\n        /* \"contracts/solar_insurance.sol\":4319:4355  payable(msg.sender).transfer(amount) */\n      swap1\n      dup2\n      iszero\n      mul\n      swap1\n      mload(0x40)\n      0x00\n      mload(0x40)\n      dup1\n      dup4\n      sub\n      dup2\n      dup6\n      dup9\n      dup9\n      call\n      swap4\n      pop\n      pop\n      pop\n      pop\n      iszero\n      dup1\n      iszero\n      tag_285\n      jumpi\n      returndatasize\n      0x00\n      dup1\n      returndatacopy\n      revert(0x00, returndatasize)\n    tag_285:\n      pop\n        /* \"contracts/solar_insurance.sol\":4368:4400  c.claimTimeout.add(1 * 365 days) */\n      tag_286\n        /* \"contracts/solar_insurance.sol\":4387:4399  1 * 365 days */\n      0x01e13380\n        /* \"contracts/solar_insurance.sol\":4368:4369  c */\n      dup7\n        /* \"contracts/solar_insurance.sol\":4368:4382  c.claimTimeout */\n      0xe0\n      add\n      mload\n        /* \"contracts/solar_insurance.sol\":4368:4386  c.claimTimeout.add */\n      tag_117\n      swap1\n        /* \"contracts/solar_insurance.sol\":4368:4400  c.claimTimeout.add(1 * 365 days) */\n      swap2\n      swap1\n      0xffffffff\n      and\n      jump\t// in\n    tag_286:\n      pop\n        /* \"contracts/solar_insurance.sol\":4427:4428  0 */\n      0x00\n        /* \"contracts/solar_insurance.sol\":4414:4415  c */\n      dup6\n        /* \"contracts/solar_insurance.sol\":4414:4424  c.duration */\n      0xc0\n      add\n      mload\n        /* \"contracts/solar_insurance.sol\":4414:4428  c.duration > 0 */\n      gt\n        /* \"contracts/solar_insurance.sol\":4411:4487  if(c.duration > 0){... */\n      iszero\n      tag_287\n      jumpi\n        /* \"contracts/solar_insurance.sol\":4474:4475  1 */\n      0x01\n        /* \"contracts/solar_insurance.sol\":4444:4458  _allowedClaims */\n      0x07\n        /* \"contracts/solar_insurance.sol\":4444:4470  _allowedClaims[msg.sender] */\n      0x00\n        /* \"contracts/solar_insurance.sol\":4459:4469  msg.sender */\n      caller\n        /* \"contracts/solar_insurance.sol\":4444:4470  _allowedClaims[msg.sender] */\n      0xffffffffffffffffffffffffffffffffffffffff\n      and\n      0xffffffffffffffffffffffffffffffffffffffff\n      and\n      dup2\n      mstore\n      0x20\n      add\n      swap1\n      dup2\n      mstore\n      0x20\n      add\n      0x00\n      keccak256\n      0x00\n        /* \"contracts/solar_insurance.sol\":4444:4475  _allowedClaims[msg.sender] += 1 */\n      dup3\n      dup3\n      sload\n      tag_288\n      swap2\n      swap1\n      tag_120\n      jump\t// in\n    tag_288:\n      swap3\n      pop\n      pop\n      dup2\n      swap1\n      sstore\n      pop\n        /* \"contracts/solar_insurance.sol\":4411:4487  if(c.duration > 0){... */\n    tag_287:\n        /* \"contracts/solar_insurance.sol\":3666:4494  {... */\n      pop\n      pop\n      pop\n      pop\n      pop\n        /* \"contracts/solar_insurance.sol\":7981:8310  {... */\n      pop\n        /* \"contracts/solar_insurance.sol\":8675:8676  _ */\n      pop\n        /* \"contracts/solar_insurance.sol\":8502:8503  _ */\n      pop\n        /* \"contracts/solar_insurance.sol\":3501:4494  function fileClaim(uint256 year) public ... */\n      pop\n      jump\t// out\n        /* \"contracts/solar_insurance.sol\":1289:1339  mapping(string => uint256) public _sunshineRecords */\n    tag_63:\n      0x05\n      dup2\n      dup1\n      mload\n      0x20\n      dup2\n      add\n      dup3\n      add\n      dup1\n      mload\n      dup5\n      dup3\n      mstore\n      0x20\n      dup4\n      add\n      0x20\n      dup6\n      add\n      keccak256\n      dup2\n      dup4\n      mstore\n      dup1\n      swap6\n      pop\n      pop\n      pop\n      pop\n      pop\n      pop\n      0x00\n      swap2\n      pop\n      swap1\n      pop\n      sload\n      dup2\n      jump\t// out\n        /* \"contracts/solar_insurance.sol\":5076:5272  function getRequiredPremium(ClientRiskLevels riskLevel, uint256 panelArea) public view returns (uint256) {... */\n    tag_69:\n        /* \"contracts/solar_insurance.sol\":5172:5179  uint256 */\n      0x00\n        /* \"contracts/solar_insurance.sol\":5211:5227  _insuranceLevels */\n      0x04\n        /* \"contracts/solar_insurance.sol\":5211:5238  _insuranceLevels[riskLevel] */\n      0x00\n        /* \"contracts/solar_insurance.sol\":5228:5237  riskLevel */\n      dup5\n        /* \"contracts/solar_insurance.sol\":5211:5238  _insuranceLevels[riskLevel] */\n      0x02\n      dup2\n      gt\n      iszero\n      tag_290\n      jumpi\n      tag_291\n      tag_74\n      jump\t// in\n    tag_291:\n    tag_290:\n      0x02\n      dup2\n      gt\n      iszero\n      tag_292\n      jumpi\n      tag_293\n      tag_74\n      jump\t// in\n    tag_293:\n    tag_292:\n      dup2\n      mstore\n      0x20\n      add\n      swap1\n      dup2\n      mstore\n      0x20\n      add\n      0x00\n      keccak256\n        /* \"contracts/solar_insurance.sol\":5211:5246  _insuranceLevels[riskLevel].premium */\n      0x00\n      add\n      sload\n        /* \"contracts/solar_insurance.sol\":5199:5208  panelArea */\n      dup3\n        /* \"contracts/solar_insurance.sol\":5199:5246  panelArea * _insuranceLevels[riskLevel].premium */\n      tag_294\n      swap2\n      swap1\n      tag_152\n      jump\t// in\n    tag_294:\n        /* \"contracts/solar_insurance.sol\":5192:5246  return panelArea * _insuranceLevels[riskLevel].premium */\n      swap1\n      pop\n        /* \"contracts/solar_insurance.sol\":5076:5272  function getRequiredPremium(ClientRiskLevels riskLevel, uint256 panelArea) public view returns (uint256) {... */\n      swap3\n      swap2\n      pop\n      pop\n      jump\t// out\n        /* \"@openzeppelin/contracts/utils/Strings.sol\":637:1335  function toString(uint256 value) internal pure returns (string memory) {... */\n    tag_79:\n        /* \"@openzeppelin/contracts/utils/Strings.sol\":693:706  string memory */\n      0x60\n        /* \"@openzeppelin/contracts/utils/Strings.sol\":742:756  uint256 length */\n      0x00\n        /* \"@openzeppelin/contracts/utils/Strings.sol\":779:780  1 */\n      0x01\n        /* \"@openzeppelin/contracts/utils/Strings.sol\":759:776  Math.log10(value) */\n      tag_296\n        /* \"@openzeppelin/contracts/utils/Strings.sol\":770:775  value */\n      dup5\n        /* \"@openzeppelin/contracts/utils/Strings.sol\":759:769  Math.log10 */\n      tag_297\n        /* \"@openzeppelin/contracts/utils/Strings.sol\":759:776  Math.log10(value) */\n      jump\t// in\n    tag_296:\n        /* \"@openzeppelin/contracts/utils/Strings.sol\":759:780  Math.log10(value) + 1 */\n      add\n        /* \"@openzeppelin/contracts/utils/Strings.sol\":742:780  uint256 length = Math.log10(value) + 1 */\n      swap1\n      pop\n        /* \"@openzeppelin/contracts/utils/Strings.sol\":794:814  string memory buffer */\n      0x00\n        /* \"@openzeppelin/contracts/utils/Strings.sol\":828:834  length */\n      dup2\n        /* \"@openzeppelin/contracts/utils/Strings.sol\":817:835  new string(length) */\n      0xffffffffffffffff\n      dup2\n      gt\n      iszero\n      tag_298\n      jumpi\n      tag_299\n      tag_300\n      jump\t// in\n    tag_299:\n    tag_298:\n      mload(0x40)\n      swap1\n      dup1\n      dup3\n      mstore\n      dup1\n      0x1f\n      add\n      not(0x1f)\n      and\n      0x20\n      add\n      dup3\n      add\n      0x40\n      mstore\n      dup1\n      iszero\n      tag_301\n      jumpi\n      dup2\n      0x20\n      add\n      0x01\n      dup3\n      mul\n      dup1\n      calldatasize\n      dup4\n      calldatacopy\n      dup1\n      dup3\n      add\n      swap2\n      pop\n      pop\n      swap1\n      pop\n    tag_301:\n      pop\n        /* \"@openzeppelin/contracts/utils/Strings.sol\":794:835  string memory buffer = new string(length) */\n      swap1\n      pop\n        /* \"@openzeppelin/contracts/utils/Strings.sol\":849:860  uint256 ptr */\n      0x00\n        /* \"@openzeppelin/contracts/utils/Strings.sol\":975:981  length */\n      dup3\n        /* \"@openzeppelin/contracts/utils/Strings.sol\":971:973  32 */\n      0x20\n        /* \"@openzeppelin/contracts/utils/Strings.sol\":967:982  add(32, length) */\n      add\n        /* \"@openzeppelin/contracts/utils/Strings.sol\":959:965  buffer */\n      dup3\n        /* \"@openzeppelin/contracts/utils/Strings.sol\":955:983  add(buffer, add(32, length)) */\n      add\n        /* \"@openzeppelin/contracts/utils/Strings.sol\":948:983  ptr := add(buffer, add(32, length)) */\n      swap1\n      pop\n        /* \"@openzeppelin/contracts/utils/Strings.sol\":1010:1292  while (true) {... */\n    tag_302:\n        /* \"@openzeppelin/contracts/utils/Strings.sol\":1017:1021  true */\n      0x01\n        /* \"@openzeppelin/contracts/utils/Strings.sol\":1010:1292  while (true) {... */\n      iszero\n      tag_303\n      jumpi\n        /* \"@openzeppelin/contracts/utils/Strings.sol\":1041:1046  ptr-- */\n      dup1\n      dup1\n      0x01\n      swap1\n      sub\n      swap2\n      pop\n      pop\n        /* \"@openzeppelin/contracts/utils/Strings.sol\":1180:1190  HEX_DIGITS */\n      0x3031323334353637383961626364656600000000000000000000000000000000\n        /* \"@openzeppelin/contracts/utils/Strings.sol\":1175:1177  10 */\n      0x0a\n        /* \"@openzeppelin/contracts/utils/Strings.sol\":1168:1173  value */\n      dup7\n        /* \"@openzeppelin/contracts/utils/Strings.sol\":1164:1178  mod(value, 10) */\n      mod\n        /* \"@openzeppelin/contracts/utils/Strings.sol\":1159:1191  byte(mod(value, 10), HEX_DIGITS) */\n      byte\n        /* \"@openzeppelin/contracts/utils/Strings.sol\":1154:1157  ptr */\n      dup2\n        /* \"@openzeppelin/contracts/utils/Strings.sol\":1146:1192  mstore8(ptr, byte(mod(value, 10), HEX_DIGITS)) */\n      mstore8\n        /* \"@openzeppelin/contracts/utils/Strings.sol\":1236:1238  10 */\n      0x0a\n        /* \"@openzeppelin/contracts/utils/Strings.sol\":1227:1238  value /= 10 */\n      dup6\n      dup2\n      tag_304\n      jumpi\n      tag_305\n      tag_306\n      jump\t// in\n    tag_305:\n    tag_304:\n      div\n      swap5\n      pop\n        /* \"@openzeppelin/contracts/utils/Strings.sol\":1269:1270  0 */\n      0x00\n        /* \"@openzeppelin/contracts/utils/Strings.sol\":1260:1265  value */\n      dup6\n        /* \"@openzeppelin/contracts/utils/Strings.sol\":1260:1270  value == 0 */\n      sub\n        /* \"@openzeppelin/contracts/utils/Strings.sol\":1010:1292  while (true) {... */\n      tag_302\n        /* \"@openzeppelin/contracts/utils/Strings.sol\":1256:1277  if (value == 0) break */\n      jumpi\n        /* \"@openzeppelin/contracts/utils/Strings.sol\":1010:1292  while (true) {... */\n    tag_303:\n        /* \"@openzeppelin/contracts/utils/Strings.sol\":1312:1318  buffer */\n      dup2\n        /* \"@openzeppelin/contracts/utils/Strings.sol\":1305:1318  return buffer */\n      swap4\n      pop\n      pop\n      pop\n      pop\n        /* \"@openzeppelin/contracts/utils/Strings.sol\":637:1335  function toString(uint256 value) internal pure returns (string memory) {... */\n      swap2\n      swap1\n      pop\n      jump\t// out\n        /* \"@openzeppelin/contracts/utils/math/SafeMath.sol\":2755:2851  function add(uint256 a, uint256 b) internal pure returns (uint256) {... */\n    tag_117:\n        /* \"@openzeppelin/contracts/utils/math/SafeMath.sol\":2813:2820  uint256 */\n      0x00\n        /* \"@openzeppelin/contracts/utils/math/SafeMath.sol\":2843:2844  b */\n      dup2\n        /* \"@openzeppelin/contracts/utils/math/SafeMath.sol\":2839:2840  a */\n      dup4\n        /* \"@openzeppelin/contracts/utils/math/SafeMath.sol\":2839:2844  a + b */\n      tag_309\n      swap2\n      swap1\n      tag_120\n      jump\t// in\n    tag_309:\n        /* \"@openzeppelin/contracts/utils/math/SafeMath.sol\":2832:2844  return a + b */\n      swap1\n      pop\n        /* \"@openzeppelin/contracts/utils/math/SafeMath.sol\":2755:2851  function add(uint256 a, uint256 b) internal pure returns (uint256) {... */\n      swap3\n      swap2\n      pop\n      pop\n      jump\t// out\n        /* \"@openzeppelin/contracts/utils/math/Math.sol\":12214:13130  function log10(uint256 value) internal pure returns (uint256) {... */\n    tag_297:\n        /* \"@openzeppelin/contracts/utils/math/Math.sol\":12267:12274  uint256 */\n      0x00\n        /* \"@openzeppelin/contracts/utils/math/Math.sol\":12286:12300  uint256 result */\n      dup1\n        /* \"@openzeppelin/contracts/utils/math/Math.sol\":12303:12304  0 */\n      0x00\n        /* \"@openzeppelin/contracts/utils/math/Math.sol\":12286:12304  uint256 result = 0 */\n      swap1\n      pop\n        /* \"@openzeppelin/contracts/utils/math/Math.sol\":12351:12359  10 ** 64 */\n      0x184f03e93ff9f4daa797ed6e38ed64bf6a1f010000000000000000\n        /* \"@openzeppelin/contracts/utils/math/Math.sol\":12342:12347  value */\n      dup4\n        /* \"@openzeppelin/contracts/utils/math/Math.sol\":12342:12359  value >= 10 ** 64 */\n      lt\n        /* \"@openzeppelin/contracts/utils/math/Math.sol\":12338:12441  if (value >= 10 ** 64) {... */\n      tag_311\n      jumpi\n        /* \"@openzeppelin/contracts/utils/math/Math.sol\":12388:12396  10 ** 64 */\n      0x184f03e93ff9f4daa797ed6e38ed64bf6a1f010000000000000000\n        /* \"@openzeppelin/contracts/utils/math/Math.sol\":12379:12396  value /= 10 ** 64 */\n      dup4\n      dup2\n      tag_312\n      jumpi\n      tag_313\n      tag_306\n      jump\t// in\n    tag_313:\n    tag_312:\n      div\n      swap3\n      pop\n        /* \"@openzeppelin/contracts/utils/math/Math.sol\":12424:12426  64 */\n      0x40\n        /* \"@openzeppelin/contracts/utils/math/Math.sol\":12414:12426  result += 64 */\n      dup2\n      add\n      swap1\n      pop\n        /* \"@openzeppelin/contracts/utils/math/Math.sol\":12338:12441  if (value >= 10 ** 64) {... */\n    tag_311:\n        /* \"@openzeppelin/contracts/utils/math/Math.sol\":12467:12475  10 ** 32 */\n      0x04ee2d6d415b85acef8100000000\n        /* \"@openzeppelin/contracts/utils/math/Math.sol\":12458:12463  value */\n      dup4\n        /* \"@openzeppelin/contracts/utils/math/Math.sol\":12458:12475  value >= 10 ** 32 */\n      lt\n        /* \"@openzeppelin/contracts/utils/math/Math.sol\":12454:12557  if (value >= 10 ** 32) {... */\n      tag_314\n      jumpi\n        /* \"@openzeppelin/contracts/utils/math/Math.sol\":12504:12512  10 ** 32 */\n      0x04ee2d6d415b85acef8100000000\n        /* \"@openzeppelin/contracts/utils/math/Math.sol\":12495:12512  value /= 10 ** 32 */\n      dup4\n      dup2\n      tag_315\n      jumpi\n      tag_316\n      tag_306\n      jump\t// in\n    tag_316:\n    tag_315:\n      div\n      swap3\n      pop\n        /* \"@openzeppelin/contracts/utils/math/Math.sol\":12540:12542  32 */\n      0x20\n        /* \"@openzeppelin/contracts/utils/math/Math.sol\":12530:12542  result += 32 */\n      dup2\n      add\n      swap1\n      pop\n        /* \"@openzeppelin/contracts/utils/math/Math.sol\":12454:12557  if (value >= 10 ** 32) {... */\n    tag_314:\n        /* \"@openzeppelin/contracts/utils/math/Math.sol\":12583:12591  10 ** 16 */\n      0x2386f26fc10000\n        /* \"@openzeppelin/contracts/utils/math/Math.sol\":12574:12579  value */\n      dup4\n        /* \"@openzeppelin/contracts/utils/math/Math.sol\":12574:12591  value >= 10 ** 16 */\n      lt\n        /* \"@openzeppelin/contracts/utils/math/Math.sol\":12570:12673  if (value >= 10 ** 16) {... */\n      tag_317\n      jumpi\n        /* \"@openzeppelin/contracts/utils/math/Math.sol\":12620:12628  10 ** 16 */\n      0x2386f26fc10000\n        /* \"@openzeppelin/contracts/utils/math/Math.sol\":12611:12628  value /= 10 ** 16 */\n      dup4\n      dup2\n      tag_318\n      jumpi\n      tag_319\n      tag_306\n      jump\t// in\n    tag_319:\n    tag_318:\n      div\n      swap3\n      pop\n        /* \"@openzeppelin/contracts/utils/math/Math.sol\":12656:12658  16 */\n      0x10\n        /* \"@openzeppelin/contracts/utils/math/Math.sol\":12646:12658  result += 16 */\n      dup2\n      add\n      swap1\n      pop\n        /* \"@openzeppelin/contracts/utils/math/Math.sol\":12570:12673  if (value >= 10 ** 16) {... */\n    tag_317:\n        /* \"@openzeppelin/contracts/utils/math/Math.sol\":12699:12706  10 ** 8 */\n      0x05f5e100\n        /* \"@openzeppelin/contracts/utils/math/Math.sol\":12690:12695  value */\n      dup4\n        /* \"@openzeppelin/contracts/utils/math/Math.sol\":12690:12706  value >= 10 ** 8 */\n      lt\n        /* \"@openzeppelin/contracts/utils/math/Math.sol\":12686:12786  if (value >= 10 ** 8) {... */\n      tag_320\n      jumpi\n        /* \"@openzeppelin/contracts/utils/math/Math.sol\":12735:12742  10 ** 8 */\n      0x05f5e100\n        /* \"@openzeppelin/contracts/utils/math/Math.sol\":12726:12742  value /= 10 ** 8 */\n      dup4\n      dup2\n      tag_321\n      jumpi\n      tag_322\n      tag_306\n      jump\t// in\n    tag_322:\n    tag_321:\n      div\n      swap3\n      pop\n        /* \"@openzeppelin/contracts/utils/math/Math.sol\":12770:12771  8 */\n      0x08\n        /* \"@openzeppelin/contracts/utils/math/Math.sol\":12760:12771  result += 8 */\n      dup2\n      add\n      swap1\n      pop\n        /* \"@openzeppelin/contracts/utils/math/Math.sol\":12686:12786  if (value >= 10 ** 8) {... */\n    tag_320:\n        /* \"@openzeppelin/contracts/utils/math/Math.sol\":12812:12819  10 ** 4 */\n      0x2710\n        /* \"@openzeppelin/contracts/utils/math/Math.sol\":12803:12808  value */\n      dup4\n        /* \"@openzeppelin/contracts/utils/math/Math.sol\":12803:12819  value >= 10 ** 4 */\n      lt\n        /* \"@openzeppelin/contracts/utils/math/Math.sol\":12799:12899  if (value >= 10 ** 4) {... */\n      tag_323\n      jumpi\n        /* \"@openzeppelin/contracts/utils/math/Math.sol\":12848:12855  10 ** 4 */\n      0x2710\n        /* \"@openzeppelin/contracts/utils/math/Math.sol\":12839:12855  value /= 10 ** 4 */\n      dup4\n      dup2\n      tag_324\n      jumpi\n      tag_325\n      tag_306\n      jump\t// in\n    tag_325:\n    tag_324:\n      div\n      swap3\n      pop\n        /* \"@openzeppelin/contracts/utils/math/Math.sol\":12883:12884  4 */\n      0x04\n        /* \"@openzeppelin/contracts/utils/math/Math.sol\":12873:12884  result += 4 */\n      dup2\n      add\n      swap1\n      pop\n        /* \"@openzeppelin/contracts/utils/math/Math.sol\":12799:12899  if (value >= 10 ** 4) {... */\n    tag_323:\n        /* \"@openzeppelin/contracts/utils/math/Math.sol\":12925:12932  10 ** 2 */\n      0x64\n        /* \"@openzeppelin/contracts/utils/math/Math.sol\":12916:12921  value */\n      dup4\n        /* \"@openzeppelin/contracts/utils/math/Math.sol\":12916:12932  value >= 10 ** 2 */\n      lt\n        /* \"@openzeppelin/contracts/utils/math/Math.sol\":12912:13012  if (value >= 10 ** 2) {... */\n      tag_326\n      jumpi\n        /* \"@openzeppelin/contracts/utils/math/Math.sol\":12961:12968  10 ** 2 */\n      0x64\n        /* \"@openzeppelin/contracts/utils/math/Math.sol\":12952:12968  value /= 10 ** 2 */\n      dup4\n      dup2\n      tag_327\n      jumpi\n      tag_328\n      tag_306\n      jump\t// in\n    tag_328:\n    tag_327:\n      div\n      swap3\n      pop\n        /* \"@openzeppelin/contracts/utils/math/Math.sol\":12996:12997  2 */\n      0x02\n        /* \"@openzeppelin/contracts/utils/math/Math.sol\":12986:12997  result += 2 */\n      dup2\n      add\n      swap1\n      pop\n        /* \"@openzeppelin/contracts/utils/math/Math.sol\":12912:13012  if (value >= 10 ** 2) {... */\n    tag_326:\n        /* \"@openzeppelin/contracts/utils/math/Math.sol\":13038:13045  10 ** 1 */\n      0x0a\n        /* \"@openzeppelin/contracts/utils/math/Math.sol\":13029:13034  value */\n      dup4\n        /* \"@openzeppelin/contracts/utils/math/Math.sol\":13029:13045  value >= 10 ** 1 */\n      lt\n        /* \"@openzeppelin/contracts/utils/math/Math.sol\":13025:13091  if (value >= 10 ** 1) {... */\n      tag_329\n      jumpi\n        /* \"@openzeppelin/contracts/utils/math/Math.sol\":13075:13076  1 */\n      0x01\n        /* \"@openzeppelin/contracts/utils/math/Math.sol\":13065:13076  result += 1 */\n      dup2\n      add\n      swap1\n      pop\n        /* \"@openzeppelin/contracts/utils/math/Math.sol\":13025:13091  if (value >= 10 ** 1) {... */\n    tag_329:\n        /* \"@openzeppelin/contracts/utils/math/Math.sol\":13117:13123  result */\n      dup1\n        /* \"@openzeppelin/contracts/utils/math/Math.sol\":13110:13123  return result */\n      swap2\n      pop\n      pop\n        /* \"@openzeppelin/contracts/utils/math/Math.sol\":12214:13130  function log10(uint256 value) internal pure returns (uint256) {... */\n      swap2\n      swap1\n      pop\n      jump\t// out\n    tag_127:\n      mload(0x40)\n      dup1\n      0x0100\n      add\n      0x40\n      mstore\n      dup1\n      and(0xffffffffffffffffffffffffffffffffffffffff, 0x00)\n      dup2\n      mstore\n      0x20\n      add\n      0x00\n      0x01\n      dup2\n      gt\n      iszero\n      tag_330\n      jumpi\n      tag_331\n      tag_74\n      jump\t// in\n    tag_331:\n    tag_330:\n      dup2\n      mstore\n      0x20\n      add\n      0x00\n      0x02\n      dup2\n      gt\n      iszero\n      tag_332\n      jumpi\n      tag_333\n      tag_74\n      jump\t// in\n    tag_333:\n    tag_332:\n      dup2\n      mstore\n      0x20\n      add\n      0x00\n      dup2\n      mstore\n      0x20\n      add\n      0x00\n      dup2\n      mstore\n      0x20\n      add\n      0x00\n      dup2\n      mstore\n      0x20\n      add\n      0x00\n      dup2\n      mstore\n      0x20\n      add\n      0x00\n      dup2\n      mstore\n      pop\n      swap1\n      jump\t// out\n        /* \"#utility.yul\":7:82   */\n    tag_334:\n        /* \"#utility.yul\":40:46   */\n      0x00\n        /* \"#utility.yul\":73:75   */\n      0x40\n        /* \"#utility.yul\":67:76   */\n      mload\n        /* \"#utility.yul\":57:76   */\n      swap1\n      pop\n        /* \"#utility.yul\":7:82   */\n      swap1\n      jump\t// out\n        /* \"#utility.yul\":88:205   */\n    tag_335:\n        /* \"#utility.yul\":197:198   */\n      0x00\n        /* \"#utility.yul\":194:195   */\n      dup1\n        /* \"#utility.yul\":187:199   */\n      revert\n        /* \"#utility.yul\":211:328   */\n    tag_336:\n        /* \"#utility.yul\":320:321   */\n      0x00\n        /* \"#utility.yul\":317:318   */\n      dup1\n        /* \"#utility.yul\":310:322   */\n      revert\n        /* \"#utility.yul\":334:460   */\n    tag_337:\n        /* \"#utility.yul\":371:378   */\n      0x00\n        /* \"#utility.yul\":411:453   */\n      0xffffffffffffffffffffffffffffffffffffffff\n        /* \"#utility.yul\":404:409   */\n      dup3\n        /* \"#utility.yul\":400:454   */\n      and\n        /* \"#utility.yul\":389:454   */\n      swap1\n      pop\n        /* \"#utility.yul\":334:460   */\n      swap2\n      swap1\n      pop\n      jump\t// out\n        /* \"#utility.yul\":466:562   */\n    tag_338:\n        /* \"#utility.yul\":503:510   */\n      0x00\n        /* \"#utility.yul\":532:556   */\n      tag_402\n        /* \"#utility.yul\":550:555   */\n      dup3\n        /* \"#utility.yul\":532:556   */\n      tag_337\n      jump\t// in\n    tag_402:\n        /* \"#utility.yul\":521:556   */\n      swap1\n      pop\n        /* \"#utility.yul\":466:562   */\n      swap2\n      swap1\n      pop\n      jump\t// out\n        /* \"#utility.yul\":568:690   */\n    tag_339:\n        /* \"#utility.yul\":641:665   */\n      tag_404\n        /* \"#utility.yul\":659:664   */\n      dup2\n        /* \"#utility.yul\":641:665   */\n      tag_338\n      jump\t// in\n    tag_404:\n        /* \"#utility.yul\":634:639   */\n      dup2\n        /* \"#utility.yul\":631:666   */\n      eq\n        /* \"#utility.yul\":621:684   */\n      tag_405\n      jumpi\n        /* \"#utility.yul\":680:681   */\n      0x00\n        /* \"#utility.yul\":677:678   */\n      dup1\n        /* \"#utility.yul\":670:682   */\n      revert\n        /* \"#utility.yul\":621:684   */\n    tag_405:\n        /* \"#utility.yul\":568:690   */\n      pop\n      jump\t// out\n        /* \"#utility.yul\":696:835   */\n    tag_340:\n        /* \"#utility.yul\":742:747   */\n      0x00\n        /* \"#utility.yul\":780:786   */\n      dup2\n        /* \"#utility.yul\":767:787   */\n      calldataload\n        /* \"#utility.yul\":758:787   */\n      swap1\n      pop\n        /* \"#utility.yul\":796:829   */\n      tag_407\n        /* \"#utility.yul\":823:828   */\n      dup2\n        /* \"#utility.yul\":796:829   */\n      tag_339\n      jump\t// in\n    tag_407:\n        /* \"#utility.yul\":696:835   */\n      swap3\n      swap2\n      pop\n      pop\n      jump\t// out\n        /* \"#utility.yul\":841:1170   */\n    tag_18:\n        /* \"#utility.yul\":900:906   */\n      0x00\n        /* \"#utility.yul\":949:951   */\n      0x20\n        /* \"#utility.yul\":937:946   */\n      dup3\n        /* \"#utility.yul\":928:935   */\n      dup5\n        /* \"#utility.yul\":924:947   */\n      sub\n        /* \"#utility.yul\":920:952   */\n      slt\n        /* \"#utility.yul\":917:1036   */\n      iszero\n      tag_409\n      jumpi\n        /* \"#utility.yul\":955:1034   */\n      tag_410\n      tag_335\n      jump\t// in\n    tag_410:\n        /* \"#utility.yul\":917:1036   */\n    tag_409:\n        /* \"#utility.yul\":1075:1076   */\n      0x00\n        /* \"#utility.yul\":1100:1153   */\n      tag_411\n        /* \"#utility.yul\":1145:1152   */\n      dup5\n        /* \"#utility.yul\":1136:1142   */\n      dup3\n        /* \"#utility.yul\":1125:1134   */\n      dup6\n        /* \"#utility.yul\":1121:1143   */\n      add\n        /* \"#utility.yul\":1100:1153   */\n      tag_340\n      jump\t// in\n    tag_411:\n        /* \"#utility.yul\":1090:1153   */\n      swap2\n      pop\n        /* \"#utility.yul\":1046:1163   */\n      pop\n        /* \"#utility.yul\":841:1170   */\n      swap3\n      swap2\n      pop\n      pop\n      jump\t// out\n        /* \"#utility.yul\":1176:1253   */\n    tag_341:\n        /* \"#utility.yul\":1213:1220   */\n      0x00\n        /* \"#utility.yul\":1242:1247   */\n      dup2\n        /* \"#utility.yul\":1231:1247   */\n      swap1\n      pop\n        /* \"#utility.yul\":1176:1253   */\n      swap2\n      swap1\n      pop\n      jump\t// out\n        /* \"#utility.yul\":1259:1377   */\n    tag_342:\n        /* \"#utility.yul\":1346:1370   */\n      tag_414\n        /* \"#utility.yul\":1364:1369   */\n      dup2\n        /* \"#utility.yul\":1346:1370   */\n      tag_341\n      jump\t// in\n    tag_414:\n        /* \"#utility.yul\":1341:1344   */\n      dup3\n        /* \"#utility.yul\":1334:1371   */\n      mstore\n        /* \"#utility.yul\":1259:1377   */\n      pop\n      pop\n      jump\t// out\n        /* \"#utility.yul\":1383:1605   */\n    tag_21:\n        /* \"#utility.yul\":1476:1480   */\n      0x00\n        /* \"#utility.yul\":1514:1516   */\n      0x20\n        /* \"#utility.yul\":1503:1512   */\n      dup3\n        /* \"#utility.yul\":1499:1517   */\n      add\n        /* \"#utility.yul\":1491:1517   */\n      swap1\n      pop\n        /* \"#utility.yul\":1527:1598   */\n      tag_416\n        /* \"#utility.yul\":1595:1596   */\n      0x00\n        /* \"#utility.yul\":1584:1593   */\n      dup4\n        /* \"#utility.yul\":1580:1597   */\n      add\n        /* \"#utility.yul\":1571:1577   */\n      dup5\n        /* \"#utility.yul\":1527:1598   */\n      tag_342\n      jump\t// in\n    tag_416:\n        /* \"#utility.yul\":1383:1605   */\n      swap3\n      swap2\n      pop\n      pop\n      jump\t// out\n        /* \"#utility.yul\":1611:1733   */\n    tag_343:\n        /* \"#utility.yul\":1684:1708   */\n      tag_418\n        /* \"#utility.yul\":1702:1707   */\n      dup2\n        /* \"#utility.yul\":1684:1708   */\n      tag_341\n      jump\t// in\n    tag_418:\n        /* \"#utility.yul\":1677:1682   */\n      dup2\n        /* \"#utility.yul\":1674:1709   */\n      eq\n        /* \"#utility.yul\":1664:1727   */\n      tag_419\n      jumpi\n        /* \"#utility.yul\":1723:1724   */\n      0x00\n        /* \"#utility.yul\":1720:1721   */\n      dup1\n        /* \"#utility.yul\":1713:1725   */\n      revert\n        /* \"#utility.yul\":1664:1727   */\n    tag_419:\n        /* \"#utility.yul\":1611:1733   */\n      pop\n      jump\t// out\n        /* \"#utility.yul\":1739:1878   */\n    tag_344:\n        /* \"#utility.yul\":1785:1790   */\n      0x00\n        /* \"#utility.yul\":1823:1829   */\n      dup2\n        /* \"#utility.yul\":1810:1830   */\n      calldataload\n        /* \"#utility.yul\":1801:1830   */\n      swap1\n      pop\n        /* \"#utility.yul\":1839:1872   */\n      tag_421\n        /* \"#utility.yul\":1866:1871   */\n      dup2\n        /* \"#utility.yul\":1839:1872   */\n      tag_343\n      jump\t// in\n    tag_421:\n        /* \"#utility.yul\":1739:1878   */\n      swap3\n      swap2\n      pop\n      pop\n      jump\t// out\n        /* \"#utility.yul\":1884:1999   */\n    tag_345:\n        /* \"#utility.yul\":1973:1974   */\n      0x02\n        /* \"#utility.yul\":1966:1971   */\n      dup2\n        /* \"#utility.yul\":1963:1975   */\n      lt\n        /* \"#utility.yul\":1953:1993   */\n      tag_423\n      jumpi\n        /* \"#utility.yul\":1989:1990   */\n      0x00\n        /* \"#utility.yul\":1986:1987   */\n      dup1\n        /* \"#utility.yul\":1979:1991   */\n      revert\n        /* \"#utility.yul\":1953:1993   */\n    tag_423:\n        /* \"#utility.yul\":1884:1999   */\n      pop\n      jump\t// out\n        /* \"#utility.yul\":2005:2176   */\n    tag_346:\n        /* \"#utility.yul\":2067:2072   */\n      0x00\n        /* \"#utility.yul\":2105:2111   */\n      dup2\n        /* \"#utility.yul\":2092:2112   */\n      calldataload\n        /* \"#utility.yul\":2083:2112   */\n      swap1\n      pop\n        /* \"#utility.yul\":2121:2170   */\n      tag_425\n        /* \"#utility.yul\":2164:2169   */\n      dup2\n        /* \"#utility.yul\":2121:2170   */\n      tag_345\n      jump\t// in\n    tag_425:\n        /* \"#utility.yul\":2005:2176   */\n      swap3\n      swap2\n      pop\n      pop\n      jump\t// out\n        /* \"#utility.yul\":2182:2833   */\n    tag_25:\n        /* \"#utility.yul\":2275:2281   */\n      0x00\n        /* \"#utility.yul\":2283:2289   */\n      dup1\n        /* \"#utility.yul\":2291:2297   */\n      0x00\n        /* \"#utility.yul\":2340:2342   */\n      0x60\n        /* \"#utility.yul\":2328:2337   */\n      dup5\n        /* \"#utility.yul\":2319:2326   */\n      dup7\n        /* \"#utility.yul\":2315:2338   */\n      sub\n        /* \"#utility.yul\":2311:2343   */\n      slt\n        /* \"#utility.yul\":2308:2427   */\n      iszero\n      tag_427\n      jumpi\n        /* \"#utility.yul\":2346:2425   */\n      tag_428\n      tag_335\n      jump\t// in\n    tag_428:\n        /* \"#utility.yul\":2308:2427   */\n    tag_427:\n        /* \"#utility.yul\":2466:2467   */\n      0x00\n        /* \"#utility.yul\":2491:2544   */\n      tag_429\n        /* \"#utility.yul\":2536:2543   */\n      dup7\n        /* \"#utility.yul\":2527:2533   */\n      dup3\n        /* \"#utility.yul\":2516:2525   */\n      dup8\n        /* \"#utility.yul\":2512:2534   */\n      add\n        /* \"#utility.yul\":2491:2544   */\n      tag_344\n      jump\t// in\n    tag_429:\n        /* \"#utility.yul\":2481:2544   */\n      swap4\n      pop\n        /* \"#utility.yul\":2437:2554   */\n      pop\n        /* \"#utility.yul\":2593:2595   */\n      0x20\n        /* \"#utility.yul\":2619:2688   */\n      tag_430\n        /* \"#utility.yul\":2680:2687   */\n      dup7\n        /* \"#utility.yul\":2671:2677   */\n      dup3\n        /* \"#utility.yul\":2660:2669   */\n      dup8\n        /* \"#utility.yul\":2656:2678   */\n      add\n        /* \"#utility.yul\":2619:2688   */\n      tag_346\n      jump\t// in\n    tag_430:\n        /* \"#utility.yul\":2609:2688   */\n      swap3\n      pop\n        /* \"#utility.yul\":2564:2698   */\n      pop\n        /* \"#utility.yul\":2737:2739   */\n      0x40\n        /* \"#utility.yul\":2763:2816   */\n      tag_431\n        /* \"#utility.yul\":2808:2815   */\n      dup7\n        /* \"#utility.yul\":2799:2805   */\n      dup3\n        /* \"#utility.yul\":2788:2797   */\n      dup8\n        /* \"#utility.yul\":2784:2806   */\n      add\n        /* \"#utility.yul\":2763:2816   */\n      tag_344\n      jump\t// in\n    tag_431:\n        /* \"#utility.yul\":2753:2816   */\n      swap2\n      pop\n        /* \"#utility.yul\":2708:2826   */\n      pop\n        /* \"#utility.yul\":2182:2833   */\n      swap3\n      pop\n      swap3\n      pop\n      swap3\n      jump\t// out\n        /* \"#utility.yul\":2839:3168   */\n    tag_30:\n        /* \"#utility.yul\":2898:2904   */\n      0x00\n        /* \"#utility.yul\":2947:2949   */\n      0x20\n        /* \"#utility.yul\":2935:2944   */\n      dup3\n        /* \"#utility.yul\":2926:2933   */\n      dup5\n        /* \"#utility.yul\":2922:2945   */\n      sub\n        /* \"#utility.yul\":2918:2950   */\n      slt\n        /* \"#utility.yul\":2915:3034   */\n      iszero\n      tag_433\n      jumpi\n        /* \"#utility.yul\":2953:3032   */\n      tag_434\n      tag_335\n      jump\t// in\n    tag_434:\n        /* \"#utility.yul\":2915:3034   */\n    tag_433:\n        /* \"#utility.yul\":3073:3074   */\n      0x00\n        /* \"#utility.yul\":3098:3151   */\n      tag_435\n        /* \"#utility.yul\":3143:3150   */\n      dup5\n        /* \"#utility.yul\":3134:3140   */\n      dup3\n        /* \"#utility.yul\":3123:3132   */\n      dup6\n        /* \"#utility.yul\":3119:3141   */\n      add\n        /* \"#utility.yul\":3098:3151   */\n      tag_344\n      jump\t// in\n    tag_435:\n        /* \"#utility.yul\":3088:3151   */\n      swap2\n      pop\n        /* \"#utility.yul\":3044:3161   */\n      pop\n        /* \"#utility.yul\":2839:3168   */\n      swap3\n      swap2\n      pop\n      pop\n      jump\t// out\n        /* \"#utility.yul\":3174:3292   */\n    tag_347:\n        /* \"#utility.yul\":3261:3285   */\n      tag_437\n        /* \"#utility.yul\":3279:3284   */\n      dup2\n        /* \"#utility.yul\":3261:3285   */\n      tag_338\n      jump\t// in\n    tag_437:\n        /* \"#utility.yul\":3256:3259   */\n      dup3\n        /* \"#utility.yul\":3249:3286   */\n      mstore\n        /* \"#utility.yul\":3174:3292   */\n      pop\n      pop\n      jump\t// out\n        /* \"#utility.yul\":3298:3520   */\n    tag_36:\n        /* \"#utility.yul\":3391:3395   */\n      0x00\n        /* \"#utility.yul\":3429:3431   */\n      0x20\n        /* \"#utility.yul\":3418:3427   */\n      dup3\n        /* \"#utility.yul\":3414:3432   */\n      add\n        /* \"#utility.yul\":3406:3432   */\n      swap1\n      pop\n        /* \"#utility.yul\":3442:3513   */\n      tag_439\n        /* \"#utility.yul\":3510:3511   */\n      0x00\n        /* \"#utility.yul\":3499:3508   */\n      dup4\n        /* \"#utility.yul\":3495:3512   */\n      add\n        /* \"#utility.yul\":3486:3492   */\n      dup5\n        /* \"#utility.yul\":3442:3513   */\n      tag_347\n      jump\t// in\n    tag_439:\n        /* \"#utility.yul\":3298:3520   */\n      swap3\n      swap2\n      pop\n      pop\n      jump\t// out\n        /* \"#utility.yul\":3526:3634   */\n    tag_348:\n        /* \"#utility.yul\":3603:3627   */\n      tag_441\n        /* \"#utility.yul\":3621:3626   */\n      dup2\n        /* \"#utility.yul\":3603:3627   */\n      tag_338\n      jump\t// in\n    tag_441:\n        /* \"#utility.yul\":3598:3601   */\n      dup3\n        /* \"#utility.yul\":3591:3628   */\n      mstore\n        /* \"#utility.yul\":3526:3634   */\n      pop\n      pop\n      jump\t// out\n        /* \"#utility.yul\":3640:3820   */\n    tag_74:\n        /* \"#utility.yul\":3688:3765   */\n      0x4e487b7100000000000000000000000000000000000000000000000000000000\n        /* \"#utility.yul\":3685:3686   */\n      0x00\n        /* \"#utility.yul\":3678:3766   */\n      mstore\n        /* \"#utility.yul\":3785:3789   */\n      0x21\n        /* \"#utility.yul\":3782:3783   */\n      0x04\n        /* \"#utility.yul\":3775:3790   */\n      mstore\n        /* \"#utility.yul\":3809:3813   */\n      0x24\n        /* \"#utility.yul\":3806:3807   */\n      0x00\n        /* \"#utility.yul\":3799:3814   */\n      revert\n        /* \"#utility.yul\":3826:3947   */\n    tag_349:\n        /* \"#utility.yul\":3915:3916   */\n      0x02\n        /* \"#utility.yul\":3908:3913   */\n      dup2\n        /* \"#utility.yul\":3905:3917   */\n      lt\n        /* \"#utility.yul\":3895:3941   */\n      tag_444\n      jumpi\n        /* \"#utility.yul\":3921:3939   */\n      tag_445\n      tag_74\n      jump\t// in\n    tag_445:\n        /* \"#utility.yul\":3895:3941   */\n    tag_444:\n        /* \"#utility.yul\":3826:3947   */\n      pop\n      jump\t// out\n        /* \"#utility.yul\":3953:4096   */\n    tag_350:\n        /* \"#utility.yul\":4006:4013   */\n      0x00\n        /* \"#utility.yul\":4035:4040   */\n      dup2\n        /* \"#utility.yul\":4024:4040   */\n      swap1\n      pop\n        /* \"#utility.yul\":4041:4090   */\n      tag_447\n        /* \"#utility.yul\":4084:4089   */\n      dup3\n        /* \"#utility.yul\":4041:4090   */\n      tag_349\n      jump\t// in\n    tag_447:\n        /* \"#utility.yul\":3953:4096   */\n      swap2\n      swap1\n      pop\n      jump\t// out\n        /* \"#utility.yul\":4102:4245   */\n    tag_351:\n        /* \"#utility.yul\":4166:4175   */\n      0x00\n        /* \"#utility.yul\":4199:4239   */\n      tag_449\n        /* \"#utility.yul\":4233:4238   */\n      dup3\n        /* \"#utility.yul\":4199:4239   */\n      tag_350\n      jump\t// in\n    tag_449:\n        /* \"#utility.yul\":4186:4239   */\n      swap1\n      pop\n        /* \"#utility.yul\":4102:4245   */\n      swap2\n      swap1\n      pop\n      jump\t// out\n        /* \"#utility.yul\":4251:4400   */\n    tag_352:\n        /* \"#utility.yul\":4342:4393   */\n      tag_451\n        /* \"#utility.yul\":4387:4392   */\n      dup2\n        /* \"#utility.yul\":4342:4393   */\n      tag_351\n      jump\t// in\n    tag_451:\n        /* \"#utility.yul\":4337:4340   */\n      dup3\n        /* \"#utility.yul\":4330:4394   */\n      mstore\n        /* \"#utility.yul\":4251:4400   */\n      pop\n      pop\n      jump\t// out\n        /* \"#utility.yul\":4406:4532   */\n    tag_353:\n        /* \"#utility.yul\":4500:4501   */\n      0x03\n        /* \"#utility.yul\":4493:4498   */\n      dup2\n        /* \"#utility.yul\":4490:4502   */\n      lt\n        /* \"#utility.yul\":4480:4526   */\n      tag_453\n      jumpi\n        /* \"#utility.yul\":4506:4524   */\n      tag_454\n      tag_74\n      jump\t// in\n    tag_454:\n        /* \"#utility.yul\":4480:4526   */\n    tag_453:\n        /* \"#utility.yul\":4406:4532   */\n      pop\n      jump\t// out\n        /* \"#utility.yul\":4538:4691   */\n    tag_354:\n        /* \"#utility.yul\":4596:4603   */\n      0x00\n        /* \"#utility.yul\":4625:4630   */\n      dup2\n        /* \"#utility.yul\":4614:4630   */\n      swap1\n      pop\n        /* \"#utility.yul\":4631:4685   */\n      tag_456\n        /* \"#utility.yul\":4679:4684   */\n      dup3\n        /* \"#utility.yul\":4631:4685   */\n      tag_353\n      jump\t// in\n    tag_456:\n        /* \"#utility.yul\":4538:4691   */\n      swap2\n      swap1\n      pop\n      jump\t// out\n        /* \"#utility.yul\":4697:4850   */\n    tag_355:\n        /* \"#utility.yul\":4766:4775   */\n      0x00\n        /* \"#utility.yul\":4799:4844   */\n      tag_458\n        /* \"#utility.yul\":4838:4843   */\n      dup3\n        /* \"#utility.yul\":4799:4844   */\n      tag_354\n      jump\t// in\n    tag_458:\n        /* \"#utility.yul\":4786:4844   */\n      swap1\n      pop\n        /* \"#utility.yul\":4697:4850   */\n      swap2\n      swap1\n      pop\n      jump\t// out\n        /* \"#utility.yul\":4856:5015   */\n    tag_356:\n        /* \"#utility.yul\":4952:5008   */\n      tag_460\n        /* \"#utility.yul\":5002:5007   */\n      dup2\n        /* \"#utility.yul\":4952:5008   */\n      tag_355\n      jump\t// in\n    tag_460:\n        /* \"#utility.yul\":4947:4950   */\n      dup3\n        /* \"#utility.yul\":4940:5009   */\n      mstore\n        /* \"#utility.yul\":4856:5015   */\n      pop\n      pop\n      jump\t// out\n        /* \"#utility.yul\":5021:5129   */\n    tag_357:\n        /* \"#utility.yul\":5098:5122   */\n      tag_462\n        /* \"#utility.yul\":5116:5121   */\n      dup2\n        /* \"#utility.yul\":5098:5122   */\n      tag_341\n      jump\t// in\n    tag_462:\n        /* \"#utility.yul\":5093:5096   */\n      dup3\n        /* \"#utility.yul\":5086:5123   */\n      mstore\n        /* \"#utility.yul\":5021:5129   */\n      pop\n      pop\n      jump\t// out\n        /* \"#utility.yul\":5235:6904   */\n    tag_358:\n        /* \"#utility.yul\":5412:5418   */\n      0x0100\n        /* \"#utility.yul\":5407:5410   */\n      dup3\n        /* \"#utility.yul\":5403:5419   */\n      add\n        /* \"#utility.yul\":5503:5507   */\n      0x00\n        /* \"#utility.yul\":5496:5501   */\n      dup3\n        /* \"#utility.yul\":5492:5508   */\n      add\n        /* \"#utility.yul\":5486:5509   */\n      mload\n        /* \"#utility.yul\":5522:5585   */\n      tag_464\n        /* \"#utility.yul\":5579:5583   */\n      0x00\n        /* \"#utility.yul\":5574:5577   */\n      dup6\n        /* \"#utility.yul\":5570:5584   */\n      add\n        /* \"#utility.yul\":5556:5568   */\n      dup3\n        /* \"#utility.yul\":5522:5585   */\n      tag_348\n      jump\t// in\n    tag_464:\n        /* \"#utility.yul\":5429:5595   */\n      pop\n        /* \"#utility.yul\":5686:5690   */\n      0x20\n        /* \"#utility.yul\":5679:5684   */\n      dup3\n        /* \"#utility.yul\":5675:5691   */\n      add\n        /* \"#utility.yul\":5669:5692   */\n      mload\n        /* \"#utility.yul\":5705:5782   */\n      tag_465\n        /* \"#utility.yul\":5776:5780   */\n      0x20\n        /* \"#utility.yul\":5771:5774   */\n      dup6\n        /* \"#utility.yul\":5767:5781   */\n      add\n        /* \"#utility.yul\":5753:5765   */\n      dup3\n        /* \"#utility.yul\":5705:5782   */\n      tag_352\n      jump\t// in\n    tag_465:\n        /* \"#utility.yul\":5605:5792   */\n      pop\n        /* \"#utility.yul\":5879:5883   */\n      0x40\n        /* \"#utility.yul\":5872:5877   */\n      dup3\n        /* \"#utility.yul\":5868:5884   */\n      add\n        /* \"#utility.yul\":5862:5885   */\n      mload\n        /* \"#utility.yul\":5898:5980   */\n      tag_466\n        /* \"#utility.yul\":5974:5978   */\n      0x40\n        /* \"#utility.yul\":5969:5972   */\n      dup6\n        /* \"#utility.yul\":5965:5979   */\n      add\n        /* \"#utility.yul\":5951:5963   */\n      dup3\n        /* \"#utility.yul\":5898:5980   */\n      tag_356\n      jump\t// in\n    tag_466:\n        /* \"#utility.yul\":5802:5990   */\n      pop\n        /* \"#utility.yul\":6077:6081   */\n      0x60\n        /* \"#utility.yul\":6070:6075   */\n      dup3\n        /* \"#utility.yul\":6066:6082   */\n      add\n        /* \"#utility.yul\":6060:6083   */\n      mload\n        /* \"#utility.yul\":6096:6159   */\n      tag_467\n        /* \"#utility.yul\":6153:6157   */\n      0x60\n        /* \"#utility.yul\":6148:6151   */\n      dup6\n        /* \"#utility.yul\":6144:6158   */\n      add\n        /* \"#utility.yul\":6130:6142   */\n      dup3\n        /* \"#utility.yul\":6096:6159   */\n      tag_357\n      jump\t// in\n    tag_467:\n        /* \"#utility.yul\":6000:6169   */\n      pop\n        /* \"#utility.yul\":6259:6263   */\n      0x80\n        /* \"#utility.yul\":6252:6257   */\n      dup3\n        /* \"#utility.yul\":6248:6264   */\n      add\n        /* \"#utility.yul\":6242:6265   */\n      mload\n        /* \"#utility.yul\":6278:6341   */\n      tag_468\n        /* \"#utility.yul\":6335:6339   */\n      0x80\n        /* \"#utility.yul\":6330:6333   */\n      dup6\n        /* \"#utility.yul\":6326:6340   */\n      add\n        /* \"#utility.yul\":6312:6324   */\n      dup3\n        /* \"#utility.yul\":6278:6341   */\n      tag_357\n      jump\t// in\n    tag_468:\n        /* \"#utility.yul\":6179:6351   */\n      pop\n        /* \"#utility.yul\":6445:6449   */\n      0xa0\n        /* \"#utility.yul\":6438:6443   */\n      dup3\n        /* \"#utility.yul\":6434:6450   */\n      add\n        /* \"#utility.yul\":6428:6451   */\n      mload\n        /* \"#utility.yul\":6464:6527   */\n      tag_469\n        /* \"#utility.yul\":6521:6525   */\n      0xa0\n        /* \"#utility.yul\":6516:6519   */\n      dup6\n        /* \"#utility.yul\":6512:6526   */\n      add\n        /* \"#utility.yul\":6498:6510   */\n      dup3\n        /* \"#utility.yul\":6464:6527   */\n      tag_357\n      jump\t// in\n    tag_469:\n        /* \"#utility.yul\":6361:6537   */\n      pop\n        /* \"#utility.yul\":6623:6627   */\n      0xc0\n        /* \"#utility.yul\":6616:6621   */\n      dup3\n        /* \"#utility.yul\":6612:6628   */\n      add\n        /* \"#utility.yul\":6606:6629   */\n      mload\n        /* \"#utility.yul\":6642:6705   */\n      tag_470\n        /* \"#utility.yul\":6699:6703   */\n      0xc0\n        /* \"#utility.yul\":6694:6697   */\n      dup6\n        /* \"#utility.yul\":6690:6704   */\n      add\n        /* \"#utility.yul\":6676:6688   */\n      dup3\n        /* \"#utility.yul\":6642:6705   */\n      tag_357\n      jump\t// in\n    tag_470:\n        /* \"#utility.yul\":6547:6715   */\n      pop\n        /* \"#utility.yul\":6805:6809   */\n      0xe0\n        /* \"#utility.yul\":6798:6803   */\n      dup3\n        /* \"#utility.yul\":6794:6810   */\n      add\n        /* \"#utility.yul\":6788:6811   */\n      mload\n        /* \"#utility.yul\":6824:6887   */\n      tag_471\n        /* \"#utility.yul\":6881:6885   */\n      0xe0\n        /* \"#utility.yul\":6876:6879   */\n      dup6\n        /* \"#utility.yul\":6872:6886   */\n      add\n        /* \"#utility.yul\":6858:6870   */\n      dup3\n        /* \"#utility.yul\":6824:6887   */\n      tag_357\n      jump\t// in\n    tag_471:\n        /* \"#utility.yul\":6725:6897   */\n      pop\n        /* \"#utility.yul\":5381:6904   */\n      pop\n        /* \"#utility.yul\":5235:6904   */\n      pop\n      pop\n      jump\t// out\n        /* \"#utility.yul\":6910:7293   */\n    tag_41:\n        /* \"#utility.yul\":7083:7087   */\n      0x00\n        /* \"#utility.yul\":7121:7124   */\n      0x0100\n        /* \"#utility.yul\":7110:7119   */\n      dup3\n        /* \"#utility.yul\":7106:7125   */\n      add\n        /* \"#utility.yul\":7098:7125   */\n      swap1\n      pop\n        /* \"#utility.yul\":7135:7286   */\n      tag_473\n        /* \"#utility.yul\":7283:7284   */\n      0x00\n        /* \"#utility.yul\":7272:7281   */\n      dup4\n        /* \"#utility.yul\":7268:7285   */\n      add\n        /* \"#utility.yul\":7259:7265   */\n      dup5\n        /* \"#utility.yul\":7135:7286   */\n      tag_358\n      jump\t// in\n    tag_473:\n        /* \"#utility.yul\":6910:7293   */\n      swap3\n      swap2\n      pop\n      pop\n      jump\t// out\n        /* \"#utility.yul\":7299:7419   */\n    tag_359:\n        /* \"#utility.yul\":7393:7394   */\n      0x03\n        /* \"#utility.yul\":7386:7391   */\n      dup2\n        /* \"#utility.yul\":7383:7395   */\n      lt\n        /* \"#utility.yul\":7373:7413   */\n      tag_475\n      jumpi\n        /* \"#utility.yul\":7409:7410   */\n      0x00\n        /* \"#utility.yul\":7406:7407   */\n      dup1\n        /* \"#utility.yul\":7399:7411   */\n      revert\n        /* \"#utility.yul\":7373:7413   */\n    tag_475:\n        /* \"#utility.yul\":7299:7419   */\n      pop\n      jump\t// out\n        /* \"#utility.yul\":7425:7606   */\n    tag_360:\n        /* \"#utility.yul\":7492:7497   */\n      0x00\n        /* \"#utility.yul\":7530:7536   */\n      dup2\n        /* \"#utility.yul\":7517:7537   */\n      calldataload\n        /* \"#utility.yul\":7508:7537   */\n      swap1\n      pop\n        /* \"#utility.yul\":7546:7600   */\n      tag_477\n        /* \"#utility.yul\":7594:7599   */\n      dup2\n        /* \"#utility.yul\":7546:7600   */\n      tag_359\n      jump\t// in\n    tag_477:\n        /* \"#utility.yul\":7425:7606   */\n      swap3\n      swap2\n      pop\n      pop\n      jump\t// out\n        /* \"#utility.yul\":7612:8305   */\n    tag_44:\n        /* \"#utility.yul\":7726:7732   */\n      0x00\n        /* \"#utility.yul\":7734:7740   */\n      dup1\n        /* \"#utility.yul\":7742:7748   */\n      0x00\n        /* \"#utility.yul\":7791:7793   */\n      0x60\n        /* \"#utility.yul\":7779:7788   */\n      dup5\n        /* \"#utility.yul\":7770:7777   */\n      dup7\n        /* \"#utility.yul\":7766:7789   */\n      sub\n        /* \"#utility.yul\":7762:7794   */\n      slt\n        /* \"#utility.yul\":7759:7878   */\n      iszero\n      tag_479\n      jumpi\n        /* \"#utility.yul\":7797:7876   */\n      tag_480\n      tag_335\n      jump\t// in\n    tag_480:\n        /* \"#utility.yul\":7759:7878   */\n    tag_479:\n        /* \"#utility.yul\":7917:7918   */\n      0x00\n        /* \"#utility.yul\":7942:8016   */\n      tag_481\n        /* \"#utility.yul\":8008:8015   */\n      dup7\n        /* \"#utility.yul\":7999:8005   */\n      dup3\n        /* \"#utility.yul\":7988:7997   */\n      dup8\n        /* \"#utility.yul\":7984:8006   */\n      add\n        /* \"#utility.yul\":7942:8016   */\n      tag_360\n      jump\t// in\n    tag_481:\n        /* \"#utility.yul\":7932:8016   */\n      swap4\n      pop\n        /* \"#utility.yul\":7888:8026   */\n      pop\n        /* \"#utility.yul\":8065:8067   */\n      0x20\n        /* \"#utility.yul\":8091:8144   */\n      tag_482\n        /* \"#utility.yul\":8136:8143   */\n      dup7\n        /* \"#utility.yul\":8127:8133   */\n      dup3\n        /* \"#utility.yul\":8116:8125   */\n      dup8\n        /* \"#utility.yul\":8112:8134   */\n      add\n        /* \"#utility.yul\":8091:8144   */\n      tag_344\n      jump\t// in\n    tag_482:\n        /* \"#utility.yul\":8081:8144   */\n      swap3\n      pop\n        /* \"#utility.yul\":8036:8154   */\n      pop\n        /* \"#utility.yul\":8193:8195   */\n      0x40\n        /* \"#utility.yul\":8219:8288   */\n      tag_483\n        /* \"#utility.yul\":8280:8287   */\n      dup7\n        /* \"#utility.yul\":8271:8277   */\n      dup3\n        /* \"#utility.yul\":8260:8269   */\n      dup8\n        /* \"#utility.yul\":8256:8278   */\n      add\n        /* \"#utility.yul\":8219:8288   */\n      tag_346\n      jump\t// in\n    tag_483:\n        /* \"#utility.yul\":8209:8288   */\n      swap2\n      pop\n        /* \"#utility.yul\":8164:8298   */\n      pop\n        /* \"#utility.yul\":7612:8305   */\n      swap3\n      pop\n      swap3\n      pop\n      swap3\n      jump\t// out\n        /* \"#utility.yul\":8311:8428   */\n    tag_361:\n        /* \"#utility.yul\":8420:8421   */\n      0x00\n        /* \"#utility.yul\":8417:8418   */\n      dup1\n        /* \"#utility.yul\":8410:8422   */\n      revert\n        /* \"#utility.yul\":8434:8551   */\n    tag_362:\n        /* \"#utility.yul\":8543:8544   */\n      0x00\n        /* \"#utility.yul\":8540:8541   */\n      dup1\n        /* \"#utility.yul\":8533:8545   */\n      revert\n        /* \"#utility.yul\":8557:8659   */\n    tag_363:\n        /* \"#utility.yul\":8598:8604   */\n      0x00\n        /* \"#utility.yul\":8649:8651   */\n      0x1f\n        /* \"#utility.yul\":8645:8652   */\n      not\n        /* \"#utility.yul\":8640:8642   */\n      0x1f\n        /* \"#utility.yul\":8633:8638   */\n      dup4\n        /* \"#utility.yul\":8629:8643   */\n      add\n        /* \"#utility.yul\":8625:8653   */\n      and\n        /* \"#utility.yul\":8615:8653   */\n      swap1\n      pop\n        /* \"#utility.yul\":8557:8659   */\n      swap2\n      swap1\n      pop\n      jump\t// out\n        /* \"#utility.yul\":8665:8845   */\n    tag_300:\n        /* \"#utility.yul\":8713:8790   */\n      0x4e487b7100000000000000000000000000000000000000000000000000000000\n        /* \"#utility.yul\":8710:8711   */\n      0x00\n        /* \"#utility.yul\":8703:8791   */\n      mstore\n        /* \"#utility.yul\":8810:8814   */\n      0x41\n        /* \"#utility.yul\":8807:8808   */\n      0x04\n        /* \"#utility.yul\":8800:8815   */\n      mstore\n        /* \"#utility.yul\":8834:8838   */\n      0x24\n        /* \"#utility.yul\":8831:8832   */\n      0x00\n        /* \"#utility.yul\":8824:8839   */\n      revert\n        /* \"#utility.yul\":8851:9132   */\n    tag_364:\n        /* \"#utility.yul\":8934:8961   */\n      tag_489\n        /* \"#utility.yul\":8956:8960   */\n      dup3\n        /* \"#utility.yul\":8934:8961   */\n      tag_363\n      jump\t// in\n    tag_489:\n        /* \"#utility.yul\":8926:8932   */\n      dup2\n        /* \"#utility.yul\":8922:8962   */\n      add\n        /* \"#utility.yul\":9064:9070   */\n      dup2\n        /* \"#utility.yul\":9052:9062   */\n      dup2\n        /* \"#utility.yul\":9049:9071   */\n      lt\n        /* \"#utility.yul\":9028:9046   */\n      0xffffffffffffffff\n        /* \"#utility.yul\":9016:9026   */\n      dup3\n        /* \"#utility.yul\":9013:9047   */\n      gt\n        /* \"#utility.yul\":9010:9072   */\n      or\n        /* \"#utility.yul\":9007:9095   */\n      iszero\n      tag_490\n      jumpi\n        /* \"#utility.yul\":9075:9093   */\n      tag_491\n      tag_300\n      jump\t// in\n    tag_491:\n        /* \"#utility.yul\":9007:9095   */\n    tag_490:\n        /* \"#utility.yul\":9115:9125   */\n      dup1\n        /* \"#utility.yul\":9111:9113   */\n      0x40\n        /* \"#utility.yul\":9104:9126   */\n      mstore\n        /* \"#utility.yul\":8894:9132   */\n      pop\n        /* \"#utility.yul\":8851:9132   */\n      pop\n      pop\n      jump\t// out\n        /* \"#utility.yul\":9138:9267   */\n    tag_365:\n        /* \"#utility.yul\":9172:9178   */\n      0x00\n        /* \"#utility.yul\":9199:9219   */\n      tag_493\n      tag_334\n      jump\t// in\n    tag_493:\n        /* \"#utility.yul\":9189:9219   */\n      swap1\n      pop\n        /* \"#utility.yul\":9228:9261   */\n      tag_494\n        /* \"#utility.yul\":9256:9260   */\n      dup3\n        /* \"#utility.yul\":9248:9254   */\n      dup3\n        /* \"#utility.yul\":9228:9261   */\n      tag_364\n      jump\t// in\n    tag_494:\n        /* \"#utility.yul\":9138:9267   */\n      swap2\n      swap1\n      pop\n      jump\t// out\n        /* \"#utility.yul\":9273:9581   */\n    tag_366:\n        /* \"#utility.yul\":9335:9339   */\n      0x00\n        /* \"#utility.yul\":9425:9443   */\n      0xffffffffffffffff\n        /* \"#utility.yul\":9417:9423   */\n      dup3\n        /* \"#utility.yul\":9414:9444   */\n      gt\n        /* \"#utility.yul\":9411:9467   */\n      iszero\n      tag_496\n      jumpi\n        /* \"#utility.yul\":9447:9465   */\n      tag_497\n      tag_300\n      jump\t// in\n    tag_497:\n        /* \"#utility.yul\":9411:9467   */\n    tag_496:\n        /* \"#utility.yul\":9485:9514   */\n      tag_498\n        /* \"#utility.yul\":9507:9513   */\n      dup3\n        /* \"#utility.yul\":9485:9514   */\n      tag_363\n      jump\t// in\n    tag_498:\n        /* \"#utility.yul\":9477:9514   */\n      swap1\n      pop\n        /* \"#utility.yul\":9569:9573   */\n      0x20\n        /* \"#utility.yul\":9563:9567   */\n      dup2\n        /* \"#utility.yul\":9559:9574   */\n      add\n        /* \"#utility.yul\":9551:9574   */\n      swap1\n      pop\n        /* \"#utility.yul\":9273:9581   */\n      swap2\n      swap1\n      pop\n      jump\t// out\n        /* \"#utility.yul\":9587:9733   */\n    tag_367:\n        /* \"#utility.yul\":9684:9690   */\n      dup3\n        /* \"#utility.yul\":9679:9682   */\n      dup2\n        /* \"#utility.yul\":9674:9677   */\n      dup4\n        /* \"#utility.yul\":9661:9691   */\n      calldatacopy\n        /* \"#utility.yul\":9725:9726   */\n      0x00\n        /* \"#utility.yul\":9716:9722   */\n      dup4\n        /* \"#utility.yul\":9711:9714   */\n      dup4\n        /* \"#utility.yul\":9707:9723   */\n      add\n        /* \"#utility.yul\":9700:9727   */\n      mstore\n        /* \"#utility.yul\":9587:9733   */\n      pop\n      pop\n      pop\n      jump\t// out\n        /* \"#utility.yul\":9739:10164   */\n    tag_368:\n        /* \"#utility.yul\":9817:9822   */\n      0x00\n        /* \"#utility.yul\":9842:9908   */\n      tag_501\n        /* \"#utility.yul\":9858:9907   */\n      tag_502\n        /* \"#utility.yul\":9900:9906   */\n      dup5\n        /* \"#utility.yul\":9858:9907   */\n      tag_366\n      jump\t// in\n    tag_502:\n        /* \"#utility.yul\":9842:9908   */\n      tag_365\n      jump\t// in\n    tag_501:\n        /* \"#utility.yul\":9833:9908   */\n      swap1\n      pop\n        /* \"#utility.yul\":9931:9937   */\n      dup3\n        /* \"#utility.yul\":9924:9929   */\n      dup2\n        /* \"#utility.yul\":9917:9938   */\n      mstore\n        /* \"#utility.yul\":9969:9973   */\n      0x20\n        /* \"#utility.yul\":9962:9967   */\n      dup2\n        /* \"#utility.yul\":9958:9974   */\n      add\n        /* \"#utility.yul\":10007:10010   */\n      dup5\n        /* \"#utility.yul\":9998:10004   */\n      dup5\n        /* \"#utility.yul\":9993:9996   */\n      dup5\n        /* \"#utility.yul\":9989:10005   */\n      add\n        /* \"#utility.yul\":9986:10011   */\n      gt\n        /* \"#utility.yul\":9983:10095   */\n      iszero\n      tag_503\n      jumpi\n        /* \"#utility.yul\":10014:10093   */\n      tag_504\n      tag_362\n      jump\t// in\n    tag_504:\n        /* \"#utility.yul\":9983:10095   */\n    tag_503:\n        /* \"#utility.yul\":10104:10158   */\n      tag_505\n        /* \"#utility.yul\":10151:10157   */\n      dup5\n        /* \"#utility.yul\":10146:10149   */\n      dup3\n        /* \"#utility.yul\":10141:10144   */\n      dup6\n        /* \"#utility.yul\":10104:10158   */\n      tag_367\n      jump\t// in\n    tag_505:\n        /* \"#utility.yul\":9823:10164   */\n      pop\n        /* \"#utility.yul\":9739:10164   */\n      swap4\n      swap3\n      pop\n      pop\n      pop\n      jump\t// out\n        /* \"#utility.yul\":10184:10524   */\n    tag_369:\n        /* \"#utility.yul\":10240:10245   */\n      0x00\n        /* \"#utility.yul\":10289:10292   */\n      dup3\n        /* \"#utility.yul\":10282:10286   */\n      0x1f\n        /* \"#utility.yul\":10274:10280   */\n      dup4\n        /* \"#utility.yul\":10270:10287   */\n      add\n        /* \"#utility.yul\":10266:10293   */\n      slt\n        /* \"#utility.yul\":10256:10378   */\n      tag_507\n      jumpi\n        /* \"#utility.yul\":10297:10376   */\n      tag_508\n      tag_361\n      jump\t// in\n    tag_508:\n        /* \"#utility.yul\":10256:10378   */\n    tag_507:\n        /* \"#utility.yul\":10414:10420   */\n      dup2\n        /* \"#utility.yul\":10401:10421   */\n      calldataload\n        /* \"#utility.yul\":10439:10518   */\n      tag_509\n        /* \"#utility.yul\":10514:10517   */\n      dup5\n        /* \"#utility.yul\":10506:10512   */\n      dup3\n        /* \"#utility.yul\":10499:10503   */\n      0x20\n        /* \"#utility.yul\":10491:10497   */\n      dup7\n        /* \"#utility.yul\":10487:10504   */\n      add\n        /* \"#utility.yul\":10439:10518   */\n      tag_368\n      jump\t// in\n    tag_509:\n        /* \"#utility.yul\":10430:10518   */\n      swap2\n      pop\n        /* \"#utility.yul\":10246:10524   */\n      pop\n        /* \"#utility.yul\":10184:10524   */\n      swap3\n      swap2\n      pop\n      pop\n      jump\t// out\n        /* \"#utility.yul\":10530:11039   */\n    tag_62:\n        /* \"#utility.yul\":10599:10605   */\n      0x00\n        /* \"#utility.yul\":10648:10650   */\n      0x20\n        /* \"#utility.yul\":10636:10645   */\n      dup3\n        /* \"#utility.yul\":10627:10634   */\n      dup5\n        /* \"#utility.yul\":10623:10646   */\n      sub\n        /* \"#utility.yul\":10619:10651   */\n      slt\n        /* \"#utility.yul\":10616:10735   */\n      iszero\n      tag_511\n      jumpi\n        /* \"#utility.yul\":10654:10733   */\n      tag_512\n      tag_335\n      jump\t// in\n    tag_512:\n        /* \"#utility.yul\":10616:10735   */\n    tag_511:\n        /* \"#utility.yul\":10802:10803   */\n      0x00\n        /* \"#utility.yul\":10791:10800   */\n      dup3\n        /* \"#utility.yul\":10787:10804   */\n      add\n        /* \"#utility.yul\":10774:10805   */\n      calldataload\n        /* \"#utility.yul\":10832:10850   */\n      0xffffffffffffffff\n        /* \"#utility.yul\":10824:10830   */\n      dup2\n        /* \"#utility.yul\":10821:10851   */\n      gt\n        /* \"#utility.yul\":10818:10935   */\n      iszero\n      tag_513\n      jumpi\n        /* \"#utility.yul\":10854:10933   */\n      tag_514\n      tag_336\n      jump\t// in\n    tag_514:\n        /* \"#utility.yul\":10818:10935   */\n    tag_513:\n        /* \"#utility.yul\":10959:11022   */\n      tag_515\n        /* \"#utility.yul\":11014:11021   */\n      dup5\n        /* \"#utility.yul\":11005:11011   */\n      dup3\n        /* \"#utility.yul\":10994:11003   */\n      dup6\n        /* \"#utility.yul\":10990:11012   */\n      add\n        /* \"#utility.yul\":10959:11022   */\n      tag_369\n      jump\t// in\n    tag_515:\n        /* \"#utility.yul\":10949:11022   */\n      swap2\n      pop\n        /* \"#utility.yul\":10745:11032   */\n      pop\n        /* \"#utility.yul\":10530:11039   */\n      swap3\n      swap2\n      pop\n      pop\n      jump\t// out\n        /* \"#utility.yul\":11045:11561   */\n    tag_68:\n        /* \"#utility.yul\":11134:11140   */\n      0x00\n        /* \"#utility.yul\":11142:11148   */\n      dup1\n        /* \"#utility.yul\":11191:11193   */\n      0x40\n        /* \"#utility.yul\":11179:11188   */\n      dup4\n        /* \"#utility.yul\":11170:11177   */\n      dup6\n        /* \"#utility.yul\":11166:11189   */\n      sub\n        /* \"#utility.yul\":11162:11194   */\n      slt\n        /* \"#utility.yul\":11159:11278   */\n      iszero\n      tag_517\n      jumpi\n        /* \"#utility.yul\":11197:11276   */\n      tag_518\n      tag_335\n      jump\t// in\n    tag_518:\n        /* \"#utility.yul\":11159:11278   */\n    tag_517:\n        /* \"#utility.yul\":11317:11318   */\n      0x00\n        /* \"#utility.yul\":11342:11416   */\n      tag_519\n        /* \"#utility.yul\":11408:11415   */\n      dup6\n        /* \"#utility.yul\":11399:11405   */\n      dup3\n        /* \"#utility.yul\":11388:11397   */\n      dup7\n        /* \"#utility.yul\":11384:11406   */\n      add\n        /* \"#utility.yul\":11342:11416   */\n      tag_360\n      jump\t// in\n    tag_519:\n        /* \"#utility.yul\":11332:11416   */\n      swap3\n      pop\n        /* \"#utility.yul\":11288:11426   */\n      pop\n        /* \"#utility.yul\":11465:11467   */\n      0x20\n        /* \"#utility.yul\":11491:11544   */\n      tag_520\n        /* \"#utility.yul\":11536:11543   */\n      dup6\n        /* \"#utility.yul\":11527:11533   */\n      dup3\n        /* \"#utility.yul\":11516:11525   */\n      dup7\n        /* \"#utility.yul\":11512:11534   */\n      add\n        /* \"#utility.yul\":11491:11544   */\n      tag_344\n      jump\t// in\n    tag_520:\n        /* \"#utility.yul\":11481:11544   */\n      swap2\n      pop\n        /* \"#utility.yul\":11436:11554   */\n      pop\n        /* \"#utility.yul\":11045:11561   */\n      swap3\n      pop\n      swap3\n      swap1\n      pop\n      jump\t// out\n        /* \"#utility.yul\":11567:11666   */\n    tag_370:\n        /* \"#utility.yul\":11619:11625   */\n      0x00\n        /* \"#utility.yul\":11653:11658   */\n      dup2\n        /* \"#utility.yul\":11647:11659   */\n      mload\n        /* \"#utility.yul\":11637:11659   */\n      swap1\n      pop\n        /* \"#utility.yul\":11567:11666   */\n      swap2\n      swap1\n      pop\n      jump\t// out\n        /* \"#utility.yul\":11672:11820   */\n    tag_371:\n        /* \"#utility.yul\":11774:11785   */\n      0x00\n        /* \"#utility.yul\":11811:11814   */\n      dup2\n        /* \"#utility.yul\":11796:11814   */\n      swap1\n      pop\n        /* \"#utility.yul\":11672:11820   */\n      swap3\n      swap2\n      pop\n      pop\n      jump\t// out\n        /* \"#utility.yul\":11826:12072   */\n    tag_372:\n        /* \"#utility.yul\":11907:11908   */\n      0x00\n        /* \"#utility.yul\":11917:12030   */\n    tag_524:\n        /* \"#utility.yul\":11931:11937   */\n      dup4\n        /* \"#utility.yul\":11928:11929   */\n      dup2\n        /* \"#utility.yul\":11925:11938   */\n      lt\n        /* \"#utility.yul\":11917:12030   */\n      iszero\n      tag_526\n      jumpi\n        /* \"#utility.yul\":12016:12017   */\n      dup1\n        /* \"#utility.yul\":12011:12014   */\n      dup3\n        /* \"#utility.yul\":12007:12018   */\n      add\n        /* \"#utility.yul\":12001:12019   */\n      mload\n        /* \"#utility.yul\":11997:11998   */\n      dup2\n        /* \"#utility.yul\":11992:11995   */\n      dup5\n        /* \"#utility.yul\":11988:11999   */\n      add\n        /* \"#utility.yul\":11981:12020   */\n      mstore\n        /* \"#utility.yul\":11953:11955   */\n      0x20\n        /* \"#utility.yul\":11950:11951   */\n      dup2\n        /* \"#utility.yul\":11946:11956   */\n      add\n        /* \"#utility.yul\":11941:11956   */\n      swap1\n      pop\n        /* \"#utility.yul\":11917:12030   */\n      jump(tag_524)\n    tag_526:\n        /* \"#utility.yul\":12064:12065   */\n      0x00\n        /* \"#utility.yul\":12055:12061   */\n      dup5\n        /* \"#utility.yul\":12050:12053   */\n      dup5\n        /* \"#utility.yul\":12046:12062   */\n      add\n        /* \"#utility.yul\":12039:12066   */\n      mstore\n        /* \"#utility.yul\":11888:12072   */\n      pop\n        /* \"#utility.yul\":11826:12072   */\n      pop\n      pop\n      pop\n      jump\t// out\n        /* \"#utility.yul\":12078:12468   */\n    tag_373:\n        /* \"#utility.yul\":12184:12187   */\n      0x00\n        /* \"#utility.yul\":12212:12251   */\n      tag_528\n        /* \"#utility.yul\":12245:12250   */\n      dup3\n        /* \"#utility.yul\":12212:12251   */\n      tag_370\n      jump\t// in\n    tag_528:\n        /* \"#utility.yul\":12267:12356   */\n      tag_529\n        /* \"#utility.yul\":12349:12355   */\n      dup2\n        /* \"#utility.yul\":12344:12347   */\n      dup6\n        /* \"#utility.yul\":12267:12356   */\n      tag_371\n      jump\t// in\n    tag_529:\n        /* \"#utility.yul\":12260:12356   */\n      swap4\n      pop\n        /* \"#utility.yul\":12365:12430   */\n      tag_530\n        /* \"#utility.yul\":12423:12429   */\n      dup2\n        /* \"#utility.yul\":12418:12421   */\n      dup6\n        /* \"#utility.yul\":12411:12415   */\n      0x20\n        /* \"#utility.yul\":12404:12409   */\n      dup7\n        /* \"#utility.yul\":12400:12416   */\n      add\n        /* \"#utility.yul\":12365:12430   */\n      tag_372\n      jump\t// in\n    tag_530:\n        /* \"#utility.yul\":12455:12461   */\n      dup1\n        /* \"#utility.yul\":12450:12453   */\n      dup5\n        /* \"#utility.yul\":12446:12462   */\n      add\n        /* \"#utility.yul\":12439:12462   */\n      swap2\n      pop\n        /* \"#utility.yul\":12188:12468   */\n      pop\n        /* \"#utility.yul\":12078:12468   */\n      swap3\n      swap2\n      pop\n      pop\n      jump\t// out\n        /* \"#utility.yul\":12474:12657   */\n    tag_374:\n        /* \"#utility.yul\":12642:12650   */\n      0x5f4e4f5254480000000000000000000000000000000000000000000000000000\n        /* \"#utility.yul\":12637:12640   */\n      dup2\n        /* \"#utility.yul\":12630:12651   */\n      mstore\n        /* \"#utility.yul\":12474:12657   */\n      pop\n      jump\t// out\n        /* \"#utility.yul\":12663:13202   */\n    tag_81:\n        /* \"#utility.yul\":12885:12888   */\n      0x00\n        /* \"#utility.yul\":12907:13002   */\n      tag_533\n        /* \"#utility.yul\":12998:13001   */\n      dup3\n        /* \"#utility.yul\":12989:12995   */\n      dup5\n        /* \"#utility.yul\":12907:13002   */\n      tag_373\n      jump\t// in\n    tag_533:\n        /* \"#utility.yul\":12900:13002   */\n      swap2\n      pop\n        /* \"#utility.yul\":13012:13149   */\n      tag_534\n        /* \"#utility.yul\":13145:13148   */\n      dup3\n        /* \"#utility.yul\":13012:13149   */\n      tag_374\n      jump\t// in\n    tag_534:\n        /* \"#utility.yul\":13174:13175   */\n      0x06\n        /* \"#utility.yul\":13169:13172   */\n      dup3\n        /* \"#utility.yul\":13165:13176   */\n      add\n        /* \"#utility.yul\":13158:13176   */\n      swap2\n      pop\n        /* \"#utility.yul\":13193:13196   */\n      dup2\n        /* \"#utility.yul\":13186:13196   */\n      swap1\n      pop\n        /* \"#utility.yul\":12663:13202   */\n      swap3\n      swap2\n      pop\n      pop\n      jump\t// out\n        /* \"#utility.yul\":13208:13391   */\n    tag_375:\n        /* \"#utility.yul\":13376:13384   */\n      0x5f534f5554480000000000000000000000000000000000000000000000000000\n        /* \"#utility.yul\":13371:13374   */\n      dup2\n        /* \"#utility.yul\":13364:13385   */\n      mstore\n        /* \"#utility.yul\":13208:13391   */\n      pop\n      jump\t// out\n        /* \"#utility.yul\":13397:13936   */\n    tag_85:\n        /* \"#utility.yul\":13619:13622   */\n      0x00\n        /* \"#utility.yul\":13641:13736   */\n      tag_537\n        /* \"#utility.yul\":13732:13735   */\n      dup3\n        /* \"#utility.yul\":13723:13729   */\n      dup5\n        /* \"#utility.yul\":13641:13736   */\n      tag_373\n      jump\t// in\n    tag_537:\n        /* \"#utility.yul\":13634:13736   */\n      swap2\n      pop\n        /* \"#utility.yul\":13746:13883   */\n      tag_538\n        /* \"#utility.yul\":13879:13882   */\n      dup3\n        /* \"#utility.yul\":13746:13883   */\n      tag_375\n      jump\t// in\n    tag_538:\n        /* \"#utility.yul\":13908:13909   */\n      0x06\n        /* \"#utility.yul\":13903:13906   */\n      dup3\n        /* \"#utility.yul\":13899:13910   */\n      add\n        /* \"#utility.yul\":13892:13910   */\n      swap2\n      pop\n        /* \"#utility.yul\":13927:13930   */\n      dup2\n        /* \"#utility.yul\":13920:13930   */\n      swap1\n      pop\n        /* \"#utility.yul\":13397:13936   */\n      swap3\n      swap2\n      pop\n      pop\n      jump\t// out\n        /* \"#utility.yul\":13942:14217   */\n    tag_87:\n        /* \"#utility.yul\":14074:14077   */\n      0x00\n        /* \"#utility.yul\":14096:14191   */\n      tag_540\n        /* \"#utility.yul\":14187:14190   */\n      dup3\n        /* \"#utility.yul\":14178:14184   */\n      dup5\n        /* \"#utility.yul\":14096:14191   */\n      tag_373\n      jump\t// in\n    tag_540:\n        /* \"#utility.yul\":14089:14191   */\n      swap2\n      pop\n        /* \"#utility.yul\":14208:14211   */\n      dup2\n        /* \"#utility.yul\":14201:14211   */\n      swap1\n      pop\n        /* \"#utility.yul\":13942:14217   */\n      swap3\n      swap2\n      pop\n      pop\n      jump\t// out\n        /* \"#utility.yul\":14223:14392   */\n    tag_376:\n        /* \"#utility.yul\":14307:14318   */\n      0x00\n        /* \"#utility.yul\":14341:14347   */\n      dup3\n        /* \"#utility.yul\":14336:14339   */\n      dup3\n        /* \"#utility.yul\":14329:14348   */\n      mstore\n        /* \"#utility.yul\":14381:14385   */\n      0x20\n        /* \"#utility.yul\":14376:14379   */\n      dup3\n        /* \"#utility.yul\":14372:14386   */\n      add\n        /* \"#utility.yul\":14357:14386   */\n      swap1\n      pop\n        /* \"#utility.yul\":14223:14392   */\n      swap3\n      swap2\n      pop\n      pop\n      jump\t// out\n        /* \"#utility.yul\":14398:14574   */\n    tag_377:\n        /* \"#utility.yul\":14538:14566   */\n      0x54686520636c69656e74206973206e6f7420696e73757265642e000000000000\n        /* \"#utility.yul\":14534:14535   */\n      0x00\n        /* \"#utility.yul\":14526:14532   */\n      dup3\n        /* \"#utility.yul\":14522:14536   */\n      add\n        /* \"#utility.yul\":14515:14567   */\n      mstore\n        /* \"#utility.yul\":14398:14574   */\n      pop\n      jump\t// out\n        /* \"#utility.yul\":14580:14946   */\n    tag_378:\n        /* \"#utility.yul\":14722:14725   */\n      0x00\n        /* \"#utility.yul\":14743:14810   */\n      tag_544\n        /* \"#utility.yul\":14807:14809   */\n      0x1a\n        /* \"#utility.yul\":14802:14805   */\n      dup4\n        /* \"#utility.yul\":14743:14810   */\n      tag_376\n      jump\t// in\n    tag_544:\n        /* \"#utility.yul\":14736:14810   */\n      swap2\n      pop\n        /* \"#utility.yul\":14819:14912   */\n      tag_545\n        /* \"#utility.yul\":14908:14911   */\n      dup3\n        /* \"#utility.yul\":14819:14912   */\n      tag_377\n      jump\t// in\n    tag_545:\n        /* \"#utility.yul\":14937:14939   */\n      0x20\n        /* \"#utility.yul\":14932:14935   */\n      dup3\n        /* \"#utility.yul\":14928:14940   */\n      add\n        /* \"#utility.yul\":14921:14940   */\n      swap1\n      pop\n        /* \"#utility.yul\":14580:14946   */\n      swap2\n      swap1\n      pop\n      jump\t// out\n        /* \"#utility.yul\":14952:15371   */\n    tag_92:\n        /* \"#utility.yul\":15118:15122   */\n      0x00\n        /* \"#utility.yul\":15156:15158   */\n      0x20\n        /* \"#utility.yul\":15145:15154   */\n      dup3\n        /* \"#utility.yul\":15141:15159   */\n      add\n        /* \"#utility.yul\":15133:15159   */\n      swap1\n      pop\n        /* \"#utility.yul\":15205:15214   */\n      dup2\n        /* \"#utility.yul\":15199:15203   */\n      dup2\n        /* \"#utility.yul\":15195:15215   */\n      sub\n        /* \"#utility.yul\":15191:15192   */\n      0x00\n        /* \"#utility.yul\":15180:15189   */\n      dup4\n        /* \"#utility.yul\":15176:15193   */\n      add\n        /* \"#utility.yul\":15169:15216   */\n      mstore\n        /* \"#utility.yul\":15233:15364   */\n      tag_547\n        /* \"#utility.yul\":15359:15363   */\n      dup2\n        /* \"#utility.yul\":15233:15364   */\n      tag_378\n      jump\t// in\n    tag_547:\n        /* \"#utility.yul\":15225:15364   */\n      swap1\n      pop\n        /* \"#utility.yul\":14952:15371   */\n      swap2\n      swap1\n      pop\n      jump\t// out\n        /* \"#utility.yul\":15377:15609   */\n    tag_379:\n        /* \"#utility.yul\":15517:15551   */\n      0x596f752063616e6e6f742066696c65206120636c61696d20666f722074686520\n        /* \"#utility.yul\":15513:15514   */\n      0x00\n        /* \"#utility.yul\":15505:15511   */\n      dup3\n        /* \"#utility.yul\":15501:15515   */\n      add\n        /* \"#utility.yul\":15494:15552   */\n      mstore\n        /* \"#utility.yul\":15586:15601   */\n      0x6465736972656420796561722e00000000000000000000000000000000000000\n        /* \"#utility.yul\":15581:15583   */\n      0x20\n        /* \"#utility.yul\":15573:15579   */\n      dup3\n        /* \"#utility.yul\":15569:15584   */\n      add\n        /* \"#utility.yul\":15562:15602   */\n      mstore\n        /* \"#utility.yul\":15377:15609   */\n      pop\n      jump\t// out\n        /* \"#utility.yul\":15615:15981   */\n    tag_380:\n        /* \"#utility.yul\":15757:15760   */\n      0x00\n        /* \"#utility.yul\":15778:15845   */\n      tag_550\n        /* \"#utility.yul\":15842:15844   */\n      0x2d\n        /* \"#utility.yul\":15837:15840   */\n      dup4\n        /* \"#utility.yul\":15778:15845   */\n      tag_376\n      jump\t// in\n    tag_550:\n        /* \"#utility.yul\":15771:15845   */\n      swap2\n      pop\n        /* \"#utility.yul\":15854:15947   */\n      tag_551\n        /* \"#utility.yul\":15943:15946   */\n      dup3\n        /* \"#utility.yul\":15854:15947   */\n      tag_379\n      jump\t// in\n    tag_551:\n        /* \"#utility.yul\":15972:15974   */\n      0x40\n        /* \"#utility.yul\":15967:15970   */\n      dup3\n        /* \"#utility.yul\":15963:15975   */\n      add\n        /* \"#utility.yul\":15956:15975   */\n      swap1\n      pop\n        /* \"#utility.yul\":15615:15981   */\n      swap2\n      swap1\n      pop\n      jump\t// out\n        /* \"#utility.yul\":15987:16406   */\n    tag_96:\n        /* \"#utility.yul\":16153:16157   */\n      0x00\n        /* \"#utility.yul\":16191:16193   */\n      0x20\n        /* \"#utility.yul\":16180:16189   */\n      dup3\n        /* \"#utility.yul\":16176:16194   */\n      add\n        /* \"#utility.yul\":16168:16194   */\n      swap1\n      pop\n        /* \"#utility.yul\":16240:16249   */\n      dup2\n        /* \"#utility.yul\":16234:16238   */\n      dup2\n        /* \"#utility.yul\":16230:16250   */\n      sub\n        /* \"#utility.yul\":16226:16227   */\n      0x00\n        /* \"#utility.yul\":16215:16224   */\n      dup4\n        /* \"#utility.yul\":16211:16228   */\n      add\n        /* \"#utility.yul\":16204:16251   */\n      mstore\n        /* \"#utility.yul\":16268:16399   */\n      tag_553\n        /* \"#utility.yul\":16394:16398   */\n      dup2\n        /* \"#utility.yul\":16268:16399   */\n      tag_380\n      jump\t// in\n    tag_553:\n        /* \"#utility.yul\":16260:16399   */\n      swap1\n      pop\n        /* \"#utility.yul\":15987:16406   */\n      swap2\n      swap1\n      pop\n      jump\t// out\n        /* \"#utility.yul\":16412:16640   */\n    tag_381:\n        /* \"#utility.yul\":16552:16586   */\n      0x5468657265206973206e6f207265636f726420666f7220746865207265717569\n        /* \"#utility.yul\":16548:16549   */\n      0x00\n        /* \"#utility.yul\":16540:16546   */\n      dup3\n        /* \"#utility.yul\":16536:16550   */\n      add\n        /* \"#utility.yul\":16529:16587   */\n      mstore\n        /* \"#utility.yul\":16621:16632   */\n      0x72656420796561722e0000000000000000000000000000000000000000000000\n        /* \"#utility.yul\":16616:16618   */\n      0x20\n        /* \"#utility.yul\":16608:16614   */\n      dup3\n        /* \"#utility.yul\":16604:16619   */\n      add\n        /* \"#utility.yul\":16597:16633   */\n      mstore\n        /* \"#utility.yul\":16412:16640   */\n      pop\n      jump\t// out\n        /* \"#utility.yul\":16646:17012   */\n    tag_382:\n        /* \"#utility.yul\":16788:16791   */\n      0x00\n        /* \"#utility.yul\":16809:16876   */\n      tag_556\n        /* \"#utility.yul\":16873:16875   */\n      0x29\n        /* \"#utility.yul\":16868:16871   */\n      dup4\n        /* \"#utility.yul\":16809:16876   */\n      tag_376\n      jump\t// in\n    tag_556:\n        /* \"#utility.yul\":16802:16876   */\n      swap2\n      pop\n        /* \"#utility.yul\":16885:16978   */\n      tag_557\n        /* \"#utility.yul\":16974:16977   */\n      dup3\n        /* \"#utility.yul\":16885:16978   */\n      tag_381\n      jump\t// in\n    tag_557:\n        /* \"#utility.yul\":17003:17005   */\n      0x40\n        /* \"#utility.yul\":16998:17001   */\n      dup3\n        /* \"#utility.yul\":16994:17006   */\n      add\n        /* \"#utility.yul\":16987:17006   */\n      swap1\n      pop\n        /* \"#utility.yul\":16646:17012   */\n      swap2\n      swap1\n      pop\n      jump\t// out\n        /* \"#utility.yul\":17018:17437   */\n    tag_111:\n        /* \"#utility.yul\":17184:17188   */\n      0x00\n        /* \"#utility.yul\":17222:17224   */\n      0x20\n        /* \"#utility.yul\":17211:17220   */\n      dup3\n        /* \"#utility.yul\":17207:17225   */\n      add\n        /* \"#utility.yul\":17199:17225   */\n      swap1\n      pop\n        /* \"#utility.yul\":17271:17280   */\n      dup2\n        /* \"#utility.yul\":17265:17269   */\n      dup2\n        /* \"#utility.yul\":17261:17281   */\n      sub\n        /* \"#utility.yul\":17257:17258   */\n      0x00\n        /* \"#utility.yul\":17246:17255   */\n      dup4\n        /* \"#utility.yul\":17242:17259   */\n      add\n        /* \"#utility.yul\":17235:17282   */\n      mstore\n        /* \"#utility.yul\":17299:17430   */\n      tag_559\n        /* \"#utility.yul\":17425:17429   */\n      dup2\n        /* \"#utility.yul\":17299:17430   */\n      tag_382\n      jump\t// in\n    tag_559:\n        /* \"#utility.yul\":17291:17430   */\n      swap1\n      pop\n        /* \"#utility.yul\":17018:17437   */\n      swap2\n      swap1\n      pop\n      jump\t// out\n        /* \"#utility.yul\":17443:17623   */\n    tag_383:\n        /* \"#utility.yul\":17491:17568   */\n      0x4e487b7100000000000000000000000000000000000000000000000000000000\n        /* \"#utility.yul\":17488:17489   */\n      0x00\n        /* \"#utility.yul\":17481:17569   */\n      mstore\n        /* \"#utility.yul\":17588:17592   */\n      0x11\n        /* \"#utility.yul\":17585:17586   */\n      0x04\n        /* \"#utility.yul\":17578:17593   */\n      mstore\n        /* \"#utility.yul\":17612:17616   */\n      0x24\n        /* \"#utility.yul\":17609:17610   */\n      0x00\n        /* \"#utility.yul\":17602:17617   */\n      revert\n        /* \"#utility.yul\":17629:17820   */\n    tag_120:\n        /* \"#utility.yul\":17669:17672   */\n      0x00\n        /* \"#utility.yul\":17688:17708   */\n      tag_562\n        /* \"#utility.yul\":17706:17707   */\n      dup3\n        /* \"#utility.yul\":17688:17708   */\n      tag_341\n      jump\t// in\n    tag_562:\n        /* \"#utility.yul\":17683:17708   */\n      swap2\n      pop\n        /* \"#utility.yul\":17722:17742   */\n      tag_563\n        /* \"#utility.yul\":17740:17741   */\n      dup4\n        /* \"#utility.yul\":17722:17742   */\n      tag_341\n      jump\t// in\n    tag_563:\n        /* \"#utility.yul\":17717:17742   */\n      swap3\n      pop\n        /* \"#utility.yul\":17765:17766   */\n      dup3\n        /* \"#utility.yul\":17762:17763   */\n      dup3\n        /* \"#utility.yul\":17758:17767   */\n      add\n        /* \"#utility.yul\":17751:17767   */\n      swap1\n      pop\n        /* \"#utility.yul\":17786:17789   */\n      dup1\n        /* \"#utility.yul\":17783:17784   */\n      dup3\n        /* \"#utility.yul\":17780:17790   */\n      gt\n        /* \"#utility.yul\":17777:17813   */\n      iszero\n      tag_564\n      jumpi\n        /* \"#utility.yul\":17793:17811   */\n      tag_565\n      tag_383\n      jump\t// in\n    tag_565:\n        /* \"#utility.yul\":17777:17813   */\n    tag_564:\n        /* \"#utility.yul\":17629:17820   */\n      swap3\n      swap2\n      pop\n      pop\n      jump\t// out\n        /* \"#utility.yul\":17826:18073   */\n    tag_384:\n        /* \"#utility.yul\":17966:18000   */\n      0x4f6e6c792074686520636f6e7472616374206f776e657220697320616c6c6f77\n        /* \"#utility.yul\":17962:17963   */\n      0x00\n        /* \"#utility.yul\":17954:17960   */\n      dup3\n        /* \"#utility.yul\":17950:17964   */\n      add\n        /* \"#utility.yul\":17943:18001   */\n      mstore\n        /* \"#utility.yul\":18035:18065   */\n      0x656420746f20646f20746865206465736972656420616374696f6e2e00000000\n        /* \"#utility.yul\":18030:18032   */\n      0x20\n        /* \"#utility.yul\":18022:18028   */\n      dup3\n        /* \"#utility.yul\":18018:18033   */\n      add\n        /* \"#utility.yul\":18011:18066   */\n      mstore\n        /* \"#utility.yul\":17826:18073   */\n      pop\n      jump\t// out\n        /* \"#utility.yul\":18079:18445   */\n    tag_385:\n        /* \"#utility.yul\":18221:18224   */\n      0x00\n        /* \"#utility.yul\":18242:18309   */\n      tag_568\n        /* \"#utility.yul\":18306:18308   */\n      0x3c\n        /* \"#utility.yul\":18301:18304   */\n      dup4\n        /* \"#utility.yul\":18242:18309   */\n      tag_376\n      jump\t// in\n    tag_568:\n        /* \"#utility.yul\":18235:18309   */\n      swap2\n      pop\n        /* \"#utility.yul\":18318:18411   */\n      tag_569\n        /* \"#utility.yul\":18407:18410   */\n      dup3\n        /* \"#utility.yul\":18318:18411   */\n      tag_384\n      jump\t// in\n    tag_569:\n        /* \"#utility.yul\":18436:18438   */\n      0x40\n        /* \"#utility.yul\":18431:18434   */\n      dup3\n        /* \"#utility.yul\":18427:18439   */\n      add\n        /* \"#utility.yul\":18420:18439   */\n      swap1\n      pop\n        /* \"#utility.yul\":18079:18445   */\n      swap2\n      swap1\n      pop\n      jump\t// out\n        /* \"#utility.yul\":18451:18870   */\n    tag_124:\n        /* \"#utility.yul\":18617:18621   */\n      0x00\n        /* \"#utility.yul\":18655:18657   */\n      0x20\n        /* \"#utility.yul\":18644:18653   */\n      dup3\n        /* \"#utility.yul\":18640:18658   */\n      add\n        /* \"#utility.yul\":18632:18658   */\n      swap1\n      pop\n        /* \"#utility.yul\":18704:18713   */\n      dup2\n        /* \"#utility.yul\":18698:18702   */\n      dup2\n        /* \"#utility.yul\":18694:18714   */\n      sub\n        /* \"#utility.yul\":18690:18691   */\n      0x00\n        /* \"#utility.yul\":18679:18688   */\n      dup4\n        /* \"#utility.yul\":18675:18692   */\n      add\n        /* \"#utility.yul\":18668:18715   */\n      mstore\n        /* \"#utility.yul\":18732:18863   */\n      tag_571\n        /* \"#utility.yul\":18858:18862   */\n      dup2\n        /* \"#utility.yul\":18732:18863   */\n      tag_385\n      jump\t// in\n    tag_571:\n        /* \"#utility.yul\":18724:18863   */\n      swap1\n      pop\n        /* \"#utility.yul\":18451:18870   */\n      swap2\n      swap1\n      pop\n      jump\t// out\n        /* \"#utility.yul\":18876:19056   */\n    tag_386:\n        /* \"#utility.yul\":19016:19048   */\n      0x54686520636c69656e7420697320616c726561647920696e73757265642e0000\n        /* \"#utility.yul\":19012:19013   */\n      0x00\n        /* \"#utility.yul\":19004:19010   */\n      dup3\n        /* \"#utility.yul\":19000:19014   */\n      add\n        /* \"#utility.yul\":18993:19049   */\n      mstore\n        /* \"#utility.yul\":18876:19056   */\n      pop\n      jump\t// out\n        /* \"#utility.yul\":19062:19428   */\n    tag_387:\n        /* \"#utility.yul\":19204:19207   */\n      0x00\n        /* \"#utility.yul\":19225:19292   */\n      tag_574\n        /* \"#utility.yul\":19289:19291   */\n      0x1e\n        /* \"#utility.yul\":19284:19287   */\n      dup4\n        /* \"#utility.yul\":19225:19292   */\n      tag_376\n      jump\t// in\n    tag_574:\n        /* \"#utility.yul\":19218:19292   */\n      swap2\n      pop\n        /* \"#utility.yul\":19301:19394   */\n      tag_575\n        /* \"#utility.yul\":19390:19393   */\n      dup3\n        /* \"#utility.yul\":19301:19394   */\n      tag_386\n      jump\t// in\n    tag_575:\n        /* \"#utility.yul\":19419:19421   */\n      0x20\n        /* \"#utility.yul\":19414:19417   */\n      dup3\n        /* \"#utility.yul\":19410:19422   */\n      add\n        /* \"#utility.yul\":19403:19422   */\n      swap1\n      pop\n        /* \"#utility.yul\":19062:19428   */\n      swap2\n      swap1\n      pop\n      jump\t// out\n        /* \"#utility.yul\":19434:19853   */\n    tag_145:\n        /* \"#utility.yul\":19600:19604   */\n      0x00\n        /* \"#utility.yul\":19638:19640   */\n      0x20\n        /* \"#utility.yul\":19627:19636   */\n      dup3\n        /* \"#utility.yul\":19623:19641   */\n      add\n        /* \"#utility.yul\":19615:19641   */\n      swap1\n      pop\n        /* \"#utility.yul\":19687:19696   */\n      dup2\n        /* \"#utility.yul\":19681:19685   */\n      dup2\n        /* \"#utility.yul\":19677:19697   */\n      sub\n        /* \"#utility.yul\":19673:19674   */\n      0x00\n        /* \"#utility.yul\":19662:19671   */\n      dup4\n        /* \"#utility.yul\":19658:19675   */\n      add\n        /* \"#utility.yul\":19651:19698   */\n      mstore\n        /* \"#utility.yul\":19715:19846   */\n      tag_577\n        /* \"#utility.yul\":19841:19845   */\n      dup2\n        /* \"#utility.yul\":19715:19846   */\n      tag_387\n      jump\t// in\n    tag_577:\n        /* \"#utility.yul\":19707:19846   */\n      swap1\n      pop\n        /* \"#utility.yul\":19434:19853   */\n      swap2\n      swap1\n      pop\n      jump\t// out\n        /* \"#utility.yul\":19859:20269   */\n    tag_152:\n        /* \"#utility.yul\":19899:19906   */\n      0x00\n        /* \"#utility.yul\":19922:19942   */\n      tag_579\n        /* \"#utility.yul\":19940:19941   */\n      dup3\n        /* \"#utility.yul\":19922:19942   */\n      tag_341\n      jump\t// in\n    tag_579:\n        /* \"#utility.yul\":19917:19942   */\n      swap2\n      pop\n        /* \"#utility.yul\":19956:19976   */\n      tag_580\n        /* \"#utility.yul\":19974:19975   */\n      dup4\n        /* \"#utility.yul\":19956:19976   */\n      tag_341\n      jump\t// in\n    tag_580:\n        /* \"#utility.yul\":19951:19976   */\n      swap3\n      pop\n        /* \"#utility.yul\":20011:20012   */\n      dup3\n        /* \"#utility.yul\":20008:20009   */\n      dup3\n        /* \"#utility.yul\":20004:20013   */\n      mul\n        /* \"#utility.yul\":20033:20063   */\n      tag_581\n        /* \"#utility.yul\":20051:20062   */\n      dup2\n        /* \"#utility.yul\":20033:20063   */\n      tag_341\n      jump\t// in\n    tag_581:\n        /* \"#utility.yul\":20022:20063   */\n      swap2\n      pop\n        /* \"#utility.yul\":20212:20213   */\n      dup3\n        /* \"#utility.yul\":20203:20210   */\n      dup3\n        /* \"#utility.yul\":20199:20214   */\n      div\n        /* \"#utility.yul\":20196:20197   */\n      dup5\n        /* \"#utility.yul\":20193:20215   */\n      eq\n        /* \"#utility.yul\":20173:20174   */\n      dup4\n        /* \"#utility.yul\":20166:20175   */\n      iszero\n        /* \"#utility.yul\":20146:20229   */\n      or\n        /* \"#utility.yul\":20123:20262   */\n      tag_582\n      jumpi\n        /* \"#utility.yul\":20242:20260   */\n      tag_583\n      tag_383\n      jump\t// in\n    tag_583:\n        /* \"#utility.yul\":20123:20262   */\n    tag_582:\n        /* \"#utility.yul\":19907:20269   */\n      pop\n        /* \"#utility.yul\":19859:20269   */\n      swap3\n      swap2\n      pop\n      pop\n      jump\t// out\n        /* \"#utility.yul\":20275:20520   */\n    tag_388:\n        /* \"#utility.yul\":20415:20449   */\n      0x546865207072656d69756d206d75737420626520636f766572656420746f2072\n        /* \"#utility.yul\":20411:20412   */\n      0x00\n        /* \"#utility.yul\":20403:20409   */\n      dup3\n        /* \"#utility.yul\":20399:20413   */\n      add\n        /* \"#utility.yul\":20392:20450   */\n      mstore\n        /* \"#utility.yul\":20484:20512   */\n      0x65676973746572206f722072656e6577206120706f6c6963792e000000000000\n        /* \"#utility.yul\":20479:20481   */\n      0x20\n        /* \"#utility.yul\":20471:20477   */\n      dup3\n        /* \"#utility.yul\":20467:20482   */\n      add\n        /* \"#utility.yul\":20460:20513   */\n      mstore\n        /* \"#utility.yul\":20275:20520   */\n      pop\n      jump\t// out\n        /* \"#utility.yul\":20526:20892   */\n    tag_389:\n        /* \"#utility.yul\":20668:20671   */\n      0x00\n        /* \"#utility.yul\":20689:20756   */\n      tag_586\n        /* \"#utility.yul\":20753:20755   */\n      0x3a\n        /* \"#utility.yul\":20748:20751   */\n      dup4\n        /* \"#utility.yul\":20689:20756   */\n      tag_376\n      jump\t// in\n    tag_586:\n        /* \"#utility.yul\":20682:20756   */\n      swap2\n      pop\n        /* \"#utility.yul\":20765:20858   */\n      tag_587\n        /* \"#utility.yul\":20854:20857   */\n      dup3\n        /* \"#utility.yul\":20765:20858   */\n      tag_388\n      jump\t// in\n    tag_587:\n        /* \"#utility.yul\":20883:20885   */\n      0x40\n        /* \"#utility.yul\":20878:20881   */\n      dup3\n        /* \"#utility.yul\":20874:20886   */\n      add\n        /* \"#utility.yul\":20867:20886   */\n      swap1\n      pop\n        /* \"#utility.yul\":20526:20892   */\n      swap2\n      swap1\n      pop\n      jump\t// out\n        /* \"#utility.yul\":20898:21317   */\n    tag_155:\n        /* \"#utility.yul\":21064:21068   */\n      0x00\n        /* \"#utility.yul\":21102:21104   */\n      0x20\n        /* \"#utility.yul\":21091:21100   */\n      dup3\n        /* \"#utility.yul\":21087:21105   */\n      add\n        /* \"#utility.yul\":21079:21105   */\n      swap1\n      pop\n        /* \"#utility.yul\":21151:21160   */\n      dup2\n        /* \"#utility.yul\":21145:21149   */\n      dup2\n        /* \"#utility.yul\":21141:21161   */\n      sub\n        /* \"#utility.yul\":21137:21138   */\n      0x00\n        /* \"#utility.yul\":21126:21135   */\n      dup4\n        /* \"#utility.yul\":21122:21139   */\n      add\n        /* \"#utility.yul\":21115:21162   */\n      mstore\n        /* \"#utility.yul\":21179:21310   */\n      tag_589\n        /* \"#utility.yul\":21305:21309   */\n      dup2\n        /* \"#utility.yul\":21179:21310   */\n      tag_389\n      jump\t// in\n    tag_589:\n        /* \"#utility.yul\":21171:21310   */\n      swap1\n      pop\n        /* \"#utility.yul\":20898:21317   */\n      swap2\n      swap1\n      pop\n      jump\t// out\n        /* \"#utility.yul\":21323:21503   */\n    tag_306:\n        /* \"#utility.yul\":21371:21448   */\n      0x4e487b7100000000000000000000000000000000000000000000000000000000\n        /* \"#utility.yul\":21368:21369   */\n      0x00\n        /* \"#utility.yul\":21361:21449   */\n      mstore\n        /* \"#utility.yul\":21468:21472   */\n      0x12\n        /* \"#utility.yul\":21465:21466   */\n      0x04\n        /* \"#utility.yul\":21458:21473   */\n      mstore\n        /* \"#utility.yul\":21492:21496   */\n      0x24\n        /* \"#utility.yul\":21489:21490   */\n      0x00\n        /* \"#utility.yul\":21482:21497   */\n      revert\n        /* \"#utility.yul\":21509:21694   */\n    tag_173:\n        /* \"#utility.yul\":21549:21550   */\n      0x00\n        /* \"#utility.yul\":21566:21586   */\n      tag_592\n        /* \"#utility.yul\":21584:21585   */\n      dup3\n        /* \"#utility.yul\":21566:21586   */\n      tag_341\n      jump\t// in\n    tag_592:\n        /* \"#utility.yul\":21561:21586   */\n      swap2\n      pop\n        /* \"#utility.yul\":21600:21620   */\n      tag_593\n        /* \"#utility.yul\":21618:21619   */\n      dup4\n        /* \"#utility.yul\":21600:21620   */\n      tag_341\n      jump\t// in\n    tag_593:\n        /* \"#utility.yul\":21595:21620   */\n      swap3\n      pop\n        /* \"#utility.yul\":21639:21640   */\n      dup3\n        /* \"#utility.yul\":21629:21664   */\n      tag_594\n      jumpi\n        /* \"#utility.yul\":21644:21662   */\n      tag_595\n      tag_306\n      jump\t// in\n    tag_595:\n        /* \"#utility.yul\":21629:21664   */\n    tag_594:\n        /* \"#utility.yul\":21686:21687   */\n      dup3\n        /* \"#utility.yul\":21683:21684   */\n      dup3\n        /* \"#utility.yul\":21679:21688   */\n      div\n        /* \"#utility.yul\":21674:21688   */\n      swap1\n      pop\n        /* \"#utility.yul\":21509:21694   */\n      swap3\n      swap2\n      pop\n      pop\n      jump\t// out\n        /* \"#utility.yul\":21700:21881   */\n    tag_390:\n        /* \"#utility.yul\":21840:21873   */\n      0x43616e6e6f74206c6f61642074686520636f6e74726163742077697468203000\n        /* \"#utility.yul\":21836:21837   */\n      0x00\n        /* \"#utility.yul\":21828:21834   */\n      dup3\n        /* \"#utility.yul\":21824:21838   */\n      add\n        /* \"#utility.yul\":21817:21874   */\n      mstore\n        /* \"#utility.yul\":21700:21881   */\n      pop\n      jump\t// out\n        /* \"#utility.yul\":21887:22253   */\n    tag_391:\n        /* \"#utility.yul\":22029:22032   */\n      0x00\n        /* \"#utility.yul\":22050:22117   */\n      tag_598\n        /* \"#utility.yul\":22114:22116   */\n      0x1f\n        /* \"#utility.yul\":22109:22112   */\n      dup4\n        /* \"#utility.yul\":22050:22117   */\n      tag_376\n      jump\t// in\n    tag_598:\n        /* \"#utility.yul\":22043:22117   */\n      swap2\n      pop\n        /* \"#utility.yul\":22126:22219   */\n      tag_599\n        /* \"#utility.yul\":22215:22218   */\n      dup3\n        /* \"#utility.yul\":22126:22219   */\n      tag_390\n      jump\t// in\n    tag_599:\n        /* \"#utility.yul\":22244:22246   */\n      0x20\n        /* \"#utility.yul\":22239:22242   */\n      dup3\n        /* \"#utility.yul\":22235:22247   */\n      add\n        /* \"#utility.yul\":22228:22247   */\n      swap1\n      pop\n        /* \"#utility.yul\":21887:22253   */\n      swap2\n      swap1\n      pop\n      jump\t// out\n        /* \"#utility.yul\":22259:22678   */\n    tag_179:\n        /* \"#utility.yul\":22425:22429   */\n      0x00\n        /* \"#utility.yul\":22463:22465   */\n      0x20\n        /* \"#utility.yul\":22452:22461   */\n      dup3\n        /* \"#utility.yul\":22448:22466   */\n      add\n        /* \"#utility.yul\":22440:22466   */\n      swap1\n      pop\n        /* \"#utility.yul\":22512:22521   */\n      dup2\n        /* \"#utility.yul\":22506:22510   */\n      dup2\n        /* \"#utility.yul\":22502:22522   */\n      sub\n        /* \"#utility.yul\":22498:22499   */\n      0x00\n        /* \"#utility.yul\":22487:22496   */\n      dup4\n        /* \"#utility.yul\":22483:22500   */\n      add\n        /* \"#utility.yul\":22476:22523   */\n      mstore\n        /* \"#utility.yul\":22540:22671   */\n      tag_601\n        /* \"#utility.yul\":22666:22670   */\n      dup2\n        /* \"#utility.yul\":22540:22671   */\n      tag_391\n      jump\t// in\n    tag_601:\n        /* \"#utility.yul\":22532:22671   */\n      swap1\n      pop\n        /* \"#utility.yul\":22259:22678   */\n      swap2\n      swap1\n      pop\n      jump\t// out\n        /* \"#utility.yul\":22684:22878   */\n    tag_219:\n        /* \"#utility.yul\":22724:22728   */\n      0x00\n        /* \"#utility.yul\":22744:22764   */\n      tag_603\n        /* \"#utility.yul\":22762:22763   */\n      dup3\n        /* \"#utility.yul\":22744:22764   */\n      tag_341\n      jump\t// in\n    tag_603:\n        /* \"#utility.yul\":22739:22764   */\n      swap2\n      pop\n        /* \"#utility.yul\":22778:22798   */\n      tag_604\n        /* \"#utility.yul\":22796:22797   */\n      dup4\n        /* \"#utility.yul\":22778:22798   */\n      tag_341\n      jump\t// in\n    tag_604:\n        /* \"#utility.yul\":22773:22798   */\n      swap3\n      pop\n        /* \"#utility.yul\":22822:22823   */\n      dup3\n        /* \"#utility.yul\":22819:22820   */\n      dup3\n        /* \"#utility.yul\":22815:22824   */\n      sub\n        /* \"#utility.yul\":22807:22824   */\n      swap1\n      pop\n        /* \"#utility.yul\":22846:22847   */\n      dup2\n        /* \"#utility.yul\":22840:22844   */\n      dup2\n        /* \"#utility.yul\":22837:22848   */\n      gt\n        /* \"#utility.yul\":22834:22871   */\n      iszero\n      tag_605\n      jumpi\n        /* \"#utility.yul\":22851:22869   */\n      tag_606\n      tag_383\n      jump\t// in\n    tag_606:\n        /* \"#utility.yul\":22834:22871   */\n    tag_605:\n        /* \"#utility.yul\":22684:22878   */\n      swap3\n      swap2\n      pop\n      pop\n      jump\t// out\n        /* \"#utility.yul\":22884:23107   */\n    tag_392:\n        /* \"#utility.yul\":23024:23058   */\n      0x436c61696d732063616e206f6e6c792062652066696c65642065766572792079\n        /* \"#utility.yul\":23020:23021   */\n      0x00\n        /* \"#utility.yul\":23012:23018   */\n      dup3\n        /* \"#utility.yul\":23008:23022   */\n      add\n        /* \"#utility.yul\":23001:23059   */\n      mstore\n        /* \"#utility.yul\":23093:23099   */\n      0x6561722e00000000000000000000000000000000000000000000000000000000\n        /* \"#utility.yul\":23088:23090   */\n      0x20\n        /* \"#utility.yul\":23080:23086   */\n      dup3\n        /* \"#utility.yul\":23076:23091   */\n      add\n        /* \"#utility.yul\":23069:23100   */\n      mstore\n        /* \"#utility.yul\":22884:23107   */\n      pop\n      jump\t// out\n        /* \"#utility.yul\":23113:23479   */\n    tag_393:\n        /* \"#utility.yul\":23255:23258   */\n      0x00\n        /* \"#utility.yul\":23276:23343   */\n      tag_609\n        /* \"#utility.yul\":23340:23342   */\n      0x24\n        /* \"#utility.yul\":23335:23338   */\n      dup4\n        /* \"#utility.yul\":23276:23343   */\n      tag_376\n      jump\t// in\n    tag_609:\n        /* \"#utility.yul\":23269:23343   */\n      swap2\n      pop\n        /* \"#utility.yul\":23352:23445   */\n      tag_610\n        /* \"#utility.yul\":23441:23444   */\n      dup3\n        /* \"#utility.yul\":23352:23445   */\n      tag_392\n      jump\t// in\n    tag_610:\n        /* \"#utility.yul\":23470:23472   */\n      0x40\n        /* \"#utility.yul\":23465:23468   */\n      dup3\n        /* \"#utility.yul\":23461:23473   */\n      add\n        /* \"#utility.yul\":23454:23473   */\n      swap1\n      pop\n        /* \"#utility.yul\":23113:23479   */\n      swap2\n      swap1\n      pop\n      jump\t// out\n        /* \"#utility.yul\":23485:23904   */\n    tag_232:\n        /* \"#utility.yul\":23651:23655   */\n      0x00\n        /* \"#utility.yul\":23689:23691   */\n      0x20\n        /* \"#utility.yul\":23678:23687   */\n      dup3\n        /* \"#utility.yul\":23674:23692   */\n      add\n        /* \"#utility.yul\":23666:23692   */\n      swap1\n      pop\n        /* \"#utility.yul\":23738:23747   */\n      dup2\n        /* \"#utility.yul\":23732:23736   */\n      dup2\n        /* \"#utility.yul\":23728:23748   */\n      sub\n        /* \"#utility.yul\":23724:23725   */\n      0x00\n        /* \"#utility.yul\":23713:23722   */\n      dup4\n        /* \"#utility.yul\":23709:23726   */\n      add\n        /* \"#utility.yul\":23702:23749   */\n      mstore\n        /* \"#utility.yul\":23766:23897   */\n      tag_612\n        /* \"#utility.yul\":23892:23896   */\n      dup2\n        /* \"#utility.yul\":23766:23897   */\n      tag_393\n      jump\t// in\n    tag_612:\n        /* \"#utility.yul\":23758:23897   */\n      swap1\n      pop\n        /* \"#utility.yul\":23485:23904   */\n      swap2\n      swap1\n      pop\n      jump\t// out\n        /* \"#utility.yul\":23910:24199   */\n    tag_394:\n        /* \"#utility.yul\":24050:24084   */\n      0x5468652073756e7368696e65206475726174696f6e2077617320657175616c20\n        /* \"#utility.yul\":24046:24047   */\n      0x00\n        /* \"#utility.yul\":24038:24044   */\n      dup3\n        /* \"#utility.yul\":24034:24048   */\n      add\n        /* \"#utility.yul\":24027:24085   */\n      mstore\n        /* \"#utility.yul\":24119:24153   */\n      0x746f206f722065786365656465642074686520696e737572656420686f757273\n        /* \"#utility.yul\":24114:24116   */\n      0x20\n        /* \"#utility.yul\":24106:24112   */\n      dup3\n        /* \"#utility.yul\":24102:24117   */\n      add\n        /* \"#utility.yul\":24095:24154   */\n      mstore\n        /* \"#utility.yul\":24188:24191   */\n      0x2e00000000000000000000000000000000000000000000000000000000000000\n        /* \"#utility.yul\":24183:24185   */\n      0x40\n        /* \"#utility.yul\":24175:24181   */\n      dup3\n        /* \"#utility.yul\":24171:24186   */\n      add\n        /* \"#utility.yul\":24164:24192   */\n      mstore\n        /* \"#utility.yul\":23910:24199   */\n      pop\n      jump\t// out\n        /* \"#utility.yul\":24205:24571   */\n    tag_395:\n        /* \"#utility.yul\":24347:24350   */\n      0x00\n        /* \"#utility.yul\":24368:24435   */\n      tag_615\n        /* \"#utility.yul\":24432:24434   */\n      0x41\n        /* \"#utility.yul\":24427:24430   */\n      dup4\n        /* \"#utility.yul\":24368:24435   */\n      tag_376\n      jump\t// in\n    tag_615:\n        /* \"#utility.yul\":24361:24435   */\n      swap2\n      pop\n        /* \"#utility.yul\":24444:24537   */\n      tag_616\n        /* \"#utility.yul\":24533:24536   */\n      dup3\n        /* \"#utility.yul\":24444:24537   */\n      tag_394\n      jump\t// in\n    tag_616:\n        /* \"#utility.yul\":24562:24564   */\n      0x60\n        /* \"#utility.yul\":24557:24560   */\n      dup3\n        /* \"#utility.yul\":24553:24565   */\n      add\n        /* \"#utility.yul\":24546:24565   */\n      swap1\n      pop\n        /* \"#utility.yul\":24205:24571   */\n      swap2\n      swap1\n      pop\n      jump\t// out\n        /* \"#utility.yul\":24577:24996   */\n    tag_277:\n        /* \"#utility.yul\":24743:24747   */\n      0x00\n        /* \"#utility.yul\":24781:24783   */\n      0x20\n        /* \"#utility.yul\":24770:24779   */\n      dup3\n        /* \"#utility.yul\":24766:24784   */\n      add\n        /* \"#utility.yul\":24758:24784   */\n      swap1\n      pop\n        /* \"#utility.yul\":24830:24839   */\n      dup2\n        /* \"#utility.yul\":24824:24828   */\n      dup2\n        /* \"#utility.yul\":24820:24840   */\n      sub\n        /* \"#utility.yul\":24816:24817   */\n      0x00\n        /* \"#utility.yul\":24805:24814   */\n      dup4\n        /* \"#utility.yul\":24801:24818   */\n      add\n        /* \"#utility.yul\":24794:24841   */\n      mstore\n        /* \"#utility.yul\":24858:24989   */\n      tag_618\n        /* \"#utility.yul\":24984:24988   */\n      dup2\n        /* \"#utility.yul\":24858:24989   */\n      tag_395\n      jump\t// in\n    tag_618:\n        /* \"#utility.yul\":24850:24989   */\n      swap1\n      pop\n        /* \"#utility.yul\":24577:24996   */\n      swap2\n      swap1\n      pop\n      jump\t// out\n\n    auxdata: 0xa2646970667358221220cff0d14e130740a58a3f6867b19fd975deea4a9d8ee67f49e91b3c40090f2b6964736f6c63430008160033\n}\n",
				"bytecode": {
					"linkReferences": {},
					"object": "6080604052659184e72a000060015560966002556014600355335f806101000a81548173ffffffffffffffffffffffffffffffffffffffff021916908373ffffffffffffffffffffffffffffffffffffffff1602179055506040518060400160405280652d79883d2000815260200161066781525060045f8060028111156200008d576200008c620001a6565b5b6002811115620000a257620000a1620001a6565b5b81526020019081526020015f205f820151815f0155602082015181600101559050506040518060400160405280656d23ad5f800081526020016106b981525060045f60016002811115620000fb57620000fa620001a6565b5b600281111562000110576200010f620001a6565b5b81526020019081526020015f205f820151815f015560208201518160010155905050604051806040016040528066013e52b9abe000815260200161070b81525060045f600280811115620001695762000168620001a6565b5b60028111156200017e576200017d620001a6565b5b81526020019081526020015f205f820151815f015560208201518160010155905050620001d3565b7f4e487b71000000000000000000000000000000000000000000000000000000005f52602160045260245ffd5b612a0c80620001e15f395ff3fe6080604052600436106100a6575f3560e01c8063bd097e2111610063578063bd097e21146101a6578063bfd1a3a7146101b0578063cef63600146101ba578063d61909f9146101f6578063e7ebe5e01461021e578063f82ac0821461025a576100a6565b80631d9aec76146100aa578063245503e9146100e657806341b5e38d1461010e5780638da5cb5b146101365780639b36474a14610160578063a8e023eb1461018a575b5f80fd5b3480156100b5575f80fd5b506100d060048036038101906100cb9190611dba565b610296565b6040516100dd9190611dfd565b60405180910390f35b3480156100f1575f80fd5b5061010c60048036038101906101079190611e63565b6102ab565b005b348015610119575f80fd5b50610134600480360381019061012f9190611eb3565b610358565b005b348015610141575f80fd5b5061014a610722565b6040516101579190611eed565b60405180910390f35b34801561016b575f80fd5b506101746107d6565b604051610181919061207d565b60405180910390f35b6101a4600480360381019061019f91906120ba565b6109f3565b005b6101ae610e06565b005b6101b8610e4a565b005b3480156101c5575f80fd5b506101e060048036038101906101db9190611eb3565b61108a565b6040516101ed9190611dfd565b60405180910390f35b348015610201575f80fd5b5061021c60048036038101906102179190611eb3565b611357565b005b348015610229575f80fd5b50610244600480360381019061023f9190612246565b611a2f565b6040516102519190611dfd565b60405180910390f35b348015610265575f80fd5b50610280600480360381019061027b919061228d565b611a5c565b60405161028d9190611dfd565b60405180910390f35b6007602052805f5260405f205f915090505481565b5f8060018111156102bf576102be611f15565b5b8360018111156102d2576102d1611f15565b5b14610304576102e084611aa8565b6040516020016102f0919061235d565b60405160208183030381529060405261032d565b61030d84611aa8565b60405160200161031d91906123a8565b6040516020818303038152906040525b90508160058260405161034091906123cd565b90815260200160405180910390208190555050505050565b5f60065f3373ffffffffffffffffffffffffffffffffffffffff1673ffffffffffffffffffffffffffffffffffffffff1681526020019081526020015f20600401541180156103e657504260065f3373ffffffffffffffffffffffffffffffffffffffff1673ffffffffffffffffffffffffffffffffffffffff1681526020019081526020015f2060040154115b610425576040517f08c379a000000000000000000000000000000000000000000000000000000000815260040161041c9061243d565b60405180910390fd5b808060075f3373ffffffffffffffffffffffffffffffffffffffff1673ffffffffffffffffffffffffffffffffffffffff1681526020019081526020015f2054146104a5576040517f08c379a000000000000000000000000000000000000000000000000000000000815260040161049c906124cb565b60405180910390fd5b815f8060018111156104ba576104b9611f15565b5b60065f3373ffffffffffffffffffffffffffffffffffffffff1673ffffffffffffffffffffffffffffffffffffffff1681526020019081526020015f205f0160149054906101000a900460ff16600181111561051957610518611f15565b5b1461054b5761052782611aa8565b604051602001610537919061235d565b604051602081830303815290604052610574565b61055482611aa8565b60405160200161056491906123a8565b6040516020818303038152906040525b90505f60058260405161058791906123cd565b908152602001604051809103902054036105d6576040517f08c379a00000000000000000000000000000000000000000000000000000000081526004016105cd90612559565b60405180910390fd5b5f6105e08561108a565b90503373ffffffffffffffffffffffffffffffffffffffff166108fc8290811502906040515f60405180830381858888f19350505050158015610625573d5f803e3d5ffd5b5061067d6301e1338060065f3373ffffffffffffffffffffffffffffffffffffffff1673ffffffffffffffffffffffffffffffffffffffff1681526020019081526020015f2060050154611b7290919063ffffffff16565b505f60065f3373ffffffffffffffffffffffffffffffffffffffff1673ffffffffffffffffffffffffffffffffffffffff1681526020019081526020015f2060040154111561071b57600160075f3373ffffffffffffffffffffffffffffffffffffffff1673ffffffffffffffffffffffffffffffffffffffff1681526020019081526020015f205f82825461071391906125a4565b925050819055505b5050505050565b5f805f9054906101000a900473ffffffffffffffffffffffffffffffffffffffff1673ffffffffffffffffffffffffffffffffffffffff163373ffffffffffffffffffffffffffffffffffffffff16146107b1576040517f08c379a00000000000000000000000000000000000000000000000000000000081526004016107a890612647565b60405180910390fd5b5f8054906101000a900473ffffffffffffffffffffffffffffffffffffffff16905090565b6107de611cd8565b5f60065f3373ffffffffffffffffffffffffffffffffffffffff1673ffffffffffffffffffffffffffffffffffffffff1681526020019081526020015f206004015411801561086c57504260065f3373ffffffffffffffffffffffffffffffffffffffff1673ffffffffffffffffffffffffffffffffffffffff1681526020019081526020015f2060040154115b6108ab576040517f08c379a00000000000000000000000000000000000000000000000000000000081526004016108a29061243d565b60405180910390fd5b60065f3373ffffffffffffffffffffffffffffffffffffffff1673ffffffffffffffffffffffffffffffffffffffff1681526020019081526020015f20604051806101000160405290815f82015f9054906101000a900473ffffffffffffffffffffffffffffffffffffffff1673ffffffffffffffffffffffffffffffffffffffff1673ffffffffffffffffffffffffffffffffffffffff1681526020015f820160149054906101000a900460ff16600181111561096c5761096b611f15565b5b600181111561097e5761097d611f15565b5b81526020015f820160159054906101000a900460ff1660028111156109a6576109a5611f15565b5b60028111156109b8576109b7611f15565b5b815260200160018201548152602001600282015481526020016003820154815260200160048201548152602001600582015481525050905090565b5f60065f3373ffffffffffffffffffffffffffffffffffffffff1673ffffffffffffffffffffffffffffffffffffffff1681526020019081526020015f20600401541480610a8057504260065f3373ffffffffffffffffffffffffffffffffffffffff1673ffffffffffffffffffffffffffffffffffffffff1681526020019081526020015f2060040154105b610abf576040517f08c379a0000000000000000000000000000000000000000000000000000000008152600401610ab6906126af565b60405180910390fd5b82825f8160045f856002811115610ad957610ad8611f15565b5b6002811115610aeb57610aea611f15565b5b81526020019081526020015f205f0154610b0591906126cd565b9050803414610b49576040517f08c379a0000000000000000000000000000000000000000000000000000000008152600401610b409061277e565b60405180910390fd5b6040518061010001604052803373ffffffffffffffffffffffffffffffffffffffff168152602001856001811115610b8457610b83611f15565b5b8152602001876002811115610b9c57610b9b611f15565b5b815260200186815260200160045f896002811115610bbd57610bbc611f15565b5b6002811115610bcf57610bce611f15565b5b81526020019081526020015f205f015487610bea91906126cd565b8152602001428152602001610c0c6301e1338042611b7290919063ffffffff16565b8152602001610c286301e1338042611b7290919063ffffffff16565b81525060065f3373ffffffffffffffffffffffffffffffffffffffff1673ffffffffffffffffffffffffffffffffffffffff1681526020019081526020015f205f820151815f015f6101000a81548173ffffffffffffffffffffffffffffffffffffffff021916908373ffffffffffffffffffffffffffffffffffffffff1602179055506020820151815f0160146101000a81548160ff02191690836001811115610cd657610cd5611f15565b5b02179055506040820151815f0160156101000a81548160ff02191690836002811115610d0557610d04611f15565b5b0217905550606082015181600101556080820151816002015560a0820151816003015560c0820151816004015560e082015181600501559050506107b26301e1338042610d5291906127c9565b610d5c91906125a4565b60075f3373ffffffffffffffffffffffffffffffffffffffff1673ffffffffffffffffffffffffffffffffffffffff1681526020019081526020015f208190555060095f3373ffffffffffffffffffffffffffffffffffffffff1673ffffffffffffffffffffffffffffffffffffffff1681526020019081526020015f2042908060018154018082558091505060019003905f5260205f20015f9091909190915055505050505050565b5f3411610e48576040517f08c379a0000000000000000000000000000000000000000000000000000000008152600401610e3f90612843565b60405180910390fd5b565b5f60065f3373ffffffffffffffffffffffffffffffffffffffff1673ffffffffffffffffffffffffffffffffffffffff1681526020019081526020015f2060040154118015610ed857504260065f3373ffffffffffffffffffffffffffffffffffffffff1673ffffffffffffffffffffffffffffffffffffffff1681526020019081526020015f2060040154115b610f17576040517f08c379a0000000000000000000000000000000000000000000000000000000008152600401610f0e9061243d565b60405180910390fd5b60065f3373ffffffffffffffffffffffffffffffffffffffff1673ffffffffffffffffffffffffffffffffffffffff1681526020019081526020015f205f0160159054906101000a900460ff1660065f3373ffffffffffffffffffffffffffffffffffffffff1673ffffffffffffffffffffffffffffffffffffffff1681526020019081526020015f20600101545f8160045f856002811115610fbd57610fbc611f15565b5b6002811115610fcf57610fce611f15565b5b81526020019081526020015f205f0154610fe991906126cd565b905080341461102d576040517f08c379a00000000000000000000000000000000000000000000000000000000081526004016110249061277e565b60405180910390fd5b6110846301e1338060065f3373ffffffffffffffffffffffffffffffffffffffff1673ffffffffffffffffffffffffffffffffffffffff1681526020019081526020015f2060040154611b7290919063ffffffff16565b50505050565b5f8060065f3373ffffffffffffffffffffffffffffffffffffffff1673ffffffffffffffffffffffffffffffffffffffff1681526020019081526020015f20604051806101000160405290815f82015f9054906101000a900473ffffffffffffffffffffffffffffffffffffffff1673ffffffffffffffffffffffffffffffffffffffff1673ffffffffffffffffffffffffffffffffffffffff1681526020015f820160149054906101000a900460ff16600181111561114d5761114c611f15565b5b600181111561115f5761115e611f15565b5b81526020015f820160159054906101000a900460ff16600281111561118757611186611f15565b5b600281111561119957611198611f15565b5b81526020016001820154815260200160028201548152602001600382015481526020016004820154815260200160058201548152505090505f8060018111156111e5576111e4611f15565b5b826020015160018111156111fc576111fb611f15565b5b1461122e5761120a84611aa8565b60405160200161121a919061235d565b604051602081830303815290604052611257565b61123784611aa8565b60405160200161124791906123a8565b6040516020818303038152906040525b90505f60058260405161126a91906123cd565b90815260200160405180910390205490505f8160045f8660400151600281111561129757611296611f15565b5b60028111156112a9576112a8611f15565b5b81526020019081526020015f20600101546112c49190612861565b90505f60015460065f3373ffffffffffffffffffffffffffffffffffffffff1673ffffffffffffffffffffffffffffffffffffffff1681526020019081526020015f20600101546003548460025461131c91906126cd565b61132691906126cd565b61133091906126cd565b61133a91906126cd565b9050620186a08161134b91906127c9565b95505050505050919050565b5f60065f3373ffffffffffffffffffffffffffffffffffffffff1673ffffffffffffffffffffffffffffffffffffffff1681526020019081526020015f20600401541180156113e557504260065f3373ffffffffffffffffffffffffffffffffffffffff1673ffffffffffffffffffffffffffffffffffffffff1681526020019081526020015f2060040154115b611424576040517f08c379a000000000000000000000000000000000000000000000000000000000815260040161141b9061243d565b60405180910390fd5b4260065f3373ffffffffffffffffffffffffffffffffffffffff1673ffffffffffffffffffffffffffffffffffffffff1681526020019081526020015f2060050154106114a6576040517f08c379a000000000000000000000000000000000000000000000000000000000815260040161149d90612904565b60405180910390fd5b808060075f3373ffffffffffffffffffffffffffffffffffffffff1673ffffffffffffffffffffffffffffffffffffffff1681526020019081526020015f205414611526576040517f08c379a000000000000000000000000000000000000000000000000000000000815260040161151d906124cb565b60405180910390fd5b815f80600181111561153b5761153a611f15565b5b60065f3373ffffffffffffffffffffffffffffffffffffffff1673ffffffffffffffffffffffffffffffffffffffff1681526020019081526020015f205f0160149054906101000a900460ff16600181111561159a57611599611f15565b5b146115cc576115a882611aa8565b6040516020016115b8919061235d565b6040516020818303038152906040526115f5565b6115d582611aa8565b6040516020016115e591906123a8565b6040516020818303038152906040525b90505f60058260405161160891906123cd565b90815260200160405180910390205403611657576040517f08c379a000000000000000000000000000000000000000000000000000000000815260040161164e90612559565b60405180910390fd5b5f60065f3373ffffffffffffffffffffffffffffffffffffffff1673ffffffffffffffffffffffffffffffffffffffff1681526020019081526020015f20604051806101000160405290815f82015f9054906101000a900473ffffffffffffffffffffffffffffffffffffffff1673ffffffffffffffffffffffffffffffffffffffff1673ffffffffffffffffffffffffffffffffffffffff1681526020015f820160149054906101000a900460ff16600181111561171957611718611f15565b5b600181111561172b5761172a611f15565b5b81526020015f820160159054906101000a900460ff16600281111561175357611752611f15565b5b600281111561176557611764611f15565b5b81526020016001820154815260200160028201548152602001600382015481526020016004820154815260200160058201548152505090505f8060018111156117b1576117b0611f15565b5b826020015160018111156117c8576117c7611f15565b5b146117fa576117d686611aa8565b6040516020016117e6919061235d565b604051602081830303815290604052611823565b61180386611aa8565b60405160200161181391906123a8565b6040516020818303038152906040525b90505f60058260405161183691906123cd565b90815260200160405180910390205490505f8160045f8660400151600281111561186357611862611f15565b5b600281111561187557611874611f15565b5b81526020019081526020015f20600101546118909190612861565b90505f81116118d4576040517f08c379a00000000000000000000000000000000000000000000000000000000081526004016118cb906129b8565b60405180910390fd5b5f60015460065f3373ffffffffffffffffffffffffffffffffffffffff1673ffffffffffffffffffffffffffffffffffffffff1681526020019081526020015f20600101546064600354856103e860025461192f91906127c9565b61193991906126cd565b61194391906126cd565b61194d91906127c9565b61195791906126cd565b61196191906126cd565b90503373ffffffffffffffffffffffffffffffffffffffff166108fc8290811502906040515f60405180830381858888f193505050501580156119a6573d5f803e3d5ffd5b506119c26301e133808660e00151611b7290919063ffffffff16565b505f8560c001511115611a2457600160075f3373ffffffffffffffffffffffffffffffffffffffff1673ffffffffffffffffffffffffffffffffffffffff1681526020019081526020015f205f828254611a1c91906125a4565b925050819055505b505050505050505050565b6005818051602081018201805184825260208301602085012081835280955050505050505f915090505481565b5f60045f846002811115611a7357611a72611f15565b5b6002811115611a8557611a84611f15565b5b81526020019081526020015f205f015482611aa091906126cd565b905092915050565b60605f6001611ab684611b87565b0190505f8167ffffffffffffffff811115611ad457611ad3612122565b5b6040519080825280601f01601f191660200182016040528015611b065781602001600182028036833780820191505090505b5090505f82602001820190505b600115611b67578080600190039150507f3031323334353637383961626364656600000000000000000000000000000000600a86061a8153600a8581611b5c57611b5b61279c565b5b0494505f8503611b13575b819350505050919050565b5f8183611b7f91906125a4565b905092915050565b5f805f90507a184f03e93ff9f4daa797ed6e38ed64bf6a1f0100000000000000008310611be3577a184f03e93ff9f4daa797ed6e38ed64bf6a1f0100000000000000008381611bd957611bd861279c565b5b0492506040810190505b6d04ee2d6d415b85acef81000000008310611c20576d04ee2d6d415b85acef81000000008381611c1657611c1561279c565b5b0492506020810190505b662386f26fc100008310611c4f57662386f26fc100008381611c4557611c4461279c565b5b0492506010810190505b6305f5e1008310611c78576305f5e1008381611c6e57611c6d61279c565b5b0492506008810190505b6127108310611c9d576127108381611c9357611c9261279c565b5b0492506004810190505b60648310611cc05760648381611cb657611cb561279c565b5b0492506002810190505b600a8310611ccf576001810190505b80915050919050565b6040518061010001604052805f73ffffffffffffffffffffffffffffffffffffffff1681526020015f6001811115611d1357611d12611f15565b5b81526020015f6002811115611d2b57611d2a611f15565b5b81526020015f81526020015f81526020015f81526020015f81526020015f81525090565b5f604051905090565b5f80fd5b5f80fd5b5f73ffffffffffffffffffffffffffffffffffffffff82169050919050565b5f611d8982611d60565b9050919050565b611d9981611d7f565b8114611da3575f80fd5b50565b5f81359050611db481611d90565b92915050565b5f60208284031215611dcf57611dce611d58565b5b5f611ddc84828501611da6565b91505092915050565b5f819050919050565b611df781611de5565b82525050565b5f602082019050611e105f830184611dee565b92915050565b611e1f81611de5565b8114611e29575f80fd5b50565b5f81359050611e3a81611e16565b92915050565b60028110611e4c575f80fd5b50565b5f81359050611e5d81611e40565b92915050565b5f805f60608486031215611e7a57611e79611d58565b5b5f611e8786828701611e2c565b9350506020611e9886828701611e4f565b9250506040611ea986828701611e2c565b9150509250925092565b5f60208284031215611ec857611ec7611d58565b5b5f611ed584828501611e2c565b91505092915050565b611ee781611d7f565b82525050565b5f602082019050611f005f830184611ede565b92915050565b611f0f81611d7f565b82525050565b7f4e487b71000000000000000000000000000000000000000000000000000000005f52602160045260245ffd5b60028110611f5357611f52611f15565b5b50565b5f819050611f6382611f42565b919050565b5f611f7282611f56565b9050919050565b611f8281611f68565b82525050565b60038110611f9957611f98611f15565b5b50565b5f819050611fa982611f88565b919050565b5f611fb882611f9c565b9050919050565b611fc881611fae565b82525050565b611fd781611de5565b82525050565b61010082015f820151611ff25f850182611f06565b5060208201516120056020850182611f79565b5060408201516120186040850182611fbf565b50606082015161202b6060850182611fce565b50608082015161203e6080850182611fce565b5060a082015161205160a0850182611fce565b5060c082015161206460c0850182611fce565b5060e082015161207760e0850182611fce565b50505050565b5f610100820190506120915f830184611fdd565b92915050565b600381106120a3575f80fd5b50565b5f813590506120b481612097565b92915050565b5f805f606084860312156120d1576120d0611d58565b5b5f6120de868287016120a6565b93505060206120ef86828701611e2c565b925050604061210086828701611e4f565b9150509250925092565b5f80fd5b5f80fd5b5f601f19601f8301169050919050565b7f4e487b71000000000000000000000000000000000000000000000000000000005f52604160045260245ffd5b61215882612112565b810181811067ffffffffffffffff8211171561217757612176612122565b5b80604052505050565b5f612189611d4f565b9050612195828261214f565b919050565b5f67ffffffffffffffff8211156121b4576121b3612122565b5b6121bd82612112565b9050602081019050919050565b828183375f83830152505050565b5f6121ea6121e58461219a565b612180565b9050828152602081018484840111156122065761220561210e565b5b6122118482856121ca565b509392505050565b5f82601f83011261222d5761222c61210a565b5b813561223d8482602086016121d8565b91505092915050565b5f6020828403121561225b5761225a611d58565b5b5f82013567ffffffffffffffff81111561227857612277611d5c565b5b61228484828501612219565b91505092915050565b5f80604083850312156122a3576122a2611d58565b5b5f6122b0858286016120a6565b92505060206122c185828601611e2c565b9150509250929050565b5f81519050919050565b5f81905092915050565b5f5b838110156122fc5780820151818401526020810190506122e1565b5f8484015250505050565b5f612311826122cb565b61231b81856122d5565b935061232b8185602086016122df565b80840191505092915050565b7f5f4e4f5254480000000000000000000000000000000000000000000000000000815250565b5f6123688284612307565b915061237382612337565b60068201915081905092915050565b7f5f534f5554480000000000000000000000000000000000000000000000000000815250565b5f6123b38284612307565b91506123be82612382565b60068201915081905092915050565b5f6123d88284612307565b915081905092915050565b5f82825260208201905092915050565b7f54686520636c69656e74206973206e6f7420696e73757265642e0000000000005f82015250565b5f612427601a836123e3565b9150612432826123f3565b602082019050919050565b5f6020820190508181035f8301526124548161241b565b9050919050565b7f596f752063616e6e6f742066696c65206120636c61696d20666f7220746865205f8201527f6465736972656420796561722e00000000000000000000000000000000000000602082015250565b5f6124b5602d836123e3565b91506124c08261245b565b604082019050919050565b5f6020820190508181035f8301526124e2816124a9565b9050919050565b7f5468657265206973206e6f207265636f726420666f72207468652072657175695f8201527f72656420796561722e0000000000000000000000000000000000000000000000602082015250565b5f6125436029836123e3565b915061254e826124e9565b604082019050919050565b5f6020820190508181035f83015261257081612537565b9050919050565b7f4e487b71000000000000000000000000000000000000000000000000000000005f52601160045260245ffd5b5f6125ae82611de5565b91506125b983611de5565b92508282019050808211156125d1576125d0612577565b5b92915050565b7f4f6e6c792074686520636f6e7472616374206f776e657220697320616c6c6f775f8201527f656420746f20646f20746865206465736972656420616374696f6e2e00000000602082015250565b5f612631603c836123e3565b915061263c826125d7565b604082019050919050565b5f6020820190508181035f83015261265e81612625565b9050919050565b7f54686520636c69656e7420697320616c726561647920696e73757265642e00005f82015250565b5f612699601e836123e3565b91506126a482612665565b602082019050919050565b5f6020820190508181035f8301526126c68161268d565b9050919050565b5f6126d782611de5565b91506126e283611de5565b92508282026126f081611de5565b9150828204841483151761270757612706612577565b5b5092915050565b7f546865207072656d69756d206d75737420626520636f766572656420746f20725f8201527f65676973746572206f722072656e6577206120706f6c6963792e000000000000602082015250565b5f612768603a836123e3565b91506127738261270e565b604082019050919050565b5f6020820190508181035f8301526127958161275c565b9050919050565b7f4e487b71000000000000000000000000000000000000000000000000000000005f52601260045260245ffd5b5f6127d382611de5565b91506127de83611de5565b9250826127ee576127ed61279c565b5b828204905092915050565b7f43616e6e6f74206c6f61642074686520636f6e747261637420776974682030005f82015250565b5f61282d601f836123e3565b9150612838826127f9565b602082019050919050565b5f6020820190508181035f83015261285a81612821565b9050919050565b5f61286b82611de5565b915061287683611de5565b925082820390508181111561288e5761288d612577565b5b92915050565b7f436c61696d732063616e206f6e6c792062652066696c656420657665727920795f8201527f6561722e00000000000000000000000000000000000000000000000000000000602082015250565b5f6128ee6024836123e3565b91506128f982612894565b604082019050919050565b5f6020820190508181035f83015261291b816128e2565b9050919050565b7f5468652073756e7368696e65206475726174696f6e2077617320657175616c205f8201527f746f206f722065786365656465642074686520696e737572656420686f75727360208201527f2e00000000000000000000000000000000000000000000000000000000000000604082015250565b5f6129a26041836123e3565b91506129ad82612922565b606082019050919050565b5f6020820190508181035f8301526129cf81612996565b905091905056fea2646970667358221220cff0d14e130740a58a3f6867b19fd975deea4a9d8ee67f49e91b3c40090f2b6964736f6c63430008160033",
					"opcodes": "PUSH1 0x80 PUSH1 0x40 MSTORE PUSH6 0x9184E72A0000 PUSH1 0x1 SSTORE PUSH1 0x96 PUSH1 0x2 SSTORE PUSH1 0x14 PUSH1 0x3 SSTORE CALLER PUSH0 DUP1 PUSH2 0x100 EXP DUP2 SLOAD DUP2 PUSH20 0xFFFFFFFFFFFFFFFFFFFFFFFFFFFFFFFFFFFFFFFF MUL NOT AND SWAP1 DUP4 PUSH20 0xFFFFFFFFFFFFFFFFFFFFFFFFFFFFFFFFFFFFFFFF AND MUL OR SWAP1 SSTORE POP PUSH1 0x40 MLOAD DUP1 PUSH1 0x40 ADD PUSH1 0x40 MSTORE DUP1 PUSH6 0x2D79883D2000 DUP2 MSTORE PUSH1 0x20 ADD PUSH2 0x667 DUP2 MSTORE POP PUSH1 0x4 PUSH0 DUP1 PUSH1 0x2 DUP2 GT ISZERO PUSH3 0x8D JUMPI PUSH3 0x8C PUSH3 0x1A6 JUMP JUMPDEST JUMPDEST PUSH1 0x2 DUP2 GT ISZERO PUSH3 0xA2 JUMPI PUSH3 0xA1 PUSH3 0x1A6 JUMP JUMPDEST JUMPDEST DUP2 MSTORE PUSH1 0x20 ADD SWAP1 DUP2 MSTORE PUSH1 0x20 ADD PUSH0 KECCAK256 PUSH0 DUP3 ADD MLOAD DUP2 PUSH0 ADD SSTORE PUSH1 0x20 DUP3 ADD MLOAD DUP2 PUSH1 0x1 ADD SSTORE SWAP1 POP POP PUSH1 0x40 MLOAD DUP1 PUSH1 0x40 ADD PUSH1 0x40 MSTORE DUP1 PUSH6 0x6D23AD5F8000 DUP2 MSTORE PUSH1 0x20 ADD PUSH2 0x6B9 DUP2 MSTORE POP PUSH1 0x4 PUSH0 PUSH1 0x1 PUSH1 0x2 DUP2 GT ISZERO PUSH3 0xFB JUMPI PUSH3 0xFA PUSH3 0x1A6 JUMP JUMPDEST JUMPDEST PUSH1 0x2 DUP2 GT ISZERO PUSH3 0x110 JUMPI PUSH3 0x10F PUSH3 0x1A6 JUMP JUMPDEST JUMPDEST DUP2 MSTORE PUSH1 0x20 ADD SWAP1 DUP2 MSTORE PUSH1 0x20 ADD PUSH0 KECCAK256 PUSH0 DUP3 ADD MLOAD DUP2 PUSH0 ADD SSTORE PUSH1 0x20 DUP3 ADD MLOAD DUP2 PUSH1 0x1 ADD SSTORE SWAP1 POP POP PUSH1 0x40 MLOAD DUP1 PUSH1 0x40 ADD PUSH1 0x40 MSTORE DUP1 PUSH7 0x13E52B9ABE000 DUP2 MSTORE PUSH1 0x20 ADD PUSH2 0x70B DUP2 MSTORE POP PUSH1 0x4 PUSH0 PUSH1 0x2 DUP1 DUP2 GT ISZERO PUSH3 0x169 JUMPI PUSH3 0x168 PUSH3 0x1A6 JUMP JUMPDEST JUMPDEST PUSH1 0x2 DUP2 GT ISZERO PUSH3 0x17E JUMPI PUSH3 0x17D PUSH3 0x1A6 JUMP JUMPDEST JUMPDEST DUP2 MSTORE PUSH1 0x20 ADD SWAP1 DUP2 MSTORE PUSH1 0x20 ADD PUSH0 KECCAK256 PUSH0 DUP3 ADD MLOAD DUP2 PUSH0 ADD SSTORE PUSH1 0x20 DUP3 ADD MLOAD DUP2 PUSH1 0x1 ADD SSTORE SWAP1 POP POP PUSH3 0x1D3 JUMP JUMPDEST PUSH32 0x4E487B7100000000000000000000000000000000000000000000000000000000 PUSH0 MSTORE PUSH1 0x21 PUSH1 0x4 MSTORE PUSH1 0x24 PUSH0 REVERT JUMPDEST PUSH2 0x2A0C DUP1 PUSH3 0x1E1 PUSH0 CODECOPY PUSH0 RETURN INVALID PUSH1 0x80 PUSH1 0x40 MSTORE PUSH1 0x4 CALLDATASIZE LT PUSH2 0xA6 JUMPI PUSH0 CALLDATALOAD PUSH1 0xE0 SHR DUP1 PUSH4 0xBD097E21 GT PUSH2 0x63 JUMPI DUP1 PUSH4 0xBD097E21 EQ PUSH2 0x1A6 JUMPI DUP1 PUSH4 0xBFD1A3A7 EQ PUSH2 0x1B0 JUMPI DUP1 PUSH4 0xCEF63600 EQ PUSH2 0x1BA JUMPI DUP1 PUSH4 0xD61909F9 EQ PUSH2 0x1F6 JUMPI DUP1 PUSH4 0xE7EBE5E0 EQ PUSH2 0x21E JUMPI DUP1 PUSH4 0xF82AC082 EQ PUSH2 0x25A JUMPI PUSH2 0xA6 JUMP JUMPDEST DUP1 PUSH4 0x1D9AEC76 EQ PUSH2 0xAA JUMPI DUP1 PUSH4 0x245503E9 EQ PUSH2 0xE6 JUMPI DUP1 PUSH4 0x41B5E38D EQ PUSH2 0x10E JUMPI DUP1 PUSH4 0x8DA5CB5B EQ PUSH2 0x136 JUMPI DUP1 PUSH4 0x9B36474A EQ PUSH2 0x160 JUMPI DUP1 PUSH4 0xA8E023EB EQ PUSH2 0x18A JUMPI JUMPDEST PUSH0 DUP1 REVERT JUMPDEST CALLVALUE DUP1 ISZERO PUSH2 0xB5 JUMPI PUSH0 DUP1 REVERT JUMPDEST POP PUSH2 0xD0 PUSH1 0x4 DUP1 CALLDATASIZE SUB DUP2 ADD SWAP1 PUSH2 0xCB SWAP2 SWAP1 PUSH2 0x1DBA JUMP JUMPDEST PUSH2 0x296 JUMP JUMPDEST PUSH1 0x40 MLOAD PUSH2 0xDD SWAP2 SWAP1 PUSH2 0x1DFD JUMP JUMPDEST PUSH1 0x40 MLOAD DUP1 SWAP2 SUB SWAP1 RETURN JUMPDEST CALLVALUE DUP1 ISZERO PUSH2 0xF1 JUMPI PUSH0 DUP1 REVERT JUMPDEST POP PUSH2 0x10C PUSH1 0x4 DUP1 CALLDATASIZE SUB DUP2 ADD SWAP1 PUSH2 0x107 SWAP2 SWAP1 PUSH2 0x1E63 JUMP JUMPDEST PUSH2 0x2AB JUMP JUMPDEST STOP JUMPDEST CALLVALUE DUP1 ISZERO PUSH2 0x119 JUMPI PUSH0 DUP1 REVERT JUMPDEST POP PUSH2 0x134 PUSH1 0x4 DUP1 CALLDATASIZE SUB DUP2 ADD SWAP1 PUSH2 0x12F SWAP2 SWAP1 PUSH2 0x1EB3 JUMP JUMPDEST PUSH2 0x358 JUMP JUMPDEST STOP JUMPDEST CALLVALUE DUP1 ISZERO PUSH2 0x141 JUMPI PUSH0 DUP1 REVERT JUMPDEST POP PUSH2 0x14A PUSH2 0x722 JUMP JUMPDEST PUSH1 0x40 MLOAD PUSH2 0x157 SWAP2 SWAP1 PUSH2 0x1EED JUMP JUMPDEST PUSH1 0x40 MLOAD DUP1 SWAP2 SUB SWAP1 RETURN JUMPDEST CALLVALUE DUP1 ISZERO PUSH2 0x16B JUMPI PUSH0 DUP1 REVERT JUMPDEST POP PUSH2 0x174 PUSH2 0x7D6 JUMP JUMPDEST PUSH1 0x40 MLOAD PUSH2 0x181 SWAP2 SWAP1 PUSH2 0x207D JUMP JUMPDEST PUSH1 0x40 MLOAD DUP1 SWAP2 SUB SWAP1 RETURN JUMPDEST PUSH2 0x1A4 PUSH1 0x4 DUP1 CALLDATASIZE SUB DUP2 ADD SWAP1 PUSH2 0x19F SWAP2 SWAP1 PUSH2 0x20BA JUMP JUMPDEST PUSH2 0x9F3 JUMP JUMPDEST STOP JUMPDEST PUSH2 0x1AE PUSH2 0xE06 JUMP JUMPDEST STOP JUMPDEST PUSH2 0x1B8 PUSH2 0xE4A JUMP JUMPDEST STOP JUMPDEST CALLVALUE DUP1 ISZERO PUSH2 0x1C5 JUMPI PUSH0 DUP1 REVERT JUMPDEST POP PUSH2 0x1E0 PUSH1 0x4 DUP1 CALLDATASIZE SUB DUP2 ADD SWAP1 PUSH2 0x1DB SWAP2 SWAP1 PUSH2 0x1EB3 JUMP JUMPDEST PUSH2 0x108A JUMP JUMPDEST PUSH1 0x40 MLOAD PUSH2 0x1ED SWAP2 SWAP1 PUSH2 0x1DFD JUMP JUMPDEST PUSH1 0x40 MLOAD DUP1 SWAP2 SUB SWAP1 RETURN JUMPDEST CALLVALUE DUP1 ISZERO PUSH2 0x201 JUMPI PUSH0 DUP1 REVERT JUMPDEST POP PUSH2 0x21C PUSH1 0x4 DUP1 CALLDATASIZE SUB DUP2 ADD SWAP1 PUSH2 0x217 SWAP2 SWAP1 PUSH2 0x1EB3 JUMP JUMPDEST PUSH2 0x1357 JUMP JUMPDEST STOP JUMPDEST CALLVALUE DUP1 ISZERO PUSH2 0x229 JUMPI PUSH0 DUP1 REVERT JUMPDEST POP PUSH2 0x244 PUSH1 0x4 DUP1 CALLDATASIZE SUB DUP2 ADD SWAP1 PUSH2 0x23F SWAP2 SWAP1 PUSH2 0x2246 JUMP JUMPDEST PUSH2 0x1A2F JUMP JUMPDEST PUSH1 0x40 MLOAD PUSH2 0x251 SWAP2 SWAP1 PUSH2 0x1DFD JUMP JUMPDEST PUSH1 0x40 MLOAD DUP1 SWAP2 SUB SWAP1 RETURN JUMPDEST CALLVALUE DUP1 ISZERO PUSH2 0x265 JUMPI PUSH0 DUP1 REVERT JUMPDEST POP PUSH2 0x280 PUSH1 0x4 DUP1 CALLDATASIZE SUB DUP2 ADD SWAP1 PUSH2 0x27B SWAP2 SWAP1 PUSH2 0x228D JUMP JUMPDEST PUSH2 0x1A5C JUMP JUMPDEST PUSH1 0x40 MLOAD PUSH2 0x28D SWAP2 SWAP1 PUSH2 0x1DFD JUMP JUMPDEST PUSH1 0x40 MLOAD DUP1 SWAP2 SUB SWAP1 RETURN JUMPDEST PUSH1 0x7 PUSH1 0x20 MSTORE DUP1 PUSH0 MSTORE PUSH1 0x40 PUSH0 KECCAK256 PUSH0 SWAP2 POP SWAP1 POP SLOAD DUP2 JUMP JUMPDEST PUSH0 DUP1 PUSH1 0x1 DUP2 GT ISZERO PUSH2 0x2BF JUMPI PUSH2 0x2BE PUSH2 0x1F15 JUMP JUMPDEST JUMPDEST DUP4 PUSH1 0x1 DUP2 GT ISZERO PUSH2 0x2D2 JUMPI PUSH2 0x2D1 PUSH2 0x1F15 JUMP JUMPDEST JUMPDEST EQ PUSH2 0x304 JUMPI PUSH2 0x2E0 DUP5 PUSH2 0x1AA8 JUMP JUMPDEST PUSH1 0x40 MLOAD PUSH1 0x20 ADD PUSH2 0x2F0 SWAP2 SWAP1 PUSH2 0x235D JUMP JUMPDEST PUSH1 0x40 MLOAD PUSH1 0x20 DUP2 DUP4 SUB SUB DUP2 MSTORE SWAP1 PUSH1 0x40 MSTORE PUSH2 0x32D JUMP JUMPDEST PUSH2 0x30D DUP5 PUSH2 0x1AA8 JUMP JUMPDEST PUSH1 0x40 MLOAD PUSH1 0x20 ADD PUSH2 0x31D SWAP2 SWAP1 PUSH2 0x23A8 JUMP JUMPDEST PUSH1 0x40 MLOAD PUSH1 0x20 DUP2 DUP4 SUB SUB DUP2 MSTORE SWAP1 PUSH1 0x40 MSTORE JUMPDEST SWAP1 POP DUP2 PUSH1 0x5 DUP3 PUSH1 0x40 MLOAD PUSH2 0x340 SWAP2 SWAP1 PUSH2 0x23CD JUMP JUMPDEST SWAP1 DUP2 MSTORE PUSH1 0x20 ADD PUSH1 0x40 MLOAD DUP1 SWAP2 SUB SWAP1 KECCAK256 DUP2 SWAP1 SSTORE POP POP POP POP POP JUMP JUMPDEST PUSH0 PUSH1 0x6 PUSH0 CALLER PUSH20 0xFFFFFFFFFFFFFFFFFFFFFFFFFFFFFFFFFFFFFFFF AND PUSH20 0xFFFFFFFFFFFFFFFFFFFFFFFFFFFFFFFFFFFFFFFF AND DUP2 MSTORE PUSH1 0x20 ADD SWAP1 DUP2 MSTORE PUSH1 0x20 ADD PUSH0 KECCAK256 PUSH1 0x4 ADD SLOAD GT DUP1 ISZERO PUSH2 0x3E6 JUMPI POP TIMESTAMP PUSH1 0x6 PUSH0 CALLER PUSH20 0xFFFFFFFFFFFFFFFFFFFFFFFFFFFFFFFFFFFFFFFF AND PUSH20 0xFFFFFFFFFFFFFFFFFFFFFFFFFFFFFFFFFFFFFFFF AND DUP2 MSTORE PUSH1 0x20 ADD SWAP1 DUP2 MSTORE PUSH1 0x20 ADD PUSH0 KECCAK256 PUSH1 0x4 ADD SLOAD GT JUMPDEST PUSH2 0x425 JUMPI PUSH1 0x40 MLOAD PUSH32 0x8C379A000000000000000000000000000000000000000000000000000000000 DUP2 MSTORE PUSH1 0x4 ADD PUSH2 0x41C SWAP1 PUSH2 0x243D JUMP JUMPDEST PUSH1 0x40 MLOAD DUP1 SWAP2 SUB SWAP1 REVERT JUMPDEST DUP1 DUP1 PUSH1 0x7 PUSH0 CALLER PUSH20 0xFFFFFFFFFFFFFFFFFFFFFFFFFFFFFFFFFFFFFFFF AND PUSH20 0xFFFFFFFFFFFFFFFFFFFFFFFFFFFFFFFFFFFFFFFF AND DUP2 MSTORE PUSH1 0x20 ADD SWAP1 DUP2 MSTORE PUSH1 0x20 ADD PUSH0 KECCAK256 SLOAD EQ PUSH2 0x4A5 JUMPI PUSH1 0x40 MLOAD PUSH32 0x8C379A000000000000000000000000000000000000000000000000000000000 DUP2 MSTORE PUSH1 0x4 ADD PUSH2 0x49C SWAP1 PUSH2 0x24CB JUMP JUMPDEST PUSH1 0x40 MLOAD DUP1 SWAP2 SUB SWAP1 REVERT JUMPDEST DUP2 PUSH0 DUP1 PUSH1 0x1 DUP2 GT ISZERO PUSH2 0x4BA JUMPI PUSH2 0x4B9 PUSH2 0x1F15 JUMP JUMPDEST JUMPDEST PUSH1 0x6 PUSH0 CALLER PUSH20 0xFFFFFFFFFFFFFFFFFFFFFFFFFFFFFFFFFFFFFFFF AND PUSH20 0xFFFFFFFFFFFFFFFFFFFFFFFFFFFFFFFFFFFFFFFF AND DUP2 MSTORE PUSH1 0x20 ADD SWAP1 DUP2 MSTORE PUSH1 0x20 ADD PUSH0 KECCAK256 PUSH0 ADD PUSH1 0x14 SWAP1 SLOAD SWAP1 PUSH2 0x100 EXP SWAP1 DIV PUSH1 0xFF AND PUSH1 0x1 DUP2 GT ISZERO PUSH2 0x519 JUMPI PUSH2 0x518 PUSH2 0x1F15 JUMP JUMPDEST JUMPDEST EQ PUSH2 0x54B JUMPI PUSH2 0x527 DUP3 PUSH2 0x1AA8 JUMP JUMPDEST PUSH1 0x40 MLOAD PUSH1 0x20 ADD PUSH2 0x537 SWAP2 SWAP1 PUSH2 0x235D JUMP JUMPDEST PUSH1 0x40 MLOAD PUSH1 0x20 DUP2 DUP4 SUB SUB DUP2 MSTORE SWAP1 PUSH1 0x40 MSTORE PUSH2 0x574 JUMP JUMPDEST PUSH2 0x554 DUP3 PUSH2 0x1AA8 JUMP JUMPDEST PUSH1 0x40 MLOAD PUSH1 0x20 ADD PUSH2 0x564 SWAP2 SWAP1 PUSH2 0x23A8 JUMP JUMPDEST PUSH1 0x40 MLOAD PUSH1 0x20 DUP2 DUP4 SUB SUB DUP2 MSTORE SWAP1 PUSH1 0x40 MSTORE JUMPDEST SWAP1 POP PUSH0 PUSH1 0x5 DUP3 PUSH1 0x40 MLOAD PUSH2 0x587 SWAP2 SWAP1 PUSH2 0x23CD JUMP JUMPDEST SWAP1 DUP2 MSTORE PUSH1 0x20 ADD PUSH1 0x40 MLOAD DUP1 SWAP2 SUB SWAP1 KECCAK256 SLOAD SUB PUSH2 0x5D6 JUMPI PUSH1 0x40 MLOAD PUSH32 0x8C379A000000000000000000000000000000000000000000000000000000000 DUP2 MSTORE PUSH1 0x4 ADD PUSH2 0x5CD SWAP1 PUSH2 0x2559 JUMP JUMPDEST PUSH1 0x40 MLOAD DUP1 SWAP2 SUB SWAP1 REVERT JUMPDEST PUSH0 PUSH2 0x5E0 DUP6 PUSH2 0x108A JUMP JUMPDEST SWAP1 POP CALLER PUSH20 0xFFFFFFFFFFFFFFFFFFFFFFFFFFFFFFFFFFFFFFFF AND PUSH2 0x8FC DUP3 SWAP1 DUP2 ISZERO MUL SWAP1 PUSH1 0x40 MLOAD PUSH0 PUSH1 0x40 MLOAD DUP1 DUP4 SUB DUP2 DUP6 DUP9 DUP9 CALL SWAP4 POP POP POP POP ISZERO DUP1 ISZERO PUSH2 0x625 JUMPI RETURNDATASIZE PUSH0 DUP1 RETURNDATACOPY RETURNDATASIZE PUSH0 REVERT JUMPDEST POP PUSH2 0x67D PUSH4 0x1E13380 PUSH1 0x6 PUSH0 CALLER PUSH20 0xFFFFFFFFFFFFFFFFFFFFFFFFFFFFFFFFFFFFFFFF AND PUSH20 0xFFFFFFFFFFFFFFFFFFFFFFFFFFFFFFFFFFFFFFFF AND DUP2 MSTORE PUSH1 0x20 ADD SWAP1 DUP2 MSTORE PUSH1 0x20 ADD PUSH0 KECCAK256 PUSH1 0x5 ADD SLOAD PUSH2 0x1B72 SWAP1 SWAP2 SWAP1 PUSH4 0xFFFFFFFF AND JUMP JUMPDEST POP PUSH0 PUSH1 0x6 PUSH0 CALLER PUSH20 0xFFFFFFFFFFFFFFFFFFFFFFFFFFFFFFFFFFFFFFFF AND PUSH20 0xFFFFFFFFFFFFFFFFFFFFFFFFFFFFFFFFFFFFFFFF AND DUP2 MSTORE PUSH1 0x20 ADD SWAP1 DUP2 MSTORE PUSH1 0x20 ADD PUSH0 KECCAK256 PUSH1 0x4 ADD SLOAD GT ISZERO PUSH2 0x71B JUMPI PUSH1 0x1 PUSH1 0x7 PUSH0 CALLER PUSH20 0xFFFFFFFFFFFFFFFFFFFFFFFFFFFFFFFFFFFFFFFF AND PUSH20 0xFFFFFFFFFFFFFFFFFFFFFFFFFFFFFFFFFFFFFFFF AND DUP2 MSTORE PUSH1 0x20 ADD SWAP1 DUP2 MSTORE PUSH1 0x20 ADD PUSH0 KECCAK256 PUSH0 DUP3 DUP3 SLOAD PUSH2 0x713 SWAP2 SWAP1 PUSH2 0x25A4 JUMP JUMPDEST SWAP3 POP POP DUP2 SWAP1 SSTORE POP JUMPDEST POP POP POP POP POP JUMP JUMPDEST PUSH0 DUP1 PUSH0 SWAP1 SLOAD SWAP1 PUSH2 0x100 EXP SWAP1 DIV PUSH20 0xFFFFFFFFFFFFFFFFFFFFFFFFFFFFFFFFFFFFFFFF AND PUSH20 0xFFFFFFFFFFFFFFFFFFFFFFFFFFFFFFFFFFFFFFFF AND CALLER PUSH20 0xFFFFFFFFFFFFFFFFFFFFFFFFFFFFFFFFFFFFFFFF AND EQ PUSH2 0x7B1 JUMPI PUSH1 0x40 MLOAD PUSH32 0x8C379A000000000000000000000000000000000000000000000000000000000 DUP2 MSTORE PUSH1 0x4 ADD PUSH2 0x7A8 SWAP1 PUSH2 0x2647 JUMP JUMPDEST PUSH1 0x40 MLOAD DUP1 SWAP2 SUB SWAP1 REVERT JUMPDEST PUSH0 DUP1 SLOAD SWAP1 PUSH2 0x100 EXP SWAP1 DIV PUSH20 0xFFFFFFFFFFFFFFFFFFFFFFFFFFFFFFFFFFFFFFFF AND SWAP1 POP SWAP1 JUMP JUMPDEST PUSH2 0x7DE PUSH2 0x1CD8 JUMP JUMPDEST PUSH0 PUSH1 0x6 PUSH0 CALLER PUSH20 0xFFFFFFFFFFFFFFFFFFFFFFFFFFFFFFFFFFFFFFFF AND PUSH20 0xFFFFFFFFFFFFFFFFFFFFFFFFFFFFFFFFFFFFFFFF AND DUP2 MSTORE PUSH1 0x20 ADD SWAP1 DUP2 MSTORE PUSH1 0x20 ADD PUSH0 KECCAK256 PUSH1 0x4 ADD SLOAD GT DUP1 ISZERO PUSH2 0x86C JUMPI POP TIMESTAMP PUSH1 0x6 PUSH0 CALLER PUSH20 0xFFFFFFFFFFFFFFFFFFFFFFFFFFFFFFFFFFFFFFFF AND PUSH20 0xFFFFFFFFFFFFFFFFFFFFFFFFFFFFFFFFFFFFFFFF AND DUP2 MSTORE PUSH1 0x20 ADD SWAP1 DUP2 MSTORE PUSH1 0x20 ADD PUSH0 KECCAK256 PUSH1 0x4 ADD SLOAD GT JUMPDEST PUSH2 0x8AB JUMPI PUSH1 0x40 MLOAD PUSH32 0x8C379A000000000000000000000000000000000000000000000000000000000 DUP2 MSTORE PUSH1 0x4 ADD PUSH2 0x8A2 SWAP1 PUSH2 0x243D JUMP JUMPDEST PUSH1 0x40 MLOAD DUP1 SWAP2 SUB SWAP1 REVERT JUMPDEST PUSH1 0x6 PUSH0 CALLER PUSH20 0xFFFFFFFFFFFFFFFFFFFFFFFFFFFFFFFFFFFFFFFF AND PUSH20 0xFFFFFFFFFFFFFFFFFFFFFFFFFFFFFFFFFFFFFFFF AND DUP2 MSTORE PUSH1 0x20 ADD SWAP1 DUP2 MSTORE PUSH1 0x20 ADD PUSH0 KECCAK256 PUSH1 0x40 MLOAD DUP1 PUSH2 0x100 ADD PUSH1 0x40 MSTORE SWAP1 DUP2 PUSH0 DUP3 ADD PUSH0 SWAP1 SLOAD SWAP1 PUSH2 0x100 EXP SWAP1 DIV PUSH20 0xFFFFFFFFFFFFFFFFFFFFFFFFFFFFFFFFFFFFFFFF AND PUSH20 0xFFFFFFFFFFFFFFFFFFFFFFFFFFFFFFFFFFFFFFFF AND PUSH20 0xFFFFFFFFFFFFFFFFFFFFFFFFFFFFFFFFFFFFFFFF AND DUP2 MSTORE PUSH1 0x20 ADD PUSH0 DUP3 ADD PUSH1 0x14 SWAP1 SLOAD SWAP1 PUSH2 0x100 EXP SWAP1 DIV PUSH1 0xFF AND PUSH1 0x1 DUP2 GT ISZERO PUSH2 0x96C JUMPI PUSH2 0x96B PUSH2 0x1F15 JUMP JUMPDEST JUMPDEST PUSH1 0x1 DUP2 GT ISZERO PUSH2 0x97E JUMPI PUSH2 0x97D PUSH2 0x1F15 JUMP JUMPDEST JUMPDEST DUP2 MSTORE PUSH1 0x20 ADD PUSH0 DUP3 ADD PUSH1 0x15 SWAP1 SLOAD SWAP1 PUSH2 0x100 EXP SWAP1 DIV PUSH1 0xFF AND PUSH1 0x2 DUP2 GT ISZERO PUSH2 0x9A6 JUMPI PUSH2 0x9A5 PUSH2 0x1F15 JUMP JUMPDEST JUMPDEST PUSH1 0x2 DUP2 GT ISZERO PUSH2 0x9B8 JUMPI PUSH2 0x9B7 PUSH2 0x1F15 JUMP JUMPDEST JUMPDEST DUP2 MSTORE PUSH1 0x20 ADD PUSH1 0x1 DUP3 ADD SLOAD DUP2 MSTORE PUSH1 0x20 ADD PUSH1 0x2 DUP3 ADD SLOAD DUP2 MSTORE PUSH1 0x20 ADD PUSH1 0x3 DUP3 ADD SLOAD DUP2 MSTORE PUSH1 0x20 ADD PUSH1 0x4 DUP3 ADD SLOAD DUP2 MSTORE PUSH1 0x20 ADD PUSH1 0x5 DUP3 ADD SLOAD DUP2 MSTORE POP POP SWAP1 POP SWAP1 JUMP JUMPDEST PUSH0 PUSH1 0x6 PUSH0 CALLER PUSH20 0xFFFFFFFFFFFFFFFFFFFFFFFFFFFFFFFFFFFFFFFF AND PUSH20 0xFFFFFFFFFFFFFFFFFFFFFFFFFFFFFFFFFFFFFFFF AND DUP2 MSTORE PUSH1 0x20 ADD SWAP1 DUP2 MSTORE PUSH1 0x20 ADD PUSH0 KECCAK256 PUSH1 0x4 ADD SLOAD EQ DUP1 PUSH2 0xA80 JUMPI POP TIMESTAMP PUSH1 0x6 PUSH0 CALLER PUSH20 0xFFFFFFFFFFFFFFFFFFFFFFFFFFFFFFFFFFFFFFFF AND PUSH20 0xFFFFFFFFFFFFFFFFFFFFFFFFFFFFFFFFFFFFFFFF AND DUP2 MSTORE PUSH1 0x20 ADD SWAP1 DUP2 MSTORE PUSH1 0x20 ADD PUSH0 KECCAK256 PUSH1 0x4 ADD SLOAD LT JUMPDEST PUSH2 0xABF JUMPI PUSH1 0x40 MLOAD PUSH32 0x8C379A000000000000000000000000000000000000000000000000000000000 DUP2 MSTORE PUSH1 0x4 ADD PUSH2 0xAB6 SWAP1 PUSH2 0x26AF JUMP JUMPDEST PUSH1 0x40 MLOAD DUP1 SWAP2 SUB SWAP1 REVERT JUMPDEST DUP3 DUP3 PUSH0 DUP2 PUSH1 0x4 PUSH0 DUP6 PUSH1 0x2 DUP2 GT ISZERO PUSH2 0xAD9 JUMPI PUSH2 0xAD8 PUSH2 0x1F15 JUMP JUMPDEST JUMPDEST PUSH1 0x2 DUP2 GT ISZERO PUSH2 0xAEB JUMPI PUSH2 0xAEA PUSH2 0x1F15 JUMP JUMPDEST JUMPDEST DUP2 MSTORE PUSH1 0x20 ADD SWAP1 DUP2 MSTORE PUSH1 0x20 ADD PUSH0 KECCAK256 PUSH0 ADD SLOAD PUSH2 0xB05 SWAP2 SWAP1 PUSH2 0x26CD JUMP JUMPDEST SWAP1 POP DUP1 CALLVALUE EQ PUSH2 0xB49 JUMPI PUSH1 0x40 MLOAD PUSH32 0x8C379A000000000000000000000000000000000000000000000000000000000 DUP2 MSTORE PUSH1 0x4 ADD PUSH2 0xB40 SWAP1 PUSH2 0x277E JUMP JUMPDEST PUSH1 0x40 MLOAD DUP1 SWAP2 SUB SWAP1 REVERT JUMPDEST PUSH1 0x40 MLOAD DUP1 PUSH2 0x100 ADD PUSH1 0x40 MSTORE DUP1 CALLER PUSH20 0xFFFFFFFFFFFFFFFFFFFFFFFFFFFFFFFFFFFFFFFF AND DUP2 MSTORE PUSH1 0x20 ADD DUP6 PUSH1 0x1 DUP2 GT ISZERO PUSH2 0xB84 JUMPI PUSH2 0xB83 PUSH2 0x1F15 JUMP JUMPDEST JUMPDEST DUP2 MSTORE PUSH1 0x20 ADD DUP8 PUSH1 0x2 DUP2 GT ISZERO PUSH2 0xB9C JUMPI PUSH2 0xB9B PUSH2 0x1F15 JUMP JUMPDEST JUMPDEST DUP2 MSTORE PUSH1 0x20 ADD DUP7 DUP2 MSTORE PUSH1 0x20 ADD PUSH1 0x4 PUSH0 DUP10 PUSH1 0x2 DUP2 GT ISZERO PUSH2 0xBBD JUMPI PUSH2 0xBBC PUSH2 0x1F15 JUMP JUMPDEST JUMPDEST PUSH1 0x2 DUP2 GT ISZERO PUSH2 0xBCF JUMPI PUSH2 0xBCE PUSH2 0x1F15 JUMP JUMPDEST JUMPDEST DUP2 MSTORE PUSH1 0x20 ADD SWAP1 DUP2 MSTORE PUSH1 0x20 ADD PUSH0 KECCAK256 PUSH0 ADD SLOAD DUP8 PUSH2 0xBEA SWAP2 SWAP1 PUSH2 0x26CD JUMP JUMPDEST DUP2 MSTORE PUSH1 0x20 ADD TIMESTAMP DUP2 MSTORE PUSH1 0x20 ADD PUSH2 0xC0C PUSH4 0x1E13380 TIMESTAMP PUSH2 0x1B72 SWAP1 SWAP2 SWAP1 PUSH4 0xFFFFFFFF AND JUMP JUMPDEST DUP2 MSTORE PUSH1 0x20 ADD PUSH2 0xC28 PUSH4 0x1E13380 TIMESTAMP PUSH2 0x1B72 SWAP1 SWAP2 SWAP1 PUSH4 0xFFFFFFFF AND JUMP JUMPDEST DUP2 MSTORE POP PUSH1 0x6 PUSH0 CALLER PUSH20 0xFFFFFFFFFFFFFFFFFFFFFFFFFFFFFFFFFFFFFFFF AND PUSH20 0xFFFFFFFFFFFFFFFFFFFFFFFFFFFFFFFFFFFFFFFF AND DUP2 MSTORE PUSH1 0x20 ADD SWAP1 DUP2 MSTORE PUSH1 0x20 ADD PUSH0 KECCAK256 PUSH0 DUP3 ADD MLOAD DUP2 PUSH0 ADD PUSH0 PUSH2 0x100 EXP DUP2 SLOAD DUP2 PUSH20 0xFFFFFFFFFFFFFFFFFFFFFFFFFFFFFFFFFFFFFFFF MUL NOT AND SWAP1 DUP4 PUSH20 0xFFFFFFFFFFFFFFFFFFFFFFFFFFFFFFFFFFFFFFFF AND MUL OR SWAP1 SSTORE POP PUSH1 0x20 DUP3 ADD MLOAD DUP2 PUSH0 ADD PUSH1 0x14 PUSH2 0x100 EXP DUP2 SLOAD DUP2 PUSH1 0xFF MUL NOT AND SWAP1 DUP4 PUSH1 0x1 DUP2 GT ISZERO PUSH2 0xCD6 JUMPI PUSH2 0xCD5 PUSH2 0x1F15 JUMP JUMPDEST JUMPDEST MUL OR SWAP1 SSTORE POP PUSH1 0x40 DUP3 ADD MLOAD DUP2 PUSH0 ADD PUSH1 0x15 PUSH2 0x100 EXP DUP2 SLOAD DUP2 PUSH1 0xFF MUL NOT AND SWAP1 DUP4 PUSH1 0x2 DUP2 GT ISZERO PUSH2 0xD05 JUMPI PUSH2 0xD04 PUSH2 0x1F15 JUMP JUMPDEST JUMPDEST MUL OR SWAP1 SSTORE POP PUSH1 0x60 DUP3 ADD MLOAD DUP2 PUSH1 0x1 ADD SSTORE PUSH1 0x80 DUP3 ADD MLOAD DUP2 PUSH1 0x2 ADD SSTORE PUSH1 0xA0 DUP3 ADD MLOAD DUP2 PUSH1 0x3 ADD SSTORE PUSH1 0xC0 DUP3 ADD MLOAD DUP2 PUSH1 0x4 ADD SSTORE PUSH1 0xE0 DUP3 ADD MLOAD DUP2 PUSH1 0x5 ADD SSTORE SWAP1 POP POP PUSH2 0x7B2 PUSH4 0x1E13380 TIMESTAMP PUSH2 0xD52 SWAP2 SWAP1 PUSH2 0x27C9 JUMP JUMPDEST PUSH2 0xD5C SWAP2 SWAP1 PUSH2 0x25A4 JUMP JUMPDEST PUSH1 0x7 PUSH0 CALLER PUSH20 0xFFFFFFFFFFFFFFFFFFFFFFFFFFFFFFFFFFFFFFFF AND PUSH20 0xFFFFFFFFFFFFFFFFFFFFFFFFFFFFFFFFFFFFFFFF AND DUP2 MSTORE PUSH1 0x20 ADD SWAP1 DUP2 MSTORE PUSH1 0x20 ADD PUSH0 KECCAK256 DUP2 SWAP1 SSTORE POP PUSH1 0x9 PUSH0 CALLER PUSH20 0xFFFFFFFFFFFFFFFFFFFFFFFFFFFFFFFFFFFFFFFF AND PUSH20 0xFFFFFFFFFFFFFFFFFFFFFFFFFFFFFFFFFFFFFFFF AND DUP2 MSTORE PUSH1 0x20 ADD SWAP1 DUP2 MSTORE PUSH1 0x20 ADD PUSH0 KECCAK256 TIMESTAMP SWAP1 DUP1 PUSH1 0x1 DUP2 SLOAD ADD DUP1 DUP3 SSTORE DUP1 SWAP2 POP POP PUSH1 0x1 SWAP1 SUB SWAP1 PUSH0 MSTORE PUSH1 0x20 PUSH0 KECCAK256 ADD PUSH0 SWAP1 SWAP2 SWAP1 SWAP2 SWAP1 SWAP2 POP SSTORE POP POP POP POP POP POP JUMP JUMPDEST PUSH0 CALLVALUE GT PUSH2 0xE48 JUMPI PUSH1 0x40 MLOAD PUSH32 0x8C379A000000000000000000000000000000000000000000000000000000000 DUP2 MSTORE PUSH1 0x4 ADD PUSH2 0xE3F SWAP1 PUSH2 0x2843 JUMP JUMPDEST PUSH1 0x40 MLOAD DUP1 SWAP2 SUB SWAP1 REVERT JUMPDEST JUMP JUMPDEST PUSH0 PUSH1 0x6 PUSH0 CALLER PUSH20 0xFFFFFFFFFFFFFFFFFFFFFFFFFFFFFFFFFFFFFFFF AND PUSH20 0xFFFFFFFFFFFFFFFFFFFFFFFFFFFFFFFFFFFFFFFF AND DUP2 MSTORE PUSH1 0x20 ADD SWAP1 DUP2 MSTORE PUSH1 0x20 ADD PUSH0 KECCAK256 PUSH1 0x4 ADD SLOAD GT DUP1 ISZERO PUSH2 0xED8 JUMPI POP TIMESTAMP PUSH1 0x6 PUSH0 CALLER PUSH20 0xFFFFFFFFFFFFFFFFFFFFFFFFFFFFFFFFFFFFFFFF AND PUSH20 0xFFFFFFFFFFFFFFFFFFFFFFFFFFFFFFFFFFFFFFFF AND DUP2 MSTORE PUSH1 0x20 ADD SWAP1 DUP2 MSTORE PUSH1 0x20 ADD PUSH0 KECCAK256 PUSH1 0x4 ADD SLOAD GT JUMPDEST PUSH2 0xF17 JUMPI PUSH1 0x40 MLOAD PUSH32 0x8C379A000000000000000000000000000000000000000000000000000000000 DUP2 MSTORE PUSH1 0x4 ADD PUSH2 0xF0E SWAP1 PUSH2 0x243D JUMP JUMPDEST PUSH1 0x40 MLOAD DUP1 SWAP2 SUB SWAP1 REVERT JUMPDEST PUSH1 0x6 PUSH0 CALLER PUSH20 0xFFFFFFFFFFFFFFFFFFFFFFFFFFFFFFFFFFFFFFFF AND PUSH20 0xFFFFFFFFFFFFFFFFFFFFFFFFFFFFFFFFFFFFFFFF AND DUP2 MSTORE PUSH1 0x20 ADD SWAP1 DUP2 MSTORE PUSH1 0x20 ADD PUSH0 KECCAK256 PUSH0 ADD PUSH1 0x15 SWAP1 SLOAD SWAP1 PUSH2 0x100 EXP SWAP1 DIV PUSH1 0xFF AND PUSH1 0x6 PUSH0 CALLER PUSH20 0xFFFFFFFFFFFFFFFFFFFFFFFFFFFFFFFFFFFFFFFF AND PUSH20 0xFFFFFFFFFFFFFFFFFFFFFFFFFFFFFFFFFFFFFFFF AND DUP2 MSTORE PUSH1 0x20 ADD SWAP1 DUP2 MSTORE PUSH1 0x20 ADD PUSH0 KECCAK256 PUSH1 0x1 ADD SLOAD PUSH0 DUP2 PUSH1 0x4 PUSH0 DUP6 PUSH1 0x2 DUP2 GT ISZERO PUSH2 0xFBD JUMPI PUSH2 0xFBC PUSH2 0x1F15 JUMP JUMPDEST JUMPDEST PUSH1 0x2 DUP2 GT ISZERO PUSH2 0xFCF JUMPI PUSH2 0xFCE PUSH2 0x1F15 JUMP JUMPDEST JUMPDEST DUP2 MSTORE PUSH1 0x20 ADD SWAP1 DUP2 MSTORE PUSH1 0x20 ADD PUSH0 KECCAK256 PUSH0 ADD SLOAD PUSH2 0xFE9 SWAP2 SWAP1 PUSH2 0x26CD JUMP JUMPDEST SWAP1 POP DUP1 CALLVALUE EQ PUSH2 0x102D JUMPI PUSH1 0x40 MLOAD PUSH32 0x8C379A000000000000000000000000000000000000000000000000000000000 DUP2 MSTORE PUSH1 0x4 ADD PUSH2 0x1024 SWAP1 PUSH2 0x277E JUMP JUMPDEST PUSH1 0x40 MLOAD DUP1 SWAP2 SUB SWAP1 REVERT JUMPDEST PUSH2 0x1084 PUSH4 0x1E13380 PUSH1 0x6 PUSH0 CALLER PUSH20 0xFFFFFFFFFFFFFFFFFFFFFFFFFFFFFFFFFFFFFFFF AND PUSH20 0xFFFFFFFFFFFFFFFFFFFFFFFFFFFFFFFFFFFFFFFF AND DUP2 MSTORE PUSH1 0x20 ADD SWAP1 DUP2 MSTORE PUSH1 0x20 ADD PUSH0 KECCAK256 PUSH1 0x4 ADD SLOAD PUSH2 0x1B72 SWAP1 SWAP2 SWAP1 PUSH4 0xFFFFFFFF AND JUMP JUMPDEST POP POP POP POP JUMP JUMPDEST PUSH0 DUP1 PUSH1 0x6 PUSH0 CALLER PUSH20 0xFFFFFFFFFFFFFFFFFFFFFFFFFFFFFFFFFFFFFFFF AND PUSH20 0xFFFFFFFFFFFFFFFFFFFFFFFFFFFFFFFFFFFFFFFF AND DUP2 MSTORE PUSH1 0x20 ADD SWAP1 DUP2 MSTORE PUSH1 0x20 ADD PUSH0 KECCAK256 PUSH1 0x40 MLOAD DUP1 PUSH2 0x100 ADD PUSH1 0x40 MSTORE SWAP1 DUP2 PUSH0 DUP3 ADD PUSH0 SWAP1 SLOAD SWAP1 PUSH2 0x100 EXP SWAP1 DIV PUSH20 0xFFFFFFFFFFFFFFFFFFFFFFFFFFFFFFFFFFFFFFFF AND PUSH20 0xFFFFFFFFFFFFFFFFFFFFFFFFFFFFFFFFFFFFFFFF AND PUSH20 0xFFFFFFFFFFFFFFFFFFFFFFFFFFFFFFFFFFFFFFFF AND DUP2 MSTORE PUSH1 0x20 ADD PUSH0 DUP3 ADD PUSH1 0x14 SWAP1 SLOAD SWAP1 PUSH2 0x100 EXP SWAP1 DIV PUSH1 0xFF AND PUSH1 0x1 DUP2 GT ISZERO PUSH2 0x114D JUMPI PUSH2 0x114C PUSH2 0x1F15 JUMP JUMPDEST JUMPDEST PUSH1 0x1 DUP2 GT ISZERO PUSH2 0x115F JUMPI PUSH2 0x115E PUSH2 0x1F15 JUMP JUMPDEST JUMPDEST DUP2 MSTORE PUSH1 0x20 ADD PUSH0 DUP3 ADD PUSH1 0x15 SWAP1 SLOAD SWAP1 PUSH2 0x100 EXP SWAP1 DIV PUSH1 0xFF AND PUSH1 0x2 DUP2 GT ISZERO PUSH2 0x1187 JUMPI PUSH2 0x1186 PUSH2 0x1F15 JUMP JUMPDEST JUMPDEST PUSH1 0x2 DUP2 GT ISZERO PUSH2 0x1199 JUMPI PUSH2 0x1198 PUSH2 0x1F15 JUMP JUMPDEST JUMPDEST DUP2 MSTORE PUSH1 0x20 ADD PUSH1 0x1 DUP3 ADD SLOAD DUP2 MSTORE PUSH1 0x20 ADD PUSH1 0x2 DUP3 ADD SLOAD DUP2 MSTORE PUSH1 0x20 ADD PUSH1 0x3 DUP3 ADD SLOAD DUP2 MSTORE PUSH1 0x20 ADD PUSH1 0x4 DUP3 ADD SLOAD DUP2 MSTORE PUSH1 0x20 ADD PUSH1 0x5 DUP3 ADD SLOAD DUP2 MSTORE POP POP SWAP1 POP PUSH0 DUP1 PUSH1 0x1 DUP2 GT ISZERO PUSH2 0x11E5 JUMPI PUSH2 0x11E4 PUSH2 0x1F15 JUMP JUMPDEST JUMPDEST DUP3 PUSH1 0x20 ADD MLOAD PUSH1 0x1 DUP2 GT ISZERO PUSH2 0x11FC JUMPI PUSH2 0x11FB PUSH2 0x1F15 JUMP JUMPDEST JUMPDEST EQ PUSH2 0x122E JUMPI PUSH2 0x120A DUP5 PUSH2 0x1AA8 JUMP JUMPDEST PUSH1 0x40 MLOAD PUSH1 0x20 ADD PUSH2 0x121A SWAP2 SWAP1 PUSH2 0x235D JUMP JUMPDEST PUSH1 0x40 MLOAD PUSH1 0x20 DUP2 DUP4 SUB SUB DUP2 MSTORE SWAP1 PUSH1 0x40 MSTORE PUSH2 0x1257 JUMP JUMPDEST PUSH2 0x1237 DUP5 PUSH2 0x1AA8 JUMP JUMPDEST PUSH1 0x40 MLOAD PUSH1 0x20 ADD PUSH2 0x1247 SWAP2 SWAP1 PUSH2 0x23A8 JUMP JUMPDEST PUSH1 0x40 MLOAD PUSH1 0x20 DUP2 DUP4 SUB SUB DUP2 MSTORE SWAP1 PUSH1 0x40 MSTORE JUMPDEST SWAP1 POP PUSH0 PUSH1 0x5 DUP3 PUSH1 0x40 MLOAD PUSH2 0x126A SWAP2 SWAP1 PUSH2 0x23CD JUMP JUMPDEST SWAP1 DUP2 MSTORE PUSH1 0x20 ADD PUSH1 0x40 MLOAD DUP1 SWAP2 SUB SWAP1 KECCAK256 SLOAD SWAP1 POP PUSH0 DUP2 PUSH1 0x4 PUSH0 DUP7 PUSH1 0x40 ADD MLOAD PUSH1 0x2 DUP2 GT ISZERO PUSH2 0x1297 JUMPI PUSH2 0x1296 PUSH2 0x1F15 JUMP JUMPDEST JUMPDEST PUSH1 0x2 DUP2 GT ISZERO PUSH2 0x12A9 JUMPI PUSH2 0x12A8 PUSH2 0x1F15 JUMP JUMPDEST JUMPDEST DUP2 MSTORE PUSH1 0x20 ADD SWAP1 DUP2 MSTORE PUSH1 0x20 ADD PUSH0 KECCAK256 PUSH1 0x1 ADD SLOAD PUSH2 0x12C4 SWAP2 SWAP1 PUSH2 0x2861 JUMP JUMPDEST SWAP1 POP PUSH0 PUSH1 0x1 SLOAD PUSH1 0x6 PUSH0 CALLER PUSH20 0xFFFFFFFFFFFFFFFFFFFFFFFFFFFFFFFFFFFFFFFF AND PUSH20 0xFFFFFFFFFFFFFFFFFFFFFFFFFFFFFFFFFFFFFFFF AND DUP2 MSTORE PUSH1 0x20 ADD SWAP1 DUP2 MSTORE PUSH1 0x20 ADD PUSH0 KECCAK256 PUSH1 0x1 ADD SLOAD PUSH1 0x3 SLOAD DUP5 PUSH1 0x2 SLOAD PUSH2 0x131C SWAP2 SWAP1 PUSH2 0x26CD JUMP JUMPDEST PUSH2 0x1326 SWAP2 SWAP1 PUSH2 0x26CD JUMP JUMPDEST PUSH2 0x1330 SWAP2 SWAP1 PUSH2 0x26CD JUMP JUMPDEST PUSH2 0x133A SWAP2 SWAP1 PUSH2 0x26CD JUMP JUMPDEST SWAP1 POP PUSH3 0x186A0 DUP2 PUSH2 0x134B SWAP2 SWAP1 PUSH2 0x27C9 JUMP JUMPDEST SWAP6 POP POP POP POP POP POP SWAP2 SWAP1 POP JUMP JUMPDEST PUSH0 PUSH1 0x6 PUSH0 CALLER PUSH20 0xFFFFFFFFFFFFFFFFFFFFFFFFFFFFFFFFFFFFFFFF AND PUSH20 0xFFFFFFFFFFFFFFFFFFFFFFFFFFFFFFFFFFFFFFFF AND DUP2 MSTORE PUSH1 0x20 ADD SWAP1 DUP2 MSTORE PUSH1 0x20 ADD PUSH0 KECCAK256 PUSH1 0x4 ADD SLOAD GT DUP1 ISZERO PUSH2 0x13E5 JUMPI POP TIMESTAMP PUSH1 0x6 PUSH0 CALLER PUSH20 0xFFFFFFFFFFFFFFFFFFFFFFFFFFFFFFFFFFFFFFFF AND PUSH20 0xFFFFFFFFFFFFFFFFFFFFFFFFFFFFFFFFFFFFFFFF AND DUP2 MSTORE PUSH1 0x20 ADD SWAP1 DUP2 MSTORE PUSH1 0x20 ADD PUSH0 KECCAK256 PUSH1 0x4 ADD SLOAD GT JUMPDEST PUSH2 0x1424 JUMPI PUSH1 0x40 MLOAD PUSH32 0x8C379A000000000000000000000000000000000000000000000000000000000 DUP2 MSTORE PUSH1 0x4 ADD PUSH2 0x141B SWAP1 PUSH2 0x243D JUMP JUMPDEST PUSH1 0x40 MLOAD DUP1 SWAP2 SUB SWAP1 REVERT JUMPDEST TIMESTAMP PUSH1 0x6 PUSH0 CALLER PUSH20 0xFFFFFFFFFFFFFFFFFFFFFFFFFFFFFFFFFFFFFFFF AND PUSH20 0xFFFFFFFFFFFFFFFFFFFFFFFFFFFFFFFFFFFFFFFF AND DUP2 MSTORE PUSH1 0x20 ADD SWAP1 DUP2 MSTORE PUSH1 0x20 ADD PUSH0 KECCAK256 PUSH1 0x5 ADD SLOAD LT PUSH2 0x14A6 JUMPI PUSH1 0x40 MLOAD PUSH32 0x8C379A000000000000000000000000000000000000000000000000000000000 DUP2 MSTORE PUSH1 0x4 ADD PUSH2 0x149D SWAP1 PUSH2 0x2904 JUMP JUMPDEST PUSH1 0x40 MLOAD DUP1 SWAP2 SUB SWAP1 REVERT JUMPDEST DUP1 DUP1 PUSH1 0x7 PUSH0 CALLER PUSH20 0xFFFFFFFFFFFFFFFFFFFFFFFFFFFFFFFFFFFFFFFF AND PUSH20 0xFFFFFFFFFFFFFFFFFFFFFFFFFFFFFFFFFFFFFFFF AND DUP2 MSTORE PUSH1 0x20 ADD SWAP1 DUP2 MSTORE PUSH1 0x20 ADD PUSH0 KECCAK256 SLOAD EQ PUSH2 0x1526 JUMPI PUSH1 0x40 MLOAD PUSH32 0x8C379A000000000000000000000000000000000000000000000000000000000 DUP2 MSTORE PUSH1 0x4 ADD PUSH2 0x151D SWAP1 PUSH2 0x24CB JUMP JUMPDEST PUSH1 0x40 MLOAD DUP1 SWAP2 SUB SWAP1 REVERT JUMPDEST DUP2 PUSH0 DUP1 PUSH1 0x1 DUP2 GT ISZERO PUSH2 0x153B JUMPI PUSH2 0x153A PUSH2 0x1F15 JUMP JUMPDEST JUMPDEST PUSH1 0x6 PUSH0 CALLER PUSH20 0xFFFFFFFFFFFFFFFFFFFFFFFFFFFFFFFFFFFFFFFF AND PUSH20 0xFFFFFFFFFFFFFFFFFFFFFFFFFFFFFFFFFFFFFFFF AND DUP2 MSTORE PUSH1 0x20 ADD SWAP1 DUP2 MSTORE PUSH1 0x20 ADD PUSH0 KECCAK256 PUSH0 ADD PUSH1 0x14 SWAP1 SLOAD SWAP1 PUSH2 0x100 EXP SWAP1 DIV PUSH1 0xFF AND PUSH1 0x1 DUP2 GT ISZERO PUSH2 0x159A JUMPI PUSH2 0x1599 PUSH2 0x1F15 JUMP JUMPDEST JUMPDEST EQ PUSH2 0x15CC JUMPI PUSH2 0x15A8 DUP3 PUSH2 0x1AA8 JUMP JUMPDEST PUSH1 0x40 MLOAD PUSH1 0x20 ADD PUSH2 0x15B8 SWAP2 SWAP1 PUSH2 0x235D JUMP JUMPDEST PUSH1 0x40 MLOAD PUSH1 0x20 DUP2 DUP4 SUB SUB DUP2 MSTORE SWAP1 PUSH1 0x40 MSTORE PUSH2 0x15F5 JUMP JUMPDEST PUSH2 0x15D5 DUP3 PUSH2 0x1AA8 JUMP JUMPDEST PUSH1 0x40 MLOAD PUSH1 0x20 ADD PUSH2 0x15E5 SWAP2 SWAP1 PUSH2 0x23A8 JUMP JUMPDEST PUSH1 0x40 MLOAD PUSH1 0x20 DUP2 DUP4 SUB SUB DUP2 MSTORE SWAP1 PUSH1 0x40 MSTORE JUMPDEST SWAP1 POP PUSH0 PUSH1 0x5 DUP3 PUSH1 0x40 MLOAD PUSH2 0x1608 SWAP2 SWAP1 PUSH2 0x23CD JUMP JUMPDEST SWAP1 DUP2 MSTORE PUSH1 0x20 ADD PUSH1 0x40 MLOAD DUP1 SWAP2 SUB SWAP1 KECCAK256 SLOAD SUB PUSH2 0x1657 JUMPI PUSH1 0x40 MLOAD PUSH32 0x8C379A000000000000000000000000000000000000000000000000000000000 DUP2 MSTORE PUSH1 0x4 ADD PUSH2 0x164E SWAP1 PUSH2 0x2559 JUMP JUMPDEST PUSH1 0x40 MLOAD DUP1 SWAP2 SUB SWAP1 REVERT JUMPDEST PUSH0 PUSH1 0x6 PUSH0 CALLER PUSH20 0xFFFFFFFFFFFFFFFFFFFFFFFFFFFFFFFFFFFFFFFF AND PUSH20 0xFFFFFFFFFFFFFFFFFFFFFFFFFFFFFFFFFFFFFFFF AND DUP2 MSTORE PUSH1 0x20 ADD SWAP1 DUP2 MSTORE PUSH1 0x20 ADD PUSH0 KECCAK256 PUSH1 0x40 MLOAD DUP1 PUSH2 0x100 ADD PUSH1 0x40 MSTORE SWAP1 DUP2 PUSH0 DUP3 ADD PUSH0 SWAP1 SLOAD SWAP1 PUSH2 0x100 EXP SWAP1 DIV PUSH20 0xFFFFFFFFFFFFFFFFFFFFFFFFFFFFFFFFFFFFFFFF AND PUSH20 0xFFFFFFFFFFFFFFFFFFFFFFFFFFFFFFFFFFFFFFFF AND PUSH20 0xFFFFFFFFFFFFFFFFFFFFFFFFFFFFFFFFFFFFFFFF AND DUP2 MSTORE PUSH1 0x20 ADD PUSH0 DUP3 ADD PUSH1 0x14 SWAP1 SLOAD SWAP1 PUSH2 0x100 EXP SWAP1 DIV PUSH1 0xFF AND PUSH1 0x1 DUP2 GT ISZERO PUSH2 0x1719 JUMPI PUSH2 0x1718 PUSH2 0x1F15 JUMP JUMPDEST JUMPDEST PUSH1 0x1 DUP2 GT ISZERO PUSH2 0x172B JUMPI PUSH2 0x172A PUSH2 0x1F15 JUMP JUMPDEST JUMPDEST DUP2 MSTORE PUSH1 0x20 ADD PUSH0 DUP3 ADD PUSH1 0x15 SWAP1 SLOAD SWAP1 PUSH2 0x100 EXP SWAP1 DIV PUSH1 0xFF AND PUSH1 0x2 DUP2 GT ISZERO PUSH2 0x1753 JUMPI PUSH2 0x1752 PUSH2 0x1F15 JUMP JUMPDEST JUMPDEST PUSH1 0x2 DUP2 GT ISZERO PUSH2 0x1765 JUMPI PUSH2 0x1764 PUSH2 0x1F15 JUMP JUMPDEST JUMPDEST DUP2 MSTORE PUSH1 0x20 ADD PUSH1 0x1 DUP3 ADD SLOAD DUP2 MSTORE PUSH1 0x20 ADD PUSH1 0x2 DUP3 ADD SLOAD DUP2 MSTORE PUSH1 0x20 ADD PUSH1 0x3 DUP3 ADD SLOAD DUP2 MSTORE PUSH1 0x20 ADD PUSH1 0x4 DUP3 ADD SLOAD DUP2 MSTORE PUSH1 0x20 ADD PUSH1 0x5 DUP3 ADD SLOAD DUP2 MSTORE POP POP SWAP1 POP PUSH0 DUP1 PUSH1 0x1 DUP2 GT ISZERO PUSH2 0x17B1 JUMPI PUSH2 0x17B0 PUSH2 0x1F15 JUMP JUMPDEST JUMPDEST DUP3 PUSH1 0x20 ADD MLOAD PUSH1 0x1 DUP2 GT ISZERO PUSH2 0x17C8 JUMPI PUSH2 0x17C7 PUSH2 0x1F15 JUMP JUMPDEST JUMPDEST EQ PUSH2 0x17FA JUMPI PUSH2 0x17D6 DUP7 PUSH2 0x1AA8 JUMP JUMPDEST PUSH1 0x40 MLOAD PUSH1 0x20 ADD PUSH2 0x17E6 SWAP2 SWAP1 PUSH2 0x235D JUMP JUMPDEST PUSH1 0x40 MLOAD PUSH1 0x20 DUP2 DUP4 SUB SUB DUP2 MSTORE SWAP1 PUSH1 0x40 MSTORE PUSH2 0x1823 JUMP JUMPDEST PUSH2 0x1803 DUP7 PUSH2 0x1AA8 JUMP JUMPDEST PUSH1 0x40 MLOAD PUSH1 0x20 ADD PUSH2 0x1813 SWAP2 SWAP1 PUSH2 0x23A8 JUMP JUMPDEST PUSH1 0x40 MLOAD PUSH1 0x20 DUP2 DUP4 SUB SUB DUP2 MSTORE SWAP1 PUSH1 0x40 MSTORE JUMPDEST SWAP1 POP PUSH0 PUSH1 0x5 DUP3 PUSH1 0x40 MLOAD PUSH2 0x1836 SWAP2 SWAP1 PUSH2 0x23CD JUMP JUMPDEST SWAP1 DUP2 MSTORE PUSH1 0x20 ADD PUSH1 0x40 MLOAD DUP1 SWAP2 SUB SWAP1 KECCAK256 SLOAD SWAP1 POP PUSH0 DUP2 PUSH1 0x4 PUSH0 DUP7 PUSH1 0x40 ADD MLOAD PUSH1 0x2 DUP2 GT ISZERO PUSH2 0x1863 JUMPI PUSH2 0x1862 PUSH2 0x1F15 JUMP JUMPDEST JUMPDEST PUSH1 0x2 DUP2 GT ISZERO PUSH2 0x1875 JUMPI PUSH2 0x1874 PUSH2 0x1F15 JUMP JUMPDEST JUMPDEST DUP2 MSTORE PUSH1 0x20 ADD SWAP1 DUP2 MSTORE PUSH1 0x20 ADD PUSH0 KECCAK256 PUSH1 0x1 ADD SLOAD PUSH2 0x1890 SWAP2 SWAP1 PUSH2 0x2861 JUMP JUMPDEST SWAP1 POP PUSH0 DUP2 GT PUSH2 0x18D4 JUMPI PUSH1 0x40 MLOAD PUSH32 0x8C379A000000000000000000000000000000000000000000000000000000000 DUP2 MSTORE PUSH1 0x4 ADD PUSH2 0x18CB SWAP1 PUSH2 0x29B8 JUMP JUMPDEST PUSH1 0x40 MLOAD DUP1 SWAP2 SUB SWAP1 REVERT JUMPDEST PUSH0 PUSH1 0x1 SLOAD PUSH1 0x6 PUSH0 CALLER PUSH20 0xFFFFFFFFFFFFFFFFFFFFFFFFFFFFFFFFFFFFFFFF AND PUSH20 0xFFFFFFFFFFFFFFFFFFFFFFFFFFFFFFFFFFFFFFFF AND DUP2 MSTORE PUSH1 0x20 ADD SWAP1 DUP2 MSTORE PUSH1 0x20 ADD PUSH0 KECCAK256 PUSH1 0x1 ADD SLOAD PUSH1 0x64 PUSH1 0x3 SLOAD DUP6 PUSH2 0x3E8 PUSH1 0x2 SLOAD PUSH2 0x192F SWAP2 SWAP1 PUSH2 0x27C9 JUMP JUMPDEST PUSH2 0x1939 SWAP2 SWAP1 PUSH2 0x26CD JUMP JUMPDEST PUSH2 0x1943 SWAP2 SWAP1 PUSH2 0x26CD JUMP JUMPDEST PUSH2 0x194D SWAP2 SWAP1 PUSH2 0x27C9 JUMP JUMPDEST PUSH2 0x1957 SWAP2 SWAP1 PUSH2 0x26CD JUMP JUMPDEST PUSH2 0x1961 SWAP2 SWAP1 PUSH2 0x26CD JUMP JUMPDEST SWAP1 POP CALLER PUSH20 0xFFFFFFFFFFFFFFFFFFFFFFFFFFFFFFFFFFFFFFFF AND PUSH2 0x8FC DUP3 SWAP1 DUP2 ISZERO MUL SWAP1 PUSH1 0x40 MLOAD PUSH0 PUSH1 0x40 MLOAD DUP1 DUP4 SUB DUP2 DUP6 DUP9 DUP9 CALL SWAP4 POP POP POP POP ISZERO DUP1 ISZERO PUSH2 0x19A6 JUMPI RETURNDATASIZE PUSH0 DUP1 RETURNDATACOPY RETURNDATASIZE PUSH0 REVERT JUMPDEST POP PUSH2 0x19C2 PUSH4 0x1E13380 DUP7 PUSH1 0xE0 ADD MLOAD PUSH2 0x1B72 SWAP1 SWAP2 SWAP1 PUSH4 0xFFFFFFFF AND JUMP JUMPDEST POP PUSH0 DUP6 PUSH1 0xC0 ADD MLOAD GT ISZERO PUSH2 0x1A24 JUMPI PUSH1 0x1 PUSH1 0x7 PUSH0 CALLER PUSH20 0xFFFFFFFFFFFFFFFFFFFFFFFFFFFFFFFFFFFFFFFF AND PUSH20 0xFFFFFFFFFFFFFFFFFFFFFFFFFFFFFFFFFFFFFFFF AND DUP2 MSTORE PUSH1 0x20 ADD SWAP1 DUP2 MSTORE PUSH1 0x20 ADD PUSH0 KECCAK256 PUSH0 DUP3 DUP3 SLOAD PUSH2 0x1A1C SWAP2 SWAP1 PUSH2 0x25A4 JUMP JUMPDEST SWAP3 POP POP DUP2 SWAP1 SSTORE POP JUMPDEST POP POP POP POP POP POP POP POP POP JUMP JUMPDEST PUSH1 0x5 DUP2 DUP1 MLOAD PUSH1 0x20 DUP2 ADD DUP3 ADD DUP1 MLOAD DUP5 DUP3 MSTORE PUSH1 0x20 DUP4 ADD PUSH1 0x20 DUP6 ADD KECCAK256 DUP2 DUP4 MSTORE DUP1 SWAP6 POP POP POP POP POP POP PUSH0 SWAP2 POP SWAP1 POP SLOAD DUP2 JUMP JUMPDEST PUSH0 PUSH1 0x4 PUSH0 DUP5 PUSH1 0x2 DUP2 GT ISZERO PUSH2 0x1A73 JUMPI PUSH2 0x1A72 PUSH2 0x1F15 JUMP JUMPDEST JUMPDEST PUSH1 0x2 DUP2 GT ISZERO PUSH2 0x1A85 JUMPI PUSH2 0x1A84 PUSH2 0x1F15 JUMP JUMPDEST JUMPDEST DUP2 MSTORE PUSH1 0x20 ADD SWAP1 DUP2 MSTORE PUSH1 0x20 ADD PUSH0 KECCAK256 PUSH0 ADD SLOAD DUP3 PUSH2 0x1AA0 SWAP2 SWAP1 PUSH2 0x26CD JUMP JUMPDEST SWAP1 POP SWAP3 SWAP2 POP POP JUMP JUMPDEST PUSH1 0x60 PUSH0 PUSH1 0x1 PUSH2 0x1AB6 DUP5 PUSH2 0x1B87 JUMP JUMPDEST ADD SWAP1 POP PUSH0 DUP2 PUSH8 0xFFFFFFFFFFFFFFFF DUP2 GT ISZERO PUSH2 0x1AD4 JUMPI PUSH2 0x1AD3 PUSH2 0x2122 JUMP JUMPDEST JUMPDEST PUSH1 0x40 MLOAD SWAP1 DUP1 DUP3 MSTORE DUP1 PUSH1 0x1F ADD PUSH1 0x1F NOT AND PUSH1 0x20 ADD DUP3 ADD PUSH1 0x40 MSTORE DUP1 ISZERO PUSH2 0x1B06 JUMPI DUP2 PUSH1 0x20 ADD PUSH1 0x1 DUP3 MUL DUP1 CALLDATASIZE DUP4 CALLDATACOPY DUP1 DUP3 ADD SWAP2 POP POP SWAP1 POP JUMPDEST POP SWAP1 POP PUSH0 DUP3 PUSH1 0x20 ADD DUP3 ADD SWAP1 POP JUMPDEST PUSH1 0x1 ISZERO PUSH2 0x1B67 JUMPI DUP1 DUP1 PUSH1 0x1 SWAP1 SUB SWAP2 POP POP PUSH32 0x3031323334353637383961626364656600000000000000000000000000000000 PUSH1 0xA DUP7 MOD BYTE DUP2 MSTORE8 PUSH1 0xA DUP6 DUP2 PUSH2 0x1B5C JUMPI PUSH2 0x1B5B PUSH2 0x279C JUMP JUMPDEST JUMPDEST DIV SWAP5 POP PUSH0 DUP6 SUB PUSH2 0x1B13 JUMPI JUMPDEST DUP2 SWAP4 POP POP POP POP SWAP2 SWAP1 POP JUMP JUMPDEST PUSH0 DUP2 DUP4 PUSH2 0x1B7F SWAP2 SWAP1 PUSH2 0x25A4 JUMP JUMPDEST SWAP1 POP SWAP3 SWAP2 POP POP JUMP JUMPDEST PUSH0 DUP1 PUSH0 SWAP1 POP PUSH27 0x184F03E93FF9F4DAA797ED6E38ED64BF6A1F010000000000000000 DUP4 LT PUSH2 0x1BE3 JUMPI PUSH27 0x184F03E93FF9F4DAA797ED6E38ED64BF6A1F010000000000000000 DUP4 DUP2 PUSH2 0x1BD9 JUMPI PUSH2 0x1BD8 PUSH2 0x279C JUMP JUMPDEST JUMPDEST DIV SWAP3 POP PUSH1 0x40 DUP2 ADD SWAP1 POP JUMPDEST PUSH14 0x4EE2D6D415B85ACEF8100000000 DUP4 LT PUSH2 0x1C20 JUMPI PUSH14 0x4EE2D6D415B85ACEF8100000000 DUP4 DUP2 PUSH2 0x1C16 JUMPI PUSH2 0x1C15 PUSH2 0x279C JUMP JUMPDEST JUMPDEST DIV SWAP3 POP PUSH1 0x20 DUP2 ADD SWAP1 POP JUMPDEST PUSH7 0x2386F26FC10000 DUP4 LT PUSH2 0x1C4F JUMPI PUSH7 0x2386F26FC10000 DUP4 DUP2 PUSH2 0x1C45 JUMPI PUSH2 0x1C44 PUSH2 0x279C JUMP JUMPDEST JUMPDEST DIV SWAP3 POP PUSH1 0x10 DUP2 ADD SWAP1 POP JUMPDEST PUSH4 0x5F5E100 DUP4 LT PUSH2 0x1C78 JUMPI PUSH4 0x5F5E100 DUP4 DUP2 PUSH2 0x1C6E JUMPI PUSH2 0x1C6D PUSH2 0x279C JUMP JUMPDEST JUMPDEST DIV SWAP3 POP PUSH1 0x8 DUP2 ADD SWAP1 POP JUMPDEST PUSH2 0x2710 DUP4 LT PUSH2 0x1C9D JUMPI PUSH2 0x2710 DUP4 DUP2 PUSH2 0x1C93 JUMPI PUSH2 0x1C92 PUSH2 0x279C JUMP JUMPDEST JUMPDEST DIV SWAP3 POP PUSH1 0x4 DUP2 ADD SWAP1 POP JUMPDEST PUSH1 0x64 DUP4 LT PUSH2 0x1CC0 JUMPI PUSH1 0x64 DUP4 DUP2 PUSH2 0x1CB6 JUMPI PUSH2 0x1CB5 PUSH2 0x279C JUMP JUMPDEST JUMPDEST DIV SWAP3 POP PUSH1 0x2 DUP2 ADD SWAP1 POP JUMPDEST PUSH1 0xA DUP4 LT PUSH2 0x1CCF JUMPI PUSH1 0x1 DUP2 ADD SWAP1 POP JUMPDEST DUP1 SWAP2 POP POP SWAP2 SWAP1 POP JUMP JUMPDEST PUSH1 0x40 MLOAD DUP1 PUSH2 0x100 ADD PUSH1 0x40 MSTORE DUP1 PUSH0 PUSH20 0xFFFFFFFFFFFFFFFFFFFFFFFFFFFFFFFFFFFFFFFF AND DUP2 MSTORE PUSH1 0x20 ADD PUSH0 PUSH1 0x1 DUP2 GT ISZERO PUSH2 0x1D13 JUMPI PUSH2 0x1D12 PUSH2 0x1F15 JUMP JUMPDEST JUMPDEST DUP2 MSTORE PUSH1 0x20 ADD PUSH0 PUSH1 0x2 DUP2 GT ISZERO PUSH2 0x1D2B JUMPI PUSH2 0x1D2A PUSH2 0x1F15 JUMP JUMPDEST JUMPDEST DUP2 MSTORE PUSH1 0x20 ADD PUSH0 DUP2 MSTORE PUSH1 0x20 ADD PUSH0 DUP2 MSTORE PUSH1 0x20 ADD PUSH0 DUP2 MSTORE PUSH1 0x20 ADD PUSH0 DUP2 MSTORE PUSH1 0x20 ADD PUSH0 DUP2 MSTORE POP SWAP1 JUMP JUMPDEST PUSH0 PUSH1 0x40 MLOAD SWAP1 POP SWAP1 JUMP JUMPDEST PUSH0 DUP1 REVERT JUMPDEST PUSH0 DUP1 REVERT JUMPDEST PUSH0 PUSH20 0xFFFFFFFFFFFFFFFFFFFFFFFFFFFFFFFFFFFFFFFF DUP3 AND SWAP1 POP SWAP2 SWAP1 POP JUMP JUMPDEST PUSH0 PUSH2 0x1D89 DUP3 PUSH2 0x1D60 JUMP JUMPDEST SWAP1 POP SWAP2 SWAP1 POP JUMP JUMPDEST PUSH2 0x1D99 DUP2 PUSH2 0x1D7F JUMP JUMPDEST DUP2 EQ PUSH2 0x1DA3 JUMPI PUSH0 DUP1 REVERT JUMPDEST POP JUMP JUMPDEST PUSH0 DUP2 CALLDATALOAD SWAP1 POP PUSH2 0x1DB4 DUP2 PUSH2 0x1D90 JUMP JUMPDEST SWAP3 SWAP2 POP POP JUMP JUMPDEST PUSH0 PUSH1 0x20 DUP3 DUP5 SUB SLT ISZERO PUSH2 0x1DCF JUMPI PUSH2 0x1DCE PUSH2 0x1D58 JUMP JUMPDEST JUMPDEST PUSH0 PUSH2 0x1DDC DUP5 DUP3 DUP6 ADD PUSH2 0x1DA6 JUMP JUMPDEST SWAP2 POP POP SWAP3 SWAP2 POP POP JUMP JUMPDEST PUSH0 DUP2 SWAP1 POP SWAP2 SWAP1 POP JUMP JUMPDEST PUSH2 0x1DF7 DUP2 PUSH2 0x1DE5 JUMP JUMPDEST DUP3 MSTORE POP POP JUMP JUMPDEST PUSH0 PUSH1 0x20 DUP3 ADD SWAP1 POP PUSH2 0x1E10 PUSH0 DUP4 ADD DUP5 PUSH2 0x1DEE JUMP JUMPDEST SWAP3 SWAP2 POP POP JUMP JUMPDEST PUSH2 0x1E1F DUP2 PUSH2 0x1DE5 JUMP JUMPDEST DUP2 EQ PUSH2 0x1E29 JUMPI PUSH0 DUP1 REVERT JUMPDEST POP JUMP JUMPDEST PUSH0 DUP2 CALLDATALOAD SWAP1 POP PUSH2 0x1E3A DUP2 PUSH2 0x1E16 JUMP JUMPDEST SWAP3 SWAP2 POP POP JUMP JUMPDEST PUSH1 0x2 DUP2 LT PUSH2 0x1E4C JUMPI PUSH0 DUP1 REVERT JUMPDEST POP JUMP JUMPDEST PUSH0 DUP2 CALLDATALOAD SWAP1 POP PUSH2 0x1E5D DUP2 PUSH2 0x1E40 JUMP JUMPDEST SWAP3 SWAP2 POP POP JUMP JUMPDEST PUSH0 DUP1 PUSH0 PUSH1 0x60 DUP5 DUP7 SUB SLT ISZERO PUSH2 0x1E7A JUMPI PUSH2 0x1E79 PUSH2 0x1D58 JUMP JUMPDEST JUMPDEST PUSH0 PUSH2 0x1E87 DUP7 DUP3 DUP8 ADD PUSH2 0x1E2C JUMP JUMPDEST SWAP4 POP POP PUSH1 0x20 PUSH2 0x1E98 DUP7 DUP3 DUP8 ADD PUSH2 0x1E4F JUMP JUMPDEST SWAP3 POP POP PUSH1 0x40 PUSH2 0x1EA9 DUP7 DUP3 DUP8 ADD PUSH2 0x1E2C JUMP JUMPDEST SWAP2 POP POP SWAP3 POP SWAP3 POP SWAP3 JUMP JUMPDEST PUSH0 PUSH1 0x20 DUP3 DUP5 SUB SLT ISZERO PUSH2 0x1EC8 JUMPI PUSH2 0x1EC7 PUSH2 0x1D58 JUMP JUMPDEST JUMPDEST PUSH0 PUSH2 0x1ED5 DUP5 DUP3 DUP6 ADD PUSH2 0x1E2C JUMP JUMPDEST SWAP2 POP POP SWAP3 SWAP2 POP POP JUMP JUMPDEST PUSH2 0x1EE7 DUP2 PUSH2 0x1D7F JUMP JUMPDEST DUP3 MSTORE POP POP JUMP JUMPDEST PUSH0 PUSH1 0x20 DUP3 ADD SWAP1 POP PUSH2 0x1F00 PUSH0 DUP4 ADD DUP5 PUSH2 0x1EDE JUMP JUMPDEST SWAP3 SWAP2 POP POP JUMP JUMPDEST PUSH2 0x1F0F DUP2 PUSH2 0x1D7F JUMP JUMPDEST DUP3 MSTORE POP POP JUMP JUMPDEST PUSH32 0x4E487B7100000000000000000000000000000000000000000000000000000000 PUSH0 MSTORE PUSH1 0x21 PUSH1 0x4 MSTORE PUSH1 0x24 PUSH0 REVERT JUMPDEST PUSH1 0x2 DUP2 LT PUSH2 0x1F53 JUMPI PUSH2 0x1F52 PUSH2 0x1F15 JUMP JUMPDEST JUMPDEST POP JUMP JUMPDEST PUSH0 DUP2 SWAP1 POP PUSH2 0x1F63 DUP3 PUSH2 0x1F42 JUMP JUMPDEST SWAP2 SWAP1 POP JUMP JUMPDEST PUSH0 PUSH2 0x1F72 DUP3 PUSH2 0x1F56 JUMP JUMPDEST SWAP1 POP SWAP2 SWAP1 POP JUMP JUMPDEST PUSH2 0x1F82 DUP2 PUSH2 0x1F68 JUMP JUMPDEST DUP3 MSTORE POP POP JUMP JUMPDEST PUSH1 0x3 DUP2 LT PUSH2 0x1F99 JUMPI PUSH2 0x1F98 PUSH2 0x1F15 JUMP JUMPDEST JUMPDEST POP JUMP JUMPDEST PUSH0 DUP2 SWAP1 POP PUSH2 0x1FA9 DUP3 PUSH2 0x1F88 JUMP JUMPDEST SWAP2 SWAP1 POP JUMP JUMPDEST PUSH0 PUSH2 0x1FB8 DUP3 PUSH2 0x1F9C JUMP JUMPDEST SWAP1 POP SWAP2 SWAP1 POP JUMP JUMPDEST PUSH2 0x1FC8 DUP2 PUSH2 0x1FAE JUMP JUMPDEST DUP3 MSTORE POP POP JUMP JUMPDEST PUSH2 0x1FD7 DUP2 PUSH2 0x1DE5 JUMP JUMPDEST DUP3 MSTORE POP POP JUMP JUMPDEST PUSH2 0x100 DUP3 ADD PUSH0 DUP3 ADD MLOAD PUSH2 0x1FF2 PUSH0 DUP6 ADD DUP3 PUSH2 0x1F06 JUMP JUMPDEST POP PUSH1 0x20 DUP3 ADD MLOAD PUSH2 0x2005 PUSH1 0x20 DUP6 ADD DUP3 PUSH2 0x1F79 JUMP JUMPDEST POP PUSH1 0x40 DUP3 ADD MLOAD PUSH2 0x2018 PUSH1 0x40 DUP6 ADD DUP3 PUSH2 0x1FBF JUMP JUMPDEST POP PUSH1 0x60 DUP3 ADD MLOAD PUSH2 0x202B PUSH1 0x60 DUP6 ADD DUP3 PUSH2 0x1FCE JUMP JUMPDEST POP PUSH1 0x80 DUP3 ADD MLOAD PUSH2 0x203E PUSH1 0x80 DUP6 ADD DUP3 PUSH2 0x1FCE JUMP JUMPDEST POP PUSH1 0xA0 DUP3 ADD MLOAD PUSH2 0x2051 PUSH1 0xA0 DUP6 ADD DUP3 PUSH2 0x1FCE JUMP JUMPDEST POP PUSH1 0xC0 DUP3 ADD MLOAD PUSH2 0x2064 PUSH1 0xC0 DUP6 ADD DUP3 PUSH2 0x1FCE JUMP JUMPDEST POP PUSH1 0xE0 DUP3 ADD MLOAD PUSH2 0x2077 PUSH1 0xE0 DUP6 ADD DUP3 PUSH2 0x1FCE JUMP JUMPDEST POP POP POP POP JUMP JUMPDEST PUSH0 PUSH2 0x100 DUP3 ADD SWAP1 POP PUSH2 0x2091 PUSH0 DUP4 ADD DUP5 PUSH2 0x1FDD JUMP JUMPDEST SWAP3 SWAP2 POP POP JUMP JUMPDEST PUSH1 0x3 DUP2 LT PUSH2 0x20A3 JUMPI PUSH0 DUP1 REVERT JUMPDEST POP JUMP JUMPDEST PUSH0 DUP2 CALLDATALOAD SWAP1 POP PUSH2 0x20B4 DUP2 PUSH2 0x2097 JUMP JUMPDEST SWAP3 SWAP2 POP POP JUMP JUMPDEST PUSH0 DUP1 PUSH0 PUSH1 0x60 DUP5 DUP7 SUB SLT ISZERO PUSH2 0x20D1 JUMPI PUSH2 0x20D0 PUSH2 0x1D58 JUMP JUMPDEST JUMPDEST PUSH0 PUSH2 0x20DE DUP7 DUP3 DUP8 ADD PUSH2 0x20A6 JUMP JUMPDEST SWAP4 POP POP PUSH1 0x20 PUSH2 0x20EF DUP7 DUP3 DUP8 ADD PUSH2 0x1E2C JUMP JUMPDEST SWAP3 POP POP PUSH1 0x40 PUSH2 0x2100 DUP7 DUP3 DUP8 ADD PUSH2 0x1E4F JUMP JUMPDEST SWAP2 POP POP SWAP3 POP SWAP3 POP SWAP3 JUMP JUMPDEST PUSH0 DUP1 REVERT JUMPDEST PUSH0 DUP1 REVERT JUMPDEST PUSH0 PUSH1 0x1F NOT PUSH1 0x1F DUP4 ADD AND SWAP1 POP SWAP2 SWAP1 POP JUMP JUMPDEST PUSH32 0x4E487B7100000000000000000000000000000000000000000000000000000000 PUSH0 MSTORE PUSH1 0x41 PUSH1 0x4 MSTORE PUSH1 0x24 PUSH0 REVERT JUMPDEST PUSH2 0x2158 DUP3 PUSH2 0x2112 JUMP JUMPDEST DUP2 ADD DUP2 DUP2 LT PUSH8 0xFFFFFFFFFFFFFFFF DUP3 GT OR ISZERO PUSH2 0x2177 JUMPI PUSH2 0x2176 PUSH2 0x2122 JUMP JUMPDEST JUMPDEST DUP1 PUSH1 0x40 MSTORE POP POP POP JUMP JUMPDEST PUSH0 PUSH2 0x2189 PUSH2 0x1D4F JUMP JUMPDEST SWAP1 POP PUSH2 0x2195 DUP3 DUP3 PUSH2 0x214F JUMP JUMPDEST SWAP2 SWAP1 POP JUMP JUMPDEST PUSH0 PUSH8 0xFFFFFFFFFFFFFFFF DUP3 GT ISZERO PUSH2 0x21B4 JUMPI PUSH2 0x21B3 PUSH2 0x2122 JUMP JUMPDEST JUMPDEST PUSH2 0x21BD DUP3 PUSH2 0x2112 JUMP JUMPDEST SWAP1 POP PUSH1 0x20 DUP2 ADD SWAP1 POP SWAP2 SWAP1 POP JUMP JUMPDEST DUP3 DUP2 DUP4 CALLDATACOPY PUSH0 DUP4 DUP4 ADD MSTORE POP POP POP JUMP JUMPDEST PUSH0 PUSH2 0x21EA PUSH2 0x21E5 DUP5 PUSH2 0x219A JUMP JUMPDEST PUSH2 0x2180 JUMP JUMPDEST SWAP1 POP DUP3 DUP2 MSTORE PUSH1 0x20 DUP2 ADD DUP5 DUP5 DUP5 ADD GT ISZERO PUSH2 0x2206 JUMPI PUSH2 0x2205 PUSH2 0x210E JUMP JUMPDEST JUMPDEST PUSH2 0x2211 DUP5 DUP3 DUP6 PUSH2 0x21CA JUMP JUMPDEST POP SWAP4 SWAP3 POP POP POP JUMP JUMPDEST PUSH0 DUP3 PUSH1 0x1F DUP4 ADD SLT PUSH2 0x222D JUMPI PUSH2 0x222C PUSH2 0x210A JUMP JUMPDEST JUMPDEST DUP2 CALLDATALOAD PUSH2 0x223D DUP5 DUP3 PUSH1 0x20 DUP7 ADD PUSH2 0x21D8 JUMP JUMPDEST SWAP2 POP POP SWAP3 SWAP2 POP POP JUMP JUMPDEST PUSH0 PUSH1 0x20 DUP3 DUP5 SUB SLT ISZERO PUSH2 0x225B JUMPI PUSH2 0x225A PUSH2 0x1D58 JUMP JUMPDEST JUMPDEST PUSH0 DUP3 ADD CALLDATALOAD PUSH8 0xFFFFFFFFFFFFFFFF DUP2 GT ISZERO PUSH2 0x2278 JUMPI PUSH2 0x2277 PUSH2 0x1D5C JUMP JUMPDEST JUMPDEST PUSH2 0x2284 DUP5 DUP3 DUP6 ADD PUSH2 0x2219 JUMP JUMPDEST SWAP2 POP POP SWAP3 SWAP2 POP POP JUMP JUMPDEST PUSH0 DUP1 PUSH1 0x40 DUP4 DUP6 SUB SLT ISZERO PUSH2 0x22A3 JUMPI PUSH2 0x22A2 PUSH2 0x1D58 JUMP JUMPDEST JUMPDEST PUSH0 PUSH2 0x22B0 DUP6 DUP3 DUP7 ADD PUSH2 0x20A6 JUMP JUMPDEST SWAP3 POP POP PUSH1 0x20 PUSH2 0x22C1 DUP6 DUP3 DUP7 ADD PUSH2 0x1E2C JUMP JUMPDEST SWAP2 POP POP SWAP3 POP SWAP3 SWAP1 POP JUMP JUMPDEST PUSH0 DUP2 MLOAD SWAP1 POP SWAP2 SWAP1 POP JUMP JUMPDEST PUSH0 DUP2 SWAP1 POP SWAP3 SWAP2 POP POP JUMP JUMPDEST PUSH0 JUMPDEST DUP4 DUP2 LT ISZERO PUSH2 0x22FC JUMPI DUP1 DUP3 ADD MLOAD DUP2 DUP5 ADD MSTORE PUSH1 0x20 DUP2 ADD SWAP1 POP PUSH2 0x22E1 JUMP JUMPDEST PUSH0 DUP5 DUP5 ADD MSTORE POP POP POP POP JUMP JUMPDEST PUSH0 PUSH2 0x2311 DUP3 PUSH2 0x22CB JUMP JUMPDEST PUSH2 0x231B DUP2 DUP6 PUSH2 0x22D5 JUMP JUMPDEST SWAP4 POP PUSH2 0x232B DUP2 DUP6 PUSH1 0x20 DUP7 ADD PUSH2 0x22DF JUMP JUMPDEST DUP1 DUP5 ADD SWAP2 POP POP SWAP3 SWAP2 POP POP JUMP JUMPDEST PUSH32 0x5F4E4F5254480000000000000000000000000000000000000000000000000000 DUP2 MSTORE POP JUMP JUMPDEST PUSH0 PUSH2 0x2368 DUP3 DUP5 PUSH2 0x2307 JUMP JUMPDEST SWAP2 POP PUSH2 0x2373 DUP3 PUSH2 0x2337 JUMP JUMPDEST PUSH1 0x6 DUP3 ADD SWAP2 POP DUP2 SWAP1 POP SWAP3 SWAP2 POP POP JUMP JUMPDEST PUSH32 0x5F534F5554480000000000000000000000000000000000000000000000000000 DUP2 MSTORE POP JUMP JUMPDEST PUSH0 PUSH2 0x23B3 DUP3 DUP5 PUSH2 0x2307 JUMP JUMPDEST SWAP2 POP PUSH2 0x23BE DUP3 PUSH2 0x2382 JUMP JUMPDEST PUSH1 0x6 DUP3 ADD SWAP2 POP DUP2 SWAP1 POP SWAP3 SWAP2 POP POP JUMP JUMPDEST PUSH0 PUSH2 0x23D8 DUP3 DUP5 PUSH2 0x2307 JUMP JUMPDEST SWAP2 POP DUP2 SWAP1 POP SWAP3 SWAP2 POP POP JUMP JUMPDEST PUSH0 DUP3 DUP3 MSTORE PUSH1 0x20 DUP3 ADD SWAP1 POP SWAP3 SWAP2 POP POP JUMP JUMPDEST PUSH32 0x54686520636C69656E74206973206E6F7420696E73757265642E000000000000 PUSH0 DUP3 ADD MSTORE POP JUMP JUMPDEST PUSH0 PUSH2 0x2427 PUSH1 0x1A DUP4 PUSH2 0x23E3 JUMP JUMPDEST SWAP2 POP PUSH2 0x2432 DUP3 PUSH2 0x23F3 JUMP JUMPDEST PUSH1 0x20 DUP3 ADD SWAP1 POP SWAP2 SWAP1 POP JUMP JUMPDEST PUSH0 PUSH1 0x20 DUP3 ADD SWAP1 POP DUP2 DUP2 SUB PUSH0 DUP4 ADD MSTORE PUSH2 0x2454 DUP2 PUSH2 0x241B JUMP JUMPDEST SWAP1 POP SWAP2 SWAP1 POP JUMP JUMPDEST PUSH32 0x596F752063616E6E6F742066696C65206120636C61696D20666F722074686520 PUSH0 DUP3 ADD MSTORE PUSH32 0x6465736972656420796561722E00000000000000000000000000000000000000 PUSH1 0x20 DUP3 ADD MSTORE POP JUMP JUMPDEST PUSH0 PUSH2 0x24B5 PUSH1 0x2D DUP4 PUSH2 0x23E3 JUMP JUMPDEST SWAP2 POP PUSH2 0x24C0 DUP3 PUSH2 0x245B JUMP JUMPDEST PUSH1 0x40 DUP3 ADD SWAP1 POP SWAP2 SWAP1 POP JUMP JUMPDEST PUSH0 PUSH1 0x20 DUP3 ADD SWAP1 POP DUP2 DUP2 SUB PUSH0 DUP4 ADD MSTORE PUSH2 0x24E2 DUP2 PUSH2 0x24A9 JUMP JUMPDEST SWAP1 POP SWAP2 SWAP1 POP JUMP JUMPDEST PUSH32 0x5468657265206973206E6F207265636F726420666F7220746865207265717569 PUSH0 DUP3 ADD MSTORE PUSH32 0x72656420796561722E0000000000000000000000000000000000000000000000 PUSH1 0x20 DUP3 ADD MSTORE POP JUMP JUMPDEST PUSH0 PUSH2 0x2543 PUSH1 0x29 DUP4 PUSH2 0x23E3 JUMP JUMPDEST SWAP2 POP PUSH2 0x254E DUP3 PUSH2 0x24E9 JUMP JUMPDEST PUSH1 0x40 DUP3 ADD SWAP1 POP SWAP2 SWAP1 POP JUMP JUMPDEST PUSH0 PUSH1 0x20 DUP3 ADD SWAP1 POP DUP2 DUP2 SUB PUSH0 DUP4 ADD MSTORE PUSH2 0x2570 DUP2 PUSH2 0x2537 JUMP JUMPDEST SWAP1 POP SWAP2 SWAP1 POP JUMP JUMPDEST PUSH32 0x4E487B7100000000000000000000000000000000000000000000000000000000 PUSH0 MSTORE PUSH1 0x11 PUSH1 0x4 MSTORE PUSH1 0x24 PUSH0 REVERT JUMPDEST PUSH0 PUSH2 0x25AE DUP3 PUSH2 0x1DE5 JUMP JUMPDEST SWAP2 POP PUSH2 0x25B9 DUP4 PUSH2 0x1DE5 JUMP JUMPDEST SWAP3 POP DUP3 DUP3 ADD SWAP1 POP DUP1 DUP3 GT ISZERO PUSH2 0x25D1 JUMPI PUSH2 0x25D0 PUSH2 0x2577 JUMP JUMPDEST JUMPDEST SWAP3 SWAP2 POP POP JUMP JUMPDEST PUSH32 0x4F6E6C792074686520636F6E7472616374206F776E657220697320616C6C6F77 PUSH0 DUP3 ADD MSTORE PUSH32 0x656420746F20646F20746865206465736972656420616374696F6E2E00000000 PUSH1 0x20 DUP3 ADD MSTORE POP JUMP JUMPDEST PUSH0 PUSH2 0x2631 PUSH1 0x3C DUP4 PUSH2 0x23E3 JUMP JUMPDEST SWAP2 POP PUSH2 0x263C DUP3 PUSH2 0x25D7 JUMP JUMPDEST PUSH1 0x40 DUP3 ADD SWAP1 POP SWAP2 SWAP1 POP JUMP JUMPDEST PUSH0 PUSH1 0x20 DUP3 ADD SWAP1 POP DUP2 DUP2 SUB PUSH0 DUP4 ADD MSTORE PUSH2 0x265E DUP2 PUSH2 0x2625 JUMP JUMPDEST SWAP1 POP SWAP2 SWAP1 POP JUMP JUMPDEST PUSH32 0x54686520636C69656E7420697320616C726561647920696E73757265642E0000 PUSH0 DUP3 ADD MSTORE POP JUMP JUMPDEST PUSH0 PUSH2 0x2699 PUSH1 0x1E DUP4 PUSH2 0x23E3 JUMP JUMPDEST SWAP2 POP PUSH2 0x26A4 DUP3 PUSH2 0x2665 JUMP JUMPDEST PUSH1 0x20 DUP3 ADD SWAP1 POP SWAP2 SWAP1 POP JUMP JUMPDEST PUSH0 PUSH1 0x20 DUP3 ADD SWAP1 POP DUP2 DUP2 SUB PUSH0 DUP4 ADD MSTORE PUSH2 0x26C6 DUP2 PUSH2 0x268D JUMP JUMPDEST SWAP1 POP SWAP2 SWAP1 POP JUMP JUMPDEST PUSH0 PUSH2 0x26D7 DUP3 PUSH2 0x1DE5 JUMP JUMPDEST SWAP2 POP PUSH2 0x26E2 DUP4 PUSH2 0x1DE5 JUMP JUMPDEST SWAP3 POP DUP3 DUP3 MUL PUSH2 0x26F0 DUP2 PUSH2 0x1DE5 JUMP JUMPDEST SWAP2 POP DUP3 DUP3 DIV DUP5 EQ DUP4 ISZERO OR PUSH2 0x2707 JUMPI PUSH2 0x2706 PUSH2 0x2577 JUMP JUMPDEST JUMPDEST POP SWAP3 SWAP2 POP POP JUMP JUMPDEST PUSH32 0x546865207072656D69756D206D75737420626520636F766572656420746F2072 PUSH0 DUP3 ADD MSTORE PUSH32 0x65676973746572206F722072656E6577206120706F6C6963792E000000000000 PUSH1 0x20 DUP3 ADD MSTORE POP JUMP JUMPDEST PUSH0 PUSH2 0x2768 PUSH1 0x3A DUP4 PUSH2 0x23E3 JUMP JUMPDEST SWAP2 POP PUSH2 0x2773 DUP3 PUSH2 0x270E JUMP JUMPDEST PUSH1 0x40 DUP3 ADD SWAP1 POP SWAP2 SWAP1 POP JUMP JUMPDEST PUSH0 PUSH1 0x20 DUP3 ADD SWAP1 POP DUP2 DUP2 SUB PUSH0 DUP4 ADD MSTORE PUSH2 0x2795 DUP2 PUSH2 0x275C JUMP JUMPDEST SWAP1 POP SWAP2 SWAP1 POP JUMP JUMPDEST PUSH32 0x4E487B7100000000000000000000000000000000000000000000000000000000 PUSH0 MSTORE PUSH1 0x12 PUSH1 0x4 MSTORE PUSH1 0x24 PUSH0 REVERT JUMPDEST PUSH0 PUSH2 0x27D3 DUP3 PUSH2 0x1DE5 JUMP JUMPDEST SWAP2 POP PUSH2 0x27DE DUP4 PUSH2 0x1DE5 JUMP JUMPDEST SWAP3 POP DUP3 PUSH2 0x27EE JUMPI PUSH2 0x27ED PUSH2 0x279C JUMP JUMPDEST JUMPDEST DUP3 DUP3 DIV SWAP1 POP SWAP3 SWAP2 POP POP JUMP JUMPDEST PUSH32 0x43616E6E6F74206C6F61642074686520636F6E74726163742077697468203000 PUSH0 DUP3 ADD MSTORE POP JUMP JUMPDEST PUSH0 PUSH2 0x282D PUSH1 0x1F DUP4 PUSH2 0x23E3 JUMP JUMPDEST SWAP2 POP PUSH2 0x2838 DUP3 PUSH2 0x27F9 JUMP JUMPDEST PUSH1 0x20 DUP3 ADD SWAP1 POP SWAP2 SWAP1 POP JUMP JUMPDEST PUSH0 PUSH1 0x20 DUP3 ADD SWAP1 POP DUP2 DUP2 SUB PUSH0 DUP4 ADD MSTORE PUSH2 0x285A DUP2 PUSH2 0x2821 JUMP JUMPDEST SWAP1 POP SWAP2 SWAP1 POP JUMP JUMPDEST PUSH0 PUSH2 0x286B DUP3 PUSH2 0x1DE5 JUMP JUMPDEST SWAP2 POP PUSH2 0x2876 DUP4 PUSH2 0x1DE5 JUMP JUMPDEST SWAP3 POP DUP3 DUP3 SUB SWAP1 POP DUP2 DUP2 GT ISZERO PUSH2 0x288E JUMPI PUSH2 0x288D PUSH2 0x2577 JUMP JUMPDEST JUMPDEST SWAP3 SWAP2 POP POP JUMP JUMPDEST PUSH32 0x436C61696D732063616E206F6E6C792062652066696C65642065766572792079 PUSH0 DUP3 ADD MSTORE PUSH32 0x6561722E00000000000000000000000000000000000000000000000000000000 PUSH1 0x20 DUP3 ADD MSTORE POP JUMP JUMPDEST PUSH0 PUSH2 0x28EE PUSH1 0x24 DUP4 PUSH2 0x23E3 JUMP JUMPDEST SWAP2 POP PUSH2 0x28F9 DUP3 PUSH2 0x2894 JUMP JUMPDEST PUSH1 0x40 DUP3 ADD SWAP1 POP SWAP2 SWAP1 POP JUMP JUMPDEST PUSH0 PUSH1 0x20 DUP3 ADD SWAP1 POP DUP2 DUP2 SUB PUSH0 DUP4 ADD MSTORE PUSH2 0x291B DUP2 PUSH2 0x28E2 JUMP JUMPDEST SWAP1 POP SWAP2 SWAP1 POP JUMP JUMPDEST PUSH32 0x5468652073756E7368696E65206475726174696F6E2077617320657175616C20 PUSH0 DUP3 ADD MSTORE PUSH32 0x746F206F722065786365656465642074686520696E737572656420686F757273 PUSH1 0x20 DUP3 ADD MSTORE PUSH32 0x2E00000000000000000000000000000000000000000000000000000000000000 PUSH1 0x40 DUP3 ADD MSTORE POP JUMP JUMPDEST PUSH0 PUSH2 0x29A2 PUSH1 0x41 DUP4 PUSH2 0x23E3 JUMP JUMPDEST SWAP2 POP PUSH2 0x29AD DUP3 PUSH2 0x2922 JUMP JUMPDEST PUSH1 0x60 DUP3 ADD SWAP1 POP SWAP2 SWAP1 POP JUMP JUMPDEST PUSH0 PUSH1 0x20 DUP3 ADD SWAP1 POP DUP2 DUP2 SUB PUSH0 DUP4 ADD MSTORE PUSH2 0x29CF DUP2 PUSH2 0x2996 JUMP JUMPDEST SWAP1 POP SWAP2 SWAP1 POP JUMP INVALID LOG2 PUSH5 0x6970667358 0x22 SLT KECCAK256 0xCF CREATE 0xD1 0x4E SGT SMOD BLOCKHASH 0xA5 DUP11 EXTCODEHASH PUSH9 0x67B19FD975DEEA4A9D DUP15 0xE6 PUSH32 0x49E91B3C40090F2B6964736F6C63430008160033000000000000000000000000 "
				},
				"gasEstimates": {
					"creation": {
						"codeDepositCost": "2152800",
						"executionCost": "226147",
						"totalCost": "2378947"
					},
					"external": {
						"_allowedClaims(address)": "2803",
						"_sunshineRecords(string)": "infinite",
						"createSunshineRecord(uint256,uint8,uint256)": "infinite",
						"fileClaim(uint256)": "infinite",
						"fileClaimWithoutTimeoutCheck(uint256)": "infinite",
						"fundContract()": "424",
						"getClaimAmount(uint256)": "infinite",
						"getRequiredPremium(uint8,uint256)": "infinite",
						"getSolarInsurance()": "infinite",
						"owner()": "4748",
						"registerPolicy(uint8,uint256,uint8)": "infinite",
						"renewPolicy()": "infinite"
					}
				},
				"methodIdentifiers": {
					"_allowedClaims(address)": "1d9aec76",
					"_sunshineRecords(string)": "e7ebe5e0",
					"createSunshineRecord(uint256,uint8,uint256)": "245503e9",
					"fileClaim(uint256)": "d61909f9",
					"fileClaimWithoutTimeoutCheck(uint256)": "41b5e38d",
					"fundContract()": "bd097e21",
					"getClaimAmount(uint256)": "cef63600",
					"getRequiredPremium(uint8,uint256)": "f82ac082",
					"getSolarInsurance()": "9b36474a",
					"owner()": "8da5cb5b",
					"registerPolicy(uint8,uint256,uint8)": "a8e023eb",
					"renewPolicy()": "bfd1a3a7"
				}
			},
			"storageLayout": {
				"storage": [
					{
						"astId": 1737,
						"contract": "contracts/solar_insurance.sol:SolarInsurance",
						"label": "_owner",
						"offset": 0,
						"slot": "0",
						"type": "t_address"
					},
					{
						"astId": 1740,
						"contract": "contracts/solar_insurance.sol:SolarInsurance",
						"label": "ENERGY_PRICE",
						"offset": 0,
						"slot": "1",
						"type": "t_uint256"
					},
					{
						"astId": 1743,
						"contract": "contracts/solar_insurance.sol:SolarInsurance",
						"label": "RADIATION_VALUE",
						"offset": 0,
						"slot": "2",
						"type": "t_uint256"
					},
					{
						"astId": 1746,
						"contract": "contracts/solar_insurance.sol:SolarInsurance",
						"label": "EFFICIENCY",
						"offset": 0,
						"slot": "3",
						"type": "t_uint256"
					},
					{
						"astId": 1780,
						"contract": "contracts/solar_insurance.sol:SolarInsurance",
						"label": "_insuranceLevels",
						"offset": 0,
						"slot": "4",
						"type": "t_mapping(t_enum(ClientRiskLevels)1774,t_struct(InsuranceLevel)1770_storage)"
					},
					{
						"astId": 1787,
						"contract": "contracts/solar_insurance.sol:SolarInsurance",
						"label": "_sunshineRecords",
						"offset": 0,
						"slot": "5",
						"type": "t_mapping(t_string_memory_ptr,t_uint256)"
					},
					{
						"astId": 1797,
						"contract": "contracts/solar_insurance.sol:SolarInsurance",
						"label": "_contracts",
						"offset": 0,
						"slot": "6",
						"type": "t_mapping(t_address,t_struct(SolarInsuranceContract)1765_storage)"
					},
					{
						"astId": 1801,
						"contract": "contracts/solar_insurance.sol:SolarInsurance",
						"label": "_allowedClaims",
						"offset": 0,
						"slot": "7",
						"type": "t_mapping(t_address,t_uint256)"
					},
					{
						"astId": 1807,
						"contract": "contracts/solar_insurance.sol:SolarInsurance",
						"label": "claims",
						"offset": 0,
						"slot": "8",
						"type": "t_mapping(t_address,t_array(t_struct(Claim)1792_storage)dyn_storage)"
					},
					{
						"astId": 1812,
						"contract": "contracts/solar_insurance.sol:SolarInsurance",
						"label": "_payments",
						"offset": 0,
						"slot": "9",
						"type": "t_mapping(t_address,t_array(t_uint256)dyn_storage)"
					}
				],
				"types": {
					"t_address": {
						"encoding": "inplace",
						"label": "address",
						"numberOfBytes": "20"
					},
					"t_array(t_struct(Claim)1792_storage)dyn_storage": {
						"base": "t_struct(Claim)1792_storage",
						"encoding": "dynamic_array",
						"label": "struct SolarInsurance.Claim[]",
						"numberOfBytes": "32"
					},
					"t_array(t_uint256)dyn_storage": {
						"base": "t_uint256",
						"encoding": "dynamic_array",
						"label": "uint256[]",
						"numberOfBytes": "32"
					},
					"t_enum(ClientRiskLevels)1774": {
						"encoding": "inplace",
						"label": "enum SolarInsurance.ClientRiskLevels",
						"numberOfBytes": "1"
					},
					"t_enum(SwissRegion)1783": {
						"encoding": "inplace",
						"label": "enum SolarInsurance.SwissRegion",
						"numberOfBytes": "1"
					},
					"t_mapping(t_address,t_array(t_struct(Claim)1792_storage)dyn_storage)": {
						"encoding": "mapping",
						"key": "t_address",
						"label": "mapping(address => struct SolarInsurance.Claim[])",
						"numberOfBytes": "32",
						"value": "t_array(t_struct(Claim)1792_storage)dyn_storage"
					},
					"t_mapping(t_address,t_array(t_uint256)dyn_storage)": {
						"encoding": "mapping",
						"key": "t_address",
						"label": "mapping(address => uint256[])",
						"numberOfBytes": "32",
						"value": "t_array(t_uint256)dyn_storage"
					},
					"t_mapping(t_address,t_struct(SolarInsuranceContract)1765_storage)": {
						"encoding": "mapping",
						"key": "t_address",
						"label": "mapping(address => struct SolarInsurance.SolarInsuranceContract)",
						"numberOfBytes": "32",
						"value": "t_struct(SolarInsuranceContract)1765_storage"
					},
					"t_mapping(t_address,t_uint256)": {
						"encoding": "mapping",
						"key": "t_address",
						"label": "mapping(address => uint256)",
						"numberOfBytes": "32",
						"value": "t_uint256"
					},
					"t_mapping(t_enum(ClientRiskLevels)1774,t_struct(InsuranceLevel)1770_storage)": {
						"encoding": "mapping",
						"key": "t_enum(ClientRiskLevels)1774",
						"label": "mapping(enum SolarInsurance.ClientRiskLevels => struct SolarInsurance.InsuranceLevel)",
						"numberOfBytes": "32",
						"value": "t_struct(InsuranceLevel)1770_storage"
					},
					"t_mapping(t_string_memory_ptr,t_uint256)": {
						"encoding": "mapping",
						"key": "t_string_memory_ptr",
						"label": "mapping(string => uint256)",
						"numberOfBytes": "32",
						"value": "t_uint256"
					},
					"t_string_memory_ptr": {
						"encoding": "bytes",
						"label": "string",
						"numberOfBytes": "32"
					},
					"t_struct(Claim)1792_storage": {
						"encoding": "inplace",
						"label": "struct SolarInsurance.Claim",
						"members": [
							{
								"astId": 1789,
								"contract": "contracts/solar_insurance.sol:SolarInsurance",
								"label": "year",
								"offset": 0,
								"slot": "0",
								"type": "t_uint256"
							},
							{
								"astId": 1791,
								"contract": "contracts/solar_insurance.sol:SolarInsurance",
								"label": "amount",
								"offset": 0,
								"slot": "1",
								"type": "t_uint256"
							}
						],
						"numberOfBytes": "64"
					},
					"t_struct(InsuranceLevel)1770_storage": {
						"encoding": "inplace",
						"label": "struct SolarInsurance.InsuranceLevel",
						"members": [
							{
								"astId": 1767,
								"contract": "contracts/solar_insurance.sol:SolarInsurance",
								"label": "premium",
								"offset": 0,
								"slot": "0",
								"type": "t_uint256"
							},
							{
								"astId": 1769,
								"contract": "contracts/solar_insurance.sol:SolarInsurance",
								"label": "insuredHours",
								"offset": 0,
								"slot": "1",
								"type": "t_uint256"
							}
						],
						"numberOfBytes": "64"
					},
					"t_struct(SolarInsuranceContract)1765_storage": {
						"encoding": "inplace",
						"label": "struct SolarInsurance.SolarInsuranceContract",
						"members": [
							{
								"astId": 1748,
								"contract": "contracts/solar_insurance.sol:SolarInsurance",
								"label": "client",
								"offset": 0,
								"slot": "0",
								"type": "t_address"
							},
							{
								"astId": 1751,
								"contract": "contracts/solar_insurance.sol:SolarInsurance",
								"label": "panelLocation",
								"offset": 20,
								"slot": "0",
								"type": "t_enum(SwissRegion)1783"
							},
							{
								"astId": 1754,
								"contract": "contracts/solar_insurance.sol:SolarInsurance",
								"label": "riskLevel",
								"offset": 21,
								"slot": "0",
								"type": "t_enum(ClientRiskLevels)1774"
							},
							{
								"astId": 1756,
								"contract": "contracts/solar_insurance.sol:SolarInsurance",
								"label": "panelArea",
								"offset": 0,
								"slot": "1",
								"type": "t_uint256"
							},
							{
								"astId": 1758,
								"contract": "contracts/solar_insurance.sol:SolarInsurance",
								"label": "premiumToPay",
								"offset": 0,
								"slot": "2",
								"type": "t_uint256"
							},
							{
								"astId": 1760,
								"contract": "contracts/solar_insurance.sol:SolarInsurance",
								"label": "registrationDate",
								"offset": 0,
								"slot": "3",
								"type": "t_uint256"
							},
							{
								"astId": 1762,
								"contract": "contracts/solar_insurance.sol:SolarInsurance",
								"label": "duration",
								"offset": 0,
								"slot": "4",
								"type": "t_uint256"
							},
							{
								"astId": 1764,
								"contract": "contracts/solar_insurance.sol:SolarInsurance",
								"label": "claimTimeout",
								"offset": 0,
								"slot": "5",
								"type": "t_uint256"
							}
						],
						"numberOfBytes": "192"
					},
					"t_uint256": {
						"encoding": "inplace",
						"label": "uint256",
						"numberOfBytes": "32"
					}
				}
			},
			"userdoc": {
				"kind": "user",
				"methods": {},
				"version": 1
			}
		}
	}
}