{
	"contracts/SolarInsurance.sol": {
		"SolarInsurance": {
			"abi": [
				{
					"inputs": [],
					"stateMutability": "nonpayable",
					"type": "constructor"
				},
				{
					"inputs": [
						{
							"internalType": "address",
							"name": "",
							"type": "address"
						}
					],
					"name": "_allowedClaims",
					"outputs": [
						{
							"internalType": "uint256",
							"name": "",
							"type": "uint256"
						}
					],
					"stateMutability": "view",
					"type": "function"
				},
				{
					"inputs": [
						{
							"internalType": "string",
							"name": "",
							"type": "string"
						}
					],
					"name": "_sunshineRecords",
					"outputs": [
						{
							"internalType": "uint256",
							"name": "",
							"type": "uint256"
						}
					],
					"stateMutability": "view",
					"type": "function"
				},
				{
					"inputs": [
						{
							"internalType": "enum SolarInsurance.ClientRiskLevels",
							"name": "riskLevel",
							"type": "uint8"
						},
						{
							"internalType": "uint256",
							"name": "panelArea",
							"type": "uint256"
						}
					],
					"name": "calculatePremium",
					"outputs": [
						{
							"internalType": "uint256",
							"name": "",
							"type": "uint256"
						}
					],
					"stateMutability": "view",
					"type": "function"
				},
				{
					"inputs": [
						{
							"internalType": "uint256",
							"name": "year",
							"type": "uint256"
						},
						{
							"internalType": "uint256",
							"name": "duration",
							"type": "uint256"
						}
					],
					"name": "createSunshineRecord",
					"outputs": [],
					"stateMutability": "nonpayable",
					"type": "function"
				},
				{
					"inputs": [
						{
							"internalType": "uint256",
							"name": "year",
							"type": "uint256"
						}
					],
					"name": "fileClaim",
					"outputs": [],
					"stateMutability": "nonpayable",
					"type": "function"
				},
				{
					"inputs": [
						{
							"internalType": "uint256",
							"name": "year",
							"type": "uint256"
						}
					],
					"name": "fileClaimWithoutTimeoutCheck",
					"outputs": [],
					"stateMutability": "nonpayable",
					"type": "function"
				},
				{
					"inputs": [],
					"name": "fundContract",
					"outputs": [],
					"stateMutability": "payable",
					"type": "function"
				},
				{
					"inputs": [
						{
							"internalType": "uint256",
							"name": "year",
							"type": "uint256"
						}
					],
					"name": "getClaimAmount",
					"outputs": [
						{
							"internalType": "uint256",
							"name": "",
							"type": "uint256"
						}
					],
					"stateMutability": "view",
					"type": "function"
				},
				{
					"inputs": [
						{
							"internalType": "uint256",
							"name": "year",
							"type": "uint256"
						}
					],
					"name": "getRecordsKey",
					"outputs": [
						{
							"internalType": "string",
							"name": "",
							"type": "string"
						}
					],
					"stateMutability": "view",
					"type": "function"
				},
				{
					"inputs": [],
					"name": "getSolarInsurance",
					"outputs": [
						{
							"components": [
								{
									"internalType": "address",
									"name": "client",
									"type": "address"
								},
								{
									"internalType": "enum SolarInsurance.SwissRegion",
									"name": "panelLocation",
									"type": "uint8"
								},
								{
									"internalType": "enum SolarInsurance.ClientRiskLevels",
									"name": "riskLevel",
									"type": "uint8"
								},
								{
									"internalType": "uint256",
									"name": "panelArea",
									"type": "uint256"
								},
								{
									"internalType": "uint256",
									"name": "premiumToPay",
									"type": "uint256"
								},
								{
									"internalType": "uint256",
									"name": "registrationDate",
									"type": "uint256"
								},
								{
									"internalType": "uint256",
									"name": "validUntil",
									"type": "uint256"
								},
								{
									"internalType": "uint256",
									"name": "claimTimeout",
									"type": "uint256"
								}
							],
							"internalType": "struct SolarInsurance.SolarInsurancePolicy",
							"name": "",
							"type": "tuple"
						}
					],
					"stateMutability": "view",
					"type": "function"
				},
				{
					"inputs": [],
					"name": "owner",
					"outputs": [
						{
							"internalType": "address",
							"name": "",
							"type": "address"
						}
					],
					"stateMutability": "view",
					"type": "function"
				},
				{
					"inputs": [
						{
							"internalType": "enum SolarInsurance.ClientRiskLevels",
							"name": "riskLevel",
							"type": "uint8"
						},
						{
							"internalType": "uint256",
							"name": "panelArea",
							"type": "uint256"
						},
						{
							"internalType": "enum SolarInsurance.SwissRegion",
							"name": "location",
							"type": "uint8"
						}
					],
					"name": "registerPolicy",
					"outputs": [],
					"stateMutability": "payable",
					"type": "function"
				},
				{
					"inputs": [],
					"name": "renewPolicy",
					"outputs": [],
					"stateMutability": "payable",
					"type": "function"
				}
			],
			"devdoc": {
				"kind": "dev",
				"methods": {
					"calculatePremium(uint8,uint256)": {
						"details": "Calculate required premium"
					},
					"fileClaim(uint256)": {
						"details": "File Claim for Insurance"
					},
					"getSolarInsurance()": {
						"details": "Get details of own contract"
					},
					"owner()": {
						"details": "Get owner's address"
					},
					"registerPolicy(uint8,uint256,uint8)": {
						"details": "Register for Solar Insurance Policy"
					},
					"renewPolicy()": {
						"details": "Renew Solar Insurance Policy"
					}
				},
				"version": 1
			},
			"evm": {
				"assembly": "    /* \"contracts/SolarInsurance.sol\":186:10888  contract SolarInsurance is Demoable {... */\n  mstore(0x40, 0x80)\n    /* \"contracts/SolarInsurance.sol\":354:367  0.00016 ether */\n  0x9184e72a0000\n    /* \"contracts/SolarInsurance.sol\":321:367  uint256 internal _ENERGY_PRICE = 0.00016 ether */\n  0x01\n  sstore\n    /* \"contracts/SolarInsurance.sol\":444:447  150 */\n  0x96\n    /* \"contracts/SolarInsurance.sol\":408:447  uint256 internal _RADIATION_VALUE = 150 */\n  0x02\n  sstore\n    /* \"contracts/SolarInsurance.sol\":529:531  20 */\n  0x14\n    /* \"contracts/SolarInsurance.sol\":498:531  uint256 internal _EFFICIENCY = 20 */\n  0x03\n  sstore\n    /* \"contracts/SolarInsurance.sol\":1895:2308  constructor() {... */\n  callvalue\n  dup1\n  iszero\n  tag_1\n  jumpi\n  0x00\n  dup1\n  revert\ntag_1:\n  pop\n    /* \"contracts/SolarInsurance.sol\":1928:1938  msg.sender */\n  caller\n    /* \"contracts/SolarInsurance.sol\":1919:1925  _owner */\n  0x00\n  dup1\n    /* \"contracts/SolarInsurance.sol\":1919:1938  _owner = msg.sender */\n  0x0100\n  exp\n  dup2\n  sload\n  dup2\n  0xffffffffffffffffffffffffffffffffffffffff\n  mul\n  not\n  and\n  swap1\n  dup4\n  0xffffffffffffffffffffffffffffffffffffffff\n  and\n  mul\n  or\n  swap1\n  sstore\n  pop\n    /* \"contracts/SolarInsurance.sol\":1990:2059  InsuranceLevel(... */\n  mload(0x40)\n  dup1\n  0x40\n  add\n  0x40\n  mstore\n  dup1\n    /* \"contracts/SolarInsurance.sol\":2018:2031  0.00005 ether */\n  0x2d79883d2000\n    /* \"contracts/SolarInsurance.sol\":1990:2059  InsuranceLevel(... */\n  dup2\n  mstore\n  0x20\n  add\n    /* \"contracts/SolarInsurance.sol\":2045:2049  1639 */\n  0x0667\n    /* \"contracts/SolarInsurance.sol\":1990:2059  InsuranceLevel(... */\n  dup2\n  mstore\n  pop\n    /* \"contracts/SolarInsurance.sol\":1948:1964  _insuranceLevels */\n  0x04\n    /* \"contracts/SolarInsurance.sol\":1948:1987  _insuranceLevels[ClientRiskLevels.HIGH] */\n  0x00\n    /* \"contracts/SolarInsurance.sol\":1965:1986  ClientRiskLevels.HIGH */\n  dup1\n    /* \"contracts/SolarInsurance.sol\":1948:1987  _insuranceLevels[ClientRiskLevels.HIGH] */\n  0x02\n  dup2\n  gt\n  iszero\n  tag_6\n  jumpi\n  tag_7\n  tag_8\n  jump\t// in\ntag_7:\ntag_6:\n  0x02\n  dup2\n  gt\n  iszero\n  tag_9\n  jumpi\n  tag_10\n  tag_8\n  jump\t// in\ntag_10:\ntag_9:\n  dup2\n  mstore\n  0x20\n  add\n  swap1\n  dup2\n  mstore\n  0x20\n  add\n  0x00\n  keccak256\n    /* \"contracts/SolarInsurance.sol\":1948:2059  _insuranceLevels[ClientRiskLevels.HIGH] = InsuranceLevel(... */\n  0x00\n  dup3\n  add\n  mload\n  dup2\n  0x00\n  add\n  sstore\n  0x20\n  dup3\n  add\n  mload\n  dup2\n  0x01\n  add\n  sstore\n  swap1\n  pop\n  pop\n    /* \"contracts/SolarInsurance.sol\":2111:2180  InsuranceLevel(... */\n  mload(0x40)\n  dup1\n  0x40\n  add\n  0x40\n  mstore\n  dup1\n    /* \"contracts/SolarInsurance.sol\":2139:2152  0.00012 ether */\n  0x6d23ad5f8000\n    /* \"contracts/SolarInsurance.sol\":2111:2180  InsuranceLevel(... */\n  dup2\n  mstore\n  0x20\n  add\n    /* \"contracts/SolarInsurance.sol\":2166:2170  1721 */\n  0x06b9\n    /* \"contracts/SolarInsurance.sol\":2111:2180  InsuranceLevel(... */\n  dup2\n  mstore\n  pop\n    /* \"contracts/SolarInsurance.sol\":2070:2086  _insuranceLevels */\n  0x04\n    /* \"contracts/SolarInsurance.sol\":2070:2108  _insuranceLevels[ClientRiskLevels.MID] */\n  0x00\n    /* \"contracts/SolarInsurance.sol\":2087:2107  ClientRiskLevels.MID */\n  0x01\n    /* \"contracts/SolarInsurance.sol\":2070:2108  _insuranceLevels[ClientRiskLevels.MID] */\n  0x02\n  dup2\n  gt\n  iszero\n  tag_11\n  jumpi\n  tag_12\n  tag_8\n  jump\t// in\ntag_12:\ntag_11:\n  0x02\n  dup2\n  gt\n  iszero\n  tag_13\n  jumpi\n  tag_14\n  tag_8\n  jump\t// in\ntag_14:\ntag_13:\n  dup2\n  mstore\n  0x20\n  add\n  swap1\n  dup2\n  mstore\n  0x20\n  add\n  0x00\n  keccak256\n    /* \"contracts/SolarInsurance.sol\":2070:2180  _insuranceLevels[ClientRiskLevels.MID] = InsuranceLevel(... */\n  0x00\n  dup3\n  add\n  mload\n  dup2\n  0x00\n  add\n  sstore\n  0x20\n  dup3\n  add\n  mload\n  dup2\n  0x01\n  add\n  sstore\n  swap1\n  pop\n  pop\n    /* \"contracts/SolarInsurance.sol\":2232:2301  InsuranceLevel(... */\n  mload(0x40)\n  dup1\n  0x40\n  add\n  0x40\n  mstore\n  dup1\n    /* \"contracts/SolarInsurance.sol\":2260:2273  0.00035 ether */\n  0x013e52b9abe000\n    /* \"contracts/SolarInsurance.sol\":2232:2301  InsuranceLevel(... */\n  dup2\n  mstore\n  0x20\n  add\n    /* \"contracts/SolarInsurance.sol\":2287:2291  1803 */\n  0x070b\n    /* \"contracts/SolarInsurance.sol\":2232:2301  InsuranceLevel(... */\n  dup2\n  mstore\n  pop\n    /* \"contracts/SolarInsurance.sol\":2191:2207  _insuranceLevels */\n  0x04\n    /* \"contracts/SolarInsurance.sol\":2191:2229  _insuranceLevels[ClientRiskLevels.LOW] */\n  0x00\n    /* \"contracts/SolarInsurance.sol\":2208:2228  ClientRiskLevels.LOW */\n  0x02\n    /* \"contracts/SolarInsurance.sol\":2191:2229  _insuranceLevels[ClientRiskLevels.LOW] */\n  dup1\n  dup2\n  gt\n  iszero\n  tag_15\n  jumpi\n  tag_16\n  tag_8\n  jump\t// in\ntag_16:\ntag_15:\n  0x02\n  dup2\n  gt\n  iszero\n  tag_17\n  jumpi\n  tag_18\n  tag_8\n  jump\t// in\ntag_18:\ntag_17:\n  dup2\n  mstore\n  0x20\n  add\n  swap1\n  dup2\n  mstore\n  0x20\n  add\n  0x00\n  keccak256\n    /* \"contracts/SolarInsurance.sol\":2191:2301  _insuranceLevels[ClientRiskLevels.LOW] = InsuranceLevel(... */\n  0x00\n  dup3\n  add\n  mload\n  dup2\n  0x00\n  add\n  sstore\n  0x20\n  dup3\n  add\n  mload\n  dup2\n  0x01\n  add\n  sstore\n  swap1\n  pop\n  pop\n    /* \"contracts/SolarInsurance.sol\":186:10888  contract SolarInsurance is Demoable {... */\n  jump(tag_19)\n    /* \"#utility.yul\":7:187   */\ntag_8:\n    /* \"#utility.yul\":55:132   */\n  0x4e487b7100000000000000000000000000000000000000000000000000000000\n    /* \"#utility.yul\":52:53   */\n  0x00\n    /* \"#utility.yul\":45:133   */\n  mstore\n    /* \"#utility.yul\":152:156   */\n  0x21\n    /* \"#utility.yul\":149:150   */\n  0x04\n    /* \"#utility.yul\":142:157   */\n  mstore\n    /* \"#utility.yul\":176:180   */\n  0x24\n    /* \"#utility.yul\":173:174   */\n  0x00\n    /* \"#utility.yul\":166:181   */\n  revert\n    /* \"contracts/SolarInsurance.sol\":186:10888  contract SolarInsurance is Demoable {... */\ntag_19:\n  dataSize(sub_0)\n  dup1\n  dataOffset(sub_0)\n  0x00\n  codecopy\n  0x00\n  return\nstop\n\nsub_0: assembly {\n        /* \"contracts/SolarInsurance.sol\":186:10888  contract SolarInsurance is Demoable {... */\n      mstore(0x40, 0x80)\n      jumpi(tag_1, lt(calldatasize, 0x04))\n      shr(0xe0, calldataload(0x00))\n      dup1\n      0xa8e023eb\n      gt\n      tag_15\n      jumpi\n      dup1\n      0xbfd1a3a7\n      gt\n      tag_16\n      jumpi\n      dup1\n      0xbfd1a3a7\n      eq\n      tag_11\n      jumpi\n      dup1\n      0xcef63600\n      eq\n      tag_12\n      jumpi\n      dup1\n      0xd61909f9\n      eq\n      tag_13\n      jumpi\n      dup1\n      0xe7ebe5e0\n      eq\n      tag_14\n      jumpi\n      jump(tag_1)\n    tag_16:\n      dup1\n      0xa8e023eb\n      eq\n      tag_8\n      jumpi\n      dup1\n      0xb1e70eeb\n      eq\n      tag_9\n      jumpi\n      dup1\n      0xbd097e21\n      eq\n      tag_10\n      jumpi\n      jump(tag_1)\n    tag_15:\n      dup1\n      0x08a9337e\n      eq\n      tag_2\n      jumpi\n      dup1\n      0x1d9aec76\n      eq\n      tag_3\n      jumpi\n      dup1\n      0x41b5e38d\n      eq\n      tag_4\n      jumpi\n      dup1\n      0x51821891\n      eq\n      tag_5\n      jumpi\n      dup1\n      0x8da5cb5b\n      eq\n      tag_6\n      jumpi\n      dup1\n      0x9b36474a\n      eq\n      tag_7\n      jumpi\n    tag_1:\n      0x00\n      dup1\n      revert\n        /* \"contracts/SolarInsurance.sol\":5799:5966  function createSunshineRecord(uint256 year, uint256 duration) public {... */\n    tag_2:\n      callvalue\n      dup1\n      iszero\n      tag_17\n      jumpi\n      0x00\n      dup1\n      revert\n    tag_17:\n      pop\n      tag_18\n      0x04\n      dup1\n      calldatasize\n      sub\n      dup2\n      add\n      swap1\n      tag_19\n      swap2\n      swap1\n      tag_20\n      jump\t// in\n    tag_19:\n      tag_21\n      jump\t// in\n    tag_18:\n      stop\n        /* \"contracts/SolarInsurance.sol\":1753:1802  mapping(address => uint256) public _allowedClaims */\n    tag_3:\n      callvalue\n      dup1\n      iszero\n      tag_22\n      jumpi\n      0x00\n      dup1\n      revert\n    tag_22:\n      pop\n      tag_23\n      0x04\n      dup1\n      calldatasize\n      sub\n      dup2\n      add\n      swap1\n      tag_24\n      swap2\n      swap1\n      tag_25\n      jump\t// in\n    tag_24:\n      tag_26\n      jump\t// in\n    tag_23:\n      mload(0x40)\n      tag_27\n      swap2\n      swap1\n      tag_28\n      jump\t// in\n    tag_27:\n      mload(0x40)\n      dup1\n      swap2\n      sub\n      swap1\n      return\n        /* \"contracts/SolarInsurance.sol\":6404:6996  function fileClaimWithoutTimeoutCheck(uint256 year) public... */\n    tag_4:\n      callvalue\n      dup1\n      iszero\n      tag_29\n      jumpi\n      0x00\n      dup1\n      revert\n    tag_29:\n      pop\n      tag_30\n      0x04\n      dup1\n      calldatasize\n      sub\n      dup2\n      add\n      swap1\n      tag_31\n      swap2\n      swap1\n      tag_32\n      jump\t// in\n    tag_31:\n      tag_33\n      jump\t// in\n    tag_30:\n      stop\n        /* \"contracts/SolarInsurance.sol\":4520:4711  function calculatePremium(ClientRiskLevels riskLevel, uint256 panelArea) public view returns (uint256){... */\n    tag_5:\n      callvalue\n      dup1\n      iszero\n      tag_34\n      jumpi\n      0x00\n      dup1\n      revert\n    tag_34:\n      pop\n      tag_35\n      0x04\n      dup1\n      calldatasize\n      sub\n      dup2\n      add\n      swap1\n      tag_36\n      swap2\n      swap1\n      tag_37\n      jump\t// in\n    tag_36:\n      tag_38\n      jump\t// in\n    tag_35:\n      mload(0x40)\n      tag_39\n      swap2\n      swap1\n      tag_28\n      jump\t// in\n    tag_39:\n      mload(0x40)\n      dup1\n      swap2\n      sub\n      swap1\n      return\n        /* \"contracts/SolarInsurance.sol\":4166:4243  function owner() public view returns (address) {... */\n    tag_6:\n      callvalue\n      dup1\n      iszero\n      tag_40\n      jumpi\n      0x00\n      dup1\n      revert\n    tag_40:\n      pop\n      tag_41\n      tag_42\n      jump\t// in\n    tag_41:\n      mload(0x40)\n      tag_43\n      swap2\n      swap1\n      tag_44\n      jump\t// in\n    tag_43:\n      mload(0x40)\n      dup1\n      swap2\n      sub\n      swap1\n      return\n        /* \"contracts/SolarInsurance.sol\":4305:4459  function getSolarInsurance() public view... */\n    tag_7:\n      callvalue\n      dup1\n      iszero\n      tag_45\n      jumpi\n      0x00\n      dup1\n      revert\n    tag_45:\n      pop\n      tag_46\n      tag_47\n      jump\t// in\n    tag_46:\n      mload(0x40)\n      tag_48\n      swap2\n      swap1\n      tag_49\n      jump\t// in\n    tag_48:\n      mload(0x40)\n      dup1\n      swap2\n      sub\n      swap1\n      return\n        /* \"contracts/SolarInsurance.sol\":2378:3272  function registerPolicy(ClientRiskLevels riskLevel, uint256 panelArea, SwissRegion location) public payable... */\n    tag_8:\n      tag_50\n      0x04\n      dup1\n      calldatasize\n      sub\n      dup2\n      add\n      swap1\n      tag_51\n      swap2\n      swap1\n      tag_52\n      jump\t// in\n    tag_51:\n      tag_53\n      jump\t// in\n    tag_50:\n      stop\n        /* \"contracts/SolarInsurance.sol\":5150:5456  function getRecordsKey(uint256 year) public view returns (string memory){... */\n    tag_9:\n      callvalue\n      dup1\n      iszero\n      tag_54\n      jumpi\n      0x00\n      dup1\n      revert\n    tag_54:\n      pop\n      tag_55\n      0x04\n      dup1\n      calldatasize\n      sub\n      dup2\n      add\n      swap1\n      tag_56\n      swap2\n      swap1\n      tag_32\n      jump\t// in\n    tag_56:\n      tag_57\n      jump\t// in\n    tag_55:\n      mload(0x40)\n      tag_58\n      swap2\n      swap1\n      tag_59\n      jump\t// in\n    tag_58:\n      mload(0x40)\n      dup1\n      swap2\n      sub\n      swap1\n      return\n        /* \"libraries/Demoable.sol\":576:643  function fundContract() public payable requireNonZeroValue {... */\n    tag_10:\n      tag_60\n      tag_61\n      jump\t// in\n    tag_60:\n      stop\n        /* \"contracts/SolarInsurance.sol\":3335:3593  function renewPolicy() public payable... */\n    tag_11:\n      tag_62\n      tag_63\n      jump\t// in\n    tag_62:\n      stop\n        /* \"contracts/SolarInsurance.sol\":4721:5144  function getClaimAmount(uint256 year) public view returns (uint256) {... */\n    tag_12:\n      callvalue\n      dup1\n      iszero\n      tag_64\n      jumpi\n      0x00\n      dup1\n      revert\n    tag_64:\n      pop\n      tag_65\n      0x04\n      dup1\n      calldatasize\n      sub\n      dup2\n      add\n      swap1\n      tag_66\n      swap2\n      swap1\n      tag_32\n      jump\t// in\n    tag_66:\n      tag_67\n      jump\t// in\n    tag_65:\n      mload(0x40)\n      tag_68\n      swap2\n      swap1\n      tag_28\n      jump\t// in\n    tag_68:\n      mload(0x40)\n      dup1\n      swap2\n      sub\n      swap1\n      return\n        /* \"contracts/SolarInsurance.sol\":3652:4112  function fileClaim(uint256 year) public... */\n    tag_13:\n      callvalue\n      dup1\n      iszero\n      tag_69\n      jumpi\n      0x00\n      dup1\n      revert\n    tag_69:\n      pop\n      tag_70\n      0x04\n      dup1\n      calldatasize\n      sub\n      dup2\n      add\n      swap1\n      tag_71\n      swap2\n      swap1\n      tag_32\n      jump\t// in\n    tag_71:\n      tag_72\n      jump\t// in\n    tag_70:\n      stop\n        /* \"contracts/SolarInsurance.sol\":1509:1559  mapping(string => uint256) public _sunshineRecords */\n    tag_14:\n      callvalue\n      dup1\n      iszero\n      tag_73\n      jumpi\n      0x00\n      dup1\n      revert\n    tag_73:\n      pop\n      tag_74\n      0x04\n      dup1\n      calldatasize\n      sub\n      dup2\n      add\n      swap1\n      tag_75\n      swap2\n      swap1\n      tag_76\n      jump\t// in\n    tag_75:\n      tag_77\n      jump\t// in\n    tag_74:\n      mload(0x40)\n      tag_78\n      swap2\n      swap1\n      tag_28\n      jump\t// in\n    tag_78:\n      mload(0x40)\n      dup1\n      swap2\n      sub\n      swap1\n      return\n        /* \"contracts/SolarInsurance.sol\":5799:5966  function createSunshineRecord(uint256 year, uint256 duration) public {... */\n    tag_21:\n        /* \"contracts/SolarInsurance.sol\":5878:5895  string memory key */\n      0x00\n        /* \"contracts/SolarInsurance.sol\":5898:5917  getRecordsKey(year) */\n      tag_80\n        /* \"contracts/SolarInsurance.sol\":5912:5916  year */\n      dup4\n        /* \"contracts/SolarInsurance.sol\":5898:5911  getRecordsKey */\n      tag_57\n        /* \"contracts/SolarInsurance.sol\":5898:5917  getRecordsKey(year) */\n      jump\t// in\n    tag_80:\n        /* \"contracts/SolarInsurance.sol\":5878:5917  string memory key = getRecordsKey(year) */\n      swap1\n      pop\n        /* \"contracts/SolarInsurance.sol\":5951:5959  duration */\n      dup2\n        /* \"contracts/SolarInsurance.sol\":5927:5943  _sunshineRecords */\n      0x05\n        /* \"contracts/SolarInsurance.sol\":5944:5947  key */\n      dup3\n        /* \"contracts/SolarInsurance.sol\":5927:5948  _sunshineRecords[key] */\n      mload(0x40)\n      tag_81\n      swap2\n      swap1\n      tag_82\n      jump\t// in\n    tag_81:\n      swap1\n      dup2\n      mstore\n      0x20\n      add\n      mload(0x40)\n      dup1\n      swap2\n      sub\n      swap1\n      keccak256\n        /* \"contracts/SolarInsurance.sol\":5927:5959  _sunshineRecords[key] = duration */\n      dup2\n      swap1\n      sstore\n      pop\n        /* \"contracts/SolarInsurance.sol\":5868:5966  {... */\n      pop\n        /* \"contracts/SolarInsurance.sol\":5799:5966  function createSunshineRecord(uint256 year, uint256 duration) public {... */\n      pop\n      pop\n      jump\t// out\n        /* \"contracts/SolarInsurance.sol\":1753:1802  mapping(address => uint256) public _allowedClaims */\n    tag_26:\n      mstore(0x20, 0x07)\n      dup1\n      0x00\n      mstore\n      keccak256(0x00, 0x40)\n      0x00\n      swap2\n      pop\n      swap1\n      pop\n      sload\n      dup2\n      jump\t// out\n        /* \"contracts/SolarInsurance.sol\":6404:6996  function fileClaimWithoutTimeoutCheck(uint256 year) public... */\n    tag_33:\n        /* \"contracts/SolarInsurance.sol\":9200:9221  bool policyRegistered */\n      0x00\n        /* \"contracts/SolarInsurance.sol\":9264:9265  0 */\n      dup1\n        /* \"contracts/SolarInsurance.sol\":9224:9266  _policies[msg.sender].client != address(0) */\n      0xffffffffffffffffffffffffffffffffffffffff\n      and\n        /* \"contracts/SolarInsurance.sol\":9224:9233  _policies */\n      0x06\n        /* \"contracts/SolarInsurance.sol\":9224:9245  _policies[msg.sender] */\n      0x00\n        /* \"contracts/SolarInsurance.sol\":9234:9244  msg.sender */\n      caller\n        /* \"contracts/SolarInsurance.sol\":9224:9245  _policies[msg.sender] */\n      0xffffffffffffffffffffffffffffffffffffffff\n      and\n      0xffffffffffffffffffffffffffffffffffffffff\n      and\n      dup2\n      mstore\n      0x20\n      add\n      swap1\n      dup2\n      mstore\n      0x20\n      add\n      0x00\n      keccak256\n        /* \"contracts/SolarInsurance.sol\":9224:9252  _policies[msg.sender].client */\n      0x00\n      add\n      0x00\n      swap1\n      sload\n      swap1\n      0x0100\n      exp\n      swap1\n      div\n      0xffffffffffffffffffffffffffffffffffffffff\n      and\n        /* \"contracts/SolarInsurance.sol\":9224:9266  _policies[msg.sender].client != address(0) */\n      0xffffffffffffffffffffffffffffffffffffffff\n      and\n      eq\n      iszero\n        /* \"contracts/SolarInsurance.sol\":9200:9266  bool policyRegistered = _policies[msg.sender].client != address(0) */\n      swap1\n      pop\n        /* \"contracts/SolarInsurance.sol\":9276:9293  bool policyActive */\n      0x00\n        /* \"contracts/SolarInsurance.sol\":9331:9346  block.timestamp */\n      timestamp\n        /* \"contracts/SolarInsurance.sol\":9296:9305  _policies */\n      0x06\n        /* \"contracts/SolarInsurance.sol\":9296:9317  _policies[msg.sender] */\n      0x00\n        /* \"contracts/SolarInsurance.sol\":9306:9316  msg.sender */\n      caller\n        /* \"contracts/SolarInsurance.sol\":9296:9317  _policies[msg.sender] */\n      0xffffffffffffffffffffffffffffffffffffffff\n      and\n      0xffffffffffffffffffffffffffffffffffffffff\n      and\n      dup2\n      mstore\n      0x20\n      add\n      swap1\n      dup2\n      mstore\n      0x20\n      add\n      0x00\n      keccak256\n        /* \"contracts/SolarInsurance.sol\":9296:9328  _policies[msg.sender].validUntil */\n      0x04\n      add\n      sload\n        /* \"contracts/SolarInsurance.sol\":9296:9346  _policies[msg.sender].validUntil > block.timestamp */\n      gt\n        /* \"contracts/SolarInsurance.sol\":9276:9346  bool policyActive = _policies[msg.sender].validUntil > block.timestamp */\n      swap1\n      pop\n        /* \"contracts/SolarInsurance.sol\":9378:9394  policyRegistered */\n      dup2\n        /* \"contracts/SolarInsurance.sol\":9378:9410  policyRegistered && policyActive */\n      dup1\n      iszero\n      tag_84\n      jumpi\n      pop\n        /* \"contracts/SolarInsurance.sol\":9398:9410  policyActive */\n      dup1\n        /* \"contracts/SolarInsurance.sol\":9378:9410  policyRegistered && policyActive */\n    tag_84:\n        /* \"contracts/SolarInsurance.sol\":9357:9462  require(... */\n      tag_85\n      jumpi\n      mload(0x40)\n      0x08c379a000000000000000000000000000000000000000000000000000000000\n      dup2\n      mstore\n      0x04\n      add\n      tag_86\n      swap1\n      tag_87\n      jump\t// in\n    tag_86:\n      mload(0x40)\n      dup1\n      swap2\n      sub\n      swap1\n      revert\n    tag_85:\n        /* \"contracts/SolarInsurance.sol\":6515:6519  year */\n      dup3\n        /* \"contracts/SolarInsurance.sol\":10695:10715  bool isYearClaimable */\n      0x00\n        /* \"contracts/SolarInsurance.sol\":10748:10752  year */\n      dup2\n        /* \"contracts/SolarInsurance.sol\":10718:10732  _allowedClaims */\n      0x07\n        /* \"contracts/SolarInsurance.sol\":10718:10744  _allowedClaims[msg.sender] */\n      0x00\n        /* \"contracts/SolarInsurance.sol\":10733:10743  msg.sender */\n      caller\n        /* \"contracts/SolarInsurance.sol\":10718:10744  _allowedClaims[msg.sender] */\n      0xffffffffffffffffffffffffffffffffffffffff\n      and\n      0xffffffffffffffffffffffffffffffffffffffff\n      and\n      dup2\n      mstore\n      0x20\n      add\n      swap1\n      dup2\n      mstore\n      0x20\n      add\n      0x00\n      keccak256\n      sload\n        /* \"contracts/SolarInsurance.sol\":10718:10752  _allowedClaims[msg.sender] == year */\n      eq\n        /* \"contracts/SolarInsurance.sol\":10695:10752  bool isYearClaimable = _allowedClaims[msg.sender] == year */\n      swap1\n      pop\n        /* \"contracts/SolarInsurance.sol\":10782:10797  isYearClaimable */\n      dup1\n        /* \"contracts/SolarInsurance.sol\":10762:10868  require(... */\n      tag_89\n      jumpi\n      mload(0x40)\n      0x08c379a000000000000000000000000000000000000000000000000000000000\n      dup2\n      mstore\n      0x04\n      add\n      tag_90\n      swap1\n      tag_91\n      jump\t// in\n    tag_90:\n      mload(0x40)\n      dup1\n      swap2\n      sub\n      swap1\n      revert\n    tag_89:\n        /* \"contracts/SolarInsurance.sol\":6549:6553  year */\n      dup5\n        /* \"contracts/SolarInsurance.sol\":9730:9747  string memory key */\n      0x00\n        /* \"contracts/SolarInsurance.sol\":9750:9769  getRecordsKey(year) */\n      tag_93\n        /* \"contracts/SolarInsurance.sol\":9764:9768  year */\n      dup3\n        /* \"contracts/SolarInsurance.sol\":9750:9763  getRecordsKey */\n      tag_57\n        /* \"contracts/SolarInsurance.sol\":9750:9769  getRecordsKey(year) */\n      jump\t// in\n    tag_93:\n        /* \"contracts/SolarInsurance.sol\":9730:9769  string memory key = getRecordsKey(year) */\n      swap1\n      pop\n        /* \"contracts/SolarInsurance.sol\":9780:9797  bool recordExists */\n      0x00\n        /* \"contracts/SolarInsurance.sol\":9825:9826  0 */\n      dup1\n        /* \"contracts/SolarInsurance.sol\":9800:9816  _sunshineRecords */\n      0x05\n        /* \"contracts/SolarInsurance.sol\":9817:9820  key */\n      dup4\n        /* \"contracts/SolarInsurance.sol\":9800:9821  _sunshineRecords[key] */\n      mload(0x40)\n      tag_94\n      swap2\n      swap1\n      tag_82\n      jump\t// in\n    tag_94:\n      swap1\n      dup2\n      mstore\n      0x20\n      add\n      mload(0x40)\n      dup1\n      swap2\n      sub\n      swap1\n      keccak256\n      sload\n        /* \"contracts/SolarInsurance.sol\":9800:9826  _sunshineRecords[key] != 0 */\n      eq\n      iszero\n        /* \"contracts/SolarInsurance.sol\":9780:9826  bool recordExists = _sunshineRecords[key] != 0 */\n      swap1\n      pop\n        /* \"contracts/SolarInsurance.sol\":9857:9869  recordExists */\n      dup1\n        /* \"contracts/SolarInsurance.sol\":9836:9936  require(... */\n      tag_95\n      jumpi\n      mload(0x40)\n      0x08c379a000000000000000000000000000000000000000000000000000000000\n      dup2\n      mstore\n      0x04\n      add\n      tag_96\n      swap1\n      tag_97\n      jump\t// in\n    tag_96:\n      mload(0x40)\n      dup1\n      swap2\n      sub\n      swap1\n      revert\n    tag_95:\n        /* \"contracts/SolarInsurance.sol\":6604:6623  uint256 claimAmount */\n      0x00\n        /* \"contracts/SolarInsurance.sol\":6626:6646  getClaimAmount(year) */\n      tag_99\n        /* \"contracts/SolarInsurance.sol\":6641:6645  year */\n      dup10\n        /* \"contracts/SolarInsurance.sol\":6626:6640  getClaimAmount */\n      tag_67\n        /* \"contracts/SolarInsurance.sol\":6626:6646  getClaimAmount(year) */\n      jump\t// in\n    tag_99:\n        /* \"contracts/SolarInsurance.sol\":6604:6646  uint256 claimAmount = getClaimAmount(year) */\n      swap1\n      pop\n        /* \"contracts/SolarInsurance.sol\":6716:6726  msg.sender */\n      caller\n        /* \"contracts/SolarInsurance.sol\":6708:6736  payable(msg.sender).transfer */\n      0xffffffffffffffffffffffffffffffffffffffff\n      and\n        /* \"contracts/SolarInsurance.sol\":6708:6749  payable(msg.sender).transfer(claimAmount) */\n      0x08fc\n        /* \"contracts/SolarInsurance.sol\":6737:6748  claimAmount */\n      dup3\n        /* \"contracts/SolarInsurance.sol\":6708:6749  payable(msg.sender).transfer(claimAmount) */\n      swap1\n      dup2\n      iszero\n      mul\n      swap1\n      mload(0x40)\n      0x00\n      mload(0x40)\n      dup1\n      dup4\n      sub\n      dup2\n      dup6\n      dup9\n      dup9\n      call\n      swap4\n      pop\n      pop\n      pop\n      pop\n      iszero\n      dup1\n      iszero\n      tag_101\n      jumpi\n      returndatasize\n      0x00\n      dup1\n      returndatacopy\n      revert(0x00, returndatasize)\n    tag_101:\n      pop\n        /* \"contracts/SolarInsurance.sol\":6830:6882  _policies[msg.sender].claimTimeout.add(1 * 365 days) */\n      tag_102\n        /* \"contracts/SolarInsurance.sol\":6869:6881  1 * 365 days */\n      0x01e13380\n        /* \"contracts/SolarInsurance.sol\":6830:6839  _policies */\n      0x06\n        /* \"contracts/SolarInsurance.sol\":6830:6851  _policies[msg.sender] */\n      0x00\n        /* \"contracts/SolarInsurance.sol\":6840:6850  msg.sender */\n      caller\n        /* \"contracts/SolarInsurance.sol\":6830:6851  _policies[msg.sender] */\n      0xffffffffffffffffffffffffffffffffffffffff\n      and\n      0xffffffffffffffffffffffffffffffffffffffff\n      and\n      dup2\n      mstore\n      0x20\n      add\n      swap1\n      dup2\n      mstore\n      0x20\n      add\n      0x00\n      keccak256\n        /* \"contracts/SolarInsurance.sol\":6830:6864  _policies[msg.sender].claimTimeout */\n      0x05\n      add\n      sload\n        /* \"contracts/SolarInsurance.sol\":6830:6868  _policies[msg.sender].claimTimeout.add */\n      tag_103\n      swap1\n        /* \"contracts/SolarInsurance.sol\":6830:6882  _policies[msg.sender].claimTimeout.add(1 * 365 days) */\n      swap2\n      swap1\n      0xffffffff\n      and\n      jump\t// in\n    tag_102:\n      pop\n        /* \"contracts/SolarInsurance.sol\":6931:6932  0 */\n      0x00\n        /* \"contracts/SolarInsurance.sol\":6896:6905  _policies */\n      0x06\n        /* \"contracts/SolarInsurance.sol\":6896:6917  _policies[msg.sender] */\n      0x00\n        /* \"contracts/SolarInsurance.sol\":6906:6916  msg.sender */\n      caller\n        /* \"contracts/SolarInsurance.sol\":6896:6917  _policies[msg.sender] */\n      0xffffffffffffffffffffffffffffffffffffffff\n      and\n      0xffffffffffffffffffffffffffffffffffffffff\n      and\n      dup2\n      mstore\n      0x20\n      add\n      swap1\n      dup2\n      mstore\n      0x20\n      add\n      0x00\n      keccak256\n        /* \"contracts/SolarInsurance.sol\":6896:6928  _policies[msg.sender].validUntil */\n      0x04\n      add\n      sload\n        /* \"contracts/SolarInsurance.sol\":6896:6932  _policies[msg.sender].validUntil > 0 */\n      gt\n        /* \"contracts/SolarInsurance.sol\":6892:6990  if (_policies[msg.sender].validUntil > 0) {... */\n      iszero\n      tag_104\n      jumpi\n        /* \"contracts/SolarInsurance.sol\":6978:6979  1 */\n      0x01\n        /* \"contracts/SolarInsurance.sol\":6948:6962  _allowedClaims */\n      0x07\n        /* \"contracts/SolarInsurance.sol\":6948:6974  _allowedClaims[msg.sender] */\n      0x00\n        /* \"contracts/SolarInsurance.sol\":6963:6973  msg.sender */\n      caller\n        /* \"contracts/SolarInsurance.sol\":6948:6974  _allowedClaims[msg.sender] */\n      0xffffffffffffffffffffffffffffffffffffffff\n      and\n      0xffffffffffffffffffffffffffffffffffffffff\n      and\n      dup2\n      mstore\n      0x20\n      add\n      swap1\n      dup2\n      mstore\n      0x20\n      add\n      0x00\n      keccak256\n      0x00\n        /* \"contracts/SolarInsurance.sol\":6948:6979  _allowedClaims[msg.sender] += 1 */\n      dup3\n      dup3\n      sload\n      tag_105\n      swap2\n      swap1\n      tag_106\n      jump\t// in\n    tag_105:\n      swap3\n      pop\n      pop\n      dup2\n      swap1\n      sstore\n      pop\n        /* \"contracts/SolarInsurance.sol\":6892:6990  if (_policies[msg.sender].validUntil > 0) {... */\n    tag_104:\n        /* \"contracts/SolarInsurance.sol\":6555:6996  {... */\n      pop\n        /* \"contracts/SolarInsurance.sol\":9720:9954  {... */\n      pop\n      pop\n        /* \"contracts/SolarInsurance.sol\":10878:10879  _ */\n      pop\n        /* \"contracts/SolarInsurance.sol\":10685:10886  {... */\n      pop\n        /* \"contracts/SolarInsurance.sol\":9472:9473  _ */\n      pop\n        /* \"contracts/SolarInsurance.sol\":9190:9480  {... */\n      pop\n      pop\n        /* \"contracts/SolarInsurance.sol\":6404:6996  function fileClaimWithoutTimeoutCheck(uint256 year) public... */\n      pop\n      jump\t// out\n        /* \"contracts/SolarInsurance.sol\":4520:4711  function calculatePremium(ClientRiskLevels riskLevel, uint256 panelArea) public view returns (uint256){... */\n    tag_38:\n        /* \"contracts/SolarInsurance.sol\":4614:4621  uint256 */\n      0x00\n        /* \"contracts/SolarInsurance.sol\":4651:4667  _insuranceLevels */\n      0x04\n        /* \"contracts/SolarInsurance.sol\":4651:4678  _insuranceLevels[riskLevel] */\n      0x00\n        /* \"contracts/SolarInsurance.sol\":4668:4677  riskLevel */\n      dup5\n        /* \"contracts/SolarInsurance.sol\":4651:4678  _insuranceLevels[riskLevel] */\n      0x02\n      dup2\n      gt\n      iszero\n      tag_108\n      jumpi\n      tag_109\n      tag_110\n      jump\t// in\n    tag_109:\n    tag_108:\n      0x02\n      dup2\n      gt\n      iszero\n      tag_111\n      jumpi\n      tag_112\n      tag_110\n      jump\t// in\n    tag_112:\n    tag_111:\n      dup2\n      mstore\n      0x20\n      add\n      swap1\n      dup2\n      mstore\n      0x20\n      add\n      0x00\n      keccak256\n        /* \"contracts/SolarInsurance.sol\":4651:4686  _insuranceLevels[riskLevel].premium */\n      0x00\n      add\n      sload\n        /* \"contracts/SolarInsurance.sol\":4639:4648  panelArea */\n      dup3\n        /* \"contracts/SolarInsurance.sol\":4639:4686  panelArea * _insuranceLevels[riskLevel].premium */\n      tag_113\n      swap2\n      swap1\n      tag_114\n      jump\t// in\n    tag_113:\n        /* \"contracts/SolarInsurance.sol\":4632:4686  return panelArea * _insuranceLevels[riskLevel].premium */\n      swap1\n      pop\n        /* \"contracts/SolarInsurance.sol\":4520:4711  function calculatePremium(ClientRiskLevels riskLevel, uint256 panelArea) public view returns (uint256){... */\n      swap3\n      swap2\n      pop\n      pop\n      jump\t// out\n        /* \"contracts/SolarInsurance.sol\":4166:4243  function owner() public view returns (address) {... */\n    tag_42:\n        /* \"contracts/SolarInsurance.sol\":4204:4211  address */\n      0x00\n        /* \"contracts/SolarInsurance.sol\":4230:4236  _owner */\n      dup1\n      0x00\n      swap1\n      sload\n      swap1\n      0x0100\n      exp\n      swap1\n      div\n      0xffffffffffffffffffffffffffffffffffffffff\n      and\n        /* \"contracts/SolarInsurance.sol\":4223:4236  return _owner */\n      swap1\n      pop\n        /* \"contracts/SolarInsurance.sol\":4166:4243  function owner() public view returns (address) {... */\n      swap1\n      jump\t// out\n        /* \"contracts/SolarInsurance.sol\":4305:4459  function getSolarInsurance() public view... */\n    tag_47:\n        /* \"contracts/SolarInsurance.sol\":4386:4413  SolarInsurancePolicy memory */\n      tag_116\n      tag_117\n      jump\t// in\n    tag_116:\n        /* \"contracts/SolarInsurance.sol\":9200:9221  bool policyRegistered */\n      0x00\n        /* \"contracts/SolarInsurance.sol\":9264:9265  0 */\n      dup1\n        /* \"contracts/SolarInsurance.sol\":9224:9266  _policies[msg.sender].client != address(0) */\n      0xffffffffffffffffffffffffffffffffffffffff\n      and\n        /* \"contracts/SolarInsurance.sol\":9224:9233  _policies */\n      0x06\n        /* \"contracts/SolarInsurance.sol\":9224:9245  _policies[msg.sender] */\n      0x00\n        /* \"contracts/SolarInsurance.sol\":9234:9244  msg.sender */\n      caller\n        /* \"contracts/SolarInsurance.sol\":9224:9245  _policies[msg.sender] */\n      0xffffffffffffffffffffffffffffffffffffffff\n      and\n      0xffffffffffffffffffffffffffffffffffffffff\n      and\n      dup2\n      mstore\n      0x20\n      add\n      swap1\n      dup2\n      mstore\n      0x20\n      add\n      0x00\n      keccak256\n        /* \"contracts/SolarInsurance.sol\":9224:9252  _policies[msg.sender].client */\n      0x00\n      add\n      0x00\n      swap1\n      sload\n      swap1\n      0x0100\n      exp\n      swap1\n      div\n      0xffffffffffffffffffffffffffffffffffffffff\n      and\n        /* \"contracts/SolarInsurance.sol\":9224:9266  _policies[msg.sender].client != address(0) */\n      0xffffffffffffffffffffffffffffffffffffffff\n      and\n      eq\n      iszero\n        /* \"contracts/SolarInsurance.sol\":9200:9266  bool policyRegistered = _policies[msg.sender].client != address(0) */\n      swap1\n      pop\n        /* \"contracts/SolarInsurance.sol\":9276:9293  bool policyActive */\n      0x00\n        /* \"contracts/SolarInsurance.sol\":9331:9346  block.timestamp */\n      timestamp\n        /* \"contracts/SolarInsurance.sol\":9296:9305  _policies */\n      0x06\n        /* \"contracts/SolarInsurance.sol\":9296:9317  _policies[msg.sender] */\n      0x00\n        /* \"contracts/SolarInsurance.sol\":9306:9316  msg.sender */\n      caller\n        /* \"contracts/SolarInsurance.sol\":9296:9317  _policies[msg.sender] */\n      0xffffffffffffffffffffffffffffffffffffffff\n      and\n      0xffffffffffffffffffffffffffffffffffffffff\n      and\n      dup2\n      mstore\n      0x20\n      add\n      swap1\n      dup2\n      mstore\n      0x20\n      add\n      0x00\n      keccak256\n        /* \"contracts/SolarInsurance.sol\":9296:9328  _policies[msg.sender].validUntil */\n      0x04\n      add\n      sload\n        /* \"contracts/SolarInsurance.sol\":9296:9346  _policies[msg.sender].validUntil > block.timestamp */\n      gt\n        /* \"contracts/SolarInsurance.sol\":9276:9346  bool policyActive = _policies[msg.sender].validUntil > block.timestamp */\n      swap1\n      pop\n        /* \"contracts/SolarInsurance.sol\":9378:9394  policyRegistered */\n      dup2\n        /* \"contracts/SolarInsurance.sol\":9378:9410  policyRegistered && policyActive */\n      dup1\n      iszero\n      tag_119\n      jumpi\n      pop\n        /* \"contracts/SolarInsurance.sol\":9398:9410  policyActive */\n      dup1\n        /* \"contracts/SolarInsurance.sol\":9378:9410  policyRegistered && policyActive */\n    tag_119:\n        /* \"contracts/SolarInsurance.sol\":9357:9462  require(... */\n      tag_120\n      jumpi\n      mload(0x40)\n      0x08c379a000000000000000000000000000000000000000000000000000000000\n      dup2\n      mstore\n      0x04\n      add\n      tag_121\n      swap1\n      tag_87\n      jump\t// in\n    tag_121:\n      mload(0x40)\n      dup1\n      swap2\n      sub\n      swap1\n      revert\n    tag_120:\n        /* \"contracts/SolarInsurance.sol\":4431:4440  _policies */\n      0x06\n        /* \"contracts/SolarInsurance.sol\":4431:4452  _policies[msg.sender] */\n      0x00\n        /* \"contracts/SolarInsurance.sol\":4441:4451  msg.sender */\n      caller\n        /* \"contracts/SolarInsurance.sol\":4431:4452  _policies[msg.sender] */\n      0xffffffffffffffffffffffffffffffffffffffff\n      and\n      0xffffffffffffffffffffffffffffffffffffffff\n      and\n      dup2\n      mstore\n      0x20\n      add\n      swap1\n      dup2\n      mstore\n      0x20\n      add\n      0x00\n      keccak256\n        /* \"contracts/SolarInsurance.sol\":4424:4452  return _policies[msg.sender] */\n      mload(0x40)\n      dup1\n      0x0100\n      add\n      0x40\n      mstore\n      swap1\n      dup2\n      0x00\n      dup3\n      add\n      0x00\n      swap1\n      sload\n      swap1\n      0x0100\n      exp\n      swap1\n      div\n      0xffffffffffffffffffffffffffffffffffffffff\n      and\n      0xffffffffffffffffffffffffffffffffffffffff\n      and\n      0xffffffffffffffffffffffffffffffffffffffff\n      and\n      dup2\n      mstore\n      0x20\n      add\n      0x00\n      dup3\n      add\n      0x14\n      swap1\n      sload\n      swap1\n      0x0100\n      exp\n      swap1\n      div\n      0xff\n      and\n      0x01\n      dup2\n      gt\n      iszero\n      tag_123\n      jumpi\n      tag_124\n      tag_110\n      jump\t// in\n    tag_124:\n    tag_123:\n      0x01\n      dup2\n      gt\n      iszero\n      tag_125\n      jumpi\n      tag_126\n      tag_110\n      jump\t// in\n    tag_126:\n    tag_125:\n      dup2\n      mstore\n      0x20\n      add\n      0x00\n      dup3\n      add\n      0x15\n      swap1\n      sload\n      swap1\n      0x0100\n      exp\n      swap1\n      div\n      0xff\n      and\n      0x02\n      dup2\n      gt\n      iszero\n      tag_127\n      jumpi\n      tag_128\n      tag_110\n      jump\t// in\n    tag_128:\n    tag_127:\n      0x02\n      dup2\n      gt\n      iszero\n      tag_129\n      jumpi\n      tag_130\n      tag_110\n      jump\t// in\n    tag_130:\n    tag_129:\n      dup2\n      mstore\n      0x20\n      add\n      0x01\n      dup3\n      add\n      sload\n      dup2\n      mstore\n      0x20\n      add\n      0x02\n      dup3\n      add\n      sload\n      dup2\n      mstore\n      0x20\n      add\n      0x03\n      dup3\n      add\n      sload\n      dup2\n      mstore\n      0x20\n      add\n      0x04\n      dup3\n      add\n      sload\n      dup2\n      mstore\n      0x20\n      add\n      0x05\n      dup3\n      add\n      sload\n      dup2\n      mstore\n      pop\n      pop\n      swap3\n      pop\n        /* \"contracts/SolarInsurance.sol\":9190:9480  {... */\n      pop\n      pop\n        /* \"contracts/SolarInsurance.sol\":4305:4459  function getSolarInsurance() public view... */\n      swap1\n      jump\t// out\n        /* \"contracts/SolarInsurance.sol\":2378:3272  function registerPolicy(ClientRiskLevels riskLevel, uint256 panelArea, SwissRegion location) public payable... */\n    tag_53:\n        /* \"contracts/SolarInsurance.sol\":8629:8652  bool noPolicyRegistered */\n      0x00\n        /* \"contracts/SolarInsurance.sol\":8695:8696  0 */\n      dup1\n        /* \"contracts/SolarInsurance.sol\":8655:8697  _policies[msg.sender].client == address(0) */\n      0xffffffffffffffffffffffffffffffffffffffff\n      and\n        /* \"contracts/SolarInsurance.sol\":8655:8664  _policies */\n      0x06\n        /* \"contracts/SolarInsurance.sol\":8655:8676  _policies[msg.sender] */\n      0x00\n        /* \"contracts/SolarInsurance.sol\":8665:8675  msg.sender */\n      caller\n        /* \"contracts/SolarInsurance.sol\":8655:8676  _policies[msg.sender] */\n      0xffffffffffffffffffffffffffffffffffffffff\n      and\n      0xffffffffffffffffffffffffffffffffffffffff\n      and\n      dup2\n      mstore\n      0x20\n      add\n      swap1\n      dup2\n      mstore\n      0x20\n      add\n      0x00\n      keccak256\n        /* \"contracts/SolarInsurance.sol\":8655:8683  _policies[msg.sender].client */\n      0x00\n      add\n      0x00\n      swap1\n      sload\n      swap1\n      0x0100\n      exp\n      swap1\n      div\n      0xffffffffffffffffffffffffffffffffffffffff\n      and\n        /* \"contracts/SolarInsurance.sol\":8655:8697  _policies[msg.sender].client == address(0) */\n      0xffffffffffffffffffffffffffffffffffffffff\n      and\n      eq\n        /* \"contracts/SolarInsurance.sol\":8629:8697  bool noPolicyRegistered = _policies[msg.sender].client == address(0) */\n      swap1\n      pop\n        /* \"contracts/SolarInsurance.sol\":8707:8727  bool policyNotActive */\n      0x00\n        /* \"contracts/SolarInsurance.sol\":8765:8780  block.timestamp */\n      timestamp\n        /* \"contracts/SolarInsurance.sol\":8730:8739  _policies */\n      0x06\n        /* \"contracts/SolarInsurance.sol\":8730:8751  _policies[msg.sender] */\n      0x00\n        /* \"contracts/SolarInsurance.sol\":8740:8750  msg.sender */\n      caller\n        /* \"contracts/SolarInsurance.sol\":8730:8751  _policies[msg.sender] */\n      0xffffffffffffffffffffffffffffffffffffffff\n      and\n      0xffffffffffffffffffffffffffffffffffffffff\n      and\n      dup2\n      mstore\n      0x20\n      add\n      swap1\n      dup2\n      mstore\n      0x20\n      add\n      0x00\n      keccak256\n        /* \"contracts/SolarInsurance.sol\":8730:8762  _policies[msg.sender].validUntil */\n      0x04\n      add\n      sload\n        /* \"contracts/SolarInsurance.sol\":8730:8780  _policies[msg.sender].validUntil < block.timestamp */\n      lt\n        /* \"contracts/SolarInsurance.sol\":8707:8780  bool policyNotActive = _policies[msg.sender].validUntil < block.timestamp */\n      swap1\n      pop\n        /* \"contracts/SolarInsurance.sol\":8812:8830  noPolicyRegistered */\n      dup2\n        /* \"contracts/SolarInsurance.sol\":8812:8850  noPolicyRegistered ||  policyNotActive */\n      dup1\n      tag_132\n      jumpi\n      pop\n        /* \"contracts/SolarInsurance.sol\":8835:8850  policyNotActive */\n      dup1\n        /* \"contracts/SolarInsurance.sol\":8812:8850  noPolicyRegistered ||  policyNotActive */\n    tag_132:\n        /* \"contracts/SolarInsurance.sol\":8791:8906  require(... */\n      tag_133\n      jumpi\n      mload(0x40)\n      0x08c379a000000000000000000000000000000000000000000000000000000000\n      dup2\n      mstore\n      0x04\n      add\n      tag_134\n      swap1\n      tag_135\n      jump\t// in\n    tag_134:\n      mload(0x40)\n      dup1\n      swap2\n      sub\n      swap1\n      revert\n    tag_133:\n        /* \"contracts/SolarInsurance.sol\":2542:2551  riskLevel */\n      dup5\n        /* \"contracts/SolarInsurance.sol\":2553:2562  panelArea */\n      dup5\n        /* \"contracts/SolarInsurance.sol\":8122:8134  uint256 prem */\n      0x00\n        /* \"contracts/SolarInsurance.sol\":8175:8184  panelArea */\n      dup2\n        /* \"contracts/SolarInsurance.sol\":8137:8153  _insuranceLevels */\n      0x04\n        /* \"contracts/SolarInsurance.sol\":8137:8164  _insuranceLevels[riskLevel] */\n      0x00\n        /* \"contracts/SolarInsurance.sol\":8154:8163  riskLevel */\n      dup6\n        /* \"contracts/SolarInsurance.sol\":8137:8164  _insuranceLevels[riskLevel] */\n      0x02\n      dup2\n      gt\n      iszero\n      tag_137\n      jumpi\n      tag_138\n      tag_110\n      jump\t// in\n    tag_138:\n    tag_137:\n      0x02\n      dup2\n      gt\n      iszero\n      tag_139\n      jumpi\n      tag_140\n      tag_110\n      jump\t// in\n    tag_140:\n    tag_139:\n      dup2\n      mstore\n      0x20\n      add\n      swap1\n      dup2\n      mstore\n      0x20\n      add\n      0x00\n      keccak256\n        /* \"contracts/SolarInsurance.sol\":8137:8172  _insuranceLevels[riskLevel].premium */\n      0x00\n      add\n      sload\n        /* \"contracts/SolarInsurance.sol\":8137:8184  _insuranceLevels[riskLevel].premium * panelArea */\n      tag_141\n      swap2\n      swap1\n      tag_114\n      jump\t// in\n    tag_141:\n        /* \"contracts/SolarInsurance.sol\":8122:8184  uint256 prem = _insuranceLevels[riskLevel].premium * panelArea */\n      swap1\n      pop\n        /* \"contracts/SolarInsurance.sol\":8203:8222  bool premiumCovered */\n      0x00\n        /* \"contracts/SolarInsurance.sol\":8238:8242  prem */\n      dup2\n        /* \"contracts/SolarInsurance.sol\":8225:8234  msg.value */\n      callvalue\n        /* \"contracts/SolarInsurance.sol\":8225:8242  msg.value == prem */\n      eq\n        /* \"contracts/SolarInsurance.sol\":8203:8242  bool premiumCovered = msg.value == prem */\n      swap1\n      pop\n        /* \"contracts/SolarInsurance.sol\":8273:8287  premiumCovered */\n      dup1\n        /* \"contracts/SolarInsurance.sol\":8252:8371  require(... */\n      tag_142\n      jumpi\n      mload(0x40)\n      0x08c379a000000000000000000000000000000000000000000000000000000000\n      dup2\n      mstore\n      0x04\n      add\n      tag_143\n      swap1\n      tag_144\n      jump\t// in\n    tag_143:\n      mload(0x40)\n      dup1\n      swap2\n      sub\n      swap1\n      revert\n    tag_142:\n        /* \"contracts/SolarInsurance.sol\":2602:3033  SolarInsurancePolicy(... */\n      mload(0x40)\n      dup1\n      0x0100\n      add\n      0x40\n      mstore\n      dup1\n        /* \"contracts/SolarInsurance.sol\":2636:2646  msg.sender */\n      caller\n        /* \"contracts/SolarInsurance.sol\":2602:3033  SolarInsurancePolicy(... */\n      0xffffffffffffffffffffffffffffffffffffffff\n      and\n      dup2\n      mstore\n      0x20\n      add\n        /* \"contracts/SolarInsurance.sol\":2670:2678  location */\n      dup9\n        /* \"contracts/SolarInsurance.sol\":2602:3033  SolarInsurancePolicy(... */\n      0x01\n      dup2\n      gt\n      iszero\n      tag_146\n      jumpi\n      tag_147\n      tag_110\n      jump\t// in\n    tag_147:\n    tag_146:\n      dup2\n      mstore\n      0x20\n      add\n        /* \"contracts/SolarInsurance.sol\":2692:2701  riskLevel */\n      dup11\n        /* \"contracts/SolarInsurance.sol\":2602:3033  SolarInsurancePolicy(... */\n      0x02\n      dup2\n      gt\n      iszero\n      tag_148\n      jumpi\n      tag_149\n      tag_110\n      jump\t// in\n    tag_149:\n    tag_148:\n      dup2\n      mstore\n      0x20\n      add\n        /* \"contracts/SolarInsurance.sol\":2715:2724  panelArea */\n      dup10\n        /* \"contracts/SolarInsurance.sol\":2602:3033  SolarInsurancePolicy(... */\n      dup2\n      mstore\n      0x20\n      add\n        /* \"contracts/SolarInsurance.sol\":2750:2766  _insuranceLevels */\n      0x04\n        /* \"contracts/SolarInsurance.sol\":2750:2777  _insuranceLevels[riskLevel] */\n      0x00\n        /* \"contracts/SolarInsurance.sol\":2767:2776  riskLevel */\n      dup13\n        /* \"contracts/SolarInsurance.sol\":2750:2777  _insuranceLevels[riskLevel] */\n      0x02\n      dup2\n      gt\n      iszero\n      tag_150\n      jumpi\n      tag_151\n      tag_110\n      jump\t// in\n    tag_151:\n    tag_150:\n      0x02\n      dup2\n      gt\n      iszero\n      tag_152\n      jumpi\n      tag_153\n      tag_110\n      jump\t// in\n    tag_153:\n    tag_152:\n      dup2\n      mstore\n      0x20\n      add\n      swap1\n      dup2\n      mstore\n      0x20\n      add\n      0x00\n      keccak256\n        /* \"contracts/SolarInsurance.sol\":2750:2785  _insuranceLevels[riskLevel].premium */\n      0x00\n      add\n      sload\n        /* \"contracts/SolarInsurance.sol\":2738:2747  panelArea */\n      dup11\n        /* \"contracts/SolarInsurance.sol\":2738:2785  panelArea * _insuranceLevels[riskLevel].premium */\n      tag_154\n      swap2\n      swap1\n      tag_114\n      jump\t// in\n    tag_154:\n        /* \"contracts/SolarInsurance.sol\":2602:3033  SolarInsurancePolicy(... */\n      dup2\n      mstore\n      0x20\n      add\n        /* \"contracts/SolarInsurance.sol\":2817:2832  block.timestamp */\n      timestamp\n        /* \"contracts/SolarInsurance.sol\":2602:3033  SolarInsurancePolicy(... */\n      dup2\n      mstore\n      0x20\n      add\n        /* \"contracts/SolarInsurance.sol\":2870:2903  block.timestamp.add(1 * 365 days) */\n      tag_155\n        /* \"contracts/SolarInsurance.sol\":2890:2902  1 * 365 days */\n      0x01e13380\n        /* \"contracts/SolarInsurance.sol\":2870:2885  block.timestamp */\n      timestamp\n        /* \"contracts/SolarInsurance.sol\":2870:2889  block.timestamp.add */\n      tag_103\n      swap1\n        /* \"contracts/SolarInsurance.sol\":2870:2903  block.timestamp.add(1 * 365 days) */\n      swap2\n      swap1\n      0xffffffff\n      and\n      jump\t// in\n    tag_155:\n        /* \"contracts/SolarInsurance.sol\":2602:3033  SolarInsurancePolicy(... */\n      dup2\n      mstore\n      0x20\n      add\n        /* \"contracts/SolarInsurance.sol\":2932:2965  block.timestamp.add(1 * 365 days) */\n      tag_156\n        /* \"contracts/SolarInsurance.sol\":2952:2964  1 * 365 days */\n      0x01e13380\n        /* \"contracts/SolarInsurance.sol\":2932:2947  block.timestamp */\n      timestamp\n        /* \"contracts/SolarInsurance.sol\":2932:2951  block.timestamp.add */\n      tag_103\n      swap1\n        /* \"contracts/SolarInsurance.sol\":2932:2965  block.timestamp.add(1 * 365 days) */\n      swap2\n      swap1\n      0xffffffff\n      and\n      jump\t// in\n    tag_156:\n        /* \"contracts/SolarInsurance.sol\":2602:3033  SolarInsurancePolicy(... */\n      dup2\n      mstore\n      pop\n        /* \"contracts/SolarInsurance.sol\":2578:2587  _policies */\n      0x06\n        /* \"contracts/SolarInsurance.sol\":2578:2599  _policies[msg.sender] */\n      0x00\n        /* \"contracts/SolarInsurance.sol\":2588:2598  msg.sender */\n      caller\n        /* \"contracts/SolarInsurance.sol\":2578:2599  _policies[msg.sender] */\n      0xffffffffffffffffffffffffffffffffffffffff\n      and\n      0xffffffffffffffffffffffffffffffffffffffff\n      and\n      dup2\n      mstore\n      0x20\n      add\n      swap1\n      dup2\n      mstore\n      0x20\n      add\n      0x00\n      keccak256\n        /* \"contracts/SolarInsurance.sol\":2578:3033  _policies[msg.sender] = SolarInsurancePolicy(... */\n      0x00\n      dup3\n      add\n      mload\n      dup2\n      0x00\n      add\n      exp(0x0100, 0x00)\n      dup2\n      sload\n      dup2\n      0xffffffffffffffffffffffffffffffffffffffff\n      mul\n      not\n      and\n      swap1\n      dup4\n      0xffffffffffffffffffffffffffffffffffffffff\n      and\n      mul\n      or\n      swap1\n      sstore\n      pop\n      0x20\n      dup3\n      add\n      mload\n      dup2\n      0x00\n      add\n      exp(0x0100, 0x14)\n      dup2\n      sload\n      dup2\n      0xff\n      mul\n      not\n      and\n      swap1\n      dup4\n      0x01\n      dup2\n      gt\n      iszero\n      tag_157\n      jumpi\n      tag_158\n      tag_110\n      jump\t// in\n    tag_158:\n    tag_157:\n      mul\n      or\n      swap1\n      sstore\n      pop\n      0x40\n      dup3\n      add\n      mload\n      dup2\n      0x00\n      add\n      exp(0x0100, 0x15)\n      dup2\n      sload\n      dup2\n      0xff\n      mul\n      not\n      and\n      swap1\n      dup4\n      0x02\n      dup2\n      gt\n      iszero\n      tag_159\n      jumpi\n      tag_160\n      tag_110\n      jump\t// in\n    tag_160:\n    tag_159:\n      mul\n      or\n      swap1\n      sstore\n      pop\n      0x60\n      dup3\n      add\n      mload\n      dup2\n      0x01\n      add\n      sstore\n      0x80\n      dup3\n      add\n      mload\n      dup2\n      0x02\n      add\n      sstore\n      0xa0\n      dup3\n      add\n      mload\n      dup2\n      0x03\n      add\n      sstore\n      0xc0\n      dup3\n      add\n      mload\n      dup2\n      0x04\n      add\n      sstore\n      0xe0\n      dup3\n      add\n      mload\n      dup2\n      0x05\n      add\n      sstore\n      swap1\n      pop\n      pop\n        /* \"contracts/SolarInsurance.sol\":3044:3065  uint256 yearInSeconds */\n      0x00\n        /* \"contracts/SolarInsurance.sol\":3068:3086  60 * 60 * 24 * 365 */\n      0x01e13380\n        /* \"contracts/SolarInsurance.sol\":3044:3086  uint256 yearInSeconds = 60 * 60 * 24 * 365 */\n      swap1\n      pop\n        /* \"contracts/SolarInsurance.sol\":3096:3118  uint256 epochStartYear */\n      0x00\n        /* \"contracts/SolarInsurance.sol\":3121:3125  1970 */\n      0x07b2\n        /* \"contracts/SolarInsurance.sol\":3096:3125  uint256 epochStartYear = 1970 */\n      swap1\n      pop\n        /* \"contracts/SolarInsurance.sol\":3198:3212  epochStartYear */\n      dup1\n        /* \"contracts/SolarInsurance.sol\":3182:3195  yearInSeconds */\n      dup3\n        /* \"contracts/SolarInsurance.sol\":3164:3179  block.timestamp */\n      timestamp\n        /* \"contracts/SolarInsurance.sol\":3164:3195  block.timestamp / yearInSeconds */\n      tag_161\n      swap2\n      swap1\n      tag_162\n      jump\t// in\n    tag_161:\n        /* \"contracts/SolarInsurance.sol\":3164:3212  block.timestamp / yearInSeconds + epochStartYear */\n      tag_163\n      swap2\n      swap1\n      tag_106\n      jump\t// in\n    tag_163:\n        /* \"contracts/SolarInsurance.sol\":3135:3149  _allowedClaims */\n      0x07\n        /* \"contracts/SolarInsurance.sol\":3135:3161  _allowedClaims[msg.sender] */\n      0x00\n        /* \"contracts/SolarInsurance.sol\":3150:3160  msg.sender */\n      caller\n        /* \"contracts/SolarInsurance.sol\":3135:3161  _allowedClaims[msg.sender] */\n      0xffffffffffffffffffffffffffffffffffffffff\n      and\n      0xffffffffffffffffffffffffffffffffffffffff\n      and\n      dup2\n      mstore\n      0x20\n      add\n      swap1\n      dup2\n      mstore\n      0x20\n      add\n      0x00\n      keccak256\n        /* \"contracts/SolarInsurance.sol\":3135:3212  _allowedClaims[msg.sender] = block.timestamp / yearInSeconds + epochStartYear */\n      dup2\n      swap1\n      sstore\n      pop\n        /* \"contracts/SolarInsurance.sol\":3222:3231  _payments */\n      0x09\n        /* \"contracts/SolarInsurance.sol\":3222:3243  _payments[msg.sender] */\n      0x00\n        /* \"contracts/SolarInsurance.sol\":3232:3242  msg.sender */\n      caller\n        /* \"contracts/SolarInsurance.sol\":3222:3243  _payments[msg.sender] */\n      0xffffffffffffffffffffffffffffffffffffffff\n      and\n      0xffffffffffffffffffffffffffffffffffffffff\n      and\n      dup2\n      mstore\n      0x20\n      add\n      swap1\n      dup2\n      mstore\n      0x20\n      add\n      0x00\n      keccak256\n        /* \"contracts/SolarInsurance.sol\":3249:3264  block.timestamp */\n      timestamp\n        /* \"contracts/SolarInsurance.sol\":3222:3265  _payments[msg.sender].push(block.timestamp) */\n      swap1\n      dup1\n      0x01\n      dup2\n      sload\n      add\n      dup1\n      dup3\n      sstore\n      dup1\n      swap2\n      pop\n      pop\n      0x01\n      swap1\n      sub\n      swap1\n      0x00\n      mstore\n      keccak256(0x00, 0x20)\n      add\n      0x00\n      swap1\n      swap2\n      swap1\n      swap2\n      swap1\n      swap2\n      pop\n      sstore\n        /* \"contracts/SolarInsurance.sol\":2568:3272  {... */\n      pop\n      pop\n        /* \"contracts/SolarInsurance.sol\":8024:8389  {... */\n      pop\n      pop\n        /* \"contracts/SolarInsurance.sol\":8916:8917  _ */\n      pop\n      pop\n        /* \"contracts/SolarInsurance.sol\":8619:8924  {... */\n      pop\n      pop\n        /* \"contracts/SolarInsurance.sol\":2378:3272  function registerPolicy(ClientRiskLevels riskLevel, uint256 panelArea, SwissRegion location) public payable... */\n      pop\n      pop\n      pop\n      jump\t// out\n        /* \"contracts/SolarInsurance.sol\":5150:5456  function getRecordsKey(uint256 year) public view returns (string memory){... */\n    tag_57:\n        /* \"contracts/SolarInsurance.sol\":5208:5221  string memory */\n      0x60\n        /* \"contracts/SolarInsurance.sol\":5232:5252  bool isLocationSouth */\n      0x00\n        /* \"contracts/SolarInsurance.sol\":5294:5311  SwissRegion.SOUTH */\n      dup1\n        /* \"contracts/SolarInsurance.sol\":5255:5311  _policies[msg.sender].panelLocation == SwissRegion.SOUTH */\n      0x01\n      dup2\n      gt\n      iszero\n      tag_166\n      jumpi\n      tag_167\n      tag_110\n      jump\t// in\n    tag_167:\n    tag_166:\n        /* \"contracts/SolarInsurance.sol\":5255:5264  _policies */\n      0x06\n        /* \"contracts/SolarInsurance.sol\":5255:5276  _policies[msg.sender] */\n      0x00\n        /* \"contracts/SolarInsurance.sol\":5265:5275  msg.sender */\n      caller\n        /* \"contracts/SolarInsurance.sol\":5255:5276  _policies[msg.sender] */\n      0xffffffffffffffffffffffffffffffffffffffff\n      and\n      0xffffffffffffffffffffffffffffffffffffffff\n      and\n      dup2\n      mstore\n      0x20\n      add\n      swap1\n      dup2\n      mstore\n      0x20\n      add\n      0x00\n      keccak256\n        /* \"contracts/SolarInsurance.sol\":5255:5290  _policies[msg.sender].panelLocation */\n      0x00\n      add\n      0x14\n      swap1\n      sload\n      swap1\n      0x0100\n      exp\n      swap1\n      div\n      0xff\n      and\n        /* \"contracts/SolarInsurance.sol\":5255:5311  _policies[msg.sender].panelLocation == SwissRegion.SOUTH */\n      0x01\n      dup2\n      gt\n      iszero\n      tag_168\n      jumpi\n      tag_169\n      tag_110\n      jump\t// in\n    tag_169:\n    tag_168:\n      eq\n        /* \"contracts/SolarInsurance.sol\":5232:5311  bool isLocationSouth = _policies[msg.sender].panelLocation == SwissRegion.SOUTH */\n      swap1\n      pop\n        /* \"contracts/SolarInsurance.sol\":5321:5338  string memory key */\n      0x00\n        /* \"contracts/SolarInsurance.sol\":5341:5356  isLocationSouth */\n      dup2\n        /* \"contracts/SolarInsurance.sol\":5341:5428  isLocationSouth ? Utils.getRecordId(year, \"_SOUTH\") : Utils.getRecordId(year, \"_NORTH\") */\n      tag_170\n      jumpi\n        /* \"contracts/SolarInsurance.sol\":5395:5428  Utils.getRecordId(year, \"_NORTH\") */\n      tag_171\n        /* \"contracts/SolarInsurance.sol\":5413:5417  year */\n      dup5\n        /* \"contracts/SolarInsurance.sol\":5395:5428  Utils.getRecordId(year, \"_NORTH\") */\n      mload(0x40)\n      dup1\n      0x40\n      add\n      0x40\n      mstore\n      dup1\n      0x06\n      dup2\n      mstore\n      0x20\n      add\n      0x5f4e4f5254480000000000000000000000000000000000000000000000000000\n      dup2\n      mstore\n      pop\n        /* \"contracts/SolarInsurance.sol\":5395:5412  Utils.getRecordId */\n      tag_172\n        /* \"contracts/SolarInsurance.sol\":5395:5428  Utils.getRecordId(year, \"_NORTH\") */\n      jump\t// in\n    tag_171:\n        /* \"contracts/SolarInsurance.sol\":5341:5428  isLocationSouth ? Utils.getRecordId(year, \"_SOUTH\") : Utils.getRecordId(year, \"_NORTH\") */\n      jump(tag_173)\n    tag_170:\n        /* \"contracts/SolarInsurance.sol\":5359:5392  Utils.getRecordId(year, \"_SOUTH\") */\n      tag_174\n        /* \"contracts/SolarInsurance.sol\":5377:5381  year */\n      dup5\n        /* \"contracts/SolarInsurance.sol\":5359:5392  Utils.getRecordId(year, \"_SOUTH\") */\n      mload(0x40)\n      dup1\n      0x40\n      add\n      0x40\n      mstore\n      dup1\n      0x06\n      dup2\n      mstore\n      0x20\n      add\n      0x5f534f5554480000000000000000000000000000000000000000000000000000\n      dup2\n      mstore\n      pop\n        /* \"contracts/SolarInsurance.sol\":5359:5376  Utils.getRecordId */\n      tag_172\n        /* \"contracts/SolarInsurance.sol\":5359:5392  Utils.getRecordId(year, \"_SOUTH\") */\n      jump\t// in\n    tag_174:\n        /* \"contracts/SolarInsurance.sol\":5341:5428  isLocationSouth ? Utils.getRecordId(year, \"_SOUTH\") : Utils.getRecordId(year, \"_NORTH\") */\n    tag_173:\n        /* \"contracts/SolarInsurance.sol\":5321:5428  string memory key = isLocationSouth ? Utils.getRecordId(year, \"_SOUTH\") : Utils.getRecordId(year, \"_NORTH\") */\n      swap1\n      pop\n        /* \"contracts/SolarInsurance.sol\":5446:5449  key */\n      dup1\n        /* \"contracts/SolarInsurance.sol\":5439:5449  return key */\n      swap3\n      pop\n      pop\n      pop\n        /* \"contracts/SolarInsurance.sol\":5150:5456  function getRecordsKey(uint256 year) public view returns (string memory){... */\n      swap2\n      swap1\n      pop\n      jump\t// out\n        /* \"libraries/Demoable.sol\":576:643  function fundContract() public payable requireNonZeroValue {... */\n    tag_61:\n        /* \"libraries/Demoable.sol\":711:712  0 */\n      0x00\n        /* \"libraries/Demoable.sol\":699:708  msg.value */\n      callvalue\n        /* \"libraries/Demoable.sol\":699:712  msg.value > 0 */\n      gt\n        /* \"libraries/Demoable.sol\":691:748  require(msg.value > 0, \"Cannot load the contract with 0\") */\n      tag_176\n      jumpi\n      mload(0x40)\n      0x08c379a000000000000000000000000000000000000000000000000000000000\n      dup2\n      mstore\n      0x04\n      add\n      tag_177\n      swap1\n      tag_178\n      jump\t// in\n    tag_177:\n      mload(0x40)\n      dup1\n      swap2\n      sub\n      swap1\n      revert\n    tag_176:\n        /* \"libraries/Demoable.sol\":576:643  function fundContract() public payable requireNonZeroValue {... */\n      jump\t// out\n        /* \"contracts/SolarInsurance.sol\":3335:3593  function renewPolicy() public payable... */\n    tag_63:\n        /* \"contracts/SolarInsurance.sol\":9200:9221  bool policyRegistered */\n      0x00\n        /* \"contracts/SolarInsurance.sol\":9264:9265  0 */\n      dup1\n        /* \"contracts/SolarInsurance.sol\":9224:9266  _policies[msg.sender].client != address(0) */\n      0xffffffffffffffffffffffffffffffffffffffff\n      and\n        /* \"contracts/SolarInsurance.sol\":9224:9233  _policies */\n      0x06\n        /* \"contracts/SolarInsurance.sol\":9224:9245  _policies[msg.sender] */\n      0x00\n        /* \"contracts/SolarInsurance.sol\":9234:9244  msg.sender */\n      caller\n        /* \"contracts/SolarInsurance.sol\":9224:9245  _policies[msg.sender] */\n      0xffffffffffffffffffffffffffffffffffffffff\n      and\n      0xffffffffffffffffffffffffffffffffffffffff\n      and\n      dup2\n      mstore\n      0x20\n      add\n      swap1\n      dup2\n      mstore\n      0x20\n      add\n      0x00\n      keccak256\n        /* \"contracts/SolarInsurance.sol\":9224:9252  _policies[msg.sender].client */\n      0x00\n      add\n      0x00\n      swap1\n      sload\n      swap1\n      0x0100\n      exp\n      swap1\n      div\n      0xffffffffffffffffffffffffffffffffffffffff\n      and\n        /* \"contracts/SolarInsurance.sol\":9224:9266  _policies[msg.sender].client != address(0) */\n      0xffffffffffffffffffffffffffffffffffffffff\n      and\n      eq\n      iszero\n        /* \"contracts/SolarInsurance.sol\":9200:9266  bool policyRegistered = _policies[msg.sender].client != address(0) */\n      swap1\n      pop\n        /* \"contracts/SolarInsurance.sol\":9276:9293  bool policyActive */\n      0x00\n        /* \"contracts/SolarInsurance.sol\":9331:9346  block.timestamp */\n      timestamp\n        /* \"contracts/SolarInsurance.sol\":9296:9305  _policies */\n      0x06\n        /* \"contracts/SolarInsurance.sol\":9296:9317  _policies[msg.sender] */\n      0x00\n        /* \"contracts/SolarInsurance.sol\":9306:9316  msg.sender */\n      caller\n        /* \"contracts/SolarInsurance.sol\":9296:9317  _policies[msg.sender] */\n      0xffffffffffffffffffffffffffffffffffffffff\n      and\n      0xffffffffffffffffffffffffffffffffffffffff\n      and\n      dup2\n      mstore\n      0x20\n      add\n      swap1\n      dup2\n      mstore\n      0x20\n      add\n      0x00\n      keccak256\n        /* \"contracts/SolarInsurance.sol\":9296:9328  _policies[msg.sender].validUntil */\n      0x04\n      add\n      sload\n        /* \"contracts/SolarInsurance.sol\":9296:9346  _policies[msg.sender].validUntil > block.timestamp */\n      gt\n        /* \"contracts/SolarInsurance.sol\":9276:9346  bool policyActive = _policies[msg.sender].validUntil > block.timestamp */\n      swap1\n      pop\n        /* \"contracts/SolarInsurance.sol\":9378:9394  policyRegistered */\n      dup2\n        /* \"contracts/SolarInsurance.sol\":9378:9410  policyRegistered && policyActive */\n      dup1\n      iszero\n      tag_181\n      jumpi\n      pop\n        /* \"contracts/SolarInsurance.sol\":9398:9410  policyActive */\n      dup1\n        /* \"contracts/SolarInsurance.sol\":9378:9410  policyRegistered && policyActive */\n    tag_181:\n        /* \"contracts/SolarInsurance.sol\":9357:9462  require(... */\n      tag_182\n      jumpi\n      mload(0x40)\n      0x08c379a000000000000000000000000000000000000000000000000000000000\n      dup2\n      mstore\n      0x04\n      add\n      tag_183\n      swap1\n      tag_87\n      jump\t// in\n    tag_183:\n      mload(0x40)\n      dup1\n      swap2\n      sub\n      swap1\n      revert\n    tag_182:\n        /* \"contracts/SolarInsurance.sol\":3439:3448  _policies */\n      0x06\n        /* \"contracts/SolarInsurance.sol\":3439:3460  _policies[msg.sender] */\n      0x00\n        /* \"contracts/SolarInsurance.sol\":3449:3459  msg.sender */\n      caller\n        /* \"contracts/SolarInsurance.sol\":3439:3460  _policies[msg.sender] */\n      0xffffffffffffffffffffffffffffffffffffffff\n      and\n      0xffffffffffffffffffffffffffffffffffffffff\n      and\n      dup2\n      mstore\n      0x20\n      add\n      swap1\n      dup2\n      mstore\n      0x20\n      add\n      0x00\n      keccak256\n        /* \"contracts/SolarInsurance.sol\":3439:3470  _policies[msg.sender].riskLevel */\n      0x00\n      add\n      0x15\n      swap1\n      sload\n      swap1\n      0x0100\n      exp\n      swap1\n      div\n      0xff\n      and\n        /* \"contracts/SolarInsurance.sol\":3484:3493  _policies */\n      0x06\n        /* \"contracts/SolarInsurance.sol\":3484:3505  _policies[msg.sender] */\n      0x00\n        /* \"contracts/SolarInsurance.sol\":3494:3504  msg.sender */\n      caller\n        /* \"contracts/SolarInsurance.sol\":3484:3505  _policies[msg.sender] */\n      0xffffffffffffffffffffffffffffffffffffffff\n      and\n      0xffffffffffffffffffffffffffffffffffffffff\n      and\n      dup2\n      mstore\n      0x20\n      add\n      swap1\n      dup2\n      mstore\n      0x20\n      add\n      0x00\n      keccak256\n        /* \"contracts/SolarInsurance.sol\":3484:3515  _policies[msg.sender].panelArea */\n      0x01\n      add\n      sload\n        /* \"contracts/SolarInsurance.sol\":8122:8134  uint256 prem */\n      0x00\n        /* \"contracts/SolarInsurance.sol\":8175:8184  panelArea */\n      dup2\n        /* \"contracts/SolarInsurance.sol\":8137:8153  _insuranceLevels */\n      0x04\n        /* \"contracts/SolarInsurance.sol\":8137:8164  _insuranceLevels[riskLevel] */\n      0x00\n        /* \"contracts/SolarInsurance.sol\":8154:8163  riskLevel */\n      dup6\n        /* \"contracts/SolarInsurance.sol\":8137:8164  _insuranceLevels[riskLevel] */\n      0x02\n      dup2\n      gt\n      iszero\n      tag_185\n      jumpi\n      tag_186\n      tag_110\n      jump\t// in\n    tag_186:\n    tag_185:\n      0x02\n      dup2\n      gt\n      iszero\n      tag_187\n      jumpi\n      tag_188\n      tag_110\n      jump\t// in\n    tag_188:\n    tag_187:\n      dup2\n      mstore\n      0x20\n      add\n      swap1\n      dup2\n      mstore\n      0x20\n      add\n      0x00\n      keccak256\n        /* \"contracts/SolarInsurance.sol\":8137:8172  _insuranceLevels[riskLevel].premium */\n      0x00\n      add\n      sload\n        /* \"contracts/SolarInsurance.sol\":8137:8184  _insuranceLevels[riskLevel].premium * panelArea */\n      tag_189\n      swap2\n      swap1\n      tag_114\n      jump\t// in\n    tag_189:\n        /* \"contracts/SolarInsurance.sol\":8122:8184  uint256 prem = _insuranceLevels[riskLevel].premium * panelArea */\n      swap1\n      pop\n        /* \"contracts/SolarInsurance.sol\":8203:8222  bool premiumCovered */\n      0x00\n        /* \"contracts/SolarInsurance.sol\":8238:8242  prem */\n      dup2\n        /* \"contracts/SolarInsurance.sol\":8225:8234  msg.value */\n      callvalue\n        /* \"contracts/SolarInsurance.sol\":8225:8242  msg.value == prem */\n      eq\n        /* \"contracts/SolarInsurance.sol\":8203:8242  bool premiumCovered = msg.value == prem */\n      swap1\n      pop\n        /* \"contracts/SolarInsurance.sol\":8273:8287  premiumCovered */\n      dup1\n        /* \"contracts/SolarInsurance.sol\":8252:8371  require(... */\n      tag_190\n      jumpi\n      mload(0x40)\n      0x08c379a000000000000000000000000000000000000000000000000000000000\n      dup2\n      mstore\n      0x04\n      add\n      tag_191\n      swap1\n      tag_144\n      jump\t// in\n    tag_191:\n      mload(0x40)\n      dup1\n      swap2\n      sub\n      swap1\n      revert\n    tag_190:\n        /* \"contracts/SolarInsurance.sol\":3540:3586  _policies[msg.sender].validUntil.add(365 days) */\n      tag_193\n        /* \"contracts/SolarInsurance.sol\":3577:3585  365 days */\n      0x01e13380\n        /* \"contracts/SolarInsurance.sol\":3540:3549  _policies */\n      0x06\n        /* \"contracts/SolarInsurance.sol\":3540:3561  _policies[msg.sender] */\n      0x00\n        /* \"contracts/SolarInsurance.sol\":3550:3560  msg.sender */\n      caller\n        /* \"contracts/SolarInsurance.sol\":3540:3561  _policies[msg.sender] */\n      0xffffffffffffffffffffffffffffffffffffffff\n      and\n      0xffffffffffffffffffffffffffffffffffffffff\n      and\n      dup2\n      mstore\n      0x20\n      add\n      swap1\n      dup2\n      mstore\n      0x20\n      add\n      0x00\n      keccak256\n        /* \"contracts/SolarInsurance.sol\":3540:3572  _policies[msg.sender].validUntil */\n      0x04\n      add\n      sload\n        /* \"contracts/SolarInsurance.sol\":3540:3576  _policies[msg.sender].validUntil.add */\n      tag_103\n      swap1\n        /* \"contracts/SolarInsurance.sol\":3540:3586  _policies[msg.sender].validUntil.add(365 days) */\n      swap2\n      swap1\n      0xffffffff\n      and\n      jump\t// in\n    tag_193:\n      pop\n        /* \"contracts/SolarInsurance.sol\":8024:8389  {... */\n      pop\n      pop\n        /* \"contracts/SolarInsurance.sol\":9472:9473  _ */\n      pop\n      pop\n        /* \"contracts/SolarInsurance.sol\":9190:9480  {... */\n      pop\n      pop\n        /* \"contracts/SolarInsurance.sol\":3335:3593  function renewPolicy() public payable... */\n      jump\t// out\n        /* \"contracts/SolarInsurance.sol\":4721:5144  function getClaimAmount(uint256 year) public view returns (uint256) {... */\n    tag_67:\n        /* \"contracts/SolarInsurance.sol\":4780:4787  uint256 */\n      0x00\n        /* \"contracts/SolarInsurance.sol\":4799:4816  string memory key */\n      dup1\n        /* \"contracts/SolarInsurance.sol\":4819:4838  getRecordsKey(year) */\n      tag_195\n        /* \"contracts/SolarInsurance.sol\":4833:4837  year */\n      dup4\n        /* \"contracts/SolarInsurance.sol\":4819:4832  getRecordsKey */\n      tag_57\n        /* \"contracts/SolarInsurance.sol\":4819:4838  getRecordsKey(year) */\n      jump\t// in\n    tag_195:\n        /* \"contracts/SolarInsurance.sol\":4799:4838  string memory key = getRecordsKey(year) */\n      swap1\n      pop\n        /* \"contracts/SolarInsurance.sol\":4849:4878  SolarInsurancePolicy memory p */\n      0x00\n        /* \"contracts/SolarInsurance.sol\":4881:4890  _policies */\n      0x06\n        /* \"contracts/SolarInsurance.sol\":4881:4902  _policies[msg.sender] */\n      0x00\n        /* \"contracts/SolarInsurance.sol\":4891:4901  msg.sender */\n      caller\n        /* \"contracts/SolarInsurance.sol\":4881:4902  _policies[msg.sender] */\n      0xffffffffffffffffffffffffffffffffffffffff\n      and\n      0xffffffffffffffffffffffffffffffffffffffff\n      and\n      dup2\n      mstore\n      0x20\n      add\n      swap1\n      dup2\n      mstore\n      0x20\n      add\n      0x00\n      keccak256\n        /* \"contracts/SolarInsurance.sol\":4849:4902  SolarInsurancePolicy memory p = _policies[msg.sender] */\n      mload(0x40)\n      dup1\n      0x0100\n      add\n      0x40\n      mstore\n      swap1\n      dup2\n      0x00\n      dup3\n      add\n      0x00\n      swap1\n      sload\n      swap1\n      0x0100\n      exp\n      swap1\n      div\n      0xffffffffffffffffffffffffffffffffffffffff\n      and\n      0xffffffffffffffffffffffffffffffffffffffff\n      and\n      0xffffffffffffffffffffffffffffffffffffffff\n      and\n      dup2\n      mstore\n      0x20\n      add\n      0x00\n      dup3\n      add\n      0x14\n      swap1\n      sload\n      swap1\n      0x0100\n      exp\n      swap1\n      div\n      0xff\n      and\n      0x01\n      dup2\n      gt\n      iszero\n      tag_196\n      jumpi\n      tag_197\n      tag_110\n      jump\t// in\n    tag_197:\n    tag_196:\n      0x01\n      dup2\n      gt\n      iszero\n      tag_198\n      jumpi\n      tag_199\n      tag_110\n      jump\t// in\n    tag_199:\n    tag_198:\n      dup2\n      mstore\n      0x20\n      add\n      0x00\n      dup3\n      add\n      0x15\n      swap1\n      sload\n      swap1\n      0x0100\n      exp\n      swap1\n      div\n      0xff\n      and\n      0x02\n      dup2\n      gt\n      iszero\n      tag_200\n      jumpi\n      tag_201\n      tag_110\n      jump\t// in\n    tag_201:\n    tag_200:\n      0x02\n      dup2\n      gt\n      iszero\n      tag_202\n      jumpi\n      tag_203\n      tag_110\n      jump\t// in\n    tag_203:\n    tag_202:\n      dup2\n      mstore\n      0x20\n      add\n      0x01\n      dup3\n      add\n      sload\n      dup2\n      mstore\n      0x20\n      add\n      0x02\n      dup3\n      add\n      sload\n      dup2\n      mstore\n      0x20\n      add\n      0x03\n      dup3\n      add\n      sload\n      dup2\n      mstore\n      0x20\n      add\n      0x04\n      dup3\n      add\n      sload\n      dup2\n      mstore\n      0x20\n      add\n      0x05\n      dup3\n      add\n      sload\n      dup2\n      mstore\n      pop\n      pop\n      swap1\n      pop\n        /* \"contracts/SolarInsurance.sol\":4912:4933  uint256 sunshineDelta */\n      0x00\n        /* \"contracts/SolarInsurance.sol\":4981:4997  _sunshineRecords */\n      0x05\n        /* \"contracts/SolarInsurance.sol\":4998:5001  key */\n      dup4\n        /* \"contracts/SolarInsurance.sol\":4981:5002  _sunshineRecords[key] */\n      mload(0x40)\n      tag_204\n      swap2\n      swap1\n      tag_82\n      jump\t// in\n    tag_204:\n      swap1\n      dup2\n      mstore\n      0x20\n      add\n      mload(0x40)\n      dup1\n      swap2\n      sub\n      swap1\n      keccak256\n      sload\n        /* \"contracts/SolarInsurance.sol\":4936:4952  _insuranceLevels */\n      0x04\n        /* \"contracts/SolarInsurance.sol\":4936:4965  _insuranceLevels[p.riskLevel] */\n      0x00\n        /* \"contracts/SolarInsurance.sol\":4953:4954  p */\n      dup5\n        /* \"contracts/SolarInsurance.sol\":4953:4964  p.riskLevel */\n      0x40\n      add\n      mload\n        /* \"contracts/SolarInsurance.sol\":4936:4965  _insuranceLevels[p.riskLevel] */\n      0x02\n      dup2\n      gt\n      iszero\n      tag_205\n      jumpi\n      tag_206\n      tag_110\n      jump\t// in\n    tag_206:\n    tag_205:\n      0x02\n      dup2\n      gt\n      iszero\n      tag_207\n      jumpi\n      tag_208\n      tag_110\n      jump\t// in\n    tag_208:\n    tag_207:\n      dup2\n      mstore\n      0x20\n      add\n      swap1\n      dup2\n      mstore\n      0x20\n      add\n      0x00\n      keccak256\n        /* \"contracts/SolarInsurance.sol\":4936:4978  _insuranceLevels[p.riskLevel].insuredHours */\n      0x01\n      add\n      sload\n        /* \"contracts/SolarInsurance.sol\":4936:5002  _insuranceLevels[p.riskLevel].insuredHours - _sunshineRecords[key] */\n      tag_209\n      swap2\n      swap1\n      tag_210\n      jump\t// in\n    tag_209:\n        /* \"contracts/SolarInsurance.sol\":4912:5002  uint256 sunshineDelta = _insuranceLevels[p.riskLevel].insuredHours - _sunshineRecords[key] */\n      swap1\n      pop\n        /* \"contracts/SolarInsurance.sol\":5012:5026  uint256 amount */\n      0x00\n        /* \"contracts/SolarInsurance.sol\":5092:5105  _ENERGY_PRICE */\n      sload(0x01)\n        /* \"contracts/SolarInsurance.sol\":5078:5079  p */\n      dup4\n        /* \"contracts/SolarInsurance.sol\":5078:5089  p.panelArea */\n      0x60\n      add\n      mload\n        /* \"contracts/SolarInsurance.sol\":5064:5075  _EFFICIENCY */\n      sload(0x03)\n        /* \"contracts/SolarInsurance.sol\":5048:5061  sunshineDelta */\n      dup5\n        /* \"contracts/SolarInsurance.sol\":5029:5045  _RADIATION_VALUE */\n      sload(0x02)\n        /* \"contracts/SolarInsurance.sol\":5029:5061  _RADIATION_VALUE * sunshineDelta */\n      tag_211\n      swap2\n      swap1\n      tag_114\n      jump\t// in\n    tag_211:\n        /* \"contracts/SolarInsurance.sol\":5029:5075  _RADIATION_VALUE * sunshineDelta * _EFFICIENCY */\n      tag_212\n      swap2\n      swap1\n      tag_114\n      jump\t// in\n    tag_212:\n        /* \"contracts/SolarInsurance.sol\":5029:5089  _RADIATION_VALUE * sunshineDelta * _EFFICIENCY * p.panelArea */\n      tag_213\n      swap2\n      swap1\n      tag_114\n      jump\t// in\n    tag_213:\n        /* \"contracts/SolarInsurance.sol\":5029:5105  _RADIATION_VALUE * sunshineDelta * _EFFICIENCY * p.panelArea * _ENERGY_PRICE */\n      tag_214\n      swap2\n      swap1\n      tag_114\n      jump\t// in\n    tag_214:\n        /* \"contracts/SolarInsurance.sol\":5012:5105  uint256 amount = _RADIATION_VALUE * sunshineDelta * _EFFICIENCY * p.panelArea * _ENERGY_PRICE */\n      swap1\n      pop\n        /* \"contracts/SolarInsurance.sol\":5131:5137  100000 */\n      0x0186a0\n        /* \"contracts/SolarInsurance.sol\":5122:5128  amount */\n      dup2\n        /* \"contracts/SolarInsurance.sol\":5122:5137  amount / 100000 */\n      tag_215\n      swap2\n      swap1\n      tag_162\n      jump\t// in\n    tag_215:\n        /* \"contracts/SolarInsurance.sol\":5115:5137  return amount / 100000 */\n      swap5\n      pop\n      pop\n      pop\n      pop\n      pop\n        /* \"contracts/SolarInsurance.sol\":4721:5144  function getClaimAmount(uint256 year) public view returns (uint256) {... */\n      swap2\n      swap1\n      pop\n      jump\t// out\n        /* \"contracts/SolarInsurance.sol\":3652:4112  function fileClaim(uint256 year) public... */\n    tag_72:\n        /* \"contracts/SolarInsurance.sol\":9200:9221  bool policyRegistered */\n      0x00\n        /* \"contracts/SolarInsurance.sol\":9264:9265  0 */\n      dup1\n        /* \"contracts/SolarInsurance.sol\":9224:9266  _policies[msg.sender].client != address(0) */\n      0xffffffffffffffffffffffffffffffffffffffff\n      and\n        /* \"contracts/SolarInsurance.sol\":9224:9233  _policies */\n      0x06\n        /* \"contracts/SolarInsurance.sol\":9224:9245  _policies[msg.sender] */\n      0x00\n        /* \"contracts/SolarInsurance.sol\":9234:9244  msg.sender */\n      caller\n        /* \"contracts/SolarInsurance.sol\":9224:9245  _policies[msg.sender] */\n      0xffffffffffffffffffffffffffffffffffffffff\n      and\n      0xffffffffffffffffffffffffffffffffffffffff\n      and\n      dup2\n      mstore\n      0x20\n      add\n      swap1\n      dup2\n      mstore\n      0x20\n      add\n      0x00\n      keccak256\n        /* \"contracts/SolarInsurance.sol\":9224:9252  _policies[msg.sender].client */\n      0x00\n      add\n      0x00\n      swap1\n      sload\n      swap1\n      0x0100\n      exp\n      swap1\n      div\n      0xffffffffffffffffffffffffffffffffffffffff\n      and\n        /* \"contracts/SolarInsurance.sol\":9224:9266  _policies[msg.sender].client != address(0) */\n      0xffffffffffffffffffffffffffffffffffffffff\n      and\n      eq\n      iszero\n        /* \"contracts/SolarInsurance.sol\":9200:9266  bool policyRegistered = _policies[msg.sender].client != address(0) */\n      swap1\n      pop\n        /* \"contracts/SolarInsurance.sol\":9276:9293  bool policyActive */\n      0x00\n        /* \"contracts/SolarInsurance.sol\":9331:9346  block.timestamp */\n      timestamp\n        /* \"contracts/SolarInsurance.sol\":9296:9305  _policies */\n      0x06\n        /* \"contracts/SolarInsurance.sol\":9296:9317  _policies[msg.sender] */\n      0x00\n        /* \"contracts/SolarInsurance.sol\":9306:9316  msg.sender */\n      caller\n        /* \"contracts/SolarInsurance.sol\":9296:9317  _policies[msg.sender] */\n      0xffffffffffffffffffffffffffffffffffffffff\n      and\n      0xffffffffffffffffffffffffffffffffffffffff\n      and\n      dup2\n      mstore\n      0x20\n      add\n      swap1\n      dup2\n      mstore\n      0x20\n      add\n      0x00\n      keccak256\n        /* \"contracts/SolarInsurance.sol\":9296:9328  _policies[msg.sender].validUntil */\n      0x04\n      add\n      sload\n        /* \"contracts/SolarInsurance.sol\":9296:9346  _policies[msg.sender].validUntil > block.timestamp */\n      gt\n        /* \"contracts/SolarInsurance.sol\":9276:9346  bool policyActive = _policies[msg.sender].validUntil > block.timestamp */\n      swap1\n      pop\n        /* \"contracts/SolarInsurance.sol\":9378:9394  policyRegistered */\n      dup2\n        /* \"contracts/SolarInsurance.sol\":9378:9410  policyRegistered && policyActive */\n      dup1\n      iszero\n      tag_217\n      jumpi\n      pop\n        /* \"contracts/SolarInsurance.sol\":9398:9410  policyActive */\n      dup1\n        /* \"contracts/SolarInsurance.sol\":9378:9410  policyRegistered && policyActive */\n    tag_217:\n        /* \"contracts/SolarInsurance.sol\":9357:9462  require(... */\n      tag_218\n      jumpi\n      mload(0x40)\n      0x08c379a000000000000000000000000000000000000000000000000000000000\n      dup2\n      mstore\n      0x04\n      add\n      tag_219\n      swap1\n      tag_87\n      jump\t// in\n    tag_219:\n      mload(0x40)\n      dup1\n      swap2\n      sub\n      swap1\n      revert\n    tag_218:\n        /* \"contracts/SolarInsurance.sol\":10237:10257  bool claimsOnTimeout */\n      0x00\n        /* \"contracts/SolarInsurance.sol\":10297:10312  block.timestamp */\n      timestamp\n        /* \"contracts/SolarInsurance.sol\":10260:10269  _policies */\n      0x06\n        /* \"contracts/SolarInsurance.sol\":10260:10281  _policies[msg.sender] */\n      0x00\n        /* \"contracts/SolarInsurance.sol\":10270:10280  msg.sender */\n      caller\n        /* \"contracts/SolarInsurance.sol\":10260:10281  _policies[msg.sender] */\n      0xffffffffffffffffffffffffffffffffffffffff\n      and\n      0xffffffffffffffffffffffffffffffffffffffff\n      and\n      dup2\n      mstore\n      0x20\n      add\n      swap1\n      dup2\n      mstore\n      0x20\n      add\n      0x00\n      keccak256\n        /* \"contracts/SolarInsurance.sol\":10260:10294  _policies[msg.sender].claimTimeout */\n      0x05\n      add\n      sload\n        /* \"contracts/SolarInsurance.sol\":10260:10312  _policies[msg.sender].claimTimeout < block.timestamp */\n      lt\n        /* \"contracts/SolarInsurance.sol\":10237:10312  bool claimsOnTimeout = _policies[msg.sender].claimTimeout < block.timestamp */\n      swap1\n      pop\n        /* \"contracts/SolarInsurance.sol\":10343:10358  claimsOnTimeout */\n      dup1\n        /* \"contracts/SolarInsurance.sol\":10322:10420  require(... */\n      tag_221\n      jumpi\n      mload(0x40)\n      0x08c379a000000000000000000000000000000000000000000000000000000000\n      dup2\n      mstore\n      0x04\n      add\n      tag_222\n      swap1\n      tag_223\n      jump\t// in\n    tag_222:\n      mload(0x40)\n      dup1\n      swap2\n      sub\n      swap1\n      revert\n    tag_221:\n        /* \"contracts/SolarInsurance.sol\":3774:3778  year */\n      dup4\n        /* \"contracts/SolarInsurance.sol\":10695:10715  bool isYearClaimable */\n      0x00\n        /* \"contracts/SolarInsurance.sol\":10748:10752  year */\n      dup2\n        /* \"contracts/SolarInsurance.sol\":10718:10732  _allowedClaims */\n      0x07\n        /* \"contracts/SolarInsurance.sol\":10718:10744  _allowedClaims[msg.sender] */\n      0x00\n        /* \"contracts/SolarInsurance.sol\":10733:10743  msg.sender */\n      caller\n        /* \"contracts/SolarInsurance.sol\":10718:10744  _allowedClaims[msg.sender] */\n      0xffffffffffffffffffffffffffffffffffffffff\n      and\n      0xffffffffffffffffffffffffffffffffffffffff\n      and\n      dup2\n      mstore\n      0x20\n      add\n      swap1\n      dup2\n      mstore\n      0x20\n      add\n      0x00\n      keccak256\n      sload\n        /* \"contracts/SolarInsurance.sol\":10718:10752  _allowedClaims[msg.sender] == year */\n      eq\n        /* \"contracts/SolarInsurance.sol\":10695:10752  bool isYearClaimable = _allowedClaims[msg.sender] == year */\n      swap1\n      pop\n        /* \"contracts/SolarInsurance.sol\":10782:10797  isYearClaimable */\n      dup1\n        /* \"contracts/SolarInsurance.sol\":10762:10868  require(... */\n      tag_225\n      jumpi\n      mload(0x40)\n      0x08c379a000000000000000000000000000000000000000000000000000000000\n      dup2\n      mstore\n      0x04\n      add\n      tag_226\n      swap1\n      tag_91\n      jump\t// in\n    tag_226:\n      mload(0x40)\n      dup1\n      swap2\n      sub\n      swap1\n      revert\n    tag_225:\n        /* \"contracts/SolarInsurance.sol\":3808:3812  year */\n      dup6\n        /* \"contracts/SolarInsurance.sol\":9730:9747  string memory key */\n      0x00\n        /* \"contracts/SolarInsurance.sol\":9750:9769  getRecordsKey(year) */\n      tag_228\n        /* \"contracts/SolarInsurance.sol\":9764:9768  year */\n      dup3\n        /* \"contracts/SolarInsurance.sol\":9750:9763  getRecordsKey */\n      tag_57\n        /* \"contracts/SolarInsurance.sol\":9750:9769  getRecordsKey(year) */\n      jump\t// in\n    tag_228:\n        /* \"contracts/SolarInsurance.sol\":9730:9769  string memory key = getRecordsKey(year) */\n      swap1\n      pop\n        /* \"contracts/SolarInsurance.sol\":9780:9797  bool recordExists */\n      0x00\n        /* \"contracts/SolarInsurance.sol\":9825:9826  0 */\n      dup1\n        /* \"contracts/SolarInsurance.sol\":9800:9816  _sunshineRecords */\n      0x05\n        /* \"contracts/SolarInsurance.sol\":9817:9820  key */\n      dup4\n        /* \"contracts/SolarInsurance.sol\":9800:9821  _sunshineRecords[key] */\n      mload(0x40)\n      tag_229\n      swap2\n      swap1\n      tag_82\n      jump\t// in\n    tag_229:\n      swap1\n      dup2\n      mstore\n      0x20\n      add\n      mload(0x40)\n      dup1\n      swap2\n      sub\n      swap1\n      keccak256\n      sload\n        /* \"contracts/SolarInsurance.sol\":9800:9826  _sunshineRecords[key] != 0 */\n      eq\n      iszero\n        /* \"contracts/SolarInsurance.sol\":9780:9826  bool recordExists = _sunshineRecords[key] != 0 */\n      swap1\n      pop\n        /* \"contracts/SolarInsurance.sol\":9857:9869  recordExists */\n      dup1\n        /* \"contracts/SolarInsurance.sol\":9836:9936  require(... */\n      tag_230\n      jumpi\n      mload(0x40)\n      0x08c379a000000000000000000000000000000000000000000000000000000000\n      dup2\n      mstore\n      0x04\n      add\n      tag_231\n      swap1\n      tag_97\n      jump\t// in\n    tag_231:\n      mload(0x40)\n      dup1\n      swap2\n      sub\n      swap1\n      revert\n    tag_230:\n        /* \"contracts/SolarInsurance.sol\":3828:3857  SolarInsurancePolicy memory p */\n      0x00\n        /* \"contracts/SolarInsurance.sol\":3860:3869  _policies */\n      0x06\n        /* \"contracts/SolarInsurance.sol\":3860:3881  _policies[msg.sender] */\n      0x00\n        /* \"contracts/SolarInsurance.sol\":3870:3880  msg.sender */\n      caller\n        /* \"contracts/SolarInsurance.sol\":3860:3881  _policies[msg.sender] */\n      0xffffffffffffffffffffffffffffffffffffffff\n      and\n      0xffffffffffffffffffffffffffffffffffffffff\n      and\n      dup2\n      mstore\n      0x20\n      add\n      swap1\n      dup2\n      mstore\n      0x20\n      add\n      0x00\n      keccak256\n        /* \"contracts/SolarInsurance.sol\":3828:3881  SolarInsurancePolicy memory p = _policies[msg.sender] */\n      mload(0x40)\n      dup1\n      0x0100\n      add\n      0x40\n      mstore\n      swap1\n      dup2\n      0x00\n      dup3\n      add\n      0x00\n      swap1\n      sload\n      swap1\n      0x0100\n      exp\n      swap1\n      div\n      0xffffffffffffffffffffffffffffffffffffffff\n      and\n      0xffffffffffffffffffffffffffffffffffffffff\n      and\n      0xffffffffffffffffffffffffffffffffffffffff\n      and\n      dup2\n      mstore\n      0x20\n      add\n      0x00\n      dup3\n      add\n      0x14\n      swap1\n      sload\n      swap1\n      0x0100\n      exp\n      swap1\n      div\n      0xff\n      and\n      0x01\n      dup2\n      gt\n      iszero\n      tag_233\n      jumpi\n      tag_234\n      tag_110\n      jump\t// in\n    tag_234:\n    tag_233:\n      0x01\n      dup2\n      gt\n      iszero\n      tag_235\n      jumpi\n      tag_236\n      tag_110\n      jump\t// in\n    tag_236:\n    tag_235:\n      dup2\n      mstore\n      0x20\n      add\n      0x00\n      dup3\n      add\n      0x15\n      swap1\n      sload\n      swap1\n      0x0100\n      exp\n      swap1\n      div\n      0xff\n      and\n      0x02\n      dup2\n      gt\n      iszero\n      tag_237\n      jumpi\n      tag_238\n      tag_110\n      jump\t// in\n    tag_238:\n    tag_237:\n      0x02\n      dup2\n      gt\n      iszero\n      tag_239\n      jumpi\n      tag_240\n      tag_110\n      jump\t// in\n    tag_240:\n    tag_239:\n      dup2\n      mstore\n      0x20\n      add\n      0x01\n      dup3\n      add\n      sload\n      dup2\n      mstore\n      0x20\n      add\n      0x02\n      dup3\n      add\n      sload\n      dup2\n      mstore\n      0x20\n      add\n      0x03\n      dup3\n      add\n      sload\n      dup2\n      mstore\n      0x20\n      add\n      0x04\n      dup3\n      add\n      sload\n      dup2\n      mstore\n      0x20\n      add\n      0x05\n      dup3\n      add\n      sload\n      dup2\n      mstore\n      pop\n      pop\n      swap1\n      pop\n        /* \"contracts/SolarInsurance.sol\":3892:3906  uint256 amount */\n      0x00\n        /* \"contracts/SolarInsurance.sol\":3909:3929  getClaimAmount(year) */\n      tag_241\n        /* \"contracts/SolarInsurance.sol\":3924:3928  year */\n      dup12\n        /* \"contracts/SolarInsurance.sol\":3909:3923  getClaimAmount */\n      tag_67\n        /* \"contracts/SolarInsurance.sol\":3909:3929  getClaimAmount(year) */\n      jump\t// in\n    tag_241:\n        /* \"contracts/SolarInsurance.sol\":3892:3929  uint256 amount = getClaimAmount(year) */\n      swap1\n      pop\n        /* \"contracts/SolarInsurance.sol\":3947:3957  msg.sender */\n      caller\n        /* \"contracts/SolarInsurance.sol\":3939:3967  payable(msg.sender).transfer */\n      0xffffffffffffffffffffffffffffffffffffffff\n      and\n        /* \"contracts/SolarInsurance.sol\":3939:3975  payable(msg.sender).transfer(amount) */\n      0x08fc\n        /* \"contracts/SolarInsurance.sol\":3968:3974  amount */\n      dup3\n        /* \"contracts/SolarInsurance.sol\":3939:3975  payable(msg.sender).transfer(amount) */\n      swap1\n      dup2\n      iszero\n      mul\n      swap1\n      mload(0x40)\n      0x00\n      mload(0x40)\n      dup1\n      dup4\n      sub\n      dup2\n      dup6\n      dup9\n      dup9\n      call\n      swap4\n      pop\n      pop\n      pop\n      pop\n      iszero\n      dup1\n      iszero\n      tag_243\n      jumpi\n      returndatasize\n      0x00\n      dup1\n      returndatacopy\n      revert(0x00, returndatasize)\n    tag_243:\n      pop\n        /* \"contracts/SolarInsurance.sol\":3986:4018  p.claimTimeout.add(1 * 365 days) */\n      tag_244\n        /* \"contracts/SolarInsurance.sol\":4005:4017  1 * 365 days */\n      0x01e13380\n        /* \"contracts/SolarInsurance.sol\":3986:3987  p */\n      dup4\n        /* \"contracts/SolarInsurance.sol\":3986:4000  p.claimTimeout */\n      0xe0\n      add\n      mload\n        /* \"contracts/SolarInsurance.sol\":3986:4004  p.claimTimeout.add */\n      tag_103\n      swap1\n        /* \"contracts/SolarInsurance.sol\":3986:4018  p.claimTimeout.add(1 * 365 days) */\n      swap2\n      swap1\n      0xffffffff\n      and\n      jump\t// in\n    tag_244:\n      pop\n        /* \"contracts/SolarInsurance.sol\":4047:4048  0 */\n      0x00\n        /* \"contracts/SolarInsurance.sol\":4032:4033  p */\n      dup3\n        /* \"contracts/SolarInsurance.sol\":4032:4044  p.validUntil */\n      0xc0\n      add\n      mload\n        /* \"contracts/SolarInsurance.sol\":4032:4048  p.validUntil > 0 */\n      gt\n        /* \"contracts/SolarInsurance.sol\":4028:4106  if (p.validUntil > 0) {... */\n      iszero\n      tag_245\n      jumpi\n        /* \"contracts/SolarInsurance.sol\":4094:4095  1 */\n      0x01\n        /* \"contracts/SolarInsurance.sol\":4064:4078  _allowedClaims */\n      0x07\n        /* \"contracts/SolarInsurance.sol\":4064:4090  _allowedClaims[msg.sender] */\n      0x00\n        /* \"contracts/SolarInsurance.sol\":4079:4089  msg.sender */\n      caller\n        /* \"contracts/SolarInsurance.sol\":4064:4090  _allowedClaims[msg.sender] */\n      0xffffffffffffffffffffffffffffffffffffffff\n      and\n      0xffffffffffffffffffffffffffffffffffffffff\n      and\n      dup2\n      mstore\n      0x20\n      add\n      swap1\n      dup2\n      mstore\n      0x20\n      add\n      0x00\n      keccak256\n      0x00\n        /* \"contracts/SolarInsurance.sol\":4064:4095  _allowedClaims[msg.sender] += 1 */\n      dup3\n      dup3\n      sload\n      tag_246\n      swap2\n      swap1\n      tag_106\n      jump\t// in\n    tag_246:\n      swap3\n      pop\n      pop\n      dup2\n      swap1\n      sstore\n      pop\n        /* \"contracts/SolarInsurance.sol\":4028:4106  if (p.validUntil > 0) {... */\n    tag_245:\n        /* \"contracts/SolarInsurance.sol\":3818:4112  {... */\n      pop\n      pop\n        /* \"contracts/SolarInsurance.sol\":9720:9954  {... */\n      pop\n      pop\n        /* \"contracts/SolarInsurance.sol\":10878:10879  _ */\n      pop\n        /* \"contracts/SolarInsurance.sol\":10685:10886  {... */\n      pop\n        /* \"contracts/SolarInsurance.sol\":10430:10431  _ */\n      pop\n        /* \"contracts/SolarInsurance.sol\":10227:10438  {... */\n      pop\n        /* \"contracts/SolarInsurance.sol\":9190:9480  {... */\n      pop\n      pop\n        /* \"contracts/SolarInsurance.sol\":3652:4112  function fileClaim(uint256 year) public... */\n      pop\n      jump\t// out\n        /* \"contracts/SolarInsurance.sol\":1509:1559  mapping(string => uint256) public _sunshineRecords */\n    tag_77:\n      0x05\n      dup2\n      dup1\n      mload\n      0x20\n      dup2\n      add\n      dup3\n      add\n      dup1\n      mload\n      dup5\n      dup3\n      mstore\n      0x20\n      dup4\n      add\n      0x20\n      dup6\n      add\n      keccak256\n      dup2\n      dup4\n      mstore\n      dup1\n      swap6\n      pop\n      pop\n      pop\n      pop\n      pop\n      pop\n      0x00\n      swap2\n      pop\n      swap1\n      pop\n      sload\n      dup2\n      jump\t// out\n        /* \"@openzeppelin/contracts/utils/math/SafeMath.sol\":2755:2851  function add(uint256 a, uint256 b) internal pure returns (uint256) {... */\n    tag_103:\n        /* \"@openzeppelin/contracts/utils/math/SafeMath.sol\":2813:2820  uint256 */\n      0x00\n        /* \"@openzeppelin/contracts/utils/math/SafeMath.sol\":2843:2844  b */\n      dup2\n        /* \"@openzeppelin/contracts/utils/math/SafeMath.sol\":2839:2840  a */\n      dup4\n        /* \"@openzeppelin/contracts/utils/math/SafeMath.sol\":2839:2844  a + b */\n      tag_248\n      swap2\n      swap1\n      tag_106\n      jump\t// in\n    tag_248:\n        /* \"@openzeppelin/contracts/utils/math/SafeMath.sol\":2832:2844  return a + b */\n      swap1\n      pop\n        /* \"@openzeppelin/contracts/utils/math/SafeMath.sol\":2755:2851  function add(uint256 a, uint256 b) internal pure returns (uint256) {... */\n      swap3\n      swap2\n      pop\n      pop\n      jump\t// out\n        /* \"libraries/Utils.sol\":136:300  function getRecordId(uint256 year, string memory region) internal pure returns(string memory){... */\n    tag_172:\n        /* \"libraries/Utils.sol\":215:228  string memory */\n      0x60\n        /* \"libraries/Utils.sol\":261:283  Strings.toString(year) */\n      tag_250\n        /* \"libraries/Utils.sol\":278:282  year */\n      dup4\n        /* \"libraries/Utils.sol\":261:277  Strings.toString */\n      tag_251\n        /* \"libraries/Utils.sol\":261:283  Strings.toString(year) */\n      jump\t// in\n    tag_250:\n        /* \"libraries/Utils.sol\":285:291  region */\n      dup3\n        /* \"libraries/Utils.sol\":247:292  string.concat(Strings.toString(year), region) */\n      add(0x20, mload(0x40))\n      tag_252\n      swap3\n      swap2\n      swap1\n      tag_253\n      jump\t// in\n    tag_252:\n      mload(0x40)\n      0x20\n      dup2\n      dup4\n      sub\n      sub\n      dup2\n      mstore\n      swap1\n      0x40\n      mstore\n        /* \"libraries/Utils.sol\":240:292  return string.concat(Strings.toString(year), region) */\n      swap1\n      pop\n        /* \"libraries/Utils.sol\":136:300  function getRecordId(uint256 year, string memory region) internal pure returns(string memory){... */\n      swap3\n      swap2\n      pop\n      pop\n      jump\t// out\n        /* \"@openzeppelin/contracts/utils/Strings.sol\":637:1335  function toString(uint256 value) internal pure returns (string memory) {... */\n    tag_251:\n        /* \"@openzeppelin/contracts/utils/Strings.sol\":693:706  string memory */\n      0x60\n        /* \"@openzeppelin/contracts/utils/Strings.sol\":742:756  uint256 length */\n      0x00\n        /* \"@openzeppelin/contracts/utils/Strings.sol\":779:780  1 */\n      0x01\n        /* \"@openzeppelin/contracts/utils/Strings.sol\":759:776  Math.log10(value) */\n      tag_255\n        /* \"@openzeppelin/contracts/utils/Strings.sol\":770:775  value */\n      dup5\n        /* \"@openzeppelin/contracts/utils/Strings.sol\":759:769  Math.log10 */\n      tag_256\n        /* \"@openzeppelin/contracts/utils/Strings.sol\":759:776  Math.log10(value) */\n      jump\t// in\n    tag_255:\n        /* \"@openzeppelin/contracts/utils/Strings.sol\":759:780  Math.log10(value) + 1 */\n      add\n        /* \"@openzeppelin/contracts/utils/Strings.sol\":742:780  uint256 length = Math.log10(value) + 1 */\n      swap1\n      pop\n        /* \"@openzeppelin/contracts/utils/Strings.sol\":794:814  string memory buffer */\n      0x00\n        /* \"@openzeppelin/contracts/utils/Strings.sol\":828:834  length */\n      dup2\n        /* \"@openzeppelin/contracts/utils/Strings.sol\":817:835  new string(length) */\n      0xffffffffffffffff\n      dup2\n      gt\n      iszero\n      tag_257\n      jumpi\n      tag_258\n      tag_259\n      jump\t// in\n    tag_258:\n    tag_257:\n      mload(0x40)\n      swap1\n      dup1\n      dup3\n      mstore\n      dup1\n      0x1f\n      add\n      not(0x1f)\n      and\n      0x20\n      add\n      dup3\n      add\n      0x40\n      mstore\n      dup1\n      iszero\n      tag_260\n      jumpi\n      dup2\n      0x20\n      add\n      0x01\n      dup3\n      mul\n      dup1\n      calldatasize\n      dup4\n      calldatacopy\n      dup1\n      dup3\n      add\n      swap2\n      pop\n      pop\n      swap1\n      pop\n    tag_260:\n      pop\n        /* \"@openzeppelin/contracts/utils/Strings.sol\":794:835  string memory buffer = new string(length) */\n      swap1\n      pop\n        /* \"@openzeppelin/contracts/utils/Strings.sol\":849:860  uint256 ptr */\n      0x00\n        /* \"@openzeppelin/contracts/utils/Strings.sol\":975:981  length */\n      dup3\n        /* \"@openzeppelin/contracts/utils/Strings.sol\":971:973  32 */\n      0x20\n        /* \"@openzeppelin/contracts/utils/Strings.sol\":967:982  add(32, length) */\n      add\n        /* \"@openzeppelin/contracts/utils/Strings.sol\":959:965  buffer */\n      dup3\n        /* \"@openzeppelin/contracts/utils/Strings.sol\":955:983  add(buffer, add(32, length)) */\n      add\n        /* \"@openzeppelin/contracts/utils/Strings.sol\":948:983  ptr := add(buffer, add(32, length)) */\n      swap1\n      pop\n        /* \"@openzeppelin/contracts/utils/Strings.sol\":1010:1292  while (true) {... */\n    tag_261:\n        /* \"@openzeppelin/contracts/utils/Strings.sol\":1017:1021  true */\n      0x01\n        /* \"@openzeppelin/contracts/utils/Strings.sol\":1010:1292  while (true) {... */\n      iszero\n      tag_262\n      jumpi\n        /* \"@openzeppelin/contracts/utils/Strings.sol\":1041:1046  ptr-- */\n      dup1\n      dup1\n      0x01\n      swap1\n      sub\n      swap2\n      pop\n      pop\n        /* \"@openzeppelin/contracts/utils/Strings.sol\":1180:1190  HEX_DIGITS */\n      0x3031323334353637383961626364656600000000000000000000000000000000\n        /* \"@openzeppelin/contracts/utils/Strings.sol\":1175:1177  10 */\n      0x0a\n        /* \"@openzeppelin/contracts/utils/Strings.sol\":1168:1173  value */\n      dup7\n        /* \"@openzeppelin/contracts/utils/Strings.sol\":1164:1178  mod(value, 10) */\n      mod\n        /* \"@openzeppelin/contracts/utils/Strings.sol\":1159:1191  byte(mod(value, 10), HEX_DIGITS) */\n      byte\n        /* \"@openzeppelin/contracts/utils/Strings.sol\":1154:1157  ptr */\n      dup2\n        /* \"@openzeppelin/contracts/utils/Strings.sol\":1146:1192  mstore8(ptr, byte(mod(value, 10), HEX_DIGITS)) */\n      mstore8\n        /* \"@openzeppelin/contracts/utils/Strings.sol\":1236:1238  10 */\n      0x0a\n        /* \"@openzeppelin/contracts/utils/Strings.sol\":1227:1238  value /= 10 */\n      dup6\n      dup2\n      tag_263\n      jumpi\n      tag_264\n      tag_265\n      jump\t// in\n    tag_264:\n    tag_263:\n      div\n      swap5\n      pop\n        /* \"@openzeppelin/contracts/utils/Strings.sol\":1269:1270  0 */\n      0x00\n        /* \"@openzeppelin/contracts/utils/Strings.sol\":1260:1265  value */\n      dup6\n        /* \"@openzeppelin/contracts/utils/Strings.sol\":1260:1270  value == 0 */\n      sub\n        /* \"@openzeppelin/contracts/utils/Strings.sol\":1010:1292  while (true) {... */\n      tag_261\n        /* \"@openzeppelin/contracts/utils/Strings.sol\":1256:1277  if (value == 0) break */\n      jumpi\n        /* \"@openzeppelin/contracts/utils/Strings.sol\":1010:1292  while (true) {... */\n    tag_262:\n        /* \"@openzeppelin/contracts/utils/Strings.sol\":1312:1318  buffer */\n      dup2\n        /* \"@openzeppelin/contracts/utils/Strings.sol\":1305:1318  return buffer */\n      swap4\n      pop\n      pop\n      pop\n      pop\n        /* \"@openzeppelin/contracts/utils/Strings.sol\":637:1335  function toString(uint256 value) internal pure returns (string memory) {... */\n      swap2\n      swap1\n      pop\n      jump\t// out\n        /* \"@openzeppelin/contracts/utils/math/Math.sol\":12214:13130  function log10(uint256 value) internal pure returns (uint256) {... */\n    tag_256:\n        /* \"@openzeppelin/contracts/utils/math/Math.sol\":12267:12274  uint256 */\n      0x00\n        /* \"@openzeppelin/contracts/utils/math/Math.sol\":12286:12300  uint256 result */\n      dup1\n        /* \"@openzeppelin/contracts/utils/math/Math.sol\":12303:12304  0 */\n      0x00\n        /* \"@openzeppelin/contracts/utils/math/Math.sol\":12286:12304  uint256 result = 0 */\n      swap1\n      pop\n        /* \"@openzeppelin/contracts/utils/math/Math.sol\":12351:12359  10 ** 64 */\n      0x184f03e93ff9f4daa797ed6e38ed64bf6a1f010000000000000000\n        /* \"@openzeppelin/contracts/utils/math/Math.sol\":12342:12347  value */\n      dup4\n        /* \"@openzeppelin/contracts/utils/math/Math.sol\":12342:12359  value >= 10 ** 64 */\n      lt\n        /* \"@openzeppelin/contracts/utils/math/Math.sol\":12338:12441  if (value >= 10 ** 64) {... */\n      tag_268\n      jumpi\n        /* \"@openzeppelin/contracts/utils/math/Math.sol\":12388:12396  10 ** 64 */\n      0x184f03e93ff9f4daa797ed6e38ed64bf6a1f010000000000000000\n        /* \"@openzeppelin/contracts/utils/math/Math.sol\":12379:12396  value /= 10 ** 64 */\n      dup4\n      dup2\n      tag_269\n      jumpi\n      tag_270\n      tag_265\n      jump\t// in\n    tag_270:\n    tag_269:\n      div\n      swap3\n      pop\n        /* \"@openzeppelin/contracts/utils/math/Math.sol\":12424:12426  64 */\n      0x40\n        /* \"@openzeppelin/contracts/utils/math/Math.sol\":12414:12426  result += 64 */\n      dup2\n      add\n      swap1\n      pop\n        /* \"@openzeppelin/contracts/utils/math/Math.sol\":12338:12441  if (value >= 10 ** 64) {... */\n    tag_268:\n        /* \"@openzeppelin/contracts/utils/math/Math.sol\":12467:12475  10 ** 32 */\n      0x04ee2d6d415b85acef8100000000\n        /* \"@openzeppelin/contracts/utils/math/Math.sol\":12458:12463  value */\n      dup4\n        /* \"@openzeppelin/contracts/utils/math/Math.sol\":12458:12475  value >= 10 ** 32 */\n      lt\n        /* \"@openzeppelin/contracts/utils/math/Math.sol\":12454:12557  if (value >= 10 ** 32) {... */\n      tag_271\n      jumpi\n        /* \"@openzeppelin/contracts/utils/math/Math.sol\":12504:12512  10 ** 32 */\n      0x04ee2d6d415b85acef8100000000\n        /* \"@openzeppelin/contracts/utils/math/Math.sol\":12495:12512  value /= 10 ** 32 */\n      dup4\n      dup2\n      tag_272\n      jumpi\n      tag_273\n      tag_265\n      jump\t// in\n    tag_273:\n    tag_272:\n      div\n      swap3\n      pop\n        /* \"@openzeppelin/contracts/utils/math/Math.sol\":12540:12542  32 */\n      0x20\n        /* \"@openzeppelin/contracts/utils/math/Math.sol\":12530:12542  result += 32 */\n      dup2\n      add\n      swap1\n      pop\n        /* \"@openzeppelin/contracts/utils/math/Math.sol\":12454:12557  if (value >= 10 ** 32) {... */\n    tag_271:\n        /* \"@openzeppelin/contracts/utils/math/Math.sol\":12583:12591  10 ** 16 */\n      0x2386f26fc10000\n        /* \"@openzeppelin/contracts/utils/math/Math.sol\":12574:12579  value */\n      dup4\n        /* \"@openzeppelin/contracts/utils/math/Math.sol\":12574:12591  value >= 10 ** 16 */\n      lt\n        /* \"@openzeppelin/contracts/utils/math/Math.sol\":12570:12673  if (value >= 10 ** 16) {... */\n      tag_274\n      jumpi\n        /* \"@openzeppelin/contracts/utils/math/Math.sol\":12620:12628  10 ** 16 */\n      0x2386f26fc10000\n        /* \"@openzeppelin/contracts/utils/math/Math.sol\":12611:12628  value /= 10 ** 16 */\n      dup4\n      dup2\n      tag_275\n      jumpi\n      tag_276\n      tag_265\n      jump\t// in\n    tag_276:\n    tag_275:\n      div\n      swap3\n      pop\n        /* \"@openzeppelin/contracts/utils/math/Math.sol\":12656:12658  16 */\n      0x10\n        /* \"@openzeppelin/contracts/utils/math/Math.sol\":12646:12658  result += 16 */\n      dup2\n      add\n      swap1\n      pop\n        /* \"@openzeppelin/contracts/utils/math/Math.sol\":12570:12673  if (value >= 10 ** 16) {... */\n    tag_274:\n        /* \"@openzeppelin/contracts/utils/math/Math.sol\":12699:12706  10 ** 8 */\n      0x05f5e100\n        /* \"@openzeppelin/contracts/utils/math/Math.sol\":12690:12695  value */\n      dup4\n        /* \"@openzeppelin/contracts/utils/math/Math.sol\":12690:12706  value >= 10 ** 8 */\n      lt\n        /* \"@openzeppelin/contracts/utils/math/Math.sol\":12686:12786  if (value >= 10 ** 8) {... */\n      tag_277\n      jumpi\n        /* \"@openzeppelin/contracts/utils/math/Math.sol\":12735:12742  10 ** 8 */\n      0x05f5e100\n        /* \"@openzeppelin/contracts/utils/math/Math.sol\":12726:12742  value /= 10 ** 8 */\n      dup4\n      dup2\n      tag_278\n      jumpi\n      tag_279\n      tag_265\n      jump\t// in\n    tag_279:\n    tag_278:\n      div\n      swap3\n      pop\n        /* \"@openzeppelin/contracts/utils/math/Math.sol\":12770:12771  8 */\n      0x08\n        /* \"@openzeppelin/contracts/utils/math/Math.sol\":12760:12771  result += 8 */\n      dup2\n      add\n      swap1\n      pop\n        /* \"@openzeppelin/contracts/utils/math/Math.sol\":12686:12786  if (value >= 10 ** 8) {... */\n    tag_277:\n        /* \"@openzeppelin/contracts/utils/math/Math.sol\":12812:12819  10 ** 4 */\n      0x2710\n        /* \"@openzeppelin/contracts/utils/math/Math.sol\":12803:12808  value */\n      dup4\n        /* \"@openzeppelin/contracts/utils/math/Math.sol\":12803:12819  value >= 10 ** 4 */\n      lt\n        /* \"@openzeppelin/contracts/utils/math/Math.sol\":12799:12899  if (value >= 10 ** 4) {... */\n      tag_280\n      jumpi\n        /* \"@openzeppelin/contracts/utils/math/Math.sol\":12848:12855  10 ** 4 */\n      0x2710\n        /* \"@openzeppelin/contracts/utils/math/Math.sol\":12839:12855  value /= 10 ** 4 */\n      dup4\n      dup2\n      tag_281\n      jumpi\n      tag_282\n      tag_265\n      jump\t// in\n    tag_282:\n    tag_281:\n      div\n      swap3\n      pop\n        /* \"@openzeppelin/contracts/utils/math/Math.sol\":12883:12884  4 */\n      0x04\n        /* \"@openzeppelin/contracts/utils/math/Math.sol\":12873:12884  result += 4 */\n      dup2\n      add\n      swap1\n      pop\n        /* \"@openzeppelin/contracts/utils/math/Math.sol\":12799:12899  if (value >= 10 ** 4) {... */\n    tag_280:\n        /* \"@openzeppelin/contracts/utils/math/Math.sol\":12925:12932  10 ** 2 */\n      0x64\n        /* \"@openzeppelin/contracts/utils/math/Math.sol\":12916:12921  value */\n      dup4\n        /* \"@openzeppelin/contracts/utils/math/Math.sol\":12916:12932  value >= 10 ** 2 */\n      lt\n        /* \"@openzeppelin/contracts/utils/math/Math.sol\":12912:13012  if (value >= 10 ** 2) {... */\n      tag_283\n      jumpi\n        /* \"@openzeppelin/contracts/utils/math/Math.sol\":12961:12968  10 ** 2 */\n      0x64\n        /* \"@openzeppelin/contracts/utils/math/Math.sol\":12952:12968  value /= 10 ** 2 */\n      dup4\n      dup2\n      tag_284\n      jumpi\n      tag_285\n      tag_265\n      jump\t// in\n    tag_285:\n    tag_284:\n      div\n      swap3\n      pop\n        /* \"@openzeppelin/contracts/utils/math/Math.sol\":12996:12997  2 */\n      0x02\n        /* \"@openzeppelin/contracts/utils/math/Math.sol\":12986:12997  result += 2 */\n      dup2\n      add\n      swap1\n      pop\n        /* \"@openzeppelin/contracts/utils/math/Math.sol\":12912:13012  if (value >= 10 ** 2) {... */\n    tag_283:\n        /* \"@openzeppelin/contracts/utils/math/Math.sol\":13038:13045  10 ** 1 */\n      0x0a\n        /* \"@openzeppelin/contracts/utils/math/Math.sol\":13029:13034  value */\n      dup4\n        /* \"@openzeppelin/contracts/utils/math/Math.sol\":13029:13045  value >= 10 ** 1 */\n      lt\n        /* \"@openzeppelin/contracts/utils/math/Math.sol\":13025:13091  if (value >= 10 ** 1) {... */\n      tag_286\n      jumpi\n        /* \"@openzeppelin/contracts/utils/math/Math.sol\":13075:13076  1 */\n      0x01\n        /* \"@openzeppelin/contracts/utils/math/Math.sol\":13065:13076  result += 1 */\n      dup2\n      add\n      swap1\n      pop\n        /* \"@openzeppelin/contracts/utils/math/Math.sol\":13025:13091  if (value >= 10 ** 1) {... */\n    tag_286:\n        /* \"@openzeppelin/contracts/utils/math/Math.sol\":13117:13123  result */\n      dup1\n        /* \"@openzeppelin/contracts/utils/math/Math.sol\":13110:13123  return result */\n      swap2\n      pop\n      pop\n        /* \"@openzeppelin/contracts/utils/math/Math.sol\":12214:13130  function log10(uint256 value) internal pure returns (uint256) {... */\n      swap2\n      swap1\n      pop\n      jump\t// out\n    tag_117:\n      mload(0x40)\n      dup1\n      0x0100\n      add\n      0x40\n      mstore\n      dup1\n      and(0xffffffffffffffffffffffffffffffffffffffff, 0x00)\n      dup2\n      mstore\n      0x20\n      add\n      0x00\n      0x01\n      dup2\n      gt\n      iszero\n      tag_287\n      jumpi\n      tag_288\n      tag_110\n      jump\t// in\n    tag_288:\n    tag_287:\n      dup2\n      mstore\n      0x20\n      add\n      0x00\n      0x02\n      dup2\n      gt\n      iszero\n      tag_289\n      jumpi\n      tag_290\n      tag_110\n      jump\t// in\n    tag_290:\n    tag_289:\n      dup2\n      mstore\n      0x20\n      add\n      0x00\n      dup2\n      mstore\n      0x20\n      add\n      0x00\n      dup2\n      mstore\n      0x20\n      add\n      0x00\n      dup2\n      mstore\n      0x20\n      add\n      0x00\n      dup2\n      mstore\n      0x20\n      add\n      0x00\n      dup2\n      mstore\n      pop\n      swap1\n      jump\t// out\n        /* \"#utility.yul\":7:82   */\n    tag_291:\n        /* \"#utility.yul\":40:46   */\n      0x00\n        /* \"#utility.yul\":73:75   */\n      0x40\n        /* \"#utility.yul\":67:76   */\n      mload\n        /* \"#utility.yul\":57:76   */\n      swap1\n      pop\n        /* \"#utility.yul\":7:82   */\n      swap1\n      jump\t// out\n        /* \"#utility.yul\":88:205   */\n    tag_292:\n        /* \"#utility.yul\":197:198   */\n      0x00\n        /* \"#utility.yul\":194:195   */\n      dup1\n        /* \"#utility.yul\":187:199   */\n      revert\n        /* \"#utility.yul\":211:328   */\n    tag_293:\n        /* \"#utility.yul\":320:321   */\n      0x00\n        /* \"#utility.yul\":317:318   */\n      dup1\n        /* \"#utility.yul\":310:322   */\n      revert\n        /* \"#utility.yul\":334:411   */\n    tag_294:\n        /* \"#utility.yul\":371:378   */\n      0x00\n        /* \"#utility.yul\":400:405   */\n      dup2\n        /* \"#utility.yul\":389:405   */\n      swap1\n      pop\n        /* \"#utility.yul\":334:411   */\n      swap2\n      swap1\n      pop\n      jump\t// out\n        /* \"#utility.yul\":417:539   */\n    tag_295:\n        /* \"#utility.yul\":490:514   */\n      tag_354\n        /* \"#utility.yul\":508:513   */\n      dup2\n        /* \"#utility.yul\":490:514   */\n      tag_294\n      jump\t// in\n    tag_354:\n        /* \"#utility.yul\":483:488   */\n      dup2\n        /* \"#utility.yul\":480:515   */\n      eq\n        /* \"#utility.yul\":470:533   */\n      tag_355\n      jumpi\n        /* \"#utility.yul\":529:530   */\n      0x00\n        /* \"#utility.yul\":526:527   */\n      dup1\n        /* \"#utility.yul\":519:531   */\n      revert\n        /* \"#utility.yul\":470:533   */\n    tag_355:\n        /* \"#utility.yul\":417:539   */\n      pop\n      jump\t// out\n        /* \"#utility.yul\":545:684   */\n    tag_296:\n        /* \"#utility.yul\":591:596   */\n      0x00\n        /* \"#utility.yul\":629:635   */\n      dup2\n        /* \"#utility.yul\":616:636   */\n      calldataload\n        /* \"#utility.yul\":607:636   */\n      swap1\n      pop\n        /* \"#utility.yul\":645:678   */\n      tag_357\n        /* \"#utility.yul\":672:677   */\n      dup2\n        /* \"#utility.yul\":645:678   */\n      tag_295\n      jump\t// in\n    tag_357:\n        /* \"#utility.yul\":545:684   */\n      swap3\n      swap2\n      pop\n      pop\n      jump\t// out\n        /* \"#utility.yul\":690:1164   */\n    tag_20:\n        /* \"#utility.yul\":758:764   */\n      0x00\n        /* \"#utility.yul\":766:772   */\n      dup1\n        /* \"#utility.yul\":815:817   */\n      0x40\n        /* \"#utility.yul\":803:812   */\n      dup4\n        /* \"#utility.yul\":794:801   */\n      dup6\n        /* \"#utility.yul\":790:813   */\n      sub\n        /* \"#utility.yul\":786:818   */\n      slt\n        /* \"#utility.yul\":783:902   */\n      iszero\n      tag_359\n      jumpi\n        /* \"#utility.yul\":821:900   */\n      tag_360\n      tag_292\n      jump\t// in\n    tag_360:\n        /* \"#utility.yul\":783:902   */\n    tag_359:\n        /* \"#utility.yul\":941:942   */\n      0x00\n        /* \"#utility.yul\":966:1019   */\n      tag_361\n        /* \"#utility.yul\":1011:1018   */\n      dup6\n        /* \"#utility.yul\":1002:1008   */\n      dup3\n        /* \"#utility.yul\":991:1000   */\n      dup7\n        /* \"#utility.yul\":987:1009   */\n      add\n        /* \"#utility.yul\":966:1019   */\n      tag_296\n      jump\t// in\n    tag_361:\n        /* \"#utility.yul\":956:1019   */\n      swap3\n      pop\n        /* \"#utility.yul\":912:1029   */\n      pop\n        /* \"#utility.yul\":1068:1070   */\n      0x20\n        /* \"#utility.yul\":1094:1147   */\n      tag_362\n        /* \"#utility.yul\":1139:1146   */\n      dup6\n        /* \"#utility.yul\":1130:1136   */\n      dup3\n        /* \"#utility.yul\":1119:1128   */\n      dup7\n        /* \"#utility.yul\":1115:1137   */\n      add\n        /* \"#utility.yul\":1094:1147   */\n      tag_296\n      jump\t// in\n    tag_362:\n        /* \"#utility.yul\":1084:1147   */\n      swap2\n      pop\n        /* \"#utility.yul\":1039:1157   */\n      pop\n        /* \"#utility.yul\":690:1164   */\n      swap3\n      pop\n      swap3\n      swap1\n      pop\n      jump\t// out\n        /* \"#utility.yul\":1170:1296   */\n    tag_297:\n        /* \"#utility.yul\":1207:1214   */\n      0x00\n        /* \"#utility.yul\":1247:1289   */\n      0xffffffffffffffffffffffffffffffffffffffff\n        /* \"#utility.yul\":1240:1245   */\n      dup3\n        /* \"#utility.yul\":1236:1290   */\n      and\n        /* \"#utility.yul\":1225:1290   */\n      swap1\n      pop\n        /* \"#utility.yul\":1170:1296   */\n      swap2\n      swap1\n      pop\n      jump\t// out\n        /* \"#utility.yul\":1302:1398   */\n    tag_298:\n        /* \"#utility.yul\":1339:1346   */\n      0x00\n        /* \"#utility.yul\":1368:1392   */\n      tag_365\n        /* \"#utility.yul\":1386:1391   */\n      dup3\n        /* \"#utility.yul\":1368:1392   */\n      tag_297\n      jump\t// in\n    tag_365:\n        /* \"#utility.yul\":1357:1392   */\n      swap1\n      pop\n        /* \"#utility.yul\":1302:1398   */\n      swap2\n      swap1\n      pop\n      jump\t// out\n        /* \"#utility.yul\":1404:1526   */\n    tag_299:\n        /* \"#utility.yul\":1477:1501   */\n      tag_367\n        /* \"#utility.yul\":1495:1500   */\n      dup2\n        /* \"#utility.yul\":1477:1501   */\n      tag_298\n      jump\t// in\n    tag_367:\n        /* \"#utility.yul\":1470:1475   */\n      dup2\n        /* \"#utility.yul\":1467:1502   */\n      eq\n        /* \"#utility.yul\":1457:1520   */\n      tag_368\n      jumpi\n        /* \"#utility.yul\":1516:1517   */\n      0x00\n        /* \"#utility.yul\":1513:1514   */\n      dup1\n        /* \"#utility.yul\":1506:1518   */\n      revert\n        /* \"#utility.yul\":1457:1520   */\n    tag_368:\n        /* \"#utility.yul\":1404:1526   */\n      pop\n      jump\t// out\n        /* \"#utility.yul\":1532:1671   */\n    tag_300:\n        /* \"#utility.yul\":1578:1583   */\n      0x00\n        /* \"#utility.yul\":1616:1622   */\n      dup2\n        /* \"#utility.yul\":1603:1623   */\n      calldataload\n        /* \"#utility.yul\":1594:1623   */\n      swap1\n      pop\n        /* \"#utility.yul\":1632:1665   */\n      tag_370\n        /* \"#utility.yul\":1659:1664   */\n      dup2\n        /* \"#utility.yul\":1632:1665   */\n      tag_299\n      jump\t// in\n    tag_370:\n        /* \"#utility.yul\":1532:1671   */\n      swap3\n      swap2\n      pop\n      pop\n      jump\t// out\n        /* \"#utility.yul\":1677:2006   */\n    tag_25:\n        /* \"#utility.yul\":1736:1742   */\n      0x00\n        /* \"#utility.yul\":1785:1787   */\n      0x20\n        /* \"#utility.yul\":1773:1782   */\n      dup3\n        /* \"#utility.yul\":1764:1771   */\n      dup5\n        /* \"#utility.yul\":1760:1783   */\n      sub\n        /* \"#utility.yul\":1756:1788   */\n      slt\n        /* \"#utility.yul\":1753:1872   */\n      iszero\n      tag_372\n      jumpi\n        /* \"#utility.yul\":1791:1870   */\n      tag_373\n      tag_292\n      jump\t// in\n    tag_373:\n        /* \"#utility.yul\":1753:1872   */\n    tag_372:\n        /* \"#utility.yul\":1911:1912   */\n      0x00\n        /* \"#utility.yul\":1936:1989   */\n      tag_374\n        /* \"#utility.yul\":1981:1988   */\n      dup5\n        /* \"#utility.yul\":1972:1978   */\n      dup3\n        /* \"#utility.yul\":1961:1970   */\n      dup6\n        /* \"#utility.yul\":1957:1979   */\n      add\n        /* \"#utility.yul\":1936:1989   */\n      tag_300\n      jump\t// in\n    tag_374:\n        /* \"#utility.yul\":1926:1989   */\n      swap2\n      pop\n        /* \"#utility.yul\":1882:1999   */\n      pop\n        /* \"#utility.yul\":1677:2006   */\n      swap3\n      swap2\n      pop\n      pop\n      jump\t// out\n        /* \"#utility.yul\":2012:2130   */\n    tag_301:\n        /* \"#utility.yul\":2099:2123   */\n      tag_376\n        /* \"#utility.yul\":2117:2122   */\n      dup2\n        /* \"#utility.yul\":2099:2123   */\n      tag_294\n      jump\t// in\n    tag_376:\n        /* \"#utility.yul\":2094:2097   */\n      dup3\n        /* \"#utility.yul\":2087:2124   */\n      mstore\n        /* \"#utility.yul\":2012:2130   */\n      pop\n      pop\n      jump\t// out\n        /* \"#utility.yul\":2136:2358   */\n    tag_28:\n        /* \"#utility.yul\":2229:2233   */\n      0x00\n        /* \"#utility.yul\":2267:2269   */\n      0x20\n        /* \"#utility.yul\":2256:2265   */\n      dup3\n        /* \"#utility.yul\":2252:2270   */\n      add\n        /* \"#utility.yul\":2244:2270   */\n      swap1\n      pop\n        /* \"#utility.yul\":2280:2351   */\n      tag_378\n        /* \"#utility.yul\":2348:2349   */\n      0x00\n        /* \"#utility.yul\":2337:2346   */\n      dup4\n        /* \"#utility.yul\":2333:2350   */\n      add\n        /* \"#utility.yul\":2324:2330   */\n      dup5\n        /* \"#utility.yul\":2280:2351   */\n      tag_301\n      jump\t// in\n    tag_378:\n        /* \"#utility.yul\":2136:2358   */\n      swap3\n      swap2\n      pop\n      pop\n      jump\t// out\n        /* \"#utility.yul\":2364:2693   */\n    tag_32:\n        /* \"#utility.yul\":2423:2429   */\n      0x00\n        /* \"#utility.yul\":2472:2474   */\n      0x20\n        /* \"#utility.yul\":2460:2469   */\n      dup3\n        /* \"#utility.yul\":2451:2458   */\n      dup5\n        /* \"#utility.yul\":2447:2470   */\n      sub\n        /* \"#utility.yul\":2443:2475   */\n      slt\n        /* \"#utility.yul\":2440:2559   */\n      iszero\n      tag_380\n      jumpi\n        /* \"#utility.yul\":2478:2557   */\n      tag_381\n      tag_292\n      jump\t// in\n    tag_381:\n        /* \"#utility.yul\":2440:2559   */\n    tag_380:\n        /* \"#utility.yul\":2598:2599   */\n      0x00\n        /* \"#utility.yul\":2623:2676   */\n      tag_382\n        /* \"#utility.yul\":2668:2675   */\n      dup5\n        /* \"#utility.yul\":2659:2665   */\n      dup3\n        /* \"#utility.yul\":2648:2657   */\n      dup6\n        /* \"#utility.yul\":2644:2666   */\n      add\n        /* \"#utility.yul\":2623:2676   */\n      tag_296\n      jump\t// in\n    tag_382:\n        /* \"#utility.yul\":2613:2676   */\n      swap2\n      pop\n        /* \"#utility.yul\":2569:2686   */\n      pop\n        /* \"#utility.yul\":2364:2693   */\n      swap3\n      swap2\n      pop\n      pop\n      jump\t// out\n        /* \"#utility.yul\":2699:2819   */\n    tag_302:\n        /* \"#utility.yul\":2793:2794   */\n      0x03\n        /* \"#utility.yul\":2786:2791   */\n      dup2\n        /* \"#utility.yul\":2783:2795   */\n      lt\n        /* \"#utility.yul\":2773:2813   */\n      tag_384\n      jumpi\n        /* \"#utility.yul\":2809:2810   */\n      0x00\n        /* \"#utility.yul\":2806:2807   */\n      dup1\n        /* \"#utility.yul\":2799:2811   */\n      revert\n        /* \"#utility.yul\":2773:2813   */\n    tag_384:\n        /* \"#utility.yul\":2699:2819   */\n      pop\n      jump\t// out\n        /* \"#utility.yul\":2825:3006   */\n    tag_303:\n        /* \"#utility.yul\":2892:2897   */\n      0x00\n        /* \"#utility.yul\":2930:2936   */\n      dup2\n        /* \"#utility.yul\":2917:2937   */\n      calldataload\n        /* \"#utility.yul\":2908:2937   */\n      swap1\n      pop\n        /* \"#utility.yul\":2946:3000   */\n      tag_386\n        /* \"#utility.yul\":2994:2999   */\n      dup2\n        /* \"#utility.yul\":2946:3000   */\n      tag_302\n      jump\t// in\n    tag_386:\n        /* \"#utility.yul\":2825:3006   */\n      swap3\n      swap2\n      pop\n      pop\n      jump\t// out\n        /* \"#utility.yul\":3012:3528   */\n    tag_37:\n        /* \"#utility.yul\":3101:3107   */\n      0x00\n        /* \"#utility.yul\":3109:3115   */\n      dup1\n        /* \"#utility.yul\":3158:3160   */\n      0x40\n        /* \"#utility.yul\":3146:3155   */\n      dup4\n        /* \"#utility.yul\":3137:3144   */\n      dup6\n        /* \"#utility.yul\":3133:3156   */\n      sub\n        /* \"#utility.yul\":3129:3161   */\n      slt\n        /* \"#utility.yul\":3126:3245   */\n      iszero\n      tag_388\n      jumpi\n        /* \"#utility.yul\":3164:3243   */\n      tag_389\n      tag_292\n      jump\t// in\n    tag_389:\n        /* \"#utility.yul\":3126:3245   */\n    tag_388:\n        /* \"#utility.yul\":3284:3285   */\n      0x00\n        /* \"#utility.yul\":3309:3383   */\n      tag_390\n        /* \"#utility.yul\":3375:3382   */\n      dup6\n        /* \"#utility.yul\":3366:3372   */\n      dup3\n        /* \"#utility.yul\":3355:3364   */\n      dup7\n        /* \"#utility.yul\":3351:3373   */\n      add\n        /* \"#utility.yul\":3309:3383   */\n      tag_303\n      jump\t// in\n    tag_390:\n        /* \"#utility.yul\":3299:3383   */\n      swap3\n      pop\n        /* \"#utility.yul\":3255:3393   */\n      pop\n        /* \"#utility.yul\":3432:3434   */\n      0x20\n        /* \"#utility.yul\":3458:3511   */\n      tag_391\n        /* \"#utility.yul\":3503:3510   */\n      dup6\n        /* \"#utility.yul\":3494:3500   */\n      dup3\n        /* \"#utility.yul\":3483:3492   */\n      dup7\n        /* \"#utility.yul\":3479:3501   */\n      add\n        /* \"#utility.yul\":3458:3511   */\n      tag_296\n      jump\t// in\n    tag_391:\n        /* \"#utility.yul\":3448:3511   */\n      swap2\n      pop\n        /* \"#utility.yul\":3403:3521   */\n      pop\n        /* \"#utility.yul\":3012:3528   */\n      swap3\n      pop\n      swap3\n      swap1\n      pop\n      jump\t// out\n        /* \"#utility.yul\":3534:3652   */\n    tag_304:\n        /* \"#utility.yul\":3621:3645   */\n      tag_393\n        /* \"#utility.yul\":3639:3644   */\n      dup2\n        /* \"#utility.yul\":3621:3645   */\n      tag_298\n      jump\t// in\n    tag_393:\n        /* \"#utility.yul\":3616:3619   */\n      dup3\n        /* \"#utility.yul\":3609:3646   */\n      mstore\n        /* \"#utility.yul\":3534:3652   */\n      pop\n      pop\n      jump\t// out\n        /* \"#utility.yul\":3658:3880   */\n    tag_44:\n        /* \"#utility.yul\":3751:3755   */\n      0x00\n        /* \"#utility.yul\":3789:3791   */\n      0x20\n        /* \"#utility.yul\":3778:3787   */\n      dup3\n        /* \"#utility.yul\":3774:3792   */\n      add\n        /* \"#utility.yul\":3766:3792   */\n      swap1\n      pop\n        /* \"#utility.yul\":3802:3873   */\n      tag_395\n        /* \"#utility.yul\":3870:3871   */\n      0x00\n        /* \"#utility.yul\":3859:3868   */\n      dup4\n        /* \"#utility.yul\":3855:3872   */\n      add\n        /* \"#utility.yul\":3846:3852   */\n      dup5\n        /* \"#utility.yul\":3802:3873   */\n      tag_304\n      jump\t// in\n    tag_395:\n        /* \"#utility.yul\":3658:3880   */\n      swap3\n      swap2\n      pop\n      pop\n      jump\t// out\n        /* \"#utility.yul\":3886:3994   */\n    tag_305:\n        /* \"#utility.yul\":3963:3987   */\n      tag_397\n        /* \"#utility.yul\":3981:3986   */\n      dup2\n        /* \"#utility.yul\":3963:3987   */\n      tag_298\n      jump\t// in\n    tag_397:\n        /* \"#utility.yul\":3958:3961   */\n      dup3\n        /* \"#utility.yul\":3951:3988   */\n      mstore\n        /* \"#utility.yul\":3886:3994   */\n      pop\n      pop\n      jump\t// out\n        /* \"#utility.yul\":4000:4180   */\n    tag_110:\n        /* \"#utility.yul\":4048:4125   */\n      0x4e487b7100000000000000000000000000000000000000000000000000000000\n        /* \"#utility.yul\":4045:4046   */\n      0x00\n        /* \"#utility.yul\":4038:4126   */\n      mstore\n        /* \"#utility.yul\":4145:4149   */\n      0x21\n        /* \"#utility.yul\":4142:4143   */\n      0x04\n        /* \"#utility.yul\":4135:4150   */\n      mstore\n        /* \"#utility.yul\":4169:4173   */\n      0x24\n        /* \"#utility.yul\":4166:4167   */\n      0x00\n        /* \"#utility.yul\":4159:4174   */\n      revert\n        /* \"#utility.yul\":4186:4307   */\n    tag_306:\n        /* \"#utility.yul\":4275:4276   */\n      0x02\n        /* \"#utility.yul\":4268:4273   */\n      dup2\n        /* \"#utility.yul\":4265:4277   */\n      lt\n        /* \"#utility.yul\":4255:4301   */\n      tag_400\n      jumpi\n        /* \"#utility.yul\":4281:4299   */\n      tag_401\n      tag_110\n      jump\t// in\n    tag_401:\n        /* \"#utility.yul\":4255:4301   */\n    tag_400:\n        /* \"#utility.yul\":4186:4307   */\n      pop\n      jump\t// out\n        /* \"#utility.yul\":4313:4456   */\n    tag_307:\n        /* \"#utility.yul\":4366:4373   */\n      0x00\n        /* \"#utility.yul\":4395:4400   */\n      dup2\n        /* \"#utility.yul\":4384:4400   */\n      swap1\n      pop\n        /* \"#utility.yul\":4401:4450   */\n      tag_403\n        /* \"#utility.yul\":4444:4449   */\n      dup3\n        /* \"#utility.yul\":4401:4450   */\n      tag_306\n      jump\t// in\n    tag_403:\n        /* \"#utility.yul\":4313:4456   */\n      swap2\n      swap1\n      pop\n      jump\t// out\n        /* \"#utility.yul\":4462:4605   */\n    tag_308:\n        /* \"#utility.yul\":4526:4535   */\n      0x00\n        /* \"#utility.yul\":4559:4599   */\n      tag_405\n        /* \"#utility.yul\":4593:4598   */\n      dup3\n        /* \"#utility.yul\":4559:4599   */\n      tag_307\n      jump\t// in\n    tag_405:\n        /* \"#utility.yul\":4546:4599   */\n      swap1\n      pop\n        /* \"#utility.yul\":4462:4605   */\n      swap2\n      swap1\n      pop\n      jump\t// out\n        /* \"#utility.yul\":4611:4760   */\n    tag_309:\n        /* \"#utility.yul\":4702:4753   */\n      tag_407\n        /* \"#utility.yul\":4747:4752   */\n      dup2\n        /* \"#utility.yul\":4702:4753   */\n      tag_308\n      jump\t// in\n    tag_407:\n        /* \"#utility.yul\":4697:4700   */\n      dup3\n        /* \"#utility.yul\":4690:4754   */\n      mstore\n        /* \"#utility.yul\":4611:4760   */\n      pop\n      pop\n      jump\t// out\n        /* \"#utility.yul\":4766:4892   */\n    tag_310:\n        /* \"#utility.yul\":4860:4861   */\n      0x03\n        /* \"#utility.yul\":4853:4858   */\n      dup2\n        /* \"#utility.yul\":4850:4862   */\n      lt\n        /* \"#utility.yul\":4840:4886   */\n      tag_409\n      jumpi\n        /* \"#utility.yul\":4866:4884   */\n      tag_410\n      tag_110\n      jump\t// in\n    tag_410:\n        /* \"#utility.yul\":4840:4886   */\n    tag_409:\n        /* \"#utility.yul\":4766:4892   */\n      pop\n      jump\t// out\n        /* \"#utility.yul\":4898:5051   */\n    tag_311:\n        /* \"#utility.yul\":4956:4963   */\n      0x00\n        /* \"#utility.yul\":4985:4990   */\n      dup2\n        /* \"#utility.yul\":4974:4990   */\n      swap1\n      pop\n        /* \"#utility.yul\":4991:5045   */\n      tag_412\n        /* \"#utility.yul\":5039:5044   */\n      dup3\n        /* \"#utility.yul\":4991:5045   */\n      tag_310\n      jump\t// in\n    tag_412:\n        /* \"#utility.yul\":4898:5051   */\n      swap2\n      swap1\n      pop\n      jump\t// out\n        /* \"#utility.yul\":5057:5210   */\n    tag_312:\n        /* \"#utility.yul\":5126:5135   */\n      0x00\n        /* \"#utility.yul\":5159:5204   */\n      tag_414\n        /* \"#utility.yul\":5198:5203   */\n      dup3\n        /* \"#utility.yul\":5159:5204   */\n      tag_311\n      jump\t// in\n    tag_414:\n        /* \"#utility.yul\":5146:5204   */\n      swap1\n      pop\n        /* \"#utility.yul\":5057:5210   */\n      swap2\n      swap1\n      pop\n      jump\t// out\n        /* \"#utility.yul\":5216:5375   */\n    tag_313:\n        /* \"#utility.yul\":5312:5368   */\n      tag_416\n        /* \"#utility.yul\":5362:5367   */\n      dup2\n        /* \"#utility.yul\":5312:5368   */\n      tag_312\n      jump\t// in\n    tag_416:\n        /* \"#utility.yul\":5307:5310   */\n      dup3\n        /* \"#utility.yul\":5300:5369   */\n      mstore\n        /* \"#utility.yul\":5216:5375   */\n      pop\n      pop\n      jump\t// out\n        /* \"#utility.yul\":5381:5489   */\n    tag_314:\n        /* \"#utility.yul\":5458:5482   */\n      tag_418\n        /* \"#utility.yul\":5476:5481   */\n      dup2\n        /* \"#utility.yul\":5458:5482   */\n      tag_294\n      jump\t// in\n    tag_418:\n        /* \"#utility.yul\":5453:5456   */\n      dup3\n        /* \"#utility.yul\":5446:5483   */\n      mstore\n        /* \"#utility.yul\":5381:5489   */\n      pop\n      pop\n      jump\t// out\n        /* \"#utility.yul\":5591:7258   */\n    tag_315:\n        /* \"#utility.yul\":5764:5770   */\n      0x0100\n        /* \"#utility.yul\":5759:5762   */\n      dup3\n        /* \"#utility.yul\":5755:5771   */\n      add\n        /* \"#utility.yul\":5855:5859   */\n      0x00\n        /* \"#utility.yul\":5848:5853   */\n      dup3\n        /* \"#utility.yul\":5844:5860   */\n      add\n        /* \"#utility.yul\":5838:5861   */\n      mload\n        /* \"#utility.yul\":5874:5937   */\n      tag_420\n        /* \"#utility.yul\":5931:5935   */\n      0x00\n        /* \"#utility.yul\":5926:5929   */\n      dup6\n        /* \"#utility.yul\":5922:5936   */\n      add\n        /* \"#utility.yul\":5908:5920   */\n      dup3\n        /* \"#utility.yul\":5874:5937   */\n      tag_305\n      jump\t// in\n    tag_420:\n        /* \"#utility.yul\":5781:5947   */\n      pop\n        /* \"#utility.yul\":6038:6042   */\n      0x20\n        /* \"#utility.yul\":6031:6036   */\n      dup3\n        /* \"#utility.yul\":6027:6043   */\n      add\n        /* \"#utility.yul\":6021:6044   */\n      mload\n        /* \"#utility.yul\":6057:6134   */\n      tag_421\n        /* \"#utility.yul\":6128:6132   */\n      0x20\n        /* \"#utility.yul\":6123:6126   */\n      dup6\n        /* \"#utility.yul\":6119:6133   */\n      add\n        /* \"#utility.yul\":6105:6117   */\n      dup3\n        /* \"#utility.yul\":6057:6134   */\n      tag_309\n      jump\t// in\n    tag_421:\n        /* \"#utility.yul\":5957:6144   */\n      pop\n        /* \"#utility.yul\":6231:6235   */\n      0x40\n        /* \"#utility.yul\":6224:6229   */\n      dup3\n        /* \"#utility.yul\":6220:6236   */\n      add\n        /* \"#utility.yul\":6214:6237   */\n      mload\n        /* \"#utility.yul\":6250:6332   */\n      tag_422\n        /* \"#utility.yul\":6326:6330   */\n      0x40\n        /* \"#utility.yul\":6321:6324   */\n      dup6\n        /* \"#utility.yul\":6317:6331   */\n      add\n        /* \"#utility.yul\":6303:6315   */\n      dup3\n        /* \"#utility.yul\":6250:6332   */\n      tag_313\n      jump\t// in\n    tag_422:\n        /* \"#utility.yul\":6154:6342   */\n      pop\n        /* \"#utility.yul\":6429:6433   */\n      0x60\n        /* \"#utility.yul\":6422:6427   */\n      dup3\n        /* \"#utility.yul\":6418:6434   */\n      add\n        /* \"#utility.yul\":6412:6435   */\n      mload\n        /* \"#utility.yul\":6448:6511   */\n      tag_423\n        /* \"#utility.yul\":6505:6509   */\n      0x60\n        /* \"#utility.yul\":6500:6503   */\n      dup6\n        /* \"#utility.yul\":6496:6510   */\n      add\n        /* \"#utility.yul\":6482:6494   */\n      dup3\n        /* \"#utility.yul\":6448:6511   */\n      tag_314\n      jump\t// in\n    tag_423:\n        /* \"#utility.yul\":6352:6521   */\n      pop\n        /* \"#utility.yul\":6611:6615   */\n      0x80\n        /* \"#utility.yul\":6604:6609   */\n      dup3\n        /* \"#utility.yul\":6600:6616   */\n      add\n        /* \"#utility.yul\":6594:6617   */\n      mload\n        /* \"#utility.yul\":6630:6693   */\n      tag_424\n        /* \"#utility.yul\":6687:6691   */\n      0x80\n        /* \"#utility.yul\":6682:6685   */\n      dup6\n        /* \"#utility.yul\":6678:6692   */\n      add\n        /* \"#utility.yul\":6664:6676   */\n      dup3\n        /* \"#utility.yul\":6630:6693   */\n      tag_314\n      jump\t// in\n    tag_424:\n        /* \"#utility.yul\":6531:6703   */\n      pop\n        /* \"#utility.yul\":6797:6801   */\n      0xa0\n        /* \"#utility.yul\":6790:6795   */\n      dup3\n        /* \"#utility.yul\":6786:6802   */\n      add\n        /* \"#utility.yul\":6780:6803   */\n      mload\n        /* \"#utility.yul\":6816:6879   */\n      tag_425\n        /* \"#utility.yul\":6873:6877   */\n      0xa0\n        /* \"#utility.yul\":6868:6871   */\n      dup6\n        /* \"#utility.yul\":6864:6878   */\n      add\n        /* \"#utility.yul\":6850:6862   */\n      dup3\n        /* \"#utility.yul\":6816:6879   */\n      tag_314\n      jump\t// in\n    tag_425:\n        /* \"#utility.yul\":6713:6889   */\n      pop\n        /* \"#utility.yul\":6977:6981   */\n      0xc0\n        /* \"#utility.yul\":6970:6975   */\n      dup3\n        /* \"#utility.yul\":6966:6982   */\n      add\n        /* \"#utility.yul\":6960:6983   */\n      mload\n        /* \"#utility.yul\":6996:7059   */\n      tag_426\n        /* \"#utility.yul\":7053:7057   */\n      0xc0\n        /* \"#utility.yul\":7048:7051   */\n      dup6\n        /* \"#utility.yul\":7044:7058   */\n      add\n        /* \"#utility.yul\":7030:7042   */\n      dup3\n        /* \"#utility.yul\":6996:7059   */\n      tag_314\n      jump\t// in\n    tag_426:\n        /* \"#utility.yul\":6899:7069   */\n      pop\n        /* \"#utility.yul\":7159:7163   */\n      0xe0\n        /* \"#utility.yul\":7152:7157   */\n      dup3\n        /* \"#utility.yul\":7148:7164   */\n      add\n        /* \"#utility.yul\":7142:7165   */\n      mload\n        /* \"#utility.yul\":7178:7241   */\n      tag_427\n        /* \"#utility.yul\":7235:7239   */\n      0xe0\n        /* \"#utility.yul\":7230:7233   */\n      dup6\n        /* \"#utility.yul\":7226:7240   */\n      add\n        /* \"#utility.yul\":7212:7224   */\n      dup3\n        /* \"#utility.yul\":7178:7241   */\n      tag_314\n      jump\t// in\n    tag_427:\n        /* \"#utility.yul\":7079:7251   */\n      pop\n        /* \"#utility.yul\":5733:7258   */\n      pop\n        /* \"#utility.yul\":5591:7258   */\n      pop\n      pop\n      jump\t// out\n        /* \"#utility.yul\":7264:7639   */\n    tag_49:\n        /* \"#utility.yul\":7433:7437   */\n      0x00\n        /* \"#utility.yul\":7471:7474   */\n      0x0100\n        /* \"#utility.yul\":7460:7469   */\n      dup3\n        /* \"#utility.yul\":7456:7475   */\n      add\n        /* \"#utility.yul\":7448:7475   */\n      swap1\n      pop\n        /* \"#utility.yul\":7485:7632   */\n      tag_429\n        /* \"#utility.yul\":7629:7630   */\n      0x00\n        /* \"#utility.yul\":7618:7627   */\n      dup4\n        /* \"#utility.yul\":7614:7631   */\n      add\n        /* \"#utility.yul\":7605:7611   */\n      dup5\n        /* \"#utility.yul\":7485:7632   */\n      tag_315\n      jump\t// in\n    tag_429:\n        /* \"#utility.yul\":7264:7639   */\n      swap3\n      swap2\n      pop\n      pop\n      jump\t// out\n        /* \"#utility.yul\":7645:7760   */\n    tag_316:\n        /* \"#utility.yul\":7734:7735   */\n      0x02\n        /* \"#utility.yul\":7727:7732   */\n      dup2\n        /* \"#utility.yul\":7724:7736   */\n      lt\n        /* \"#utility.yul\":7714:7754   */\n      tag_431\n      jumpi\n        /* \"#utility.yul\":7750:7751   */\n      0x00\n        /* \"#utility.yul\":7747:7748   */\n      dup1\n        /* \"#utility.yul\":7740:7752   */\n      revert\n        /* \"#utility.yul\":7714:7754   */\n    tag_431:\n        /* \"#utility.yul\":7645:7760   */\n      pop\n      jump\t// out\n        /* \"#utility.yul\":7766:7937   */\n    tag_317:\n        /* \"#utility.yul\":7828:7833   */\n      0x00\n        /* \"#utility.yul\":7866:7872   */\n      dup2\n        /* \"#utility.yul\":7853:7873   */\n      calldataload\n        /* \"#utility.yul\":7844:7873   */\n      swap1\n      pop\n        /* \"#utility.yul\":7882:7931   */\n      tag_433\n        /* \"#utility.yul\":7925:7930   */\n      dup2\n        /* \"#utility.yul\":7882:7931   */\n      tag_316\n      jump\t// in\n    tag_433:\n        /* \"#utility.yul\":7766:7937   */\n      swap3\n      swap2\n      pop\n      pop\n      jump\t// out\n        /* \"#utility.yul\":7943:8636   */\n    tag_52:\n        /* \"#utility.yul\":8057:8063   */\n      0x00\n        /* \"#utility.yul\":8065:8071   */\n      dup1\n        /* \"#utility.yul\":8073:8079   */\n      0x00\n        /* \"#utility.yul\":8122:8124   */\n      0x60\n        /* \"#utility.yul\":8110:8119   */\n      dup5\n        /* \"#utility.yul\":8101:8108   */\n      dup7\n        /* \"#utility.yul\":8097:8120   */\n      sub\n        /* \"#utility.yul\":8093:8125   */\n      slt\n        /* \"#utility.yul\":8090:8209   */\n      iszero\n      tag_435\n      jumpi\n        /* \"#utility.yul\":8128:8207   */\n      tag_436\n      tag_292\n      jump\t// in\n    tag_436:\n        /* \"#utility.yul\":8090:8209   */\n    tag_435:\n        /* \"#utility.yul\":8248:8249   */\n      0x00\n        /* \"#utility.yul\":8273:8347   */\n      tag_437\n        /* \"#utility.yul\":8339:8346   */\n      dup7\n        /* \"#utility.yul\":8330:8336   */\n      dup3\n        /* \"#utility.yul\":8319:8328   */\n      dup8\n        /* \"#utility.yul\":8315:8337   */\n      add\n        /* \"#utility.yul\":8273:8347   */\n      tag_303\n      jump\t// in\n    tag_437:\n        /* \"#utility.yul\":8263:8347   */\n      swap4\n      pop\n        /* \"#utility.yul\":8219:8357   */\n      pop\n        /* \"#utility.yul\":8396:8398   */\n      0x20\n        /* \"#utility.yul\":8422:8475   */\n      tag_438\n        /* \"#utility.yul\":8467:8474   */\n      dup7\n        /* \"#utility.yul\":8458:8464   */\n      dup3\n        /* \"#utility.yul\":8447:8456   */\n      dup8\n        /* \"#utility.yul\":8443:8465   */\n      add\n        /* \"#utility.yul\":8422:8475   */\n      tag_296\n      jump\t// in\n    tag_438:\n        /* \"#utility.yul\":8412:8475   */\n      swap3\n      pop\n        /* \"#utility.yul\":8367:8485   */\n      pop\n        /* \"#utility.yul\":8524:8526   */\n      0x40\n        /* \"#utility.yul\":8550:8619   */\n      tag_439\n        /* \"#utility.yul\":8611:8618   */\n      dup7\n        /* \"#utility.yul\":8602:8608   */\n      dup3\n        /* \"#utility.yul\":8591:8600   */\n      dup8\n        /* \"#utility.yul\":8587:8609   */\n      add\n        /* \"#utility.yul\":8550:8619   */\n      tag_317\n      jump\t// in\n    tag_439:\n        /* \"#utility.yul\":8540:8619   */\n      swap2\n      pop\n        /* \"#utility.yul\":8495:8629   */\n      pop\n        /* \"#utility.yul\":7943:8636   */\n      swap3\n      pop\n      swap3\n      pop\n      swap3\n      jump\t// out\n        /* \"#utility.yul\":8642:8741   */\n    tag_318:\n        /* \"#utility.yul\":8694:8700   */\n      0x00\n        /* \"#utility.yul\":8728:8733   */\n      dup2\n        /* \"#utility.yul\":8722:8734   */\n      mload\n        /* \"#utility.yul\":8712:8734   */\n      swap1\n      pop\n        /* \"#utility.yul\":8642:8741   */\n      swap2\n      swap1\n      pop\n      jump\t// out\n        /* \"#utility.yul\":8747:8916   */\n    tag_319:\n        /* \"#utility.yul\":8831:8842   */\n      0x00\n        /* \"#utility.yul\":8865:8871   */\n      dup3\n        /* \"#utility.yul\":8860:8863   */\n      dup3\n        /* \"#utility.yul\":8853:8872   */\n      mstore\n        /* \"#utility.yul\":8905:8909   */\n      0x20\n        /* \"#utility.yul\":8900:8903   */\n      dup3\n        /* \"#utility.yul\":8896:8910   */\n      add\n        /* \"#utility.yul\":8881:8910   */\n      swap1\n      pop\n        /* \"#utility.yul\":8747:8916   */\n      swap3\n      swap2\n      pop\n      pop\n      jump\t// out\n        /* \"#utility.yul\":8922:9168   */\n    tag_320:\n        /* \"#utility.yul\":9003:9004   */\n      0x00\n        /* \"#utility.yul\":9013:9126   */\n    tag_443:\n        /* \"#utility.yul\":9027:9033   */\n      dup4\n        /* \"#utility.yul\":9024:9025   */\n      dup2\n        /* \"#utility.yul\":9021:9034   */\n      lt\n        /* \"#utility.yul\":9013:9126   */\n      iszero\n      tag_445\n      jumpi\n        /* \"#utility.yul\":9112:9113   */\n      dup1\n        /* \"#utility.yul\":9107:9110   */\n      dup3\n        /* \"#utility.yul\":9103:9114   */\n      add\n        /* \"#utility.yul\":9097:9115   */\n      mload\n        /* \"#utility.yul\":9093:9094   */\n      dup2\n        /* \"#utility.yul\":9088:9091   */\n      dup5\n        /* \"#utility.yul\":9084:9095   */\n      add\n        /* \"#utility.yul\":9077:9116   */\n      mstore\n        /* \"#utility.yul\":9049:9051   */\n      0x20\n        /* \"#utility.yul\":9046:9047   */\n      dup2\n        /* \"#utility.yul\":9042:9052   */\n      add\n        /* \"#utility.yul\":9037:9052   */\n      swap1\n      pop\n        /* \"#utility.yul\":9013:9126   */\n      jump(tag_443)\n    tag_445:\n        /* \"#utility.yul\":9160:9161   */\n      0x00\n        /* \"#utility.yul\":9151:9157   */\n      dup5\n        /* \"#utility.yul\":9146:9149   */\n      dup5\n        /* \"#utility.yul\":9142:9158   */\n      add\n        /* \"#utility.yul\":9135:9162   */\n      mstore\n        /* \"#utility.yul\":8984:9168   */\n      pop\n        /* \"#utility.yul\":8922:9168   */\n      pop\n      pop\n      pop\n      jump\t// out\n        /* \"#utility.yul\":9174:9276   */\n    tag_321:\n        /* \"#utility.yul\":9215:9221   */\n      0x00\n        /* \"#utility.yul\":9266:9268   */\n      0x1f\n        /* \"#utility.yul\":9262:9269   */\n      not\n        /* \"#utility.yul\":9257:9259   */\n      0x1f\n        /* \"#utility.yul\":9250:9255   */\n      dup4\n        /* \"#utility.yul\":9246:9260   */\n      add\n        /* \"#utility.yul\":9242:9270   */\n      and\n        /* \"#utility.yul\":9232:9270   */\n      swap1\n      pop\n        /* \"#utility.yul\":9174:9276   */\n      swap2\n      swap1\n      pop\n      jump\t// out\n        /* \"#utility.yul\":9282:9659   */\n    tag_322:\n        /* \"#utility.yul\":9370:9373   */\n      0x00\n        /* \"#utility.yul\":9398:9437   */\n      tag_448\n        /* \"#utility.yul\":9431:9436   */\n      dup3\n        /* \"#utility.yul\":9398:9437   */\n      tag_318\n      jump\t// in\n    tag_448:\n        /* \"#utility.yul\":9453:9524   */\n      tag_449\n        /* \"#utility.yul\":9517:9523   */\n      dup2\n        /* \"#utility.yul\":9512:9515   */\n      dup6\n        /* \"#utility.yul\":9453:9524   */\n      tag_319\n      jump\t// in\n    tag_449:\n        /* \"#utility.yul\":9446:9524   */\n      swap4\n      pop\n        /* \"#utility.yul\":9533:9598   */\n      tag_450\n        /* \"#utility.yul\":9591:9597   */\n      dup2\n        /* \"#utility.yul\":9586:9589   */\n      dup6\n        /* \"#utility.yul\":9579:9583   */\n      0x20\n        /* \"#utility.yul\":9572:9577   */\n      dup7\n        /* \"#utility.yul\":9568:9584   */\n      add\n        /* \"#utility.yul\":9533:9598   */\n      tag_320\n      jump\t// in\n    tag_450:\n        /* \"#utility.yul\":9623:9652   */\n      tag_451\n        /* \"#utility.yul\":9645:9651   */\n      dup2\n        /* \"#utility.yul\":9623:9652   */\n      tag_321\n      jump\t// in\n    tag_451:\n        /* \"#utility.yul\":9618:9621   */\n      dup5\n        /* \"#utility.yul\":9614:9653   */\n      add\n        /* \"#utility.yul\":9607:9653   */\n      swap2\n      pop\n        /* \"#utility.yul\":9374:9659   */\n      pop\n        /* \"#utility.yul\":9282:9659   */\n      swap3\n      swap2\n      pop\n      pop\n      jump\t// out\n        /* \"#utility.yul\":9665:9978   */\n    tag_59:\n        /* \"#utility.yul\":9778:9782   */\n      0x00\n        /* \"#utility.yul\":9816:9818   */\n      0x20\n        /* \"#utility.yul\":9805:9814   */\n      dup3\n        /* \"#utility.yul\":9801:9819   */\n      add\n        /* \"#utility.yul\":9793:9819   */\n      swap1\n      pop\n        /* \"#utility.yul\":9865:9874   */\n      dup2\n        /* \"#utility.yul\":9859:9863   */\n      dup2\n        /* \"#utility.yul\":9855:9875   */\n      sub\n        /* \"#utility.yul\":9851:9852   */\n      0x00\n        /* \"#utility.yul\":9840:9849   */\n      dup4\n        /* \"#utility.yul\":9836:9853   */\n      add\n        /* \"#utility.yul\":9829:9876   */\n      mstore\n        /* \"#utility.yul\":9893:9971   */\n      tag_453\n        /* \"#utility.yul\":9966:9970   */\n      dup2\n        /* \"#utility.yul\":9957:9963   */\n      dup5\n        /* \"#utility.yul\":9893:9971   */\n      tag_322\n      jump\t// in\n    tag_453:\n        /* \"#utility.yul\":9885:9971   */\n      swap1\n      pop\n        /* \"#utility.yul\":9665:9978   */\n      swap3\n      swap2\n      pop\n      pop\n      jump\t// out\n        /* \"#utility.yul\":9984:10101   */\n    tag_323:\n        /* \"#utility.yul\":10093:10094   */\n      0x00\n        /* \"#utility.yul\":10090:10091   */\n      dup1\n        /* \"#utility.yul\":10083:10095   */\n      revert\n        /* \"#utility.yul\":10107:10224   */\n    tag_324:\n        /* \"#utility.yul\":10216:10217   */\n      0x00\n        /* \"#utility.yul\":10213:10214   */\n      dup1\n        /* \"#utility.yul\":10206:10218   */\n      revert\n        /* \"#utility.yul\":10230:10410   */\n    tag_259:\n        /* \"#utility.yul\":10278:10355   */\n      0x4e487b7100000000000000000000000000000000000000000000000000000000\n        /* \"#utility.yul\":10275:10276   */\n      0x00\n        /* \"#utility.yul\":10268:10356   */\n      mstore\n        /* \"#utility.yul\":10375:10379   */\n      0x41\n        /* \"#utility.yul\":10372:10373   */\n      0x04\n        /* \"#utility.yul\":10365:10380   */\n      mstore\n        /* \"#utility.yul\":10399:10403   */\n      0x24\n        /* \"#utility.yul\":10396:10397   */\n      0x00\n        /* \"#utility.yul\":10389:10404   */\n      revert\n        /* \"#utility.yul\":10416:10697   */\n    tag_325:\n        /* \"#utility.yul\":10499:10526   */\n      tag_458\n        /* \"#utility.yul\":10521:10525   */\n      dup3\n        /* \"#utility.yul\":10499:10526   */\n      tag_321\n      jump\t// in\n    tag_458:\n        /* \"#utility.yul\":10491:10497   */\n      dup2\n        /* \"#utility.yul\":10487:10527   */\n      add\n        /* \"#utility.yul\":10629:10635   */\n      dup2\n        /* \"#utility.yul\":10617:10627   */\n      dup2\n        /* \"#utility.yul\":10614:10636   */\n      lt\n        /* \"#utility.yul\":10593:10611   */\n      0xffffffffffffffff\n        /* \"#utility.yul\":10581:10591   */\n      dup3\n        /* \"#utility.yul\":10578:10612   */\n      gt\n        /* \"#utility.yul\":10575:10637   */\n      or\n        /* \"#utility.yul\":10572:10660   */\n      iszero\n      tag_459\n      jumpi\n        /* \"#utility.yul\":10640:10658   */\n      tag_460\n      tag_259\n      jump\t// in\n    tag_460:\n        /* \"#utility.yul\":10572:10660   */\n    tag_459:\n        /* \"#utility.yul\":10680:10690   */\n      dup1\n        /* \"#utility.yul\":10676:10678   */\n      0x40\n        /* \"#utility.yul\":10669:10691   */\n      mstore\n        /* \"#utility.yul\":10459:10697   */\n      pop\n        /* \"#utility.yul\":10416:10697   */\n      pop\n      pop\n      jump\t// out\n        /* \"#utility.yul\":10703:10832   */\n    tag_326:\n        /* \"#utility.yul\":10737:10743   */\n      0x00\n        /* \"#utility.yul\":10764:10784   */\n      tag_462\n      tag_291\n      jump\t// in\n    tag_462:\n        /* \"#utility.yul\":10754:10784   */\n      swap1\n      pop\n        /* \"#utility.yul\":10793:10826   */\n      tag_463\n        /* \"#utility.yul\":10821:10825   */\n      dup3\n        /* \"#utility.yul\":10813:10819   */\n      dup3\n        /* \"#utility.yul\":10793:10826   */\n      tag_325\n      jump\t// in\n    tag_463:\n        /* \"#utility.yul\":10703:10832   */\n      swap2\n      swap1\n      pop\n      jump\t// out\n        /* \"#utility.yul\":10838:11146   */\n    tag_327:\n        /* \"#utility.yul\":10900:10904   */\n      0x00\n        /* \"#utility.yul\":10990:11008   */\n      0xffffffffffffffff\n        /* \"#utility.yul\":10982:10988   */\n      dup3\n        /* \"#utility.yul\":10979:11009   */\n      gt\n        /* \"#utility.yul\":10976:11032   */\n      iszero\n      tag_465\n      jumpi\n        /* \"#utility.yul\":11012:11030   */\n      tag_466\n      tag_259\n      jump\t// in\n    tag_466:\n        /* \"#utility.yul\":10976:11032   */\n    tag_465:\n        /* \"#utility.yul\":11050:11079   */\n      tag_467\n        /* \"#utility.yul\":11072:11078   */\n      dup3\n        /* \"#utility.yul\":11050:11079   */\n      tag_321\n      jump\t// in\n    tag_467:\n        /* \"#utility.yul\":11042:11079   */\n      swap1\n      pop\n        /* \"#utility.yul\":11134:11138   */\n      0x20\n        /* \"#utility.yul\":11128:11132   */\n      dup2\n        /* \"#utility.yul\":11124:11139   */\n      add\n        /* \"#utility.yul\":11116:11139   */\n      swap1\n      pop\n        /* \"#utility.yul\":10838:11146   */\n      swap2\n      swap1\n      pop\n      jump\t// out\n        /* \"#utility.yul\":11152:11298   */\n    tag_328:\n        /* \"#utility.yul\":11249:11255   */\n      dup3\n        /* \"#utility.yul\":11244:11247   */\n      dup2\n        /* \"#utility.yul\":11239:11242   */\n      dup4\n        /* \"#utility.yul\":11226:11256   */\n      calldatacopy\n        /* \"#utility.yul\":11290:11291   */\n      0x00\n        /* \"#utility.yul\":11281:11287   */\n      dup4\n        /* \"#utility.yul\":11276:11279   */\n      dup4\n        /* \"#utility.yul\":11272:11288   */\n      add\n        /* \"#utility.yul\":11265:11292   */\n      mstore\n        /* \"#utility.yul\":11152:11298   */\n      pop\n      pop\n      pop\n      jump\t// out\n        /* \"#utility.yul\":11304:11729   */\n    tag_329:\n        /* \"#utility.yul\":11382:11387   */\n      0x00\n        /* \"#utility.yul\":11407:11473   */\n      tag_470\n        /* \"#utility.yul\":11423:11472   */\n      tag_471\n        /* \"#utility.yul\":11465:11471   */\n      dup5\n        /* \"#utility.yul\":11423:11472   */\n      tag_327\n      jump\t// in\n    tag_471:\n        /* \"#utility.yul\":11407:11473   */\n      tag_326\n      jump\t// in\n    tag_470:\n        /* \"#utility.yul\":11398:11473   */\n      swap1\n      pop\n        /* \"#utility.yul\":11496:11502   */\n      dup3\n        /* \"#utility.yul\":11489:11494   */\n      dup2\n        /* \"#utility.yul\":11482:11503   */\n      mstore\n        /* \"#utility.yul\":11534:11538   */\n      0x20\n        /* \"#utility.yul\":11527:11532   */\n      dup2\n        /* \"#utility.yul\":11523:11539   */\n      add\n        /* \"#utility.yul\":11572:11575   */\n      dup5\n        /* \"#utility.yul\":11563:11569   */\n      dup5\n        /* \"#utility.yul\":11558:11561   */\n      dup5\n        /* \"#utility.yul\":11554:11570   */\n      add\n        /* \"#utility.yul\":11551:11576   */\n      gt\n        /* \"#utility.yul\":11548:11660   */\n      iszero\n      tag_472\n      jumpi\n        /* \"#utility.yul\":11579:11658   */\n      tag_473\n      tag_324\n      jump\t// in\n    tag_473:\n        /* \"#utility.yul\":11548:11660   */\n    tag_472:\n        /* \"#utility.yul\":11669:11723   */\n      tag_474\n        /* \"#utility.yul\":11716:11722   */\n      dup5\n        /* \"#utility.yul\":11711:11714   */\n      dup3\n        /* \"#utility.yul\":11706:11709   */\n      dup6\n        /* \"#utility.yul\":11669:11723   */\n      tag_328\n      jump\t// in\n    tag_474:\n        /* \"#utility.yul\":11388:11729   */\n      pop\n        /* \"#utility.yul\":11304:11729   */\n      swap4\n      swap3\n      pop\n      pop\n      pop\n      jump\t// out\n        /* \"#utility.yul\":11749:12089   */\n    tag_330:\n        /* \"#utility.yul\":11805:11810   */\n      0x00\n        /* \"#utility.yul\":11854:11857   */\n      dup3\n        /* \"#utility.yul\":11847:11851   */\n      0x1f\n        /* \"#utility.yul\":11839:11845   */\n      dup4\n        /* \"#utility.yul\":11835:11852   */\n      add\n        /* \"#utility.yul\":11831:11858   */\n      slt\n        /* \"#utility.yul\":11821:11943   */\n      tag_476\n      jumpi\n        /* \"#utility.yul\":11862:11941   */\n      tag_477\n      tag_323\n      jump\t// in\n    tag_477:\n        /* \"#utility.yul\":11821:11943   */\n    tag_476:\n        /* \"#utility.yul\":11979:11985   */\n      dup2\n        /* \"#utility.yul\":11966:11986   */\n      calldataload\n        /* \"#utility.yul\":12004:12083   */\n      tag_478\n        /* \"#utility.yul\":12079:12082   */\n      dup5\n        /* \"#utility.yul\":12071:12077   */\n      dup3\n        /* \"#utility.yul\":12064:12068   */\n      0x20\n        /* \"#utility.yul\":12056:12062   */\n      dup7\n        /* \"#utility.yul\":12052:12069   */\n      add\n        /* \"#utility.yul\":12004:12083   */\n      tag_329\n      jump\t// in\n    tag_478:\n        /* \"#utility.yul\":11995:12083   */\n      swap2\n      pop\n        /* \"#utility.yul\":11811:12089   */\n      pop\n        /* \"#utility.yul\":11749:12089   */\n      swap3\n      swap2\n      pop\n      pop\n      jump\t// out\n        /* \"#utility.yul\":12095:12604   */\n    tag_76:\n        /* \"#utility.yul\":12164:12170   */\n      0x00\n        /* \"#utility.yul\":12213:12215   */\n      0x20\n        /* \"#utility.yul\":12201:12210   */\n      dup3\n        /* \"#utility.yul\":12192:12199   */\n      dup5\n        /* \"#utility.yul\":12188:12211   */\n      sub\n        /* \"#utility.yul\":12184:12216   */\n      slt\n        /* \"#utility.yul\":12181:12300   */\n      iszero\n      tag_480\n      jumpi\n        /* \"#utility.yul\":12219:12298   */\n      tag_481\n      tag_292\n      jump\t// in\n    tag_481:\n        /* \"#utility.yul\":12181:12300   */\n    tag_480:\n        /* \"#utility.yul\":12367:12368   */\n      0x00\n        /* \"#utility.yul\":12356:12365   */\n      dup3\n        /* \"#utility.yul\":12352:12369   */\n      add\n        /* \"#utility.yul\":12339:12370   */\n      calldataload\n        /* \"#utility.yul\":12397:12415   */\n      0xffffffffffffffff\n        /* \"#utility.yul\":12389:12395   */\n      dup2\n        /* \"#utility.yul\":12386:12416   */\n      gt\n        /* \"#utility.yul\":12383:12500   */\n      iszero\n      tag_482\n      jumpi\n        /* \"#utility.yul\":12419:12498   */\n      tag_483\n      tag_293\n      jump\t// in\n    tag_483:\n        /* \"#utility.yul\":12383:12500   */\n    tag_482:\n        /* \"#utility.yul\":12524:12587   */\n      tag_484\n        /* \"#utility.yul\":12579:12586   */\n      dup5\n        /* \"#utility.yul\":12570:12576   */\n      dup3\n        /* \"#utility.yul\":12559:12568   */\n      dup6\n        /* \"#utility.yul\":12555:12577   */\n      add\n        /* \"#utility.yul\":12524:12587   */\n      tag_330\n      jump\t// in\n    tag_484:\n        /* \"#utility.yul\":12514:12587   */\n      swap2\n      pop\n        /* \"#utility.yul\":12310:12597   */\n      pop\n        /* \"#utility.yul\":12095:12604   */\n      swap3\n      swap2\n      pop\n      pop\n      jump\t// out\n        /* \"#utility.yul\":12610:12758   */\n    tag_331:\n        /* \"#utility.yul\":12712:12723   */\n      0x00\n        /* \"#utility.yul\":12749:12752   */\n      dup2\n        /* \"#utility.yul\":12734:12752   */\n      swap1\n      pop\n        /* \"#utility.yul\":12610:12758   */\n      swap3\n      swap2\n      pop\n      pop\n      jump\t// out\n        /* \"#utility.yul\":12764:13154   */\n    tag_332:\n        /* \"#utility.yul\":12870:12873   */\n      0x00\n        /* \"#utility.yul\":12898:12937   */\n      tag_487\n        /* \"#utility.yul\":12931:12936   */\n      dup3\n        /* \"#utility.yul\":12898:12937   */\n      tag_318\n      jump\t// in\n    tag_487:\n        /* \"#utility.yul\":12953:13042   */\n      tag_488\n        /* \"#utility.yul\":13035:13041   */\n      dup2\n        /* \"#utility.yul\":13030:13033   */\n      dup6\n        /* \"#utility.yul\":12953:13042   */\n      tag_331\n      jump\t// in\n    tag_488:\n        /* \"#utility.yul\":12946:13042   */\n      swap4\n      pop\n        /* \"#utility.yul\":13051:13116   */\n      tag_489\n        /* \"#utility.yul\":13109:13115   */\n      dup2\n        /* \"#utility.yul\":13104:13107   */\n      dup6\n        /* \"#utility.yul\":13097:13101   */\n      0x20\n        /* \"#utility.yul\":13090:13095   */\n      dup7\n        /* \"#utility.yul\":13086:13102   */\n      add\n        /* \"#utility.yul\":13051:13116   */\n      tag_320\n      jump\t// in\n    tag_489:\n        /* \"#utility.yul\":13141:13147   */\n      dup1\n        /* \"#utility.yul\":13136:13139   */\n      dup5\n        /* \"#utility.yul\":13132:13148   */\n      add\n        /* \"#utility.yul\":13125:13148   */\n      swap2\n      pop\n        /* \"#utility.yul\":12874:13154   */\n      pop\n        /* \"#utility.yul\":12764:13154   */\n      swap3\n      swap2\n      pop\n      pop\n      jump\t// out\n        /* \"#utility.yul\":13160:13435   */\n    tag_82:\n        /* \"#utility.yul\":13292:13295   */\n      0x00\n        /* \"#utility.yul\":13314:13409   */\n      tag_491\n        /* \"#utility.yul\":13405:13408   */\n      dup3\n        /* \"#utility.yul\":13396:13402   */\n      dup5\n        /* \"#utility.yul\":13314:13409   */\n      tag_332\n      jump\t// in\n    tag_491:\n        /* \"#utility.yul\":13307:13409   */\n      swap2\n      pop\n        /* \"#utility.yul\":13426:13429   */\n      dup2\n        /* \"#utility.yul\":13419:13429   */\n      swap1\n      pop\n        /* \"#utility.yul\":13160:13435   */\n      swap3\n      swap2\n      pop\n      pop\n      jump\t// out\n        /* \"#utility.yul\":13441:13617   */\n    tag_333:\n        /* \"#utility.yul\":13581:13609   */\n      0x54686520636c69656e74206973206e6f7420696e73757265642e000000000000\n        /* \"#utility.yul\":13577:13578   */\n      0x00\n        /* \"#utility.yul\":13569:13575   */\n      dup3\n        /* \"#utility.yul\":13565:13579   */\n      add\n        /* \"#utility.yul\":13558:13610   */\n      mstore\n        /* \"#utility.yul\":13441:13617   */\n      pop\n      jump\t// out\n        /* \"#utility.yul\":13623:13989   */\n    tag_334:\n        /* \"#utility.yul\":13765:13768   */\n      0x00\n        /* \"#utility.yul\":13786:13853   */\n      tag_494\n        /* \"#utility.yul\":13850:13852   */\n      0x1a\n        /* \"#utility.yul\":13845:13848   */\n      dup4\n        /* \"#utility.yul\":13786:13853   */\n      tag_319\n      jump\t// in\n    tag_494:\n        /* \"#utility.yul\":13779:13853   */\n      swap2\n      pop\n        /* \"#utility.yul\":13862:13955   */\n      tag_495\n        /* \"#utility.yul\":13951:13954   */\n      dup3\n        /* \"#utility.yul\":13862:13955   */\n      tag_333\n      jump\t// in\n    tag_495:\n        /* \"#utility.yul\":13980:13982   */\n      0x20\n        /* \"#utility.yul\":13975:13978   */\n      dup3\n        /* \"#utility.yul\":13971:13983   */\n      add\n        /* \"#utility.yul\":13964:13983   */\n      swap1\n      pop\n        /* \"#utility.yul\":13623:13989   */\n      swap2\n      swap1\n      pop\n      jump\t// out\n        /* \"#utility.yul\":13995:14414   */\n    tag_87:\n        /* \"#utility.yul\":14161:14165   */\n      0x00\n        /* \"#utility.yul\":14199:14201   */\n      0x20\n        /* \"#utility.yul\":14188:14197   */\n      dup3\n        /* \"#utility.yul\":14184:14202   */\n      add\n        /* \"#utility.yul\":14176:14202   */\n      swap1\n      pop\n        /* \"#utility.yul\":14248:14257   */\n      dup2\n        /* \"#utility.yul\":14242:14246   */\n      dup2\n        /* \"#utility.yul\":14238:14258   */\n      sub\n        /* \"#utility.yul\":14234:14235   */\n      0x00\n        /* \"#utility.yul\":14223:14232   */\n      dup4\n        /* \"#utility.yul\":14219:14236   */\n      add\n        /* \"#utility.yul\":14212:14259   */\n      mstore\n        /* \"#utility.yul\":14276:14407   */\n      tag_497\n        /* \"#utility.yul\":14402:14406   */\n      dup2\n        /* \"#utility.yul\":14276:14407   */\n      tag_334\n      jump\t// in\n    tag_497:\n        /* \"#utility.yul\":14268:14407   */\n      swap1\n      pop\n        /* \"#utility.yul\":13995:14414   */\n      swap2\n      swap1\n      pop\n      jump\t// out\n        /* \"#utility.yul\":14420:14652   */\n    tag_335:\n        /* \"#utility.yul\":14560:14594   */\n      0x596f752063616e6e6f742066696c65206120636c61696d20666f722074686520\n        /* \"#utility.yul\":14556:14557   */\n      0x00\n        /* \"#utility.yul\":14548:14554   */\n      dup3\n        /* \"#utility.yul\":14544:14558   */\n      add\n        /* \"#utility.yul\":14537:14595   */\n      mstore\n        /* \"#utility.yul\":14629:14644   */\n      0x6465736972656420796561722e00000000000000000000000000000000000000\n        /* \"#utility.yul\":14624:14626   */\n      0x20\n        /* \"#utility.yul\":14616:14622   */\n      dup3\n        /* \"#utility.yul\":14612:14627   */\n      add\n        /* \"#utility.yul\":14605:14645   */\n      mstore\n        /* \"#utility.yul\":14420:14652   */\n      pop\n      jump\t// out\n        /* \"#utility.yul\":14658:15024   */\n    tag_336:\n        /* \"#utility.yul\":14800:14803   */\n      0x00\n        /* \"#utility.yul\":14821:14888   */\n      tag_500\n        /* \"#utility.yul\":14885:14887   */\n      0x2d\n        /* \"#utility.yul\":14880:14883   */\n      dup4\n        /* \"#utility.yul\":14821:14888   */\n      tag_319\n      jump\t// in\n    tag_500:\n        /* \"#utility.yul\":14814:14888   */\n      swap2\n      pop\n        /* \"#utility.yul\":14897:14990   */\n      tag_501\n        /* \"#utility.yul\":14986:14989   */\n      dup3\n        /* \"#utility.yul\":14897:14990   */\n      tag_335\n      jump\t// in\n    tag_501:\n        /* \"#utility.yul\":15015:15017   */\n      0x40\n        /* \"#utility.yul\":15010:15013   */\n      dup3\n        /* \"#utility.yul\":15006:15018   */\n      add\n        /* \"#utility.yul\":14999:15018   */\n      swap1\n      pop\n        /* \"#utility.yul\":14658:15024   */\n      swap2\n      swap1\n      pop\n      jump\t// out\n        /* \"#utility.yul\":15030:15449   */\n    tag_91:\n        /* \"#utility.yul\":15196:15200   */\n      0x00\n        /* \"#utility.yul\":15234:15236   */\n      0x20\n        /* \"#utility.yul\":15223:15232   */\n      dup3\n        /* \"#utility.yul\":15219:15237   */\n      add\n        /* \"#utility.yul\":15211:15237   */\n      swap1\n      pop\n        /* \"#utility.yul\":15283:15292   */\n      dup2\n        /* \"#utility.yul\":15277:15281   */\n      dup2\n        /* \"#utility.yul\":15273:15293   */\n      sub\n        /* \"#utility.yul\":15269:15270   */\n      0x00\n        /* \"#utility.yul\":15258:15267   */\n      dup4\n        /* \"#utility.yul\":15254:15271   */\n      add\n        /* \"#utility.yul\":15247:15294   */\n      mstore\n        /* \"#utility.yul\":15311:15442   */\n      tag_503\n        /* \"#utility.yul\":15437:15441   */\n      dup2\n        /* \"#utility.yul\":15311:15442   */\n      tag_336\n      jump\t// in\n    tag_503:\n        /* \"#utility.yul\":15303:15442   */\n      swap1\n      pop\n        /* \"#utility.yul\":15030:15449   */\n      swap2\n      swap1\n      pop\n      jump\t// out\n        /* \"#utility.yul\":15455:15683   */\n    tag_337:\n        /* \"#utility.yul\":15595:15629   */\n      0x5468657265206973206e6f207265636f726420666f7220746865207265717569\n        /* \"#utility.yul\":15591:15592   */\n      0x00\n        /* \"#utility.yul\":15583:15589   */\n      dup3\n        /* \"#utility.yul\":15579:15593   */\n      add\n        /* \"#utility.yul\":15572:15630   */\n      mstore\n        /* \"#utility.yul\":15664:15675   */\n      0x72656420796561722e0000000000000000000000000000000000000000000000\n        /* \"#utility.yul\":15659:15661   */\n      0x20\n        /* \"#utility.yul\":15651:15657   */\n      dup3\n        /* \"#utility.yul\":15647:15662   */\n      add\n        /* \"#utility.yul\":15640:15676   */\n      mstore\n        /* \"#utility.yul\":15455:15683   */\n      pop\n      jump\t// out\n        /* \"#utility.yul\":15689:16055   */\n    tag_338:\n        /* \"#utility.yul\":15831:15834   */\n      0x00\n        /* \"#utility.yul\":15852:15919   */\n      tag_506\n        /* \"#utility.yul\":15916:15918   */\n      0x29\n        /* \"#utility.yul\":15911:15914   */\n      dup4\n        /* \"#utility.yul\":15852:15919   */\n      tag_319\n      jump\t// in\n    tag_506:\n        /* \"#utility.yul\":15845:15919   */\n      swap2\n      pop\n        /* \"#utility.yul\":15928:16021   */\n      tag_507\n        /* \"#utility.yul\":16017:16020   */\n      dup3\n        /* \"#utility.yul\":15928:16021   */\n      tag_337\n      jump\t// in\n    tag_507:\n        /* \"#utility.yul\":16046:16048   */\n      0x40\n        /* \"#utility.yul\":16041:16044   */\n      dup3\n        /* \"#utility.yul\":16037:16049   */\n      add\n        /* \"#utility.yul\":16030:16049   */\n      swap1\n      pop\n        /* \"#utility.yul\":15689:16055   */\n      swap2\n      swap1\n      pop\n      jump\t// out\n        /* \"#utility.yul\":16061:16480   */\n    tag_97:\n        /* \"#utility.yul\":16227:16231   */\n      0x00\n        /* \"#utility.yul\":16265:16267   */\n      0x20\n        /* \"#utility.yul\":16254:16263   */\n      dup3\n        /* \"#utility.yul\":16250:16268   */\n      add\n        /* \"#utility.yul\":16242:16268   */\n      swap1\n      pop\n        /* \"#utility.yul\":16314:16323   */\n      dup2\n        /* \"#utility.yul\":16308:16312   */\n      dup2\n        /* \"#utility.yul\":16304:16324   */\n      sub\n        /* \"#utility.yul\":16300:16301   */\n      0x00\n        /* \"#utility.yul\":16289:16298   */\n      dup4\n        /* \"#utility.yul\":16285:16302   */\n      add\n        /* \"#utility.yul\":16278:16325   */\n      mstore\n        /* \"#utility.yul\":16342:16473   */\n      tag_509\n        /* \"#utility.yul\":16468:16472   */\n      dup2\n        /* \"#utility.yul\":16342:16473   */\n      tag_338\n      jump\t// in\n    tag_509:\n        /* \"#utility.yul\":16334:16473   */\n      swap1\n      pop\n        /* \"#utility.yul\":16061:16480   */\n      swap2\n      swap1\n      pop\n      jump\t// out\n        /* \"#utility.yul\":16486:16666   */\n    tag_339:\n        /* \"#utility.yul\":16534:16611   */\n      0x4e487b7100000000000000000000000000000000000000000000000000000000\n        /* \"#utility.yul\":16531:16532   */\n      0x00\n        /* \"#utility.yul\":16524:16612   */\n      mstore\n        /* \"#utility.yul\":16631:16635   */\n      0x11\n        /* \"#utility.yul\":16628:16629   */\n      0x04\n        /* \"#utility.yul\":16621:16636   */\n      mstore\n        /* \"#utility.yul\":16655:16659   */\n      0x24\n        /* \"#utility.yul\":16652:16653   */\n      0x00\n        /* \"#utility.yul\":16645:16660   */\n      revert\n        /* \"#utility.yul\":16672:16863   */\n    tag_106:\n        /* \"#utility.yul\":16712:16715   */\n      0x00\n        /* \"#utility.yul\":16731:16751   */\n      tag_512\n        /* \"#utility.yul\":16749:16750   */\n      dup3\n        /* \"#utility.yul\":16731:16751   */\n      tag_294\n      jump\t// in\n    tag_512:\n        /* \"#utility.yul\":16726:16751   */\n      swap2\n      pop\n        /* \"#utility.yul\":16765:16785   */\n      tag_513\n        /* \"#utility.yul\":16783:16784   */\n      dup4\n        /* \"#utility.yul\":16765:16785   */\n      tag_294\n      jump\t// in\n    tag_513:\n        /* \"#utility.yul\":16760:16785   */\n      swap3\n      pop\n        /* \"#utility.yul\":16808:16809   */\n      dup3\n        /* \"#utility.yul\":16805:16806   */\n      dup3\n        /* \"#utility.yul\":16801:16810   */\n      add\n        /* \"#utility.yul\":16794:16810   */\n      swap1\n      pop\n        /* \"#utility.yul\":16829:16832   */\n      dup1\n        /* \"#utility.yul\":16826:16827   */\n      dup3\n        /* \"#utility.yul\":16823:16833   */\n      gt\n        /* \"#utility.yul\":16820:16856   */\n      iszero\n      tag_514\n      jumpi\n        /* \"#utility.yul\":16836:16854   */\n      tag_515\n      tag_339\n      jump\t// in\n    tag_515:\n        /* \"#utility.yul\":16820:16856   */\n    tag_514:\n        /* \"#utility.yul\":16672:16863   */\n      swap3\n      swap2\n      pop\n      pop\n      jump\t// out\n        /* \"#utility.yul\":16869:17279   */\n    tag_114:\n        /* \"#utility.yul\":16909:16916   */\n      0x00\n        /* \"#utility.yul\":16932:16952   */\n      tag_517\n        /* \"#utility.yul\":16950:16951   */\n      dup3\n        /* \"#utility.yul\":16932:16952   */\n      tag_294\n      jump\t// in\n    tag_517:\n        /* \"#utility.yul\":16927:16952   */\n      swap2\n      pop\n        /* \"#utility.yul\":16966:16986   */\n      tag_518\n        /* \"#utility.yul\":16984:16985   */\n      dup4\n        /* \"#utility.yul\":16966:16986   */\n      tag_294\n      jump\t// in\n    tag_518:\n        /* \"#utility.yul\":16961:16986   */\n      swap3\n      pop\n        /* \"#utility.yul\":17021:17022   */\n      dup3\n        /* \"#utility.yul\":17018:17019   */\n      dup3\n        /* \"#utility.yul\":17014:17023   */\n      mul\n        /* \"#utility.yul\":17043:17073   */\n      tag_519\n        /* \"#utility.yul\":17061:17072   */\n      dup2\n        /* \"#utility.yul\":17043:17073   */\n      tag_294\n      jump\t// in\n    tag_519:\n        /* \"#utility.yul\":17032:17073   */\n      swap2\n      pop\n        /* \"#utility.yul\":17222:17223   */\n      dup3\n        /* \"#utility.yul\":17213:17220   */\n      dup3\n        /* \"#utility.yul\":17209:17224   */\n      div\n        /* \"#utility.yul\":17206:17207   */\n      dup5\n        /* \"#utility.yul\":17203:17225   */\n      eq\n        /* \"#utility.yul\":17183:17184   */\n      dup4\n        /* \"#utility.yul\":17176:17185   */\n      iszero\n        /* \"#utility.yul\":17156:17239   */\n      or\n        /* \"#utility.yul\":17133:17272   */\n      tag_520\n      jumpi\n        /* \"#utility.yul\":17252:17270   */\n      tag_521\n      tag_339\n      jump\t// in\n    tag_521:\n        /* \"#utility.yul\":17133:17272   */\n    tag_520:\n        /* \"#utility.yul\":16917:17279   */\n      pop\n        /* \"#utility.yul\":16869:17279   */\n      swap3\n      swap2\n      pop\n      pop\n      jump\t// out\n        /* \"#utility.yul\":17285:17465   */\n    tag_340:\n        /* \"#utility.yul\":17425:17457   */\n      0x54686520636c69656e7420697320616c726561647920696e73757265642e0000\n        /* \"#utility.yul\":17421:17422   */\n      0x00\n        /* \"#utility.yul\":17413:17419   */\n      dup3\n        /* \"#utility.yul\":17409:17423   */\n      add\n        /* \"#utility.yul\":17402:17458   */\n      mstore\n        /* \"#utility.yul\":17285:17465   */\n      pop\n      jump\t// out\n        /* \"#utility.yul\":17471:17837   */\n    tag_341:\n        /* \"#utility.yul\":17613:17616   */\n      0x00\n        /* \"#utility.yul\":17634:17701   */\n      tag_524\n        /* \"#utility.yul\":17698:17700   */\n      0x1e\n        /* \"#utility.yul\":17693:17696   */\n      dup4\n        /* \"#utility.yul\":17634:17701   */\n      tag_319\n      jump\t// in\n    tag_524:\n        /* \"#utility.yul\":17627:17701   */\n      swap2\n      pop\n        /* \"#utility.yul\":17710:17803   */\n      tag_525\n        /* \"#utility.yul\":17799:17802   */\n      dup3\n        /* \"#utility.yul\":17710:17803   */\n      tag_340\n      jump\t// in\n    tag_525:\n        /* \"#utility.yul\":17828:17830   */\n      0x20\n        /* \"#utility.yul\":17823:17826   */\n      dup3\n        /* \"#utility.yul\":17819:17831   */\n      add\n        /* \"#utility.yul\":17812:17831   */\n      swap1\n      pop\n        /* \"#utility.yul\":17471:17837   */\n      swap2\n      swap1\n      pop\n      jump\t// out\n        /* \"#utility.yul\":17843:18262   */\n    tag_135:\n        /* \"#utility.yul\":18009:18013   */\n      0x00\n        /* \"#utility.yul\":18047:18049   */\n      0x20\n        /* \"#utility.yul\":18036:18045   */\n      dup3\n        /* \"#utility.yul\":18032:18050   */\n      add\n        /* \"#utility.yul\":18024:18050   */\n      swap1\n      pop\n        /* \"#utility.yul\":18096:18105   */\n      dup2\n        /* \"#utility.yul\":18090:18094   */\n      dup2\n        /* \"#utility.yul\":18086:18106   */\n      sub\n        /* \"#utility.yul\":18082:18083   */\n      0x00\n        /* \"#utility.yul\":18071:18080   */\n      dup4\n        /* \"#utility.yul\":18067:18084   */\n      add\n        /* \"#utility.yul\":18060:18107   */\n      mstore\n        /* \"#utility.yul\":18124:18255   */\n      tag_527\n        /* \"#utility.yul\":18250:18254   */\n      dup2\n        /* \"#utility.yul\":18124:18255   */\n      tag_341\n      jump\t// in\n    tag_527:\n        /* \"#utility.yul\":18116:18255   */\n      swap1\n      pop\n        /* \"#utility.yul\":17843:18262   */\n      swap2\n      swap1\n      pop\n      jump\t// out\n        /* \"#utility.yul\":18268:18513   */\n    tag_342:\n        /* \"#utility.yul\":18408:18442   */\n      0x546865207072656d69756d206d75737420626520636f766572656420746f2072\n        /* \"#utility.yul\":18404:18405   */\n      0x00\n        /* \"#utility.yul\":18396:18402   */\n      dup3\n        /* \"#utility.yul\":18392:18406   */\n      add\n        /* \"#utility.yul\":18385:18443   */\n      mstore\n        /* \"#utility.yul\":18477:18505   */\n      0x65676973746572206f722072656e6577206120706f6c6963792e000000000000\n        /* \"#utility.yul\":18472:18474   */\n      0x20\n        /* \"#utility.yul\":18464:18470   */\n      dup3\n        /* \"#utility.yul\":18460:18475   */\n      add\n        /* \"#utility.yul\":18453:18506   */\n      mstore\n        /* \"#utility.yul\":18268:18513   */\n      pop\n      jump\t// out\n        /* \"#utility.yul\":18519:18885   */\n    tag_343:\n        /* \"#utility.yul\":18661:18664   */\n      0x00\n        /* \"#utility.yul\":18682:18749   */\n      tag_530\n        /* \"#utility.yul\":18746:18748   */\n      0x3a\n        /* \"#utility.yul\":18741:18744   */\n      dup4\n        /* \"#utility.yul\":18682:18749   */\n      tag_319\n      jump\t// in\n    tag_530:\n        /* \"#utility.yul\":18675:18749   */\n      swap2\n      pop\n        /* \"#utility.yul\":18758:18851   */\n      tag_531\n        /* \"#utility.yul\":18847:18850   */\n      dup3\n        /* \"#utility.yul\":18758:18851   */\n      tag_342\n      jump\t// in\n    tag_531:\n        /* \"#utility.yul\":18876:18878   */\n      0x40\n        /* \"#utility.yul\":18871:18874   */\n      dup3\n        /* \"#utility.yul\":18867:18879   */\n      add\n        /* \"#utility.yul\":18860:18879   */\n      swap1\n      pop\n        /* \"#utility.yul\":18519:18885   */\n      swap2\n      swap1\n      pop\n      jump\t// out\n        /* \"#utility.yul\":18891:19310   */\n    tag_144:\n        /* \"#utility.yul\":19057:19061   */\n      0x00\n        /* \"#utility.yul\":19095:19097   */\n      0x20\n        /* \"#utility.yul\":19084:19093   */\n      dup3\n        /* \"#utility.yul\":19080:19098   */\n      add\n        /* \"#utility.yul\":19072:19098   */\n      swap1\n      pop\n        /* \"#utility.yul\":19144:19153   */\n      dup2\n        /* \"#utility.yul\":19138:19142   */\n      dup2\n        /* \"#utility.yul\":19134:19154   */\n      sub\n        /* \"#utility.yul\":19130:19131   */\n      0x00\n        /* \"#utility.yul\":19119:19128   */\n      dup4\n        /* \"#utility.yul\":19115:19132   */\n      add\n        /* \"#utility.yul\":19108:19155   */\n      mstore\n        /* \"#utility.yul\":19172:19303   */\n      tag_533\n        /* \"#utility.yul\":19298:19302   */\n      dup2\n        /* \"#utility.yul\":19172:19303   */\n      tag_343\n      jump\t// in\n    tag_533:\n        /* \"#utility.yul\":19164:19303   */\n      swap1\n      pop\n        /* \"#utility.yul\":18891:19310   */\n      swap2\n      swap1\n      pop\n      jump\t// out\n        /* \"#utility.yul\":19316:19496   */\n    tag_265:\n        /* \"#utility.yul\":19364:19441   */\n      0x4e487b7100000000000000000000000000000000000000000000000000000000\n        /* \"#utility.yul\":19361:19362   */\n      0x00\n        /* \"#utility.yul\":19354:19442   */\n      mstore\n        /* \"#utility.yul\":19461:19465   */\n      0x12\n        /* \"#utility.yul\":19458:19459   */\n      0x04\n        /* \"#utility.yul\":19451:19466   */\n      mstore\n        /* \"#utility.yul\":19485:19489   */\n      0x24\n        /* \"#utility.yul\":19482:19483   */\n      0x00\n        /* \"#utility.yul\":19475:19490   */\n      revert\n        /* \"#utility.yul\":19502:19687   */\n    tag_162:\n        /* \"#utility.yul\":19542:19543   */\n      0x00\n        /* \"#utility.yul\":19559:19579   */\n      tag_536\n        /* \"#utility.yul\":19577:19578   */\n      dup3\n        /* \"#utility.yul\":19559:19579   */\n      tag_294\n      jump\t// in\n    tag_536:\n        /* \"#utility.yul\":19554:19579   */\n      swap2\n      pop\n        /* \"#utility.yul\":19593:19613   */\n      tag_537\n        /* \"#utility.yul\":19611:19612   */\n      dup4\n        /* \"#utility.yul\":19593:19613   */\n      tag_294\n      jump\t// in\n    tag_537:\n        /* \"#utility.yul\":19588:19613   */\n      swap3\n      pop\n        /* \"#utility.yul\":19632:19633   */\n      dup3\n        /* \"#utility.yul\":19622:19657   */\n      tag_538\n      jumpi\n        /* \"#utility.yul\":19637:19655   */\n      tag_539\n      tag_265\n      jump\t// in\n    tag_539:\n        /* \"#utility.yul\":19622:19657   */\n    tag_538:\n        /* \"#utility.yul\":19679:19680   */\n      dup3\n        /* \"#utility.yul\":19676:19677   */\n      dup3\n        /* \"#utility.yul\":19672:19681   */\n      div\n        /* \"#utility.yul\":19667:19681   */\n      swap1\n      pop\n        /* \"#utility.yul\":19502:19687   */\n      swap3\n      swap2\n      pop\n      pop\n      jump\t// out\n        /* \"#utility.yul\":19693:19874   */\n    tag_344:\n        /* \"#utility.yul\":19833:19866   */\n      0x43616e6e6f74206c6f61642074686520636f6e74726163742077697468203000\n        /* \"#utility.yul\":19829:19830   */\n      0x00\n        /* \"#utility.yul\":19821:19827   */\n      dup3\n        /* \"#utility.yul\":19817:19831   */\n      add\n        /* \"#utility.yul\":19810:19867   */\n      mstore\n        /* \"#utility.yul\":19693:19874   */\n      pop\n      jump\t// out\n        /* \"#utility.yul\":19880:20246   */\n    tag_345:\n        /* \"#utility.yul\":20022:20025   */\n      0x00\n        /* \"#utility.yul\":20043:20110   */\n      tag_542\n        /* \"#utility.yul\":20107:20109   */\n      0x1f\n        /* \"#utility.yul\":20102:20105   */\n      dup4\n        /* \"#utility.yul\":20043:20110   */\n      tag_319\n      jump\t// in\n    tag_542:\n        /* \"#utility.yul\":20036:20110   */\n      swap2\n      pop\n        /* \"#utility.yul\":20119:20212   */\n      tag_543\n        /* \"#utility.yul\":20208:20211   */\n      dup3\n        /* \"#utility.yul\":20119:20212   */\n      tag_344\n      jump\t// in\n    tag_543:\n        /* \"#utility.yul\":20237:20239   */\n      0x20\n        /* \"#utility.yul\":20232:20235   */\n      dup3\n        /* \"#utility.yul\":20228:20240   */\n      add\n        /* \"#utility.yul\":20221:20240   */\n      swap1\n      pop\n        /* \"#utility.yul\":19880:20246   */\n      swap2\n      swap1\n      pop\n      jump\t// out\n        /* \"#utility.yul\":20252:20671   */\n    tag_178:\n        /* \"#utility.yul\":20418:20422   */\n      0x00\n        /* \"#utility.yul\":20456:20458   */\n      0x20\n        /* \"#utility.yul\":20445:20454   */\n      dup3\n        /* \"#utility.yul\":20441:20459   */\n      add\n        /* \"#utility.yul\":20433:20459   */\n      swap1\n      pop\n        /* \"#utility.yul\":20505:20514   */\n      dup2\n        /* \"#utility.yul\":20499:20503   */\n      dup2\n        /* \"#utility.yul\":20495:20515   */\n      sub\n        /* \"#utility.yul\":20491:20492   */\n      0x00\n        /* \"#utility.yul\":20480:20489   */\n      dup4\n        /* \"#utility.yul\":20476:20493   */\n      add\n        /* \"#utility.yul\":20469:20516   */\n      mstore\n        /* \"#utility.yul\":20533:20664   */\n      tag_545\n        /* \"#utility.yul\":20659:20663   */\n      dup2\n        /* \"#utility.yul\":20533:20664   */\n      tag_345\n      jump\t// in\n    tag_545:\n        /* \"#utility.yul\":20525:20664   */\n      swap1\n      pop\n        /* \"#utility.yul\":20252:20671   */\n      swap2\n      swap1\n      pop\n      jump\t// out\n        /* \"#utility.yul\":20677:20871   */\n    tag_210:\n        /* \"#utility.yul\":20717:20721   */\n      0x00\n        /* \"#utility.yul\":20737:20757   */\n      tag_547\n        /* \"#utility.yul\":20755:20756   */\n      dup3\n        /* \"#utility.yul\":20737:20757   */\n      tag_294\n      jump\t// in\n    tag_547:\n        /* \"#utility.yul\":20732:20757   */\n      swap2\n      pop\n        /* \"#utility.yul\":20771:20791   */\n      tag_548\n        /* \"#utility.yul\":20789:20790   */\n      dup4\n        /* \"#utility.yul\":20771:20791   */\n      tag_294\n      jump\t// in\n    tag_548:\n        /* \"#utility.yul\":20766:20791   */\n      swap3\n      pop\n        /* \"#utility.yul\":20815:20816   */\n      dup3\n        /* \"#utility.yul\":20812:20813   */\n      dup3\n        /* \"#utility.yul\":20808:20817   */\n      sub\n        /* \"#utility.yul\":20800:20817   */\n      swap1\n      pop\n        /* \"#utility.yul\":20839:20840   */\n      dup2\n        /* \"#utility.yul\":20833:20837   */\n      dup2\n        /* \"#utility.yul\":20830:20841   */\n      gt\n        /* \"#utility.yul\":20827:20864   */\n      iszero\n      tag_549\n      jumpi\n        /* \"#utility.yul\":20844:20862   */\n      tag_550\n      tag_339\n      jump\t// in\n    tag_550:\n        /* \"#utility.yul\":20827:20864   */\n    tag_549:\n        /* \"#utility.yul\":20677:20871   */\n      swap3\n      swap2\n      pop\n      pop\n      jump\t// out\n        /* \"#utility.yul\":20877:21100   */\n    tag_346:\n        /* \"#utility.yul\":21017:21051   */\n      0x436c61696d732063616e206f6e6c792062652066696c65642065766572792079\n        /* \"#utility.yul\":21013:21014   */\n      0x00\n        /* \"#utility.yul\":21005:21011   */\n      dup3\n        /* \"#utility.yul\":21001:21015   */\n      add\n        /* \"#utility.yul\":20994:21052   */\n      mstore\n        /* \"#utility.yul\":21086:21092   */\n      0x6561722e00000000000000000000000000000000000000000000000000000000\n        /* \"#utility.yul\":21081:21083   */\n      0x20\n        /* \"#utility.yul\":21073:21079   */\n      dup3\n        /* \"#utility.yul\":21069:21084   */\n      add\n        /* \"#utility.yul\":21062:21093   */\n      mstore\n        /* \"#utility.yul\":20877:21100   */\n      pop\n      jump\t// out\n        /* \"#utility.yul\":21106:21472   */\n    tag_347:\n        /* \"#utility.yul\":21248:21251   */\n      0x00\n        /* \"#utility.yul\":21269:21336   */\n      tag_553\n        /* \"#utility.yul\":21333:21335   */\n      0x24\n        /* \"#utility.yul\":21328:21331   */\n      dup4\n        /* \"#utility.yul\":21269:21336   */\n      tag_319\n      jump\t// in\n    tag_553:\n        /* \"#utility.yul\":21262:21336   */\n      swap2\n      pop\n        /* \"#utility.yul\":21345:21438   */\n      tag_554\n        /* \"#utility.yul\":21434:21437   */\n      dup3\n        /* \"#utility.yul\":21345:21438   */\n      tag_346\n      jump\t// in\n    tag_554:\n        /* \"#utility.yul\":21463:21465   */\n      0x40\n        /* \"#utility.yul\":21458:21461   */\n      dup3\n        /* \"#utility.yul\":21454:21466   */\n      add\n        /* \"#utility.yul\":21447:21466   */\n      swap1\n      pop\n        /* \"#utility.yul\":21106:21472   */\n      swap2\n      swap1\n      pop\n      jump\t// out\n        /* \"#utility.yul\":21478:21897   */\n    tag_223:\n        /* \"#utility.yul\":21644:21648   */\n      0x00\n        /* \"#utility.yul\":21682:21684   */\n      0x20\n        /* \"#utility.yul\":21671:21680   */\n      dup3\n        /* \"#utility.yul\":21667:21685   */\n      add\n        /* \"#utility.yul\":21659:21685   */\n      swap1\n      pop\n        /* \"#utility.yul\":21731:21740   */\n      dup2\n        /* \"#utility.yul\":21725:21729   */\n      dup2\n        /* \"#utility.yul\":21721:21741   */\n      sub\n        /* \"#utility.yul\":21717:21718   */\n      0x00\n        /* \"#utility.yul\":21706:21715   */\n      dup4\n        /* \"#utility.yul\":21702:21719   */\n      add\n        /* \"#utility.yul\":21695:21742   */\n      mstore\n        /* \"#utility.yul\":21759:21890   */\n      tag_556\n        /* \"#utility.yul\":21885:21889   */\n      dup2\n        /* \"#utility.yul\":21759:21890   */\n      tag_347\n      jump\t// in\n    tag_556:\n        /* \"#utility.yul\":21751:21890   */\n      swap1\n      pop\n        /* \"#utility.yul\":21478:21897   */\n      swap2\n      swap1\n      pop\n      jump\t// out\n        /* \"#utility.yul\":21903:22338   */\n    tag_253:\n        /* \"#utility.yul\":22083:22086   */\n      0x00\n        /* \"#utility.yul\":22105:22200   */\n      tag_558\n        /* \"#utility.yul\":22196:22199   */\n      dup3\n        /* \"#utility.yul\":22187:22193   */\n      dup6\n        /* \"#utility.yul\":22105:22200   */\n      tag_332\n      jump\t// in\n    tag_558:\n        /* \"#utility.yul\":22098:22200   */\n      swap2\n      pop\n        /* \"#utility.yul\":22217:22312   */\n      tag_559\n        /* \"#utility.yul\":22308:22311   */\n      dup3\n        /* \"#utility.yul\":22299:22305   */\n      dup5\n        /* \"#utility.yul\":22217:22312   */\n      tag_332\n      jump\t// in\n    tag_559:\n        /* \"#utility.yul\":22210:22312   */\n      swap2\n      pop\n        /* \"#utility.yul\":22329:22332   */\n      dup2\n        /* \"#utility.yul\":22322:22332   */\n      swap1\n      pop\n        /* \"#utility.yul\":21903:22338   */\n      swap4\n      swap3\n      pop\n      pop\n      pop\n      jump\t// out\n\n    auxdata: 0xa2646970667358221220f85118377984dfb3bb7915ae552a8b5221f4ecc91add3446470f9e69db12b69f64736f6c63430008160033\n}\n",
				"bytecode": {
					"linkReferences": {},
					"object": "6080604052659184e72a00006001556096600255601460035534801562000024575f80fd5b50335f806101000a81548173ffffffffffffffffffffffffffffffffffffffff021916908373ffffffffffffffffffffffffffffffffffffffff1602179055506040518060400160405280652d79883d2000815260200161066781525060045f8060028111156200009a5762000099620001b3565b5b6002811115620000af57620000ae620001b3565b5b81526020019081526020015f205f820151815f0155602082015181600101559050506040518060400160405280656d23ad5f800081526020016106b981525060045f60016002811115620001085762000107620001b3565b5b60028111156200011d576200011c620001b3565b5b81526020019081526020015f205f820151815f015560208201518160010155905050604051806040016040528066013e52b9abe000815260200161070b81525060045f600280811115620001765762000175620001b3565b5b60028111156200018b576200018a620001b3565b5b81526020019081526020015f205f820151815f015560208201518160010155905050620001e0565b7f4e487b71000000000000000000000000000000000000000000000000000000005f52602160045260245ffd5b61270580620001ee5f395ff3fe6080604052600436106100c1575f3560e01c8063a8e023eb1161007e578063bfd1a3a711610058578063bfd1a3a714610243578063cef636001461024d578063d61909f914610289578063e7ebe5e0146102b1576100c1565b8063a8e023eb146101e1578063b1e70eeb146101fd578063bd097e2114610239576100c1565b806308a9337e146100c55780631d9aec76146100ed57806341b5e38d1461012957806351821891146101515780638da5cb5b1461018d5780639b36474a146101b7575b5f80fd5b3480156100d0575f80fd5b506100eb60048036038101906100e69190611bfb565b6102ed565b005b3480156100f8575f80fd5b50610113600480360381019061010e9190611c93565b610321565b6040516101209190611ccd565b60405180910390f35b348015610134575f80fd5b5061014f600480360381019061014a9190611ce6565b610336565b005b34801561015c575f80fd5b5061017760048036038101906101729190611d34565b61069c565b6040516101849190611ccd565b60405180910390f35b348015610198575f80fd5b506101a16106e8565b6040516101ae9190611d81565b60405180910390f35b3480156101c2575f80fd5b506101cb61070f565b6040516101d89190611f11565b60405180910390f35b6101fb60048036038101906101f69190611f4e565b610981565b005b348015610208575f80fd5b50610223600480360381019061021e9190611ce6565b610df7565b6040516102309190612028565b60405180910390f35b610241610f05565b005b61024b610f49565b005b348015610258575f80fd5b50610273600480360381019061026e9190611ce6565b6111e3565b6040516102809190611ccd565b60405180910390f35b348015610294575f80fd5b506102af60048036038101906102aa9190611ce6565b6113f3565b005b3480156102bc575f80fd5b506102d760048036038101906102d29190612174565b6118af565b6040516102e49190611ccd565b60405180910390f35b5f6102f783610df7565b90508160058260405161030a91906121f5565b908152602001604051809103902081905550505050565b6007602052805f5260405f205f915090505481565b5f8073ffffffffffffffffffffffffffffffffffffffff1660065f3373ffffffffffffffffffffffffffffffffffffffff1673ffffffffffffffffffffffffffffffffffffffff1681526020019081526020015f205f015f9054906101000a900473ffffffffffffffffffffffffffffffffffffffff1673ffffffffffffffffffffffffffffffffffffffff16141590505f4260065f3373ffffffffffffffffffffffffffffffffffffffff1673ffffffffffffffffffffffffffffffffffffffff1681526020019081526020015f20600401541190508180156104175750805b610456576040517f08c379a000000000000000000000000000000000000000000000000000000000815260040161044d90612255565b60405180910390fd5b825f8160075f3373ffffffffffffffffffffffffffffffffffffffff1673ffffffffffffffffffffffffffffffffffffffff1681526020019081526020015f2054149050806104da576040517f08c379a00000000000000000000000000000000000000000000000000000000081526004016104d1906122e3565b60405180910390fd5b845f6104e582610df7565b90505f806005836040516104f991906121f5565b908152602001604051809103902054141590508061054c576040517f08c379a000000000000000000000000000000000000000000000000000000000815260040161054390612371565b60405180910390fd5b5f610556896111e3565b90503373ffffffffffffffffffffffffffffffffffffffff166108fc8290811502906040515f60405180830381858888f1935050505015801561059b573d5f803e3d5ffd5b506105f36301e1338060065f3373ffffffffffffffffffffffffffffffffffffffff1673ffffffffffffffffffffffffffffffffffffffff1681526020019081526020015f20600501546118dc90919063ffffffff16565b505f60065f3373ffffffffffffffffffffffffffffffffffffffff1673ffffffffffffffffffffffffffffffffffffffff1681526020019081526020015f2060040154111561069157600160075f3373ffffffffffffffffffffffffffffffffffffffff1673ffffffffffffffffffffffffffffffffffffffff1681526020019081526020015f205f82825461068991906123bc565b925050819055505b505050505050505050565b5f60045f8460028111156106b3576106b2611da9565b5b60028111156106c5576106c4611da9565b5b81526020019081526020015f205f0154826106e091906123ef565b905092915050565b5f805f9054906101000a900473ffffffffffffffffffffffffffffffffffffffff16905090565b610717611b40565b5f8073ffffffffffffffffffffffffffffffffffffffff1660065f3373ffffffffffffffffffffffffffffffffffffffff1673ffffffffffffffffffffffffffffffffffffffff1681526020019081526020015f205f015f9054906101000a900473ffffffffffffffffffffffffffffffffffffffff1673ffffffffffffffffffffffffffffffffffffffff16141590505f4260065f3373ffffffffffffffffffffffffffffffffffffffff1673ffffffffffffffffffffffffffffffffffffffff1681526020019081526020015f20600401541190508180156107f85750805b610837576040517f08c379a000000000000000000000000000000000000000000000000000000000815260040161082e90612255565b60405180910390fd5b60065f3373ffffffffffffffffffffffffffffffffffffffff1673ffffffffffffffffffffffffffffffffffffffff1681526020019081526020015f20604051806101000160405290815f82015f9054906101000a900473ffffffffffffffffffffffffffffffffffffffff1673ffffffffffffffffffffffffffffffffffffffff1673ffffffffffffffffffffffffffffffffffffffff1681526020015f820160149054906101000a900460ff1660018111156108f8576108f7611da9565b5b600181111561090a57610909611da9565b5b81526020015f820160159054906101000a900460ff16600281111561093257610931611da9565b5b600281111561094457610943611da9565b5b8152602001600182015481526020016002820154815260200160038201548152602001600482015481526020016005820154815250509250505090565b5f8073ffffffffffffffffffffffffffffffffffffffff1660065f3373ffffffffffffffffffffffffffffffffffffffff1673ffffffffffffffffffffffffffffffffffffffff1681526020019081526020015f205f015f9054906101000a900473ffffffffffffffffffffffffffffffffffffffff1673ffffffffffffffffffffffffffffffffffffffff161490505f4260065f3373ffffffffffffffffffffffffffffffffffffffff1673ffffffffffffffffffffffffffffffffffffffff1681526020019081526020015f20600401541090508180610a605750805b610a9f576040517f08c379a0000000000000000000000000000000000000000000000000000000008152600401610a969061247a565b60405180910390fd5b84845f8160045f856002811115610ab957610ab8611da9565b5b6002811115610acb57610aca611da9565b5b81526020019081526020015f205f0154610ae591906123ef565b90505f813414905080610b2d576040517f08c379a0000000000000000000000000000000000000000000000000000000008152600401610b2490612508565b60405180910390fd5b6040518061010001604052803373ffffffffffffffffffffffffffffffffffffffff168152602001886001811115610b6857610b67611da9565b5b81526020018a6002811115610b8057610b7f611da9565b5b815260200189815260200160045f8c6002811115610ba157610ba0611da9565b5b6002811115610bb357610bb2611da9565b5b81526020019081526020015f205f01548a610bce91906123ef565b8152602001428152602001610bf06301e13380426118dc90919063ffffffff16565b8152602001610c0c6301e13380426118dc90919063ffffffff16565b81525060065f3373ffffffffffffffffffffffffffffffffffffffff1673ffffffffffffffffffffffffffffffffffffffff1681526020019081526020015f205f820151815f015f6101000a81548173ffffffffffffffffffffffffffffffffffffffff021916908373ffffffffffffffffffffffffffffffffffffffff1602179055506020820151815f0160146101000a81548160ff02191690836001811115610cba57610cb9611da9565b5b02179055506040820151815f0160156101000a81548160ff02191690836002811115610ce957610ce8611da9565b5b0217905550606082015181600101556080820151816002015560a0820151816003015560c0820151816004015560e082015181600501559050505f6301e1338090505f6107b29050808242610d3e9190612553565b610d4891906123bc565b60075f3373ffffffffffffffffffffffffffffffffffffffff1673ffffffffffffffffffffffffffffffffffffffff1681526020019081526020015f208190555060095f3373ffffffffffffffffffffffffffffffffffffffff1673ffffffffffffffffffffffffffffffffffffffff1681526020019081526020015f2042908060018154018082558091505060019003905f5260205f20015f90919091909150555050505050505050505050565b60605f806001811115610e0d57610e0c611da9565b5b60065f3373ffffffffffffffffffffffffffffffffffffffff1673ffffffffffffffffffffffffffffffffffffffff1681526020019081526020015f205f0160149054906101000a900460ff166001811115610e6c57610e6b611da9565b5b1490505f81610eb957610eb4846040518060400160405280600681526020017f5f4e4f52544800000000000000000000000000000000000000000000000000008152506118f1565b610ef9565b610ef8846040518060400160405280600681526020017f5f534f55544800000000000000000000000000000000000000000000000000008152506118f1565b5b90508092505050919050565b5f3411610f47576040517f08c379a0000000000000000000000000000000000000000000000000000000008152600401610f3e906125cd565b60405180910390fd5b565b5f8073ffffffffffffffffffffffffffffffffffffffff1660065f3373ffffffffffffffffffffffffffffffffffffffff1673ffffffffffffffffffffffffffffffffffffffff1681526020019081526020015f205f015f9054906101000a900473ffffffffffffffffffffffffffffffffffffffff1673ffffffffffffffffffffffffffffffffffffffff16141590505f4260065f3373ffffffffffffffffffffffffffffffffffffffff1673ffffffffffffffffffffffffffffffffffffffff1681526020019081526020015f206004015411905081801561102a5750805b611069576040517f08c379a000000000000000000000000000000000000000000000000000000000815260040161106090612255565b60405180910390fd5b60065f3373ffffffffffffffffffffffffffffffffffffffff1673ffffffffffffffffffffffffffffffffffffffff1681526020019081526020015f205f0160159054906101000a900460ff1660065f3373ffffffffffffffffffffffffffffffffffffffff1673ffffffffffffffffffffffffffffffffffffffff1681526020019081526020015f20600101545f8160045f85600281111561110f5761110e611da9565b5b600281111561112157611120611da9565b5b81526020019081526020015f205f015461113b91906123ef565b90505f813414905080611183576040517f08c379a000000000000000000000000000000000000000000000000000000000815260040161117a90612508565b60405180910390fd5b6111da6301e1338060065f3373ffffffffffffffffffffffffffffffffffffffff1673ffffffffffffffffffffffffffffffffffffffff1681526020019081526020015f20600401546118dc90919063ffffffff16565b50505050505050565b5f806111ee83610df7565b90505f60065f3373ffffffffffffffffffffffffffffffffffffffff1673ffffffffffffffffffffffffffffffffffffffff1681526020019081526020015f20604051806101000160405290815f82015f9054906101000a900473ffffffffffffffffffffffffffffffffffffffff1673ffffffffffffffffffffffffffffffffffffffff1673ffffffffffffffffffffffffffffffffffffffff1681526020015f820160149054906101000a900460ff1660018111156112b2576112b1611da9565b5b60018111156112c4576112c3611da9565b5b81526020015f820160159054906101000a900460ff1660028111156112ec576112eb611da9565b5b60028111156112fe576112fd611da9565b5b81526020016001820154815260200160028201548152602001600382015481526020016004820154815260200160058201548152505090505f60058360405161134791906121f5565b90815260200160405180910390205460045f846040015160028111156113705761136f611da9565b5b600281111561138257611381611da9565b5b81526020019081526020015f206001015461139d91906125eb565b90505f6001548360600151600354846002546113b991906123ef565b6113c391906123ef565b6113cd91906123ef565b6113d791906123ef565b9050620186a0816113e89190612553565b945050505050919050565b5f8073ffffffffffffffffffffffffffffffffffffffff1660065f3373ffffffffffffffffffffffffffffffffffffffff1673ffffffffffffffffffffffffffffffffffffffff1681526020019081526020015f205f015f9054906101000a900473ffffffffffffffffffffffffffffffffffffffff1673ffffffffffffffffffffffffffffffffffffffff16141590505f4260065f3373ffffffffffffffffffffffffffffffffffffffff1673ffffffffffffffffffffffffffffffffffffffff1681526020019081526020015f20600401541190508180156114d45750805b611513576040517f08c379a000000000000000000000000000000000000000000000000000000000815260040161150a90612255565b60405180910390fd5b5f4260065f3373ffffffffffffffffffffffffffffffffffffffff1673ffffffffffffffffffffffffffffffffffffffff1681526020019081526020015f206005015410905080611599576040517f08c379a00000000000000000000000000000000000000000000000000000000081526004016115909061268e565b60405180910390fd5b835f8160075f3373ffffffffffffffffffffffffffffffffffffffff1673ffffffffffffffffffffffffffffffffffffffff1681526020019081526020015f20541490508061161d576040517f08c379a0000000000000000000000000000000000000000000000000000000008152600401611614906122e3565b60405180910390fd5b855f61162882610df7565b90505f8060058360405161163c91906121f5565b908152602001604051809103902054141590508061168f576040517f08c379a000000000000000000000000000000000000000000000000000000000815260040161168690612371565b60405180910390fd5b5f60065f3373ffffffffffffffffffffffffffffffffffffffff1673ffffffffffffffffffffffffffffffffffffffff1681526020019081526020015f20604051806101000160405290815f82015f9054906101000a900473ffffffffffffffffffffffffffffffffffffffff1673ffffffffffffffffffffffffffffffffffffffff1673ffffffffffffffffffffffffffffffffffffffff1681526020015f820160149054906101000a900460ff16600181111561175157611750611da9565b5b600181111561176357611762611da9565b5b81526020015f820160159054906101000a900460ff16600281111561178b5761178a611da9565b5b600281111561179d5761179c611da9565b5b81526020016001820154815260200160028201548152602001600382015481526020016004820154815260200160058201548152505090505f6117df8b6111e3565b90503373ffffffffffffffffffffffffffffffffffffffff166108fc8290811502906040515f60405180830381858888f19350505050158015611824573d5f803e3d5ffd5b506118406301e133808360e001516118dc90919063ffffffff16565b505f8260c0015111156118a257600160075f3373ffffffffffffffffffffffffffffffffffffffff1673ffffffffffffffffffffffffffffffffffffffff1681526020019081526020015f205f82825461189a91906123bc565b925050819055505b5050505050505050505050565b6005818051602081018201805184825260208301602085012081835280955050505050505f915090505481565b5f81836118e991906123bc565b905092915050565b60606118fc83611925565b8260405160200161190e9291906126ac565b604051602081830303815290604052905092915050565b60605f6001611933846119ef565b0190505f8167ffffffffffffffff81111561195157611950612050565b5b6040519080825280601f01601f1916602001820160405280156119835781602001600182028036833780820191505090505b5090505f82602001820190505b6001156119e4578080600190039150507f3031323334353637383961626364656600000000000000000000000000000000600a86061a8153600a85816119d9576119d8612526565b5b0494505f8503611990575b819350505050919050565b5f805f90507a184f03e93ff9f4daa797ed6e38ed64bf6a1f0100000000000000008310611a4b577a184f03e93ff9f4daa797ed6e38ed64bf6a1f0100000000000000008381611a4157611a40612526565b5b0492506040810190505b6d04ee2d6d415b85acef81000000008310611a88576d04ee2d6d415b85acef81000000008381611a7e57611a7d612526565b5b0492506020810190505b662386f26fc100008310611ab757662386f26fc100008381611aad57611aac612526565b5b0492506010810190505b6305f5e1008310611ae0576305f5e1008381611ad657611ad5612526565b5b0492506008810190505b6127108310611b05576127108381611afb57611afa612526565b5b0492506004810190505b60648310611b285760648381611b1e57611b1d612526565b5b0492506002810190505b600a8310611b37576001810190505b80915050919050565b6040518061010001604052805f73ffffffffffffffffffffffffffffffffffffffff1681526020015f6001811115611b7b57611b7a611da9565b5b81526020015f6002811115611b9357611b92611da9565b5b81526020015f81526020015f81526020015f81526020015f81526020015f81525090565b5f604051905090565b5f80fd5b5f80fd5b5f819050919050565b611bda81611bc8565b8114611be4575f80fd5b50565b5f81359050611bf581611bd1565b92915050565b5f8060408385031215611c1157611c10611bc0565b5b5f611c1e85828601611be7565b9250506020611c2f85828601611be7565b9150509250929050565b5f73ffffffffffffffffffffffffffffffffffffffff82169050919050565b5f611c6282611c39565b9050919050565b611c7281611c58565b8114611c7c575f80fd5b50565b5f81359050611c8d81611c69565b92915050565b5f60208284031215611ca857611ca7611bc0565b5b5f611cb584828501611c7f565b91505092915050565b611cc781611bc8565b82525050565b5f602082019050611ce05f830184611cbe565b92915050565b5f60208284031215611cfb57611cfa611bc0565b5b5f611d0884828501611be7565b91505092915050565b60038110611d1d575f80fd5b50565b5f81359050611d2e81611d11565b92915050565b5f8060408385031215611d4a57611d49611bc0565b5b5f611d5785828601611d20565b9250506020611d6885828601611be7565b9150509250929050565b611d7b81611c58565b82525050565b5f602082019050611d945f830184611d72565b92915050565b611da381611c58565b82525050565b7f4e487b71000000000000000000000000000000000000000000000000000000005f52602160045260245ffd5b60028110611de757611de6611da9565b5b50565b5f819050611df782611dd6565b919050565b5f611e0682611dea565b9050919050565b611e1681611dfc565b82525050565b60038110611e2d57611e2c611da9565b5b50565b5f819050611e3d82611e1c565b919050565b5f611e4c82611e30565b9050919050565b611e5c81611e42565b82525050565b611e6b81611bc8565b82525050565b61010082015f820151611e865f850182611d9a565b506020820151611e996020850182611e0d565b506040820151611eac6040850182611e53565b506060820151611ebf6060850182611e62565b506080820151611ed26080850182611e62565b5060a0820151611ee560a0850182611e62565b5060c0820151611ef860c0850182611e62565b5060e0820151611f0b60e0850182611e62565b50505050565b5f61010082019050611f255f830184611e71565b92915050565b60028110611f37575f80fd5b50565b5f81359050611f4881611f2b565b92915050565b5f805f60608486031215611f6557611f64611bc0565b5b5f611f7286828701611d20565b9350506020611f8386828701611be7565b9250506040611f9486828701611f3a565b9150509250925092565b5f81519050919050565b5f82825260208201905092915050565b5f5b83811015611fd5578082015181840152602081019050611fba565b5f8484015250505050565b5f601f19601f8301169050919050565b5f611ffa82611f9e565b6120048185611fa8565b9350612014818560208601611fb8565b61201d81611fe0565b840191505092915050565b5f6020820190508181035f8301526120408184611ff0565b905092915050565b5f80fd5b5f80fd5b7f4e487b71000000000000000000000000000000000000000000000000000000005f52604160045260245ffd5b61208682611fe0565b810181811067ffffffffffffffff821117156120a5576120a4612050565b5b80604052505050565b5f6120b7611bb7565b90506120c3828261207d565b919050565b5f67ffffffffffffffff8211156120e2576120e1612050565b5b6120eb82611fe0565b9050602081019050919050565b828183375f83830152505050565b5f612118612113846120c8565b6120ae565b9050828152602081018484840111156121345761213361204c565b5b61213f8482856120f8565b509392505050565b5f82601f83011261215b5761215a612048565b5b813561216b848260208601612106565b91505092915050565b5f6020828403121561218957612188611bc0565b5b5f82013567ffffffffffffffff8111156121a6576121a5611bc4565b5b6121b284828501612147565b91505092915050565b5f81905092915050565b5f6121cf82611f9e565b6121d981856121bb565b93506121e9818560208601611fb8565b80840191505092915050565b5f61220082846121c5565b915081905092915050565b7f54686520636c69656e74206973206e6f7420696e73757265642e0000000000005f82015250565b5f61223f601a83611fa8565b915061224a8261220b565b602082019050919050565b5f6020820190508181035f83015261226c81612233565b9050919050565b7f596f752063616e6e6f742066696c65206120636c61696d20666f7220746865205f8201527f6465736972656420796561722e00000000000000000000000000000000000000602082015250565b5f6122cd602d83611fa8565b91506122d882612273565b604082019050919050565b5f6020820190508181035f8301526122fa816122c1565b9050919050565b7f5468657265206973206e6f207265636f726420666f72207468652072657175695f8201527f72656420796561722e0000000000000000000000000000000000000000000000602082015250565b5f61235b602983611fa8565b915061236682612301565b604082019050919050565b5f6020820190508181035f8301526123888161234f565b9050919050565b7f4e487b71000000000000000000000000000000000000000000000000000000005f52601160045260245ffd5b5f6123c682611bc8565b91506123d183611bc8565b92508282019050808211156123e9576123e861238f565b5b92915050565b5f6123f982611bc8565b915061240483611bc8565b925082820261241281611bc8565b915082820484148315176124295761242861238f565b5b5092915050565b7f54686520636c69656e7420697320616c726561647920696e73757265642e00005f82015250565b5f612464601e83611fa8565b915061246f82612430565b602082019050919050565b5f6020820190508181035f83015261249181612458565b9050919050565b7f546865207072656d69756d206d75737420626520636f766572656420746f20725f8201527f65676973746572206f722072656e6577206120706f6c6963792e000000000000602082015250565b5f6124f2603a83611fa8565b91506124fd82612498565b604082019050919050565b5f6020820190508181035f83015261251f816124e6565b9050919050565b7f4e487b71000000000000000000000000000000000000000000000000000000005f52601260045260245ffd5b5f61255d82611bc8565b915061256883611bc8565b92508261257857612577612526565b5b828204905092915050565b7f43616e6e6f74206c6f61642074686520636f6e747261637420776974682030005f82015250565b5f6125b7601f83611fa8565b91506125c282612583565b602082019050919050565b5f6020820190508181035f8301526125e4816125ab565b9050919050565b5f6125f582611bc8565b915061260083611bc8565b92508282039050818111156126185761261761238f565b5b92915050565b7f436c61696d732063616e206f6e6c792062652066696c656420657665727920795f8201527f6561722e00000000000000000000000000000000000000000000000000000000602082015250565b5f612678602483611fa8565b91506126838261261e565b604082019050919050565b5f6020820190508181035f8301526126a58161266c565b9050919050565b5f6126b782856121c5565b91506126c382846121c5565b9150819050939250505056fea2646970667358221220f85118377984dfb3bb7915ae552a8b5221f4ecc91add3446470f9e69db12b69f64736f6c63430008160033",
					"opcodes": "PUSH1 0x80 PUSH1 0x40 MSTORE PUSH6 0x9184E72A0000 PUSH1 0x1 SSTORE PUSH1 0x96 PUSH1 0x2 SSTORE PUSH1 0x14 PUSH1 0x3 SSTORE CALLVALUE DUP1 ISZERO PUSH3 0x24 JUMPI PUSH0 DUP1 REVERT JUMPDEST POP CALLER PUSH0 DUP1 PUSH2 0x100 EXP DUP2 SLOAD DUP2 PUSH20 0xFFFFFFFFFFFFFFFFFFFFFFFFFFFFFFFFFFFFFFFF MUL NOT AND SWAP1 DUP4 PUSH20 0xFFFFFFFFFFFFFFFFFFFFFFFFFFFFFFFFFFFFFFFF AND MUL OR SWAP1 SSTORE POP PUSH1 0x40 MLOAD DUP1 PUSH1 0x40 ADD PUSH1 0x40 MSTORE DUP1 PUSH6 0x2D79883D2000 DUP2 MSTORE PUSH1 0x20 ADD PUSH2 0x667 DUP2 MSTORE POP PUSH1 0x4 PUSH0 DUP1 PUSH1 0x2 DUP2 GT ISZERO PUSH3 0x9A JUMPI PUSH3 0x99 PUSH3 0x1B3 JUMP JUMPDEST JUMPDEST PUSH1 0x2 DUP2 GT ISZERO PUSH3 0xAF JUMPI PUSH3 0xAE PUSH3 0x1B3 JUMP JUMPDEST JUMPDEST DUP2 MSTORE PUSH1 0x20 ADD SWAP1 DUP2 MSTORE PUSH1 0x20 ADD PUSH0 KECCAK256 PUSH0 DUP3 ADD MLOAD DUP2 PUSH0 ADD SSTORE PUSH1 0x20 DUP3 ADD MLOAD DUP2 PUSH1 0x1 ADD SSTORE SWAP1 POP POP PUSH1 0x40 MLOAD DUP1 PUSH1 0x40 ADD PUSH1 0x40 MSTORE DUP1 PUSH6 0x6D23AD5F8000 DUP2 MSTORE PUSH1 0x20 ADD PUSH2 0x6B9 DUP2 MSTORE POP PUSH1 0x4 PUSH0 PUSH1 0x1 PUSH1 0x2 DUP2 GT ISZERO PUSH3 0x108 JUMPI PUSH3 0x107 PUSH3 0x1B3 JUMP JUMPDEST JUMPDEST PUSH1 0x2 DUP2 GT ISZERO PUSH3 0x11D JUMPI PUSH3 0x11C PUSH3 0x1B3 JUMP JUMPDEST JUMPDEST DUP2 MSTORE PUSH1 0x20 ADD SWAP1 DUP2 MSTORE PUSH1 0x20 ADD PUSH0 KECCAK256 PUSH0 DUP3 ADD MLOAD DUP2 PUSH0 ADD SSTORE PUSH1 0x20 DUP3 ADD MLOAD DUP2 PUSH1 0x1 ADD SSTORE SWAP1 POP POP PUSH1 0x40 MLOAD DUP1 PUSH1 0x40 ADD PUSH1 0x40 MSTORE DUP1 PUSH7 0x13E52B9ABE000 DUP2 MSTORE PUSH1 0x20 ADD PUSH2 0x70B DUP2 MSTORE POP PUSH1 0x4 PUSH0 PUSH1 0x2 DUP1 DUP2 GT ISZERO PUSH3 0x176 JUMPI PUSH3 0x175 PUSH3 0x1B3 JUMP JUMPDEST JUMPDEST PUSH1 0x2 DUP2 GT ISZERO PUSH3 0x18B JUMPI PUSH3 0x18A PUSH3 0x1B3 JUMP JUMPDEST JUMPDEST DUP2 MSTORE PUSH1 0x20 ADD SWAP1 DUP2 MSTORE PUSH1 0x20 ADD PUSH0 KECCAK256 PUSH0 DUP3 ADD MLOAD DUP2 PUSH0 ADD SSTORE PUSH1 0x20 DUP3 ADD MLOAD DUP2 PUSH1 0x1 ADD SSTORE SWAP1 POP POP PUSH3 0x1E0 JUMP JUMPDEST PUSH32 0x4E487B7100000000000000000000000000000000000000000000000000000000 PUSH0 MSTORE PUSH1 0x21 PUSH1 0x4 MSTORE PUSH1 0x24 PUSH0 REVERT JUMPDEST PUSH2 0x2705 DUP1 PUSH3 0x1EE PUSH0 CODECOPY PUSH0 RETURN INVALID PUSH1 0x80 PUSH1 0x40 MSTORE PUSH1 0x4 CALLDATASIZE LT PUSH2 0xC1 JUMPI PUSH0 CALLDATALOAD PUSH1 0xE0 SHR DUP1 PUSH4 0xA8E023EB GT PUSH2 0x7E JUMPI DUP1 PUSH4 0xBFD1A3A7 GT PUSH2 0x58 JUMPI DUP1 PUSH4 0xBFD1A3A7 EQ PUSH2 0x243 JUMPI DUP1 PUSH4 0xCEF63600 EQ PUSH2 0x24D JUMPI DUP1 PUSH4 0xD61909F9 EQ PUSH2 0x289 JUMPI DUP1 PUSH4 0xE7EBE5E0 EQ PUSH2 0x2B1 JUMPI PUSH2 0xC1 JUMP JUMPDEST DUP1 PUSH4 0xA8E023EB EQ PUSH2 0x1E1 JUMPI DUP1 PUSH4 0xB1E70EEB EQ PUSH2 0x1FD JUMPI DUP1 PUSH4 0xBD097E21 EQ PUSH2 0x239 JUMPI PUSH2 0xC1 JUMP JUMPDEST DUP1 PUSH4 0x8A9337E EQ PUSH2 0xC5 JUMPI DUP1 PUSH4 0x1D9AEC76 EQ PUSH2 0xED JUMPI DUP1 PUSH4 0x41B5E38D EQ PUSH2 0x129 JUMPI DUP1 PUSH4 0x51821891 EQ PUSH2 0x151 JUMPI DUP1 PUSH4 0x8DA5CB5B EQ PUSH2 0x18D JUMPI DUP1 PUSH4 0x9B36474A EQ PUSH2 0x1B7 JUMPI JUMPDEST PUSH0 DUP1 REVERT JUMPDEST CALLVALUE DUP1 ISZERO PUSH2 0xD0 JUMPI PUSH0 DUP1 REVERT JUMPDEST POP PUSH2 0xEB PUSH1 0x4 DUP1 CALLDATASIZE SUB DUP2 ADD SWAP1 PUSH2 0xE6 SWAP2 SWAP1 PUSH2 0x1BFB JUMP JUMPDEST PUSH2 0x2ED JUMP JUMPDEST STOP JUMPDEST CALLVALUE DUP1 ISZERO PUSH2 0xF8 JUMPI PUSH0 DUP1 REVERT JUMPDEST POP PUSH2 0x113 PUSH1 0x4 DUP1 CALLDATASIZE SUB DUP2 ADD SWAP1 PUSH2 0x10E SWAP2 SWAP1 PUSH2 0x1C93 JUMP JUMPDEST PUSH2 0x321 JUMP JUMPDEST PUSH1 0x40 MLOAD PUSH2 0x120 SWAP2 SWAP1 PUSH2 0x1CCD JUMP JUMPDEST PUSH1 0x40 MLOAD DUP1 SWAP2 SUB SWAP1 RETURN JUMPDEST CALLVALUE DUP1 ISZERO PUSH2 0x134 JUMPI PUSH0 DUP1 REVERT JUMPDEST POP PUSH2 0x14F PUSH1 0x4 DUP1 CALLDATASIZE SUB DUP2 ADD SWAP1 PUSH2 0x14A SWAP2 SWAP1 PUSH2 0x1CE6 JUMP JUMPDEST PUSH2 0x336 JUMP JUMPDEST STOP JUMPDEST CALLVALUE DUP1 ISZERO PUSH2 0x15C JUMPI PUSH0 DUP1 REVERT JUMPDEST POP PUSH2 0x177 PUSH1 0x4 DUP1 CALLDATASIZE SUB DUP2 ADD SWAP1 PUSH2 0x172 SWAP2 SWAP1 PUSH2 0x1D34 JUMP JUMPDEST PUSH2 0x69C JUMP JUMPDEST PUSH1 0x40 MLOAD PUSH2 0x184 SWAP2 SWAP1 PUSH2 0x1CCD JUMP JUMPDEST PUSH1 0x40 MLOAD DUP1 SWAP2 SUB SWAP1 RETURN JUMPDEST CALLVALUE DUP1 ISZERO PUSH2 0x198 JUMPI PUSH0 DUP1 REVERT JUMPDEST POP PUSH2 0x1A1 PUSH2 0x6E8 JUMP JUMPDEST PUSH1 0x40 MLOAD PUSH2 0x1AE SWAP2 SWAP1 PUSH2 0x1D81 JUMP JUMPDEST PUSH1 0x40 MLOAD DUP1 SWAP2 SUB SWAP1 RETURN JUMPDEST CALLVALUE DUP1 ISZERO PUSH2 0x1C2 JUMPI PUSH0 DUP1 REVERT JUMPDEST POP PUSH2 0x1CB PUSH2 0x70F JUMP JUMPDEST PUSH1 0x40 MLOAD PUSH2 0x1D8 SWAP2 SWAP1 PUSH2 0x1F11 JUMP JUMPDEST PUSH1 0x40 MLOAD DUP1 SWAP2 SUB SWAP1 RETURN JUMPDEST PUSH2 0x1FB PUSH1 0x4 DUP1 CALLDATASIZE SUB DUP2 ADD SWAP1 PUSH2 0x1F6 SWAP2 SWAP1 PUSH2 0x1F4E JUMP JUMPDEST PUSH2 0x981 JUMP JUMPDEST STOP JUMPDEST CALLVALUE DUP1 ISZERO PUSH2 0x208 JUMPI PUSH0 DUP1 REVERT JUMPDEST POP PUSH2 0x223 PUSH1 0x4 DUP1 CALLDATASIZE SUB DUP2 ADD SWAP1 PUSH2 0x21E SWAP2 SWAP1 PUSH2 0x1CE6 JUMP JUMPDEST PUSH2 0xDF7 JUMP JUMPDEST PUSH1 0x40 MLOAD PUSH2 0x230 SWAP2 SWAP1 PUSH2 0x2028 JUMP JUMPDEST PUSH1 0x40 MLOAD DUP1 SWAP2 SUB SWAP1 RETURN JUMPDEST PUSH2 0x241 PUSH2 0xF05 JUMP JUMPDEST STOP JUMPDEST PUSH2 0x24B PUSH2 0xF49 JUMP JUMPDEST STOP JUMPDEST CALLVALUE DUP1 ISZERO PUSH2 0x258 JUMPI PUSH0 DUP1 REVERT JUMPDEST POP PUSH2 0x273 PUSH1 0x4 DUP1 CALLDATASIZE SUB DUP2 ADD SWAP1 PUSH2 0x26E SWAP2 SWAP1 PUSH2 0x1CE6 JUMP JUMPDEST PUSH2 0x11E3 JUMP JUMPDEST PUSH1 0x40 MLOAD PUSH2 0x280 SWAP2 SWAP1 PUSH2 0x1CCD JUMP JUMPDEST PUSH1 0x40 MLOAD DUP1 SWAP2 SUB SWAP1 RETURN JUMPDEST CALLVALUE DUP1 ISZERO PUSH2 0x294 JUMPI PUSH0 DUP1 REVERT JUMPDEST POP PUSH2 0x2AF PUSH1 0x4 DUP1 CALLDATASIZE SUB DUP2 ADD SWAP1 PUSH2 0x2AA SWAP2 SWAP1 PUSH2 0x1CE6 JUMP JUMPDEST PUSH2 0x13F3 JUMP JUMPDEST STOP JUMPDEST CALLVALUE DUP1 ISZERO PUSH2 0x2BC JUMPI PUSH0 DUP1 REVERT JUMPDEST POP PUSH2 0x2D7 PUSH1 0x4 DUP1 CALLDATASIZE SUB DUP2 ADD SWAP1 PUSH2 0x2D2 SWAP2 SWAP1 PUSH2 0x2174 JUMP JUMPDEST PUSH2 0x18AF JUMP JUMPDEST PUSH1 0x40 MLOAD PUSH2 0x2E4 SWAP2 SWAP1 PUSH2 0x1CCD JUMP JUMPDEST PUSH1 0x40 MLOAD DUP1 SWAP2 SUB SWAP1 RETURN JUMPDEST PUSH0 PUSH2 0x2F7 DUP4 PUSH2 0xDF7 JUMP JUMPDEST SWAP1 POP DUP2 PUSH1 0x5 DUP3 PUSH1 0x40 MLOAD PUSH2 0x30A SWAP2 SWAP1 PUSH2 0x21F5 JUMP JUMPDEST SWAP1 DUP2 MSTORE PUSH1 0x20 ADD PUSH1 0x40 MLOAD DUP1 SWAP2 SUB SWAP1 KECCAK256 DUP2 SWAP1 SSTORE POP POP POP POP JUMP JUMPDEST PUSH1 0x7 PUSH1 0x20 MSTORE DUP1 PUSH0 MSTORE PUSH1 0x40 PUSH0 KECCAK256 PUSH0 SWAP2 POP SWAP1 POP SLOAD DUP2 JUMP JUMPDEST PUSH0 DUP1 PUSH20 0xFFFFFFFFFFFFFFFFFFFFFFFFFFFFFFFFFFFFFFFF AND PUSH1 0x6 PUSH0 CALLER PUSH20 0xFFFFFFFFFFFFFFFFFFFFFFFFFFFFFFFFFFFFFFFF AND PUSH20 0xFFFFFFFFFFFFFFFFFFFFFFFFFFFFFFFFFFFFFFFF AND DUP2 MSTORE PUSH1 0x20 ADD SWAP1 DUP2 MSTORE PUSH1 0x20 ADD PUSH0 KECCAK256 PUSH0 ADD PUSH0 SWAP1 SLOAD SWAP1 PUSH2 0x100 EXP SWAP1 DIV PUSH20 0xFFFFFFFFFFFFFFFFFFFFFFFFFFFFFFFFFFFFFFFF AND PUSH20 0xFFFFFFFFFFFFFFFFFFFFFFFFFFFFFFFFFFFFFFFF AND EQ ISZERO SWAP1 POP PUSH0 TIMESTAMP PUSH1 0x6 PUSH0 CALLER PUSH20 0xFFFFFFFFFFFFFFFFFFFFFFFFFFFFFFFFFFFFFFFF AND PUSH20 0xFFFFFFFFFFFFFFFFFFFFFFFFFFFFFFFFFFFFFFFF AND DUP2 MSTORE PUSH1 0x20 ADD SWAP1 DUP2 MSTORE PUSH1 0x20 ADD PUSH0 KECCAK256 PUSH1 0x4 ADD SLOAD GT SWAP1 POP DUP2 DUP1 ISZERO PUSH2 0x417 JUMPI POP DUP1 JUMPDEST PUSH2 0x456 JUMPI PUSH1 0x40 MLOAD PUSH32 0x8C379A000000000000000000000000000000000000000000000000000000000 DUP2 MSTORE PUSH1 0x4 ADD PUSH2 0x44D SWAP1 PUSH2 0x2255 JUMP JUMPDEST PUSH1 0x40 MLOAD DUP1 SWAP2 SUB SWAP1 REVERT JUMPDEST DUP3 PUSH0 DUP2 PUSH1 0x7 PUSH0 CALLER PUSH20 0xFFFFFFFFFFFFFFFFFFFFFFFFFFFFFFFFFFFFFFFF AND PUSH20 0xFFFFFFFFFFFFFFFFFFFFFFFFFFFFFFFFFFFFFFFF AND DUP2 MSTORE PUSH1 0x20 ADD SWAP1 DUP2 MSTORE PUSH1 0x20 ADD PUSH0 KECCAK256 SLOAD EQ SWAP1 POP DUP1 PUSH2 0x4DA JUMPI PUSH1 0x40 MLOAD PUSH32 0x8C379A000000000000000000000000000000000000000000000000000000000 DUP2 MSTORE PUSH1 0x4 ADD PUSH2 0x4D1 SWAP1 PUSH2 0x22E3 JUMP JUMPDEST PUSH1 0x40 MLOAD DUP1 SWAP2 SUB SWAP1 REVERT JUMPDEST DUP5 PUSH0 PUSH2 0x4E5 DUP3 PUSH2 0xDF7 JUMP JUMPDEST SWAP1 POP PUSH0 DUP1 PUSH1 0x5 DUP4 PUSH1 0x40 MLOAD PUSH2 0x4F9 SWAP2 SWAP1 PUSH2 0x21F5 JUMP JUMPDEST SWAP1 DUP2 MSTORE PUSH1 0x20 ADD PUSH1 0x40 MLOAD DUP1 SWAP2 SUB SWAP1 KECCAK256 SLOAD EQ ISZERO SWAP1 POP DUP1 PUSH2 0x54C JUMPI PUSH1 0x40 MLOAD PUSH32 0x8C379A000000000000000000000000000000000000000000000000000000000 DUP2 MSTORE PUSH1 0x4 ADD PUSH2 0x543 SWAP1 PUSH2 0x2371 JUMP JUMPDEST PUSH1 0x40 MLOAD DUP1 SWAP2 SUB SWAP1 REVERT JUMPDEST PUSH0 PUSH2 0x556 DUP10 PUSH2 0x11E3 JUMP JUMPDEST SWAP1 POP CALLER PUSH20 0xFFFFFFFFFFFFFFFFFFFFFFFFFFFFFFFFFFFFFFFF AND PUSH2 0x8FC DUP3 SWAP1 DUP2 ISZERO MUL SWAP1 PUSH1 0x40 MLOAD PUSH0 PUSH1 0x40 MLOAD DUP1 DUP4 SUB DUP2 DUP6 DUP9 DUP9 CALL SWAP4 POP POP POP POP ISZERO DUP1 ISZERO PUSH2 0x59B JUMPI RETURNDATASIZE PUSH0 DUP1 RETURNDATACOPY RETURNDATASIZE PUSH0 REVERT JUMPDEST POP PUSH2 0x5F3 PUSH4 0x1E13380 PUSH1 0x6 PUSH0 CALLER PUSH20 0xFFFFFFFFFFFFFFFFFFFFFFFFFFFFFFFFFFFFFFFF AND PUSH20 0xFFFFFFFFFFFFFFFFFFFFFFFFFFFFFFFFFFFFFFFF AND DUP2 MSTORE PUSH1 0x20 ADD SWAP1 DUP2 MSTORE PUSH1 0x20 ADD PUSH0 KECCAK256 PUSH1 0x5 ADD SLOAD PUSH2 0x18DC SWAP1 SWAP2 SWAP1 PUSH4 0xFFFFFFFF AND JUMP JUMPDEST POP PUSH0 PUSH1 0x6 PUSH0 CALLER PUSH20 0xFFFFFFFFFFFFFFFFFFFFFFFFFFFFFFFFFFFFFFFF AND PUSH20 0xFFFFFFFFFFFFFFFFFFFFFFFFFFFFFFFFFFFFFFFF AND DUP2 MSTORE PUSH1 0x20 ADD SWAP1 DUP2 MSTORE PUSH1 0x20 ADD PUSH0 KECCAK256 PUSH1 0x4 ADD SLOAD GT ISZERO PUSH2 0x691 JUMPI PUSH1 0x1 PUSH1 0x7 PUSH0 CALLER PUSH20 0xFFFFFFFFFFFFFFFFFFFFFFFFFFFFFFFFFFFFFFFF AND PUSH20 0xFFFFFFFFFFFFFFFFFFFFFFFFFFFFFFFFFFFFFFFF AND DUP2 MSTORE PUSH1 0x20 ADD SWAP1 DUP2 MSTORE PUSH1 0x20 ADD PUSH0 KECCAK256 PUSH0 DUP3 DUP3 SLOAD PUSH2 0x689 SWAP2 SWAP1 PUSH2 0x23BC JUMP JUMPDEST SWAP3 POP POP DUP2 SWAP1 SSTORE POP JUMPDEST POP POP POP POP POP POP POP POP POP JUMP JUMPDEST PUSH0 PUSH1 0x4 PUSH0 DUP5 PUSH1 0x2 DUP2 GT ISZERO PUSH2 0x6B3 JUMPI PUSH2 0x6B2 PUSH2 0x1DA9 JUMP JUMPDEST JUMPDEST PUSH1 0x2 DUP2 GT ISZERO PUSH2 0x6C5 JUMPI PUSH2 0x6C4 PUSH2 0x1DA9 JUMP JUMPDEST JUMPDEST DUP2 MSTORE PUSH1 0x20 ADD SWAP1 DUP2 MSTORE PUSH1 0x20 ADD PUSH0 KECCAK256 PUSH0 ADD SLOAD DUP3 PUSH2 0x6E0 SWAP2 SWAP1 PUSH2 0x23EF JUMP JUMPDEST SWAP1 POP SWAP3 SWAP2 POP POP JUMP JUMPDEST PUSH0 DUP1 PUSH0 SWAP1 SLOAD SWAP1 PUSH2 0x100 EXP SWAP1 DIV PUSH20 0xFFFFFFFFFFFFFFFFFFFFFFFFFFFFFFFFFFFFFFFF AND SWAP1 POP SWAP1 JUMP JUMPDEST PUSH2 0x717 PUSH2 0x1B40 JUMP JUMPDEST PUSH0 DUP1 PUSH20 0xFFFFFFFFFFFFFFFFFFFFFFFFFFFFFFFFFFFFFFFF AND PUSH1 0x6 PUSH0 CALLER PUSH20 0xFFFFFFFFFFFFFFFFFFFFFFFFFFFFFFFFFFFFFFFF AND PUSH20 0xFFFFFFFFFFFFFFFFFFFFFFFFFFFFFFFFFFFFFFFF AND DUP2 MSTORE PUSH1 0x20 ADD SWAP1 DUP2 MSTORE PUSH1 0x20 ADD PUSH0 KECCAK256 PUSH0 ADD PUSH0 SWAP1 SLOAD SWAP1 PUSH2 0x100 EXP SWAP1 DIV PUSH20 0xFFFFFFFFFFFFFFFFFFFFFFFFFFFFFFFFFFFFFFFF AND PUSH20 0xFFFFFFFFFFFFFFFFFFFFFFFFFFFFFFFFFFFFFFFF AND EQ ISZERO SWAP1 POP PUSH0 TIMESTAMP PUSH1 0x6 PUSH0 CALLER PUSH20 0xFFFFFFFFFFFFFFFFFFFFFFFFFFFFFFFFFFFFFFFF AND PUSH20 0xFFFFFFFFFFFFFFFFFFFFFFFFFFFFFFFFFFFFFFFF AND DUP2 MSTORE PUSH1 0x20 ADD SWAP1 DUP2 MSTORE PUSH1 0x20 ADD PUSH0 KECCAK256 PUSH1 0x4 ADD SLOAD GT SWAP1 POP DUP2 DUP1 ISZERO PUSH2 0x7F8 JUMPI POP DUP1 JUMPDEST PUSH2 0x837 JUMPI PUSH1 0x40 MLOAD PUSH32 0x8C379A000000000000000000000000000000000000000000000000000000000 DUP2 MSTORE PUSH1 0x4 ADD PUSH2 0x82E SWAP1 PUSH2 0x2255 JUMP JUMPDEST PUSH1 0x40 MLOAD DUP1 SWAP2 SUB SWAP1 REVERT JUMPDEST PUSH1 0x6 PUSH0 CALLER PUSH20 0xFFFFFFFFFFFFFFFFFFFFFFFFFFFFFFFFFFFFFFFF AND PUSH20 0xFFFFFFFFFFFFFFFFFFFFFFFFFFFFFFFFFFFFFFFF AND DUP2 MSTORE PUSH1 0x20 ADD SWAP1 DUP2 MSTORE PUSH1 0x20 ADD PUSH0 KECCAK256 PUSH1 0x40 MLOAD DUP1 PUSH2 0x100 ADD PUSH1 0x40 MSTORE SWAP1 DUP2 PUSH0 DUP3 ADD PUSH0 SWAP1 SLOAD SWAP1 PUSH2 0x100 EXP SWAP1 DIV PUSH20 0xFFFFFFFFFFFFFFFFFFFFFFFFFFFFFFFFFFFFFFFF AND PUSH20 0xFFFFFFFFFFFFFFFFFFFFFFFFFFFFFFFFFFFFFFFF AND PUSH20 0xFFFFFFFFFFFFFFFFFFFFFFFFFFFFFFFFFFFFFFFF AND DUP2 MSTORE PUSH1 0x20 ADD PUSH0 DUP3 ADD PUSH1 0x14 SWAP1 SLOAD SWAP1 PUSH2 0x100 EXP SWAP1 DIV PUSH1 0xFF AND PUSH1 0x1 DUP2 GT ISZERO PUSH2 0x8F8 JUMPI PUSH2 0x8F7 PUSH2 0x1DA9 JUMP JUMPDEST JUMPDEST PUSH1 0x1 DUP2 GT ISZERO PUSH2 0x90A JUMPI PUSH2 0x909 PUSH2 0x1DA9 JUMP JUMPDEST JUMPDEST DUP2 MSTORE PUSH1 0x20 ADD PUSH0 DUP3 ADD PUSH1 0x15 SWAP1 SLOAD SWAP1 PUSH2 0x100 EXP SWAP1 DIV PUSH1 0xFF AND PUSH1 0x2 DUP2 GT ISZERO PUSH2 0x932 JUMPI PUSH2 0x931 PUSH2 0x1DA9 JUMP JUMPDEST JUMPDEST PUSH1 0x2 DUP2 GT ISZERO PUSH2 0x944 JUMPI PUSH2 0x943 PUSH2 0x1DA9 JUMP JUMPDEST JUMPDEST DUP2 MSTORE PUSH1 0x20 ADD PUSH1 0x1 DUP3 ADD SLOAD DUP2 MSTORE PUSH1 0x20 ADD PUSH1 0x2 DUP3 ADD SLOAD DUP2 MSTORE PUSH1 0x20 ADD PUSH1 0x3 DUP3 ADD SLOAD DUP2 MSTORE PUSH1 0x20 ADD PUSH1 0x4 DUP3 ADD SLOAD DUP2 MSTORE PUSH1 0x20 ADD PUSH1 0x5 DUP3 ADD SLOAD DUP2 MSTORE POP POP SWAP3 POP POP POP SWAP1 JUMP JUMPDEST PUSH0 DUP1 PUSH20 0xFFFFFFFFFFFFFFFFFFFFFFFFFFFFFFFFFFFFFFFF AND PUSH1 0x6 PUSH0 CALLER PUSH20 0xFFFFFFFFFFFFFFFFFFFFFFFFFFFFFFFFFFFFFFFF AND PUSH20 0xFFFFFFFFFFFFFFFFFFFFFFFFFFFFFFFFFFFFFFFF AND DUP2 MSTORE PUSH1 0x20 ADD SWAP1 DUP2 MSTORE PUSH1 0x20 ADD PUSH0 KECCAK256 PUSH0 ADD PUSH0 SWAP1 SLOAD SWAP1 PUSH2 0x100 EXP SWAP1 DIV PUSH20 0xFFFFFFFFFFFFFFFFFFFFFFFFFFFFFFFFFFFFFFFF AND PUSH20 0xFFFFFFFFFFFFFFFFFFFFFFFFFFFFFFFFFFFFFFFF AND EQ SWAP1 POP PUSH0 TIMESTAMP PUSH1 0x6 PUSH0 CALLER PUSH20 0xFFFFFFFFFFFFFFFFFFFFFFFFFFFFFFFFFFFFFFFF AND PUSH20 0xFFFFFFFFFFFFFFFFFFFFFFFFFFFFFFFFFFFFFFFF AND DUP2 MSTORE PUSH1 0x20 ADD SWAP1 DUP2 MSTORE PUSH1 0x20 ADD PUSH0 KECCAK256 PUSH1 0x4 ADD SLOAD LT SWAP1 POP DUP2 DUP1 PUSH2 0xA60 JUMPI POP DUP1 JUMPDEST PUSH2 0xA9F JUMPI PUSH1 0x40 MLOAD PUSH32 0x8C379A000000000000000000000000000000000000000000000000000000000 DUP2 MSTORE PUSH1 0x4 ADD PUSH2 0xA96 SWAP1 PUSH2 0x247A JUMP JUMPDEST PUSH1 0x40 MLOAD DUP1 SWAP2 SUB SWAP1 REVERT JUMPDEST DUP5 DUP5 PUSH0 DUP2 PUSH1 0x4 PUSH0 DUP6 PUSH1 0x2 DUP2 GT ISZERO PUSH2 0xAB9 JUMPI PUSH2 0xAB8 PUSH2 0x1DA9 JUMP JUMPDEST JUMPDEST PUSH1 0x2 DUP2 GT ISZERO PUSH2 0xACB JUMPI PUSH2 0xACA PUSH2 0x1DA9 JUMP JUMPDEST JUMPDEST DUP2 MSTORE PUSH1 0x20 ADD SWAP1 DUP2 MSTORE PUSH1 0x20 ADD PUSH0 KECCAK256 PUSH0 ADD SLOAD PUSH2 0xAE5 SWAP2 SWAP1 PUSH2 0x23EF JUMP JUMPDEST SWAP1 POP PUSH0 DUP2 CALLVALUE EQ SWAP1 POP DUP1 PUSH2 0xB2D JUMPI PUSH1 0x40 MLOAD PUSH32 0x8C379A000000000000000000000000000000000000000000000000000000000 DUP2 MSTORE PUSH1 0x4 ADD PUSH2 0xB24 SWAP1 PUSH2 0x2508 JUMP JUMPDEST PUSH1 0x40 MLOAD DUP1 SWAP2 SUB SWAP1 REVERT JUMPDEST PUSH1 0x40 MLOAD DUP1 PUSH2 0x100 ADD PUSH1 0x40 MSTORE DUP1 CALLER PUSH20 0xFFFFFFFFFFFFFFFFFFFFFFFFFFFFFFFFFFFFFFFF AND DUP2 MSTORE PUSH1 0x20 ADD DUP9 PUSH1 0x1 DUP2 GT ISZERO PUSH2 0xB68 JUMPI PUSH2 0xB67 PUSH2 0x1DA9 JUMP JUMPDEST JUMPDEST DUP2 MSTORE PUSH1 0x20 ADD DUP11 PUSH1 0x2 DUP2 GT ISZERO PUSH2 0xB80 JUMPI PUSH2 0xB7F PUSH2 0x1DA9 JUMP JUMPDEST JUMPDEST DUP2 MSTORE PUSH1 0x20 ADD DUP10 DUP2 MSTORE PUSH1 0x20 ADD PUSH1 0x4 PUSH0 DUP13 PUSH1 0x2 DUP2 GT ISZERO PUSH2 0xBA1 JUMPI PUSH2 0xBA0 PUSH2 0x1DA9 JUMP JUMPDEST JUMPDEST PUSH1 0x2 DUP2 GT ISZERO PUSH2 0xBB3 JUMPI PUSH2 0xBB2 PUSH2 0x1DA9 JUMP JUMPDEST JUMPDEST DUP2 MSTORE PUSH1 0x20 ADD SWAP1 DUP2 MSTORE PUSH1 0x20 ADD PUSH0 KECCAK256 PUSH0 ADD SLOAD DUP11 PUSH2 0xBCE SWAP2 SWAP1 PUSH2 0x23EF JUMP JUMPDEST DUP2 MSTORE PUSH1 0x20 ADD TIMESTAMP DUP2 MSTORE PUSH1 0x20 ADD PUSH2 0xBF0 PUSH4 0x1E13380 TIMESTAMP PUSH2 0x18DC SWAP1 SWAP2 SWAP1 PUSH4 0xFFFFFFFF AND JUMP JUMPDEST DUP2 MSTORE PUSH1 0x20 ADD PUSH2 0xC0C PUSH4 0x1E13380 TIMESTAMP PUSH2 0x18DC SWAP1 SWAP2 SWAP1 PUSH4 0xFFFFFFFF AND JUMP JUMPDEST DUP2 MSTORE POP PUSH1 0x6 PUSH0 CALLER PUSH20 0xFFFFFFFFFFFFFFFFFFFFFFFFFFFFFFFFFFFFFFFF AND PUSH20 0xFFFFFFFFFFFFFFFFFFFFFFFFFFFFFFFFFFFFFFFF AND DUP2 MSTORE PUSH1 0x20 ADD SWAP1 DUP2 MSTORE PUSH1 0x20 ADD PUSH0 KECCAK256 PUSH0 DUP3 ADD MLOAD DUP2 PUSH0 ADD PUSH0 PUSH2 0x100 EXP DUP2 SLOAD DUP2 PUSH20 0xFFFFFFFFFFFFFFFFFFFFFFFFFFFFFFFFFFFFFFFF MUL NOT AND SWAP1 DUP4 PUSH20 0xFFFFFFFFFFFFFFFFFFFFFFFFFFFFFFFFFFFFFFFF AND MUL OR SWAP1 SSTORE POP PUSH1 0x20 DUP3 ADD MLOAD DUP2 PUSH0 ADD PUSH1 0x14 PUSH2 0x100 EXP DUP2 SLOAD DUP2 PUSH1 0xFF MUL NOT AND SWAP1 DUP4 PUSH1 0x1 DUP2 GT ISZERO PUSH2 0xCBA JUMPI PUSH2 0xCB9 PUSH2 0x1DA9 JUMP JUMPDEST JUMPDEST MUL OR SWAP1 SSTORE POP PUSH1 0x40 DUP3 ADD MLOAD DUP2 PUSH0 ADD PUSH1 0x15 PUSH2 0x100 EXP DUP2 SLOAD DUP2 PUSH1 0xFF MUL NOT AND SWAP1 DUP4 PUSH1 0x2 DUP2 GT ISZERO PUSH2 0xCE9 JUMPI PUSH2 0xCE8 PUSH2 0x1DA9 JUMP JUMPDEST JUMPDEST MUL OR SWAP1 SSTORE POP PUSH1 0x60 DUP3 ADD MLOAD DUP2 PUSH1 0x1 ADD SSTORE PUSH1 0x80 DUP3 ADD MLOAD DUP2 PUSH1 0x2 ADD SSTORE PUSH1 0xA0 DUP3 ADD MLOAD DUP2 PUSH1 0x3 ADD SSTORE PUSH1 0xC0 DUP3 ADD MLOAD DUP2 PUSH1 0x4 ADD SSTORE PUSH1 0xE0 DUP3 ADD MLOAD DUP2 PUSH1 0x5 ADD SSTORE SWAP1 POP POP PUSH0 PUSH4 0x1E13380 SWAP1 POP PUSH0 PUSH2 0x7B2 SWAP1 POP DUP1 DUP3 TIMESTAMP PUSH2 0xD3E SWAP2 SWAP1 PUSH2 0x2553 JUMP JUMPDEST PUSH2 0xD48 SWAP2 SWAP1 PUSH2 0x23BC JUMP JUMPDEST PUSH1 0x7 PUSH0 CALLER PUSH20 0xFFFFFFFFFFFFFFFFFFFFFFFFFFFFFFFFFFFFFFFF AND PUSH20 0xFFFFFFFFFFFFFFFFFFFFFFFFFFFFFFFFFFFFFFFF AND DUP2 MSTORE PUSH1 0x20 ADD SWAP1 DUP2 MSTORE PUSH1 0x20 ADD PUSH0 KECCAK256 DUP2 SWAP1 SSTORE POP PUSH1 0x9 PUSH0 CALLER PUSH20 0xFFFFFFFFFFFFFFFFFFFFFFFFFFFFFFFFFFFFFFFF AND PUSH20 0xFFFFFFFFFFFFFFFFFFFFFFFFFFFFFFFFFFFFFFFF AND DUP2 MSTORE PUSH1 0x20 ADD SWAP1 DUP2 MSTORE PUSH1 0x20 ADD PUSH0 KECCAK256 TIMESTAMP SWAP1 DUP1 PUSH1 0x1 DUP2 SLOAD ADD DUP1 DUP3 SSTORE DUP1 SWAP2 POP POP PUSH1 0x1 SWAP1 SUB SWAP1 PUSH0 MSTORE PUSH1 0x20 PUSH0 KECCAK256 ADD PUSH0 SWAP1 SWAP2 SWAP1 SWAP2 SWAP1 SWAP2 POP SSTORE POP POP POP POP POP POP POP POP POP POP POP JUMP JUMPDEST PUSH1 0x60 PUSH0 DUP1 PUSH1 0x1 DUP2 GT ISZERO PUSH2 0xE0D JUMPI PUSH2 0xE0C PUSH2 0x1DA9 JUMP JUMPDEST JUMPDEST PUSH1 0x6 PUSH0 CALLER PUSH20 0xFFFFFFFFFFFFFFFFFFFFFFFFFFFFFFFFFFFFFFFF AND PUSH20 0xFFFFFFFFFFFFFFFFFFFFFFFFFFFFFFFFFFFFFFFF AND DUP2 MSTORE PUSH1 0x20 ADD SWAP1 DUP2 MSTORE PUSH1 0x20 ADD PUSH0 KECCAK256 PUSH0 ADD PUSH1 0x14 SWAP1 SLOAD SWAP1 PUSH2 0x100 EXP SWAP1 DIV PUSH1 0xFF AND PUSH1 0x1 DUP2 GT ISZERO PUSH2 0xE6C JUMPI PUSH2 0xE6B PUSH2 0x1DA9 JUMP JUMPDEST JUMPDEST EQ SWAP1 POP PUSH0 DUP2 PUSH2 0xEB9 JUMPI PUSH2 0xEB4 DUP5 PUSH1 0x40 MLOAD DUP1 PUSH1 0x40 ADD PUSH1 0x40 MSTORE DUP1 PUSH1 0x6 DUP2 MSTORE PUSH1 0x20 ADD PUSH32 0x5F4E4F5254480000000000000000000000000000000000000000000000000000 DUP2 MSTORE POP PUSH2 0x18F1 JUMP JUMPDEST PUSH2 0xEF9 JUMP JUMPDEST PUSH2 0xEF8 DUP5 PUSH1 0x40 MLOAD DUP1 PUSH1 0x40 ADD PUSH1 0x40 MSTORE DUP1 PUSH1 0x6 DUP2 MSTORE PUSH1 0x20 ADD PUSH32 0x5F534F5554480000000000000000000000000000000000000000000000000000 DUP2 MSTORE POP PUSH2 0x18F1 JUMP JUMPDEST JUMPDEST SWAP1 POP DUP1 SWAP3 POP POP POP SWAP2 SWAP1 POP JUMP JUMPDEST PUSH0 CALLVALUE GT PUSH2 0xF47 JUMPI PUSH1 0x40 MLOAD PUSH32 0x8C379A000000000000000000000000000000000000000000000000000000000 DUP2 MSTORE PUSH1 0x4 ADD PUSH2 0xF3E SWAP1 PUSH2 0x25CD JUMP JUMPDEST PUSH1 0x40 MLOAD DUP1 SWAP2 SUB SWAP1 REVERT JUMPDEST JUMP JUMPDEST PUSH0 DUP1 PUSH20 0xFFFFFFFFFFFFFFFFFFFFFFFFFFFFFFFFFFFFFFFF AND PUSH1 0x6 PUSH0 CALLER PUSH20 0xFFFFFFFFFFFFFFFFFFFFFFFFFFFFFFFFFFFFFFFF AND PUSH20 0xFFFFFFFFFFFFFFFFFFFFFFFFFFFFFFFFFFFFFFFF AND DUP2 MSTORE PUSH1 0x20 ADD SWAP1 DUP2 MSTORE PUSH1 0x20 ADD PUSH0 KECCAK256 PUSH0 ADD PUSH0 SWAP1 SLOAD SWAP1 PUSH2 0x100 EXP SWAP1 DIV PUSH20 0xFFFFFFFFFFFFFFFFFFFFFFFFFFFFFFFFFFFFFFFF AND PUSH20 0xFFFFFFFFFFFFFFFFFFFFFFFFFFFFFFFFFFFFFFFF AND EQ ISZERO SWAP1 POP PUSH0 TIMESTAMP PUSH1 0x6 PUSH0 CALLER PUSH20 0xFFFFFFFFFFFFFFFFFFFFFFFFFFFFFFFFFFFFFFFF AND PUSH20 0xFFFFFFFFFFFFFFFFFFFFFFFFFFFFFFFFFFFFFFFF AND DUP2 MSTORE PUSH1 0x20 ADD SWAP1 DUP2 MSTORE PUSH1 0x20 ADD PUSH0 KECCAK256 PUSH1 0x4 ADD SLOAD GT SWAP1 POP DUP2 DUP1 ISZERO PUSH2 0x102A JUMPI POP DUP1 JUMPDEST PUSH2 0x1069 JUMPI PUSH1 0x40 MLOAD PUSH32 0x8C379A000000000000000000000000000000000000000000000000000000000 DUP2 MSTORE PUSH1 0x4 ADD PUSH2 0x1060 SWAP1 PUSH2 0x2255 JUMP JUMPDEST PUSH1 0x40 MLOAD DUP1 SWAP2 SUB SWAP1 REVERT JUMPDEST PUSH1 0x6 PUSH0 CALLER PUSH20 0xFFFFFFFFFFFFFFFFFFFFFFFFFFFFFFFFFFFFFFFF AND PUSH20 0xFFFFFFFFFFFFFFFFFFFFFFFFFFFFFFFFFFFFFFFF AND DUP2 MSTORE PUSH1 0x20 ADD SWAP1 DUP2 MSTORE PUSH1 0x20 ADD PUSH0 KECCAK256 PUSH0 ADD PUSH1 0x15 SWAP1 SLOAD SWAP1 PUSH2 0x100 EXP SWAP1 DIV PUSH1 0xFF AND PUSH1 0x6 PUSH0 CALLER PUSH20 0xFFFFFFFFFFFFFFFFFFFFFFFFFFFFFFFFFFFFFFFF AND PUSH20 0xFFFFFFFFFFFFFFFFFFFFFFFFFFFFFFFFFFFFFFFF AND DUP2 MSTORE PUSH1 0x20 ADD SWAP1 DUP2 MSTORE PUSH1 0x20 ADD PUSH0 KECCAK256 PUSH1 0x1 ADD SLOAD PUSH0 DUP2 PUSH1 0x4 PUSH0 DUP6 PUSH1 0x2 DUP2 GT ISZERO PUSH2 0x110F JUMPI PUSH2 0x110E PUSH2 0x1DA9 JUMP JUMPDEST JUMPDEST PUSH1 0x2 DUP2 GT ISZERO PUSH2 0x1121 JUMPI PUSH2 0x1120 PUSH2 0x1DA9 JUMP JUMPDEST JUMPDEST DUP2 MSTORE PUSH1 0x20 ADD SWAP1 DUP2 MSTORE PUSH1 0x20 ADD PUSH0 KECCAK256 PUSH0 ADD SLOAD PUSH2 0x113B SWAP2 SWAP1 PUSH2 0x23EF JUMP JUMPDEST SWAP1 POP PUSH0 DUP2 CALLVALUE EQ SWAP1 POP DUP1 PUSH2 0x1183 JUMPI PUSH1 0x40 MLOAD PUSH32 0x8C379A000000000000000000000000000000000000000000000000000000000 DUP2 MSTORE PUSH1 0x4 ADD PUSH2 0x117A SWAP1 PUSH2 0x2508 JUMP JUMPDEST PUSH1 0x40 MLOAD DUP1 SWAP2 SUB SWAP1 REVERT JUMPDEST PUSH2 0x11DA PUSH4 0x1E13380 PUSH1 0x6 PUSH0 CALLER PUSH20 0xFFFFFFFFFFFFFFFFFFFFFFFFFFFFFFFFFFFFFFFF AND PUSH20 0xFFFFFFFFFFFFFFFFFFFFFFFFFFFFFFFFFFFFFFFF AND DUP2 MSTORE PUSH1 0x20 ADD SWAP1 DUP2 MSTORE PUSH1 0x20 ADD PUSH0 KECCAK256 PUSH1 0x4 ADD SLOAD PUSH2 0x18DC SWAP1 SWAP2 SWAP1 PUSH4 0xFFFFFFFF AND JUMP JUMPDEST POP POP POP POP POP POP POP JUMP JUMPDEST PUSH0 DUP1 PUSH2 0x11EE DUP4 PUSH2 0xDF7 JUMP JUMPDEST SWAP1 POP PUSH0 PUSH1 0x6 PUSH0 CALLER PUSH20 0xFFFFFFFFFFFFFFFFFFFFFFFFFFFFFFFFFFFFFFFF AND PUSH20 0xFFFFFFFFFFFFFFFFFFFFFFFFFFFFFFFFFFFFFFFF AND DUP2 MSTORE PUSH1 0x20 ADD SWAP1 DUP2 MSTORE PUSH1 0x20 ADD PUSH0 KECCAK256 PUSH1 0x40 MLOAD DUP1 PUSH2 0x100 ADD PUSH1 0x40 MSTORE SWAP1 DUP2 PUSH0 DUP3 ADD PUSH0 SWAP1 SLOAD SWAP1 PUSH2 0x100 EXP SWAP1 DIV PUSH20 0xFFFFFFFFFFFFFFFFFFFFFFFFFFFFFFFFFFFFFFFF AND PUSH20 0xFFFFFFFFFFFFFFFFFFFFFFFFFFFFFFFFFFFFFFFF AND PUSH20 0xFFFFFFFFFFFFFFFFFFFFFFFFFFFFFFFFFFFFFFFF AND DUP2 MSTORE PUSH1 0x20 ADD PUSH0 DUP3 ADD PUSH1 0x14 SWAP1 SLOAD SWAP1 PUSH2 0x100 EXP SWAP1 DIV PUSH1 0xFF AND PUSH1 0x1 DUP2 GT ISZERO PUSH2 0x12B2 JUMPI PUSH2 0x12B1 PUSH2 0x1DA9 JUMP JUMPDEST JUMPDEST PUSH1 0x1 DUP2 GT ISZERO PUSH2 0x12C4 JUMPI PUSH2 0x12C3 PUSH2 0x1DA9 JUMP JUMPDEST JUMPDEST DUP2 MSTORE PUSH1 0x20 ADD PUSH0 DUP3 ADD PUSH1 0x15 SWAP1 SLOAD SWAP1 PUSH2 0x100 EXP SWAP1 DIV PUSH1 0xFF AND PUSH1 0x2 DUP2 GT ISZERO PUSH2 0x12EC JUMPI PUSH2 0x12EB PUSH2 0x1DA9 JUMP JUMPDEST JUMPDEST PUSH1 0x2 DUP2 GT ISZERO PUSH2 0x12FE JUMPI PUSH2 0x12FD PUSH2 0x1DA9 JUMP JUMPDEST JUMPDEST DUP2 MSTORE PUSH1 0x20 ADD PUSH1 0x1 DUP3 ADD SLOAD DUP2 MSTORE PUSH1 0x20 ADD PUSH1 0x2 DUP3 ADD SLOAD DUP2 MSTORE PUSH1 0x20 ADD PUSH1 0x3 DUP3 ADD SLOAD DUP2 MSTORE PUSH1 0x20 ADD PUSH1 0x4 DUP3 ADD SLOAD DUP2 MSTORE PUSH1 0x20 ADD PUSH1 0x5 DUP3 ADD SLOAD DUP2 MSTORE POP POP SWAP1 POP PUSH0 PUSH1 0x5 DUP4 PUSH1 0x40 MLOAD PUSH2 0x1347 SWAP2 SWAP1 PUSH2 0x21F5 JUMP JUMPDEST SWAP1 DUP2 MSTORE PUSH1 0x20 ADD PUSH1 0x40 MLOAD DUP1 SWAP2 SUB SWAP1 KECCAK256 SLOAD PUSH1 0x4 PUSH0 DUP5 PUSH1 0x40 ADD MLOAD PUSH1 0x2 DUP2 GT ISZERO PUSH2 0x1370 JUMPI PUSH2 0x136F PUSH2 0x1DA9 JUMP JUMPDEST JUMPDEST PUSH1 0x2 DUP2 GT ISZERO PUSH2 0x1382 JUMPI PUSH2 0x1381 PUSH2 0x1DA9 JUMP JUMPDEST JUMPDEST DUP2 MSTORE PUSH1 0x20 ADD SWAP1 DUP2 MSTORE PUSH1 0x20 ADD PUSH0 KECCAK256 PUSH1 0x1 ADD SLOAD PUSH2 0x139D SWAP2 SWAP1 PUSH2 0x25EB JUMP JUMPDEST SWAP1 POP PUSH0 PUSH1 0x1 SLOAD DUP4 PUSH1 0x60 ADD MLOAD PUSH1 0x3 SLOAD DUP5 PUSH1 0x2 SLOAD PUSH2 0x13B9 SWAP2 SWAP1 PUSH2 0x23EF JUMP JUMPDEST PUSH2 0x13C3 SWAP2 SWAP1 PUSH2 0x23EF JUMP JUMPDEST PUSH2 0x13CD SWAP2 SWAP1 PUSH2 0x23EF JUMP JUMPDEST PUSH2 0x13D7 SWAP2 SWAP1 PUSH2 0x23EF JUMP JUMPDEST SWAP1 POP PUSH3 0x186A0 DUP2 PUSH2 0x13E8 SWAP2 SWAP1 PUSH2 0x2553 JUMP JUMPDEST SWAP5 POP POP POP POP POP SWAP2 SWAP1 POP JUMP JUMPDEST PUSH0 DUP1 PUSH20 0xFFFFFFFFFFFFFFFFFFFFFFFFFFFFFFFFFFFFFFFF AND PUSH1 0x6 PUSH0 CALLER PUSH20 0xFFFFFFFFFFFFFFFFFFFFFFFFFFFFFFFFFFFFFFFF AND PUSH20 0xFFFFFFFFFFFFFFFFFFFFFFFFFFFFFFFFFFFFFFFF AND DUP2 MSTORE PUSH1 0x20 ADD SWAP1 DUP2 MSTORE PUSH1 0x20 ADD PUSH0 KECCAK256 PUSH0 ADD PUSH0 SWAP1 SLOAD SWAP1 PUSH2 0x100 EXP SWAP1 DIV PUSH20 0xFFFFFFFFFFFFFFFFFFFFFFFFFFFFFFFFFFFFFFFF AND PUSH20 0xFFFFFFFFFFFFFFFFFFFFFFFFFFFFFFFFFFFFFFFF AND EQ ISZERO SWAP1 POP PUSH0 TIMESTAMP PUSH1 0x6 PUSH0 CALLER PUSH20 0xFFFFFFFFFFFFFFFFFFFFFFFFFFFFFFFFFFFFFFFF AND PUSH20 0xFFFFFFFFFFFFFFFFFFFFFFFFFFFFFFFFFFFFFFFF AND DUP2 MSTORE PUSH1 0x20 ADD SWAP1 DUP2 MSTORE PUSH1 0x20 ADD PUSH0 KECCAK256 PUSH1 0x4 ADD SLOAD GT SWAP1 POP DUP2 DUP1 ISZERO PUSH2 0x14D4 JUMPI POP DUP1 JUMPDEST PUSH2 0x1513 JUMPI PUSH1 0x40 MLOAD PUSH32 0x8C379A000000000000000000000000000000000000000000000000000000000 DUP2 MSTORE PUSH1 0x4 ADD PUSH2 0x150A SWAP1 PUSH2 0x2255 JUMP JUMPDEST PUSH1 0x40 MLOAD DUP1 SWAP2 SUB SWAP1 REVERT JUMPDEST PUSH0 TIMESTAMP PUSH1 0x6 PUSH0 CALLER PUSH20 0xFFFFFFFFFFFFFFFFFFFFFFFFFFFFFFFFFFFFFFFF AND PUSH20 0xFFFFFFFFFFFFFFFFFFFFFFFFFFFFFFFFFFFFFFFF AND DUP2 MSTORE PUSH1 0x20 ADD SWAP1 DUP2 MSTORE PUSH1 0x20 ADD PUSH0 KECCAK256 PUSH1 0x5 ADD SLOAD LT SWAP1 POP DUP1 PUSH2 0x1599 JUMPI PUSH1 0x40 MLOAD PUSH32 0x8C379A000000000000000000000000000000000000000000000000000000000 DUP2 MSTORE PUSH1 0x4 ADD PUSH2 0x1590 SWAP1 PUSH2 0x268E JUMP JUMPDEST PUSH1 0x40 MLOAD DUP1 SWAP2 SUB SWAP1 REVERT JUMPDEST DUP4 PUSH0 DUP2 PUSH1 0x7 PUSH0 CALLER PUSH20 0xFFFFFFFFFFFFFFFFFFFFFFFFFFFFFFFFFFFFFFFF AND PUSH20 0xFFFFFFFFFFFFFFFFFFFFFFFFFFFFFFFFFFFFFFFF AND DUP2 MSTORE PUSH1 0x20 ADD SWAP1 DUP2 MSTORE PUSH1 0x20 ADD PUSH0 KECCAK256 SLOAD EQ SWAP1 POP DUP1 PUSH2 0x161D JUMPI PUSH1 0x40 MLOAD PUSH32 0x8C379A000000000000000000000000000000000000000000000000000000000 DUP2 MSTORE PUSH1 0x4 ADD PUSH2 0x1614 SWAP1 PUSH2 0x22E3 JUMP JUMPDEST PUSH1 0x40 MLOAD DUP1 SWAP2 SUB SWAP1 REVERT JUMPDEST DUP6 PUSH0 PUSH2 0x1628 DUP3 PUSH2 0xDF7 JUMP JUMPDEST SWAP1 POP PUSH0 DUP1 PUSH1 0x5 DUP4 PUSH1 0x40 MLOAD PUSH2 0x163C SWAP2 SWAP1 PUSH2 0x21F5 JUMP JUMPDEST SWAP1 DUP2 MSTORE PUSH1 0x20 ADD PUSH1 0x40 MLOAD DUP1 SWAP2 SUB SWAP1 KECCAK256 SLOAD EQ ISZERO SWAP1 POP DUP1 PUSH2 0x168F JUMPI PUSH1 0x40 MLOAD PUSH32 0x8C379A000000000000000000000000000000000000000000000000000000000 DUP2 MSTORE PUSH1 0x4 ADD PUSH2 0x1686 SWAP1 PUSH2 0x2371 JUMP JUMPDEST PUSH1 0x40 MLOAD DUP1 SWAP2 SUB SWAP1 REVERT JUMPDEST PUSH0 PUSH1 0x6 PUSH0 CALLER PUSH20 0xFFFFFFFFFFFFFFFFFFFFFFFFFFFFFFFFFFFFFFFF AND PUSH20 0xFFFFFFFFFFFFFFFFFFFFFFFFFFFFFFFFFFFFFFFF AND DUP2 MSTORE PUSH1 0x20 ADD SWAP1 DUP2 MSTORE PUSH1 0x20 ADD PUSH0 KECCAK256 PUSH1 0x40 MLOAD DUP1 PUSH2 0x100 ADD PUSH1 0x40 MSTORE SWAP1 DUP2 PUSH0 DUP3 ADD PUSH0 SWAP1 SLOAD SWAP1 PUSH2 0x100 EXP SWAP1 DIV PUSH20 0xFFFFFFFFFFFFFFFFFFFFFFFFFFFFFFFFFFFFFFFF AND PUSH20 0xFFFFFFFFFFFFFFFFFFFFFFFFFFFFFFFFFFFFFFFF AND PUSH20 0xFFFFFFFFFFFFFFFFFFFFFFFFFFFFFFFFFFFFFFFF AND DUP2 MSTORE PUSH1 0x20 ADD PUSH0 DUP3 ADD PUSH1 0x14 SWAP1 SLOAD SWAP1 PUSH2 0x100 EXP SWAP1 DIV PUSH1 0xFF AND PUSH1 0x1 DUP2 GT ISZERO PUSH2 0x1751 JUMPI PUSH2 0x1750 PUSH2 0x1DA9 JUMP JUMPDEST JUMPDEST PUSH1 0x1 DUP2 GT ISZERO PUSH2 0x1763 JUMPI PUSH2 0x1762 PUSH2 0x1DA9 JUMP JUMPDEST JUMPDEST DUP2 MSTORE PUSH1 0x20 ADD PUSH0 DUP3 ADD PUSH1 0x15 SWAP1 SLOAD SWAP1 PUSH2 0x100 EXP SWAP1 DIV PUSH1 0xFF AND PUSH1 0x2 DUP2 GT ISZERO PUSH2 0x178B JUMPI PUSH2 0x178A PUSH2 0x1DA9 JUMP JUMPDEST JUMPDEST PUSH1 0x2 DUP2 GT ISZERO PUSH2 0x179D JUMPI PUSH2 0x179C PUSH2 0x1DA9 JUMP JUMPDEST JUMPDEST DUP2 MSTORE PUSH1 0x20 ADD PUSH1 0x1 DUP3 ADD SLOAD DUP2 MSTORE PUSH1 0x20 ADD PUSH1 0x2 DUP3 ADD SLOAD DUP2 MSTORE PUSH1 0x20 ADD PUSH1 0x3 DUP3 ADD SLOAD DUP2 MSTORE PUSH1 0x20 ADD PUSH1 0x4 DUP3 ADD SLOAD DUP2 MSTORE PUSH1 0x20 ADD PUSH1 0x5 DUP3 ADD SLOAD DUP2 MSTORE POP POP SWAP1 POP PUSH0 PUSH2 0x17DF DUP12 PUSH2 0x11E3 JUMP JUMPDEST SWAP1 POP CALLER PUSH20 0xFFFFFFFFFFFFFFFFFFFFFFFFFFFFFFFFFFFFFFFF AND PUSH2 0x8FC DUP3 SWAP1 DUP2 ISZERO MUL SWAP1 PUSH1 0x40 MLOAD PUSH0 PUSH1 0x40 MLOAD DUP1 DUP4 SUB DUP2 DUP6 DUP9 DUP9 CALL SWAP4 POP POP POP POP ISZERO DUP1 ISZERO PUSH2 0x1824 JUMPI RETURNDATASIZE PUSH0 DUP1 RETURNDATACOPY RETURNDATASIZE PUSH0 REVERT JUMPDEST POP PUSH2 0x1840 PUSH4 0x1E13380 DUP4 PUSH1 0xE0 ADD MLOAD PUSH2 0x18DC SWAP1 SWAP2 SWAP1 PUSH4 0xFFFFFFFF AND JUMP JUMPDEST POP PUSH0 DUP3 PUSH1 0xC0 ADD MLOAD GT ISZERO PUSH2 0x18A2 JUMPI PUSH1 0x1 PUSH1 0x7 PUSH0 CALLER PUSH20 0xFFFFFFFFFFFFFFFFFFFFFFFFFFFFFFFFFFFFFFFF AND PUSH20 0xFFFFFFFFFFFFFFFFFFFFFFFFFFFFFFFFFFFFFFFF AND DUP2 MSTORE PUSH1 0x20 ADD SWAP1 DUP2 MSTORE PUSH1 0x20 ADD PUSH0 KECCAK256 PUSH0 DUP3 DUP3 SLOAD PUSH2 0x189A SWAP2 SWAP1 PUSH2 0x23BC JUMP JUMPDEST SWAP3 POP POP DUP2 SWAP1 SSTORE POP JUMPDEST POP POP POP POP POP POP POP POP POP POP POP JUMP JUMPDEST PUSH1 0x5 DUP2 DUP1 MLOAD PUSH1 0x20 DUP2 ADD DUP3 ADD DUP1 MLOAD DUP5 DUP3 MSTORE PUSH1 0x20 DUP4 ADD PUSH1 0x20 DUP6 ADD KECCAK256 DUP2 DUP4 MSTORE DUP1 SWAP6 POP POP POP POP POP POP PUSH0 SWAP2 POP SWAP1 POP SLOAD DUP2 JUMP JUMPDEST PUSH0 DUP2 DUP4 PUSH2 0x18E9 SWAP2 SWAP1 PUSH2 0x23BC JUMP JUMPDEST SWAP1 POP SWAP3 SWAP2 POP POP JUMP JUMPDEST PUSH1 0x60 PUSH2 0x18FC DUP4 PUSH2 0x1925 JUMP JUMPDEST DUP3 PUSH1 0x40 MLOAD PUSH1 0x20 ADD PUSH2 0x190E SWAP3 SWAP2 SWAP1 PUSH2 0x26AC JUMP JUMPDEST PUSH1 0x40 MLOAD PUSH1 0x20 DUP2 DUP4 SUB SUB DUP2 MSTORE SWAP1 PUSH1 0x40 MSTORE SWAP1 POP SWAP3 SWAP2 POP POP JUMP JUMPDEST PUSH1 0x60 PUSH0 PUSH1 0x1 PUSH2 0x1933 DUP5 PUSH2 0x19EF JUMP JUMPDEST ADD SWAP1 POP PUSH0 DUP2 PUSH8 0xFFFFFFFFFFFFFFFF DUP2 GT ISZERO PUSH2 0x1951 JUMPI PUSH2 0x1950 PUSH2 0x2050 JUMP JUMPDEST JUMPDEST PUSH1 0x40 MLOAD SWAP1 DUP1 DUP3 MSTORE DUP1 PUSH1 0x1F ADD PUSH1 0x1F NOT AND PUSH1 0x20 ADD DUP3 ADD PUSH1 0x40 MSTORE DUP1 ISZERO PUSH2 0x1983 JUMPI DUP2 PUSH1 0x20 ADD PUSH1 0x1 DUP3 MUL DUP1 CALLDATASIZE DUP4 CALLDATACOPY DUP1 DUP3 ADD SWAP2 POP POP SWAP1 POP JUMPDEST POP SWAP1 POP PUSH0 DUP3 PUSH1 0x20 ADD DUP3 ADD SWAP1 POP JUMPDEST PUSH1 0x1 ISZERO PUSH2 0x19E4 JUMPI DUP1 DUP1 PUSH1 0x1 SWAP1 SUB SWAP2 POP POP PUSH32 0x3031323334353637383961626364656600000000000000000000000000000000 PUSH1 0xA DUP7 MOD BYTE DUP2 MSTORE8 PUSH1 0xA DUP6 DUP2 PUSH2 0x19D9 JUMPI PUSH2 0x19D8 PUSH2 0x2526 JUMP JUMPDEST JUMPDEST DIV SWAP5 POP PUSH0 DUP6 SUB PUSH2 0x1990 JUMPI JUMPDEST DUP2 SWAP4 POP POP POP POP SWAP2 SWAP1 POP JUMP JUMPDEST PUSH0 DUP1 PUSH0 SWAP1 POP PUSH27 0x184F03E93FF9F4DAA797ED6E38ED64BF6A1F010000000000000000 DUP4 LT PUSH2 0x1A4B JUMPI PUSH27 0x184F03E93FF9F4DAA797ED6E38ED64BF6A1F010000000000000000 DUP4 DUP2 PUSH2 0x1A41 JUMPI PUSH2 0x1A40 PUSH2 0x2526 JUMP JUMPDEST JUMPDEST DIV SWAP3 POP PUSH1 0x40 DUP2 ADD SWAP1 POP JUMPDEST PUSH14 0x4EE2D6D415B85ACEF8100000000 DUP4 LT PUSH2 0x1A88 JUMPI PUSH14 0x4EE2D6D415B85ACEF8100000000 DUP4 DUP2 PUSH2 0x1A7E JUMPI PUSH2 0x1A7D PUSH2 0x2526 JUMP JUMPDEST JUMPDEST DIV SWAP3 POP PUSH1 0x20 DUP2 ADD SWAP1 POP JUMPDEST PUSH7 0x2386F26FC10000 DUP4 LT PUSH2 0x1AB7 JUMPI PUSH7 0x2386F26FC10000 DUP4 DUP2 PUSH2 0x1AAD JUMPI PUSH2 0x1AAC PUSH2 0x2526 JUMP JUMPDEST JUMPDEST DIV SWAP3 POP PUSH1 0x10 DUP2 ADD SWAP1 POP JUMPDEST PUSH4 0x5F5E100 DUP4 LT PUSH2 0x1AE0 JUMPI PUSH4 0x5F5E100 DUP4 DUP2 PUSH2 0x1AD6 JUMPI PUSH2 0x1AD5 PUSH2 0x2526 JUMP JUMPDEST JUMPDEST DIV SWAP3 POP PUSH1 0x8 DUP2 ADD SWAP1 POP JUMPDEST PUSH2 0x2710 DUP4 LT PUSH2 0x1B05 JUMPI PUSH2 0x2710 DUP4 DUP2 PUSH2 0x1AFB JUMPI PUSH2 0x1AFA PUSH2 0x2526 JUMP JUMPDEST JUMPDEST DIV SWAP3 POP PUSH1 0x4 DUP2 ADD SWAP1 POP JUMPDEST PUSH1 0x64 DUP4 LT PUSH2 0x1B28 JUMPI PUSH1 0x64 DUP4 DUP2 PUSH2 0x1B1E JUMPI PUSH2 0x1B1D PUSH2 0x2526 JUMP JUMPDEST JUMPDEST DIV SWAP3 POP PUSH1 0x2 DUP2 ADD SWAP1 POP JUMPDEST PUSH1 0xA DUP4 LT PUSH2 0x1B37 JUMPI PUSH1 0x1 DUP2 ADD SWAP1 POP JUMPDEST DUP1 SWAP2 POP POP SWAP2 SWAP1 POP JUMP JUMPDEST PUSH1 0x40 MLOAD DUP1 PUSH2 0x100 ADD PUSH1 0x40 MSTORE DUP1 PUSH0 PUSH20 0xFFFFFFFFFFFFFFFFFFFFFFFFFFFFFFFFFFFFFFFF AND DUP2 MSTORE PUSH1 0x20 ADD PUSH0 PUSH1 0x1 DUP2 GT ISZERO PUSH2 0x1B7B JUMPI PUSH2 0x1B7A PUSH2 0x1DA9 JUMP JUMPDEST JUMPDEST DUP2 MSTORE PUSH1 0x20 ADD PUSH0 PUSH1 0x2 DUP2 GT ISZERO PUSH2 0x1B93 JUMPI PUSH2 0x1B92 PUSH2 0x1DA9 JUMP JUMPDEST JUMPDEST DUP2 MSTORE PUSH1 0x20 ADD PUSH0 DUP2 MSTORE PUSH1 0x20 ADD PUSH0 DUP2 MSTORE PUSH1 0x20 ADD PUSH0 DUP2 MSTORE PUSH1 0x20 ADD PUSH0 DUP2 MSTORE PUSH1 0x20 ADD PUSH0 DUP2 MSTORE POP SWAP1 JUMP JUMPDEST PUSH0 PUSH1 0x40 MLOAD SWAP1 POP SWAP1 JUMP JUMPDEST PUSH0 DUP1 REVERT JUMPDEST PUSH0 DUP1 REVERT JUMPDEST PUSH0 DUP2 SWAP1 POP SWAP2 SWAP1 POP JUMP JUMPDEST PUSH2 0x1BDA DUP2 PUSH2 0x1BC8 JUMP JUMPDEST DUP2 EQ PUSH2 0x1BE4 JUMPI PUSH0 DUP1 REVERT JUMPDEST POP JUMP JUMPDEST PUSH0 DUP2 CALLDATALOAD SWAP1 POP PUSH2 0x1BF5 DUP2 PUSH2 0x1BD1 JUMP JUMPDEST SWAP3 SWAP2 POP POP JUMP JUMPDEST PUSH0 DUP1 PUSH1 0x40 DUP4 DUP6 SUB SLT ISZERO PUSH2 0x1C11 JUMPI PUSH2 0x1C10 PUSH2 0x1BC0 JUMP JUMPDEST JUMPDEST PUSH0 PUSH2 0x1C1E DUP6 DUP3 DUP7 ADD PUSH2 0x1BE7 JUMP JUMPDEST SWAP3 POP POP PUSH1 0x20 PUSH2 0x1C2F DUP6 DUP3 DUP7 ADD PUSH2 0x1BE7 JUMP JUMPDEST SWAP2 POP POP SWAP3 POP SWAP3 SWAP1 POP JUMP JUMPDEST PUSH0 PUSH20 0xFFFFFFFFFFFFFFFFFFFFFFFFFFFFFFFFFFFFFFFF DUP3 AND SWAP1 POP SWAP2 SWAP1 POP JUMP JUMPDEST PUSH0 PUSH2 0x1C62 DUP3 PUSH2 0x1C39 JUMP JUMPDEST SWAP1 POP SWAP2 SWAP1 POP JUMP JUMPDEST PUSH2 0x1C72 DUP2 PUSH2 0x1C58 JUMP JUMPDEST DUP2 EQ PUSH2 0x1C7C JUMPI PUSH0 DUP1 REVERT JUMPDEST POP JUMP JUMPDEST PUSH0 DUP2 CALLDATALOAD SWAP1 POP PUSH2 0x1C8D DUP2 PUSH2 0x1C69 JUMP JUMPDEST SWAP3 SWAP2 POP POP JUMP JUMPDEST PUSH0 PUSH1 0x20 DUP3 DUP5 SUB SLT ISZERO PUSH2 0x1CA8 JUMPI PUSH2 0x1CA7 PUSH2 0x1BC0 JUMP JUMPDEST JUMPDEST PUSH0 PUSH2 0x1CB5 DUP5 DUP3 DUP6 ADD PUSH2 0x1C7F JUMP JUMPDEST SWAP2 POP POP SWAP3 SWAP2 POP POP JUMP JUMPDEST PUSH2 0x1CC7 DUP2 PUSH2 0x1BC8 JUMP JUMPDEST DUP3 MSTORE POP POP JUMP JUMPDEST PUSH0 PUSH1 0x20 DUP3 ADD SWAP1 POP PUSH2 0x1CE0 PUSH0 DUP4 ADD DUP5 PUSH2 0x1CBE JUMP JUMPDEST SWAP3 SWAP2 POP POP JUMP JUMPDEST PUSH0 PUSH1 0x20 DUP3 DUP5 SUB SLT ISZERO PUSH2 0x1CFB JUMPI PUSH2 0x1CFA PUSH2 0x1BC0 JUMP JUMPDEST JUMPDEST PUSH0 PUSH2 0x1D08 DUP5 DUP3 DUP6 ADD PUSH2 0x1BE7 JUMP JUMPDEST SWAP2 POP POP SWAP3 SWAP2 POP POP JUMP JUMPDEST PUSH1 0x3 DUP2 LT PUSH2 0x1D1D JUMPI PUSH0 DUP1 REVERT JUMPDEST POP JUMP JUMPDEST PUSH0 DUP2 CALLDATALOAD SWAP1 POP PUSH2 0x1D2E DUP2 PUSH2 0x1D11 JUMP JUMPDEST SWAP3 SWAP2 POP POP JUMP JUMPDEST PUSH0 DUP1 PUSH1 0x40 DUP4 DUP6 SUB SLT ISZERO PUSH2 0x1D4A JUMPI PUSH2 0x1D49 PUSH2 0x1BC0 JUMP JUMPDEST JUMPDEST PUSH0 PUSH2 0x1D57 DUP6 DUP3 DUP7 ADD PUSH2 0x1D20 JUMP JUMPDEST SWAP3 POP POP PUSH1 0x20 PUSH2 0x1D68 DUP6 DUP3 DUP7 ADD PUSH2 0x1BE7 JUMP JUMPDEST SWAP2 POP POP SWAP3 POP SWAP3 SWAP1 POP JUMP JUMPDEST PUSH2 0x1D7B DUP2 PUSH2 0x1C58 JUMP JUMPDEST DUP3 MSTORE POP POP JUMP JUMPDEST PUSH0 PUSH1 0x20 DUP3 ADD SWAP1 POP PUSH2 0x1D94 PUSH0 DUP4 ADD DUP5 PUSH2 0x1D72 JUMP JUMPDEST SWAP3 SWAP2 POP POP JUMP JUMPDEST PUSH2 0x1DA3 DUP2 PUSH2 0x1C58 JUMP JUMPDEST DUP3 MSTORE POP POP JUMP JUMPDEST PUSH32 0x4E487B7100000000000000000000000000000000000000000000000000000000 PUSH0 MSTORE PUSH1 0x21 PUSH1 0x4 MSTORE PUSH1 0x24 PUSH0 REVERT JUMPDEST PUSH1 0x2 DUP2 LT PUSH2 0x1DE7 JUMPI PUSH2 0x1DE6 PUSH2 0x1DA9 JUMP JUMPDEST JUMPDEST POP JUMP JUMPDEST PUSH0 DUP2 SWAP1 POP PUSH2 0x1DF7 DUP3 PUSH2 0x1DD6 JUMP JUMPDEST SWAP2 SWAP1 POP JUMP JUMPDEST PUSH0 PUSH2 0x1E06 DUP3 PUSH2 0x1DEA JUMP JUMPDEST SWAP1 POP SWAP2 SWAP1 POP JUMP JUMPDEST PUSH2 0x1E16 DUP2 PUSH2 0x1DFC JUMP JUMPDEST DUP3 MSTORE POP POP JUMP JUMPDEST PUSH1 0x3 DUP2 LT PUSH2 0x1E2D JUMPI PUSH2 0x1E2C PUSH2 0x1DA9 JUMP JUMPDEST JUMPDEST POP JUMP JUMPDEST PUSH0 DUP2 SWAP1 POP PUSH2 0x1E3D DUP3 PUSH2 0x1E1C JUMP JUMPDEST SWAP2 SWAP1 POP JUMP JUMPDEST PUSH0 PUSH2 0x1E4C DUP3 PUSH2 0x1E30 JUMP JUMPDEST SWAP1 POP SWAP2 SWAP1 POP JUMP JUMPDEST PUSH2 0x1E5C DUP2 PUSH2 0x1E42 JUMP JUMPDEST DUP3 MSTORE POP POP JUMP JUMPDEST PUSH2 0x1E6B DUP2 PUSH2 0x1BC8 JUMP JUMPDEST DUP3 MSTORE POP POP JUMP JUMPDEST PUSH2 0x100 DUP3 ADD PUSH0 DUP3 ADD MLOAD PUSH2 0x1E86 PUSH0 DUP6 ADD DUP3 PUSH2 0x1D9A JUMP JUMPDEST POP PUSH1 0x20 DUP3 ADD MLOAD PUSH2 0x1E99 PUSH1 0x20 DUP6 ADD DUP3 PUSH2 0x1E0D JUMP JUMPDEST POP PUSH1 0x40 DUP3 ADD MLOAD PUSH2 0x1EAC PUSH1 0x40 DUP6 ADD DUP3 PUSH2 0x1E53 JUMP JUMPDEST POP PUSH1 0x60 DUP3 ADD MLOAD PUSH2 0x1EBF PUSH1 0x60 DUP6 ADD DUP3 PUSH2 0x1E62 JUMP JUMPDEST POP PUSH1 0x80 DUP3 ADD MLOAD PUSH2 0x1ED2 PUSH1 0x80 DUP6 ADD DUP3 PUSH2 0x1E62 JUMP JUMPDEST POP PUSH1 0xA0 DUP3 ADD MLOAD PUSH2 0x1EE5 PUSH1 0xA0 DUP6 ADD DUP3 PUSH2 0x1E62 JUMP JUMPDEST POP PUSH1 0xC0 DUP3 ADD MLOAD PUSH2 0x1EF8 PUSH1 0xC0 DUP6 ADD DUP3 PUSH2 0x1E62 JUMP JUMPDEST POP PUSH1 0xE0 DUP3 ADD MLOAD PUSH2 0x1F0B PUSH1 0xE0 DUP6 ADD DUP3 PUSH2 0x1E62 JUMP JUMPDEST POP POP POP POP JUMP JUMPDEST PUSH0 PUSH2 0x100 DUP3 ADD SWAP1 POP PUSH2 0x1F25 PUSH0 DUP4 ADD DUP5 PUSH2 0x1E71 JUMP JUMPDEST SWAP3 SWAP2 POP POP JUMP JUMPDEST PUSH1 0x2 DUP2 LT PUSH2 0x1F37 JUMPI PUSH0 DUP1 REVERT JUMPDEST POP JUMP JUMPDEST PUSH0 DUP2 CALLDATALOAD SWAP1 POP PUSH2 0x1F48 DUP2 PUSH2 0x1F2B JUMP JUMPDEST SWAP3 SWAP2 POP POP JUMP JUMPDEST PUSH0 DUP1 PUSH0 PUSH1 0x60 DUP5 DUP7 SUB SLT ISZERO PUSH2 0x1F65 JUMPI PUSH2 0x1F64 PUSH2 0x1BC0 JUMP JUMPDEST JUMPDEST PUSH0 PUSH2 0x1F72 DUP7 DUP3 DUP8 ADD PUSH2 0x1D20 JUMP JUMPDEST SWAP4 POP POP PUSH1 0x20 PUSH2 0x1F83 DUP7 DUP3 DUP8 ADD PUSH2 0x1BE7 JUMP JUMPDEST SWAP3 POP POP PUSH1 0x40 PUSH2 0x1F94 DUP7 DUP3 DUP8 ADD PUSH2 0x1F3A JUMP JUMPDEST SWAP2 POP POP SWAP3 POP SWAP3 POP SWAP3 JUMP JUMPDEST PUSH0 DUP2 MLOAD SWAP1 POP SWAP2 SWAP1 POP JUMP JUMPDEST PUSH0 DUP3 DUP3 MSTORE PUSH1 0x20 DUP3 ADD SWAP1 POP SWAP3 SWAP2 POP POP JUMP JUMPDEST PUSH0 JUMPDEST DUP4 DUP2 LT ISZERO PUSH2 0x1FD5 JUMPI DUP1 DUP3 ADD MLOAD DUP2 DUP5 ADD MSTORE PUSH1 0x20 DUP2 ADD SWAP1 POP PUSH2 0x1FBA JUMP JUMPDEST PUSH0 DUP5 DUP5 ADD MSTORE POP POP POP POP JUMP JUMPDEST PUSH0 PUSH1 0x1F NOT PUSH1 0x1F DUP4 ADD AND SWAP1 POP SWAP2 SWAP1 POP JUMP JUMPDEST PUSH0 PUSH2 0x1FFA DUP3 PUSH2 0x1F9E JUMP JUMPDEST PUSH2 0x2004 DUP2 DUP6 PUSH2 0x1FA8 JUMP JUMPDEST SWAP4 POP PUSH2 0x2014 DUP2 DUP6 PUSH1 0x20 DUP7 ADD PUSH2 0x1FB8 JUMP JUMPDEST PUSH2 0x201D DUP2 PUSH2 0x1FE0 JUMP JUMPDEST DUP5 ADD SWAP2 POP POP SWAP3 SWAP2 POP POP JUMP JUMPDEST PUSH0 PUSH1 0x20 DUP3 ADD SWAP1 POP DUP2 DUP2 SUB PUSH0 DUP4 ADD MSTORE PUSH2 0x2040 DUP2 DUP5 PUSH2 0x1FF0 JUMP JUMPDEST SWAP1 POP SWAP3 SWAP2 POP POP JUMP JUMPDEST PUSH0 DUP1 REVERT JUMPDEST PUSH0 DUP1 REVERT JUMPDEST PUSH32 0x4E487B7100000000000000000000000000000000000000000000000000000000 PUSH0 MSTORE PUSH1 0x41 PUSH1 0x4 MSTORE PUSH1 0x24 PUSH0 REVERT JUMPDEST PUSH2 0x2086 DUP3 PUSH2 0x1FE0 JUMP JUMPDEST DUP2 ADD DUP2 DUP2 LT PUSH8 0xFFFFFFFFFFFFFFFF DUP3 GT OR ISZERO PUSH2 0x20A5 JUMPI PUSH2 0x20A4 PUSH2 0x2050 JUMP JUMPDEST JUMPDEST DUP1 PUSH1 0x40 MSTORE POP POP POP JUMP JUMPDEST PUSH0 PUSH2 0x20B7 PUSH2 0x1BB7 JUMP JUMPDEST SWAP1 POP PUSH2 0x20C3 DUP3 DUP3 PUSH2 0x207D JUMP JUMPDEST SWAP2 SWAP1 POP JUMP JUMPDEST PUSH0 PUSH8 0xFFFFFFFFFFFFFFFF DUP3 GT ISZERO PUSH2 0x20E2 JUMPI PUSH2 0x20E1 PUSH2 0x2050 JUMP JUMPDEST JUMPDEST PUSH2 0x20EB DUP3 PUSH2 0x1FE0 JUMP JUMPDEST SWAP1 POP PUSH1 0x20 DUP2 ADD SWAP1 POP SWAP2 SWAP1 POP JUMP JUMPDEST DUP3 DUP2 DUP4 CALLDATACOPY PUSH0 DUP4 DUP4 ADD MSTORE POP POP POP JUMP JUMPDEST PUSH0 PUSH2 0x2118 PUSH2 0x2113 DUP5 PUSH2 0x20C8 JUMP JUMPDEST PUSH2 0x20AE JUMP JUMPDEST SWAP1 POP DUP3 DUP2 MSTORE PUSH1 0x20 DUP2 ADD DUP5 DUP5 DUP5 ADD GT ISZERO PUSH2 0x2134 JUMPI PUSH2 0x2133 PUSH2 0x204C JUMP JUMPDEST JUMPDEST PUSH2 0x213F DUP5 DUP3 DUP6 PUSH2 0x20F8 JUMP JUMPDEST POP SWAP4 SWAP3 POP POP POP JUMP JUMPDEST PUSH0 DUP3 PUSH1 0x1F DUP4 ADD SLT PUSH2 0x215B JUMPI PUSH2 0x215A PUSH2 0x2048 JUMP JUMPDEST JUMPDEST DUP2 CALLDATALOAD PUSH2 0x216B DUP5 DUP3 PUSH1 0x20 DUP7 ADD PUSH2 0x2106 JUMP JUMPDEST SWAP2 POP POP SWAP3 SWAP2 POP POP JUMP JUMPDEST PUSH0 PUSH1 0x20 DUP3 DUP5 SUB SLT ISZERO PUSH2 0x2189 JUMPI PUSH2 0x2188 PUSH2 0x1BC0 JUMP JUMPDEST JUMPDEST PUSH0 DUP3 ADD CALLDATALOAD PUSH8 0xFFFFFFFFFFFFFFFF DUP2 GT ISZERO PUSH2 0x21A6 JUMPI PUSH2 0x21A5 PUSH2 0x1BC4 JUMP JUMPDEST JUMPDEST PUSH2 0x21B2 DUP5 DUP3 DUP6 ADD PUSH2 0x2147 JUMP JUMPDEST SWAP2 POP POP SWAP3 SWAP2 POP POP JUMP JUMPDEST PUSH0 DUP2 SWAP1 POP SWAP3 SWAP2 POP POP JUMP JUMPDEST PUSH0 PUSH2 0x21CF DUP3 PUSH2 0x1F9E JUMP JUMPDEST PUSH2 0x21D9 DUP2 DUP6 PUSH2 0x21BB JUMP JUMPDEST SWAP4 POP PUSH2 0x21E9 DUP2 DUP6 PUSH1 0x20 DUP7 ADD PUSH2 0x1FB8 JUMP JUMPDEST DUP1 DUP5 ADD SWAP2 POP POP SWAP3 SWAP2 POP POP JUMP JUMPDEST PUSH0 PUSH2 0x2200 DUP3 DUP5 PUSH2 0x21C5 JUMP JUMPDEST SWAP2 POP DUP2 SWAP1 POP SWAP3 SWAP2 POP POP JUMP JUMPDEST PUSH32 0x54686520636C69656E74206973206E6F7420696E73757265642E000000000000 PUSH0 DUP3 ADD MSTORE POP JUMP JUMPDEST PUSH0 PUSH2 0x223F PUSH1 0x1A DUP4 PUSH2 0x1FA8 JUMP JUMPDEST SWAP2 POP PUSH2 0x224A DUP3 PUSH2 0x220B JUMP JUMPDEST PUSH1 0x20 DUP3 ADD SWAP1 POP SWAP2 SWAP1 POP JUMP JUMPDEST PUSH0 PUSH1 0x20 DUP3 ADD SWAP1 POP DUP2 DUP2 SUB PUSH0 DUP4 ADD MSTORE PUSH2 0x226C DUP2 PUSH2 0x2233 JUMP JUMPDEST SWAP1 POP SWAP2 SWAP1 POP JUMP JUMPDEST PUSH32 0x596F752063616E6E6F742066696C65206120636C61696D20666F722074686520 PUSH0 DUP3 ADD MSTORE PUSH32 0x6465736972656420796561722E00000000000000000000000000000000000000 PUSH1 0x20 DUP3 ADD MSTORE POP JUMP JUMPDEST PUSH0 PUSH2 0x22CD PUSH1 0x2D DUP4 PUSH2 0x1FA8 JUMP JUMPDEST SWAP2 POP PUSH2 0x22D8 DUP3 PUSH2 0x2273 JUMP JUMPDEST PUSH1 0x40 DUP3 ADD SWAP1 POP SWAP2 SWAP1 POP JUMP JUMPDEST PUSH0 PUSH1 0x20 DUP3 ADD SWAP1 POP DUP2 DUP2 SUB PUSH0 DUP4 ADD MSTORE PUSH2 0x22FA DUP2 PUSH2 0x22C1 JUMP JUMPDEST SWAP1 POP SWAP2 SWAP1 POP JUMP JUMPDEST PUSH32 0x5468657265206973206E6F207265636F726420666F7220746865207265717569 PUSH0 DUP3 ADD MSTORE PUSH32 0x72656420796561722E0000000000000000000000000000000000000000000000 PUSH1 0x20 DUP3 ADD MSTORE POP JUMP JUMPDEST PUSH0 PUSH2 0x235B PUSH1 0x29 DUP4 PUSH2 0x1FA8 JUMP JUMPDEST SWAP2 POP PUSH2 0x2366 DUP3 PUSH2 0x2301 JUMP JUMPDEST PUSH1 0x40 DUP3 ADD SWAP1 POP SWAP2 SWAP1 POP JUMP JUMPDEST PUSH0 PUSH1 0x20 DUP3 ADD SWAP1 POP DUP2 DUP2 SUB PUSH0 DUP4 ADD MSTORE PUSH2 0x2388 DUP2 PUSH2 0x234F JUMP JUMPDEST SWAP1 POP SWAP2 SWAP1 POP JUMP JUMPDEST PUSH32 0x4E487B7100000000000000000000000000000000000000000000000000000000 PUSH0 MSTORE PUSH1 0x11 PUSH1 0x4 MSTORE PUSH1 0x24 PUSH0 REVERT JUMPDEST PUSH0 PUSH2 0x23C6 DUP3 PUSH2 0x1BC8 JUMP JUMPDEST SWAP2 POP PUSH2 0x23D1 DUP4 PUSH2 0x1BC8 JUMP JUMPDEST SWAP3 POP DUP3 DUP3 ADD SWAP1 POP DUP1 DUP3 GT ISZERO PUSH2 0x23E9 JUMPI PUSH2 0x23E8 PUSH2 0x238F JUMP JUMPDEST JUMPDEST SWAP3 SWAP2 POP POP JUMP JUMPDEST PUSH0 PUSH2 0x23F9 DUP3 PUSH2 0x1BC8 JUMP JUMPDEST SWAP2 POP PUSH2 0x2404 DUP4 PUSH2 0x1BC8 JUMP JUMPDEST SWAP3 POP DUP3 DUP3 MUL PUSH2 0x2412 DUP2 PUSH2 0x1BC8 JUMP JUMPDEST SWAP2 POP DUP3 DUP3 DIV DUP5 EQ DUP4 ISZERO OR PUSH2 0x2429 JUMPI PUSH2 0x2428 PUSH2 0x238F JUMP JUMPDEST JUMPDEST POP SWAP3 SWAP2 POP POP JUMP JUMPDEST PUSH32 0x54686520636C69656E7420697320616C726561647920696E73757265642E0000 PUSH0 DUP3 ADD MSTORE POP JUMP JUMPDEST PUSH0 PUSH2 0x2464 PUSH1 0x1E DUP4 PUSH2 0x1FA8 JUMP JUMPDEST SWAP2 POP PUSH2 0x246F DUP3 PUSH2 0x2430 JUMP JUMPDEST PUSH1 0x20 DUP3 ADD SWAP1 POP SWAP2 SWAP1 POP JUMP JUMPDEST PUSH0 PUSH1 0x20 DUP3 ADD SWAP1 POP DUP2 DUP2 SUB PUSH0 DUP4 ADD MSTORE PUSH2 0x2491 DUP2 PUSH2 0x2458 JUMP JUMPDEST SWAP1 POP SWAP2 SWAP1 POP JUMP JUMPDEST PUSH32 0x546865207072656D69756D206D75737420626520636F766572656420746F2072 PUSH0 DUP3 ADD MSTORE PUSH32 0x65676973746572206F722072656E6577206120706F6C6963792E000000000000 PUSH1 0x20 DUP3 ADD MSTORE POP JUMP JUMPDEST PUSH0 PUSH2 0x24F2 PUSH1 0x3A DUP4 PUSH2 0x1FA8 JUMP JUMPDEST SWAP2 POP PUSH2 0x24FD DUP3 PUSH2 0x2498 JUMP JUMPDEST PUSH1 0x40 DUP3 ADD SWAP1 POP SWAP2 SWAP1 POP JUMP JUMPDEST PUSH0 PUSH1 0x20 DUP3 ADD SWAP1 POP DUP2 DUP2 SUB PUSH0 DUP4 ADD MSTORE PUSH2 0x251F DUP2 PUSH2 0x24E6 JUMP JUMPDEST SWAP1 POP SWAP2 SWAP1 POP JUMP JUMPDEST PUSH32 0x4E487B7100000000000000000000000000000000000000000000000000000000 PUSH0 MSTORE PUSH1 0x12 PUSH1 0x4 MSTORE PUSH1 0x24 PUSH0 REVERT JUMPDEST PUSH0 PUSH2 0x255D DUP3 PUSH2 0x1BC8 JUMP JUMPDEST SWAP2 POP PUSH2 0x2568 DUP4 PUSH2 0x1BC8 JUMP JUMPDEST SWAP3 POP DUP3 PUSH2 0x2578 JUMPI PUSH2 0x2577 PUSH2 0x2526 JUMP JUMPDEST JUMPDEST DUP3 DUP3 DIV SWAP1 POP SWAP3 SWAP2 POP POP JUMP JUMPDEST PUSH32 0x43616E6E6F74206C6F61642074686520636F6E74726163742077697468203000 PUSH0 DUP3 ADD MSTORE POP JUMP JUMPDEST PUSH0 PUSH2 0x25B7 PUSH1 0x1F DUP4 PUSH2 0x1FA8 JUMP JUMPDEST SWAP2 POP PUSH2 0x25C2 DUP3 PUSH2 0x2583 JUMP JUMPDEST PUSH1 0x20 DUP3 ADD SWAP1 POP SWAP2 SWAP1 POP JUMP JUMPDEST PUSH0 PUSH1 0x20 DUP3 ADD SWAP1 POP DUP2 DUP2 SUB PUSH0 DUP4 ADD MSTORE PUSH2 0x25E4 DUP2 PUSH2 0x25AB JUMP JUMPDEST SWAP1 POP SWAP2 SWAP1 POP JUMP JUMPDEST PUSH0 PUSH2 0x25F5 DUP3 PUSH2 0x1BC8 JUMP JUMPDEST SWAP2 POP PUSH2 0x2600 DUP4 PUSH2 0x1BC8 JUMP JUMPDEST SWAP3 POP DUP3 DUP3 SUB SWAP1 POP DUP2 DUP2 GT ISZERO PUSH2 0x2618 JUMPI PUSH2 0x2617 PUSH2 0x238F JUMP JUMPDEST JUMPDEST SWAP3 SWAP2 POP POP JUMP JUMPDEST PUSH32 0x436C61696D732063616E206F6E6C792062652066696C65642065766572792079 PUSH0 DUP3 ADD MSTORE PUSH32 0x6561722E00000000000000000000000000000000000000000000000000000000 PUSH1 0x20 DUP3 ADD MSTORE POP JUMP JUMPDEST PUSH0 PUSH2 0x2678 PUSH1 0x24 DUP4 PUSH2 0x1FA8 JUMP JUMPDEST SWAP2 POP PUSH2 0x2683 DUP3 PUSH2 0x261E JUMP JUMPDEST PUSH1 0x40 DUP3 ADD SWAP1 POP SWAP2 SWAP1 POP JUMP JUMPDEST PUSH0 PUSH1 0x20 DUP3 ADD SWAP1 POP DUP2 DUP2 SUB PUSH0 DUP4 ADD MSTORE PUSH2 0x26A5 DUP2 PUSH2 0x266C JUMP JUMPDEST SWAP1 POP SWAP2 SWAP1 POP JUMP JUMPDEST PUSH0 PUSH2 0x26B7 DUP3 DUP6 PUSH2 0x21C5 JUMP JUMPDEST SWAP2 POP PUSH2 0x26C3 DUP3 DUP5 PUSH2 0x21C5 JUMP JUMPDEST SWAP2 POP DUP2 SWAP1 POP SWAP4 SWAP3 POP POP POP JUMP INVALID LOG2 PUSH5 0x6970667358 0x22 SLT KECCAK256 0xF8 MLOAD XOR CALLDATACOPY PUSH26 0x84DFB3BB7915AE552A8B5221F4ECC91ADD3446470F9E69DB12B6 SWAP16 PUSH5 0x736F6C6343 STOP ADDMOD AND STOP CALLER "
				},
				"gasEstimates": {
					"creation": {
						"codeDepositCost": "1997800",
						"executionCost": "225997",
						"totalCost": "2223797"
					},
					"external": {
						"_allowedClaims(address)": "2825",
						"_sunshineRecords(string)": "infinite",
						"calculatePremium(uint8,uint256)": "infinite",
						"createSunshineRecord(uint256,uint256)": "infinite",
						"fileClaim(uint256)": "infinite",
						"fileClaimWithoutTimeoutCheck(uint256)": "infinite",
						"fundContract()": "491",
						"getClaimAmount(uint256)": "infinite",
						"getRecordsKey(uint256)": "infinite",
						"getSolarInsurance()": "infinite",
						"owner()": "2604",
						"registerPolicy(uint8,uint256,uint8)": "infinite",
						"renewPolicy()": "infinite"
					}
				},
				"methodIdentifiers": {
					"_allowedClaims(address)": "1d9aec76",
					"_sunshineRecords(string)": "e7ebe5e0",
					"calculatePremium(uint8,uint256)": "51821891",
					"createSunshineRecord(uint256,uint256)": "08a9337e",
					"fileClaim(uint256)": "d61909f9",
					"fileClaimWithoutTimeoutCheck(uint256)": "41b5e38d",
					"fundContract()": "bd097e21",
					"getClaimAmount(uint256)": "cef63600",
					"getRecordsKey(uint256)": "b1e70eeb",
					"getSolarInsurance()": "9b36474a",
					"owner()": "8da5cb5b",
					"registerPolicy(uint8,uint256,uint8)": "a8e023eb",
					"renewPolicy()": "bfd1a3a7"
				}
			},
			"storageLayout": {
				"storage": [
					{
						"astId": 1740,
						"contract": "contracts/SolarInsurance.sol:SolarInsurance",
						"label": "_owner",
						"offset": 0,
						"slot": "0",
						"type": "t_address"
					},
					{
						"astId": 1743,
						"contract": "contracts/SolarInsurance.sol:SolarInsurance",
						"label": "_ENERGY_PRICE",
						"offset": 0,
						"slot": "1",
						"type": "t_uint256"
					},
					{
						"astId": 1746,
						"contract": "contracts/SolarInsurance.sol:SolarInsurance",
						"label": "_RADIATION_VALUE",
						"offset": 0,
						"slot": "2",
						"type": "t_uint256"
					},
					{
						"astId": 1749,
						"contract": "contracts/SolarInsurance.sol:SolarInsurance",
						"label": "_EFFICIENCY",
						"offset": 0,
						"slot": "3",
						"type": "t_uint256"
					},
					{
						"astId": 1783,
						"contract": "contracts/SolarInsurance.sol:SolarInsurance",
						"label": "_insuranceLevels",
						"offset": 0,
						"slot": "4",
						"type": "t_mapping(t_enum(ClientRiskLevels)1777,t_struct(InsuranceLevel)1773_storage)"
					},
					{
						"astId": 1790,
						"contract": "contracts/SolarInsurance.sol:SolarInsurance",
						"label": "_sunshineRecords",
						"offset": 0,
						"slot": "5",
						"type": "t_mapping(t_string_memory_ptr,t_uint256)"
					},
					{
						"astId": 1800,
						"contract": "contracts/SolarInsurance.sol:SolarInsurance",
						"label": "_policies",
						"offset": 0,
						"slot": "6",
						"type": "t_mapping(t_address,t_struct(SolarInsurancePolicy)1768_storage)"
					},
					{
						"astId": 1804,
						"contract": "contracts/SolarInsurance.sol:SolarInsurance",
						"label": "_allowedClaims",
						"offset": 0,
						"slot": "7",
						"type": "t_mapping(t_address,t_uint256)"
					},
					{
						"astId": 1810,
						"contract": "contracts/SolarInsurance.sol:SolarInsurance",
						"label": "_claims",
						"offset": 0,
						"slot": "8",
						"type": "t_mapping(t_address,t_array(t_struct(Claim)1795_storage)dyn_storage)"
					},
					{
						"astId": 1815,
						"contract": "contracts/SolarInsurance.sol:SolarInsurance",
						"label": "_payments",
						"offset": 0,
						"slot": "9",
						"type": "t_mapping(t_address,t_array(t_uint256)dyn_storage)"
					}
				],
				"types": {
					"t_address": {
						"encoding": "inplace",
						"label": "address",
						"numberOfBytes": "20"
					},
					"t_array(t_struct(Claim)1795_storage)dyn_storage": {
						"base": "t_struct(Claim)1795_storage",
						"encoding": "dynamic_array",
						"label": "struct SolarInsurance.Claim[]",
						"numberOfBytes": "32"
					},
					"t_array(t_uint256)dyn_storage": {
						"base": "t_uint256",
						"encoding": "dynamic_array",
						"label": "uint256[]",
						"numberOfBytes": "32"
					},
					"t_enum(ClientRiskLevels)1777": {
						"encoding": "inplace",
						"label": "enum SolarInsurance.ClientRiskLevels",
						"numberOfBytes": "1"
					},
					"t_enum(SwissRegion)1786": {
						"encoding": "inplace",
						"label": "enum SolarInsurance.SwissRegion",
						"numberOfBytes": "1"
					},
					"t_mapping(t_address,t_array(t_struct(Claim)1795_storage)dyn_storage)": {
						"encoding": "mapping",
						"key": "t_address",
						"label": "mapping(address => struct SolarInsurance.Claim[])",
						"numberOfBytes": "32",
						"value": "t_array(t_struct(Claim)1795_storage)dyn_storage"
					},
					"t_mapping(t_address,t_array(t_uint256)dyn_storage)": {
						"encoding": "mapping",
						"key": "t_address",
						"label": "mapping(address => uint256[])",
						"numberOfBytes": "32",
						"value": "t_array(t_uint256)dyn_storage"
					},
					"t_mapping(t_address,t_struct(SolarInsurancePolicy)1768_storage)": {
						"encoding": "mapping",
						"key": "t_address",
						"label": "mapping(address => struct SolarInsurance.SolarInsurancePolicy)",
						"numberOfBytes": "32",
						"value": "t_struct(SolarInsurancePolicy)1768_storage"
					},
					"t_mapping(t_address,t_uint256)": {
						"encoding": "mapping",
						"key": "t_address",
						"label": "mapping(address => uint256)",
						"numberOfBytes": "32",
						"value": "t_uint256"
					},
					"t_mapping(t_enum(ClientRiskLevels)1777,t_struct(InsuranceLevel)1773_storage)": {
						"encoding": "mapping",
						"key": "t_enum(ClientRiskLevels)1777",
						"label": "mapping(enum SolarInsurance.ClientRiskLevels => struct SolarInsurance.InsuranceLevel)",
						"numberOfBytes": "32",
						"value": "t_struct(InsuranceLevel)1773_storage"
					},
					"t_mapping(t_string_memory_ptr,t_uint256)": {
						"encoding": "mapping",
						"key": "t_string_memory_ptr",
						"label": "mapping(string => uint256)",
						"numberOfBytes": "32",
						"value": "t_uint256"
					},
					"t_string_memory_ptr": {
						"encoding": "bytes",
						"label": "string",
						"numberOfBytes": "32"
					},
					"t_struct(Claim)1795_storage": {
						"encoding": "inplace",
						"label": "struct SolarInsurance.Claim",
						"members": [
							{
								"astId": 1792,
								"contract": "contracts/SolarInsurance.sol:SolarInsurance",
								"label": "year",
								"offset": 0,
								"slot": "0",
								"type": "t_uint256"
							},
							{
								"astId": 1794,
								"contract": "contracts/SolarInsurance.sol:SolarInsurance",
								"label": "amount",
								"offset": 0,
								"slot": "1",
								"type": "t_uint256"
							}
						],
						"numberOfBytes": "64"
					},
					"t_struct(InsuranceLevel)1773_storage": {
						"encoding": "inplace",
						"label": "struct SolarInsurance.InsuranceLevel",
						"members": [
							{
								"astId": 1770,
								"contract": "contracts/SolarInsurance.sol:SolarInsurance",
								"label": "premium",
								"offset": 0,
								"slot": "0",
								"type": "t_uint256"
							},
							{
								"astId": 1772,
								"contract": "contracts/SolarInsurance.sol:SolarInsurance",
								"label": "insuredHours",
								"offset": 0,
								"slot": "1",
								"type": "t_uint256"
							}
						],
						"numberOfBytes": "64"
					},
					"t_struct(SolarInsurancePolicy)1768_storage": {
						"encoding": "inplace",
						"label": "struct SolarInsurance.SolarInsurancePolicy",
						"members": [
							{
								"astId": 1751,
								"contract": "contracts/SolarInsurance.sol:SolarInsurance",
								"label": "client",
								"offset": 0,
								"slot": "0",
								"type": "t_address"
							},
							{
								"astId": 1754,
								"contract": "contracts/SolarInsurance.sol:SolarInsurance",
								"label": "panelLocation",
								"offset": 20,
								"slot": "0",
								"type": "t_enum(SwissRegion)1786"
							},
							{
								"astId": 1757,
								"contract": "contracts/SolarInsurance.sol:SolarInsurance",
								"label": "riskLevel",
								"offset": 21,
								"slot": "0",
								"type": "t_enum(ClientRiskLevels)1777"
							},
							{
								"astId": 1759,
								"contract": "contracts/SolarInsurance.sol:SolarInsurance",
								"label": "panelArea",
								"offset": 0,
								"slot": "1",
								"type": "t_uint256"
							},
							{
								"astId": 1761,
								"contract": "contracts/SolarInsurance.sol:SolarInsurance",
								"label": "premiumToPay",
								"offset": 0,
								"slot": "2",
								"type": "t_uint256"
							},
							{
								"astId": 1763,
								"contract": "contracts/SolarInsurance.sol:SolarInsurance",
								"label": "registrationDate",
								"offset": 0,
								"slot": "3",
								"type": "t_uint256"
							},
							{
								"astId": 1765,
								"contract": "contracts/SolarInsurance.sol:SolarInsurance",
								"label": "validUntil",
								"offset": 0,
								"slot": "4",
								"type": "t_uint256"
							},
							{
								"astId": 1767,
								"contract": "contracts/SolarInsurance.sol:SolarInsurance",
								"label": "claimTimeout",
								"offset": 0,
								"slot": "5",
								"type": "t_uint256"
							}
						],
						"numberOfBytes": "192"
					},
					"t_uint256": {
						"encoding": "inplace",
						"label": "uint256",
						"numberOfBytes": "32"
					}
				}
			},
			"userdoc": {
				"kind": "user",
				"methods": {},
				"version": 1
			}
		}
	}
}