{
	"contracts/sunsurance.sol": {
		"Sunsurance": {
			"abi": [
				{
					"inputs": [
						{
							"internalType": "address",
							"name": "_xCHF",
							"type": "address"
						}
					],
					"stateMutability": "nonpayable",
					"type": "constructor"
				},
				{
					"inputs": [
						{
							"internalType": "address",
							"name": "spender",
							"type": "address"
						},
						{
							"internalType": "uint256",
							"name": "allowance",
							"type": "uint256"
						},
						{
							"internalType": "uint256",
							"name": "needed",
							"type": "uint256"
						}
					],
					"name": "ERC20InsufficientAllowance",
					"type": "error"
				},
				{
					"inputs": [
						{
							"internalType": "address",
							"name": "sender",
							"type": "address"
						},
						{
							"internalType": "uint256",
							"name": "balance",
							"type": "uint256"
						},
						{
							"internalType": "uint256",
							"name": "needed",
							"type": "uint256"
						}
					],
					"name": "ERC20InsufficientBalance",
					"type": "error"
				},
				{
					"inputs": [
						{
							"internalType": "address",
							"name": "approver",
							"type": "address"
						}
					],
					"name": "ERC20InvalidApprover",
					"type": "error"
				},
				{
					"inputs": [
						{
							"internalType": "address",
							"name": "receiver",
							"type": "address"
						}
					],
					"name": "ERC20InvalidReceiver",
					"type": "error"
				},
				{
					"inputs": [
						{
							"internalType": "address",
							"name": "sender",
							"type": "address"
						}
					],
					"name": "ERC20InvalidSender",
					"type": "error"
				},
				{
					"inputs": [
						{
							"internalType": "address",
							"name": "spender",
							"type": "address"
						}
					],
					"name": "ERC20InvalidSpender",
					"type": "error"
				},
				{
					"anonymous": false,
					"inputs": [
						{
							"indexed": true,
							"internalType": "address",
							"name": "owner",
							"type": "address"
						},
						{
							"indexed": true,
							"internalType": "address",
							"name": "spender",
							"type": "address"
						},
						{
							"indexed": false,
							"internalType": "uint256",
							"name": "value",
							"type": "uint256"
						}
					],
					"name": "Approval",
					"type": "event"
				},
				{
					"anonymous": false,
					"inputs": [
						{
							"indexed": true,
							"internalType": "address",
							"name": "client",
							"type": "address"
						},
						{
							"indexed": false,
							"internalType": "uint256",
							"name": "timestamp",
							"type": "uint256"
						}
					],
					"name": "ContractSigning",
					"type": "event"
				},
				{
					"anonymous": false,
					"inputs": [
						{
							"indexed": true,
							"internalType": "address",
							"name": "from",
							"type": "address"
						},
						{
							"indexed": true,
							"internalType": "address",
							"name": "to",
							"type": "address"
						},
						{
							"indexed": false,
							"internalType": "uint256",
							"name": "value",
							"type": "uint256"
						}
					],
					"name": "Transfer",
					"type": "event"
				},
				{
					"inputs": [
						{
							"internalType": "address",
							"name": "owner",
							"type": "address"
						},
						{
							"internalType": "address",
							"name": "spender",
							"type": "address"
						}
					],
					"name": "allowance",
					"outputs": [
						{
							"internalType": "uint256",
							"name": "",
							"type": "uint256"
						}
					],
					"stateMutability": "view",
					"type": "function"
				},
				{
					"inputs": [
						{
							"internalType": "address",
							"name": "spender",
							"type": "address"
						},
						{
							"internalType": "uint256",
							"name": "value",
							"type": "uint256"
						}
					],
					"name": "approve",
					"outputs": [
						{
							"internalType": "bool",
							"name": "",
							"type": "bool"
						}
					],
					"stateMutability": "nonpayable",
					"type": "function"
				},
				{
					"inputs": [
						{
							"internalType": "address",
							"name": "account",
							"type": "address"
						}
					],
					"name": "balanceOf",
					"outputs": [
						{
							"internalType": "uint256",
							"name": "",
							"type": "uint256"
						}
					],
					"stateMutability": "view",
					"type": "function"
				},
				{
					"inputs": [
						{
							"internalType": "uint256",
							"name": "_suntAmount",
							"type": "uint256"
						}
					],
					"name": "claimSunsurance",
					"outputs": [],
					"stateMutability": "nonpayable",
					"type": "function"
				},
				{
					"inputs": [],
					"name": "decimals",
					"outputs": [
						{
							"internalType": "uint8",
							"name": "",
							"type": "uint8"
						}
					],
					"stateMutability": "view",
					"type": "function"
				},
				{
					"inputs": [],
					"name": "getSunsurance",
					"outputs": [
						{
							"components": [
								{
									"internalType": "address",
									"name": "_client",
									"type": "address"
								},
								{
									"internalType": "string",
									"name": "_panelLocation",
									"type": "string"
								},
								{
									"internalType": "uint256",
									"name": "_chfValueContributed",
									"type": "uint256"
								},
								{
									"internalType": "uint256",
									"name": "_suntValueReceived",
									"type": "uint256"
								},
								{
									"internalType": "uint256",
									"name": "_premiumToPay",
									"type": "uint256"
								},
								{
									"internalType": "uint256",
									"name": "_registrationDate",
									"type": "uint256"
								},
								{
									"internalType": "uint256",
									"name": "_previousPayment",
									"type": "uint256"
								},
								{
									"internalType": "uint256",
									"name": "_nextPayment",
									"type": "uint256"
								},
								{
									"internalType": "uint256",
									"name": "_duration",
									"type": "uint256"
								}
							],
							"internalType": "struct Sunsurance.SunsuranceContract",
							"name": "",
							"type": "tuple"
						}
					],
					"stateMutability": "view",
					"type": "function"
				},
				{
					"inputs": [],
					"name": "name",
					"outputs": [
						{
							"internalType": "string",
							"name": "",
							"type": "string"
						}
					],
					"stateMutability": "view",
					"type": "function"
				},
				{
					"inputs": [],
					"name": "owner",
					"outputs": [
						{
							"internalType": "address",
							"name": "",
							"type": "address"
						}
					],
					"stateMutability": "view",
					"type": "function"
				},
				{
					"inputs": [
						{
							"internalType": "uint256",
							"name": "_xchfAmount",
							"type": "uint256"
						}
					],
					"name": "pay",
					"outputs": [],
					"stateMutability": "nonpayable",
					"type": "function"
				},
				{
					"inputs": [
						{
							"internalType": "uint256",
							"name": "_xchfAmount",
							"type": "uint256"
						},
						{
							"internalType": "string",
							"name": "_location",
							"type": "string"
						},
						{
							"internalType": "uint8",
							"name": "_durationYears",
							"type": "uint8"
						}
					],
					"name": "register",
					"outputs": [],
					"stateMutability": "nonpayable",
					"type": "function"
				},
				{
					"inputs": [],
					"name": "symbol",
					"outputs": [
						{
							"internalType": "string",
							"name": "",
							"type": "string"
						}
					],
					"stateMutability": "view",
					"type": "function"
				},
				{
					"inputs": [],
					"name": "totalSupply",
					"outputs": [
						{
							"internalType": "uint256",
							"name": "",
							"type": "uint256"
						}
					],
					"stateMutability": "view",
					"type": "function"
				},
				{
					"inputs": [
						{
							"internalType": "address",
							"name": "to",
							"type": "address"
						},
						{
							"internalType": "uint256",
							"name": "value",
							"type": "uint256"
						}
					],
					"name": "transfer",
					"outputs": [
						{
							"internalType": "bool",
							"name": "",
							"type": "bool"
						}
					],
					"stateMutability": "nonpayable",
					"type": "function"
				},
				{
					"inputs": [
						{
							"internalType": "address",
							"name": "from",
							"type": "address"
						},
						{
							"internalType": "address",
							"name": "to",
							"type": "address"
						},
						{
							"internalType": "uint256",
							"name": "value",
							"type": "uint256"
						}
					],
					"name": "transferFrom",
					"outputs": [
						{
							"internalType": "bool",
							"name": "",
							"type": "bool"
						}
					],
					"stateMutability": "nonpayable",
					"type": "function"
				},
				{
					"inputs": [],
					"name": "xCHF",
					"outputs": [
						{
							"internalType": "contract IERC20",
							"name": "",
							"type": "address"
						}
					],
					"stateMutability": "view",
					"type": "function"
				}
			],
			"devdoc": {
				"errors": {
					"ERC20InsufficientAllowance(address,uint256,uint256)": [
						{
							"details": "Indicates a failure with the `spender`’s `allowance`. Used in transfers.",
							"params": {
								"allowance": "Amount of tokens a `spender` is allowed to operate with.",
								"needed": "Minimum amount required to perform a transfer.",
								"spender": "Address that may be allowed to operate on tokens without being their owner."
							}
						}
					],
					"ERC20InsufficientBalance(address,uint256,uint256)": [
						{
							"details": "Indicates an error related to the current `balance` of a `sender`. Used in transfers.",
							"params": {
								"balance": "Current balance for the interacting account.",
								"needed": "Minimum amount required to perform a transfer.",
								"sender": "Address whose tokens are being transferred."
							}
						}
					],
					"ERC20InvalidApprover(address)": [
						{
							"details": "Indicates a failure with the `approver` of a token to be approved. Used in approvals.",
							"params": {
								"approver": "Address initiating an approval operation."
							}
						}
					],
					"ERC20InvalidReceiver(address)": [
						{
							"details": "Indicates a failure with the token `receiver`. Used in transfers.",
							"params": {
								"receiver": "Address to which tokens are being transferred."
							}
						}
					],
					"ERC20InvalidSender(address)": [
						{
							"details": "Indicates a failure with the token `sender`. Used in transfers.",
							"params": {
								"sender": "Address whose tokens are being transferred."
							}
						}
					],
					"ERC20InvalidSpender(address)": [
						{
							"details": "Indicates a failure with the `spender` to be approved. Used in approvals.",
							"params": {
								"spender": "Address that may be allowed to operate on tokens without being their owner."
							}
						}
					]
				},
				"events": {
					"Approval(address,address,uint256)": {
						"details": "Emitted when the allowance of a `spender` for an `owner` is set by a call to {approve}. `value` is the new allowance."
					},
					"Transfer(address,address,uint256)": {
						"details": "Emitted when `value` tokens are moved from one account (`from`) to another (`to`). Note that `value` may be zero."
					}
				},
				"kind": "dev",
				"methods": {
					"allowance(address,address)": {
						"details": "See {IERC20-allowance}."
					},
					"approve(address,uint256)": {
						"details": "See {IERC20-approve}. NOTE: If `value` is the maximum `uint256`, the allowance is not updated on `transferFrom`. This is semantically equivalent to an infinite approval. Requirements: - `spender` cannot be the zero address."
					},
					"balanceOf(address)": {
						"details": "See {IERC20-balanceOf}."
					},
					"claimSunsurance(uint256)": {
						"details": "Claim Sunsurance insurance"
					},
					"decimals()": {
						"details": "Returns the number of decimals used to get its user representation. For example, if `decimals` equals `2`, a balance of `505` tokens should be displayed to a user as `5.05` (`505 / 10 ** 2`). Tokens usually opt for a value of 18, imitating the relationship between Ether and Wei. This is the default value returned by this function, unless it's overridden. NOTE: This information is only used for _display_ purposes: it in no way affects any of the arithmetic of the contract, including {IERC20-balanceOf} and {IERC20-transfer}."
					},
					"getSunsurance()": {
						"details": "Get details of own contract"
					},
					"name()": {
						"details": "Returns the name of the token."
					},
					"pay(uint256)": {
						"details": "Make payment for the Sunsurance insurance"
					},
					"register(uint256,string,uint8)": {
						"details": "Register for Sunsurance with a certain amount of xCHF"
					},
					"symbol()": {
						"details": "Returns the symbol of the token, usually a shorter version of the name."
					},
					"totalSupply()": {
						"details": "See {IERC20-totalSupply}."
					},
					"transfer(address,uint256)": {
						"details": "See {IERC20-transfer}. Requirements: - `to` cannot be the zero address. - the caller must have a balance of at least `value`."
					},
					"transferFrom(address,address,uint256)": {
						"details": "See {IERC20-transferFrom}. Emits an {Approval} event indicating the updated allowance. This is not required by the EIP. See the note at the beginning of {ERC20}. NOTE: Does not update the allowance if the current allowance is the maximum `uint256`. Requirements: - `from` and `to` cannot be the zero address. - `from` must have a balance of at least `value`. - the caller must have allowance for ``from``'s tokens of at least `value`."
					}
				},
				"version": 1
			},
			"evm": {
				"assembly": "    /* \"contracts/sunsurance.sol\":235:6212  contract Sunsurance is ERC20{... */\n  mstore(0x40, 0xa0)\n    /* \"contracts/sunsurance.sol\":1324:1822  constructor(address _xCHF) ERC20(\"SunsuranceToken\", \"SUNT\") {... */\n  callvalue\n  dup1\n  iszero\n  tag_1\n  jumpi\n  0x00\n  dup1\n  revert\ntag_1:\n  pop\n  mload(0x40)\n  sub(codesize, bytecodeSize)\n  dup1\n  bytecodeSize\n  dup4\n  codecopy\n  dup2\n  dup2\n  add\n  0x40\n  mstore\n  dup2\n  add\n  swap1\n  tag_2\n  swap2\n  swap1\n  tag_3\n  jump\t// in\ntag_2:\n    /* \"@openzeppelin/contracts/token/ERC20/ERC20.sol\":1896:2009  constructor(string memory name_, string memory symbol_) {... */\n  mload(0x40)\n  dup1\n  0x40\n  add\n  0x40\n  mstore\n  dup1\n  0x0f\n  dup2\n  mstore\n  0x20\n  add\n  0x53756e737572616e6365546f6b656e0000000000000000000000000000000000\n  dup2\n  mstore\n  pop\n  mload(0x40)\n  dup1\n  0x40\n  add\n  0x40\n  mstore\n  dup1\n  0x04\n  dup2\n  mstore\n  0x20\n  add\n  0x53554e5400000000000000000000000000000000000000000000000000000000\n  dup2\n  mstore\n  pop\n    /* \"@openzeppelin/contracts/token/ERC20/ERC20.sol\":1970:1975  name_ */\n  dup2\n    /* \"@openzeppelin/contracts/token/ERC20/ERC20.sol\":1962:1967  _name */\n  0x03\n    /* \"@openzeppelin/contracts/token/ERC20/ERC20.sol\":1962:1975  _name = name_ */\n  swap1\n  dup2\n  tag_7\n  swap2\n  swap1\n  tag_8\n  jump\t// in\ntag_7:\n  pop\n    /* \"@openzeppelin/contracts/token/ERC20/ERC20.sol\":1995:2002  symbol_ */\n  dup1\n    /* \"@openzeppelin/contracts/token/ERC20/ERC20.sol\":1985:1992  _symbol */\n  0x04\n    /* \"@openzeppelin/contracts/token/ERC20/ERC20.sol\":1985:2002  _symbol = symbol_ */\n  swap1\n  dup2\n  tag_9\n  swap2\n  swap1\n  tag_8\n  jump\t// in\ntag_9:\n  pop\n    /* \"@openzeppelin/contracts/token/ERC20/ERC20.sol\":1896:2009  constructor(string memory name_, string memory symbol_) {... */\n  pop\n  pop\n    /* \"contracts/sunsurance.sol\":1404:1414  msg.sender */\n  caller\n    /* \"contracts/sunsurance.sol\":1395:1401  _owner */\n  0x05\n  0x00\n    /* \"contracts/sunsurance.sol\":1395:1414  _owner = msg.sender */\n  0x0100\n  exp\n  dup2\n  sload\n  dup2\n  0xffffffffffffffffffffffffffffffffffffffff\n  mul\n  not\n  and\n  swap1\n  dup4\n  0xffffffffffffffffffffffffffffffffffffffff\n  and\n  mul\n  or\n  swap1\n  sstore\n  pop\n    /* \"contracts/sunsurance.sol\":1439:1444  _xCHF */\n  dup1\n    /* \"contracts/sunsurance.sol\":1425:1445  xCHF = IERC20(_xCHF) */\n  0xffffffffffffffffffffffffffffffffffffffff\n  and\n  0x80\n  dup2\n  0xffffffffffffffffffffffffffffffffffffffff\n  and\n  dup2\n  mstore\n  pop\n  pop\n    /* \"contracts/sunsurance.sol\":1480:1568  InsuranceLevel(... */\n  mload(0x40)\n  dup1\n  0x60\n  add\n  0x40\n  mstore\n  dup1\n    /* \"contracts/sunsurance.sol\":1509:1510  1 */\n  0x01\n    /* \"contracts/sunsurance.sol\":1480:1568  InsuranceLevel(... */\n  0xff\n  and\n  dup2\n  mstore\n  0x20\n  add\n    /* \"contracts/sunsurance.sol\":1525:1538  0.00005 ether */\n  0x2d79883d2000\n    /* \"contracts/sunsurance.sol\":1480:1568  InsuranceLevel(... */\n  dup2\n  mstore\n  0x20\n  add\n    /* \"contracts/sunsurance.sol\":1553:1557  1639 */\n  0x0667\n    /* \"contracts/sunsurance.sol\":1480:1568  InsuranceLevel(... */\n  dup2\n  mstore\n  pop\n    /* \"contracts/sunsurance.sol\":1458:1474  _insuranceLevels */\n  0x06\n    /* \"contracts/sunsurance.sol\":1458:1477  _insuranceLevels[1] */\n  0x00\n    /* \"contracts/sunsurance.sol\":1475:1476  1 */\n  0x01\n    /* \"contracts/sunsurance.sol\":1458:1477  _insuranceLevels[1] */\n  0xff\n  and\n  dup2\n  mstore\n  0x20\n  add\n  swap1\n  dup2\n  mstore\n  0x20\n  add\n  0x00\n  keccak256\n    /* \"contracts/sunsurance.sol\":1458:1568  _insuranceLevels[1] = InsuranceLevel(... */\n  0x00\n  dup3\n  add\n  mload\n  dup2\n  0x00\n  add\n  exp(0x0100, 0x00)\n  dup2\n  sload\n  dup2\n  0xff\n  mul\n  not\n  and\n  swap1\n  dup4\n  0xff\n  and\n  mul\n  or\n  swap1\n  sstore\n  pop\n  0x20\n  dup3\n  add\n  mload\n  dup2\n  0x01\n  add\n  sstore\n  0x40\n  dup3\n  add\n  mload\n  dup2\n  0x02\n  add\n  sstore\n  swap1\n  pop\n  pop\n    /* \"contracts/sunsurance.sol\":1603:1691  InsuranceLevel(... */\n  mload(0x40)\n  dup1\n  0x60\n  add\n  0x40\n  mstore\n  dup1\n    /* \"contracts/sunsurance.sol\":1632:1633  2 */\n  0x02\n    /* \"contracts/sunsurance.sol\":1603:1691  InsuranceLevel(... */\n  0xff\n  and\n  dup2\n  mstore\n  0x20\n  add\n    /* \"contracts/sunsurance.sol\":1648:1661  0.00012 ether */\n  0x6d23ad5f8000\n    /* \"contracts/sunsurance.sol\":1603:1691  InsuranceLevel(... */\n  dup2\n  mstore\n  0x20\n  add\n    /* \"contracts/sunsurance.sol\":1676:1680  1721 */\n  0x06b9\n    /* \"contracts/sunsurance.sol\":1603:1691  InsuranceLevel(... */\n  dup2\n  mstore\n  pop\n    /* \"contracts/sunsurance.sol\":1581:1597  _insuranceLevels */\n  0x06\n    /* \"contracts/sunsurance.sol\":1581:1600  _insuranceLevels[2] */\n  0x00\n    /* \"contracts/sunsurance.sol\":1598:1599  2 */\n  0x02\n    /* \"contracts/sunsurance.sol\":1581:1600  _insuranceLevels[2] */\n  0xff\n  and\n  dup2\n  mstore\n  0x20\n  add\n  swap1\n  dup2\n  mstore\n  0x20\n  add\n  0x00\n  keccak256\n    /* \"contracts/sunsurance.sol\":1581:1691  _insuranceLevels[2] = InsuranceLevel(... */\n  0x00\n  dup3\n  add\n  mload\n  dup2\n  0x00\n  add\n  exp(0x0100, 0x00)\n  dup2\n  sload\n  dup2\n  0xff\n  mul\n  not\n  and\n  swap1\n  dup4\n  0xff\n  and\n  mul\n  or\n  swap1\n  sstore\n  pop\n  0x20\n  dup3\n  add\n  mload\n  dup2\n  0x01\n  add\n  sstore\n  0x40\n  dup3\n  add\n  mload\n  dup2\n  0x02\n  add\n  sstore\n  swap1\n  pop\n  pop\n    /* \"contracts/sunsurance.sol\":1726:1814  InsuranceLevel(... */\n  mload(0x40)\n  dup1\n  0x60\n  add\n  0x40\n  mstore\n  dup1\n    /* \"contracts/sunsurance.sol\":1755:1756  3 */\n  0x03\n    /* \"contracts/sunsurance.sol\":1726:1814  InsuranceLevel(... */\n  0xff\n  and\n  dup2\n  mstore\n  0x20\n  add\n    /* \"contracts/sunsurance.sol\":1771:1784  0.00035 ether */\n  0x013e52b9abe000\n    /* \"contracts/sunsurance.sol\":1726:1814  InsuranceLevel(... */\n  dup2\n  mstore\n  0x20\n  add\n    /* \"contracts/sunsurance.sol\":1799:1803  1803 */\n  0x070b\n    /* \"contracts/sunsurance.sol\":1726:1814  InsuranceLevel(... */\n  dup2\n  mstore\n  pop\n    /* \"contracts/sunsurance.sol\":1704:1720  _insuranceLevels */\n  0x06\n    /* \"contracts/sunsurance.sol\":1704:1723  _insuranceLevels[3] */\n  0x00\n    /* \"contracts/sunsurance.sol\":1721:1722  3 */\n  0x03\n    /* \"contracts/sunsurance.sol\":1704:1723  _insuranceLevels[3] */\n  0xff\n  and\n  dup2\n  mstore\n  0x20\n  add\n  swap1\n  dup2\n  mstore\n  0x20\n  add\n  0x00\n  keccak256\n    /* \"contracts/sunsurance.sol\":1704:1814  _insuranceLevels[3] = InsuranceLevel(... */\n  0x00\n  dup3\n  add\n  mload\n  dup2\n  0x00\n  add\n  exp(0x0100, 0x00)\n  dup2\n  sload\n  dup2\n  0xff\n  mul\n  not\n  and\n  swap1\n  dup4\n  0xff\n  and\n  mul\n  or\n  swap1\n  sstore\n  pop\n  0x20\n  dup3\n  add\n  mload\n  dup2\n  0x01\n  add\n  sstore\n  0x40\n  dup3\n  add\n  mload\n  dup2\n  0x02\n  add\n  sstore\n  swap1\n  pop\n  pop\n    /* \"contracts/sunsurance.sol\":1324:1822  constructor(address _xCHF) ERC20(\"SunsuranceToken\", \"SUNT\") {... */\n  pop\n    /* \"contracts/sunsurance.sol\":235:6212  contract Sunsurance is ERC20{... */\n  jump(tag_11)\n    /* \"#utility.yul\":88:205   */\ntag_13:\n    /* \"#utility.yul\":197:198   */\n  0x00\n    /* \"#utility.yul\":194:195   */\n  dup1\n    /* \"#utility.yul\":187:199   */\n  revert\n    /* \"#utility.yul\":334:460   */\ntag_15:\n    /* \"#utility.yul\":371:378   */\n  0x00\n    /* \"#utility.yul\":411:453   */\n  0xffffffffffffffffffffffffffffffffffffffff\n    /* \"#utility.yul\":404:409   */\n  dup3\n    /* \"#utility.yul\":400:454   */\n  and\n    /* \"#utility.yul\":389:454   */\n  swap1\n  pop\n    /* \"#utility.yul\":334:460   */\n  swap2\n  swap1\n  pop\n  jump\t// out\n    /* \"#utility.yul\":466:562   */\ntag_16:\n    /* \"#utility.yul\":503:510   */\n  0x00\n    /* \"#utility.yul\":532:556   */\n  tag_45\n    /* \"#utility.yul\":550:555   */\n  dup3\n    /* \"#utility.yul\":532:556   */\n  tag_15\n  jump\t// in\ntag_45:\n    /* \"#utility.yul\":521:556   */\n  swap1\n  pop\n    /* \"#utility.yul\":466:562   */\n  swap2\n  swap1\n  pop\n  jump\t// out\n    /* \"#utility.yul\":568:690   */\ntag_17:\n    /* \"#utility.yul\":641:665   */\n  tag_47\n    /* \"#utility.yul\":659:664   */\n  dup2\n    /* \"#utility.yul\":641:665   */\n  tag_16\n  jump\t// in\ntag_47:\n    /* \"#utility.yul\":634:639   */\n  dup2\n    /* \"#utility.yul\":631:666   */\n  eq\n    /* \"#utility.yul\":621:684   */\n  tag_48\n  jumpi\n    /* \"#utility.yul\":680:681   */\n  0x00\n    /* \"#utility.yul\":677:678   */\n  dup1\n    /* \"#utility.yul\":670:682   */\n  revert\n    /* \"#utility.yul\":621:684   */\ntag_48:\n    /* \"#utility.yul\":568:690   */\n  pop\n  jump\t// out\n    /* \"#utility.yul\":696:839   */\ntag_18:\n    /* \"#utility.yul\":753:758   */\n  0x00\n    /* \"#utility.yul\":784:790   */\n  dup2\n    /* \"#utility.yul\":778:791   */\n  mload\n    /* \"#utility.yul\":769:791   */\n  swap1\n  pop\n    /* \"#utility.yul\":800:833   */\n  tag_50\n    /* \"#utility.yul\":827:832   */\n  dup2\n    /* \"#utility.yul\":800:833   */\n  tag_17\n  jump\t// in\ntag_50:\n    /* \"#utility.yul\":696:839   */\n  swap3\n  swap2\n  pop\n  pop\n  jump\t// out\n    /* \"#utility.yul\":845:1196   */\ntag_3:\n    /* \"#utility.yul\":915:921   */\n  0x00\n    /* \"#utility.yul\":964:966   */\n  0x20\n    /* \"#utility.yul\":952:961   */\n  dup3\n    /* \"#utility.yul\":943:950   */\n  dup5\n    /* \"#utility.yul\":939:962   */\n  sub\n    /* \"#utility.yul\":935:967   */\n  slt\n    /* \"#utility.yul\":932:1051   */\n  iszero\n  tag_52\n  jumpi\n    /* \"#utility.yul\":970:1049   */\n  tag_53\n  tag_13\n  jump\t// in\ntag_53:\n    /* \"#utility.yul\":932:1051   */\ntag_52:\n    /* \"#utility.yul\":1090:1091   */\n  0x00\n    /* \"#utility.yul\":1115:1179   */\n  tag_54\n    /* \"#utility.yul\":1171:1178   */\n  dup5\n    /* \"#utility.yul\":1162:1168   */\n  dup3\n    /* \"#utility.yul\":1151:1160   */\n  dup6\n    /* \"#utility.yul\":1147:1169   */\n  add\n    /* \"#utility.yul\":1115:1179   */\n  tag_18\n  jump\t// in\ntag_54:\n    /* \"#utility.yul\":1105:1179   */\n  swap2\n  pop\n    /* \"#utility.yul\":1061:1189   */\n  pop\n    /* \"#utility.yul\":845:1196   */\n  swap3\n  swap2\n  pop\n  pop\n  jump\t// out\n    /* \"#utility.yul\":1202:1301   */\ntag_19:\n    /* \"#utility.yul\":1254:1260   */\n  0x00\n    /* \"#utility.yul\":1288:1293   */\n  dup2\n    /* \"#utility.yul\":1282:1294   */\n  mload\n    /* \"#utility.yul\":1272:1294   */\n  swap1\n  pop\n    /* \"#utility.yul\":1202:1301   */\n  swap2\n  swap1\n  pop\n  jump\t// out\n    /* \"#utility.yul\":1307:1487   */\ntag_20:\n    /* \"#utility.yul\":1355:1432   */\n  0x4e487b7100000000000000000000000000000000000000000000000000000000\n    /* \"#utility.yul\":1352:1353   */\n  0x00\n    /* \"#utility.yul\":1345:1433   */\n  mstore\n    /* \"#utility.yul\":1452:1456   */\n  0x41\n    /* \"#utility.yul\":1449:1450   */\n  0x04\n    /* \"#utility.yul\":1442:1457   */\n  mstore\n    /* \"#utility.yul\":1476:1480   */\n  0x24\n    /* \"#utility.yul\":1473:1474   */\n  0x00\n    /* \"#utility.yul\":1466:1481   */\n  revert\n    /* \"#utility.yul\":1493:1673   */\ntag_21:\n    /* \"#utility.yul\":1541:1618   */\n  0x4e487b7100000000000000000000000000000000000000000000000000000000\n    /* \"#utility.yul\":1538:1539   */\n  0x00\n    /* \"#utility.yul\":1531:1619   */\n  mstore\n    /* \"#utility.yul\":1638:1642   */\n  0x22\n    /* \"#utility.yul\":1635:1636   */\n  0x04\n    /* \"#utility.yul\":1628:1643   */\n  mstore\n    /* \"#utility.yul\":1662:1666   */\n  0x24\n    /* \"#utility.yul\":1659:1660   */\n  0x00\n    /* \"#utility.yul\":1652:1667   */\n  revert\n    /* \"#utility.yul\":1679:1999   */\ntag_22:\n    /* \"#utility.yul\":1723:1729   */\n  0x00\n    /* \"#utility.yul\":1760:1761   */\n  0x02\n    /* \"#utility.yul\":1754:1758   */\n  dup3\n    /* \"#utility.yul\":1750:1762   */\n  div\n    /* \"#utility.yul\":1740:1762   */\n  swap1\n  pop\n    /* \"#utility.yul\":1807:1808   */\n  0x01\n    /* \"#utility.yul\":1801:1805   */\n  dup3\n    /* \"#utility.yul\":1797:1809   */\n  and\n    /* \"#utility.yul\":1828:1846   */\n  dup1\n    /* \"#utility.yul\":1818:1899   */\n  tag_59\n  jumpi\n    /* \"#utility.yul\":1884:1888   */\n  0x7f\n    /* \"#utility.yul\":1876:1882   */\n  dup3\n    /* \"#utility.yul\":1872:1889   */\n  and\n    /* \"#utility.yul\":1862:1889   */\n  swap2\n  pop\n    /* \"#utility.yul\":1818:1899   */\ntag_59:\n    /* \"#utility.yul\":1946:1948   */\n  0x20\n    /* \"#utility.yul\":1938:1944   */\n  dup3\n    /* \"#utility.yul\":1935:1949   */\n  lt\n    /* \"#utility.yul\":1915:1933   */\n  dup2\n    /* \"#utility.yul\":1912:1950   */\n  sub\n    /* \"#utility.yul\":1909:1993   */\n  tag_60\n  jumpi\n    /* \"#utility.yul\":1965:1983   */\n  tag_61\n  tag_21\n  jump\t// in\ntag_61:\n    /* \"#utility.yul\":1909:1993   */\ntag_60:\n    /* \"#utility.yul\":1730:1999   */\n  pop\n    /* \"#utility.yul\":1679:1999   */\n  swap2\n  swap1\n  pop\n  jump\t// out\n    /* \"#utility.yul\":2005:2146   */\ntag_23:\n    /* \"#utility.yul\":2054:2058   */\n  0x00\n    /* \"#utility.yul\":2077:2080   */\n  dup2\n    /* \"#utility.yul\":2069:2080   */\n  swap1\n  pop\n    /* \"#utility.yul\":2100:2103   */\n  dup2\n    /* \"#utility.yul\":2097:2098   */\n  0x00\n    /* \"#utility.yul\":2090:2104   */\n  mstore\n    /* \"#utility.yul\":2134:2138   */\n  0x20\n    /* \"#utility.yul\":2131:2132   */\n  0x00\n    /* \"#utility.yul\":2121:2139   */\n  keccak256\n    /* \"#utility.yul\":2113:2139   */\n  swap1\n  pop\n    /* \"#utility.yul\":2005:2146   */\n  swap2\n  swap1\n  pop\n  jump\t// out\n    /* \"#utility.yul\":2152:2245   */\ntag_24:\n    /* \"#utility.yul\":2189:2195   */\n  0x00\n    /* \"#utility.yul\":2236:2238   */\n  0x20\n    /* \"#utility.yul\":2231:2233   */\n  0x1f\n    /* \"#utility.yul\":2224:2229   */\n  dup4\n    /* \"#utility.yul\":2220:2234   */\n  add\n    /* \"#utility.yul\":2216:2239   */\n  div\n    /* \"#utility.yul\":2206:2239   */\n  swap1\n  pop\n    /* \"#utility.yul\":2152:2245   */\n  swap2\n  swap1\n  pop\n  jump\t// out\n    /* \"#utility.yul\":2251:2358   */\ntag_25:\n    /* \"#utility.yul\":2295:2303   */\n  0x00\n    /* \"#utility.yul\":2345:2350   */\n  dup3\n    /* \"#utility.yul\":2339:2343   */\n  dup3\n    /* \"#utility.yul\":2335:2351   */\n  shl\n    /* \"#utility.yul\":2314:2351   */\n  swap1\n  pop\n    /* \"#utility.yul\":2251:2358   */\n  swap3\n  swap2\n  pop\n  pop\n  jump\t// out\n    /* \"#utility.yul\":2364:2757   */\ntag_26:\n    /* \"#utility.yul\":2433:2439   */\n  0x00\n    /* \"#utility.yul\":2483:2484   */\n  0x08\n    /* \"#utility.yul\":2471:2481   */\n  dup4\n    /* \"#utility.yul\":2467:2485   */\n  mul\n    /* \"#utility.yul\":2506:2603   */\n  tag_66\n    /* \"#utility.yul\":2536:2602   */\n  0xffffffffffffffffffffffffffffffffffffffffffffffffffffffffffffffff\n    /* \"#utility.yul\":2525:2534   */\n  dup3\n    /* \"#utility.yul\":2506:2603   */\n  tag_25\n  jump\t// in\ntag_66:\n    /* \"#utility.yul\":2624:2663   */\n  tag_67\n    /* \"#utility.yul\":2654:2662   */\n  dup7\n    /* \"#utility.yul\":2643:2652   */\n  dup4\n    /* \"#utility.yul\":2624:2663   */\n  tag_25\n  jump\t// in\ntag_67:\n    /* \"#utility.yul\":2612:2663   */\n  swap6\n  pop\n    /* \"#utility.yul\":2696:2700   */\n  dup1\n    /* \"#utility.yul\":2692:2701   */\n  not\n    /* \"#utility.yul\":2685:2690   */\n  dup5\n    /* \"#utility.yul\":2681:2702   */\n  and\n    /* \"#utility.yul\":2672:2702   */\n  swap4\n  pop\n    /* \"#utility.yul\":2745:2749   */\n  dup1\n    /* \"#utility.yul\":2735:2743   */\n  dup7\n    /* \"#utility.yul\":2731:2750   */\n  and\n    /* \"#utility.yul\":2724:2729   */\n  dup5\n    /* \"#utility.yul\":2721:2751   */\n  or\n    /* \"#utility.yul\":2711:2751   */\n  swap3\n  pop\n    /* \"#utility.yul\":2440:2757   */\n  pop\n  pop\n    /* \"#utility.yul\":2364:2757   */\n  swap4\n  swap3\n  pop\n  pop\n  pop\n  jump\t// out\n    /* \"#utility.yul\":2763:2840   */\ntag_27:\n    /* \"#utility.yul\":2800:2807   */\n  0x00\n    /* \"#utility.yul\":2829:2834   */\n  dup2\n    /* \"#utility.yul\":2818:2834   */\n  swap1\n  pop\n    /* \"#utility.yul\":2763:2840   */\n  swap2\n  swap1\n  pop\n  jump\t// out\n    /* \"#utility.yul\":2846:2906   */\ntag_28:\n    /* \"#utility.yul\":2874:2877   */\n  0x00\n    /* \"#utility.yul\":2895:2900   */\n  dup2\n    /* \"#utility.yul\":2888:2900   */\n  swap1\n  pop\n    /* \"#utility.yul\":2846:2906   */\n  swap2\n  swap1\n  pop\n  jump\t// out\n    /* \"#utility.yul\":2912:3054   */\ntag_29:\n    /* \"#utility.yul\":2962:2971   */\n  0x00\n    /* \"#utility.yul\":2995:3048   */\n  tag_71\n    /* \"#utility.yul\":3013:3047   */\n  tag_72\n    /* \"#utility.yul\":3022:3046   */\n  tag_73\n    /* \"#utility.yul\":3040:3045   */\n  dup5\n    /* \"#utility.yul\":3022:3046   */\n  tag_27\n  jump\t// in\ntag_73:\n    /* \"#utility.yul\":3013:3047   */\n  tag_28\n  jump\t// in\ntag_72:\n    /* \"#utility.yul\":2995:3048   */\n  tag_27\n  jump\t// in\ntag_71:\n    /* \"#utility.yul\":2982:3048   */\n  swap1\n  pop\n    /* \"#utility.yul\":2912:3054   */\n  swap2\n  swap1\n  pop\n  jump\t// out\n    /* \"#utility.yul\":3060:3135   */\ntag_30:\n    /* \"#utility.yul\":3103:3106   */\n  0x00\n    /* \"#utility.yul\":3124:3129   */\n  dup2\n    /* \"#utility.yul\":3117:3129   */\n  swap1\n  pop\n    /* \"#utility.yul\":3060:3135   */\n  swap2\n  swap1\n  pop\n  jump\t// out\n    /* \"#utility.yul\":3141:3410   */\ntag_31:\n    /* \"#utility.yul\":3251:3290   */\n  tag_76\n    /* \"#utility.yul\":3282:3289   */\n  dup4\n    /* \"#utility.yul\":3251:3290   */\n  tag_29\n  jump\t// in\ntag_76:\n    /* \"#utility.yul\":3312:3403   */\n  tag_77\n    /* \"#utility.yul\":3361:3402   */\n  tag_78\n    /* \"#utility.yul\":3385:3401   */\n  dup3\n    /* \"#utility.yul\":3361:3402   */\n  tag_30\n  jump\t// in\ntag_78:\n    /* \"#utility.yul\":3353:3359   */\n  dup5\n    /* \"#utility.yul\":3346:3350   */\n  dup5\n    /* \"#utility.yul\":3340:3351   */\n  sload\n    /* \"#utility.yul\":3312:3403   */\n  tag_26\n  jump\t// in\ntag_77:\n    /* \"#utility.yul\":3306:3310   */\n  dup3\n    /* \"#utility.yul\":3299:3404   */\n  sstore\n    /* \"#utility.yul\":3217:3410   */\n  pop\n    /* \"#utility.yul\":3141:3410   */\n  pop\n  pop\n  pop\n  jump\t// out\n    /* \"#utility.yul\":3416:3489   */\ntag_32:\n    /* \"#utility.yul\":3461:3464   */\n  0x00\n    /* \"#utility.yul\":3416:3489   */\n  swap1\n  jump\t// out\n    /* \"#utility.yul\":3495:3684   */\ntag_33:\n    /* \"#utility.yul\":3572:3604   */\n  tag_81\n  tag_32\n  jump\t// in\ntag_81:\n    /* \"#utility.yul\":3613:3678   */\n  tag_82\n    /* \"#utility.yul\":3671:3677   */\n  dup2\n    /* \"#utility.yul\":3663:3669   */\n  dup5\n    /* \"#utility.yul\":3657:3661   */\n  dup5\n    /* \"#utility.yul\":3613:3678   */\n  tag_31\n  jump\t// in\ntag_82:\n    /* \"#utility.yul\":3548:3684   */\n  pop\n    /* \"#utility.yul\":3495:3684   */\n  pop\n  pop\n  jump\t// out\n    /* \"#utility.yul\":3690:3876   */\ntag_34:\n    /* \"#utility.yul\":3750:3870   */\ntag_84:\n    /* \"#utility.yul\":3767:3770   */\n  dup2\n    /* \"#utility.yul\":3760:3765   */\n  dup2\n    /* \"#utility.yul\":3757:3771   */\n  lt\n    /* \"#utility.yul\":3750:3870   */\n  iszero\n  tag_86\n  jumpi\n    /* \"#utility.yul\":3821:3860   */\n  tag_87\n    /* \"#utility.yul\":3858:3859   */\n  0x00\n    /* \"#utility.yul\":3851:3856   */\n  dup3\n    /* \"#utility.yul\":3821:3860   */\n  tag_33\n  jump\t// in\ntag_87:\n    /* \"#utility.yul\":3794:3795   */\n  0x01\n    /* \"#utility.yul\":3787:3792   */\n  dup2\n    /* \"#utility.yul\":3783:3796   */\n  add\n    /* \"#utility.yul\":3774:3796   */\n  swap1\n  pop\n    /* \"#utility.yul\":3750:3870   */\n  jump(tag_84)\ntag_86:\n    /* \"#utility.yul\":3690:3876   */\n  pop\n  pop\n  jump\t// out\n    /* \"#utility.yul\":3882:4425   */\ntag_35:\n    /* \"#utility.yul\":3983:3985   */\n  0x1f\n    /* \"#utility.yul\":3978:3981   */\n  dup3\n    /* \"#utility.yul\":3975:3986   */\n  gt\n    /* \"#utility.yul\":3972:4418   */\n  iszero\n  tag_89\n  jumpi\n    /* \"#utility.yul\":4017:4055   */\n  tag_90\n    /* \"#utility.yul\":4049:4054   */\n  dup2\n    /* \"#utility.yul\":4017:4055   */\n  tag_23\n  jump\t// in\ntag_90:\n    /* \"#utility.yul\":4101:4130   */\n  tag_91\n    /* \"#utility.yul\":4119:4129   */\n  dup5\n    /* \"#utility.yul\":4101:4130   */\n  tag_24\n  jump\t// in\ntag_91:\n    /* \"#utility.yul\":4091:4099   */\n  dup2\n    /* \"#utility.yul\":4087:4131   */\n  add\n    /* \"#utility.yul\":4284:4286   */\n  0x20\n    /* \"#utility.yul\":4272:4282   */\n  dup6\n    /* \"#utility.yul\":4269:4287   */\n  lt\n    /* \"#utility.yul\":4266:4315   */\n  iszero\n  tag_92\n  jumpi\n    /* \"#utility.yul\":4305:4313   */\n  dup2\n    /* \"#utility.yul\":4290:4313   */\n  swap1\n  pop\n    /* \"#utility.yul\":4266:4315   */\ntag_92:\n    /* \"#utility.yul\":4328:4408   */\n  tag_93\n    /* \"#utility.yul\":4384:4406   */\n  tag_94\n    /* \"#utility.yul\":4402:4405   */\n  dup6\n    /* \"#utility.yul\":4384:4406   */\n  tag_24\n  jump\t// in\ntag_94:\n    /* \"#utility.yul\":4374:4382   */\n  dup4\n    /* \"#utility.yul\":4370:4407   */\n  add\n    /* \"#utility.yul\":4357:4368   */\n  dup3\n    /* \"#utility.yul\":4328:4408   */\n  tag_34\n  jump\t// in\ntag_93:\n    /* \"#utility.yul\":3987:4418   */\n  pop\n  pop\n    /* \"#utility.yul\":3972:4418   */\ntag_89:\n    /* \"#utility.yul\":3882:4425   */\n  pop\n  pop\n  pop\n  jump\t// out\n    /* \"#utility.yul\":4431:4548   */\ntag_36:\n    /* \"#utility.yul\":4485:4493   */\n  0x00\n    /* \"#utility.yul\":4535:4540   */\n  dup3\n    /* \"#utility.yul\":4529:4533   */\n  dup3\n    /* \"#utility.yul\":4525:4541   */\n  shr\n    /* \"#utility.yul\":4504:4541   */\n  swap1\n  pop\n    /* \"#utility.yul\":4431:4548   */\n  swap3\n  swap2\n  pop\n  pop\n  jump\t// out\n    /* \"#utility.yul\":4554:4723   */\ntag_37:\n    /* \"#utility.yul\":4598:4604   */\n  0x00\n    /* \"#utility.yul\":4631:4682   */\n  tag_97\n    /* \"#utility.yul\":4679:4680   */\n  0x00\n    /* \"#utility.yul\":4675:4681   */\n  not\n    /* \"#utility.yul\":4667:4672   */\n  dup5\n    /* \"#utility.yul\":4664:4665   */\n  0x08\n    /* \"#utility.yul\":4660:4673   */\n  mul\n    /* \"#utility.yul\":4631:4682   */\n  tag_36\n  jump\t// in\ntag_97:\n    /* \"#utility.yul\":4627:4683   */\n  not\n    /* \"#utility.yul\":4712:4716   */\n  dup1\n    /* \"#utility.yul\":4706:4710   */\n  dup4\n    /* \"#utility.yul\":4702:4717   */\n  and\n    /* \"#utility.yul\":4692:4717   */\n  swap2\n  pop\n    /* \"#utility.yul\":4605:4723   */\n  pop\n    /* \"#utility.yul\":4554:4723   */\n  swap3\n  swap2\n  pop\n  pop\n  jump\t// out\n    /* \"#utility.yul\":4728:5023   */\ntag_38:\n    /* \"#utility.yul\":4804:4808   */\n  0x00\n    /* \"#utility.yul\":4950:4979   */\n  tag_99\n    /* \"#utility.yul\":4975:4978   */\n  dup4\n    /* \"#utility.yul\":4969:4973   */\n  dup4\n    /* \"#utility.yul\":4950:4979   */\n  tag_37\n  jump\t// in\ntag_99:\n    /* \"#utility.yul\":4942:4979   */\n  swap2\n  pop\n    /* \"#utility.yul\":5012:5015   */\n  dup3\n    /* \"#utility.yul\":5009:5010   */\n  0x02\n    /* \"#utility.yul\":5005:5016   */\n  mul\n    /* \"#utility.yul\":4999:5003   */\n  dup3\n    /* \"#utility.yul\":4996:5017   */\n  or\n    /* \"#utility.yul\":4988:5017   */\n  swap1\n  pop\n    /* \"#utility.yul\":4728:5023   */\n  swap3\n  swap2\n  pop\n  pop\n  jump\t// out\n    /* \"#utility.yul\":5028:6423   */\ntag_8:\n    /* \"#utility.yul\":5145:5182   */\n  tag_101\n    /* \"#utility.yul\":5178:5181   */\n  dup3\n    /* \"#utility.yul\":5145:5182   */\n  tag_19\n  jump\t// in\ntag_101:\n    /* \"#utility.yul\":5247:5265   */\n  0xffffffffffffffff\n    /* \"#utility.yul\":5239:5245   */\n  dup2\n    /* \"#utility.yul\":5236:5266   */\n  gt\n    /* \"#utility.yul\":5233:5289   */\n  iszero\n  tag_102\n  jumpi\n    /* \"#utility.yul\":5269:5287   */\n  tag_103\n  tag_20\n  jump\t// in\ntag_103:\n    /* \"#utility.yul\":5233:5289   */\ntag_102:\n    /* \"#utility.yul\":5313:5351   */\n  tag_104\n    /* \"#utility.yul\":5345:5349   */\n  dup3\n    /* \"#utility.yul\":5339:5350   */\n  sload\n    /* \"#utility.yul\":5313:5351   */\n  tag_22\n  jump\t// in\ntag_104:\n    /* \"#utility.yul\":5398:5465   */\n  tag_105\n    /* \"#utility.yul\":5458:5464   */\n  dup3\n    /* \"#utility.yul\":5450:5456   */\n  dup3\n    /* \"#utility.yul\":5444:5448   */\n  dup6\n    /* \"#utility.yul\":5398:5465   */\n  tag_35\n  jump\t// in\ntag_105:\n    /* \"#utility.yul\":5492:5493   */\n  0x00\n    /* \"#utility.yul\":5516:5520   */\n  0x20\n    /* \"#utility.yul\":5503:5520   */\n  swap1\n  pop\n    /* \"#utility.yul\":5548:5550   */\n  0x1f\n    /* \"#utility.yul\":5540:5546   */\n  dup4\n    /* \"#utility.yul\":5537:5551   */\n  gt\n    /* \"#utility.yul\":5565:5566   */\n  0x01\n    /* \"#utility.yul\":5560:6178   */\n  dup2\n  eq\n  tag_107\n  jumpi\n    /* \"#utility.yul\":6222:6223   */\n  0x00\n    /* \"#utility.yul\":6239:6245   */\n  dup5\n    /* \"#utility.yul\":6236:6313   */\n  iszero\n  tag_108\n  jumpi\n    /* \"#utility.yul\":6288:6297   */\n  dup3\n    /* \"#utility.yul\":6283:6286   */\n  dup8\n    /* \"#utility.yul\":6279:6298   */\n  add\n    /* \"#utility.yul\":6273:6299   */\n  mload\n    /* \"#utility.yul\":6264:6299   */\n  swap1\n  pop\n    /* \"#utility.yul\":6236:6313   */\ntag_108:\n    /* \"#utility.yul\":6339:6406   */\n  tag_109\n    /* \"#utility.yul\":6399:6405   */\n  dup6\n    /* \"#utility.yul\":6392:6397   */\n  dup3\n    /* \"#utility.yul\":6339:6406   */\n  tag_38\n  jump\t// in\ntag_109:\n    /* \"#utility.yul\":6333:6337   */\n  dup7\n    /* \"#utility.yul\":6326:6407   */\n  sstore\n    /* \"#utility.yul\":6195:6417   */\n  pop\n    /* \"#utility.yul\":5530:6417   */\n  jump(tag_106)\n    /* \"#utility.yul\":5560:6178   */\ntag_107:\n    /* \"#utility.yul\":5612:5616   */\n  0x1f\n    /* \"#utility.yul\":5608:5617   */\n  not\n    /* \"#utility.yul\":5600:5606   */\n  dup5\n    /* \"#utility.yul\":5596:5618   */\n  and\n    /* \"#utility.yul\":5646:5683   */\n  tag_110\n    /* \"#utility.yul\":5678:5682   */\n  dup7\n    /* \"#utility.yul\":5646:5683   */\n  tag_23\n  jump\t// in\ntag_110:\n    /* \"#utility.yul\":5705:5706   */\n  0x00\n    /* \"#utility.yul\":5719:5927   */\ntag_111:\n    /* \"#utility.yul\":5733:5740   */\n  dup3\n    /* \"#utility.yul\":5730:5731   */\n  dup2\n    /* \"#utility.yul\":5727:5741   */\n  lt\n    /* \"#utility.yul\":5719:5927   */\n  iszero\n  tag_113\n  jumpi\n    /* \"#utility.yul\":5812:5821   */\n  dup5\n    /* \"#utility.yul\":5807:5810   */\n  dup10\n    /* \"#utility.yul\":5803:5822   */\n  add\n    /* \"#utility.yul\":5797:5823   */\n  mload\n    /* \"#utility.yul\":5789:5795   */\n  dup3\n    /* \"#utility.yul\":5782:5824   */\n  sstore\n    /* \"#utility.yul\":5863:5864   */\n  0x01\n    /* \"#utility.yul\":5855:5861   */\n  dup3\n    /* \"#utility.yul\":5851:5865   */\n  add\n    /* \"#utility.yul\":5841:5865   */\n  swap2\n  pop\n    /* \"#utility.yul\":5910:5912   */\n  0x20\n    /* \"#utility.yul\":5899:5908   */\n  dup6\n    /* \"#utility.yul\":5895:5913   */\n  add\n    /* \"#utility.yul\":5882:5913   */\n  swap5\n  pop\n    /* \"#utility.yul\":5756:5760   */\n  0x20\n    /* \"#utility.yul\":5753:5754   */\n  dup2\n    /* \"#utility.yul\":5749:5761   */\n  add\n    /* \"#utility.yul\":5744:5761   */\n  swap1\n  pop\n    /* \"#utility.yul\":5719:5927   */\n  jump(tag_111)\ntag_113:\n    /* \"#utility.yul\":5955:5961   */\n  dup7\n    /* \"#utility.yul\":5946:5953   */\n  dup4\n    /* \"#utility.yul\":5943:5962   */\n  lt\n    /* \"#utility.yul\":5940:6119   */\n  iszero\n  tag_114\n  jumpi\n    /* \"#utility.yul\":6013:6022   */\n  dup5\n    /* \"#utility.yul\":6008:6011   */\n  dup10\n    /* \"#utility.yul\":6004:6023   */\n  add\n    /* \"#utility.yul\":5998:6024   */\n  mload\n    /* \"#utility.yul\":6056:6104   */\n  tag_115\n    /* \"#utility.yul\":6098:6102   */\n  0x1f\n    /* \"#utility.yul\":6090:6096   */\n  dup10\n    /* \"#utility.yul\":6086:6103   */\n  and\n    /* \"#utility.yul\":6075:6084   */\n  dup3\n    /* \"#utility.yul\":6056:6104   */\n  tag_37\n  jump\t// in\ntag_115:\n    /* \"#utility.yul\":6048:6054   */\n  dup4\n    /* \"#utility.yul\":6041:6105   */\n  sstore\n    /* \"#utility.yul\":5963:6119   */\n  pop\n    /* \"#utility.yul\":5940:6119   */\ntag_114:\n    /* \"#utility.yul\":6165:6166   */\n  0x01\n    /* \"#utility.yul\":6161:6162   */\n  0x02\n    /* \"#utility.yul\":6153:6159   */\n  dup9\n    /* \"#utility.yul\":6149:6163   */\n  mul\n    /* \"#utility.yul\":6145:6167   */\n  add\n    /* \"#utility.yul\":6139:6143   */\n  dup9\n    /* \"#utility.yul\":6132:6168   */\n  sstore\n    /* \"#utility.yul\":5567:6178   */\n  pop\n  pop\n  pop\n    /* \"#utility.yul\":5530:6417   */\ntag_106:\n  pop\n    /* \"#utility.yul\":5120:6423   */\n  pop\n  pop\n  pop\n    /* \"#utility.yul\":5028:6423   */\n  pop\n  pop\n  jump\t// out\n    /* \"contracts/sunsurance.sol\":235:6212  contract Sunsurance is ERC20{... */\ntag_11:\n  mload(0x80)\n  codecopy(0x00, dataOffset(sub_0), dataSize(sub_0))\n  0x00\n  assignImmutable(\"0x3531cc3dc5bb231b65d260771886cc583d8fe8fb29b457554cb1930a722a747d\")\n  return(0x00, dataSize(sub_0))\nstop\n\nsub_0: assembly {\n        /* \"contracts/sunsurance.sol\":235:6212  contract Sunsurance is ERC20{... */\n      mstore(0x40, 0x80)\n      callvalue\n      dup1\n      iszero\n      tag_1\n      jumpi\n      0x00\n      dup1\n      revert\n    tag_1:\n      pop\n      jumpi(tag_2, lt(calldatasize, 0x04))\n      shr(0xe0, calldataload(0x00))\n      dup1\n      0x95d89b41\n      gt\n      tag_18\n      jumpi\n      dup1\n      0xd21aa219\n      gt\n      tag_19\n      jumpi\n      dup1\n      0xd21aa219\n      eq\n      tag_14\n      jumpi\n      dup1\n      0xdd62ed3e\n      eq\n      tag_15\n      jumpi\n      dup1\n      0xdf201829\n      eq\n      tag_16\n      jumpi\n      dup1\n      0xedd5bcce\n      eq\n      tag_17\n      jumpi\n      jump(tag_2)\n    tag_19:\n      dup1\n      0x95d89b41\n      eq\n      tag_10\n      jumpi\n      dup1\n      0x96e0736c\n      eq\n      tag_11\n      jumpi\n      dup1\n      0xa9059cbb\n      eq\n      tag_12\n      jumpi\n      dup1\n      0xc290d691\n      eq\n      tag_13\n      jumpi\n      jump(tag_2)\n    tag_18:\n      dup1\n      0x23b872dd\n      gt\n      tag_20\n      jumpi\n      dup1\n      0x23b872dd\n      eq\n      tag_6\n      jumpi\n      dup1\n      0x313ce567\n      eq\n      tag_7\n      jumpi\n      dup1\n      0x70a08231\n      eq\n      tag_8\n      jumpi\n      dup1\n      0x8da5cb5b\n      eq\n      tag_9\n      jumpi\n      jump(tag_2)\n    tag_20:\n      dup1\n      0x06fdde03\n      eq\n      tag_3\n      jumpi\n      dup1\n      0x095ea7b3\n      eq\n      tag_4\n      jumpi\n      dup1\n      0x18160ddd\n      eq\n      tag_5\n      jumpi\n    tag_2:\n      0x00\n      dup1\n      revert\n        /* \"@openzeppelin/contracts/token/ERC20/ERC20.sol\":2074:2163  function name() public view virtual returns (string memory) {... */\n    tag_3:\n      tag_21\n      tag_22\n      jump\t// in\n    tag_21:\n      mload(0x40)\n      tag_23\n      swap2\n      swap1\n      tag_24\n      jump\t// in\n    tag_23:\n      mload(0x40)\n      dup1\n      swap2\n      sub\n      swap1\n      return\n        /* \"@openzeppelin/contracts/token/ERC20/ERC20.sol\":4293:4479  function approve(address spender, uint256 value) public virtual returns (bool) {... */\n    tag_4:\n      tag_25\n      0x04\n      dup1\n      calldatasize\n      sub\n      dup2\n      add\n      swap1\n      tag_26\n      swap2\n      swap1\n      tag_27\n      jump\t// in\n    tag_26:\n      tag_28\n      jump\t// in\n    tag_25:\n      mload(0x40)\n      tag_29\n      swap2\n      swap1\n      tag_30\n      jump\t// in\n    tag_29:\n      mload(0x40)\n      dup1\n      swap2\n      sub\n      swap1\n      return\n        /* \"@openzeppelin/contracts/token/ERC20/ERC20.sol\":3144:3241  function totalSupply() public view virtual returns (uint256) {... */\n    tag_5:\n      tag_31\n      tag_32\n      jump\t// in\n    tag_31:\n      mload(0x40)\n      tag_33\n      swap2\n      swap1\n      tag_34\n      jump\t// in\n    tag_33:\n      mload(0x40)\n      dup1\n      swap2\n      sub\n      swap1\n      return\n        /* \"@openzeppelin/contracts/token/ERC20/ERC20.sol\":5039:5283  function transferFrom(address from, address to, uint256 value) public virtual returns (bool) {... */\n    tag_6:\n      tag_35\n      0x04\n      dup1\n      calldatasize\n      sub\n      dup2\n      add\n      swap1\n      tag_36\n      swap2\n      swap1\n      tag_37\n      jump\t// in\n    tag_36:\n      tag_38\n      jump\t// in\n    tag_35:\n      mload(0x40)\n      tag_39\n      swap2\n      swap1\n      tag_30\n      jump\t// in\n    tag_39:\n      mload(0x40)\n      dup1\n      swap2\n      sub\n      swap1\n      return\n        /* \"@openzeppelin/contracts/token/ERC20/ERC20.sol\":3002:3084  function decimals() public view virtual returns (uint8) {... */\n    tag_7:\n      tag_40\n      tag_41\n      jump\t// in\n    tag_40:\n      mload(0x40)\n      tag_42\n      swap2\n      swap1\n      tag_43\n      jump\t// in\n    tag_42:\n      mload(0x40)\n      dup1\n      swap2\n      sub\n      swap1\n      return\n        /* \"@openzeppelin/contracts/token/ERC20/ERC20.sol\":3299:3415  function balanceOf(address account) public view virtual returns (uint256) {... */\n    tag_8:\n      tag_44\n      0x04\n      dup1\n      calldatasize\n      sub\n      dup2\n      add\n      swap1\n      tag_45\n      swap2\n      swap1\n      tag_46\n      jump\t// in\n    tag_45:\n      tag_47\n      jump\t// in\n    tag_44:\n      mload(0x40)\n      tag_48\n      swap2\n      swap1\n      tag_34\n      jump\t// in\n    tag_48:\n      mload(0x40)\n      dup1\n      swap2\n      sub\n      swap1\n      return\n        /* \"contracts/sunsurance.sol\":1830:1922  function owner() public view requireOwner() returns(address){... */\n    tag_9:\n      tag_49\n      tag_50\n      jump\t// in\n    tag_49:\n      mload(0x40)\n      tag_51\n      swap2\n      swap1\n      tag_52\n      jump\t// in\n    tag_51:\n      mload(0x40)\n      dup1\n      swap2\n      sub\n      swap1\n      return\n        /* \"@openzeppelin/contracts/token/ERC20/ERC20.sol\":2276:2369  function symbol() public view virtual returns (string memory) {... */\n    tag_10:\n      tag_53\n      tag_54\n      jump\t// in\n    tag_53:\n      mload(0x40)\n      tag_55\n      swap2\n      swap1\n      tag_24\n      jump\t// in\n    tag_55:\n      mload(0x40)\n      dup1\n      swap2\n      sub\n      swap1\n      return\n        /* \"contracts/sunsurance.sol\":4698:4845  function getSunsurance() external ... */\n    tag_11:\n      tag_56\n      tag_57\n      jump\t// in\n    tag_56:\n      mload(0x40)\n      tag_58\n      swap2\n      swap1\n      tag_59\n      jump\t// in\n    tag_58:\n      mload(0x40)\n      dup1\n      swap2\n      sub\n      swap1\n      return\n        /* \"@openzeppelin/contracts/token/ERC20/ERC20.sol\":3610:3788  function transfer(address to, uint256 value) public virtual returns (bool) {... */\n    tag_12:\n      tag_60\n      0x04\n      dup1\n      calldatasize\n      sub\n      dup2\n      add\n      swap1\n      tag_61\n      swap2\n      swap1\n      tag_27\n      jump\t// in\n    tag_61:\n      tag_62\n      jump\t// in\n    tag_60:\n      mload(0x40)\n      tag_63\n      swap2\n      swap1\n      tag_30\n      jump\t// in\n    tag_63:\n      mload(0x40)\n      dup1\n      swap2\n      sub\n      swap1\n      return\n        /* \"contracts/sunsurance.sol\":3872:4633  function pay(uint _xchfAmount) external ... */\n    tag_13:\n      tag_64\n      0x04\n      dup1\n      calldatasize\n      sub\n      dup2\n      add\n      swap1\n      tag_65\n      swap2\n      swap1\n      tag_66\n      jump\t// in\n    tag_65:\n      tag_67\n      jump\t// in\n    tag_64:\n      stop\n        /* \"contracts/sunsurance.sol\":2013:3125  function register(uint256 _xchfAmount, string calldata _location, uint8 _durationYears) external ... */\n    tag_14:\n      tag_68\n      0x04\n      dup1\n      calldatasize\n      sub\n      dup2\n      add\n      swap1\n      tag_69\n      swap2\n      swap1\n      tag_70\n      jump\t// in\n    tag_69:\n      tag_71\n      jump\t// in\n    tag_68:\n      stop\n        /* \"@openzeppelin/contracts/token/ERC20/ERC20.sol\":3846:3986  function allowance(address owner, address spender) public view virtual returns (uint256) {... */\n    tag_15:\n      tag_72\n      0x04\n      dup1\n      calldatasize\n      sub\n      dup2\n      add\n      swap1\n      tag_73\n      swap2\n      swap1\n      tag_74\n      jump\t// in\n    tag_73:\n      tag_75\n      jump\t// in\n    tag_72:\n      mload(0x40)\n      tag_76\n      swap2\n      swap1\n      tag_34\n      jump\t// in\n    tag_76:\n      mload(0x40)\n      dup1\n      swap2\n      sub\n      swap1\n      return\n        /* \"contracts/sunsurance.sol\":366:394  IERC20 public immutable xCHF */\n    tag_16:\n      tag_77\n      tag_78\n      jump\t// in\n    tag_77:\n      mload(0x40)\n      tag_79\n      swap2\n      swap1\n      tag_80\n      jump\t// in\n    tag_79:\n      mload(0x40)\n      dup1\n      swap2\n      sub\n      swap1\n      return\n        /* \"contracts/sunsurance.sol\":3189:3793  function claimSunsurance(uint256 _suntAmount) external ... */\n    tag_17:\n      tag_81\n      0x04\n      dup1\n      calldatasize\n      sub\n      dup2\n      add\n      swap1\n      tag_82\n      swap2\n      swap1\n      tag_66\n      jump\t// in\n    tag_82:\n      tag_83\n      jump\t// in\n    tag_81:\n      stop\n        /* \"@openzeppelin/contracts/token/ERC20/ERC20.sol\":2074:2163  function name() public view virtual returns (string memory) {... */\n    tag_22:\n        /* \"@openzeppelin/contracts/token/ERC20/ERC20.sol\":2119:2132  string memory */\n      0x60\n        /* \"@openzeppelin/contracts/token/ERC20/ERC20.sol\":2151:2156  _name */\n      0x03\n        /* \"@openzeppelin/contracts/token/ERC20/ERC20.sol\":2144:2156  return _name */\n      dup1\n      sload\n      tag_85\n      swap1\n      tag_86\n      jump\t// in\n    tag_85:\n      dup1\n      0x1f\n      add\n      0x20\n      dup1\n      swap2\n      div\n      mul\n      0x20\n      add\n      mload(0x40)\n      swap1\n      dup2\n      add\n      0x40\n      mstore\n      dup1\n      swap3\n      swap2\n      swap1\n      dup2\n      dup2\n      mstore\n      0x20\n      add\n      dup3\n      dup1\n      sload\n      tag_87\n      swap1\n      tag_86\n      jump\t// in\n    tag_87:\n      dup1\n      iszero\n      tag_88\n      jumpi\n      dup1\n      0x1f\n      lt\n      tag_89\n      jumpi\n      0x0100\n      dup1\n      dup4\n      sload\n      div\n      mul\n      dup4\n      mstore\n      swap2\n      0x20\n      add\n      swap2\n      jump(tag_88)\n    tag_89:\n      dup3\n      add\n      swap2\n      swap1\n      0x00\n      mstore\n      keccak256(0x00, 0x20)\n      swap1\n    tag_90:\n      dup2\n      sload\n      dup2\n      mstore\n      swap1\n      0x01\n      add\n      swap1\n      0x20\n      add\n      dup1\n      dup4\n      gt\n      tag_90\n      jumpi\n      dup3\n      swap1\n      sub\n      0x1f\n      and\n      dup3\n      add\n      swap2\n    tag_88:\n      pop\n      pop\n      pop\n      pop\n      pop\n      swap1\n      pop\n        /* \"@openzeppelin/contracts/token/ERC20/ERC20.sol\":2074:2163  function name() public view virtual returns (string memory) {... */\n      swap1\n      jump\t// out\n        /* \"@openzeppelin/contracts/token/ERC20/ERC20.sol\":4293:4479  function approve(address spender, uint256 value) public virtual returns (bool) {... */\n    tag_28:\n        /* \"@openzeppelin/contracts/token/ERC20/ERC20.sol\":4366:4370  bool */\n      0x00\n        /* \"@openzeppelin/contracts/token/ERC20/ERC20.sol\":4382:4395  address owner */\n      dup1\n        /* \"@openzeppelin/contracts/token/ERC20/ERC20.sol\":4398:4410  _msgSender() */\n      tag_92\n        /* \"@openzeppelin/contracts/token/ERC20/ERC20.sol\":4398:4408  _msgSender */\n      tag_93\n        /* \"@openzeppelin/contracts/token/ERC20/ERC20.sol\":4398:4410  _msgSender() */\n      jump\t// in\n    tag_92:\n        /* \"@openzeppelin/contracts/token/ERC20/ERC20.sol\":4382:4410  address owner = _msgSender() */\n      swap1\n      pop\n        /* \"@openzeppelin/contracts/token/ERC20/ERC20.sol\":4420:4451  _approve(owner, spender, value) */\n      tag_94\n        /* \"@openzeppelin/contracts/token/ERC20/ERC20.sol\":4429:4434  owner */\n      dup2\n        /* \"@openzeppelin/contracts/token/ERC20/ERC20.sol\":4436:4443  spender */\n      dup6\n        /* \"@openzeppelin/contracts/token/ERC20/ERC20.sol\":4445:4450  value */\n      dup6\n        /* \"@openzeppelin/contracts/token/ERC20/ERC20.sol\":4420:4428  _approve */\n      tag_95\n        /* \"@openzeppelin/contracts/token/ERC20/ERC20.sol\":4420:4451  _approve(owner, spender, value) */\n      jump\t// in\n    tag_94:\n        /* \"@openzeppelin/contracts/token/ERC20/ERC20.sol\":4468:4472  true */\n      0x01\n        /* \"@openzeppelin/contracts/token/ERC20/ERC20.sol\":4461:4472  return true */\n      swap2\n      pop\n      pop\n        /* \"@openzeppelin/contracts/token/ERC20/ERC20.sol\":4293:4479  function approve(address spender, uint256 value) public virtual returns (bool) {... */\n      swap3\n      swap2\n      pop\n      pop\n      jump\t// out\n        /* \"@openzeppelin/contracts/token/ERC20/ERC20.sol\":3144:3241  function totalSupply() public view virtual returns (uint256) {... */\n    tag_32:\n        /* \"@openzeppelin/contracts/token/ERC20/ERC20.sol\":3196:3203  uint256 */\n      0x00\n        /* \"@openzeppelin/contracts/token/ERC20/ERC20.sol\":3222:3234  _totalSupply */\n      sload(0x02)\n        /* \"@openzeppelin/contracts/token/ERC20/ERC20.sol\":3215:3234  return _totalSupply */\n      swap1\n      pop\n        /* \"@openzeppelin/contracts/token/ERC20/ERC20.sol\":3144:3241  function totalSupply() public view virtual returns (uint256) {... */\n      swap1\n      jump\t// out\n        /* \"@openzeppelin/contracts/token/ERC20/ERC20.sol\":5039:5283  function transferFrom(address from, address to, uint256 value) public virtual returns (bool) {... */\n    tag_38:\n        /* \"@openzeppelin/contracts/token/ERC20/ERC20.sol\":5126:5130  bool */\n      0x00\n        /* \"@openzeppelin/contracts/token/ERC20/ERC20.sol\":5142:5157  address spender */\n      dup1\n        /* \"@openzeppelin/contracts/token/ERC20/ERC20.sol\":5160:5172  _msgSender() */\n      tag_98\n        /* \"@openzeppelin/contracts/token/ERC20/ERC20.sol\":5160:5170  _msgSender */\n      tag_93\n        /* \"@openzeppelin/contracts/token/ERC20/ERC20.sol\":5160:5172  _msgSender() */\n      jump\t// in\n    tag_98:\n        /* \"@openzeppelin/contracts/token/ERC20/ERC20.sol\":5142:5172  address spender = _msgSender() */\n      swap1\n      pop\n        /* \"@openzeppelin/contracts/token/ERC20/ERC20.sol\":5182:5219  _spendAllowance(from, spender, value) */\n      tag_99\n        /* \"@openzeppelin/contracts/token/ERC20/ERC20.sol\":5198:5202  from */\n      dup6\n        /* \"@openzeppelin/contracts/token/ERC20/ERC20.sol\":5204:5211  spender */\n      dup3\n        /* \"@openzeppelin/contracts/token/ERC20/ERC20.sol\":5213:5218  value */\n      dup6\n        /* \"@openzeppelin/contracts/token/ERC20/ERC20.sol\":5182:5197  _spendAllowance */\n      tag_100\n        /* \"@openzeppelin/contracts/token/ERC20/ERC20.sol\":5182:5219  _spendAllowance(from, spender, value) */\n      jump\t// in\n    tag_99:\n        /* \"@openzeppelin/contracts/token/ERC20/ERC20.sol\":5229:5255  _transfer(from, to, value) */\n      tag_101\n        /* \"@openzeppelin/contracts/token/ERC20/ERC20.sol\":5239:5243  from */\n      dup6\n        /* \"@openzeppelin/contracts/token/ERC20/ERC20.sol\":5245:5247  to */\n      dup6\n        /* \"@openzeppelin/contracts/token/ERC20/ERC20.sol\":5249:5254  value */\n      dup6\n        /* \"@openzeppelin/contracts/token/ERC20/ERC20.sol\":5229:5238  _transfer */\n      tag_102\n        /* \"@openzeppelin/contracts/token/ERC20/ERC20.sol\":5229:5255  _transfer(from, to, value) */\n      jump\t// in\n    tag_101:\n        /* \"@openzeppelin/contracts/token/ERC20/ERC20.sol\":5272:5276  true */\n      0x01\n        /* \"@openzeppelin/contracts/token/ERC20/ERC20.sol\":5265:5276  return true */\n      swap2\n      pop\n      pop\n        /* \"@openzeppelin/contracts/token/ERC20/ERC20.sol\":5039:5283  function transferFrom(address from, address to, uint256 value) public virtual returns (bool) {... */\n      swap4\n      swap3\n      pop\n      pop\n      pop\n      jump\t// out\n        /* \"@openzeppelin/contracts/token/ERC20/ERC20.sol\":3002:3084  function decimals() public view virtual returns (uint8) {... */\n    tag_41:\n        /* \"@openzeppelin/contracts/token/ERC20/ERC20.sol\":3051:3056  uint8 */\n      0x00\n        /* \"@openzeppelin/contracts/token/ERC20/ERC20.sol\":3075:3077  18 */\n      0x12\n        /* \"@openzeppelin/contracts/token/ERC20/ERC20.sol\":3068:3077  return 18 */\n      swap1\n      pop\n        /* \"@openzeppelin/contracts/token/ERC20/ERC20.sol\":3002:3084  function decimals() public view virtual returns (uint8) {... */\n      swap1\n      jump\t// out\n        /* \"@openzeppelin/contracts/token/ERC20/ERC20.sol\":3299:3415  function balanceOf(address account) public view virtual returns (uint256) {... */\n    tag_47:\n        /* \"@openzeppelin/contracts/token/ERC20/ERC20.sol\":3364:3371  uint256 */\n      0x00\n        /* \"@openzeppelin/contracts/token/ERC20/ERC20.sol\":3390:3399  _balances */\n      dup1\n        /* \"@openzeppelin/contracts/token/ERC20/ERC20.sol\":3390:3408  _balances[account] */\n      0x00\n        /* \"@openzeppelin/contracts/token/ERC20/ERC20.sol\":3400:3407  account */\n      dup4\n        /* \"@openzeppelin/contracts/token/ERC20/ERC20.sol\":3390:3408  _balances[account] */\n      0xffffffffffffffffffffffffffffffffffffffff\n      and\n      0xffffffffffffffffffffffffffffffffffffffff\n      and\n      dup2\n      mstore\n      0x20\n      add\n      swap1\n      dup2\n      mstore\n      0x20\n      add\n      0x00\n      keccak256\n      sload\n        /* \"@openzeppelin/contracts/token/ERC20/ERC20.sol\":3383:3408  return _balances[account] */\n      swap1\n      pop\n        /* \"@openzeppelin/contracts/token/ERC20/ERC20.sol\":3299:3415  function balanceOf(address account) public view virtual returns (uint256) {... */\n      swap2\n      swap1\n      pop\n      jump\t// out\n        /* \"contracts/sunsurance.sol\":1830:1922  function owner() public view requireOwner() returns(address){... */\n    tag_50:\n        /* \"contracts/sunsurance.sol\":1882:1889  address */\n      0x00\n        /* \"contracts/sunsurance.sol\":4979:4985  _owner */\n      0x05\n      0x00\n      swap1\n      sload\n      swap1\n      0x0100\n      exp\n      swap1\n      div\n      0xffffffffffffffffffffffffffffffffffffffff\n      and\n        /* \"contracts/sunsurance.sol\":4965:4985  msg.sender == _owner */\n      0xffffffffffffffffffffffffffffffffffffffff\n      and\n        /* \"contracts/sunsurance.sol\":4965:4975  msg.sender */\n      caller\n        /* \"contracts/sunsurance.sol\":4965:4985  msg.sender == _owner */\n      0xffffffffffffffffffffffffffffffffffffffff\n      and\n      eq\n        /* \"contracts/sunsurance.sol\":4957:5050  require(msg.sender == _owner, \"Only the contract owner is allowed to do the desired action.\") */\n      tag_106\n      jumpi\n      mload(0x40)\n      0x08c379a000000000000000000000000000000000000000000000000000000000\n      dup2\n      mstore\n      0x04\n      add\n      tag_107\n      swap1\n      tag_108\n      jump\t// in\n    tag_107:\n      mload(0x40)\n      dup1\n      swap2\n      sub\n      swap1\n      revert\n    tag_106:\n        /* \"contracts/sunsurance.sol\":1908:1914  _owner */\n      0x05\n      0x00\n      swap1\n      sload\n      swap1\n      0x0100\n      exp\n      swap1\n      div\n      0xffffffffffffffffffffffffffffffffffffffff\n      and\n        /* \"contracts/sunsurance.sol\":1901:1914  return _owner */\n      swap1\n      pop\n        /* \"contracts/sunsurance.sol\":1830:1922  function owner() public view requireOwner() returns(address){... */\n      swap1\n      jump\t// out\n        /* \"@openzeppelin/contracts/token/ERC20/ERC20.sol\":2276:2369  function symbol() public view virtual returns (string memory) {... */\n    tag_54:\n        /* \"@openzeppelin/contracts/token/ERC20/ERC20.sol\":2323:2336  string memory */\n      0x60\n        /* \"@openzeppelin/contracts/token/ERC20/ERC20.sol\":2355:2362  _symbol */\n      0x04\n        /* \"@openzeppelin/contracts/token/ERC20/ERC20.sol\":2348:2362  return _symbol */\n      dup1\n      sload\n      tag_111\n      swap1\n      tag_86\n      jump\t// in\n    tag_111:\n      dup1\n      0x1f\n      add\n      0x20\n      dup1\n      swap2\n      div\n      mul\n      0x20\n      add\n      mload(0x40)\n      swap1\n      dup2\n      add\n      0x40\n      mstore\n      dup1\n      swap3\n      swap2\n      swap1\n      dup2\n      dup2\n      mstore\n      0x20\n      add\n      dup3\n      dup1\n      sload\n      tag_112\n      swap1\n      tag_86\n      jump\t// in\n    tag_112:\n      dup1\n      iszero\n      tag_113\n      jumpi\n      dup1\n      0x1f\n      lt\n      tag_114\n      jumpi\n      0x0100\n      dup1\n      dup4\n      sload\n      div\n      mul\n      dup4\n      mstore\n      swap2\n      0x20\n      add\n      swap2\n      jump(tag_113)\n    tag_114:\n      dup3\n      add\n      swap2\n      swap1\n      0x00\n      mstore\n      keccak256(0x00, 0x20)\n      swap1\n    tag_115:\n      dup2\n      sload\n      dup2\n      mstore\n      swap1\n      0x01\n      add\n      swap1\n      0x20\n      add\n      dup1\n      dup4\n      gt\n      tag_115\n      jumpi\n      dup3\n      swap1\n      sub\n      0x1f\n      and\n      dup3\n      add\n      swap2\n    tag_113:\n      pop\n      pop\n      pop\n      pop\n      pop\n      swap1\n      pop\n        /* \"@openzeppelin/contracts/token/ERC20/ERC20.sol\":2276:2369  function symbol() public view virtual returns (string memory) {... */\n      swap1\n      jump\t// out\n        /* \"contracts/sunsurance.sol\":4698:4845  function getSunsurance() external ... */\n    tag_57:\n        /* \"contracts/sunsurance.sol\":4771:4796  SunsuranceContract memory */\n      tag_116\n      tag_117\n      jump\t// in\n    tag_116:\n        /* \"contracts/sunsurance.sol\":5897:5917  _isRegisteredAddress */\n      0x08\n        /* \"contracts/sunsurance.sol\":5897:5929  _isRegisteredAddress[msg.sender] */\n      0x00\n        /* \"contracts/sunsurance.sol\":5918:5928  msg.sender */\n      caller\n        /* \"contracts/sunsurance.sol\":5897:5929  _isRegisteredAddress[msg.sender] */\n      0xffffffffffffffffffffffffffffffffffffffff\n      and\n      0xffffffffffffffffffffffffffffffffffffffff\n      and\n      dup2\n      mstore\n      0x20\n      add\n      swap1\n      dup2\n      mstore\n      0x20\n      add\n      0x00\n      keccak256\n      0x00\n      swap1\n      sload\n      swap1\n      0x0100\n      exp\n      swap1\n      div\n      0xff\n      and\n        /* \"contracts/sunsurance.sol\":5889:5960  require(_isRegisteredAddress[msg.sender], \"The client is not insured.\") */\n      tag_119\n      jumpi\n      mload(0x40)\n      0x08c379a000000000000000000000000000000000000000000000000000000000\n      dup2\n      mstore\n      0x04\n      add\n      tag_120\n      swap1\n      tag_121\n      jump\t// in\n    tag_120:\n      mload(0x40)\n      dup1\n      swap2\n      sub\n      swap1\n      revert\n    tag_119:\n        /* \"contracts/sunsurance.sol\":4815:4825  _contracts */\n      0x07\n        /* \"contracts/sunsurance.sol\":4815:4837  _contracts[msg.sender] */\n      0x00\n        /* \"contracts/sunsurance.sol\":4826:4836  msg.sender */\n      caller\n        /* \"contracts/sunsurance.sol\":4815:4837  _contracts[msg.sender] */\n      0xffffffffffffffffffffffffffffffffffffffff\n      and\n      0xffffffffffffffffffffffffffffffffffffffff\n      and\n      dup2\n      mstore\n      0x20\n      add\n      swap1\n      dup2\n      mstore\n      0x20\n      add\n      0x00\n      keccak256\n        /* \"contracts/sunsurance.sol\":4808:4837  return _contracts[msg.sender] */\n      mload(0x40)\n      dup1\n      0x0120\n      add\n      0x40\n      mstore\n      swap1\n      dup2\n      0x00\n      dup3\n      add\n      0x00\n      swap1\n      sload\n      swap1\n      0x0100\n      exp\n      swap1\n      div\n      0xffffffffffffffffffffffffffffffffffffffff\n      and\n      0xffffffffffffffffffffffffffffffffffffffff\n      and\n      0xffffffffffffffffffffffffffffffffffffffff\n      and\n      dup2\n      mstore\n      0x20\n      add\n      0x01\n      dup3\n      add\n      dup1\n      sload\n      tag_123\n      swap1\n      tag_86\n      jump\t// in\n    tag_123:\n      dup1\n      0x1f\n      add\n      0x20\n      dup1\n      swap2\n      div\n      mul\n      0x20\n      add\n      mload(0x40)\n      swap1\n      dup2\n      add\n      0x40\n      mstore\n      dup1\n      swap3\n      swap2\n      swap1\n      dup2\n      dup2\n      mstore\n      0x20\n      add\n      dup3\n      dup1\n      sload\n      tag_124\n      swap1\n      tag_86\n      jump\t// in\n    tag_124:\n      dup1\n      iszero\n      tag_125\n      jumpi\n      dup1\n      0x1f\n      lt\n      tag_126\n      jumpi\n      0x0100\n      dup1\n      dup4\n      sload\n      div\n      mul\n      dup4\n      mstore\n      swap2\n      0x20\n      add\n      swap2\n      jump(tag_125)\n    tag_126:\n      dup3\n      add\n      swap2\n      swap1\n      0x00\n      mstore\n      keccak256(0x00, 0x20)\n      swap1\n    tag_127:\n      dup2\n      sload\n      dup2\n      mstore\n      swap1\n      0x01\n      add\n      swap1\n      0x20\n      add\n      dup1\n      dup4\n      gt\n      tag_127\n      jumpi\n      dup3\n      swap1\n      sub\n      0x1f\n      and\n      dup3\n      add\n      swap2\n    tag_125:\n      pop\n      pop\n      pop\n      pop\n      pop\n      dup2\n      mstore\n      0x20\n      add\n      0x02\n      dup3\n      add\n      sload\n      dup2\n      mstore\n      0x20\n      add\n      0x03\n      dup3\n      add\n      sload\n      dup2\n      mstore\n      0x20\n      add\n      0x04\n      dup3\n      add\n      sload\n      dup2\n      mstore\n      0x20\n      add\n      0x05\n      dup3\n      add\n      sload\n      dup2\n      mstore\n      0x20\n      add\n      0x06\n      dup3\n      add\n      sload\n      dup2\n      mstore\n      0x20\n      add\n      0x07\n      dup3\n      add\n      sload\n      dup2\n      mstore\n      0x20\n      add\n      0x08\n      dup3\n      add\n      sload\n      dup2\n      mstore\n      pop\n      pop\n      swap1\n      pop\n        /* \"contracts/sunsurance.sol\":4698:4845  function getSunsurance() external ... */\n      swap1\n      jump\t// out\n        /* \"@openzeppelin/contracts/token/ERC20/ERC20.sol\":3610:3788  function transfer(address to, uint256 value) public virtual returns (bool) {... */\n    tag_62:\n        /* \"@openzeppelin/contracts/token/ERC20/ERC20.sol\":3679:3683  bool */\n      0x00\n        /* \"@openzeppelin/contracts/token/ERC20/ERC20.sol\":3695:3708  address owner */\n      dup1\n        /* \"@openzeppelin/contracts/token/ERC20/ERC20.sol\":3711:3723  _msgSender() */\n      tag_129\n        /* \"@openzeppelin/contracts/token/ERC20/ERC20.sol\":3711:3721  _msgSender */\n      tag_93\n        /* \"@openzeppelin/contracts/token/ERC20/ERC20.sol\":3711:3723  _msgSender() */\n      jump\t// in\n    tag_129:\n        /* \"@openzeppelin/contracts/token/ERC20/ERC20.sol\":3695:3723  address owner = _msgSender() */\n      swap1\n      pop\n        /* \"@openzeppelin/contracts/token/ERC20/ERC20.sol\":3733:3760  _transfer(owner, to, value) */\n      tag_130\n        /* \"@openzeppelin/contracts/token/ERC20/ERC20.sol\":3743:3748  owner */\n      dup2\n        /* \"@openzeppelin/contracts/token/ERC20/ERC20.sol\":3750:3752  to */\n      dup6\n        /* \"@openzeppelin/contracts/token/ERC20/ERC20.sol\":3754:3759  value */\n      dup6\n        /* \"@openzeppelin/contracts/token/ERC20/ERC20.sol\":3733:3742  _transfer */\n      tag_102\n        /* \"@openzeppelin/contracts/token/ERC20/ERC20.sol\":3733:3760  _transfer(owner, to, value) */\n      jump\t// in\n    tag_130:\n        /* \"@openzeppelin/contracts/token/ERC20/ERC20.sol\":3777:3781  true */\n      0x01\n        /* \"@openzeppelin/contracts/token/ERC20/ERC20.sol\":3770:3781  return true */\n      swap2\n      pop\n      pop\n        /* \"@openzeppelin/contracts/token/ERC20/ERC20.sol\":3610:3788  function transfer(address to, uint256 value) public virtual returns (bool) {... */\n      swap3\n      swap2\n      pop\n      pop\n      jump\t// out\n        /* \"contracts/sunsurance.sol\":3872:4633  function pay(uint _xchfAmount) external ... */\n    tag_67:\n        /* \"contracts/sunsurance.sol\":6126:6136  _contracts */\n      0x07\n        /* \"contracts/sunsurance.sol\":6126:6148  _contracts[msg.sender] */\n      0x00\n        /* \"contracts/sunsurance.sol\":6137:6147  msg.sender */\n      caller\n        /* \"contracts/sunsurance.sol\":6126:6148  _contracts[msg.sender] */\n      0xffffffffffffffffffffffffffffffffffffffff\n      and\n      0xffffffffffffffffffffffffffffffffffffffff\n      and\n      dup2\n      mstore\n      0x20\n      add\n      swap1\n      dup2\n      mstore\n      0x20\n      add\n      0x00\n      keccak256\n        /* \"contracts/sunsurance.sol\":6126:6161  _contracts[msg.sender]._nextPayment */\n      0x07\n      add\n      sload\n        /* \"contracts/sunsurance.sol\":6107:6122  block.timestamp */\n      timestamp\n        /* \"contracts/sunsurance.sol\":6107:6161  block.timestamp >= _contracts[msg.sender]._nextPayment */\n      lt\n      iszero\n        /* \"contracts/sunsurance.sol\":6099:6189  require(block.timestamp >= _contracts[msg.sender]._nextPayment, \"Payment is not due yet.\") */\n      tag_132\n      jumpi\n      mload(0x40)\n      0x08c379a000000000000000000000000000000000000000000000000000000000\n      dup2\n      mstore\n      0x04\n      add\n      tag_133\n      swap1\n      tag_134\n      jump\t// in\n    tag_133:\n      mload(0x40)\n      dup1\n      swap2\n      sub\n      swap1\n      revert\n    tag_132:\n        /* \"contracts/sunsurance.sol\":3979:3990  _xchfAmount */\n      dup1\n        /* \"contracts/sunsurance.sol\":947:955  20 ether */\n      0x01158e460913d00000\n        /* \"contracts/sunsurance.sol\":5235:5246  _xchfAmount */\n      dup2\n        /* \"contracts/sunsurance.sol\":5235:5258  _xchfAmount >= MIN_PREM */\n      lt\n      iszero\n        /* \"contracts/sunsurance.sol\":5227:5289  require(_xchfAmount >= MIN_PREM, \"Premium is not sufficient.\") */\n      tag_136\n      jumpi\n      mload(0x40)\n      0x08c379a000000000000000000000000000000000000000000000000000000000\n      dup2\n      mstore\n      0x04\n      add\n      tag_137\n      swap1\n      tag_138\n      jump\t// in\n    tag_137:\n      mload(0x40)\n      dup1\n      swap2\n      sub\n      swap1\n      revert\n    tag_136:\n        /* \"contracts/sunsurance.sol\":4022:4037  address _sender */\n      0x00\n        /* \"contracts/sunsurance.sol\":4040:4050  msg.sender */\n      caller\n        /* \"contracts/sunsurance.sol\":4022:4050  address _sender = msg.sender */\n      swap1\n      pop\n        /* \"contracts/sunsurance.sol\":4061:4073  uint256 _now */\n      0x00\n        /* \"contracts/sunsurance.sol\":4076:4091  block.timestamp */\n      timestamp\n        /* \"contracts/sunsurance.sol\":4061:4091  uint256 _now = block.timestamp */\n      swap1\n      pop\n        /* \"contracts/sunsurance.sol\":4104:4137  SunsuranceContract storage _contr */\n      0x00\n        /* \"contracts/sunsurance.sol\":4140:4150  _contracts */\n      0x07\n        /* \"contracts/sunsurance.sol\":4140:4159  _contracts[_sender] */\n      0x00\n        /* \"contracts/sunsurance.sol\":4151:4158  _sender */\n      dup5\n        /* \"contracts/sunsurance.sol\":4140:4159  _contracts[_sender] */\n      0xffffffffffffffffffffffffffffffffffffffff\n      and\n      0xffffffffffffffffffffffffffffffffffffffff\n      and\n      dup2\n      mstore\n      0x20\n      add\n      swap1\n      dup2\n      mstore\n      0x20\n      add\n      0x00\n      keccak256\n        /* \"contracts/sunsurance.sol\":4104:4159  SunsuranceContract storage _contr = _contracts[_sender] */\n      swap1\n      pop\n        /* \"contracts/sunsurance.sol\":4170:4174  xCHF */\n      immutable(\"0x3531cc3dc5bb231b65d260771886cc583d8fe8fb29b457554cb1930a722a747d\")\n        /* \"contracts/sunsurance.sol\":4170:4187  xCHF.transferFrom */\n      0xffffffffffffffffffffffffffffffffffffffff\n      and\n      0x23b872dd\n        /* \"contracts/sunsurance.sol\":4188:4195  _sender */\n      dup5\n        /* \"contracts/sunsurance.sol\":4205:4209  this */\n      address\n        /* \"contracts/sunsurance.sol\":4212:4223  _xchfAmount */\n      dup9\n        /* \"contracts/sunsurance.sol\":4170:4224  xCHF.transferFrom(_sender, address(this), _xchfAmount) */\n      mload(0x40)\n      dup5\n      0xffffffff\n      and\n      0xe0\n      shl\n      dup2\n      mstore\n      0x04\n      add\n      tag_140\n      swap4\n      swap3\n      swap2\n      swap1\n      tag_141\n      jump\t// in\n    tag_140:\n      0x20\n      mload(0x40)\n      dup1\n      dup4\n      sub\n      dup2\n      0x00\n      dup8\n      gas\n      call\n      iszero\n      dup1\n      iszero\n      tag_143\n      jumpi\n      returndatasize\n      0x00\n      dup1\n      returndatacopy\n      revert(0x00, returndatasize)\n    tag_143:\n      pop\n      pop\n      pop\n      pop\n      mload(0x40)\n      returndatasize\n      not(0x1f)\n      0x1f\n      dup3\n      add\n      and\n      dup3\n      add\n      dup1\n      0x40\n      mstore\n      pop\n      dup2\n      add\n      swap1\n      tag_144\n      swap2\n      swap1\n      tag_145\n      jump\t// in\n    tag_144:\n      pop\n        /* \"contracts/sunsurance.sol\":4237:4256  uint256 _suntAmount */\n      0x00\n        /* \"contracts/sunsurance.sol\":4259:4288  _xchfAmount.mul(TOKEN_RATION) */\n      tag_146\n        /* \"contracts/sunsurance.sol\":1040:1042  20 */\n      0x14\n        /* \"contracts/sunsurance.sol\":4259:4270  _xchfAmount */\n      dup8\n        /* \"contracts/sunsurance.sol\":4259:4274  _xchfAmount.mul */\n      tag_147\n      swap1\n        /* \"contracts/sunsurance.sol\":4259:4288  _xchfAmount.mul(TOKEN_RATION) */\n      swap2\n      swap1\n      0xffffffff\n      and\n      jump\t// in\n    tag_146:\n        /* \"contracts/sunsurance.sol\":4237:4288  uint256 _suntAmount = _xchfAmount.mul(TOKEN_RATION) */\n      swap1\n      pop\n        /* \"contracts/sunsurance.sol\":4329:4373  _contr._chfValueContributed.add(_xchfAmount) */\n      tag_148\n        /* \"contracts/sunsurance.sol\":4361:4372  _xchfAmount */\n      dup7\n        /* \"contracts/sunsurance.sol\":4329:4335  _contr */\n      dup4\n        /* \"contracts/sunsurance.sol\":4329:4356  _contr._chfValueContributed */\n      0x02\n      add\n      sload\n        /* \"contracts/sunsurance.sol\":4329:4360  _contr._chfValueContributed.add */\n      tag_149\n      swap1\n        /* \"contracts/sunsurance.sol\":4329:4373  _contr._chfValueContributed.add(_xchfAmount) */\n      swap2\n      swap1\n      0xffffffff\n      and\n      jump\t// in\n    tag_148:\n        /* \"contracts/sunsurance.sol\":4299:4305  _contr */\n      dup3\n        /* \"contracts/sunsurance.sol\":4299:4326  _contr._chfValueContributed */\n      0x02\n      add\n        /* \"contracts/sunsurance.sol\":4299:4373  _contr._chfValueContributed = _contr._chfValueContributed.add(_xchfAmount) */\n      dup2\n      swap1\n      sstore\n      pop\n        /* \"contracts/sunsurance.sol\":4412:4454  _contr._suntValueReceived.add(_suntAmount) */\n      tag_150\n        /* \"contracts/sunsurance.sol\":4442:4453  _suntAmount */\n      dup2\n        /* \"contracts/sunsurance.sol\":4412:4418  _contr */\n      dup4\n        /* \"contracts/sunsurance.sol\":4412:4437  _contr._suntValueReceived */\n      0x03\n      add\n      sload\n        /* \"contracts/sunsurance.sol\":4412:4441  _contr._suntValueReceived.add */\n      tag_149\n      swap1\n        /* \"contracts/sunsurance.sol\":4412:4454  _contr._suntValueReceived.add(_suntAmount) */\n      swap2\n      swap1\n      0xffffffff\n      and\n      jump\t// in\n    tag_150:\n        /* \"contracts/sunsurance.sol\":4384:4390  _contr */\n      dup3\n        /* \"contracts/sunsurance.sol\":4384:4409  _contr._suntValueReceived */\n      0x03\n      add\n        /* \"contracts/sunsurance.sol\":4384:4454  _contr._suntValueReceived = _contr._suntValueReceived.add(_suntAmount) */\n      dup2\n      swap1\n      sstore\n      pop\n        /* \"contracts/sunsurance.sol\":4491:4495  _now */\n      dup3\n        /* \"contracts/sunsurance.sol\":4465:4471  _contr */\n      dup3\n        /* \"contracts/sunsurance.sol\":4465:4488  _contr._previousPayment */\n      0x06\n      add\n        /* \"contracts/sunsurance.sol\":4465:4495  _contr._previousPayment = _now */\n      dup2\n      swap1\n      sstore\n      pop\n        /* \"contracts/sunsurance.sol\":4528:4545  _now.add(30 days) */\n      tag_151\n        /* \"contracts/sunsurance.sol\":4537:4544  30 days */\n      0x278d00\n        /* \"contracts/sunsurance.sol\":4528:4532  _now */\n      dup5\n        /* \"contracts/sunsurance.sol\":4528:4536  _now.add */\n      tag_149\n      swap1\n        /* \"contracts/sunsurance.sol\":4528:4545  _now.add(30 days) */\n      swap2\n      swap1\n      0xffffffff\n      and\n      jump\t// in\n    tag_151:\n        /* \"contracts/sunsurance.sol\":4506:4512  _contr */\n      dup3\n        /* \"contracts/sunsurance.sol\":4506:4525  _contr._nextPayment */\n      0x07\n      add\n        /* \"contracts/sunsurance.sol\":4506:4545  _contr._nextPayment = _now.add(30 days) */\n      dup2\n      swap1\n      sstore\n      pop\n        /* \"contracts/sunsurance.sol\":4556:4565  _payments */\n      0x0a\n        /* \"contracts/sunsurance.sol\":4556:4574  _payments[_sender] */\n      0x00\n        /* \"contracts/sunsurance.sol\":4566:4573  _sender */\n      dup6\n        /* \"contracts/sunsurance.sol\":4556:4574  _payments[_sender] */\n      0xffffffffffffffffffffffffffffffffffffffff\n      and\n      0xffffffffffffffffffffffffffffffffffffffff\n      and\n      dup2\n      mstore\n      0x20\n      add\n      swap1\n      dup2\n      mstore\n      0x20\n      add\n      0x00\n      keccak256\n        /* \"contracts/sunsurance.sol\":4580:4584  _now */\n      dup4\n        /* \"contracts/sunsurance.sol\":4556:4585  _payments[_sender].push(_now) */\n      swap1\n      dup1\n      0x01\n      dup2\n      sload\n      add\n      dup1\n      dup3\n      sstore\n      dup1\n      swap2\n      pop\n      pop\n      0x01\n      swap1\n      sub\n      swap1\n      0x00\n      mstore\n      keccak256(0x00, 0x20)\n      add\n      0x00\n      swap1\n      swap2\n      swap1\n      swap2\n      swap1\n      swap2\n      pop\n      sstore\n        /* \"contracts/sunsurance.sol\":4598:4625  _mint(_sender, _suntAmount) */\n      tag_153\n        /* \"contracts/sunsurance.sol\":4604:4611  _sender */\n      dup5\n        /* \"contracts/sunsurance.sol\":4613:4624  _suntAmount */\n      dup3\n        /* \"contracts/sunsurance.sol\":4598:4603  _mint */\n      tag_154\n        /* \"contracts/sunsurance.sol\":4598:4625  _mint(_sender, _suntAmount) */\n      jump\t// in\n    tag_153:\n        /* \"contracts/sunsurance.sol\":3992:4633  {... */\n      pop\n      pop\n      pop\n      pop\n        /* \"contracts/sunsurance.sol\":6200:6201  _ */\n      pop\n        /* \"contracts/sunsurance.sol\":3872:4633  function pay(uint _xchfAmount) external ... */\n      pop\n      jump\t// out\n        /* \"contracts/sunsurance.sol\":2013:3125  function register(uint256 _xchfAmount, string calldata _location, uint8 _durationYears) external ... */\n    tag_71:\n        /* \"contracts/sunsurance.sol\":5683:5703  _isRegisteredAddress */\n      0x08\n        /* \"contracts/sunsurance.sol\":5683:5715  _isRegisteredAddress[msg.sender] */\n      0x00\n        /* \"contracts/sunsurance.sol\":5704:5714  msg.sender */\n      caller\n        /* \"contracts/sunsurance.sol\":5683:5715  _isRegisteredAddress[msg.sender] */\n      0xffffffffffffffffffffffffffffffffffffffff\n      and\n      0xffffffffffffffffffffffffffffffffffffffff\n      and\n      dup2\n      mstore\n      0x20\n      add\n      swap1\n      dup2\n      mstore\n      0x20\n      add\n      0x00\n      keccak256\n      0x00\n      swap1\n      sload\n      swap1\n      0x0100\n      exp\n      swap1\n      div\n      0xff\n      and\n        /* \"contracts/sunsurance.sol\":5682:5715  !_isRegisteredAddress[msg.sender] */\n      iszero\n        /* \"contracts/sunsurance.sol\":5674:5750  require(!_isRegisteredAddress[msg.sender], \"The client is already insured.\") */\n      tag_156\n      jumpi\n      mload(0x40)\n      0x08c379a000000000000000000000000000000000000000000000000000000000\n      dup2\n      mstore\n      0x04\n      add\n      tag_157\n      swap1\n      tag_158\n      jump\t// in\n    tag_157:\n      mload(0x40)\n      dup1\n      swap2\n      sub\n      swap1\n      revert\n    tag_156:\n        /* \"contracts/sunsurance.sol\":2177:2188  _xchfAmount */\n      dup4\n        /* \"contracts/sunsurance.sol\":947:955  20 ether */\n      0x01158e460913d00000\n        /* \"contracts/sunsurance.sol\":5235:5246  _xchfAmount */\n      dup2\n        /* \"contracts/sunsurance.sol\":5235:5258  _xchfAmount >= MIN_PREM */\n      lt\n      iszero\n        /* \"contracts/sunsurance.sol\":5227:5289  require(_xchfAmount >= MIN_PREM, \"Premium is not sufficient.\") */\n      tag_160\n      jumpi\n      mload(0x40)\n      0x08c379a000000000000000000000000000000000000000000000000000000000\n      dup2\n      mstore\n      0x04\n      add\n      tag_161\n      swap1\n      tag_138\n      jump\t// in\n    tag_161:\n      mload(0x40)\n      dup1\n      swap2\n      sub\n      swap1\n      revert\n    tag_160:\n        /* \"contracts/sunsurance.sol\":2362:2377  address _sender */\n      0x00\n        /* \"contracts/sunsurance.sol\":2380:2390  msg.sender */\n      caller\n        /* \"contracts/sunsurance.sol\":2362:2390  address _sender = msg.sender */\n      swap1\n      pop\n        /* \"contracts/sunsurance.sol\":2401:2413  uint256 _now */\n      0x00\n        /* \"contracts/sunsurance.sol\":2416:2431  block.timestamp */\n      timestamp\n        /* \"contracts/sunsurance.sol\":2401:2431  uint256 _now = block.timestamp */\n      swap1\n      pop\n        /* \"contracts/sunsurance.sol\":2442:2463  uint256 _durationDays */\n      0x00\n        /* \"contracts/sunsurance.sol\":2466:2489  _durationYears.mul(365) */\n      tag_163\n        /* \"contracts/sunsurance.sol\":2485:2488  365 */\n      0x016d\n        /* \"contracts/sunsurance.sol\":2466:2480  _durationYears */\n      dup7\n        /* \"contracts/sunsurance.sol\":2466:2484  _durationYears.mul */\n      0xff\n      and\n      tag_147\n      swap1\n        /* \"contracts/sunsurance.sol\":2466:2489  _durationYears.mul(365) */\n      swap2\n      swap1\n      0xffffffff\n      and\n      jump\t// in\n    tag_163:\n        /* \"contracts/sunsurance.sol\":2442:2489  uint256 _durationDays = _durationYears.mul(365) */\n      swap1\n      pop\n        /* \"contracts/sunsurance.sol\":2510:2514  xCHF */\n      immutable(\"0x3531cc3dc5bb231b65d260771886cc583d8fe8fb29b457554cb1930a722a747d\")\n        /* \"contracts/sunsurance.sol\":2510:2527  xCHF.transferFrom */\n      0xffffffffffffffffffffffffffffffffffffffff\n      and\n      0x23b872dd\n        /* \"contracts/sunsurance.sol\":2528:2535  _sender */\n      dup5\n        /* \"contracts/sunsurance.sol\":2545:2549  this */\n      address\n        /* \"contracts/sunsurance.sol\":2552:2563  _xchfAmount */\n      dup12\n        /* \"contracts/sunsurance.sol\":2510:2564  xCHF.transferFrom(_sender, address(this), _xchfAmount) */\n      mload(0x40)\n      dup5\n      0xffffffff\n      and\n      0xe0\n      shl\n      dup2\n      mstore\n      0x04\n      add\n      tag_164\n      swap4\n      swap3\n      swap2\n      swap1\n      tag_141\n      jump\t// in\n    tag_164:\n      0x20\n      mload(0x40)\n      dup1\n      dup4\n      sub\n      dup2\n      0x00\n      dup8\n      gas\n      call\n      iszero\n      dup1\n      iszero\n      tag_166\n      jumpi\n      returndatasize\n      0x00\n      dup1\n      returndatacopy\n      revert(0x00, returndatasize)\n    tag_166:\n      pop\n      pop\n      pop\n      pop\n      mload(0x40)\n      returndatasize\n      not(0x1f)\n      0x1f\n      dup3\n      add\n      and\n      dup3\n      add\n      dup1\n      0x40\n      mstore\n      pop\n      dup2\n      add\n      swap1\n      tag_167\n      swap2\n      swap1\n      tag_145\n      jump\t// in\n    tag_167:\n      pop\n        /* \"contracts/sunsurance.sol\":2575:2594  uint256 _suntAmount */\n      0x00\n        /* \"contracts/sunsurance.sol\":2597:2626  _xchfAmount.mul(TOKEN_RATION) */\n      tag_168\n        /* \"contracts/sunsurance.sol\":1040:1042  20 */\n      0x14\n        /* \"contracts/sunsurance.sol\":2597:2608  _xchfAmount */\n      dup11\n        /* \"contracts/sunsurance.sol\":2597:2612  _xchfAmount.mul */\n      tag_147\n      swap1\n        /* \"contracts/sunsurance.sol\":2597:2626  _xchfAmount.mul(TOKEN_RATION) */\n      swap2\n      swap1\n      0xffffffff\n      and\n      jump\t// in\n    tag_168:\n        /* \"contracts/sunsurance.sol\":2575:2626  uint256 _suntAmount = _xchfAmount.mul(TOKEN_RATION) */\n      swap1\n      pop\n        /* \"contracts/sunsurance.sol\":2659:2929  SunsuranceContract(... */\n      mload(0x40)\n      dup1\n      0x0120\n      add\n      0x40\n      mstore\n      dup1\n        /* \"contracts/sunsurance.sol\":2692:2699  _sender */\n      dup6\n        /* \"contracts/sunsurance.sol\":2659:2929  SunsuranceContract(... */\n      0xffffffffffffffffffffffffffffffffffffffff\n      and\n      dup2\n      mstore\n      0x20\n      add\n        /* \"contracts/sunsurance.sol\":2714:2723  _location */\n      dup10\n      dup10\n        /* \"contracts/sunsurance.sol\":2659:2929  SunsuranceContract(... */\n      dup1\n      dup1\n      0x1f\n      add\n      0x20\n      dup1\n      swap2\n      div\n      mul\n      0x20\n      add\n      mload(0x40)\n      swap1\n      dup2\n      add\n      0x40\n      mstore\n      dup1\n      swap4\n      swap3\n      swap2\n      swap1\n      dup2\n      dup2\n      mstore\n      0x20\n      add\n      dup4\n      dup4\n      dup1\n      dup3\n      dup5\n      calldatacopy\n      0x00\n      dup2\n      dup5\n      add\n      mstore\n      not(0x1f)\n      0x1f\n      dup3\n      add\n      and\n      swap1\n      pop\n      dup1\n      dup4\n      add\n      swap3\n      pop\n      pop\n      pop\n      pop\n      pop\n      pop\n      pop\n      dup2\n      mstore\n      0x20\n      add\n        /* \"contracts/sunsurance.sol\":2738:2749  _xchfAmount */\n      dup11\n        /* \"contracts/sunsurance.sol\":2659:2929  SunsuranceContract(... */\n      dup2\n      mstore\n      0x20\n      add\n        /* \"contracts/sunsurance.sol\":2764:2775  _suntAmount */\n      dup3\n        /* \"contracts/sunsurance.sol\":2659:2929  SunsuranceContract(... */\n      dup2\n      mstore\n      0x20\n      add\n        /* \"contracts/sunsurance.sol\":2790:2801  _xchfAmount */\n      dup11\n        /* \"contracts/sunsurance.sol\":2659:2929  SunsuranceContract(... */\n      dup2\n      mstore\n      0x20\n      add\n        /* \"contracts/sunsurance.sol\":2816:2820  _now */\n      dup5\n        /* \"contracts/sunsurance.sol\":2659:2929  SunsuranceContract(... */\n      dup2\n      mstore\n      0x20\n      add\n        /* \"contracts/sunsurance.sol\":2835:2839  _now */\n      dup5\n        /* \"contracts/sunsurance.sol\":2659:2929  SunsuranceContract(... */\n      dup2\n      mstore\n      0x20\n      add\n        /* \"contracts/sunsurance.sol\":2854:2871  _now.add(30 days) */\n      tag_169\n        /* \"contracts/sunsurance.sol\":2863:2870  30 days */\n      0x278d00\n        /* \"contracts/sunsurance.sol\":2854:2858  _now */\n      dup7\n        /* \"contracts/sunsurance.sol\":2854:2862  _now.add */\n      tag_149\n      swap1\n        /* \"contracts/sunsurance.sol\":2854:2871  _now.add(30 days) */\n      swap2\n      swap1\n      0xffffffff\n      and\n      jump\t// in\n    tag_169:\n        /* \"contracts/sunsurance.sol\":2659:2929  SunsuranceContract(... */\n      dup2\n      mstore\n      0x20\n      add\n        /* \"contracts/sunsurance.sol\":2886:2918  _now.add(_durationDays * 1 days) */\n      tag_170\n        /* \"contracts/sunsurance.sol\":2911:2917  1 days */\n      0x015180\n        /* \"contracts/sunsurance.sol\":2895:2908  _durationDays */\n      dup6\n        /* \"contracts/sunsurance.sol\":2895:2917  _durationDays * 1 days */\n      tag_171\n      swap2\n      swap1\n      tag_172\n      jump\t// in\n    tag_171:\n        /* \"contracts/sunsurance.sol\":2886:2890  _now */\n      dup7\n        /* \"contracts/sunsurance.sol\":2886:2894  _now.add */\n      tag_149\n      swap1\n        /* \"contracts/sunsurance.sol\":2886:2918  _now.add(_durationDays * 1 days) */\n      swap2\n      swap1\n      0xffffffff\n      and\n      jump\t// in\n    tag_170:\n        /* \"contracts/sunsurance.sol\":2659:2929  SunsuranceContract(... */\n      dup2\n      mstore\n      pop\n        /* \"contracts/sunsurance.sol\":2637:2647  _contracts */\n      0x07\n        /* \"contracts/sunsurance.sol\":2637:2656  _contracts[_sender] */\n      0x00\n        /* \"contracts/sunsurance.sol\":2648:2655  _sender */\n      dup7\n        /* \"contracts/sunsurance.sol\":2637:2656  _contracts[_sender] */\n      0xffffffffffffffffffffffffffffffffffffffff\n      and\n      0xffffffffffffffffffffffffffffffffffffffff\n      and\n      dup2\n      mstore\n      0x20\n      add\n      swap1\n      dup2\n      mstore\n      0x20\n      add\n      0x00\n      keccak256\n        /* \"contracts/sunsurance.sol\":2637:2929  _contracts[_sender] = SunsuranceContract(... */\n      0x00\n      dup3\n      add\n      mload\n      dup2\n      0x00\n      add\n      exp(0x0100, 0x00)\n      dup2\n      sload\n      dup2\n      0xffffffffffffffffffffffffffffffffffffffff\n      mul\n      not\n      and\n      swap1\n      dup4\n      0xffffffffffffffffffffffffffffffffffffffff\n      and\n      mul\n      or\n      swap1\n      sstore\n      pop\n      0x20\n      dup3\n      add\n      mload\n      dup2\n      0x01\n      add\n      swap1\n      dup2\n      tag_173\n      swap2\n      swap1\n      tag_174\n      jump\t// in\n    tag_173:\n      pop\n      0x40\n      dup3\n      add\n      mload\n      dup2\n      0x02\n      add\n      sstore\n      0x60\n      dup3\n      add\n      mload\n      dup2\n      0x03\n      add\n      sstore\n      0x80\n      dup3\n      add\n      mload\n      dup2\n      0x04\n      add\n      sstore\n      0xa0\n      dup3\n      add\n      mload\n      dup2\n      0x05\n      add\n      sstore\n      0xc0\n      dup3\n      add\n      mload\n      dup2\n      0x06\n      add\n      sstore\n      0xe0\n      dup3\n      add\n      mload\n      dup2\n      0x07\n      add\n      sstore\n      0x0100\n      dup3\n      add\n      mload\n      dup2\n      0x08\n      add\n      sstore\n      swap1\n      pop\n      pop\n        /* \"contracts/sunsurance.sol\":2974:2978  true */\n      0x01\n        /* \"contracts/sunsurance.sol\":2942:2962  _isRegisteredAddress */\n      0x08\n        /* \"contracts/sunsurance.sol\":2942:2971  _isRegisteredAddress[_sender] */\n      0x00\n        /* \"contracts/sunsurance.sol\":2963:2970  _sender */\n      dup7\n        /* \"contracts/sunsurance.sol\":2942:2971  _isRegisteredAddress[_sender] */\n      0xffffffffffffffffffffffffffffffffffffffff\n      and\n      0xffffffffffffffffffffffffffffffffffffffff\n      and\n      dup2\n      mstore\n      0x20\n      add\n      swap1\n      dup2\n      mstore\n      0x20\n      add\n      0x00\n      keccak256\n      0x00\n        /* \"contracts/sunsurance.sol\":2942:2978  _isRegisteredAddress[_sender] = true */\n      0x0100\n      exp\n      dup2\n      sload\n      dup2\n      0xff\n      mul\n      not\n      and\n      swap1\n      dup4\n      iszero\n      iszero\n      mul\n      or\n      swap1\n      sstore\n      pop\n        /* \"contracts/sunsurance.sol\":2989:2998  _payments */\n      0x0a\n        /* \"contracts/sunsurance.sol\":2989:3007  _payments[_sender] */\n      0x00\n        /* \"contracts/sunsurance.sol\":2999:3006  _sender */\n      dup6\n        /* \"contracts/sunsurance.sol\":2989:3007  _payments[_sender] */\n      0xffffffffffffffffffffffffffffffffffffffff\n      and\n      0xffffffffffffffffffffffffffffffffffffffff\n      and\n      dup2\n      mstore\n      0x20\n      add\n      swap1\n      dup2\n      mstore\n      0x20\n      add\n      0x00\n      keccak256\n        /* \"contracts/sunsurance.sol\":3013:3028  block.timestamp */\n      timestamp\n        /* \"contracts/sunsurance.sol\":2989:3029  _payments[_sender].push(block.timestamp) */\n      swap1\n      dup1\n      0x01\n      dup2\n      sload\n      add\n      dup1\n      dup3\n      sstore\n      dup1\n      swap2\n      pop\n      pop\n      0x01\n      swap1\n      sub\n      swap1\n      0x00\n      mstore\n      keccak256(0x00, 0x20)\n      add\n      0x00\n      swap1\n      swap2\n      swap1\n      swap2\n      swap1\n      swap2\n      pop\n      sstore\n        /* \"contracts/sunsurance.sol\":3042:3069  _mint(_sender, _suntAmount) */\n      tag_176\n        /* \"contracts/sunsurance.sol\":3048:3055  _sender */\n      dup5\n        /* \"contracts/sunsurance.sol\":3057:3068  _suntAmount */\n      dup3\n        /* \"contracts/sunsurance.sol\":3042:3047  _mint */\n      tag_154\n        /* \"contracts/sunsurance.sol\":3042:3069  _mint(_sender, _suntAmount) */\n      jump\t// in\n    tag_176:\n        /* \"contracts/sunsurance.sol\":3103:3110  _sender */\n      dup4\n        /* \"contracts/sunsurance.sol\":3087:3117  ContractSigning(_sender, _now) */\n      0xffffffffffffffffffffffffffffffffffffffff\n      and\n      0x9f3f24b66e46f5c1722305db2fb5f085869d897102460780559f0386085fed3f\n        /* \"contracts/sunsurance.sol\":3112:3116  _now */\n      dup5\n        /* \"contracts/sunsurance.sol\":3087:3117  ContractSigning(_sender, _now) */\n      mload(0x40)\n      tag_177\n      swap2\n      swap1\n      tag_34\n      jump\t// in\n    tag_177:\n      mload(0x40)\n      dup1\n      swap2\n      sub\n      swap1\n      log2\n        /* \"contracts/sunsurance.sol\":2190:3125  {... */\n      pop\n      pop\n      pop\n      pop\n        /* \"contracts/sunsurance.sol\":5761:5762  _ */\n      pop\n        /* \"contracts/sunsurance.sol\":2013:3125  function register(uint256 _xchfAmount, string calldata _location, uint8 _durationYears) external ... */\n      pop\n      pop\n      pop\n      pop\n      jump\t// out\n        /* \"@openzeppelin/contracts/token/ERC20/ERC20.sol\":3846:3986  function allowance(address owner, address spender) public view virtual returns (uint256) {... */\n    tag_75:\n        /* \"@openzeppelin/contracts/token/ERC20/ERC20.sol\":3926:3933  uint256 */\n      0x00\n        /* \"@openzeppelin/contracts/token/ERC20/ERC20.sol\":3952:3963  _allowances */\n      0x01\n        /* \"@openzeppelin/contracts/token/ERC20/ERC20.sol\":3952:3970  _allowances[owner] */\n      0x00\n        /* \"@openzeppelin/contracts/token/ERC20/ERC20.sol\":3964:3969  owner */\n      dup5\n        /* \"@openzeppelin/contracts/token/ERC20/ERC20.sol\":3952:3970  _allowances[owner] */\n      0xffffffffffffffffffffffffffffffffffffffff\n      and\n      0xffffffffffffffffffffffffffffffffffffffff\n      and\n      dup2\n      mstore\n      0x20\n      add\n      swap1\n      dup2\n      mstore\n      0x20\n      add\n      0x00\n      keccak256\n        /* \"@openzeppelin/contracts/token/ERC20/ERC20.sol\":3952:3979  _allowances[owner][spender] */\n      0x00\n        /* \"@openzeppelin/contracts/token/ERC20/ERC20.sol\":3971:3978  spender */\n      dup4\n        /* \"@openzeppelin/contracts/token/ERC20/ERC20.sol\":3952:3979  _allowances[owner][spender] */\n      0xffffffffffffffffffffffffffffffffffffffff\n      and\n      0xffffffffffffffffffffffffffffffffffffffff\n      and\n      dup2\n      mstore\n      0x20\n      add\n      swap1\n      dup2\n      mstore\n      0x20\n      add\n      0x00\n      keccak256\n      sload\n        /* \"@openzeppelin/contracts/token/ERC20/ERC20.sol\":3945:3979  return _allowances[owner][spender] */\n      swap1\n      pop\n        /* \"@openzeppelin/contracts/token/ERC20/ERC20.sol\":3846:3986  function allowance(address owner, address spender) public view virtual returns (uint256) {... */\n      swap3\n      swap2\n      pop\n      pop\n      jump\t// out\n        /* \"contracts/sunsurance.sol\":366:394  IERC20 public immutable xCHF */\n    tag_78:\n      immutable(\"0x3531cc3dc5bb231b65d260771886cc583d8fe8fb29b457554cb1930a722a747d\")\n      dup2\n      jump\t// out\n        /* \"contracts/sunsurance.sol\":3189:3793  function claimSunsurance(uint256 _suntAmount) external ... */\n    tag_83:\n        /* \"contracts/sunsurance.sol\":5897:5917  _isRegisteredAddress */\n      0x08\n        /* \"contracts/sunsurance.sol\":5897:5929  _isRegisteredAddress[msg.sender] */\n      0x00\n        /* \"contracts/sunsurance.sol\":5918:5928  msg.sender */\n      caller\n        /* \"contracts/sunsurance.sol\":5897:5929  _isRegisteredAddress[msg.sender] */\n      0xffffffffffffffffffffffffffffffffffffffff\n      and\n      0xffffffffffffffffffffffffffffffffffffffff\n      and\n      dup2\n      mstore\n      0x20\n      add\n      swap1\n      dup2\n      mstore\n      0x20\n      add\n      0x00\n      keccak256\n      0x00\n      swap1\n      sload\n      swap1\n      0x0100\n      exp\n      swap1\n      div\n      0xff\n      and\n        /* \"contracts/sunsurance.sol\":5889:5960  require(_isRegisteredAddress[msg.sender], \"The client is not insured.\") */\n      tag_180\n      jumpi\n      mload(0x40)\n      0x08c379a000000000000000000000000000000000000000000000000000000000\n      dup2\n      mstore\n      0x04\n      add\n      tag_181\n      swap1\n      tag_121\n      jump\t// in\n    tag_181:\n      mload(0x40)\n      dup1\n      swap2\n      sub\n      swap1\n      revert\n    tag_180:\n        /* \"contracts/sunsurance.sol\":3306:3317  _suntAmount */\n      dup1\n        /* \"contracts/sunsurance.sol\":991:1001  1000 ether */\n      0x3635c9adc5dea00000\n        /* \"contracts/sunsurance.sol\":5471:5482  _suntAmount */\n      dup2\n        /* \"contracts/sunsurance.sol\":5471:5495  _suntAmount >= MIN_CLAIM */\n      lt\n      iszero\n        /* \"contracts/sunsurance.sol\":5463:5524  require(_suntAmount >= MIN_CLAIM, \"Claim is not sufficient.\") */\n      tag_183\n      jumpi\n      mload(0x40)\n      0x08c379a000000000000000000000000000000000000000000000000000000000\n      dup2\n      mstore\n      0x04\n      add\n      tag_184\n      swap1\n      tag_185\n      jump\t// in\n    tag_184:\n      mload(0x40)\n      dup1\n      swap2\n      sub\n      swap1\n      revert\n    tag_183:\n        /* \"contracts/sunsurance.sol\":3332:3347  address _sender */\n      0x00\n        /* \"contracts/sunsurance.sol\":3350:3360  msg.sender */\n      caller\n        /* \"contracts/sunsurance.sol\":3332:3360  address _sender = msg.sender */\n      swap1\n      pop\n        /* \"contracts/sunsurance.sol\":3371:3383  uint256 _now */\n      0x00\n        /* \"contracts/sunsurance.sol\":3386:3401  block.timestamp */\n      timestamp\n        /* \"contracts/sunsurance.sol\":3371:3401  uint256 _now = block.timestamp */\n      swap1\n      pop\n        /* \"contracts/sunsurance.sol\":3414:3433  uint256 _xchfAmount */\n      0x00\n        /* \"contracts/sunsurance.sol\":3436:3465  _suntAmount.div(TOKEN_RATION) */\n      tag_187\n        /* \"contracts/sunsurance.sol\":1040:1042  20 */\n      0x14\n        /* \"contracts/sunsurance.sol\":3436:3447  _suntAmount */\n      dup7\n        /* \"contracts/sunsurance.sol\":3436:3451  _suntAmount.div */\n      tag_188\n      swap1\n        /* \"contracts/sunsurance.sol\":3436:3465  _suntAmount.div(TOKEN_RATION) */\n      swap2\n      swap1\n      0xffffffff\n      and\n      jump\t// in\n    tag_187:\n        /* \"contracts/sunsurance.sol\":3414:3465  uint256 _xchfAmount = _suntAmount.div(TOKEN_RATION) */\n      swap1\n      pop\n        /* \"contracts/sunsurance.sol\":3476:3509  SunsuranceContract storage _contr */\n      0x00\n        /* \"contracts/sunsurance.sol\":3512:3522  _contracts */\n      0x07\n        /* \"contracts/sunsurance.sol\":3512:3531  _contracts[_sender] */\n      0x00\n        /* \"contracts/sunsurance.sol\":3523:3530  _sender */\n      dup6\n        /* \"contracts/sunsurance.sol\":3512:3531  _contracts[_sender] */\n      0xffffffffffffffffffffffffffffffffffffffff\n      and\n      0xffffffffffffffffffffffffffffffffffffffff\n      and\n      dup2\n      mstore\n      0x20\n      add\n      swap1\n      dup2\n      mstore\n      0x20\n      add\n      0x00\n      keccak256\n        /* \"contracts/sunsurance.sol\":3476:3531  SunsuranceContract storage _contr = _contracts[_sender] */\n      swap1\n      pop\n        /* \"contracts/sunsurance.sol\":3574:3618  _contr._chfValueContributed.sub(_xchfAmount) */\n      tag_189\n        /* \"contracts/sunsurance.sol\":3606:3617  _xchfAmount */\n      dup3\n        /* \"contracts/sunsurance.sol\":3574:3580  _contr */\n      dup3\n        /* \"contracts/sunsurance.sol\":3574:3601  _contr._chfValueContributed */\n      0x02\n      add\n      sload\n        /* \"contracts/sunsurance.sol\":3574:3605  _contr._chfValueContributed.sub */\n      tag_190\n      swap1\n        /* \"contracts/sunsurance.sol\":3574:3618  _contr._chfValueContributed.sub(_xchfAmount) */\n      swap2\n      swap1\n      0xffffffff\n      and\n      jump\t// in\n    tag_189:\n        /* \"contracts/sunsurance.sol\":3544:3550  _contr */\n      dup2\n        /* \"contracts/sunsurance.sol\":3544:3571  _contr._chfValueContributed */\n      0x02\n      add\n        /* \"contracts/sunsurance.sol\":3544:3618  _contr._chfValueContributed = _contr._chfValueContributed.sub(_xchfAmount) */\n      dup2\n      swap1\n      sstore\n      pop\n        /* \"contracts/sunsurance.sol\":3657:3699  _contr._suntValueReceived.sub(_suntAmount) */\n      tag_191\n        /* \"contracts/sunsurance.sol\":3687:3698  _suntAmount */\n      dup7\n        /* \"contracts/sunsurance.sol\":3657:3663  _contr */\n      dup3\n        /* \"contracts/sunsurance.sol\":3657:3682  _contr._suntValueReceived */\n      0x03\n      add\n      sload\n        /* \"contracts/sunsurance.sol\":3657:3686  _contr._suntValueReceived.sub */\n      tag_190\n      swap1\n        /* \"contracts/sunsurance.sol\":3657:3699  _contr._suntValueReceived.sub(_suntAmount) */\n      swap2\n      swap1\n      0xffffffff\n      and\n      jump\t// in\n    tag_191:\n        /* \"contracts/sunsurance.sol\":3629:3635  _contr */\n      dup2\n        /* \"contracts/sunsurance.sol\":3629:3654  _contr._suntValueReceived */\n      0x03\n      add\n        /* \"contracts/sunsurance.sol\":3629:3699  _contr._suntValueReceived = _contr._suntValueReceived.sub(_suntAmount) */\n      dup2\n      swap1\n      sstore\n      pop\n        /* \"contracts/sunsurance.sol\":3712:3719  _claims */\n      0x09\n        /* \"contracts/sunsurance.sol\":3712:3728  _claims[_sender] */\n      0x00\n        /* \"contracts/sunsurance.sol\":3720:3727  _sender */\n      dup6\n        /* \"contracts/sunsurance.sol\":3712:3728  _claims[_sender] */\n      0xffffffffffffffffffffffffffffffffffffffff\n      and\n      0xffffffffffffffffffffffffffffffffffffffff\n      and\n      dup2\n      mstore\n      0x20\n      add\n      swap1\n      dup2\n      mstore\n      0x20\n      add\n      0x00\n      keccak256\n        /* \"contracts/sunsurance.sol\":3734:3738  _now */\n      dup4\n        /* \"contracts/sunsurance.sol\":3712:3739  _claims[_sender].push(_now) */\n      swap1\n      dup1\n      0x01\n      dup2\n      sload\n      add\n      dup1\n      dup3\n      sstore\n      dup1\n      swap2\n      pop\n      pop\n      0x01\n      swap1\n      sub\n      swap1\n      0x00\n      mstore\n      keccak256(0x00, 0x20)\n      add\n      0x00\n      swap1\n      swap2\n      swap1\n      swap2\n      swap1\n      swap2\n      pop\n      sstore\n        /* \"contracts/sunsurance.sol\":3750:3754  xCHF */\n      immutable(\"0x3531cc3dc5bb231b65d260771886cc583d8fe8fb29b457554cb1930a722a747d\")\n        /* \"contracts/sunsurance.sol\":3750:3763  xCHF.transfer */\n      0xffffffffffffffffffffffffffffffffffffffff\n      and\n      0xa9059cbb\n        /* \"contracts/sunsurance.sol\":3764:3771  _sender */\n      dup6\n        /* \"contracts/sunsurance.sol\":3773:3784  _xchfAmount */\n      dup5\n        /* \"contracts/sunsurance.sol\":3750:3785  xCHF.transfer(_sender, _xchfAmount) */\n      mload(0x40)\n      dup4\n      0xffffffff\n      and\n      0xe0\n      shl\n      dup2\n      mstore\n      0x04\n      add\n      tag_193\n      swap3\n      swap2\n      swap1\n      tag_194\n      jump\t// in\n    tag_193:\n      0x20\n      mload(0x40)\n      dup1\n      dup4\n      sub\n      dup2\n      0x00\n      dup8\n      gas\n      call\n      iszero\n      dup1\n      iszero\n      tag_196\n      jumpi\n      returndatasize\n      0x00\n      dup1\n      returndatacopy\n      revert(0x00, returndatasize)\n    tag_196:\n      pop\n      pop\n      pop\n      pop\n      mload(0x40)\n      returndatasize\n      not(0x1f)\n      0x1f\n      dup3\n      add\n      and\n      dup3\n      add\n      dup1\n      0x40\n      mstore\n      pop\n      dup2\n      add\n      swap1\n      tag_197\n      swap2\n      swap1\n      tag_145\n      jump\t// in\n    tag_197:\n      pop\n        /* \"contracts/sunsurance.sol\":3319:3793  {... */\n      pop\n      pop\n      pop\n      pop\n        /* \"contracts/sunsurance.sol\":5971:5972  _ */\n      pop\n        /* \"contracts/sunsurance.sol\":3189:3793  function claimSunsurance(uint256 _suntAmount) external ... */\n      pop\n      jump\t// out\n        /* \"@openzeppelin/contracts/utils/Context.sol\":656:752  function _msgSender() internal view virtual returns (address) {... */\n    tag_93:\n        /* \"@openzeppelin/contracts/utils/Context.sol\":709:716  address */\n      0x00\n        /* \"@openzeppelin/contracts/utils/Context.sol\":735:745  msg.sender */\n      caller\n        /* \"@openzeppelin/contracts/utils/Context.sol\":728:745  return msg.sender */\n      swap1\n      pop\n        /* \"@openzeppelin/contracts/utils/Context.sol\":656:752  function _msgSender() internal view virtual returns (address) {... */\n      swap1\n      jump\t// out\n        /* \"@openzeppelin/contracts/token/ERC20/ERC20.sol\":8989:9117  function _approve(address owner, address spender, uint256 value) internal {... */\n    tag_95:\n        /* \"@openzeppelin/contracts/token/ERC20/ERC20.sol\":9073:9110  _approve(owner, spender, value, true) */\n      tag_200\n        /* \"@openzeppelin/contracts/token/ERC20/ERC20.sol\":9082:9087  owner */\n      dup4\n        /* \"@openzeppelin/contracts/token/ERC20/ERC20.sol\":9089:9096  spender */\n      dup4\n        /* \"@openzeppelin/contracts/token/ERC20/ERC20.sol\":9098:9103  value */\n      dup4\n        /* \"@openzeppelin/contracts/token/ERC20/ERC20.sol\":9105:9109  true */\n      0x01\n        /* \"@openzeppelin/contracts/token/ERC20/ERC20.sol\":9073:9081  _approve */\n      tag_201\n        /* \"@openzeppelin/contracts/token/ERC20/ERC20.sol\":9073:9110  _approve(owner, spender, value, true) */\n      jump\t// in\n    tag_200:\n        /* \"@openzeppelin/contracts/token/ERC20/ERC20.sol\":8989:9117  function _approve(address owner, address spender, uint256 value) internal {... */\n      pop\n      pop\n      pop\n      jump\t// out\n        /* \"@openzeppelin/contracts/token/ERC20/ERC20.sol\":10663:11140  function _spendAllowance(address owner, address spender, uint256 value) internal virtual {... */\n    tag_100:\n        /* \"@openzeppelin/contracts/token/ERC20/ERC20.sol\":10762:10786  uint256 currentAllowance */\n      0x00\n        /* \"@openzeppelin/contracts/token/ERC20/ERC20.sol\":10789:10814  allowance(owner, spender) */\n      tag_203\n        /* \"@openzeppelin/contracts/token/ERC20/ERC20.sol\":10799:10804  owner */\n      dup5\n        /* \"@openzeppelin/contracts/token/ERC20/ERC20.sol\":10806:10813  spender */\n      dup5\n        /* \"@openzeppelin/contracts/token/ERC20/ERC20.sol\":10789:10798  allowance */\n      tag_75\n        /* \"@openzeppelin/contracts/token/ERC20/ERC20.sol\":10789:10814  allowance(owner, spender) */\n      jump\t// in\n    tag_203:\n        /* \"@openzeppelin/contracts/token/ERC20/ERC20.sol\":10762:10814  uint256 currentAllowance = allowance(owner, spender) */\n      swap1\n      pop\n        /* \"@openzeppelin/contracts/token/ERC20/ERC20.sol\":10848:10865  type(uint256).max */\n      0xffffffffffffffffffffffffffffffffffffffffffffffffffffffffffffffff\n        /* \"@openzeppelin/contracts/token/ERC20/ERC20.sol\":10828:10844  currentAllowance */\n      dup2\n        /* \"@openzeppelin/contracts/token/ERC20/ERC20.sol\":10828:10865  currentAllowance != type(uint256).max */\n      eq\n        /* \"@openzeppelin/contracts/token/ERC20/ERC20.sol\":10824:11134  if (currentAllowance != type(uint256).max) {... */\n      tag_204\n      jumpi\n        /* \"@openzeppelin/contracts/token/ERC20/ERC20.sol\":10904:10909  value */\n      dup2\n        /* \"@openzeppelin/contracts/token/ERC20/ERC20.sol\":10885:10901  currentAllowance */\n      dup2\n        /* \"@openzeppelin/contracts/token/ERC20/ERC20.sol\":10885:10909  currentAllowance < value */\n      lt\n        /* \"@openzeppelin/contracts/token/ERC20/ERC20.sol\":10881:11011  if (currentAllowance < value) {... */\n      iszero\n      tag_205\n      jumpi\n        /* \"@openzeppelin/contracts/token/ERC20/ERC20.sol\":10963:10970  spender */\n      dup3\n        /* \"@openzeppelin/contracts/token/ERC20/ERC20.sol\":10972:10988  currentAllowance */\n      dup2\n        /* \"@openzeppelin/contracts/token/ERC20/ERC20.sol\":10990:10995  value */\n      dup4\n        /* \"@openzeppelin/contracts/token/ERC20/ERC20.sol\":10936:10996  ERC20InsufficientAllowance(spender, currentAllowance, value) */\n      mload(0x40)\n      0xfb8f41b200000000000000000000000000000000000000000000000000000000\n      dup2\n      mstore\n      0x04\n      add\n      tag_206\n      swap4\n      swap3\n      swap2\n      swap1\n      tag_207\n      jump\t// in\n    tag_206:\n      mload(0x40)\n      dup1\n      swap2\n      sub\n      swap1\n      revert\n        /* \"@openzeppelin/contracts/token/ERC20/ERC20.sol\":10881:11011  if (currentAllowance < value) {... */\n    tag_205:\n        /* \"@openzeppelin/contracts/token/ERC20/ERC20.sol\":11052:11109  _approve(owner, spender, currentAllowance - value, false) */\n      tag_208\n        /* \"@openzeppelin/contracts/token/ERC20/ERC20.sol\":11061:11066  owner */\n      dup5\n        /* \"@openzeppelin/contracts/token/ERC20/ERC20.sol\":11068:11075  spender */\n      dup5\n        /* \"@openzeppelin/contracts/token/ERC20/ERC20.sol\":11096:11101  value */\n      dup5\n        /* \"@openzeppelin/contracts/token/ERC20/ERC20.sol\":11077:11093  currentAllowance */\n      dup5\n        /* \"@openzeppelin/contracts/token/ERC20/ERC20.sol\":11077:11101  currentAllowance - value */\n      sub\n        /* \"@openzeppelin/contracts/token/ERC20/ERC20.sol\":11103:11108  false */\n      0x00\n        /* \"@openzeppelin/contracts/token/ERC20/ERC20.sol\":11052:11060  _approve */\n      tag_201\n        /* \"@openzeppelin/contracts/token/ERC20/ERC20.sol\":11052:11109  _approve(owner, spender, currentAllowance - value, false) */\n      jump\t// in\n    tag_208:\n        /* \"@openzeppelin/contracts/token/ERC20/ERC20.sol\":10824:11134  if (currentAllowance != type(uint256).max) {... */\n    tag_204:\n        /* \"@openzeppelin/contracts/token/ERC20/ERC20.sol\":10752:11140  {... */\n      pop\n        /* \"@openzeppelin/contracts/token/ERC20/ERC20.sol\":10663:11140  function _spendAllowance(address owner, address spender, uint256 value) internal virtual {... */\n      pop\n      pop\n      pop\n      jump\t// out\n        /* \"@openzeppelin/contracts/token/ERC20/ERC20.sol\":5656:5956  function _transfer(address from, address to, uint256 value) internal {... */\n    tag_102:\n        /* \"@openzeppelin/contracts/token/ERC20/ERC20.sol\":5755:5756  0 */\n      0x00\n        /* \"@openzeppelin/contracts/token/ERC20/ERC20.sol\":5739:5757  from == address(0) */\n      0xffffffffffffffffffffffffffffffffffffffff\n      and\n        /* \"@openzeppelin/contracts/token/ERC20/ERC20.sol\":5739:5743  from */\n      dup4\n        /* \"@openzeppelin/contracts/token/ERC20/ERC20.sol\":5739:5757  from == address(0) */\n      0xffffffffffffffffffffffffffffffffffffffff\n      and\n      sub\n        /* \"@openzeppelin/contracts/token/ERC20/ERC20.sol\":5735:5821  if (from == address(0)) {... */\n      tag_210\n      jumpi\n        /* \"@openzeppelin/contracts/token/ERC20/ERC20.sol\":5807:5808  0 */\n      0x00\n        /* \"@openzeppelin/contracts/token/ERC20/ERC20.sol\":5780:5810  ERC20InvalidSender(address(0)) */\n      mload(0x40)\n      0x96c6fd1e00000000000000000000000000000000000000000000000000000000\n      dup2\n      mstore\n      0x04\n      add\n      tag_211\n      swap2\n      swap1\n      tag_52\n      jump\t// in\n    tag_211:\n      mload(0x40)\n      dup1\n      swap2\n      sub\n      swap1\n      revert\n        /* \"@openzeppelin/contracts/token/ERC20/ERC20.sol\":5735:5821  if (from == address(0)) {... */\n    tag_210:\n        /* \"@openzeppelin/contracts/token/ERC20/ERC20.sol\":5848:5849  0 */\n      0x00\n        /* \"@openzeppelin/contracts/token/ERC20/ERC20.sol\":5834:5850  to == address(0) */\n      0xffffffffffffffffffffffffffffffffffffffff\n      and\n        /* \"@openzeppelin/contracts/token/ERC20/ERC20.sol\":5834:5836  to */\n      dup3\n        /* \"@openzeppelin/contracts/token/ERC20/ERC20.sol\":5834:5850  to == address(0) */\n      0xffffffffffffffffffffffffffffffffffffffff\n      and\n      sub\n        /* \"@openzeppelin/contracts/token/ERC20/ERC20.sol\":5830:5916  if (to == address(0)) {... */\n      tag_212\n      jumpi\n        /* \"@openzeppelin/contracts/token/ERC20/ERC20.sol\":5902:5903  0 */\n      0x00\n        /* \"@openzeppelin/contracts/token/ERC20/ERC20.sol\":5873:5905  ERC20InvalidReceiver(address(0)) */\n      mload(0x40)\n      0xec442f0500000000000000000000000000000000000000000000000000000000\n      dup2\n      mstore\n      0x04\n      add\n      tag_213\n      swap2\n      swap1\n      tag_52\n      jump\t// in\n    tag_213:\n      mload(0x40)\n      dup1\n      swap2\n      sub\n      swap1\n      revert\n        /* \"@openzeppelin/contracts/token/ERC20/ERC20.sol\":5830:5916  if (to == address(0)) {... */\n    tag_212:\n        /* \"@openzeppelin/contracts/token/ERC20/ERC20.sol\":5925:5949  _update(from, to, value) */\n      tag_214\n        /* \"@openzeppelin/contracts/token/ERC20/ERC20.sol\":5933:5937  from */\n      dup4\n        /* \"@openzeppelin/contracts/token/ERC20/ERC20.sol\":5939:5941  to */\n      dup4\n        /* \"@openzeppelin/contracts/token/ERC20/ERC20.sol\":5943:5948  value */\n      dup4\n        /* \"@openzeppelin/contracts/token/ERC20/ERC20.sol\":5925:5932  _update */\n      tag_215\n        /* \"@openzeppelin/contracts/token/ERC20/ERC20.sol\":5925:5949  _update(from, to, value) */\n      jump\t// in\n    tag_214:\n        /* \"@openzeppelin/contracts/token/ERC20/ERC20.sol\":5656:5956  function _transfer(address from, address to, uint256 value) internal {... */\n      pop\n      pop\n      pop\n      jump\t// out\n        /* \"@openzeppelin/contracts/utils/math/SafeMath.sol\":3465:3561  function mul(uint256 a, uint256 b) internal pure returns (uint256) {... */\n    tag_147:\n        /* \"@openzeppelin/contracts/utils/math/SafeMath.sol\":3523:3530  uint256 */\n      0x00\n        /* \"@openzeppelin/contracts/utils/math/SafeMath.sol\":3553:3554  b */\n      dup2\n        /* \"@openzeppelin/contracts/utils/math/SafeMath.sol\":3549:3550  a */\n      dup4\n        /* \"@openzeppelin/contracts/utils/math/SafeMath.sol\":3549:3554  a * b */\n      tag_217\n      swap2\n      swap1\n      tag_172\n      jump\t// in\n    tag_217:\n        /* \"@openzeppelin/contracts/utils/math/SafeMath.sol\":3542:3554  return a * b */\n      swap1\n      pop\n        /* \"@openzeppelin/contracts/utils/math/SafeMath.sol\":3465:3561  function mul(uint256 a, uint256 b) internal pure returns (uint256) {... */\n      swap3\n      swap2\n      pop\n      pop\n      jump\t// out\n        /* \"@openzeppelin/contracts/utils/math/SafeMath.sol\":2755:2851  function add(uint256 a, uint256 b) internal pure returns (uint256) {... */\n    tag_149:\n        /* \"@openzeppelin/contracts/utils/math/SafeMath.sol\":2813:2820  uint256 */\n      0x00\n        /* \"@openzeppelin/contracts/utils/math/SafeMath.sol\":2843:2844  b */\n      dup2\n        /* \"@openzeppelin/contracts/utils/math/SafeMath.sol\":2839:2840  a */\n      dup4\n        /* \"@openzeppelin/contracts/utils/math/SafeMath.sol\":2839:2844  a + b */\n      tag_219\n      swap2\n      swap1\n      tag_220\n      jump\t// in\n    tag_219:\n        /* \"@openzeppelin/contracts/utils/math/SafeMath.sol\":2832:2844  return a + b */\n      swap1\n      pop\n        /* \"@openzeppelin/contracts/utils/math/SafeMath.sol\":2755:2851  function add(uint256 a, uint256 b) internal pure returns (uint256) {... */\n      swap3\n      swap2\n      pop\n      pop\n      jump\t// out\n        /* \"@openzeppelin/contracts/token/ERC20/ERC20.sol\":7721:7929  function _mint(address account, uint256 value) internal {... */\n    tag_154:\n        /* \"@openzeppelin/contracts/token/ERC20/ERC20.sol\":7810:7811  0 */\n      0x00\n        /* \"@openzeppelin/contracts/token/ERC20/ERC20.sol\":7791:7812  account == address(0) */\n      0xffffffffffffffffffffffffffffffffffffffff\n      and\n        /* \"@openzeppelin/contracts/token/ERC20/ERC20.sol\":7791:7798  account */\n      dup3\n        /* \"@openzeppelin/contracts/token/ERC20/ERC20.sol\":7791:7812  account == address(0) */\n      0xffffffffffffffffffffffffffffffffffffffff\n      and\n      sub\n        /* \"@openzeppelin/contracts/token/ERC20/ERC20.sol\":7787:7878  if (account == address(0)) {... */\n      tag_222\n      jumpi\n        /* \"@openzeppelin/contracts/token/ERC20/ERC20.sol\":7864:7865  0 */\n      0x00\n        /* \"@openzeppelin/contracts/token/ERC20/ERC20.sol\":7835:7867  ERC20InvalidReceiver(address(0)) */\n      mload(0x40)\n      0xec442f0500000000000000000000000000000000000000000000000000000000\n      dup2\n      mstore\n      0x04\n      add\n      tag_223\n      swap2\n      swap1\n      tag_52\n      jump\t// in\n    tag_223:\n      mload(0x40)\n      dup1\n      swap2\n      sub\n      swap1\n      revert\n        /* \"@openzeppelin/contracts/token/ERC20/ERC20.sol\":7787:7878  if (account == address(0)) {... */\n    tag_222:\n        /* \"@openzeppelin/contracts/token/ERC20/ERC20.sol\":7887:7922  _update(address(0), account, value) */\n      tag_224\n        /* \"@openzeppelin/contracts/token/ERC20/ERC20.sol\":7903:7904  0 */\n      0x00\n        /* \"@openzeppelin/contracts/token/ERC20/ERC20.sol\":7907:7914  account */\n      dup4\n        /* \"@openzeppelin/contracts/token/ERC20/ERC20.sol\":7916:7921  value */\n      dup4\n        /* \"@openzeppelin/contracts/token/ERC20/ERC20.sol\":7887:7894  _update */\n      tag_215\n        /* \"@openzeppelin/contracts/token/ERC20/ERC20.sol\":7887:7922  _update(address(0), account, value) */\n      jump\t// in\n    tag_224:\n        /* \"@openzeppelin/contracts/token/ERC20/ERC20.sol\":7721:7929  function _mint(address account, uint256 value) internal {... */\n      pop\n      pop\n      jump\t// out\n        /* \"@openzeppelin/contracts/utils/math/SafeMath.sol\":3850:3946  function div(uint256 a, uint256 b) internal pure returns (uint256) {... */\n    tag_188:\n        /* \"@openzeppelin/contracts/utils/math/SafeMath.sol\":3908:3915  uint256 */\n      0x00\n        /* \"@openzeppelin/contracts/utils/math/SafeMath.sol\":3938:3939  b */\n      dup2\n        /* \"@openzeppelin/contracts/utils/math/SafeMath.sol\":3934:3935  a */\n      dup4\n        /* \"@openzeppelin/contracts/utils/math/SafeMath.sol\":3934:3939  a / b */\n      tag_226\n      swap2\n      swap1\n      tag_227\n      jump\t// in\n    tag_226:\n        /* \"@openzeppelin/contracts/utils/math/SafeMath.sol\":3927:3939  return a / b */\n      swap1\n      pop\n        /* \"@openzeppelin/contracts/utils/math/SafeMath.sol\":3850:3946  function div(uint256 a, uint256 b) internal pure returns (uint256) {... */\n      swap3\n      swap2\n      pop\n      pop\n      jump\t// out\n        /* \"@openzeppelin/contracts/utils/math/SafeMath.sol\":3122:3218  function sub(uint256 a, uint256 b) internal pure returns (uint256) {... */\n    tag_190:\n        /* \"@openzeppelin/contracts/utils/math/SafeMath.sol\":3180:3187  uint256 */\n      0x00\n        /* \"@openzeppelin/contracts/utils/math/SafeMath.sol\":3210:3211  b */\n      dup2\n        /* \"@openzeppelin/contracts/utils/math/SafeMath.sol\":3206:3207  a */\n      dup4\n        /* \"@openzeppelin/contracts/utils/math/SafeMath.sol\":3206:3211  a - b */\n      tag_229\n      swap2\n      swap1\n      tag_230\n      jump\t// in\n    tag_229:\n        /* \"@openzeppelin/contracts/utils/math/SafeMath.sol\":3199:3211  return a - b */\n      swap1\n      pop\n        /* \"@openzeppelin/contracts/utils/math/SafeMath.sol\":3122:3218  function sub(uint256 a, uint256 b) internal pure returns (uint256) {... */\n      swap3\n      swap2\n      pop\n      pop\n      jump\t// out\n        /* \"@openzeppelin/contracts/token/ERC20/ERC20.sol\":9949:10381  function _approve(address owner, address spender, uint256 value, bool emitEvent) internal virtual {... */\n    tag_201:\n        /* \"@openzeppelin/contracts/token/ERC20/ERC20.sol\":10078:10079  0 */\n      0x00\n        /* \"@openzeppelin/contracts/token/ERC20/ERC20.sol\":10061:10080  owner == address(0) */\n      0xffffffffffffffffffffffffffffffffffffffff\n      and\n        /* \"@openzeppelin/contracts/token/ERC20/ERC20.sol\":10061:10066  owner */\n      dup5\n        /* \"@openzeppelin/contracts/token/ERC20/ERC20.sol\":10061:10080  owner == address(0) */\n      0xffffffffffffffffffffffffffffffffffffffff\n      and\n      sub\n        /* \"@openzeppelin/contracts/token/ERC20/ERC20.sol\":10057:10146  if (owner == address(0)) {... */\n      tag_232\n      jumpi\n        /* \"@openzeppelin/contracts/token/ERC20/ERC20.sol\":10132:10133  0 */\n      0x00\n        /* \"@openzeppelin/contracts/token/ERC20/ERC20.sol\":10103:10135  ERC20InvalidApprover(address(0)) */\n      mload(0x40)\n      0xe602df0500000000000000000000000000000000000000000000000000000000\n      dup2\n      mstore\n      0x04\n      add\n      tag_233\n      swap2\n      swap1\n      tag_52\n      jump\t// in\n    tag_233:\n      mload(0x40)\n      dup1\n      swap2\n      sub\n      swap1\n      revert\n        /* \"@openzeppelin/contracts/token/ERC20/ERC20.sol\":10057:10146  if (owner == address(0)) {... */\n    tag_232:\n        /* \"@openzeppelin/contracts/token/ERC20/ERC20.sol\":10178:10179  0 */\n      0x00\n        /* \"@openzeppelin/contracts/token/ERC20/ERC20.sol\":10159:10180  spender == address(0) */\n      0xffffffffffffffffffffffffffffffffffffffff\n      and\n        /* \"@openzeppelin/contracts/token/ERC20/ERC20.sol\":10159:10166  spender */\n      dup4\n        /* \"@openzeppelin/contracts/token/ERC20/ERC20.sol\":10159:10180  spender == address(0) */\n      0xffffffffffffffffffffffffffffffffffffffff\n      and\n      sub\n        /* \"@openzeppelin/contracts/token/ERC20/ERC20.sol\":10155:10245  if (spender == address(0)) {... */\n      tag_234\n      jumpi\n        /* \"@openzeppelin/contracts/token/ERC20/ERC20.sol\":10231:10232  0 */\n      0x00\n        /* \"@openzeppelin/contracts/token/ERC20/ERC20.sol\":10203:10234  ERC20InvalidSpender(address(0)) */\n      mload(0x40)\n      0x94280d6200000000000000000000000000000000000000000000000000000000\n      dup2\n      mstore\n      0x04\n      add\n      tag_235\n      swap2\n      swap1\n      tag_52\n      jump\t// in\n    tag_235:\n      mload(0x40)\n      dup1\n      swap2\n      sub\n      swap1\n      revert\n        /* \"@openzeppelin/contracts/token/ERC20/ERC20.sol\":10155:10245  if (spender == address(0)) {... */\n    tag_234:\n        /* \"@openzeppelin/contracts/token/ERC20/ERC20.sol\":10284:10289  value */\n      dup2\n        /* \"@openzeppelin/contracts/token/ERC20/ERC20.sol\":10254:10265  _allowances */\n      0x01\n        /* \"@openzeppelin/contracts/token/ERC20/ERC20.sol\":10254:10272  _allowances[owner] */\n      0x00\n        /* \"@openzeppelin/contracts/token/ERC20/ERC20.sol\":10266:10271  owner */\n      dup7\n        /* \"@openzeppelin/contracts/token/ERC20/ERC20.sol\":10254:10272  _allowances[owner] */\n      0xffffffffffffffffffffffffffffffffffffffff\n      and\n      0xffffffffffffffffffffffffffffffffffffffff\n      and\n      dup2\n      mstore\n      0x20\n      add\n      swap1\n      dup2\n      mstore\n      0x20\n      add\n      0x00\n      keccak256\n        /* \"@openzeppelin/contracts/token/ERC20/ERC20.sol\":10254:10281  _allowances[owner][spender] */\n      0x00\n        /* \"@openzeppelin/contracts/token/ERC20/ERC20.sol\":10273:10280  spender */\n      dup6\n        /* \"@openzeppelin/contracts/token/ERC20/ERC20.sol\":10254:10281  _allowances[owner][spender] */\n      0xffffffffffffffffffffffffffffffffffffffff\n      and\n      0xffffffffffffffffffffffffffffffffffffffff\n      and\n      dup2\n      mstore\n      0x20\n      add\n      swap1\n      dup2\n      mstore\n      0x20\n      add\n      0x00\n      keccak256\n        /* \"@openzeppelin/contracts/token/ERC20/ERC20.sol\":10254:10289  _allowances[owner][spender] = value */\n      dup2\n      swap1\n      sstore\n      pop\n        /* \"@openzeppelin/contracts/token/ERC20/ERC20.sol\":10303:10312  emitEvent */\n      dup1\n        /* \"@openzeppelin/contracts/token/ERC20/ERC20.sol\":10299:10375  if (emitEvent) {... */\n      iszero\n      tag_236\n      jumpi\n        /* \"@openzeppelin/contracts/token/ERC20/ERC20.sol\":10349:10356  spender */\n      dup3\n        /* \"@openzeppelin/contracts/token/ERC20/ERC20.sol\":10333:10364  Approval(owner, spender, value) */\n      0xffffffffffffffffffffffffffffffffffffffff\n      and\n        /* \"@openzeppelin/contracts/token/ERC20/ERC20.sol\":10342:10347  owner */\n      dup5\n        /* \"@openzeppelin/contracts/token/ERC20/ERC20.sol\":10333:10364  Approval(owner, spender, value) */\n      0xffffffffffffffffffffffffffffffffffffffff\n      and\n      0x8c5be1e5ebec7d5bd14f71427d1e84f3dd0314c0f7b2291e5b200ac8c7c3b925\n        /* \"@openzeppelin/contracts/token/ERC20/ERC20.sol\":10358:10363  value */\n      dup5\n        /* \"@openzeppelin/contracts/token/ERC20/ERC20.sol\":10333:10364  Approval(owner, spender, value) */\n      mload(0x40)\n      tag_237\n      swap2\n      swap1\n      tag_34\n      jump\t// in\n    tag_237:\n      mload(0x40)\n      dup1\n      swap2\n      sub\n      swap1\n      log3\n        /* \"@openzeppelin/contracts/token/ERC20/ERC20.sol\":10299:10375  if (emitEvent) {... */\n    tag_236:\n        /* \"@openzeppelin/contracts/token/ERC20/ERC20.sol\":9949:10381  function _approve(address owner, address spender, uint256 value, bool emitEvent) internal virtual {... */\n      pop\n      pop\n      pop\n      pop\n      jump\t// out\n        /* \"@openzeppelin/contracts/token/ERC20/ERC20.sol\":6271:7378  function _update(address from, address to, uint256 value) internal virtual {... */\n    tag_215:\n        /* \"@openzeppelin/contracts/token/ERC20/ERC20.sol\":6376:6377  0 */\n      0x00\n        /* \"@openzeppelin/contracts/token/ERC20/ERC20.sol\":6360:6378  from == address(0) */\n      0xffffffffffffffffffffffffffffffffffffffff\n      and\n        /* \"@openzeppelin/contracts/token/ERC20/ERC20.sol\":6360:6364  from */\n      dup4\n        /* \"@openzeppelin/contracts/token/ERC20/ERC20.sol\":6360:6378  from == address(0) */\n      0xffffffffffffffffffffffffffffffffffffffff\n      and\n      sub\n        /* \"@openzeppelin/contracts/token/ERC20/ERC20.sol\":6356:6896  if (from == address(0)) {... */\n      tag_239\n      jumpi\n        /* \"@openzeppelin/contracts/token/ERC20/ERC20.sol\":6512:6517  value */\n      dup1\n        /* \"@openzeppelin/contracts/token/ERC20/ERC20.sol\":6496:6508  _totalSupply */\n      0x02\n      0x00\n        /* \"@openzeppelin/contracts/token/ERC20/ERC20.sol\":6496:6517  _totalSupply += value */\n      dup3\n      dup3\n      sload\n      tag_240\n      swap2\n      swap1\n      tag_220\n      jump\t// in\n    tag_240:\n      swap3\n      pop\n      pop\n      dup2\n      swap1\n      sstore\n      pop\n        /* \"@openzeppelin/contracts/token/ERC20/ERC20.sol\":6356:6896  if (from == address(0)) {... */\n      jump(tag_241)\n    tag_239:\n        /* \"@openzeppelin/contracts/token/ERC20/ERC20.sol\":6548:6567  uint256 fromBalance */\n      0x00\n        /* \"@openzeppelin/contracts/token/ERC20/ERC20.sol\":6570:6579  _balances */\n      dup1\n        /* \"@openzeppelin/contracts/token/ERC20/ERC20.sol\":6570:6585  _balances[from] */\n      0x00\n        /* \"@openzeppelin/contracts/token/ERC20/ERC20.sol\":6580:6584  from */\n      dup6\n        /* \"@openzeppelin/contracts/token/ERC20/ERC20.sol\":6570:6585  _balances[from] */\n      0xffffffffffffffffffffffffffffffffffffffff\n      and\n      0xffffffffffffffffffffffffffffffffffffffff\n      and\n      dup2\n      mstore\n      0x20\n      add\n      swap1\n      dup2\n      mstore\n      0x20\n      add\n      0x00\n      keccak256\n      sload\n        /* \"@openzeppelin/contracts/token/ERC20/ERC20.sol\":6548:6585  uint256 fromBalance = _balances[from] */\n      swap1\n      pop\n        /* \"@openzeppelin/contracts/token/ERC20/ERC20.sol\":6617:6622  value */\n      dup2\n        /* \"@openzeppelin/contracts/token/ERC20/ERC20.sol\":6603:6614  fromBalance */\n      dup2\n        /* \"@openzeppelin/contracts/token/ERC20/ERC20.sol\":6603:6622  fromBalance < value */\n      lt\n        /* \"@openzeppelin/contracts/token/ERC20/ERC20.sol\":6599:6714  if (fromBalance < value) {... */\n      iszero\n      tag_242\n      jumpi\n        /* \"@openzeppelin/contracts/token/ERC20/ERC20.sol\":6674:6678  from */\n      dup4\n        /* \"@openzeppelin/contracts/token/ERC20/ERC20.sol\":6680:6691  fromBalance */\n      dup2\n        /* \"@openzeppelin/contracts/token/ERC20/ERC20.sol\":6693:6698  value */\n      dup4\n        /* \"@openzeppelin/contracts/token/ERC20/ERC20.sol\":6649:6699  ERC20InsufficientBalance(from, fromBalance, value) */\n      mload(0x40)\n      0xe450d38c00000000000000000000000000000000000000000000000000000000\n      dup2\n      mstore\n      0x04\n      add\n      tag_243\n      swap4\n      swap3\n      swap2\n      swap1\n      tag_207\n      jump\t// in\n    tag_243:\n      mload(0x40)\n      dup1\n      swap2\n      sub\n      swap1\n      revert\n        /* \"@openzeppelin/contracts/token/ERC20/ERC20.sol\":6599:6714  if (fromBalance < value) {... */\n    tag_242:\n        /* \"@openzeppelin/contracts/token/ERC20/ERC20.sol\":6866:6871  value */\n      dup2\n        /* \"@openzeppelin/contracts/token/ERC20/ERC20.sol\":6852:6863  fromBalance */\n      dup2\n        /* \"@openzeppelin/contracts/token/ERC20/ERC20.sol\":6852:6871  fromBalance - value */\n      sub\n        /* \"@openzeppelin/contracts/token/ERC20/ERC20.sol\":6834:6843  _balances */\n      0x00\n        /* \"@openzeppelin/contracts/token/ERC20/ERC20.sol\":6834:6849  _balances[from] */\n      dup1\n        /* \"@openzeppelin/contracts/token/ERC20/ERC20.sol\":6844:6848  from */\n      dup7\n        /* \"@openzeppelin/contracts/token/ERC20/ERC20.sol\":6834:6849  _balances[from] */\n      0xffffffffffffffffffffffffffffffffffffffff\n      and\n      0xffffffffffffffffffffffffffffffffffffffff\n      and\n      dup2\n      mstore\n      0x20\n      add\n      swap1\n      dup2\n      mstore\n      0x20\n      add\n      0x00\n      keccak256\n        /* \"@openzeppelin/contracts/token/ERC20/ERC20.sol\":6834:6871  _balances[from] = fromBalance - value */\n      dup2\n      swap1\n      sstore\n      pop\n        /* \"@openzeppelin/contracts/token/ERC20/ERC20.sol\":6534:6896  {... */\n      pop\n        /* \"@openzeppelin/contracts/token/ERC20/ERC20.sol\":6356:6896  if (from == address(0)) {... */\n    tag_241:\n        /* \"@openzeppelin/contracts/token/ERC20/ERC20.sol\":6924:6925  0 */\n      0x00\n        /* \"@openzeppelin/contracts/token/ERC20/ERC20.sol\":6910:6926  to == address(0) */\n      0xffffffffffffffffffffffffffffffffffffffff\n      and\n        /* \"@openzeppelin/contracts/token/ERC20/ERC20.sol\":6910:6912  to */\n      dup3\n        /* \"@openzeppelin/contracts/token/ERC20/ERC20.sol\":6910:6926  to == address(0) */\n      0xffffffffffffffffffffffffffffffffffffffff\n      and\n      sub\n        /* \"@openzeppelin/contracts/token/ERC20/ERC20.sol\":6906:7331  if (to == address(0)) {... */\n      tag_244\n      jumpi\n        /* \"@openzeppelin/contracts/token/ERC20/ERC20.sol\":7089:7094  value */\n      dup1\n        /* \"@openzeppelin/contracts/token/ERC20/ERC20.sol\":7073:7085  _totalSupply */\n      0x02\n      0x00\n        /* \"@openzeppelin/contracts/token/ERC20/ERC20.sol\":7073:7094  _totalSupply -= value */\n      dup3\n      dup3\n      sload\n      sub\n      swap3\n      pop\n      pop\n      dup2\n      swap1\n      sstore\n      pop\n        /* \"@openzeppelin/contracts/token/ERC20/ERC20.sol\":6906:7331  if (to == address(0)) {... */\n      jump(tag_245)\n    tag_244:\n        /* \"@openzeppelin/contracts/token/ERC20/ERC20.sol\":7301:7306  value */\n      dup1\n        /* \"@openzeppelin/contracts/token/ERC20/ERC20.sol\":7284:7293  _balances */\n      0x00\n        /* \"@openzeppelin/contracts/token/ERC20/ERC20.sol\":7284:7297  _balances[to] */\n      dup1\n        /* \"@openzeppelin/contracts/token/ERC20/ERC20.sol\":7294:7296  to */\n      dup5\n        /* \"@openzeppelin/contracts/token/ERC20/ERC20.sol\":7284:7297  _balances[to] */\n      0xffffffffffffffffffffffffffffffffffffffff\n      and\n      0xffffffffffffffffffffffffffffffffffffffff\n      and\n      dup2\n      mstore\n      0x20\n      add\n      swap1\n      dup2\n      mstore\n      0x20\n      add\n      0x00\n      keccak256\n      0x00\n        /* \"@openzeppelin/contracts/token/ERC20/ERC20.sol\":7284:7306  _balances[to] += value */\n      dup3\n      dup3\n      sload\n      add\n      swap3\n      pop\n      pop\n      dup2\n      swap1\n      sstore\n      pop\n        /* \"@openzeppelin/contracts/token/ERC20/ERC20.sol\":6906:7331  if (to == address(0)) {... */\n    tag_245:\n        /* \"@openzeppelin/contracts/token/ERC20/ERC20.sol\":7361:7363  to */\n      dup2\n        /* \"@openzeppelin/contracts/token/ERC20/ERC20.sol\":7346:7371  Transfer(from, to, value) */\n      0xffffffffffffffffffffffffffffffffffffffff\n      and\n        /* \"@openzeppelin/contracts/token/ERC20/ERC20.sol\":7355:7359  from */\n      dup4\n        /* \"@openzeppelin/contracts/token/ERC20/ERC20.sol\":7346:7371  Transfer(from, to, value) */\n      0xffffffffffffffffffffffffffffffffffffffff\n      and\n      0xddf252ad1be2c89b69c2b068fc378daa952ba7f163c4a11628f55a4df523b3ef\n        /* \"@openzeppelin/contracts/token/ERC20/ERC20.sol\":7365:7370  value */\n      dup4\n        /* \"@openzeppelin/contracts/token/ERC20/ERC20.sol\":7346:7371  Transfer(from, to, value) */\n      mload(0x40)\n      tag_246\n      swap2\n      swap1\n      tag_34\n      jump\t// in\n    tag_246:\n      mload(0x40)\n      dup1\n      swap2\n      sub\n      swap1\n      log3\n        /* \"@openzeppelin/contracts/token/ERC20/ERC20.sol\":6271:7378  function _update(address from, address to, uint256 value) internal virtual {... */\n      pop\n      pop\n      pop\n      jump\t// out\n    tag_117:\n      mload(0x40)\n      dup1\n      0x0120\n      add\n      0x40\n      mstore\n      dup1\n      and(0xffffffffffffffffffffffffffffffffffffffff, 0x00)\n      dup2\n      mstore\n      0x20\n      add\n      0x60\n      dup2\n      mstore\n      0x20\n      add\n      0x00\n      dup2\n      mstore\n      0x20\n      add\n      0x00\n      dup2\n      mstore\n      0x20\n      add\n      0x00\n      dup2\n      mstore\n      0x20\n      add\n      0x00\n      dup2\n      mstore\n      0x20\n      add\n      0x00\n      dup2\n      mstore\n      0x20\n      add\n      0x00\n      dup2\n      mstore\n      0x20\n      add\n      0x00\n      dup2\n      mstore\n      pop\n      swap1\n      jump\t// out\n        /* \"#utility.yul\":7:106   */\n    tag_247:\n        /* \"#utility.yul\":59:65   */\n      0x00\n        /* \"#utility.yul\":93:98   */\n      dup2\n        /* \"#utility.yul\":87:99   */\n      mload\n        /* \"#utility.yul\":77:99   */\n      swap1\n      pop\n        /* \"#utility.yul\":7:106   */\n      swap2\n      swap1\n      pop\n      jump\t// out\n        /* \"#utility.yul\":112:281   */\n    tag_248:\n        /* \"#utility.yul\":196:207   */\n      0x00\n        /* \"#utility.yul\":230:236   */\n      dup3\n        /* \"#utility.yul\":225:228   */\n      dup3\n        /* \"#utility.yul\":218:237   */\n      mstore\n        /* \"#utility.yul\":270:274   */\n      0x20\n        /* \"#utility.yul\":265:268   */\n      dup3\n        /* \"#utility.yul\":261:275   */\n      add\n        /* \"#utility.yul\":246:275   */\n      swap1\n      pop\n        /* \"#utility.yul\":112:281   */\n      swap3\n      swap2\n      pop\n      pop\n      jump\t// out\n        /* \"#utility.yul\":287:533   */\n    tag_249:\n        /* \"#utility.yul\":368:369   */\n      0x00\n        /* \"#utility.yul\":378:491   */\n    tag_320:\n        /* \"#utility.yul\":392:398   */\n      dup4\n        /* \"#utility.yul\":389:390   */\n      dup2\n        /* \"#utility.yul\":386:399   */\n      lt\n        /* \"#utility.yul\":378:491   */\n      iszero\n      tag_322\n      jumpi\n        /* \"#utility.yul\":477:478   */\n      dup1\n        /* \"#utility.yul\":472:475   */\n      dup3\n        /* \"#utility.yul\":468:479   */\n      add\n        /* \"#utility.yul\":462:480   */\n      mload\n        /* \"#utility.yul\":458:459   */\n      dup2\n        /* \"#utility.yul\":453:456   */\n      dup5\n        /* \"#utility.yul\":449:460   */\n      add\n        /* \"#utility.yul\":442:481   */\n      mstore\n        /* \"#utility.yul\":414:416   */\n      0x20\n        /* \"#utility.yul\":411:412   */\n      dup2\n        /* \"#utility.yul\":407:417   */\n      add\n        /* \"#utility.yul\":402:417   */\n      swap1\n      pop\n        /* \"#utility.yul\":378:491   */\n      jump(tag_320)\n    tag_322:\n        /* \"#utility.yul\":525:526   */\n      0x00\n        /* \"#utility.yul\":516:522   */\n      dup5\n        /* \"#utility.yul\":511:514   */\n      dup5\n        /* \"#utility.yul\":507:523   */\n      add\n        /* \"#utility.yul\":500:527   */\n      mstore\n        /* \"#utility.yul\":349:533   */\n      pop\n        /* \"#utility.yul\":287:533   */\n      pop\n      pop\n      pop\n      jump\t// out\n        /* \"#utility.yul\":539:641   */\n    tag_250:\n        /* \"#utility.yul\":580:586   */\n      0x00\n        /* \"#utility.yul\":631:633   */\n      0x1f\n        /* \"#utility.yul\":627:634   */\n      not\n        /* \"#utility.yul\":622:624   */\n      0x1f\n        /* \"#utility.yul\":615:620   */\n      dup4\n        /* \"#utility.yul\":611:625   */\n      add\n        /* \"#utility.yul\":607:635   */\n      and\n        /* \"#utility.yul\":597:635   */\n      swap1\n      pop\n        /* \"#utility.yul\":539:641   */\n      swap2\n      swap1\n      pop\n      jump\t// out\n        /* \"#utility.yul\":647:1024   */\n    tag_251:\n        /* \"#utility.yul\":735:738   */\n      0x00\n        /* \"#utility.yul\":763:802   */\n      tag_325\n        /* \"#utility.yul\":796:801   */\n      dup3\n        /* \"#utility.yul\":763:802   */\n      tag_247\n      jump\t// in\n    tag_325:\n        /* \"#utility.yul\":818:889   */\n      tag_326\n        /* \"#utility.yul\":882:888   */\n      dup2\n        /* \"#utility.yul\":877:880   */\n      dup6\n        /* \"#utility.yul\":818:889   */\n      tag_248\n      jump\t// in\n    tag_326:\n        /* \"#utility.yul\":811:889   */\n      swap4\n      pop\n        /* \"#utility.yul\":898:963   */\n      tag_327\n        /* \"#utility.yul\":956:962   */\n      dup2\n        /* \"#utility.yul\":951:954   */\n      dup6\n        /* \"#utility.yul\":944:948   */\n      0x20\n        /* \"#utility.yul\":937:942   */\n      dup7\n        /* \"#utility.yul\":933:949   */\n      add\n        /* \"#utility.yul\":898:963   */\n      tag_249\n      jump\t// in\n    tag_327:\n        /* \"#utility.yul\":988:1017   */\n      tag_328\n        /* \"#utility.yul\":1010:1016   */\n      dup2\n        /* \"#utility.yul\":988:1017   */\n      tag_250\n      jump\t// in\n    tag_328:\n        /* \"#utility.yul\":983:986   */\n      dup5\n        /* \"#utility.yul\":979:1018   */\n      add\n        /* \"#utility.yul\":972:1018   */\n      swap2\n      pop\n        /* \"#utility.yul\":739:1024   */\n      pop\n        /* \"#utility.yul\":647:1024   */\n      swap3\n      swap2\n      pop\n      pop\n      jump\t// out\n        /* \"#utility.yul\":1030:1343   */\n    tag_24:\n        /* \"#utility.yul\":1143:1147   */\n      0x00\n        /* \"#utility.yul\":1181:1183   */\n      0x20\n        /* \"#utility.yul\":1170:1179   */\n      dup3\n        /* \"#utility.yul\":1166:1184   */\n      add\n        /* \"#utility.yul\":1158:1184   */\n      swap1\n      pop\n        /* \"#utility.yul\":1230:1239   */\n      dup2\n        /* \"#utility.yul\":1224:1228   */\n      dup2\n        /* \"#utility.yul\":1220:1240   */\n      sub\n        /* \"#utility.yul\":1216:1217   */\n      0x00\n        /* \"#utility.yul\":1205:1214   */\n      dup4\n        /* \"#utility.yul\":1201:1218   */\n      add\n        /* \"#utility.yul\":1194:1241   */\n      mstore\n        /* \"#utility.yul\":1258:1336   */\n      tag_330\n        /* \"#utility.yul\":1331:1335   */\n      dup2\n        /* \"#utility.yul\":1322:1328   */\n      dup5\n        /* \"#utility.yul\":1258:1336   */\n      tag_251\n      jump\t// in\n    tag_330:\n        /* \"#utility.yul\":1250:1336   */\n      swap1\n      pop\n        /* \"#utility.yul\":1030:1343   */\n      swap3\n      swap2\n      pop\n      pop\n      jump\t// out\n        /* \"#utility.yul\":1430:1547   */\n    tag_253:\n        /* \"#utility.yul\":1539:1540   */\n      0x00\n        /* \"#utility.yul\":1536:1537   */\n      dup1\n        /* \"#utility.yul\":1529:1541   */\n      revert\n        /* \"#utility.yul\":1553:1670   */\n    tag_254:\n        /* \"#utility.yul\":1662:1663   */\n      0x00\n        /* \"#utility.yul\":1659:1660   */\n      dup1\n        /* \"#utility.yul\":1652:1664   */\n      revert\n        /* \"#utility.yul\":1676:1802   */\n    tag_255:\n        /* \"#utility.yul\":1713:1720   */\n      0x00\n        /* \"#utility.yul\":1753:1795   */\n      0xffffffffffffffffffffffffffffffffffffffff\n        /* \"#utility.yul\":1746:1751   */\n      dup3\n        /* \"#utility.yul\":1742:1796   */\n      and\n        /* \"#utility.yul\":1731:1796   */\n      swap1\n      pop\n        /* \"#utility.yul\":1676:1802   */\n      swap2\n      swap1\n      pop\n      jump\t// out\n        /* \"#utility.yul\":1808:1904   */\n    tag_256:\n        /* \"#utility.yul\":1845:1852   */\n      0x00\n        /* \"#utility.yul\":1874:1898   */\n      tag_336\n        /* \"#utility.yul\":1892:1897   */\n      dup3\n        /* \"#utility.yul\":1874:1898   */\n      tag_255\n      jump\t// in\n    tag_336:\n        /* \"#utility.yul\":1863:1898   */\n      swap1\n      pop\n        /* \"#utility.yul\":1808:1904   */\n      swap2\n      swap1\n      pop\n      jump\t// out\n        /* \"#utility.yul\":1910:2032   */\n    tag_257:\n        /* \"#utility.yul\":1983:2007   */\n      tag_338\n        /* \"#utility.yul\":2001:2006   */\n      dup2\n        /* \"#utility.yul\":1983:2007   */\n      tag_256\n      jump\t// in\n    tag_338:\n        /* \"#utility.yul\":1976:1981   */\n      dup2\n        /* \"#utility.yul\":1973:2008   */\n      eq\n        /* \"#utility.yul\":1963:2026   */\n      tag_339\n      jumpi\n        /* \"#utility.yul\":2022:2023   */\n      0x00\n        /* \"#utility.yul\":2019:2020   */\n      dup1\n        /* \"#utility.yul\":2012:2024   */\n      revert\n        /* \"#utility.yul\":1963:2026   */\n    tag_339:\n        /* \"#utility.yul\":1910:2032   */\n      pop\n      jump\t// out\n        /* \"#utility.yul\":2038:2177   */\n    tag_258:\n        /* \"#utility.yul\":2084:2089   */\n      0x00\n        /* \"#utility.yul\":2122:2128   */\n      dup2\n        /* \"#utility.yul\":2109:2129   */\n      calldataload\n        /* \"#utility.yul\":2100:2129   */\n      swap1\n      pop\n        /* \"#utility.yul\":2138:2171   */\n      tag_341\n        /* \"#utility.yul\":2165:2170   */\n      dup2\n        /* \"#utility.yul\":2138:2171   */\n      tag_257\n      jump\t// in\n    tag_341:\n        /* \"#utility.yul\":2038:2177   */\n      swap3\n      swap2\n      pop\n      pop\n      jump\t// out\n        /* \"#utility.yul\":2183:2260   */\n    tag_259:\n        /* \"#utility.yul\":2220:2227   */\n      0x00\n        /* \"#utility.yul\":2249:2254   */\n      dup2\n        /* \"#utility.yul\":2238:2254   */\n      swap1\n      pop\n        /* \"#utility.yul\":2183:2260   */\n      swap2\n      swap1\n      pop\n      jump\t// out\n        /* \"#utility.yul\":2266:2388   */\n    tag_260:\n        /* \"#utility.yul\":2339:2363   */\n      tag_344\n        /* \"#utility.yul\":2357:2362   */\n      dup2\n        /* \"#utility.yul\":2339:2363   */\n      tag_259\n      jump\t// in\n    tag_344:\n        /* \"#utility.yul\":2332:2337   */\n      dup2\n        /* \"#utility.yul\":2329:2364   */\n      eq\n        /* \"#utility.yul\":2319:2382   */\n      tag_345\n      jumpi\n        /* \"#utility.yul\":2378:2379   */\n      0x00\n        /* \"#utility.yul\":2375:2376   */\n      dup1\n        /* \"#utility.yul\":2368:2380   */\n      revert\n        /* \"#utility.yul\":2319:2382   */\n    tag_345:\n        /* \"#utility.yul\":2266:2388   */\n      pop\n      jump\t// out\n        /* \"#utility.yul\":2394:2533   */\n    tag_261:\n        /* \"#utility.yul\":2440:2445   */\n      0x00\n        /* \"#utility.yul\":2478:2484   */\n      dup2\n        /* \"#utility.yul\":2465:2485   */\n      calldataload\n        /* \"#utility.yul\":2456:2485   */\n      swap1\n      pop\n        /* \"#utility.yul\":2494:2527   */\n      tag_347\n        /* \"#utility.yul\":2521:2526   */\n      dup2\n        /* \"#utility.yul\":2494:2527   */\n      tag_260\n      jump\t// in\n    tag_347:\n        /* \"#utility.yul\":2394:2533   */\n      swap3\n      swap2\n      pop\n      pop\n      jump\t// out\n        /* \"#utility.yul\":2539:3013   */\n    tag_27:\n        /* \"#utility.yul\":2607:2613   */\n      0x00\n        /* \"#utility.yul\":2615:2621   */\n      dup1\n        /* \"#utility.yul\":2664:2666   */\n      0x40\n        /* \"#utility.yul\":2652:2661   */\n      dup4\n        /* \"#utility.yul\":2643:2650   */\n      dup6\n        /* \"#utility.yul\":2639:2662   */\n      sub\n        /* \"#utility.yul\":2635:2667   */\n      slt\n        /* \"#utility.yul\":2632:2751   */\n      iszero\n      tag_349\n      jumpi\n        /* \"#utility.yul\":2670:2749   */\n      tag_350\n      tag_253\n      jump\t// in\n    tag_350:\n        /* \"#utility.yul\":2632:2751   */\n    tag_349:\n        /* \"#utility.yul\":2790:2791   */\n      0x00\n        /* \"#utility.yul\":2815:2868   */\n      tag_351\n        /* \"#utility.yul\":2860:2867   */\n      dup6\n        /* \"#utility.yul\":2851:2857   */\n      dup3\n        /* \"#utility.yul\":2840:2849   */\n      dup7\n        /* \"#utility.yul\":2836:2858   */\n      add\n        /* \"#utility.yul\":2815:2868   */\n      tag_258\n      jump\t// in\n    tag_351:\n        /* \"#utility.yul\":2805:2868   */\n      swap3\n      pop\n        /* \"#utility.yul\":2761:2878   */\n      pop\n        /* \"#utility.yul\":2917:2919   */\n      0x20\n        /* \"#utility.yul\":2943:2996   */\n      tag_352\n        /* \"#utility.yul\":2988:2995   */\n      dup6\n        /* \"#utility.yul\":2979:2985   */\n      dup3\n        /* \"#utility.yul\":2968:2977   */\n      dup7\n        /* \"#utility.yul\":2964:2986   */\n      add\n        /* \"#utility.yul\":2943:2996   */\n      tag_261\n      jump\t// in\n    tag_352:\n        /* \"#utility.yul\":2933:2996   */\n      swap2\n      pop\n        /* \"#utility.yul\":2888:3006   */\n      pop\n        /* \"#utility.yul\":2539:3013   */\n      swap3\n      pop\n      swap3\n      swap1\n      pop\n      jump\t// out\n        /* \"#utility.yul\":3019:3109   */\n    tag_262:\n        /* \"#utility.yul\":3053:3060   */\n      0x00\n        /* \"#utility.yul\":3096:3101   */\n      dup2\n        /* \"#utility.yul\":3089:3102   */\n      iszero\n        /* \"#utility.yul\":3082:3103   */\n      iszero\n        /* \"#utility.yul\":3071:3103   */\n      swap1\n      pop\n        /* \"#utility.yul\":3019:3109   */\n      swap2\n      swap1\n      pop\n      jump\t// out\n        /* \"#utility.yul\":3115:3224   */\n    tag_263:\n        /* \"#utility.yul\":3196:3217   */\n      tag_355\n        /* \"#utility.yul\":3211:3216   */\n      dup2\n        /* \"#utility.yul\":3196:3217   */\n      tag_262\n      jump\t// in\n    tag_355:\n        /* \"#utility.yul\":3191:3194   */\n      dup3\n        /* \"#utility.yul\":3184:3218   */\n      mstore\n        /* \"#utility.yul\":3115:3224   */\n      pop\n      pop\n      jump\t// out\n        /* \"#utility.yul\":3230:3440   */\n    tag_30:\n        /* \"#utility.yul\":3317:3321   */\n      0x00\n        /* \"#utility.yul\":3355:3357   */\n      0x20\n        /* \"#utility.yul\":3344:3353   */\n      dup3\n        /* \"#utility.yul\":3340:3358   */\n      add\n        /* \"#utility.yul\":3332:3358   */\n      swap1\n      pop\n        /* \"#utility.yul\":3368:3433   */\n      tag_357\n        /* \"#utility.yul\":3430:3431   */\n      0x00\n        /* \"#utility.yul\":3419:3428   */\n      dup4\n        /* \"#utility.yul\":3415:3432   */\n      add\n        /* \"#utility.yul\":3406:3412   */\n      dup5\n        /* \"#utility.yul\":3368:3433   */\n      tag_263\n      jump\t// in\n    tag_357:\n        /* \"#utility.yul\":3230:3440   */\n      swap3\n      swap2\n      pop\n      pop\n      jump\t// out\n        /* \"#utility.yul\":3446:3564   */\n    tag_264:\n        /* \"#utility.yul\":3533:3557   */\n      tag_359\n        /* \"#utility.yul\":3551:3556   */\n      dup2\n        /* \"#utility.yul\":3533:3557   */\n      tag_259\n      jump\t// in\n    tag_359:\n        /* \"#utility.yul\":3528:3531   */\n      dup3\n        /* \"#utility.yul\":3521:3558   */\n      mstore\n        /* \"#utility.yul\":3446:3564   */\n      pop\n      pop\n      jump\t// out\n        /* \"#utility.yul\":3570:3792   */\n    tag_34:\n        /* \"#utility.yul\":3663:3667   */\n      0x00\n        /* \"#utility.yul\":3701:3703   */\n      0x20\n        /* \"#utility.yul\":3690:3699   */\n      dup3\n        /* \"#utility.yul\":3686:3704   */\n      add\n        /* \"#utility.yul\":3678:3704   */\n      swap1\n      pop\n        /* \"#utility.yul\":3714:3785   */\n      tag_361\n        /* \"#utility.yul\":3782:3783   */\n      0x00\n        /* \"#utility.yul\":3771:3780   */\n      dup4\n        /* \"#utility.yul\":3767:3784   */\n      add\n        /* \"#utility.yul\":3758:3764   */\n      dup5\n        /* \"#utility.yul\":3714:3785   */\n      tag_264\n      jump\t// in\n    tag_361:\n        /* \"#utility.yul\":3570:3792   */\n      swap3\n      swap2\n      pop\n      pop\n      jump\t// out\n        /* \"#utility.yul\":3798:4417   */\n    tag_37:\n        /* \"#utility.yul\":3875:3881   */\n      0x00\n        /* \"#utility.yul\":3883:3889   */\n      dup1\n        /* \"#utility.yul\":3891:3897   */\n      0x00\n        /* \"#utility.yul\":3940:3942   */\n      0x60\n        /* \"#utility.yul\":3928:3937   */\n      dup5\n        /* \"#utility.yul\":3919:3926   */\n      dup7\n        /* \"#utility.yul\":3915:3938   */\n      sub\n        /* \"#utility.yul\":3911:3943   */\n      slt\n        /* \"#utility.yul\":3908:4027   */\n      iszero\n      tag_363\n      jumpi\n        /* \"#utility.yul\":3946:4025   */\n      tag_364\n      tag_253\n      jump\t// in\n    tag_364:\n        /* \"#utility.yul\":3908:4027   */\n    tag_363:\n        /* \"#utility.yul\":4066:4067   */\n      0x00\n        /* \"#utility.yul\":4091:4144   */\n      tag_365\n        /* \"#utility.yul\":4136:4143   */\n      dup7\n        /* \"#utility.yul\":4127:4133   */\n      dup3\n        /* \"#utility.yul\":4116:4125   */\n      dup8\n        /* \"#utility.yul\":4112:4134   */\n      add\n        /* \"#utility.yul\":4091:4144   */\n      tag_258\n      jump\t// in\n    tag_365:\n        /* \"#utility.yul\":4081:4144   */\n      swap4\n      pop\n        /* \"#utility.yul\":4037:4154   */\n      pop\n        /* \"#utility.yul\":4193:4195   */\n      0x20\n        /* \"#utility.yul\":4219:4272   */\n      tag_366\n        /* \"#utility.yul\":4264:4271   */\n      dup7\n        /* \"#utility.yul\":4255:4261   */\n      dup3\n        /* \"#utility.yul\":4244:4253   */\n      dup8\n        /* \"#utility.yul\":4240:4262   */\n      add\n        /* \"#utility.yul\":4219:4272   */\n      tag_258\n      jump\t// in\n    tag_366:\n        /* \"#utility.yul\":4209:4272   */\n      swap3\n      pop\n        /* \"#utility.yul\":4164:4282   */\n      pop\n        /* \"#utility.yul\":4321:4323   */\n      0x40\n        /* \"#utility.yul\":4347:4400   */\n      tag_367\n        /* \"#utility.yul\":4392:4399   */\n      dup7\n        /* \"#utility.yul\":4383:4389   */\n      dup3\n        /* \"#utility.yul\":4372:4381   */\n      dup8\n        /* \"#utility.yul\":4368:4390   */\n      add\n        /* \"#utility.yul\":4347:4400   */\n      tag_261\n      jump\t// in\n    tag_367:\n        /* \"#utility.yul\":4337:4400   */\n      swap2\n      pop\n        /* \"#utility.yul\":4292:4410   */\n      pop\n        /* \"#utility.yul\":3798:4417   */\n      swap3\n      pop\n      swap3\n      pop\n      swap3\n      jump\t// out\n        /* \"#utility.yul\":4423:4509   */\n    tag_265:\n        /* \"#utility.yul\":4458:4465   */\n      0x00\n        /* \"#utility.yul\":4498:4502   */\n      0xff\n        /* \"#utility.yul\":4491:4496   */\n      dup3\n        /* \"#utility.yul\":4487:4503   */\n      and\n        /* \"#utility.yul\":4476:4503   */\n      swap1\n      pop\n        /* \"#utility.yul\":4423:4509   */\n      swap2\n      swap1\n      pop\n      jump\t// out\n        /* \"#utility.yul\":4515:4627   */\n    tag_266:\n        /* \"#utility.yul\":4598:4620   */\n      tag_370\n        /* \"#utility.yul\":4614:4619   */\n      dup2\n        /* \"#utility.yul\":4598:4620   */\n      tag_265\n      jump\t// in\n    tag_370:\n        /* \"#utility.yul\":4593:4596   */\n      dup3\n        /* \"#utility.yul\":4586:4621   */\n      mstore\n        /* \"#utility.yul\":4515:4627   */\n      pop\n      pop\n      jump\t// out\n        /* \"#utility.yul\":4633:4847   */\n    tag_43:\n        /* \"#utility.yul\":4722:4726   */\n      0x00\n        /* \"#utility.yul\":4760:4762   */\n      0x20\n        /* \"#utility.yul\":4749:4758   */\n      dup3\n        /* \"#utility.yul\":4745:4763   */\n      add\n        /* \"#utility.yul\":4737:4763   */\n      swap1\n      pop\n        /* \"#utility.yul\":4773:4840   */\n      tag_372\n        /* \"#utility.yul\":4837:4838   */\n      0x00\n        /* \"#utility.yul\":4826:4835   */\n      dup4\n        /* \"#utility.yul\":4822:4839   */\n      add\n        /* \"#utility.yul\":4813:4819   */\n      dup5\n        /* \"#utility.yul\":4773:4840   */\n      tag_266\n      jump\t// in\n    tag_372:\n        /* \"#utility.yul\":4633:4847   */\n      swap3\n      swap2\n      pop\n      pop\n      jump\t// out\n        /* \"#utility.yul\":4853:5182   */\n    tag_46:\n        /* \"#utility.yul\":4912:4918   */\n      0x00\n        /* \"#utility.yul\":4961:4963   */\n      0x20\n        /* \"#utility.yul\":4949:4958   */\n      dup3\n        /* \"#utility.yul\":4940:4947   */\n      dup5\n        /* \"#utility.yul\":4936:4959   */\n      sub\n        /* \"#utility.yul\":4932:4964   */\n      slt\n        /* \"#utility.yul\":4929:5048   */\n      iszero\n      tag_374\n      jumpi\n        /* \"#utility.yul\":4967:5046   */\n      tag_375\n      tag_253\n      jump\t// in\n    tag_375:\n        /* \"#utility.yul\":4929:5048   */\n    tag_374:\n        /* \"#utility.yul\":5087:5088   */\n      0x00\n        /* \"#utility.yul\":5112:5165   */\n      tag_376\n        /* \"#utility.yul\":5157:5164   */\n      dup5\n        /* \"#utility.yul\":5148:5154   */\n      dup3\n        /* \"#utility.yul\":5137:5146   */\n      dup6\n        /* \"#utility.yul\":5133:5155   */\n      add\n        /* \"#utility.yul\":5112:5165   */\n      tag_258\n      jump\t// in\n    tag_376:\n        /* \"#utility.yul\":5102:5165   */\n      swap2\n      pop\n        /* \"#utility.yul\":5058:5175   */\n      pop\n        /* \"#utility.yul\":4853:5182   */\n      swap3\n      swap2\n      pop\n      pop\n      jump\t// out\n        /* \"#utility.yul\":5188:5306   */\n    tag_267:\n        /* \"#utility.yul\":5275:5299   */\n      tag_378\n        /* \"#utility.yul\":5293:5298   */\n      dup2\n        /* \"#utility.yul\":5275:5299   */\n      tag_256\n      jump\t// in\n    tag_378:\n        /* \"#utility.yul\":5270:5273   */\n      dup3\n        /* \"#utility.yul\":5263:5300   */\n      mstore\n        /* \"#utility.yul\":5188:5306   */\n      pop\n      pop\n      jump\t// out\n        /* \"#utility.yul\":5312:5534   */\n    tag_52:\n        /* \"#utility.yul\":5405:5409   */\n      0x00\n        /* \"#utility.yul\":5443:5445   */\n      0x20\n        /* \"#utility.yul\":5432:5441   */\n      dup3\n        /* \"#utility.yul\":5428:5446   */\n      add\n        /* \"#utility.yul\":5420:5446   */\n      swap1\n      pop\n        /* \"#utility.yul\":5456:5527   */\n      tag_380\n        /* \"#utility.yul\":5524:5525   */\n      0x00\n        /* \"#utility.yul\":5513:5522   */\n      dup4\n        /* \"#utility.yul\":5509:5526   */\n      add\n        /* \"#utility.yul\":5500:5506   */\n      dup5\n        /* \"#utility.yul\":5456:5527   */\n      tag_267\n      jump\t// in\n    tag_380:\n        /* \"#utility.yul\":5312:5534   */\n      swap3\n      swap2\n      pop\n      pop\n      jump\t// out\n        /* \"#utility.yul\":5540:5648   */\n    tag_268:\n        /* \"#utility.yul\":5617:5641   */\n      tag_382\n        /* \"#utility.yul\":5635:5640   */\n      dup2\n        /* \"#utility.yul\":5617:5641   */\n      tag_256\n      jump\t// in\n    tag_382:\n        /* \"#utility.yul\":5612:5615   */\n      dup3\n        /* \"#utility.yul\":5605:5642   */\n      mstore\n        /* \"#utility.yul\":5540:5648   */\n      pop\n      pop\n      jump\t// out\n        /* \"#utility.yul\":5654:5813   */\n    tag_269:\n        /* \"#utility.yul\":5728:5739   */\n      0x00\n        /* \"#utility.yul\":5762:5768   */\n      dup3\n        /* \"#utility.yul\":5757:5760   */\n      dup3\n        /* \"#utility.yul\":5750:5769   */\n      mstore\n        /* \"#utility.yul\":5802:5806   */\n      0x20\n        /* \"#utility.yul\":5797:5800   */\n      dup3\n        /* \"#utility.yul\":5793:5807   */\n      add\n        /* \"#utility.yul\":5778:5807   */\n      swap1\n      pop\n        /* \"#utility.yul\":5654:5813   */\n      swap3\n      swap2\n      pop\n      pop\n      jump\t// out\n        /* \"#utility.yul\":5819:6176   */\n    tag_270:\n        /* \"#utility.yul\":5897:5900   */\n      0x00\n        /* \"#utility.yul\":5925:5964   */\n      tag_385\n        /* \"#utility.yul\":5958:5963   */\n      dup3\n        /* \"#utility.yul\":5925:5964   */\n      tag_247\n      jump\t// in\n    tag_385:\n        /* \"#utility.yul\":5980:6041   */\n      tag_386\n        /* \"#utility.yul\":6034:6040   */\n      dup2\n        /* \"#utility.yul\":6029:6032   */\n      dup6\n        /* \"#utility.yul\":5980:6041   */\n      tag_269\n      jump\t// in\n    tag_386:\n        /* \"#utility.yul\":5973:6041   */\n      swap4\n      pop\n        /* \"#utility.yul\":6050:6115   */\n      tag_387\n        /* \"#utility.yul\":6108:6114   */\n      dup2\n        /* \"#utility.yul\":6103:6106   */\n      dup6\n        /* \"#utility.yul\":6096:6100   */\n      0x20\n        /* \"#utility.yul\":6089:6094   */\n      dup7\n        /* \"#utility.yul\":6085:6101   */\n      add\n        /* \"#utility.yul\":6050:6115   */\n      tag_249\n      jump\t// in\n    tag_387:\n        /* \"#utility.yul\":6140:6169   */\n      tag_388\n        /* \"#utility.yul\":6162:6168   */\n      dup2\n        /* \"#utility.yul\":6140:6169   */\n      tag_250\n      jump\t// in\n    tag_388:\n        /* \"#utility.yul\":6135:6138   */\n      dup5\n        /* \"#utility.yul\":6131:6170   */\n      add\n        /* \"#utility.yul\":6124:6170   */\n      swap2\n      pop\n        /* \"#utility.yul\":5901:6176   */\n      pop\n        /* \"#utility.yul\":5819:6176   */\n      swap3\n      swap2\n      pop\n      pop\n      jump\t// out\n        /* \"#utility.yul\":6182:6290   */\n    tag_271:\n        /* \"#utility.yul\":6259:6283   */\n      tag_390\n        /* \"#utility.yul\":6277:6282   */\n      dup2\n        /* \"#utility.yul\":6259:6283   */\n      tag_259\n      jump\t// in\n    tag_390:\n        /* \"#utility.yul\":6254:6257   */\n      dup3\n        /* \"#utility.yul\":6247:6284   */\n      mstore\n        /* \"#utility.yul\":6182:6290   */\n      pop\n      pop\n      jump\t// out\n        /* \"#utility.yul\":6380:8322   */\n    tag_272:\n        /* \"#utility.yul\":6521:6524   */\n      0x00\n        /* \"#utility.yul\":6557:6563   */\n      0x0120\n        /* \"#utility.yul\":6552:6555   */\n      dup4\n        /* \"#utility.yul\":6548:6564   */\n      add\n        /* \"#utility.yul\":6649:6653   */\n      0x00\n        /* \"#utility.yul\":6642:6647   */\n      dup4\n        /* \"#utility.yul\":6638:6654   */\n      add\n        /* \"#utility.yul\":6632:6655   */\n      mload\n        /* \"#utility.yul\":6668:6731   */\n      tag_392\n        /* \"#utility.yul\":6725:6729   */\n      0x00\n        /* \"#utility.yul\":6720:6723   */\n      dup7\n        /* \"#utility.yul\":6716:6730   */\n      add\n        /* \"#utility.yul\":6702:6714   */\n      dup3\n        /* \"#utility.yul\":6668:6731   */\n      tag_268\n      jump\t// in\n    tag_392:\n        /* \"#utility.yul\":6574:6741   */\n      pop\n        /* \"#utility.yul\":6833:6837   */\n      0x20\n        /* \"#utility.yul\":6826:6831   */\n      dup4\n        /* \"#utility.yul\":6822:6838   */\n      add\n        /* \"#utility.yul\":6816:6839   */\n      mload\n        /* \"#utility.yul\":6886:6889   */\n      dup5\n        /* \"#utility.yul\":6880:6884   */\n      dup3\n        /* \"#utility.yul\":6876:6890   */\n      sub\n        /* \"#utility.yul\":6869:6873   */\n      0x20\n        /* \"#utility.yul\":6864:6867   */\n      dup7\n        /* \"#utility.yul\":6860:6874   */\n      add\n        /* \"#utility.yul\":6853:6891   */\n      mstore\n        /* \"#utility.yul\":6912:6985   */\n      tag_393\n        /* \"#utility.yul\":6980:6984   */\n      dup3\n        /* \"#utility.yul\":6966:6978   */\n      dup3\n        /* \"#utility.yul\":6912:6985   */\n      tag_270\n      jump\t// in\n    tag_393:\n        /* \"#utility.yul\":6904:6985   */\n      swap2\n      pop\n        /* \"#utility.yul\":6751:6996   */\n      pop\n        /* \"#utility.yul\":7094:7098   */\n      0x40\n        /* \"#utility.yul\":7087:7092   */\n      dup4\n        /* \"#utility.yul\":7083:7099   */\n      add\n        /* \"#utility.yul\":7077:7100   */\n      mload\n        /* \"#utility.yul\":7113:7176   */\n      tag_394\n        /* \"#utility.yul\":7170:7174   */\n      0x40\n        /* \"#utility.yul\":7165:7168   */\n      dup7\n        /* \"#utility.yul\":7161:7175   */\n      add\n        /* \"#utility.yul\":7147:7159   */\n      dup3\n        /* \"#utility.yul\":7113:7176   */\n      tag_271\n      jump\t// in\n    tag_394:\n        /* \"#utility.yul\":7006:7186   */\n      pop\n        /* \"#utility.yul\":7282:7286   */\n      0x60\n        /* \"#utility.yul\":7275:7280   */\n      dup4\n        /* \"#utility.yul\":7271:7287   */\n      add\n        /* \"#utility.yul\":7265:7288   */\n      mload\n        /* \"#utility.yul\":7301:7364   */\n      tag_395\n        /* \"#utility.yul\":7358:7362   */\n      0x60\n        /* \"#utility.yul\":7353:7356   */\n      dup7\n        /* \"#utility.yul\":7349:7363   */\n      add\n        /* \"#utility.yul\":7335:7347   */\n      dup3\n        /* \"#utility.yul\":7301:7364   */\n      tag_271\n      jump\t// in\n    tag_395:\n        /* \"#utility.yul\":7196:7374   */\n      pop\n        /* \"#utility.yul\":7465:7469   */\n      0x80\n        /* \"#utility.yul\":7458:7463   */\n      dup4\n        /* \"#utility.yul\":7454:7470   */\n      add\n        /* \"#utility.yul\":7448:7471   */\n      mload\n        /* \"#utility.yul\":7484:7547   */\n      tag_396\n        /* \"#utility.yul\":7541:7545   */\n      0x80\n        /* \"#utility.yul\":7536:7539   */\n      dup7\n        /* \"#utility.yul\":7532:7546   */\n      add\n        /* \"#utility.yul\":7518:7530   */\n      dup3\n        /* \"#utility.yul\":7484:7547   */\n      tag_271\n      jump\t// in\n    tag_396:\n        /* \"#utility.yul\":7384:7557   */\n      pop\n        /* \"#utility.yul\":7652:7656   */\n      0xa0\n        /* \"#utility.yul\":7645:7650   */\n      dup4\n        /* \"#utility.yul\":7641:7657   */\n      add\n        /* \"#utility.yul\":7635:7658   */\n      mload\n        /* \"#utility.yul\":7671:7734   */\n      tag_397\n        /* \"#utility.yul\":7728:7732   */\n      0xa0\n        /* \"#utility.yul\":7723:7726   */\n      dup7\n        /* \"#utility.yul\":7719:7733   */\n      add\n        /* \"#utility.yul\":7705:7717   */\n      dup3\n        /* \"#utility.yul\":7671:7734   */\n      tag_271\n      jump\t// in\n    tag_397:\n        /* \"#utility.yul\":7567:7744   */\n      pop\n        /* \"#utility.yul\":7838:7842   */\n      0xc0\n        /* \"#utility.yul\":7831:7836   */\n      dup4\n        /* \"#utility.yul\":7827:7843   */\n      add\n        /* \"#utility.yul\":7821:7844   */\n      mload\n        /* \"#utility.yul\":7857:7920   */\n      tag_398\n        /* \"#utility.yul\":7914:7918   */\n      0xc0\n        /* \"#utility.yul\":7909:7912   */\n      dup7\n        /* \"#utility.yul\":7905:7919   */\n      add\n        /* \"#utility.yul\":7891:7903   */\n      dup3\n        /* \"#utility.yul\":7857:7920   */\n      tag_271\n      jump\t// in\n    tag_398:\n        /* \"#utility.yul\":7754:7930   */\n      pop\n        /* \"#utility.yul\":8020:8024   */\n      0xe0\n        /* \"#utility.yul\":8013:8018   */\n      dup4\n        /* \"#utility.yul\":8009:8025   */\n      add\n        /* \"#utility.yul\":8003:8026   */\n      mload\n        /* \"#utility.yul\":8039:8102   */\n      tag_399\n        /* \"#utility.yul\":8096:8100   */\n      0xe0\n        /* \"#utility.yul\":8091:8094   */\n      dup7\n        /* \"#utility.yul\":8087:8101   */\n      add\n        /* \"#utility.yul\":8073:8085   */\n      dup3\n        /* \"#utility.yul\":8039:8102   */\n      tag_271\n      jump\t// in\n    tag_399:\n        /* \"#utility.yul\":7940:8112   */\n      pop\n        /* \"#utility.yul\":8199:8205   */\n      0x0100\n        /* \"#utility.yul\":8192:8197   */\n      dup4\n        /* \"#utility.yul\":8188:8206   */\n      add\n        /* \"#utility.yul\":8182:8207   */\n      mload\n        /* \"#utility.yul\":8220:8285   */\n      tag_400\n        /* \"#utility.yul\":8277:8283   */\n      0x0100\n        /* \"#utility.yul\":8272:8275   */\n      dup7\n        /* \"#utility.yul\":8268:8284   */\n      add\n        /* \"#utility.yul\":8254:8266   */\n      dup3\n        /* \"#utility.yul\":8220:8285   */\n      tag_271\n      jump\t// in\n    tag_400:\n        /* \"#utility.yul\":8122:8295   */\n      pop\n        /* \"#utility.yul\":8312:8316   */\n      dup1\n        /* \"#utility.yul\":8305:8316   */\n      swap2\n      pop\n        /* \"#utility.yul\":6526:8322   */\n      pop\n        /* \"#utility.yul\":6380:8322   */\n      swap3\n      swap2\n      pop\n      pop\n      jump\t// out\n        /* \"#utility.yul\":8328:8745   */\n    tag_59:\n        /* \"#utility.yul\":8493:8497   */\n      0x00\n        /* \"#utility.yul\":8531:8533   */\n      0x20\n        /* \"#utility.yul\":8520:8529   */\n      dup3\n        /* \"#utility.yul\":8516:8534   */\n      add\n        /* \"#utility.yul\":8508:8534   */\n      swap1\n      pop\n        /* \"#utility.yul\":8580:8589   */\n      dup2\n        /* \"#utility.yul\":8574:8578   */\n      dup2\n        /* \"#utility.yul\":8570:8590   */\n      sub\n        /* \"#utility.yul\":8566:8567   */\n      0x00\n        /* \"#utility.yul\":8555:8564   */\n      dup4\n        /* \"#utility.yul\":8551:8568   */\n      add\n        /* \"#utility.yul\":8544:8591   */\n      mstore\n        /* \"#utility.yul\":8608:8738   */\n      tag_402\n        /* \"#utility.yul\":8733:8737   */\n      dup2\n        /* \"#utility.yul\":8724:8730   */\n      dup5\n        /* \"#utility.yul\":8608:8738   */\n      tag_272\n      jump\t// in\n    tag_402:\n        /* \"#utility.yul\":8600:8738   */\n      swap1\n      pop\n        /* \"#utility.yul\":8328:8745   */\n      swap3\n      swap2\n      pop\n      pop\n      jump\t// out\n        /* \"#utility.yul\":8751:9080   */\n    tag_66:\n        /* \"#utility.yul\":8810:8816   */\n      0x00\n        /* \"#utility.yul\":8859:8861   */\n      0x20\n        /* \"#utility.yul\":8847:8856   */\n      dup3\n        /* \"#utility.yul\":8838:8845   */\n      dup5\n        /* \"#utility.yul\":8834:8857   */\n      sub\n        /* \"#utility.yul\":8830:8862   */\n      slt\n        /* \"#utility.yul\":8827:8946   */\n      iszero\n      tag_404\n      jumpi\n        /* \"#utility.yul\":8865:8944   */\n      tag_405\n      tag_253\n      jump\t// in\n    tag_405:\n        /* \"#utility.yul\":8827:8946   */\n    tag_404:\n        /* \"#utility.yul\":8985:8986   */\n      0x00\n        /* \"#utility.yul\":9010:9063   */\n      tag_406\n        /* \"#utility.yul\":9055:9062   */\n      dup5\n        /* \"#utility.yul\":9046:9052   */\n      dup3\n        /* \"#utility.yul\":9035:9044   */\n      dup6\n        /* \"#utility.yul\":9031:9053   */\n      add\n        /* \"#utility.yul\":9010:9063   */\n      tag_261\n      jump\t// in\n    tag_406:\n        /* \"#utility.yul\":9000:9063   */\n      swap2\n      pop\n        /* \"#utility.yul\":8956:9073   */\n      pop\n        /* \"#utility.yul\":8751:9080   */\n      swap3\n      swap2\n      pop\n      pop\n      jump\t// out\n        /* \"#utility.yul\":9086:9203   */\n    tag_273:\n        /* \"#utility.yul\":9195:9196   */\n      0x00\n        /* \"#utility.yul\":9192:9193   */\n      dup1\n        /* \"#utility.yul\":9185:9197   */\n      revert\n        /* \"#utility.yul\":9209:9326   */\n    tag_274:\n        /* \"#utility.yul\":9318:9319   */\n      0x00\n        /* \"#utility.yul\":9315:9316   */\n      dup1\n        /* \"#utility.yul\":9308:9320   */\n      revert\n        /* \"#utility.yul\":9332:9449   */\n    tag_275:\n        /* \"#utility.yul\":9441:9442   */\n      0x00\n        /* \"#utility.yul\":9438:9439   */\n      dup1\n        /* \"#utility.yul\":9431:9443   */\n      revert\n        /* \"#utility.yul\":9469:10022   */\n    tag_276:\n        /* \"#utility.yul\":9527:9535   */\n      0x00\n        /* \"#utility.yul\":9537:9543   */\n      dup1\n        /* \"#utility.yul\":9587:9590   */\n      dup4\n        /* \"#utility.yul\":9580:9584   */\n      0x1f\n        /* \"#utility.yul\":9572:9578   */\n      dup5\n        /* \"#utility.yul\":9568:9585   */\n      add\n        /* \"#utility.yul\":9564:9591   */\n      slt\n        /* \"#utility.yul\":9554:9676   */\n      tag_411\n      jumpi\n        /* \"#utility.yul\":9595:9674   */\n      tag_412\n      tag_273\n      jump\t// in\n    tag_412:\n        /* \"#utility.yul\":9554:9676   */\n    tag_411:\n        /* \"#utility.yul\":9708:9714   */\n      dup3\n        /* \"#utility.yul\":9695:9715   */\n      calldataload\n        /* \"#utility.yul\":9685:9715   */\n      swap1\n      pop\n        /* \"#utility.yul\":9738:9756   */\n      0xffffffffffffffff\n        /* \"#utility.yul\":9730:9736   */\n      dup2\n        /* \"#utility.yul\":9727:9757   */\n      gt\n        /* \"#utility.yul\":9724:9841   */\n      iszero\n      tag_413\n      jumpi\n        /* \"#utility.yul\":9760:9839   */\n      tag_414\n      tag_274\n      jump\t// in\n    tag_414:\n        /* \"#utility.yul\":9724:9841   */\n    tag_413:\n        /* \"#utility.yul\":9874:9878   */\n      0x20\n        /* \"#utility.yul\":9866:9872   */\n      dup4\n        /* \"#utility.yul\":9862:9879   */\n      add\n        /* \"#utility.yul\":9850:9879   */\n      swap2\n      pop\n        /* \"#utility.yul\":9928:9931   */\n      dup4\n        /* \"#utility.yul\":9920:9924   */\n      0x01\n        /* \"#utility.yul\":9912:9918   */\n      dup3\n        /* \"#utility.yul\":9908:9925   */\n      mul\n        /* \"#utility.yul\":9898:9906   */\n      dup4\n        /* \"#utility.yul\":9894:9926   */\n      add\n        /* \"#utility.yul\":9891:9932   */\n      gt\n        /* \"#utility.yul\":9888:10016   */\n      iszero\n      tag_415\n      jumpi\n        /* \"#utility.yul\":9935:10014   */\n      tag_416\n      tag_275\n      jump\t// in\n    tag_416:\n        /* \"#utility.yul\":9888:10016   */\n    tag_415:\n        /* \"#utility.yul\":9469:10022   */\n      swap3\n      pop\n      swap3\n      swap1\n      pop\n      jump\t// out\n        /* \"#utility.yul\":10028:10146   */\n    tag_277:\n        /* \"#utility.yul\":10099:10121   */\n      tag_418\n        /* \"#utility.yul\":10115:10120   */\n      dup2\n        /* \"#utility.yul\":10099:10121   */\n      tag_265\n      jump\t// in\n    tag_418:\n        /* \"#utility.yul\":10092:10097   */\n      dup2\n        /* \"#utility.yul\":10089:10122   */\n      eq\n        /* \"#utility.yul\":10079:10140   */\n      tag_419\n      jumpi\n        /* \"#utility.yul\":10136:10137   */\n      0x00\n        /* \"#utility.yul\":10133:10134   */\n      dup1\n        /* \"#utility.yul\":10126:10138   */\n      revert\n        /* \"#utility.yul\":10079:10140   */\n    tag_419:\n        /* \"#utility.yul\":10028:10146   */\n      pop\n      jump\t// out\n        /* \"#utility.yul\":10152:10287   */\n    tag_278:\n        /* \"#utility.yul\":10196:10201   */\n      0x00\n        /* \"#utility.yul\":10234:10240   */\n      dup2\n        /* \"#utility.yul\":10221:10241   */\n      calldataload\n        /* \"#utility.yul\":10212:10241   */\n      swap1\n      pop\n        /* \"#utility.yul\":10250:10281   */\n      tag_421\n        /* \"#utility.yul\":10275:10280   */\n      dup2\n        /* \"#utility.yul\":10250:10281   */\n      tag_277\n      jump\t// in\n    tag_421:\n        /* \"#utility.yul\":10152:10287   */\n      swap3\n      swap2\n      pop\n      pop\n      jump\t// out\n        /* \"#utility.yul\":10293:11108   */\n    tag_70:\n        /* \"#utility.yul\":10380:10386   */\n      0x00\n        /* \"#utility.yul\":10388:10394   */\n      dup1\n        /* \"#utility.yul\":10396:10402   */\n      0x00\n        /* \"#utility.yul\":10404:10410   */\n      dup1\n        /* \"#utility.yul\":10453:10455   */\n      0x60\n        /* \"#utility.yul\":10441:10450   */\n      dup6\n        /* \"#utility.yul\":10432:10439   */\n      dup8\n        /* \"#utility.yul\":10428:10451   */\n      sub\n        /* \"#utility.yul\":10424:10456   */\n      slt\n        /* \"#utility.yul\":10421:10540   */\n      iszero\n      tag_423\n      jumpi\n        /* \"#utility.yul\":10459:10538   */\n      tag_424\n      tag_253\n      jump\t// in\n    tag_424:\n        /* \"#utility.yul\":10421:10540   */\n    tag_423:\n        /* \"#utility.yul\":10579:10580   */\n      0x00\n        /* \"#utility.yul\":10604:10657   */\n      tag_425\n        /* \"#utility.yul\":10649:10656   */\n      dup8\n        /* \"#utility.yul\":10640:10646   */\n      dup3\n        /* \"#utility.yul\":10629:10638   */\n      dup9\n        /* \"#utility.yul\":10625:10647   */\n      add\n        /* \"#utility.yul\":10604:10657   */\n      tag_261\n      jump\t// in\n    tag_425:\n        /* \"#utility.yul\":10594:10657   */\n      swap5\n      pop\n        /* \"#utility.yul\":10550:10667   */\n      pop\n        /* \"#utility.yul\":10734:10736   */\n      0x20\n        /* \"#utility.yul\":10723:10732   */\n      dup6\n        /* \"#utility.yul\":10719:10737   */\n      add\n        /* \"#utility.yul\":10706:10738   */\n      calldataload\n        /* \"#utility.yul\":10765:10783   */\n      0xffffffffffffffff\n        /* \"#utility.yul\":10757:10763   */\n      dup2\n        /* \"#utility.yul\":10754:10784   */\n      gt\n        /* \"#utility.yul\":10751:10868   */\n      iszero\n      tag_426\n      jumpi\n        /* \"#utility.yul\":10787:10866   */\n      tag_427\n      tag_254\n      jump\t// in\n    tag_427:\n        /* \"#utility.yul\":10751:10868   */\n    tag_426:\n        /* \"#utility.yul\":10900:10965   */\n      tag_428\n        /* \"#utility.yul\":10957:10964   */\n      dup8\n        /* \"#utility.yul\":10948:10954   */\n      dup3\n        /* \"#utility.yul\":10937:10946   */\n      dup9\n        /* \"#utility.yul\":10933:10955   */\n      add\n        /* \"#utility.yul\":10900:10965   */\n      tag_276\n      jump\t// in\n    tag_428:\n        /* \"#utility.yul\":10882:10965   */\n      swap4\n      pop\n      swap4\n      pop\n        /* \"#utility.yul\":10677:10975   */\n      pop\n        /* \"#utility.yul\":11014:11016   */\n      0x40\n        /* \"#utility.yul\":11040:11091   */\n      tag_429\n        /* \"#utility.yul\":11083:11090   */\n      dup8\n        /* \"#utility.yul\":11074:11080   */\n      dup3\n        /* \"#utility.yul\":11063:11072   */\n      dup9\n        /* \"#utility.yul\":11059:11081   */\n      add\n        /* \"#utility.yul\":11040:11091   */\n      tag_278\n      jump\t// in\n    tag_429:\n        /* \"#utility.yul\":11030:11091   */\n      swap2\n      pop\n        /* \"#utility.yul\":10985:11101   */\n      pop\n        /* \"#utility.yul\":10293:11108   */\n      swap3\n      swap6\n      swap2\n      swap5\n      pop\n      swap3\n      pop\n      jump\t// out\n        /* \"#utility.yul\":11114:11588   */\n    tag_74:\n        /* \"#utility.yul\":11182:11188   */\n      0x00\n        /* \"#utility.yul\":11190:11196   */\n      dup1\n        /* \"#utility.yul\":11239:11241   */\n      0x40\n        /* \"#utility.yul\":11227:11236   */\n      dup4\n        /* \"#utility.yul\":11218:11225   */\n      dup6\n        /* \"#utility.yul\":11214:11237   */\n      sub\n        /* \"#utility.yul\":11210:11242   */\n      slt\n        /* \"#utility.yul\":11207:11326   */\n      iszero\n      tag_431\n      jumpi\n        /* \"#utility.yul\":11245:11324   */\n      tag_432\n      tag_253\n      jump\t// in\n    tag_432:\n        /* \"#utility.yul\":11207:11326   */\n    tag_431:\n        /* \"#utility.yul\":11365:11366   */\n      0x00\n        /* \"#utility.yul\":11390:11443   */\n      tag_433\n        /* \"#utility.yul\":11435:11442   */\n      dup6\n        /* \"#utility.yul\":11426:11432   */\n      dup3\n        /* \"#utility.yul\":11415:11424   */\n      dup7\n        /* \"#utility.yul\":11411:11433   */\n      add\n        /* \"#utility.yul\":11390:11443   */\n      tag_258\n      jump\t// in\n    tag_433:\n        /* \"#utility.yul\":11380:11443   */\n      swap3\n      pop\n        /* \"#utility.yul\":11336:11453   */\n      pop\n        /* \"#utility.yul\":11492:11494   */\n      0x20\n        /* \"#utility.yul\":11518:11571   */\n      tag_434\n        /* \"#utility.yul\":11563:11570   */\n      dup6\n        /* \"#utility.yul\":11554:11560   */\n      dup3\n        /* \"#utility.yul\":11543:11552   */\n      dup7\n        /* \"#utility.yul\":11539:11561   */\n      add\n        /* \"#utility.yul\":11518:11571   */\n      tag_258\n      jump\t// in\n    tag_434:\n        /* \"#utility.yul\":11508:11571   */\n      swap2\n      pop\n        /* \"#utility.yul\":11463:11581   */\n      pop\n        /* \"#utility.yul\":11114:11588   */\n      swap3\n      pop\n      swap3\n      swap1\n      pop\n      jump\t// out\n        /* \"#utility.yul\":11594:11654   */\n    tag_279:\n        /* \"#utility.yul\":11622:11625   */\n      0x00\n        /* \"#utility.yul\":11643:11648   */\n      dup2\n        /* \"#utility.yul\":11636:11648   */\n      swap1\n      pop\n        /* \"#utility.yul\":11594:11654   */\n      swap2\n      swap1\n      pop\n      jump\t// out\n        /* \"#utility.yul\":11660:11802   */\n    tag_280:\n        /* \"#utility.yul\":11710:11719   */\n      0x00\n        /* \"#utility.yul\":11743:11796   */\n      tag_437\n        /* \"#utility.yul\":11761:11795   */\n      tag_438\n        /* \"#utility.yul\":11770:11794   */\n      tag_439\n        /* \"#utility.yul\":11788:11793   */\n      dup5\n        /* \"#utility.yul\":11770:11794   */\n      tag_255\n      jump\t// in\n    tag_439:\n        /* \"#utility.yul\":11761:11795   */\n      tag_279\n      jump\t// in\n    tag_438:\n        /* \"#utility.yul\":11743:11796   */\n      tag_255\n      jump\t// in\n    tag_437:\n        /* \"#utility.yul\":11730:11796   */\n      swap1\n      pop\n        /* \"#utility.yul\":11660:11802   */\n      swap2\n      swap1\n      pop\n      jump\t// out\n        /* \"#utility.yul\":11808:11934   */\n    tag_281:\n        /* \"#utility.yul\":11858:11867   */\n      0x00\n        /* \"#utility.yul\":11891:11928   */\n      tag_441\n        /* \"#utility.yul\":11922:11927   */\n      dup3\n        /* \"#utility.yul\":11891:11928   */\n      tag_280\n      jump\t// in\n    tag_441:\n        /* \"#utility.yul\":11878:11928   */\n      swap1\n      pop\n        /* \"#utility.yul\":11808:11934   */\n      swap2\n      swap1\n      pop\n      jump\t// out\n        /* \"#utility.yul\":11940:12080   */\n    tag_282:\n        /* \"#utility.yul\":12004:12013   */\n      0x00\n        /* \"#utility.yul\":12037:12074   */\n      tag_443\n        /* \"#utility.yul\":12068:12073   */\n      dup3\n        /* \"#utility.yul\":12037:12074   */\n      tag_281\n      jump\t// in\n    tag_443:\n        /* \"#utility.yul\":12024:12074   */\n      swap1\n      pop\n        /* \"#utility.yul\":11940:12080   */\n      swap2\n      swap1\n      pop\n      jump\t// out\n        /* \"#utility.yul\":12086:12245   */\n    tag_283:\n        /* \"#utility.yul\":12187:12238   */\n      tag_445\n        /* \"#utility.yul\":12232:12237   */\n      dup2\n        /* \"#utility.yul\":12187:12238   */\n      tag_282\n      jump\t// in\n    tag_445:\n        /* \"#utility.yul\":12182:12185   */\n      dup3\n        /* \"#utility.yul\":12175:12239   */\n      mstore\n        /* \"#utility.yul\":12086:12245   */\n      pop\n      pop\n      jump\t// out\n        /* \"#utility.yul\":12251:12501   */\n    tag_80:\n        /* \"#utility.yul\":12358:12362   */\n      0x00\n        /* \"#utility.yul\":12396:12398   */\n      0x20\n        /* \"#utility.yul\":12385:12394   */\n      dup3\n        /* \"#utility.yul\":12381:12399   */\n      add\n        /* \"#utility.yul\":12373:12399   */\n      swap1\n      pop\n        /* \"#utility.yul\":12409:12494   */\n      tag_447\n        /* \"#utility.yul\":12491:12492   */\n      0x00\n        /* \"#utility.yul\":12480:12489   */\n      dup4\n        /* \"#utility.yul\":12476:12493   */\n      add\n        /* \"#utility.yul\":12467:12473   */\n      dup5\n        /* \"#utility.yul\":12409:12494   */\n      tag_283\n      jump\t// in\n    tag_447:\n        /* \"#utility.yul\":12251:12501   */\n      swap3\n      swap2\n      pop\n      pop\n      jump\t// out\n        /* \"#utility.yul\":12507:12687   */\n    tag_284:\n        /* \"#utility.yul\":12555:12632   */\n      0x4e487b7100000000000000000000000000000000000000000000000000000000\n        /* \"#utility.yul\":12552:12553   */\n      0x00\n        /* \"#utility.yul\":12545:12633   */\n      mstore\n        /* \"#utility.yul\":12652:12656   */\n      0x22\n        /* \"#utility.yul\":12649:12650   */\n      0x04\n        /* \"#utility.yul\":12642:12657   */\n      mstore\n        /* \"#utility.yul\":12676:12680   */\n      0x24\n        /* \"#utility.yul\":12673:12674   */\n      0x00\n        /* \"#utility.yul\":12666:12681   */\n      revert\n        /* \"#utility.yul\":12693:13013   */\n    tag_86:\n        /* \"#utility.yul\":12737:12743   */\n      0x00\n        /* \"#utility.yul\":12774:12775   */\n      0x02\n        /* \"#utility.yul\":12768:12772   */\n      dup3\n        /* \"#utility.yul\":12764:12776   */\n      div\n        /* \"#utility.yul\":12754:12776   */\n      swap1\n      pop\n        /* \"#utility.yul\":12821:12822   */\n      0x01\n        /* \"#utility.yul\":12815:12819   */\n      dup3\n        /* \"#utility.yul\":12811:12823   */\n      and\n        /* \"#utility.yul\":12842:12860   */\n      dup1\n        /* \"#utility.yul\":12832:12913   */\n      tag_450\n      jumpi\n        /* \"#utility.yul\":12898:12902   */\n      0x7f\n        /* \"#utility.yul\":12890:12896   */\n      dup3\n        /* \"#utility.yul\":12886:12903   */\n      and\n        /* \"#utility.yul\":12876:12903   */\n      swap2\n      pop\n        /* \"#utility.yul\":12832:12913   */\n    tag_450:\n        /* \"#utility.yul\":12960:12962   */\n      0x20\n        /* \"#utility.yul\":12952:12958   */\n      dup3\n        /* \"#utility.yul\":12949:12963   */\n      lt\n        /* \"#utility.yul\":12929:12947   */\n      dup2\n        /* \"#utility.yul\":12926:12964   */\n      sub\n        /* \"#utility.yul\":12923:13007   */\n      tag_451\n      jumpi\n        /* \"#utility.yul\":12979:12997   */\n      tag_452\n      tag_284\n      jump\t// in\n    tag_452:\n        /* \"#utility.yul\":12923:13007   */\n    tag_451:\n        /* \"#utility.yul\":12744:13013   */\n      pop\n        /* \"#utility.yul\":12693:13013   */\n      swap2\n      swap1\n      pop\n      jump\t// out\n        /* \"#utility.yul\":13019:13266   */\n    tag_285:\n        /* \"#utility.yul\":13159:13193   */\n      0x4f6e6c792074686520636f6e7472616374206f776e657220697320616c6c6f77\n        /* \"#utility.yul\":13155:13156   */\n      0x00\n        /* \"#utility.yul\":13147:13153   */\n      dup3\n        /* \"#utility.yul\":13143:13157   */\n      add\n        /* \"#utility.yul\":13136:13194   */\n      mstore\n        /* \"#utility.yul\":13228:13258   */\n      0x656420746f20646f20746865206465736972656420616374696f6e2e00000000\n        /* \"#utility.yul\":13223:13225   */\n      0x20\n        /* \"#utility.yul\":13215:13221   */\n      dup3\n        /* \"#utility.yul\":13211:13226   */\n      add\n        /* \"#utility.yul\":13204:13259   */\n      mstore\n        /* \"#utility.yul\":13019:13266   */\n      pop\n      jump\t// out\n        /* \"#utility.yul\":13272:13638   */\n    tag_286:\n        /* \"#utility.yul\":13414:13417   */\n      0x00\n        /* \"#utility.yul\":13435:13502   */\n      tag_455\n        /* \"#utility.yul\":13499:13501   */\n      0x3c\n        /* \"#utility.yul\":13494:13497   */\n      dup4\n        /* \"#utility.yul\":13435:13502   */\n      tag_248\n      jump\t// in\n    tag_455:\n        /* \"#utility.yul\":13428:13502   */\n      swap2\n      pop\n        /* \"#utility.yul\":13511:13604   */\n      tag_456\n        /* \"#utility.yul\":13600:13603   */\n      dup3\n        /* \"#utility.yul\":13511:13604   */\n      tag_285\n      jump\t// in\n    tag_456:\n        /* \"#utility.yul\":13629:13631   */\n      0x40\n        /* \"#utility.yul\":13624:13627   */\n      dup3\n        /* \"#utility.yul\":13620:13632   */\n      add\n        /* \"#utility.yul\":13613:13632   */\n      swap1\n      pop\n        /* \"#utility.yul\":13272:13638   */\n      swap2\n      swap1\n      pop\n      jump\t// out\n        /* \"#utility.yul\":13644:14063   */\n    tag_108:\n        /* \"#utility.yul\":13810:13814   */\n      0x00\n        /* \"#utility.yul\":13848:13850   */\n      0x20\n        /* \"#utility.yul\":13837:13846   */\n      dup3\n        /* \"#utility.yul\":13833:13851   */\n      add\n        /* \"#utility.yul\":13825:13851   */\n      swap1\n      pop\n        /* \"#utility.yul\":13897:13906   */\n      dup2\n        /* \"#utility.yul\":13891:13895   */\n      dup2\n        /* \"#utility.yul\":13887:13907   */\n      sub\n        /* \"#utility.yul\":13883:13884   */\n      0x00\n        /* \"#utility.yul\":13872:13881   */\n      dup4\n        /* \"#utility.yul\":13868:13885   */\n      add\n        /* \"#utility.yul\":13861:13908   */\n      mstore\n        /* \"#utility.yul\":13925:14056   */\n      tag_458\n        /* \"#utility.yul\":14051:14055   */\n      dup2\n        /* \"#utility.yul\":13925:14056   */\n      tag_286\n      jump\t// in\n    tag_458:\n        /* \"#utility.yul\":13917:14056   */\n      swap1\n      pop\n        /* \"#utility.yul\":13644:14063   */\n      swap2\n      swap1\n      pop\n      jump\t// out\n        /* \"#utility.yul\":14069:14245   */\n    tag_287:\n        /* \"#utility.yul\":14209:14237   */\n      0x54686520636c69656e74206973206e6f7420696e73757265642e000000000000\n        /* \"#utility.yul\":14205:14206   */\n      0x00\n        /* \"#utility.yul\":14197:14203   */\n      dup3\n        /* \"#utility.yul\":14193:14207   */\n      add\n        /* \"#utility.yul\":14186:14238   */\n      mstore\n        /* \"#utility.yul\":14069:14245   */\n      pop\n      jump\t// out\n        /* \"#utility.yul\":14251:14617   */\n    tag_288:\n        /* \"#utility.yul\":14393:14396   */\n      0x00\n        /* \"#utility.yul\":14414:14481   */\n      tag_461\n        /* \"#utility.yul\":14478:14480   */\n      0x1a\n        /* \"#utility.yul\":14473:14476   */\n      dup4\n        /* \"#utility.yul\":14414:14481   */\n      tag_248\n      jump\t// in\n    tag_461:\n        /* \"#utility.yul\":14407:14481   */\n      swap2\n      pop\n        /* \"#utility.yul\":14490:14583   */\n      tag_462\n        /* \"#utility.yul\":14579:14582   */\n      dup3\n        /* \"#utility.yul\":14490:14583   */\n      tag_287\n      jump\t// in\n    tag_462:\n        /* \"#utility.yul\":14608:14610   */\n      0x20\n        /* \"#utility.yul\":14603:14606   */\n      dup3\n        /* \"#utility.yul\":14599:14611   */\n      add\n        /* \"#utility.yul\":14592:14611   */\n      swap1\n      pop\n        /* \"#utility.yul\":14251:14617   */\n      swap2\n      swap1\n      pop\n      jump\t// out\n        /* \"#utility.yul\":14623:15042   */\n    tag_121:\n        /* \"#utility.yul\":14789:14793   */\n      0x00\n        /* \"#utility.yul\":14827:14829   */\n      0x20\n        /* \"#utility.yul\":14816:14825   */\n      dup3\n        /* \"#utility.yul\":14812:14830   */\n      add\n        /* \"#utility.yul\":14804:14830   */\n      swap1\n      pop\n        /* \"#utility.yul\":14876:14885   */\n      dup2\n        /* \"#utility.yul\":14870:14874   */\n      dup2\n        /* \"#utility.yul\":14866:14886   */\n      sub\n        /* \"#utility.yul\":14862:14863   */\n      0x00\n        /* \"#utility.yul\":14851:14860   */\n      dup4\n        /* \"#utility.yul\":14847:14864   */\n      add\n        /* \"#utility.yul\":14840:14887   */\n      mstore\n        /* \"#utility.yul\":14904:15035   */\n      tag_464\n        /* \"#utility.yul\":15030:15034   */\n      dup2\n        /* \"#utility.yul\":14904:15035   */\n      tag_288\n      jump\t// in\n    tag_464:\n        /* \"#utility.yul\":14896:15035   */\n      swap1\n      pop\n        /* \"#utility.yul\":14623:15042   */\n      swap2\n      swap1\n      pop\n      jump\t// out\n        /* \"#utility.yul\":15048:15221   */\n    tag_289:\n        /* \"#utility.yul\":15188:15213   */\n      0x5061796d656e74206973206e6f7420647565207965742e000000000000000000\n        /* \"#utility.yul\":15184:15185   */\n      0x00\n        /* \"#utility.yul\":15176:15182   */\n      dup3\n        /* \"#utility.yul\":15172:15186   */\n      add\n        /* \"#utility.yul\":15165:15214   */\n      mstore\n        /* \"#utility.yul\":15048:15221   */\n      pop\n      jump\t// out\n        /* \"#utility.yul\":15227:15593   */\n    tag_290:\n        /* \"#utility.yul\":15369:15372   */\n      0x00\n        /* \"#utility.yul\":15390:15457   */\n      tag_467\n        /* \"#utility.yul\":15454:15456   */\n      0x17\n        /* \"#utility.yul\":15449:15452   */\n      dup4\n        /* \"#utility.yul\":15390:15457   */\n      tag_248\n      jump\t// in\n    tag_467:\n        /* \"#utility.yul\":15383:15457   */\n      swap2\n      pop\n        /* \"#utility.yul\":15466:15559   */\n      tag_468\n        /* \"#utility.yul\":15555:15558   */\n      dup3\n        /* \"#utility.yul\":15466:15559   */\n      tag_289\n      jump\t// in\n    tag_468:\n        /* \"#utility.yul\":15584:15586   */\n      0x20\n        /* \"#utility.yul\":15579:15582   */\n      dup3\n        /* \"#utility.yul\":15575:15587   */\n      add\n        /* \"#utility.yul\":15568:15587   */\n      swap1\n      pop\n        /* \"#utility.yul\":15227:15593   */\n      swap2\n      swap1\n      pop\n      jump\t// out\n        /* \"#utility.yul\":15599:16018   */\n    tag_134:\n        /* \"#utility.yul\":15765:15769   */\n      0x00\n        /* \"#utility.yul\":15803:15805   */\n      0x20\n        /* \"#utility.yul\":15792:15801   */\n      dup3\n        /* \"#utility.yul\":15788:15806   */\n      add\n        /* \"#utility.yul\":15780:15806   */\n      swap1\n      pop\n        /* \"#utility.yul\":15852:15861   */\n      dup2\n        /* \"#utility.yul\":15846:15850   */\n      dup2\n        /* \"#utility.yul\":15842:15862   */\n      sub\n        /* \"#utility.yul\":15838:15839   */\n      0x00\n        /* \"#utility.yul\":15827:15836   */\n      dup4\n        /* \"#utility.yul\":15823:15840   */\n      add\n        /* \"#utility.yul\":15816:15863   */\n      mstore\n        /* \"#utility.yul\":15880:16011   */\n      tag_470\n        /* \"#utility.yul\":16006:16010   */\n      dup2\n        /* \"#utility.yul\":15880:16011   */\n      tag_290\n      jump\t// in\n    tag_470:\n        /* \"#utility.yul\":15872:16011   */\n      swap1\n      pop\n        /* \"#utility.yul\":15599:16018   */\n      swap2\n      swap1\n      pop\n      jump\t// out\n        /* \"#utility.yul\":16024:16200   */\n    tag_291:\n        /* \"#utility.yul\":16164:16192   */\n      0x5072656d69756d206973206e6f742073756666696369656e742e000000000000\n        /* \"#utility.yul\":16160:16161   */\n      0x00\n        /* \"#utility.yul\":16152:16158   */\n      dup3\n        /* \"#utility.yul\":16148:16162   */\n      add\n        /* \"#utility.yul\":16141:16193   */\n      mstore\n        /* \"#utility.yul\":16024:16200   */\n      pop\n      jump\t// out\n        /* \"#utility.yul\":16206:16572   */\n    tag_292:\n        /* \"#utility.yul\":16348:16351   */\n      0x00\n        /* \"#utility.yul\":16369:16436   */\n      tag_473\n        /* \"#utility.yul\":16433:16435   */\n      0x1a\n        /* \"#utility.yul\":16428:16431   */\n      dup4\n        /* \"#utility.yul\":16369:16436   */\n      tag_248\n      jump\t// in\n    tag_473:\n        /* \"#utility.yul\":16362:16436   */\n      swap2\n      pop\n        /* \"#utility.yul\":16445:16538   */\n      tag_474\n        /* \"#utility.yul\":16534:16537   */\n      dup3\n        /* \"#utility.yul\":16445:16538   */\n      tag_291\n      jump\t// in\n    tag_474:\n        /* \"#utility.yul\":16563:16565   */\n      0x20\n        /* \"#utility.yul\":16558:16561   */\n      dup3\n        /* \"#utility.yul\":16554:16566   */\n      add\n        /* \"#utility.yul\":16547:16566   */\n      swap1\n      pop\n        /* \"#utility.yul\":16206:16572   */\n      swap2\n      swap1\n      pop\n      jump\t// out\n        /* \"#utility.yul\":16578:16997   */\n    tag_138:\n        /* \"#utility.yul\":16744:16748   */\n      0x00\n        /* \"#utility.yul\":16782:16784   */\n      0x20\n        /* \"#utility.yul\":16771:16780   */\n      dup3\n        /* \"#utility.yul\":16767:16785   */\n      add\n        /* \"#utility.yul\":16759:16785   */\n      swap1\n      pop\n        /* \"#utility.yul\":16831:16840   */\n      dup2\n        /* \"#utility.yul\":16825:16829   */\n      dup2\n        /* \"#utility.yul\":16821:16841   */\n      sub\n        /* \"#utility.yul\":16817:16818   */\n      0x00\n        /* \"#utility.yul\":16806:16815   */\n      dup4\n        /* \"#utility.yul\":16802:16819   */\n      add\n        /* \"#utility.yul\":16795:16842   */\n      mstore\n        /* \"#utility.yul\":16859:16990   */\n      tag_476\n        /* \"#utility.yul\":16985:16989   */\n      dup2\n        /* \"#utility.yul\":16859:16990   */\n      tag_292\n      jump\t// in\n    tag_476:\n        /* \"#utility.yul\":16851:16990   */\n      swap1\n      pop\n        /* \"#utility.yul\":16578:16997   */\n      swap2\n      swap1\n      pop\n      jump\t// out\n        /* \"#utility.yul\":17003:17445   */\n    tag_141:\n        /* \"#utility.yul\":17152:17156   */\n      0x00\n        /* \"#utility.yul\":17190:17192   */\n      0x60\n        /* \"#utility.yul\":17179:17188   */\n      dup3\n        /* \"#utility.yul\":17175:17193   */\n      add\n        /* \"#utility.yul\":17167:17193   */\n      swap1\n      pop\n        /* \"#utility.yul\":17203:17274   */\n      tag_478\n        /* \"#utility.yul\":17271:17272   */\n      0x00\n        /* \"#utility.yul\":17260:17269   */\n      dup4\n        /* \"#utility.yul\":17256:17273   */\n      add\n        /* \"#utility.yul\":17247:17253   */\n      dup7\n        /* \"#utility.yul\":17203:17274   */\n      tag_267\n      jump\t// in\n    tag_478:\n        /* \"#utility.yul\":17284:17356   */\n      tag_479\n        /* \"#utility.yul\":17352:17354   */\n      0x20\n        /* \"#utility.yul\":17341:17350   */\n      dup4\n        /* \"#utility.yul\":17337:17355   */\n      add\n        /* \"#utility.yul\":17328:17334   */\n      dup6\n        /* \"#utility.yul\":17284:17356   */\n      tag_267\n      jump\t// in\n    tag_479:\n        /* \"#utility.yul\":17366:17438   */\n      tag_480\n        /* \"#utility.yul\":17434:17436   */\n      0x40\n        /* \"#utility.yul\":17423:17432   */\n      dup4\n        /* \"#utility.yul\":17419:17437   */\n      add\n        /* \"#utility.yul\":17410:17416   */\n      dup5\n        /* \"#utility.yul\":17366:17438   */\n      tag_264\n      jump\t// in\n    tag_480:\n        /* \"#utility.yul\":17003:17445   */\n      swap5\n      swap4\n      pop\n      pop\n      pop\n      pop\n      jump\t// out\n        /* \"#utility.yul\":17451:17567   */\n    tag_293:\n        /* \"#utility.yul\":17521:17542   */\n      tag_482\n        /* \"#utility.yul\":17536:17541   */\n      dup2\n        /* \"#utility.yul\":17521:17542   */\n      tag_262\n      jump\t// in\n    tag_482:\n        /* \"#utility.yul\":17514:17519   */\n      dup2\n        /* \"#utility.yul\":17511:17543   */\n      eq\n        /* \"#utility.yul\":17501:17561   */\n      tag_483\n      jumpi\n        /* \"#utility.yul\":17557:17558   */\n      0x00\n        /* \"#utility.yul\":17554:17555   */\n      dup1\n        /* \"#utility.yul\":17547:17559   */\n      revert\n        /* \"#utility.yul\":17501:17561   */\n    tag_483:\n        /* \"#utility.yul\":17451:17567   */\n      pop\n      jump\t// out\n        /* \"#utility.yul\":17573:17710   */\n    tag_294:\n        /* \"#utility.yul\":17627:17632   */\n      0x00\n        /* \"#utility.yul\":17658:17664   */\n      dup2\n        /* \"#utility.yul\":17652:17665   */\n      mload\n        /* \"#utility.yul\":17643:17665   */\n      swap1\n      pop\n        /* \"#utility.yul\":17674:17704   */\n      tag_485\n        /* \"#utility.yul\":17698:17703   */\n      dup2\n        /* \"#utility.yul\":17674:17704   */\n      tag_293\n      jump\t// in\n    tag_485:\n        /* \"#utility.yul\":17573:17710   */\n      swap3\n      swap2\n      pop\n      pop\n      jump\t// out\n        /* \"#utility.yul\":17716:18061   */\n    tag_145:\n        /* \"#utility.yul\":17783:17789   */\n      0x00\n        /* \"#utility.yul\":17832:17834   */\n      0x20\n        /* \"#utility.yul\":17820:17829   */\n      dup3\n        /* \"#utility.yul\":17811:17818   */\n      dup5\n        /* \"#utility.yul\":17807:17830   */\n      sub\n        /* \"#utility.yul\":17803:17835   */\n      slt\n        /* \"#utility.yul\":17800:17919   */\n      iszero\n      tag_487\n      jumpi\n        /* \"#utility.yul\":17838:17917   */\n      tag_488\n      tag_253\n      jump\t// in\n    tag_488:\n        /* \"#utility.yul\":17800:17919   */\n    tag_487:\n        /* \"#utility.yul\":17958:17959   */\n      0x00\n        /* \"#utility.yul\":17983:18044   */\n      tag_489\n        /* \"#utility.yul\":18036:18043   */\n      dup5\n        /* \"#utility.yul\":18027:18033   */\n      dup3\n        /* \"#utility.yul\":18016:18025   */\n      dup6\n        /* \"#utility.yul\":18012:18034   */\n      add\n        /* \"#utility.yul\":17983:18044   */\n      tag_294\n      jump\t// in\n    tag_489:\n        /* \"#utility.yul\":17973:18044   */\n      swap2\n      pop\n        /* \"#utility.yul\":17929:18054   */\n      pop\n        /* \"#utility.yul\":17716:18061   */\n      swap3\n      swap2\n      pop\n      pop\n      jump\t// out\n        /* \"#utility.yul\":18067:18247   */\n    tag_295:\n        /* \"#utility.yul\":18207:18239   */\n      0x54686520636c69656e7420697320616c726561647920696e73757265642e0000\n        /* \"#utility.yul\":18203:18204   */\n      0x00\n        /* \"#utility.yul\":18195:18201   */\n      dup3\n        /* \"#utility.yul\":18191:18205   */\n      add\n        /* \"#utility.yul\":18184:18240   */\n      mstore\n        /* \"#utility.yul\":18067:18247   */\n      pop\n      jump\t// out\n        /* \"#utility.yul\":18253:18619   */\n    tag_296:\n        /* \"#utility.yul\":18395:18398   */\n      0x00\n        /* \"#utility.yul\":18416:18483   */\n      tag_492\n        /* \"#utility.yul\":18480:18482   */\n      0x1e\n        /* \"#utility.yul\":18475:18478   */\n      dup4\n        /* \"#utility.yul\":18416:18483   */\n      tag_248\n      jump\t// in\n    tag_492:\n        /* \"#utility.yul\":18409:18483   */\n      swap2\n      pop\n        /* \"#utility.yul\":18492:18585   */\n      tag_493\n        /* \"#utility.yul\":18581:18584   */\n      dup3\n        /* \"#utility.yul\":18492:18585   */\n      tag_295\n      jump\t// in\n    tag_493:\n        /* \"#utility.yul\":18610:18612   */\n      0x20\n        /* \"#utility.yul\":18605:18608   */\n      dup3\n        /* \"#utility.yul\":18601:18613   */\n      add\n        /* \"#utility.yul\":18594:18613   */\n      swap1\n      pop\n        /* \"#utility.yul\":18253:18619   */\n      swap2\n      swap1\n      pop\n      jump\t// out\n        /* \"#utility.yul\":18625:19044   */\n    tag_158:\n        /* \"#utility.yul\":18791:18795   */\n      0x00\n        /* \"#utility.yul\":18829:18831   */\n      0x20\n        /* \"#utility.yul\":18818:18827   */\n      dup3\n        /* \"#utility.yul\":18814:18832   */\n      add\n        /* \"#utility.yul\":18806:18832   */\n      swap1\n      pop\n        /* \"#utility.yul\":18878:18887   */\n      dup2\n        /* \"#utility.yul\":18872:18876   */\n      dup2\n        /* \"#utility.yul\":18868:18888   */\n      sub\n        /* \"#utility.yul\":18864:18865   */\n      0x00\n        /* \"#utility.yul\":18853:18862   */\n      dup4\n        /* \"#utility.yul\":18849:18866   */\n      add\n        /* \"#utility.yul\":18842:18889   */\n      mstore\n        /* \"#utility.yul\":18906:19037   */\n      tag_495\n        /* \"#utility.yul\":19032:19036   */\n      dup2\n        /* \"#utility.yul\":18906:19037   */\n      tag_296\n      jump\t// in\n    tag_495:\n        /* \"#utility.yul\":18898:19037   */\n      swap1\n      pop\n        /* \"#utility.yul\":18625:19044   */\n      swap2\n      swap1\n      pop\n      jump\t// out\n        /* \"#utility.yul\":19050:19230   */\n    tag_297:\n        /* \"#utility.yul\":19098:19175   */\n      0x4e487b7100000000000000000000000000000000000000000000000000000000\n        /* \"#utility.yul\":19095:19096   */\n      0x00\n        /* \"#utility.yul\":19088:19176   */\n      mstore\n        /* \"#utility.yul\":19195:19199   */\n      0x11\n        /* \"#utility.yul\":19192:19193   */\n      0x04\n        /* \"#utility.yul\":19185:19200   */\n      mstore\n        /* \"#utility.yul\":19219:19223   */\n      0x24\n        /* \"#utility.yul\":19216:19217   */\n      0x00\n        /* \"#utility.yul\":19209:19224   */\n      revert\n        /* \"#utility.yul\":19236:19646   */\n    tag_172:\n        /* \"#utility.yul\":19276:19283   */\n      0x00\n        /* \"#utility.yul\":19299:19319   */\n      tag_498\n        /* \"#utility.yul\":19317:19318   */\n      dup3\n        /* \"#utility.yul\":19299:19319   */\n      tag_259\n      jump\t// in\n    tag_498:\n        /* \"#utility.yul\":19294:19319   */\n      swap2\n      pop\n        /* \"#utility.yul\":19333:19353   */\n      tag_499\n        /* \"#utility.yul\":19351:19352   */\n      dup4\n        /* \"#utility.yul\":19333:19353   */\n      tag_259\n      jump\t// in\n    tag_499:\n        /* \"#utility.yul\":19328:19353   */\n      swap3\n      pop\n        /* \"#utility.yul\":19388:19389   */\n      dup3\n        /* \"#utility.yul\":19385:19386   */\n      dup3\n        /* \"#utility.yul\":19381:19390   */\n      mul\n        /* \"#utility.yul\":19410:19440   */\n      tag_500\n        /* \"#utility.yul\":19428:19439   */\n      dup2\n        /* \"#utility.yul\":19410:19440   */\n      tag_259\n      jump\t// in\n    tag_500:\n        /* \"#utility.yul\":19399:19440   */\n      swap2\n      pop\n        /* \"#utility.yul\":19589:19590   */\n      dup3\n        /* \"#utility.yul\":19580:19587   */\n      dup3\n        /* \"#utility.yul\":19576:19591   */\n      div\n        /* \"#utility.yul\":19573:19574   */\n      dup5\n        /* \"#utility.yul\":19570:19592   */\n      eq\n        /* \"#utility.yul\":19550:19551   */\n      dup4\n        /* \"#utility.yul\":19543:19552   */\n      iszero\n        /* \"#utility.yul\":19523:19606   */\n      or\n        /* \"#utility.yul\":19500:19639   */\n      tag_501\n      jumpi\n        /* \"#utility.yul\":19619:19637   */\n      tag_502\n      tag_297\n      jump\t// in\n    tag_502:\n        /* \"#utility.yul\":19500:19639   */\n    tag_501:\n        /* \"#utility.yul\":19284:19646   */\n      pop\n        /* \"#utility.yul\":19236:19646   */\n      swap3\n      swap2\n      pop\n      pop\n      jump\t// out\n        /* \"#utility.yul\":19652:19832   */\n    tag_298:\n        /* \"#utility.yul\":19700:19777   */\n      0x4e487b7100000000000000000000000000000000000000000000000000000000\n        /* \"#utility.yul\":19697:19698   */\n      0x00\n        /* \"#utility.yul\":19690:19778   */\n      mstore\n        /* \"#utility.yul\":19797:19801   */\n      0x41\n        /* \"#utility.yul\":19794:19795   */\n      0x04\n        /* \"#utility.yul\":19787:19802   */\n      mstore\n        /* \"#utility.yul\":19821:19825   */\n      0x24\n        /* \"#utility.yul\":19818:19819   */\n      0x00\n        /* \"#utility.yul\":19811:19826   */\n      revert\n        /* \"#utility.yul\":19838:19979   */\n    tag_299:\n        /* \"#utility.yul\":19887:19891   */\n      0x00\n        /* \"#utility.yul\":19910:19913   */\n      dup2\n        /* \"#utility.yul\":19902:19913   */\n      swap1\n      pop\n        /* \"#utility.yul\":19933:19936   */\n      dup2\n        /* \"#utility.yul\":19930:19931   */\n      0x00\n        /* \"#utility.yul\":19923:19937   */\n      mstore\n        /* \"#utility.yul\":19967:19971   */\n      0x20\n        /* \"#utility.yul\":19964:19965   */\n      0x00\n        /* \"#utility.yul\":19954:19972   */\n      keccak256\n        /* \"#utility.yul\":19946:19972   */\n      swap1\n      pop\n        /* \"#utility.yul\":19838:19979   */\n      swap2\n      swap1\n      pop\n      jump\t// out\n        /* \"#utility.yul\":19985:20078   */\n    tag_300:\n        /* \"#utility.yul\":20022:20028   */\n      0x00\n        /* \"#utility.yul\":20069:20071   */\n      0x20\n        /* \"#utility.yul\":20064:20066   */\n      0x1f\n        /* \"#utility.yul\":20057:20062   */\n      dup4\n        /* \"#utility.yul\":20053:20067   */\n      add\n        /* \"#utility.yul\":20049:20072   */\n      div\n        /* \"#utility.yul\":20039:20072   */\n      swap1\n      pop\n        /* \"#utility.yul\":19985:20078   */\n      swap2\n      swap1\n      pop\n      jump\t// out\n        /* \"#utility.yul\":20084:20191   */\n    tag_301:\n        /* \"#utility.yul\":20128:20136   */\n      0x00\n        /* \"#utility.yul\":20178:20183   */\n      dup3\n        /* \"#utility.yul\":20172:20176   */\n      dup3\n        /* \"#utility.yul\":20168:20184   */\n      shl\n        /* \"#utility.yul\":20147:20184   */\n      swap1\n      pop\n        /* \"#utility.yul\":20084:20191   */\n      swap3\n      swap2\n      pop\n      pop\n      jump\t// out\n        /* \"#utility.yul\":20197:20590   */\n    tag_302:\n        /* \"#utility.yul\":20266:20272   */\n      0x00\n        /* \"#utility.yul\":20316:20317   */\n      0x08\n        /* \"#utility.yul\":20304:20314   */\n      dup4\n        /* \"#utility.yul\":20300:20318   */\n      mul\n        /* \"#utility.yul\":20339:20436   */\n      tag_508\n        /* \"#utility.yul\":20369:20435   */\n      0xffffffffffffffffffffffffffffffffffffffffffffffffffffffffffffffff\n        /* \"#utility.yul\":20358:20367   */\n      dup3\n        /* \"#utility.yul\":20339:20436   */\n      tag_301\n      jump\t// in\n    tag_508:\n        /* \"#utility.yul\":20457:20496   */\n      tag_509\n        /* \"#utility.yul\":20487:20495   */\n      dup7\n        /* \"#utility.yul\":20476:20485   */\n      dup4\n        /* \"#utility.yul\":20457:20496   */\n      tag_301\n      jump\t// in\n    tag_509:\n        /* \"#utility.yul\":20445:20496   */\n      swap6\n      pop\n        /* \"#utility.yul\":20529:20533   */\n      dup1\n        /* \"#utility.yul\":20525:20534   */\n      not\n        /* \"#utility.yul\":20518:20523   */\n      dup5\n        /* \"#utility.yul\":20514:20535   */\n      and\n        /* \"#utility.yul\":20505:20535   */\n      swap4\n      pop\n        /* \"#utility.yul\":20578:20582   */\n      dup1\n        /* \"#utility.yul\":20568:20576   */\n      dup7\n        /* \"#utility.yul\":20564:20583   */\n      and\n        /* \"#utility.yul\":20557:20562   */\n      dup5\n        /* \"#utility.yul\":20554:20584   */\n      or\n        /* \"#utility.yul\":20544:20584   */\n      swap3\n      pop\n        /* \"#utility.yul\":20273:20590   */\n      pop\n      pop\n        /* \"#utility.yul\":20197:20590   */\n      swap4\n      swap3\n      pop\n      pop\n      pop\n      jump\t// out\n        /* \"#utility.yul\":20596:20738   */\n    tag_303:\n        /* \"#utility.yul\":20646:20655   */\n      0x00\n        /* \"#utility.yul\":20679:20732   */\n      tag_511\n        /* \"#utility.yul\":20697:20731   */\n      tag_512\n        /* \"#utility.yul\":20706:20730   */\n      tag_513\n        /* \"#utility.yul\":20724:20729   */\n      dup5\n        /* \"#utility.yul\":20706:20730   */\n      tag_259\n      jump\t// in\n    tag_513:\n        /* \"#utility.yul\":20697:20731   */\n      tag_279\n      jump\t// in\n    tag_512:\n        /* \"#utility.yul\":20679:20732   */\n      tag_259\n      jump\t// in\n    tag_511:\n        /* \"#utility.yul\":20666:20732   */\n      swap1\n      pop\n        /* \"#utility.yul\":20596:20738   */\n      swap2\n      swap1\n      pop\n      jump\t// out\n        /* \"#utility.yul\":20744:20819   */\n    tag_304:\n        /* \"#utility.yul\":20787:20790   */\n      0x00\n        /* \"#utility.yul\":20808:20813   */\n      dup2\n        /* \"#utility.yul\":20801:20813   */\n      swap1\n      pop\n        /* \"#utility.yul\":20744:20819   */\n      swap2\n      swap1\n      pop\n      jump\t// out\n        /* \"#utility.yul\":20825:21094   */\n    tag_305:\n        /* \"#utility.yul\":20935:20974   */\n      tag_516\n        /* \"#utility.yul\":20966:20973   */\n      dup4\n        /* \"#utility.yul\":20935:20974   */\n      tag_303\n      jump\t// in\n    tag_516:\n        /* \"#utility.yul\":20996:21087   */\n      tag_517\n        /* \"#utility.yul\":21045:21086   */\n      tag_518\n        /* \"#utility.yul\":21069:21085   */\n      dup3\n        /* \"#utility.yul\":21045:21086   */\n      tag_304\n      jump\t// in\n    tag_518:\n        /* \"#utility.yul\":21037:21043   */\n      dup5\n        /* \"#utility.yul\":21030:21034   */\n      dup5\n        /* \"#utility.yul\":21024:21035   */\n      sload\n        /* \"#utility.yul\":20996:21087   */\n      tag_302\n      jump\t// in\n    tag_517:\n        /* \"#utility.yul\":20990:20994   */\n      dup3\n        /* \"#utility.yul\":20983:21088   */\n      sstore\n        /* \"#utility.yul\":20901:21094   */\n      pop\n        /* \"#utility.yul\":20825:21094   */\n      pop\n      pop\n      pop\n      jump\t// out\n        /* \"#utility.yul\":21100:21173   */\n    tag_306:\n        /* \"#utility.yul\":21145:21148   */\n      0x00\n        /* \"#utility.yul\":21100:21173   */\n      swap1\n      jump\t// out\n        /* \"#utility.yul\":21179:21368   */\n    tag_307:\n        /* \"#utility.yul\":21256:21288   */\n      tag_521\n      tag_306\n      jump\t// in\n    tag_521:\n        /* \"#utility.yul\":21297:21362   */\n      tag_522\n        /* \"#utility.yul\":21355:21361   */\n      dup2\n        /* \"#utility.yul\":21347:21353   */\n      dup5\n        /* \"#utility.yul\":21341:21345   */\n      dup5\n        /* \"#utility.yul\":21297:21362   */\n      tag_305\n      jump\t// in\n    tag_522:\n        /* \"#utility.yul\":21232:21368   */\n      pop\n        /* \"#utility.yul\":21179:21368   */\n      pop\n      pop\n      jump\t// out\n        /* \"#utility.yul\":21374:21560   */\n    tag_308:\n        /* \"#utility.yul\":21434:21554   */\n    tag_524:\n        /* \"#utility.yul\":21451:21454   */\n      dup2\n        /* \"#utility.yul\":21444:21449   */\n      dup2\n        /* \"#utility.yul\":21441:21455   */\n      lt\n        /* \"#utility.yul\":21434:21554   */\n      iszero\n      tag_526\n      jumpi\n        /* \"#utility.yul\":21505:21544   */\n      tag_527\n        /* \"#utility.yul\":21542:21543   */\n      0x00\n        /* \"#utility.yul\":21535:21540   */\n      dup3\n        /* \"#utility.yul\":21505:21544   */\n      tag_307\n      jump\t// in\n    tag_527:\n        /* \"#utility.yul\":21478:21479   */\n      0x01\n        /* \"#utility.yul\":21471:21476   */\n      dup2\n        /* \"#utility.yul\":21467:21480   */\n      add\n        /* \"#utility.yul\":21458:21480   */\n      swap1\n      pop\n        /* \"#utility.yul\":21434:21554   */\n      jump(tag_524)\n    tag_526:\n        /* \"#utility.yul\":21374:21560   */\n      pop\n      pop\n      jump\t// out\n        /* \"#utility.yul\":21566:22109   */\n    tag_309:\n        /* \"#utility.yul\":21667:21669   */\n      0x1f\n        /* \"#utility.yul\":21662:21665   */\n      dup3\n        /* \"#utility.yul\":21659:21670   */\n      gt\n        /* \"#utility.yul\":21656:22102   */\n      iszero\n      tag_529\n      jumpi\n        /* \"#utility.yul\":21701:21739   */\n      tag_530\n        /* \"#utility.yul\":21733:21738   */\n      dup2\n        /* \"#utility.yul\":21701:21739   */\n      tag_299\n      jump\t// in\n    tag_530:\n        /* \"#utility.yul\":21785:21814   */\n      tag_531\n        /* \"#utility.yul\":21803:21813   */\n      dup5\n        /* \"#utility.yul\":21785:21814   */\n      tag_300\n      jump\t// in\n    tag_531:\n        /* \"#utility.yul\":21775:21783   */\n      dup2\n        /* \"#utility.yul\":21771:21815   */\n      add\n        /* \"#utility.yul\":21968:21970   */\n      0x20\n        /* \"#utility.yul\":21956:21966   */\n      dup6\n        /* \"#utility.yul\":21953:21971   */\n      lt\n        /* \"#utility.yul\":21950:21999   */\n      iszero\n      tag_532\n      jumpi\n        /* \"#utility.yul\":21989:21997   */\n      dup2\n        /* \"#utility.yul\":21974:21997   */\n      swap1\n      pop\n        /* \"#utility.yul\":21950:21999   */\n    tag_532:\n        /* \"#utility.yul\":22012:22092   */\n      tag_533\n        /* \"#utility.yul\":22068:22090   */\n      tag_534\n        /* \"#utility.yul\":22086:22089   */\n      dup6\n        /* \"#utility.yul\":22068:22090   */\n      tag_300\n      jump\t// in\n    tag_534:\n        /* \"#utility.yul\":22058:22066   */\n      dup4\n        /* \"#utility.yul\":22054:22091   */\n      add\n        /* \"#utility.yul\":22041:22052   */\n      dup3\n        /* \"#utility.yul\":22012:22092   */\n      tag_308\n      jump\t// in\n    tag_533:\n        /* \"#utility.yul\":21671:22102   */\n      pop\n      pop\n        /* \"#utility.yul\":21656:22102   */\n    tag_529:\n        /* \"#utility.yul\":21566:22109   */\n      pop\n      pop\n      pop\n      jump\t// out\n        /* \"#utility.yul\":22115:22232   */\n    tag_310:\n        /* \"#utility.yul\":22169:22177   */\n      0x00\n        /* \"#utility.yul\":22219:22224   */\n      dup3\n        /* \"#utility.yul\":22213:22217   */\n      dup3\n        /* \"#utility.yul\":22209:22225   */\n      shr\n        /* \"#utility.yul\":22188:22225   */\n      swap1\n      pop\n        /* \"#utility.yul\":22115:22232   */\n      swap3\n      swap2\n      pop\n      pop\n      jump\t// out\n        /* \"#utility.yul\":22238:22407   */\n    tag_311:\n        /* \"#utility.yul\":22282:22288   */\n      0x00\n        /* \"#utility.yul\":22315:22366   */\n      tag_537\n        /* \"#utility.yul\":22363:22364   */\n      0x00\n        /* \"#utility.yul\":22359:22365   */\n      not\n        /* \"#utility.yul\":22351:22356   */\n      dup5\n        /* \"#utility.yul\":22348:22349   */\n      0x08\n        /* \"#utility.yul\":22344:22357   */\n      mul\n        /* \"#utility.yul\":22315:22366   */\n      tag_310\n      jump\t// in\n    tag_537:\n        /* \"#utility.yul\":22311:22367   */\n      not\n        /* \"#utility.yul\":22396:22400   */\n      dup1\n        /* \"#utility.yul\":22390:22394   */\n      dup4\n        /* \"#utility.yul\":22386:22401   */\n      and\n        /* \"#utility.yul\":22376:22401   */\n      swap2\n      pop\n        /* \"#utility.yul\":22289:22407   */\n      pop\n        /* \"#utility.yul\":22238:22407   */\n      swap3\n      swap2\n      pop\n      pop\n      jump\t// out\n        /* \"#utility.yul\":22412:22707   */\n    tag_312:\n        /* \"#utility.yul\":22488:22492   */\n      0x00\n        /* \"#utility.yul\":22634:22663   */\n      tag_539\n        /* \"#utility.yul\":22659:22662   */\n      dup4\n        /* \"#utility.yul\":22653:22657   */\n      dup4\n        /* \"#utility.yul\":22634:22663   */\n      tag_311\n      jump\t// in\n    tag_539:\n        /* \"#utility.yul\":22626:22663   */\n      swap2\n      pop\n        /* \"#utility.yul\":22696:22699   */\n      dup3\n        /* \"#utility.yul\":22693:22694   */\n      0x02\n        /* \"#utility.yul\":22689:22700   */\n      mul\n        /* \"#utility.yul\":22683:22687   */\n      dup3\n        /* \"#utility.yul\":22680:22701   */\n      or\n        /* \"#utility.yul\":22672:22701   */\n      swap1\n      pop\n        /* \"#utility.yul\":22412:22707   */\n      swap3\n      swap2\n      pop\n      pop\n      jump\t// out\n        /* \"#utility.yul\":22712:24107   */\n    tag_174:\n        /* \"#utility.yul\":22829:22866   */\n      tag_541\n        /* \"#utility.yul\":22862:22865   */\n      dup3\n        /* \"#utility.yul\":22829:22866   */\n      tag_247\n      jump\t// in\n    tag_541:\n        /* \"#utility.yul\":22931:22949   */\n      0xffffffffffffffff\n        /* \"#utility.yul\":22923:22929   */\n      dup2\n        /* \"#utility.yul\":22920:22950   */\n      gt\n        /* \"#utility.yul\":22917:22973   */\n      iszero\n      tag_542\n      jumpi\n        /* \"#utility.yul\":22953:22971   */\n      tag_543\n      tag_298\n      jump\t// in\n    tag_543:\n        /* \"#utility.yul\":22917:22973   */\n    tag_542:\n        /* \"#utility.yul\":22997:23035   */\n      tag_544\n        /* \"#utility.yul\":23029:23033   */\n      dup3\n        /* \"#utility.yul\":23023:23034   */\n      sload\n        /* \"#utility.yul\":22997:23035   */\n      tag_86\n      jump\t// in\n    tag_544:\n        /* \"#utility.yul\":23082:23149   */\n      tag_545\n        /* \"#utility.yul\":23142:23148   */\n      dup3\n        /* \"#utility.yul\":23134:23140   */\n      dup3\n        /* \"#utility.yul\":23128:23132   */\n      dup6\n        /* \"#utility.yul\":23082:23149   */\n      tag_309\n      jump\t// in\n    tag_545:\n        /* \"#utility.yul\":23176:23177   */\n      0x00\n        /* \"#utility.yul\":23200:23204   */\n      0x20\n        /* \"#utility.yul\":23187:23204   */\n      swap1\n      pop\n        /* \"#utility.yul\":23232:23234   */\n      0x1f\n        /* \"#utility.yul\":23224:23230   */\n      dup4\n        /* \"#utility.yul\":23221:23235   */\n      gt\n        /* \"#utility.yul\":23249:23250   */\n      0x01\n        /* \"#utility.yul\":23244:23862   */\n      dup2\n      eq\n      tag_547\n      jumpi\n        /* \"#utility.yul\":23906:23907   */\n      0x00\n        /* \"#utility.yul\":23923:23929   */\n      dup5\n        /* \"#utility.yul\":23920:23997   */\n      iszero\n      tag_548\n      jumpi\n        /* \"#utility.yul\":23972:23981   */\n      dup3\n        /* \"#utility.yul\":23967:23970   */\n      dup8\n        /* \"#utility.yul\":23963:23982   */\n      add\n        /* \"#utility.yul\":23957:23983   */\n      mload\n        /* \"#utility.yul\":23948:23983   */\n      swap1\n      pop\n        /* \"#utility.yul\":23920:23997   */\n    tag_548:\n        /* \"#utility.yul\":24023:24090   */\n      tag_549\n        /* \"#utility.yul\":24083:24089   */\n      dup6\n        /* \"#utility.yul\":24076:24081   */\n      dup3\n        /* \"#utility.yul\":24023:24090   */\n      tag_312\n      jump\t// in\n    tag_549:\n        /* \"#utility.yul\":24017:24021   */\n      dup7\n        /* \"#utility.yul\":24010:24091   */\n      sstore\n        /* \"#utility.yul\":23879:24101   */\n      pop\n        /* \"#utility.yul\":23214:24101   */\n      jump(tag_546)\n        /* \"#utility.yul\":23244:23862   */\n    tag_547:\n        /* \"#utility.yul\":23296:23300   */\n      0x1f\n        /* \"#utility.yul\":23292:23301   */\n      not\n        /* \"#utility.yul\":23284:23290   */\n      dup5\n        /* \"#utility.yul\":23280:23302   */\n      and\n        /* \"#utility.yul\":23330:23367   */\n      tag_550\n        /* \"#utility.yul\":23362:23366   */\n      dup7\n        /* \"#utility.yul\":23330:23367   */\n      tag_299\n      jump\t// in\n    tag_550:\n        /* \"#utility.yul\":23389:23390   */\n      0x00\n        /* \"#utility.yul\":23403:23611   */\n    tag_551:\n        /* \"#utility.yul\":23417:23424   */\n      dup3\n        /* \"#utility.yul\":23414:23415   */\n      dup2\n        /* \"#utility.yul\":23411:23425   */\n      lt\n        /* \"#utility.yul\":23403:23611   */\n      iszero\n      tag_553\n      jumpi\n        /* \"#utility.yul\":23496:23505   */\n      dup5\n        /* \"#utility.yul\":23491:23494   */\n      dup10\n        /* \"#utility.yul\":23487:23506   */\n      add\n        /* \"#utility.yul\":23481:23507   */\n      mload\n        /* \"#utility.yul\":23473:23479   */\n      dup3\n        /* \"#utility.yul\":23466:23508   */\n      sstore\n        /* \"#utility.yul\":23547:23548   */\n      0x01\n        /* \"#utility.yul\":23539:23545   */\n      dup3\n        /* \"#utility.yul\":23535:23549   */\n      add\n        /* \"#utility.yul\":23525:23549   */\n      swap2\n      pop\n        /* \"#utility.yul\":23594:23596   */\n      0x20\n        /* \"#utility.yul\":23583:23592   */\n      dup6\n        /* \"#utility.yul\":23579:23597   */\n      add\n        /* \"#utility.yul\":23566:23597   */\n      swap5\n      pop\n        /* \"#utility.yul\":23440:23444   */\n      0x20\n        /* \"#utility.yul\":23437:23438   */\n      dup2\n        /* \"#utility.yul\":23433:23445   */\n      add\n        /* \"#utility.yul\":23428:23445   */\n      swap1\n      pop\n        /* \"#utility.yul\":23403:23611   */\n      jump(tag_551)\n    tag_553:\n        /* \"#utility.yul\":23639:23645   */\n      dup7\n        /* \"#utility.yul\":23630:23637   */\n      dup4\n        /* \"#utility.yul\":23627:23646   */\n      lt\n        /* \"#utility.yul\":23624:23803   */\n      iszero\n      tag_554\n      jumpi\n        /* \"#utility.yul\":23697:23706   */\n      dup5\n        /* \"#utility.yul\":23692:23695   */\n      dup10\n        /* \"#utility.yul\":23688:23707   */\n      add\n        /* \"#utility.yul\":23682:23708   */\n      mload\n        /* \"#utility.yul\":23740:23788   */\n      tag_555\n        /* \"#utility.yul\":23782:23786   */\n      0x1f\n        /* \"#utility.yul\":23774:23780   */\n      dup10\n        /* \"#utility.yul\":23770:23787   */\n      and\n        /* \"#utility.yul\":23759:23768   */\n      dup3\n        /* \"#utility.yul\":23740:23788   */\n      tag_311\n      jump\t// in\n    tag_555:\n        /* \"#utility.yul\":23732:23738   */\n      dup4\n        /* \"#utility.yul\":23725:23789   */\n      sstore\n        /* \"#utility.yul\":23647:23803   */\n      pop\n        /* \"#utility.yul\":23624:23803   */\n    tag_554:\n        /* \"#utility.yul\":23849:23850   */\n      0x01\n        /* \"#utility.yul\":23845:23846   */\n      0x02\n        /* \"#utility.yul\":23837:23843   */\n      dup9\n        /* \"#utility.yul\":23833:23847   */\n      mul\n        /* \"#utility.yul\":23829:23851   */\n      add\n        /* \"#utility.yul\":23823:23827   */\n      dup9\n        /* \"#utility.yul\":23816:23852   */\n      sstore\n        /* \"#utility.yul\":23251:23862   */\n      pop\n      pop\n      pop\n        /* \"#utility.yul\":23214:24101   */\n    tag_546:\n      pop\n        /* \"#utility.yul\":22804:24107   */\n      pop\n      pop\n      pop\n        /* \"#utility.yul\":22712:24107   */\n      pop\n      pop\n      jump\t// out\n        /* \"#utility.yul\":24113:24287   */\n    tag_313:\n        /* \"#utility.yul\":24253:24279   */\n      0x436c61696d206973206e6f742073756666696369656e742e0000000000000000\n        /* \"#utility.yul\":24249:24250   */\n      0x00\n        /* \"#utility.yul\":24241:24247   */\n      dup3\n        /* \"#utility.yul\":24237:24251   */\n      add\n        /* \"#utility.yul\":24230:24280   */\n      mstore\n        /* \"#utility.yul\":24113:24287   */\n      pop\n      jump\t// out\n        /* \"#utility.yul\":24293:24659   */\n    tag_314:\n        /* \"#utility.yul\":24435:24438   */\n      0x00\n        /* \"#utility.yul\":24456:24523   */\n      tag_558\n        /* \"#utility.yul\":24520:24522   */\n      0x18\n        /* \"#utility.yul\":24515:24518   */\n      dup4\n        /* \"#utility.yul\":24456:24523   */\n      tag_248\n      jump\t// in\n    tag_558:\n        /* \"#utility.yul\":24449:24523   */\n      swap2\n      pop\n        /* \"#utility.yul\":24532:24625   */\n      tag_559\n        /* \"#utility.yul\":24621:24624   */\n      dup3\n        /* \"#utility.yul\":24532:24625   */\n      tag_313\n      jump\t// in\n    tag_559:\n        /* \"#utility.yul\":24650:24652   */\n      0x20\n        /* \"#utility.yul\":24645:24648   */\n      dup3\n        /* \"#utility.yul\":24641:24653   */\n      add\n        /* \"#utility.yul\":24634:24653   */\n      swap1\n      pop\n        /* \"#utility.yul\":24293:24659   */\n      swap2\n      swap1\n      pop\n      jump\t// out\n        /* \"#utility.yul\":24665:25084   */\n    tag_185:\n        /* \"#utility.yul\":24831:24835   */\n      0x00\n        /* \"#utility.yul\":24869:24871   */\n      0x20\n        /* \"#utility.yul\":24858:24867   */\n      dup3\n        /* \"#utility.yul\":24854:24872   */\n      add\n        /* \"#utility.yul\":24846:24872   */\n      swap1\n      pop\n        /* \"#utility.yul\":24918:24927   */\n      dup2\n        /* \"#utility.yul\":24912:24916   */\n      dup2\n        /* \"#utility.yul\":24908:24928   */\n      sub\n        /* \"#utility.yul\":24904:24905   */\n      0x00\n        /* \"#utility.yul\":24893:24902   */\n      dup4\n        /* \"#utility.yul\":24889:24906   */\n      add\n        /* \"#utility.yul\":24882:24929   */\n      mstore\n        /* \"#utility.yul\":24946:25077   */\n      tag_561\n        /* \"#utility.yul\":25072:25076   */\n      dup2\n        /* \"#utility.yul\":24946:25077   */\n      tag_314\n      jump\t// in\n    tag_561:\n        /* \"#utility.yul\":24938:25077   */\n      swap1\n      pop\n        /* \"#utility.yul\":24665:25084   */\n      swap2\n      swap1\n      pop\n      jump\t// out\n        /* \"#utility.yul\":25090:25422   */\n    tag_194:\n        /* \"#utility.yul\":25211:25215   */\n      0x00\n        /* \"#utility.yul\":25249:25251   */\n      0x40\n        /* \"#utility.yul\":25238:25247   */\n      dup3\n        /* \"#utility.yul\":25234:25252   */\n      add\n        /* \"#utility.yul\":25226:25252   */\n      swap1\n      pop\n        /* \"#utility.yul\":25262:25333   */\n      tag_563\n        /* \"#utility.yul\":25330:25331   */\n      0x00\n        /* \"#utility.yul\":25319:25328   */\n      dup4\n        /* \"#utility.yul\":25315:25332   */\n      add\n        /* \"#utility.yul\":25306:25312   */\n      dup6\n        /* \"#utility.yul\":25262:25333   */\n      tag_267\n      jump\t// in\n    tag_563:\n        /* \"#utility.yul\":25343:25415   */\n      tag_564\n        /* \"#utility.yul\":25411:25413   */\n      0x20\n        /* \"#utility.yul\":25400:25409   */\n      dup4\n        /* \"#utility.yul\":25396:25414   */\n      add\n        /* \"#utility.yul\":25387:25393   */\n      dup5\n        /* \"#utility.yul\":25343:25415   */\n      tag_264\n      jump\t// in\n    tag_564:\n        /* \"#utility.yul\":25090:25422   */\n      swap4\n      swap3\n      pop\n      pop\n      pop\n      jump\t// out\n        /* \"#utility.yul\":25428:25870   */\n    tag_207:\n        /* \"#utility.yul\":25577:25581   */\n      0x00\n        /* \"#utility.yul\":25615:25617   */\n      0x60\n        /* \"#utility.yul\":25604:25613   */\n      dup3\n        /* \"#utility.yul\":25600:25618   */\n      add\n        /* \"#utility.yul\":25592:25618   */\n      swap1\n      pop\n        /* \"#utility.yul\":25628:25699   */\n      tag_566\n        /* \"#utility.yul\":25696:25697   */\n      0x00\n        /* \"#utility.yul\":25685:25694   */\n      dup4\n        /* \"#utility.yul\":25681:25698   */\n      add\n        /* \"#utility.yul\":25672:25678   */\n      dup7\n        /* \"#utility.yul\":25628:25699   */\n      tag_267\n      jump\t// in\n    tag_566:\n        /* \"#utility.yul\":25709:25781   */\n      tag_567\n        /* \"#utility.yul\":25777:25779   */\n      0x20\n        /* \"#utility.yul\":25766:25775   */\n      dup4\n        /* \"#utility.yul\":25762:25780   */\n      add\n        /* \"#utility.yul\":25753:25759   */\n      dup6\n        /* \"#utility.yul\":25709:25781   */\n      tag_264\n      jump\t// in\n    tag_567:\n        /* \"#utility.yul\":25791:25863   */\n      tag_568\n        /* \"#utility.yul\":25859:25861   */\n      0x40\n        /* \"#utility.yul\":25848:25857   */\n      dup4\n        /* \"#utility.yul\":25844:25862   */\n      add\n        /* \"#utility.yul\":25835:25841   */\n      dup5\n        /* \"#utility.yul\":25791:25863   */\n      tag_264\n      jump\t// in\n    tag_568:\n        /* \"#utility.yul\":25428:25870   */\n      swap5\n      swap4\n      pop\n      pop\n      pop\n      pop\n      jump\t// out\n        /* \"#utility.yul\":25876:26067   */\n    tag_220:\n        /* \"#utility.yul\":25916:25919   */\n      0x00\n        /* \"#utility.yul\":25935:25955   */\n      tag_570\n        /* \"#utility.yul\":25953:25954   */\n      dup3\n        /* \"#utility.yul\":25935:25955   */\n      tag_259\n      jump\t// in\n    tag_570:\n        /* \"#utility.yul\":25930:25955   */\n      swap2\n      pop\n        /* \"#utility.yul\":25969:25989   */\n      tag_571\n        /* \"#utility.yul\":25987:25988   */\n      dup4\n        /* \"#utility.yul\":25969:25989   */\n      tag_259\n      jump\t// in\n    tag_571:\n        /* \"#utility.yul\":25964:25989   */\n      swap3\n      pop\n        /* \"#utility.yul\":26012:26013   */\n      dup3\n        /* \"#utility.yul\":26009:26010   */\n      dup3\n        /* \"#utility.yul\":26005:26014   */\n      add\n        /* \"#utility.yul\":25998:26014   */\n      swap1\n      pop\n        /* \"#utility.yul\":26033:26036   */\n      dup1\n        /* \"#utility.yul\":26030:26031   */\n      dup3\n        /* \"#utility.yul\":26027:26037   */\n      gt\n        /* \"#utility.yul\":26024:26060   */\n      iszero\n      tag_572\n      jumpi\n        /* \"#utility.yul\":26040:26058   */\n      tag_573\n      tag_297\n      jump\t// in\n    tag_573:\n        /* \"#utility.yul\":26024:26060   */\n    tag_572:\n        /* \"#utility.yul\":25876:26067   */\n      swap3\n      swap2\n      pop\n      pop\n      jump\t// out\n        /* \"#utility.yul\":26073:26253   */\n    tag_315:\n        /* \"#utility.yul\":26121:26198   */\n      0x4e487b7100000000000000000000000000000000000000000000000000000000\n        /* \"#utility.yul\":26118:26119   */\n      0x00\n        /* \"#utility.yul\":26111:26199   */\n      mstore\n        /* \"#utility.yul\":26218:26222   */\n      0x12\n        /* \"#utility.yul\":26215:26216   */\n      0x04\n        /* \"#utility.yul\":26208:26223   */\n      mstore\n        /* \"#utility.yul\":26242:26246   */\n      0x24\n        /* \"#utility.yul\":26239:26240   */\n      0x00\n        /* \"#utility.yul\":26232:26247   */\n      revert\n        /* \"#utility.yul\":26259:26444   */\n    tag_227:\n        /* \"#utility.yul\":26299:26300   */\n      0x00\n        /* \"#utility.yul\":26316:26336   */\n      tag_576\n        /* \"#utility.yul\":26334:26335   */\n      dup3\n        /* \"#utility.yul\":26316:26336   */\n      tag_259\n      jump\t// in\n    tag_576:\n        /* \"#utility.yul\":26311:26336   */\n      swap2\n      pop\n        /* \"#utility.yul\":26350:26370   */\n      tag_577\n        /* \"#utility.yul\":26368:26369   */\n      dup4\n        /* \"#utility.yul\":26350:26370   */\n      tag_259\n      jump\t// in\n    tag_577:\n        /* \"#utility.yul\":26345:26370   */\n      swap3\n      pop\n        /* \"#utility.yul\":26389:26390   */\n      dup3\n        /* \"#utility.yul\":26379:26414   */\n      tag_578\n      jumpi\n        /* \"#utility.yul\":26394:26412   */\n      tag_579\n      tag_315\n      jump\t// in\n    tag_579:\n        /* \"#utility.yul\":26379:26414   */\n    tag_578:\n        /* \"#utility.yul\":26436:26437   */\n      dup3\n        /* \"#utility.yul\":26433:26434   */\n      dup3\n        /* \"#utility.yul\":26429:26438   */\n      div\n        /* \"#utility.yul\":26424:26438   */\n      swap1\n      pop\n        /* \"#utility.yul\":26259:26444   */\n      swap3\n      swap2\n      pop\n      pop\n      jump\t// out\n        /* \"#utility.yul\":26450:26644   */\n    tag_230:\n        /* \"#utility.yul\":26490:26494   */\n      0x00\n        /* \"#utility.yul\":26510:26530   */\n      tag_581\n        /* \"#utility.yul\":26528:26529   */\n      dup3\n        /* \"#utility.yul\":26510:26530   */\n      tag_259\n      jump\t// in\n    tag_581:\n        /* \"#utility.yul\":26505:26530   */\n      swap2\n      pop\n        /* \"#utility.yul\":26544:26564   */\n      tag_582\n        /* \"#utility.yul\":26562:26563   */\n      dup4\n        /* \"#utility.yul\":26544:26564   */\n      tag_259\n      jump\t// in\n    tag_582:\n        /* \"#utility.yul\":26539:26564   */\n      swap3\n      pop\n        /* \"#utility.yul\":26588:26589   */\n      dup3\n        /* \"#utility.yul\":26585:26586   */\n      dup3\n        /* \"#utility.yul\":26581:26590   */\n      sub\n        /* \"#utility.yul\":26573:26590   */\n      swap1\n      pop\n        /* \"#utility.yul\":26612:26613   */\n      dup2\n        /* \"#utility.yul\":26606:26610   */\n      dup2\n        /* \"#utility.yul\":26603:26614   */\n      gt\n        /* \"#utility.yul\":26600:26637   */\n      iszero\n      tag_583\n      jumpi\n        /* \"#utility.yul\":26617:26635   */\n      tag_584\n      tag_297\n      jump\t// in\n    tag_584:\n        /* \"#utility.yul\":26600:26637   */\n    tag_583:\n        /* \"#utility.yul\":26450:26644   */\n      swap3\n      swap2\n      pop\n      pop\n      jump\t// out\n\n    auxdata: 0xa2646970667358221220a3f069397a57475b7903f4032238c86bf7d136aaf4a88a22399d380da400e01164736f6c63430008160033\n}\n",
				"bytecode": {
					"linkReferences": {},
					"object": "60a060405234801562000010575f80fd5b5060405162002ce138038062002ce18339818101604052810190620000369190620002fc565b6040518060400160405280600f81526020017f53756e737572616e6365546f6b656e00000000000000000000000000000000008152506040518060400160405280600481526020017f53554e54000000000000000000000000000000000000000000000000000000008152508160039081620000b3919062000590565b508060049081620000c5919062000590565b5050503360055f6101000a81548173ffffffffffffffffffffffffffffffffffffffff021916908373ffffffffffffffffffffffffffffffffffffffff1602179055508073ffffffffffffffffffffffffffffffffffffffff1660808173ffffffffffffffffffffffffffffffffffffffff16815250506040518060600160405280600160ff168152602001652d79883d2000815260200161066781525060065f600160ff1681526020019081526020015f205f820151815f015f6101000a81548160ff021916908360ff16021790555060208201518160010155604082015181600201559050506040518060600160405280600260ff168152602001656d23ad5f800081526020016106b981525060065f600260ff1681526020019081526020015f205f820151815f015f6101000a81548160ff021916908360ff16021790555060208201518160010155604082015181600201559050506040518060600160405280600360ff16815260200166013e52b9abe000815260200161070b81525060065f600360ff1681526020019081526020015f205f820151815f015f6101000a81548160ff021916908360ff16021790555060208201518160010155604082015181600201559050505062000674565b5f80fd5b5f73ffffffffffffffffffffffffffffffffffffffff82169050919050565b5f620002c6826200029b565b9050919050565b620002d881620002ba565b8114620002e3575f80fd5b50565b5f81519050620002f681620002cd565b92915050565b5f6020828403121562000314576200031362000297565b5b5f6200032384828501620002e6565b91505092915050565b5f81519050919050565b7f4e487b71000000000000000000000000000000000000000000000000000000005f52604160045260245ffd5b7f4e487b71000000000000000000000000000000000000000000000000000000005f52602260045260245ffd5b5f6002820490506001821680620003a857607f821691505b602082108103620003be57620003bd62000363565b5b50919050565b5f819050815f5260205f209050919050565b5f6020601f8301049050919050565b5f82821b905092915050565b5f60088302620004227fffffffffffffffffffffffffffffffffffffffffffffffffffffffffffffffff82620003e5565b6200042e8683620003e5565b95508019841693508086168417925050509392505050565b5f819050919050565b5f819050919050565b5f62000478620004726200046c8462000446565b6200044f565b62000446565b9050919050565b5f819050919050565b620004938362000458565b620004ab620004a2826200047f565b848454620003f1565b825550505050565b5f90565b620004c1620004b3565b620004ce81848462000488565b505050565b5b81811015620004f557620004e95f82620004b7565b600181019050620004d4565b5050565b601f82111562000544576200050e81620003c4565b6200051984620003d6565b8101602085101562000529578190505b620005416200053885620003d6565b830182620004d3565b50505b505050565b5f82821c905092915050565b5f620005665f198460080262000549565b1980831691505092915050565b5f62000580838362000555565b9150826002028217905092915050565b6200059b826200032c565b67ffffffffffffffff811115620005b757620005b662000336565b5b620005c3825462000390565b620005d0828285620004f9565b5f60209050601f83116001811462000606575f8415620005f1578287015190505b620005fd858262000573565b8655506200066c565b601f1984166200061686620003c4565b5f5b828110156200063f5784890151825560018201915060208501945060208101905062000618565b868310156200065f57848901516200065b601f89168262000555565b8355505b6001600288020188555050505b505050505050565b60805161263f620006a25f395f81816108cf01528181610b5601528181610f55015261114d015261263f5ff3fe608060405234801561000f575f80fd5b50600436106100f3575f3560e01c806395d89b4111610095578063d21aa21911610064578063d21aa21914610287578063dd62ed3e146102a3578063df201829146102d3578063edd5bcce146102f1576100f3565b806395d89b41146101ff57806396e0736c1461021d578063a9059cbb1461023b578063c290d6911461026b576100f3565b806323b872dd116100d157806323b872dd14610163578063313ce5671461019357806370a08231146101b15780638da5cb5b146101e1576100f3565b806306fdde03146100f7578063095ea7b31461011557806318160ddd14610145575b5f80fd5b6100ff61030d565b60405161010c9190611929565b60405180910390f35b61012f600480360381019061012a91906119de565b61039d565b60405161013c9190611a36565b60405180910390f35b61014d6103bf565b60405161015a9190611a5e565b60405180910390f35b61017d60048036038101906101789190611a77565b6103c8565b60405161018a9190611a36565b60405180910390f35b61019b6103f6565b6040516101a89190611ae2565b60405180910390f35b6101cb60048036038101906101c69190611afb565b6103fe565b6040516101d89190611a5e565b60405180910390f35b6101e9610443565b6040516101f69190611b35565b60405180910390f35b6102076104fa565b6040516102149190611929565b60405180910390f35b61022561058a565b6040516102329190611c76565b60405180910390f35b610255600480360381019061025091906119de565b610793565b6040516102629190611a36565b60405180910390f35b61028560048036038101906102809190611c96565b6107b5565b005b6102a1600480360381019061029c9190611d4c565b610a5a565b005b6102bd60048036038101906102b89190611dbd565b610ed1565b6040516102ca9190611a5e565b60405180910390f35b6102db610f53565b6040516102e89190611e56565b60405180910390f35b61030b60048036038101906103069190611c96565b610f77565b005b60606003805461031c90611e9c565b80601f016020809104026020016040519081016040528092919081815260200182805461034890611e9c565b80156103935780601f1061036a57610100808354040283529160200191610393565b820191905f5260205f20905b81548152906001019060200180831161037657829003601f168201915b5050505050905090565b5f806103a76111ef565b90506103b48185856111f6565b600191505092915050565b5f600254905090565b5f806103d26111ef565b90506103df858285611208565b6103ea85858561129a565b60019150509392505050565b5f6012905090565b5f805f8373ffffffffffffffffffffffffffffffffffffffff1673ffffffffffffffffffffffffffffffffffffffff1681526020019081526020015f20549050919050565b5f60055f9054906101000a900473ffffffffffffffffffffffffffffffffffffffff1673ffffffffffffffffffffffffffffffffffffffff163373ffffffffffffffffffffffffffffffffffffffff16146104d3576040517f08c379a00000000000000000000000000000000000000000000000000000000081526004016104ca90611f3c565b60405180910390fd5b60055f9054906101000a900473ffffffffffffffffffffffffffffffffffffffff16905090565b60606004805461050990611e9c565b80601f016020809104026020016040519081016040528092919081815260200182805461053590611e9c565b80156105805780601f1061055757610100808354040283529160200191610580565b820191905f5260205f20905b81548152906001019060200180831161056357829003601f168201915b5050505050905090565b610592611845565b60085f3373ffffffffffffffffffffffffffffffffffffffff1673ffffffffffffffffffffffffffffffffffffffff1681526020019081526020015f205f9054906101000a900460ff1661061b576040517f08c379a000000000000000000000000000000000000000000000000000000000815260040161061290611fa4565b60405180910390fd5b60075f3373ffffffffffffffffffffffffffffffffffffffff1673ffffffffffffffffffffffffffffffffffffffff1681526020019081526020015f20604051806101200160405290815f82015f9054906101000a900473ffffffffffffffffffffffffffffffffffffffff1673ffffffffffffffffffffffffffffffffffffffff1673ffffffffffffffffffffffffffffffffffffffff1681526020016001820180546106c890611e9c565b80601f01602080910402602001604051908101604052809291908181526020018280546106f490611e9c565b801561073f5780601f106107165761010080835404028352916020019161073f565b820191905f5260205f20905b81548152906001019060200180831161072257829003601f168201915b50505050508152602001600282015481526020016003820154815260200160048201548152602001600582015481526020016006820154815260200160078201548152602001600882015481525050905090565b5f8061079d6111ef565b90506107aa81858561129a565b600191505092915050565b60075f3373ffffffffffffffffffffffffffffffffffffffff1673ffffffffffffffffffffffffffffffffffffffff1681526020019081526020015f2060070154421015610838576040517f08c379a000000000000000000000000000000000000000000000000000000000815260040161082f9061200c565b60405180910390fd5b806801158e460913d00000811015610885576040517f08c379a000000000000000000000000000000000000000000000000000000000815260040161087c90612074565b60405180910390fd5b5f3390505f4290505f60075f8473ffffffffffffffffffffffffffffffffffffffff1673ffffffffffffffffffffffffffffffffffffffff1681526020019081526020015f2090507f000000000000000000000000000000000000000000000000000000000000000073ffffffffffffffffffffffffffffffffffffffff166323b872dd8430886040518463ffffffff1660e01b815260040161092a93929190612092565b6020604051808303815f875af1158015610946573d5f803e3d5ffd5b505050506040513d601f19601f8201168201806040525081019061096a91906120f1565b505f61098060148761138a90919063ffffffff16565b905061099986836002015461139f90919063ffffffff16565b82600201819055506109b881836003015461139f90919063ffffffff16565b82600301819055508282600601819055506109df62278d008461139f90919063ffffffff16565b8260070181905550600a5f8573ffffffffffffffffffffffffffffffffffffffff1673ffffffffffffffffffffffffffffffffffffffff1681526020019081526020015f2083908060018154018082558091505060019003905f5260205f20015f9091909190915055610a5284826113b4565b505050505050565b60085f3373ffffffffffffffffffffffffffffffffffffffff1673ffffffffffffffffffffffffffffffffffffffff1681526020019081526020015f205f9054906101000a900460ff1615610ae4576040517f08c379a0000000000000000000000000000000000000000000000000000000008152600401610adb90612166565b60405180910390fd5b836801158e460913d00000811015610b31576040517f08c379a0000000000000000000000000000000000000000000000000000000008152600401610b2890612074565b60405180910390fd5b5f3390505f4290505f610b5261016d8660ff1661138a90919063ffffffff16565b90507f000000000000000000000000000000000000000000000000000000000000000073ffffffffffffffffffffffffffffffffffffffff166323b872dd84308b6040518463ffffffff1660e01b8152600401610bb193929190612092565b6020604051808303815f875af1158015610bcd573d5f803e3d5ffd5b505050506040513d601f19601f82011682018060405250810190610bf191906120f1565b505f610c0760148a61138a90919063ffffffff16565b90506040518061012001604052808573ffffffffffffffffffffffffffffffffffffffff16815260200189898080601f0160208091040260200160405190810160405280939291908181526020018383808284375f81840152601f19601f8201169050808301925050505050505081526020018a81526020018281526020018a8152602001848152602001848152602001610cae62278d008661139f90919063ffffffff16565b8152602001610cd46201518085610cc591906121b1565b8661139f90919063ffffffff16565b81525060075f8673ffffffffffffffffffffffffffffffffffffffff1673ffffffffffffffffffffffffffffffffffffffff1681526020019081526020015f205f820151815f015f6101000a81548173ffffffffffffffffffffffffffffffffffffffff021916908373ffffffffffffffffffffffffffffffffffffffff1602179055506020820151816001019081610d6d91906123b3565b5060408201518160020155606082015181600301556080820151816004015560a0820151816005015560c0820151816006015560e082015181600701556101008201518160080155905050600160085f8673ffffffffffffffffffffffffffffffffffffffff1673ffffffffffffffffffffffffffffffffffffffff1681526020019081526020015f205f6101000a81548160ff021916908315150217905550600a5f8573ffffffffffffffffffffffffffffffffffffffff1673ffffffffffffffffffffffffffffffffffffffff1681526020019081526020015f2042908060018154018082558091505060019003905f5260205f20015f9091909190915055610e7884826113b4565b8373ffffffffffffffffffffffffffffffffffffffff167f9f3f24b66e46f5c1722305db2fb5f085869d897102460780559f0386085fed3f84604051610ebe9190611a5e565b60405180910390a2505050505050505050565b5f60015f8473ffffffffffffffffffffffffffffffffffffffff1673ffffffffffffffffffffffffffffffffffffffff1681526020019081526020015f205f8373ffffffffffffffffffffffffffffffffffffffff1673ffffffffffffffffffffffffffffffffffffffff1681526020019081526020015f2054905092915050565b7f000000000000000000000000000000000000000000000000000000000000000081565b60085f3373ffffffffffffffffffffffffffffffffffffffff1673ffffffffffffffffffffffffffffffffffffffff1681526020019081526020015f205f9054906101000a900460ff16611000576040517f08c379a0000000000000000000000000000000000000000000000000000000008152600401610ff790611fa4565b60405180910390fd5b80683635c9adc5dea0000081101561104d576040517f08c379a0000000000000000000000000000000000000000000000000000000008152600401611044906124cc565b60405180910390fd5b5f3390505f4290505f61106a60148661143390919063ffffffff16565b90505f60075f8573ffffffffffffffffffffffffffffffffffffffff1673ffffffffffffffffffffffffffffffffffffffff1681526020019081526020015f2090506110c382826002015461144890919063ffffffff16565b81600201819055506110e286826003015461144890919063ffffffff16565b816003018190555060095f8573ffffffffffffffffffffffffffffffffffffffff1673ffffffffffffffffffffffffffffffffffffffff1681526020019081526020015f2083908060018154018082558091505060019003905f5260205f20015f90919091909150557f000000000000000000000000000000000000000000000000000000000000000073ffffffffffffffffffffffffffffffffffffffff1663a9059cbb85846040518363ffffffff1660e01b81526004016111a69291906124ea565b6020604051808303815f875af11580156111c2573d5f803e3d5ffd5b505050506040513d601f19601f820116820180604052508101906111e691906120f1565b50505050505050565b5f33905090565b611203838383600161145d565b505050565b5f6112138484610ed1565b90507fffffffffffffffffffffffffffffffffffffffffffffffffffffffffffffffff81146112945781811015611285578281836040517ffb8f41b200000000000000000000000000000000000000000000000000000000815260040161127c93929190612511565b60405180910390fd5b61129384848484035f61145d565b5b50505050565b5f73ffffffffffffffffffffffffffffffffffffffff168373ffffffffffffffffffffffffffffffffffffffff160361130a575f6040517f96c6fd1e0000000000000000000000000000000000000000000000000000000081526004016113019190611b35565b60405180910390fd5b5f73ffffffffffffffffffffffffffffffffffffffff168273ffffffffffffffffffffffffffffffffffffffff160361137a575f6040517fec442f050000000000000000000000000000000000000000000000000000000081526004016113719190611b35565b60405180910390fd5b61138583838361162c565b505050565b5f818361139791906121b1565b905092915050565b5f81836113ac9190612546565b905092915050565b5f73ffffffffffffffffffffffffffffffffffffffff168273ffffffffffffffffffffffffffffffffffffffff1603611424575f6040517fec442f0500000000000000000000000000000000000000000000000000000000815260040161141b9190611b35565b60405180910390fd5b61142f5f838361162c565b5050565b5f818361144091906125a6565b905092915050565b5f818361145591906125d6565b905092915050565b5f73ffffffffffffffffffffffffffffffffffffffff168473ffffffffffffffffffffffffffffffffffffffff16036114cd575f6040517fe602df050000000000000000000000000000000000000000000000000000000081526004016114c49190611b35565b60405180910390fd5b5f73ffffffffffffffffffffffffffffffffffffffff168373ffffffffffffffffffffffffffffffffffffffff160361153d575f6040517f94280d620000000000000000000000000000000000000000000000000000000081526004016115349190611b35565b60405180910390fd5b8160015f8673ffffffffffffffffffffffffffffffffffffffff1673ffffffffffffffffffffffffffffffffffffffff1681526020019081526020015f205f8573ffffffffffffffffffffffffffffffffffffffff1673ffffffffffffffffffffffffffffffffffffffff1681526020019081526020015f20819055508015611626578273ffffffffffffffffffffffffffffffffffffffff168473ffffffffffffffffffffffffffffffffffffffff167f8c5be1e5ebec7d5bd14f71427d1e84f3dd0314c0f7b2291e5b200ac8c7c3b9258460405161161d9190611a5e565b60405180910390a35b50505050565b5f73ffffffffffffffffffffffffffffffffffffffff168373ffffffffffffffffffffffffffffffffffffffff160361167c578060025f8282546116709190612546565b9250508190555061174a565b5f805f8573ffffffffffffffffffffffffffffffffffffffff1673ffffffffffffffffffffffffffffffffffffffff1681526020019081526020015f2054905081811015611705578381836040517fe450d38c0000000000000000000000000000000000000000000000000000000081526004016116fc93929190612511565b60405180910390fd5b8181035f808673ffffffffffffffffffffffffffffffffffffffff1673ffffffffffffffffffffffffffffffffffffffff1681526020019081526020015f2081905550505b5f73ffffffffffffffffffffffffffffffffffffffff168273ffffffffffffffffffffffffffffffffffffffff1603611791578060025f82825403925050819055506117db565b805f808473ffffffffffffffffffffffffffffffffffffffff1673ffffffffffffffffffffffffffffffffffffffff1681526020019081526020015f205f82825401925050819055505b8173ffffffffffffffffffffffffffffffffffffffff168373ffffffffffffffffffffffffffffffffffffffff167fddf252ad1be2c89b69c2b068fc378daa952ba7f163c4a11628f55a4df523b3ef836040516118389190611a5e565b60405180910390a3505050565b6040518061012001604052805f73ffffffffffffffffffffffffffffffffffffffff168152602001606081526020015f81526020015f81526020015f81526020015f81526020015f81526020015f81526020015f81525090565b5f81519050919050565b5f82825260208201905092915050565b5f5b838110156118d65780820151818401526020810190506118bb565b5f8484015250505050565b5f601f19601f8301169050919050565b5f6118fb8261189f565b61190581856118a9565b93506119158185602086016118b9565b61191e816118e1565b840191505092915050565b5f6020820190508181035f83015261194181846118f1565b905092915050565b5f80fd5b5f80fd5b5f73ffffffffffffffffffffffffffffffffffffffff82169050919050565b5f61197a82611951565b9050919050565b61198a81611970565b8114611994575f80fd5b50565b5f813590506119a581611981565b92915050565b5f819050919050565b6119bd816119ab565b81146119c7575f80fd5b50565b5f813590506119d8816119b4565b92915050565b5f80604083850312156119f4576119f3611949565b5b5f611a0185828601611997565b9250506020611a12858286016119ca565b9150509250929050565b5f8115159050919050565b611a3081611a1c565b82525050565b5f602082019050611a495f830184611a27565b92915050565b611a58816119ab565b82525050565b5f602082019050611a715f830184611a4f565b92915050565b5f805f60608486031215611a8e57611a8d611949565b5b5f611a9b86828701611997565b9350506020611aac86828701611997565b9250506040611abd868287016119ca565b9150509250925092565b5f60ff82169050919050565b611adc81611ac7565b82525050565b5f602082019050611af55f830184611ad3565b92915050565b5f60208284031215611b1057611b0f611949565b5b5f611b1d84828501611997565b91505092915050565b611b2f81611970565b82525050565b5f602082019050611b485f830184611b26565b92915050565b611b5781611970565b82525050565b5f82825260208201905092915050565b5f611b778261189f565b611b818185611b5d565b9350611b918185602086016118b9565b611b9a816118e1565b840191505092915050565b611bae816119ab565b82525050565b5f61012083015f830151611bca5f860182611b4e565b5060208301518482036020860152611be28282611b6d565b9150506040830151611bf76040860182611ba5565b506060830151611c0a6060860182611ba5565b506080830151611c1d6080860182611ba5565b5060a0830151611c3060a0860182611ba5565b5060c0830151611c4360c0860182611ba5565b5060e0830151611c5660e0860182611ba5565b50610100830151611c6b610100860182611ba5565b508091505092915050565b5f6020820190508181035f830152611c8e8184611bb4565b905092915050565b5f60208284031215611cab57611caa611949565b5b5f611cb8848285016119ca565b91505092915050565b5f80fd5b5f80fd5b5f80fd5b5f8083601f840112611ce257611ce1611cc1565b5b8235905067ffffffffffffffff811115611cff57611cfe611cc5565b5b602083019150836001820283011115611d1b57611d1a611cc9565b5b9250929050565b611d2b81611ac7565b8114611d35575f80fd5b50565b5f81359050611d4681611d22565b92915050565b5f805f8060608587031215611d6457611d63611949565b5b5f611d71878288016119ca565b945050602085013567ffffffffffffffff811115611d9257611d9161194d565b5b611d9e87828801611ccd565b93509350506040611db187828801611d38565b91505092959194509250565b5f8060408385031215611dd357611dd2611949565b5b5f611de085828601611997565b9250506020611df185828601611997565b9150509250929050565b5f819050919050565b5f611e1e611e19611e1484611951565b611dfb565b611951565b9050919050565b5f611e2f82611e04565b9050919050565b5f611e4082611e25565b9050919050565b611e5081611e36565b82525050565b5f602082019050611e695f830184611e47565b92915050565b7f4e487b71000000000000000000000000000000000000000000000000000000005f52602260045260245ffd5b5f6002820490506001821680611eb357607f821691505b602082108103611ec657611ec5611e6f565b5b50919050565b7f4f6e6c792074686520636f6e7472616374206f776e657220697320616c6c6f775f8201527f656420746f20646f20746865206465736972656420616374696f6e2e00000000602082015250565b5f611f26603c836118a9565b9150611f3182611ecc565b604082019050919050565b5f6020820190508181035f830152611f5381611f1a565b9050919050565b7f54686520636c69656e74206973206e6f7420696e73757265642e0000000000005f82015250565b5f611f8e601a836118a9565b9150611f9982611f5a565b602082019050919050565b5f6020820190508181035f830152611fbb81611f82565b9050919050565b7f5061796d656e74206973206e6f7420647565207965742e0000000000000000005f82015250565b5f611ff66017836118a9565b915061200182611fc2565b602082019050919050565b5f6020820190508181035f83015261202381611fea565b9050919050565b7f5072656d69756d206973206e6f742073756666696369656e742e0000000000005f82015250565b5f61205e601a836118a9565b91506120698261202a565b602082019050919050565b5f6020820190508181035f83015261208b81612052565b9050919050565b5f6060820190506120a55f830186611b26565b6120b26020830185611b26565b6120bf6040830184611a4f565b949350505050565b6120d081611a1c565b81146120da575f80fd5b50565b5f815190506120eb816120c7565b92915050565b5f6020828403121561210657612105611949565b5b5f612113848285016120dd565b91505092915050565b7f54686520636c69656e7420697320616c726561647920696e73757265642e00005f82015250565b5f612150601e836118a9565b915061215b8261211c565b602082019050919050565b5f6020820190508181035f83015261217d81612144565b9050919050565b7f4e487b71000000000000000000000000000000000000000000000000000000005f52601160045260245ffd5b5f6121bb826119ab565b91506121c6836119ab565b92508282026121d4816119ab565b915082820484148315176121eb576121ea612184565b5b5092915050565b7f4e487b71000000000000000000000000000000000000000000000000000000005f52604160045260245ffd5b5f819050815f5260205f209050919050565b5f6020601f8301049050919050565b5f82821b905092915050565b5f6008830261227b7fffffffffffffffffffffffffffffffffffffffffffffffffffffffffffffffff82612240565b6122858683612240565b95508019841693508086168417925050509392505050565b5f6122b76122b26122ad846119ab565b611dfb565b6119ab565b9050919050565b5f819050919050565b6122d08361229d565b6122e46122dc826122be565b84845461224c565b825550505050565b5f90565b6122f86122ec565b6123038184846122c7565b505050565b5b818110156123265761231b5f826122f0565b600181019050612309565b5050565b601f82111561236b5761233c8161221f565b61234584612231565b81016020851015612354578190505b61236861236085612231565b830182612308565b50505b505050565b5f82821c905092915050565b5f61238b5f1984600802612370565b1980831691505092915050565b5f6123a3838361237c565b9150826002028217905092915050565b6123bc8261189f565b67ffffffffffffffff8111156123d5576123d46121f2565b5b6123df8254611e9c565b6123ea82828561232a565b5f60209050601f83116001811461241b575f8415612409578287015190505b6124138582612398565b86555061247a565b601f1984166124298661221f565b5f5b828110156124505784890151825560018201915060208501945060208101905061242b565b8683101561246d5784890151612469601f89168261237c565b8355505b6001600288020188555050505b505050505050565b7f436c61696d206973206e6f742073756666696369656e742e00000000000000005f82015250565b5f6124b66018836118a9565b91506124c182612482565b602082019050919050565b5f6020820190508181035f8301526124e3816124aa565b9050919050565b5f6040820190506124fd5f830185611b26565b61250a6020830184611a4f565b9392505050565b5f6060820190506125245f830186611b26565b6125316020830185611a4f565b61253e6040830184611a4f565b949350505050565b5f612550826119ab565b915061255b836119ab565b925082820190508082111561257357612572612184565b5b92915050565b7f4e487b71000000000000000000000000000000000000000000000000000000005f52601260045260245ffd5b5f6125b0826119ab565b91506125bb836119ab565b9250826125cb576125ca612579565b5b828204905092915050565b5f6125e0826119ab565b91506125eb836119ab565b925082820390508181111561260357612602612184565b5b9291505056fea2646970667358221220a3f069397a57475b7903f4032238c86bf7d136aaf4a88a22399d380da400e01164736f6c63430008160033",
					"opcodes": "PUSH1 0xA0 PUSH1 0x40 MSTORE CALLVALUE DUP1 ISZERO PUSH3 0x10 JUMPI PUSH0 DUP1 REVERT JUMPDEST POP PUSH1 0x40 MLOAD PUSH3 0x2CE1 CODESIZE SUB DUP1 PUSH3 0x2CE1 DUP4 CODECOPY DUP2 DUP2 ADD PUSH1 0x40 MSTORE DUP2 ADD SWAP1 PUSH3 0x36 SWAP2 SWAP1 PUSH3 0x2FC JUMP JUMPDEST PUSH1 0x40 MLOAD DUP1 PUSH1 0x40 ADD PUSH1 0x40 MSTORE DUP1 PUSH1 0xF DUP2 MSTORE PUSH1 0x20 ADD PUSH32 0x53756E737572616E6365546F6B656E0000000000000000000000000000000000 DUP2 MSTORE POP PUSH1 0x40 MLOAD DUP1 PUSH1 0x40 ADD PUSH1 0x40 MSTORE DUP1 PUSH1 0x4 DUP2 MSTORE PUSH1 0x20 ADD PUSH32 0x53554E5400000000000000000000000000000000000000000000000000000000 DUP2 MSTORE POP DUP2 PUSH1 0x3 SWAP1 DUP2 PUSH3 0xB3 SWAP2 SWAP1 PUSH3 0x590 JUMP JUMPDEST POP DUP1 PUSH1 0x4 SWAP1 DUP2 PUSH3 0xC5 SWAP2 SWAP1 PUSH3 0x590 JUMP JUMPDEST POP POP POP CALLER PUSH1 0x5 PUSH0 PUSH2 0x100 EXP DUP2 SLOAD DUP2 PUSH20 0xFFFFFFFFFFFFFFFFFFFFFFFFFFFFFFFFFFFFFFFF MUL NOT AND SWAP1 DUP4 PUSH20 0xFFFFFFFFFFFFFFFFFFFFFFFFFFFFFFFFFFFFFFFF AND MUL OR SWAP1 SSTORE POP DUP1 PUSH20 0xFFFFFFFFFFFFFFFFFFFFFFFFFFFFFFFFFFFFFFFF AND PUSH1 0x80 DUP2 PUSH20 0xFFFFFFFFFFFFFFFFFFFFFFFFFFFFFFFFFFFFFFFF AND DUP2 MSTORE POP POP PUSH1 0x40 MLOAD DUP1 PUSH1 0x60 ADD PUSH1 0x40 MSTORE DUP1 PUSH1 0x1 PUSH1 0xFF AND DUP2 MSTORE PUSH1 0x20 ADD PUSH6 0x2D79883D2000 DUP2 MSTORE PUSH1 0x20 ADD PUSH2 0x667 DUP2 MSTORE POP PUSH1 0x6 PUSH0 PUSH1 0x1 PUSH1 0xFF AND DUP2 MSTORE PUSH1 0x20 ADD SWAP1 DUP2 MSTORE PUSH1 0x20 ADD PUSH0 KECCAK256 PUSH0 DUP3 ADD MLOAD DUP2 PUSH0 ADD PUSH0 PUSH2 0x100 EXP DUP2 SLOAD DUP2 PUSH1 0xFF MUL NOT AND SWAP1 DUP4 PUSH1 0xFF AND MUL OR SWAP1 SSTORE POP PUSH1 0x20 DUP3 ADD MLOAD DUP2 PUSH1 0x1 ADD SSTORE PUSH1 0x40 DUP3 ADD MLOAD DUP2 PUSH1 0x2 ADD SSTORE SWAP1 POP POP PUSH1 0x40 MLOAD DUP1 PUSH1 0x60 ADD PUSH1 0x40 MSTORE DUP1 PUSH1 0x2 PUSH1 0xFF AND DUP2 MSTORE PUSH1 0x20 ADD PUSH6 0x6D23AD5F8000 DUP2 MSTORE PUSH1 0x20 ADD PUSH2 0x6B9 DUP2 MSTORE POP PUSH1 0x6 PUSH0 PUSH1 0x2 PUSH1 0xFF AND DUP2 MSTORE PUSH1 0x20 ADD SWAP1 DUP2 MSTORE PUSH1 0x20 ADD PUSH0 KECCAK256 PUSH0 DUP3 ADD MLOAD DUP2 PUSH0 ADD PUSH0 PUSH2 0x100 EXP DUP2 SLOAD DUP2 PUSH1 0xFF MUL NOT AND SWAP1 DUP4 PUSH1 0xFF AND MUL OR SWAP1 SSTORE POP PUSH1 0x20 DUP3 ADD MLOAD DUP2 PUSH1 0x1 ADD SSTORE PUSH1 0x40 DUP3 ADD MLOAD DUP2 PUSH1 0x2 ADD SSTORE SWAP1 POP POP PUSH1 0x40 MLOAD DUP1 PUSH1 0x60 ADD PUSH1 0x40 MSTORE DUP1 PUSH1 0x3 PUSH1 0xFF AND DUP2 MSTORE PUSH1 0x20 ADD PUSH7 0x13E52B9ABE000 DUP2 MSTORE PUSH1 0x20 ADD PUSH2 0x70B DUP2 MSTORE POP PUSH1 0x6 PUSH0 PUSH1 0x3 PUSH1 0xFF AND DUP2 MSTORE PUSH1 0x20 ADD SWAP1 DUP2 MSTORE PUSH1 0x20 ADD PUSH0 KECCAK256 PUSH0 DUP3 ADD MLOAD DUP2 PUSH0 ADD PUSH0 PUSH2 0x100 EXP DUP2 SLOAD DUP2 PUSH1 0xFF MUL NOT AND SWAP1 DUP4 PUSH1 0xFF AND MUL OR SWAP1 SSTORE POP PUSH1 0x20 DUP3 ADD MLOAD DUP2 PUSH1 0x1 ADD SSTORE PUSH1 0x40 DUP3 ADD MLOAD DUP2 PUSH1 0x2 ADD SSTORE SWAP1 POP POP POP PUSH3 0x674 JUMP JUMPDEST PUSH0 DUP1 REVERT JUMPDEST PUSH0 PUSH20 0xFFFFFFFFFFFFFFFFFFFFFFFFFFFFFFFFFFFFFFFF DUP3 AND SWAP1 POP SWAP2 SWAP1 POP JUMP JUMPDEST PUSH0 PUSH3 0x2C6 DUP3 PUSH3 0x29B JUMP JUMPDEST SWAP1 POP SWAP2 SWAP1 POP JUMP JUMPDEST PUSH3 0x2D8 DUP2 PUSH3 0x2BA JUMP JUMPDEST DUP2 EQ PUSH3 0x2E3 JUMPI PUSH0 DUP1 REVERT JUMPDEST POP JUMP JUMPDEST PUSH0 DUP2 MLOAD SWAP1 POP PUSH3 0x2F6 DUP2 PUSH3 0x2CD JUMP JUMPDEST SWAP3 SWAP2 POP POP JUMP JUMPDEST PUSH0 PUSH1 0x20 DUP3 DUP5 SUB SLT ISZERO PUSH3 0x314 JUMPI PUSH3 0x313 PUSH3 0x297 JUMP JUMPDEST JUMPDEST PUSH0 PUSH3 0x323 DUP5 DUP3 DUP6 ADD PUSH3 0x2E6 JUMP JUMPDEST SWAP2 POP POP SWAP3 SWAP2 POP POP JUMP JUMPDEST PUSH0 DUP2 MLOAD SWAP1 POP SWAP2 SWAP1 POP JUMP JUMPDEST PUSH32 0x4E487B7100000000000000000000000000000000000000000000000000000000 PUSH0 MSTORE PUSH1 0x41 PUSH1 0x4 MSTORE PUSH1 0x24 PUSH0 REVERT JUMPDEST PUSH32 0x4E487B7100000000000000000000000000000000000000000000000000000000 PUSH0 MSTORE PUSH1 0x22 PUSH1 0x4 MSTORE PUSH1 0x24 PUSH0 REVERT JUMPDEST PUSH0 PUSH1 0x2 DUP3 DIV SWAP1 POP PUSH1 0x1 DUP3 AND DUP1 PUSH3 0x3A8 JUMPI PUSH1 0x7F DUP3 AND SWAP2 POP JUMPDEST PUSH1 0x20 DUP3 LT DUP2 SUB PUSH3 0x3BE JUMPI PUSH3 0x3BD PUSH3 0x363 JUMP JUMPDEST JUMPDEST POP SWAP2 SWAP1 POP JUMP JUMPDEST PUSH0 DUP2 SWAP1 POP DUP2 PUSH0 MSTORE PUSH1 0x20 PUSH0 KECCAK256 SWAP1 POP SWAP2 SWAP1 POP JUMP JUMPDEST PUSH0 PUSH1 0x20 PUSH1 0x1F DUP4 ADD DIV SWAP1 POP SWAP2 SWAP1 POP JUMP JUMPDEST PUSH0 DUP3 DUP3 SHL SWAP1 POP SWAP3 SWAP2 POP POP JUMP JUMPDEST PUSH0 PUSH1 0x8 DUP4 MUL PUSH3 0x422 PUSH32 0xFFFFFFFFFFFFFFFFFFFFFFFFFFFFFFFFFFFFFFFFFFFFFFFFFFFFFFFFFFFFFFFF DUP3 PUSH3 0x3E5 JUMP JUMPDEST PUSH3 0x42E DUP7 DUP4 PUSH3 0x3E5 JUMP JUMPDEST SWAP6 POP DUP1 NOT DUP5 AND SWAP4 POP DUP1 DUP7 AND DUP5 OR SWAP3 POP POP POP SWAP4 SWAP3 POP POP POP JUMP JUMPDEST PUSH0 DUP2 SWAP1 POP SWAP2 SWAP1 POP JUMP JUMPDEST PUSH0 DUP2 SWAP1 POP SWAP2 SWAP1 POP JUMP JUMPDEST PUSH0 PUSH3 0x478 PUSH3 0x472 PUSH3 0x46C DUP5 PUSH3 0x446 JUMP JUMPDEST PUSH3 0x44F JUMP JUMPDEST PUSH3 0x446 JUMP JUMPDEST SWAP1 POP SWAP2 SWAP1 POP JUMP JUMPDEST PUSH0 DUP2 SWAP1 POP SWAP2 SWAP1 POP JUMP JUMPDEST PUSH3 0x493 DUP4 PUSH3 0x458 JUMP JUMPDEST PUSH3 0x4AB PUSH3 0x4A2 DUP3 PUSH3 0x47F JUMP JUMPDEST DUP5 DUP5 SLOAD PUSH3 0x3F1 JUMP JUMPDEST DUP3 SSTORE POP POP POP POP JUMP JUMPDEST PUSH0 SWAP1 JUMP JUMPDEST PUSH3 0x4C1 PUSH3 0x4B3 JUMP JUMPDEST PUSH3 0x4CE DUP2 DUP5 DUP5 PUSH3 0x488 JUMP JUMPDEST POP POP POP JUMP JUMPDEST JUMPDEST DUP2 DUP2 LT ISZERO PUSH3 0x4F5 JUMPI PUSH3 0x4E9 PUSH0 DUP3 PUSH3 0x4B7 JUMP JUMPDEST PUSH1 0x1 DUP2 ADD SWAP1 POP PUSH3 0x4D4 JUMP JUMPDEST POP POP JUMP JUMPDEST PUSH1 0x1F DUP3 GT ISZERO PUSH3 0x544 JUMPI PUSH3 0x50E DUP2 PUSH3 0x3C4 JUMP JUMPDEST PUSH3 0x519 DUP5 PUSH3 0x3D6 JUMP JUMPDEST DUP2 ADD PUSH1 0x20 DUP6 LT ISZERO PUSH3 0x529 JUMPI DUP2 SWAP1 POP JUMPDEST PUSH3 0x541 PUSH3 0x538 DUP6 PUSH3 0x3D6 JUMP JUMPDEST DUP4 ADD DUP3 PUSH3 0x4D3 JUMP JUMPDEST POP POP JUMPDEST POP POP POP JUMP JUMPDEST PUSH0 DUP3 DUP3 SHR SWAP1 POP SWAP3 SWAP2 POP POP JUMP JUMPDEST PUSH0 PUSH3 0x566 PUSH0 NOT DUP5 PUSH1 0x8 MUL PUSH3 0x549 JUMP JUMPDEST NOT DUP1 DUP4 AND SWAP2 POP POP SWAP3 SWAP2 POP POP JUMP JUMPDEST PUSH0 PUSH3 0x580 DUP4 DUP4 PUSH3 0x555 JUMP JUMPDEST SWAP2 POP DUP3 PUSH1 0x2 MUL DUP3 OR SWAP1 POP SWAP3 SWAP2 POP POP JUMP JUMPDEST PUSH3 0x59B DUP3 PUSH3 0x32C JUMP JUMPDEST PUSH8 0xFFFFFFFFFFFFFFFF DUP2 GT ISZERO PUSH3 0x5B7 JUMPI PUSH3 0x5B6 PUSH3 0x336 JUMP JUMPDEST JUMPDEST PUSH3 0x5C3 DUP3 SLOAD PUSH3 0x390 JUMP JUMPDEST PUSH3 0x5D0 DUP3 DUP3 DUP6 PUSH3 0x4F9 JUMP JUMPDEST PUSH0 PUSH1 0x20 SWAP1 POP PUSH1 0x1F DUP4 GT PUSH1 0x1 DUP2 EQ PUSH3 0x606 JUMPI PUSH0 DUP5 ISZERO PUSH3 0x5F1 JUMPI DUP3 DUP8 ADD MLOAD SWAP1 POP JUMPDEST PUSH3 0x5FD DUP6 DUP3 PUSH3 0x573 JUMP JUMPDEST DUP7 SSTORE POP PUSH3 0x66C JUMP JUMPDEST PUSH1 0x1F NOT DUP5 AND PUSH3 0x616 DUP7 PUSH3 0x3C4 JUMP JUMPDEST PUSH0 JUMPDEST DUP3 DUP2 LT ISZERO PUSH3 0x63F JUMPI DUP5 DUP10 ADD MLOAD DUP3 SSTORE PUSH1 0x1 DUP3 ADD SWAP2 POP PUSH1 0x20 DUP6 ADD SWAP5 POP PUSH1 0x20 DUP2 ADD SWAP1 POP PUSH3 0x618 JUMP JUMPDEST DUP7 DUP4 LT ISZERO PUSH3 0x65F JUMPI DUP5 DUP10 ADD MLOAD PUSH3 0x65B PUSH1 0x1F DUP10 AND DUP3 PUSH3 0x555 JUMP JUMPDEST DUP4 SSTORE POP JUMPDEST PUSH1 0x1 PUSH1 0x2 DUP9 MUL ADD DUP9 SSTORE POP POP POP JUMPDEST POP POP POP POP POP POP JUMP JUMPDEST PUSH1 0x80 MLOAD PUSH2 0x263F PUSH3 0x6A2 PUSH0 CODECOPY PUSH0 DUP2 DUP2 PUSH2 0x8CF ADD MSTORE DUP2 DUP2 PUSH2 0xB56 ADD MSTORE DUP2 DUP2 PUSH2 0xF55 ADD MSTORE PUSH2 0x114D ADD MSTORE PUSH2 0x263F PUSH0 RETURN INVALID PUSH1 0x80 PUSH1 0x40 MSTORE CALLVALUE DUP1 ISZERO PUSH2 0xF JUMPI PUSH0 DUP1 REVERT JUMPDEST POP PUSH1 0x4 CALLDATASIZE LT PUSH2 0xF3 JUMPI PUSH0 CALLDATALOAD PUSH1 0xE0 SHR DUP1 PUSH4 0x95D89B41 GT PUSH2 0x95 JUMPI DUP1 PUSH4 0xD21AA219 GT PUSH2 0x64 JUMPI DUP1 PUSH4 0xD21AA219 EQ PUSH2 0x287 JUMPI DUP1 PUSH4 0xDD62ED3E EQ PUSH2 0x2A3 JUMPI DUP1 PUSH4 0xDF201829 EQ PUSH2 0x2D3 JUMPI DUP1 PUSH4 0xEDD5BCCE EQ PUSH2 0x2F1 JUMPI PUSH2 0xF3 JUMP JUMPDEST DUP1 PUSH4 0x95D89B41 EQ PUSH2 0x1FF JUMPI DUP1 PUSH4 0x96E0736C EQ PUSH2 0x21D JUMPI DUP1 PUSH4 0xA9059CBB EQ PUSH2 0x23B JUMPI DUP1 PUSH4 0xC290D691 EQ PUSH2 0x26B JUMPI PUSH2 0xF3 JUMP JUMPDEST DUP1 PUSH4 0x23B872DD GT PUSH2 0xD1 JUMPI DUP1 PUSH4 0x23B872DD EQ PUSH2 0x163 JUMPI DUP1 PUSH4 0x313CE567 EQ PUSH2 0x193 JUMPI DUP1 PUSH4 0x70A08231 EQ PUSH2 0x1B1 JUMPI DUP1 PUSH4 0x8DA5CB5B EQ PUSH2 0x1E1 JUMPI PUSH2 0xF3 JUMP JUMPDEST DUP1 PUSH4 0x6FDDE03 EQ PUSH2 0xF7 JUMPI DUP1 PUSH4 0x95EA7B3 EQ PUSH2 0x115 JUMPI DUP1 PUSH4 0x18160DDD EQ PUSH2 0x145 JUMPI JUMPDEST PUSH0 DUP1 REVERT JUMPDEST PUSH2 0xFF PUSH2 0x30D JUMP JUMPDEST PUSH1 0x40 MLOAD PUSH2 0x10C SWAP2 SWAP1 PUSH2 0x1929 JUMP JUMPDEST PUSH1 0x40 MLOAD DUP1 SWAP2 SUB SWAP1 RETURN JUMPDEST PUSH2 0x12F PUSH1 0x4 DUP1 CALLDATASIZE SUB DUP2 ADD SWAP1 PUSH2 0x12A SWAP2 SWAP1 PUSH2 0x19DE JUMP JUMPDEST PUSH2 0x39D JUMP JUMPDEST PUSH1 0x40 MLOAD PUSH2 0x13C SWAP2 SWAP1 PUSH2 0x1A36 JUMP JUMPDEST PUSH1 0x40 MLOAD DUP1 SWAP2 SUB SWAP1 RETURN JUMPDEST PUSH2 0x14D PUSH2 0x3BF JUMP JUMPDEST PUSH1 0x40 MLOAD PUSH2 0x15A SWAP2 SWAP1 PUSH2 0x1A5E JUMP JUMPDEST PUSH1 0x40 MLOAD DUP1 SWAP2 SUB SWAP1 RETURN JUMPDEST PUSH2 0x17D PUSH1 0x4 DUP1 CALLDATASIZE SUB DUP2 ADD SWAP1 PUSH2 0x178 SWAP2 SWAP1 PUSH2 0x1A77 JUMP JUMPDEST PUSH2 0x3C8 JUMP JUMPDEST PUSH1 0x40 MLOAD PUSH2 0x18A SWAP2 SWAP1 PUSH2 0x1A36 JUMP JUMPDEST PUSH1 0x40 MLOAD DUP1 SWAP2 SUB SWAP1 RETURN JUMPDEST PUSH2 0x19B PUSH2 0x3F6 JUMP JUMPDEST PUSH1 0x40 MLOAD PUSH2 0x1A8 SWAP2 SWAP1 PUSH2 0x1AE2 JUMP JUMPDEST PUSH1 0x40 MLOAD DUP1 SWAP2 SUB SWAP1 RETURN JUMPDEST PUSH2 0x1CB PUSH1 0x4 DUP1 CALLDATASIZE SUB DUP2 ADD SWAP1 PUSH2 0x1C6 SWAP2 SWAP1 PUSH2 0x1AFB JUMP JUMPDEST PUSH2 0x3FE JUMP JUMPDEST PUSH1 0x40 MLOAD PUSH2 0x1D8 SWAP2 SWAP1 PUSH2 0x1A5E JUMP JUMPDEST PUSH1 0x40 MLOAD DUP1 SWAP2 SUB SWAP1 RETURN JUMPDEST PUSH2 0x1E9 PUSH2 0x443 JUMP JUMPDEST PUSH1 0x40 MLOAD PUSH2 0x1F6 SWAP2 SWAP1 PUSH2 0x1B35 JUMP JUMPDEST PUSH1 0x40 MLOAD DUP1 SWAP2 SUB SWAP1 RETURN JUMPDEST PUSH2 0x207 PUSH2 0x4FA JUMP JUMPDEST PUSH1 0x40 MLOAD PUSH2 0x214 SWAP2 SWAP1 PUSH2 0x1929 JUMP JUMPDEST PUSH1 0x40 MLOAD DUP1 SWAP2 SUB SWAP1 RETURN JUMPDEST PUSH2 0x225 PUSH2 0x58A JUMP JUMPDEST PUSH1 0x40 MLOAD PUSH2 0x232 SWAP2 SWAP1 PUSH2 0x1C76 JUMP JUMPDEST PUSH1 0x40 MLOAD DUP1 SWAP2 SUB SWAP1 RETURN JUMPDEST PUSH2 0x255 PUSH1 0x4 DUP1 CALLDATASIZE SUB DUP2 ADD SWAP1 PUSH2 0x250 SWAP2 SWAP1 PUSH2 0x19DE JUMP JUMPDEST PUSH2 0x793 JUMP JUMPDEST PUSH1 0x40 MLOAD PUSH2 0x262 SWAP2 SWAP1 PUSH2 0x1A36 JUMP JUMPDEST PUSH1 0x40 MLOAD DUP1 SWAP2 SUB SWAP1 RETURN JUMPDEST PUSH2 0x285 PUSH1 0x4 DUP1 CALLDATASIZE SUB DUP2 ADD SWAP1 PUSH2 0x280 SWAP2 SWAP1 PUSH2 0x1C96 JUMP JUMPDEST PUSH2 0x7B5 JUMP JUMPDEST STOP JUMPDEST PUSH2 0x2A1 PUSH1 0x4 DUP1 CALLDATASIZE SUB DUP2 ADD SWAP1 PUSH2 0x29C SWAP2 SWAP1 PUSH2 0x1D4C JUMP JUMPDEST PUSH2 0xA5A JUMP JUMPDEST STOP JUMPDEST PUSH2 0x2BD PUSH1 0x4 DUP1 CALLDATASIZE SUB DUP2 ADD SWAP1 PUSH2 0x2B8 SWAP2 SWAP1 PUSH2 0x1DBD JUMP JUMPDEST PUSH2 0xED1 JUMP JUMPDEST PUSH1 0x40 MLOAD PUSH2 0x2CA SWAP2 SWAP1 PUSH2 0x1A5E JUMP JUMPDEST PUSH1 0x40 MLOAD DUP1 SWAP2 SUB SWAP1 RETURN JUMPDEST PUSH2 0x2DB PUSH2 0xF53 JUMP JUMPDEST PUSH1 0x40 MLOAD PUSH2 0x2E8 SWAP2 SWAP1 PUSH2 0x1E56 JUMP JUMPDEST PUSH1 0x40 MLOAD DUP1 SWAP2 SUB SWAP1 RETURN JUMPDEST PUSH2 0x30B PUSH1 0x4 DUP1 CALLDATASIZE SUB DUP2 ADD SWAP1 PUSH2 0x306 SWAP2 SWAP1 PUSH2 0x1C96 JUMP JUMPDEST PUSH2 0xF77 JUMP JUMPDEST STOP JUMPDEST PUSH1 0x60 PUSH1 0x3 DUP1 SLOAD PUSH2 0x31C SWAP1 PUSH2 0x1E9C JUMP JUMPDEST DUP1 PUSH1 0x1F ADD PUSH1 0x20 DUP1 SWAP2 DIV MUL PUSH1 0x20 ADD PUSH1 0x40 MLOAD SWAP1 DUP2 ADD PUSH1 0x40 MSTORE DUP1 SWAP3 SWAP2 SWAP1 DUP2 DUP2 MSTORE PUSH1 0x20 ADD DUP3 DUP1 SLOAD PUSH2 0x348 SWAP1 PUSH2 0x1E9C JUMP JUMPDEST DUP1 ISZERO PUSH2 0x393 JUMPI DUP1 PUSH1 0x1F LT PUSH2 0x36A JUMPI PUSH2 0x100 DUP1 DUP4 SLOAD DIV MUL DUP4 MSTORE SWAP2 PUSH1 0x20 ADD SWAP2 PUSH2 0x393 JUMP JUMPDEST DUP3 ADD SWAP2 SWAP1 PUSH0 MSTORE PUSH1 0x20 PUSH0 KECCAK256 SWAP1 JUMPDEST DUP2 SLOAD DUP2 MSTORE SWAP1 PUSH1 0x1 ADD SWAP1 PUSH1 0x20 ADD DUP1 DUP4 GT PUSH2 0x376 JUMPI DUP3 SWAP1 SUB PUSH1 0x1F AND DUP3 ADD SWAP2 JUMPDEST POP POP POP POP POP SWAP1 POP SWAP1 JUMP JUMPDEST PUSH0 DUP1 PUSH2 0x3A7 PUSH2 0x11EF JUMP JUMPDEST SWAP1 POP PUSH2 0x3B4 DUP2 DUP6 DUP6 PUSH2 0x11F6 JUMP JUMPDEST PUSH1 0x1 SWAP2 POP POP SWAP3 SWAP2 POP POP JUMP JUMPDEST PUSH0 PUSH1 0x2 SLOAD SWAP1 POP SWAP1 JUMP JUMPDEST PUSH0 DUP1 PUSH2 0x3D2 PUSH2 0x11EF JUMP JUMPDEST SWAP1 POP PUSH2 0x3DF DUP6 DUP3 DUP6 PUSH2 0x1208 JUMP JUMPDEST PUSH2 0x3EA DUP6 DUP6 DUP6 PUSH2 0x129A JUMP JUMPDEST PUSH1 0x1 SWAP2 POP POP SWAP4 SWAP3 POP POP POP JUMP JUMPDEST PUSH0 PUSH1 0x12 SWAP1 POP SWAP1 JUMP JUMPDEST PUSH0 DUP1 PUSH0 DUP4 PUSH20 0xFFFFFFFFFFFFFFFFFFFFFFFFFFFFFFFFFFFFFFFF AND PUSH20 0xFFFFFFFFFFFFFFFFFFFFFFFFFFFFFFFFFFFFFFFF AND DUP2 MSTORE PUSH1 0x20 ADD SWAP1 DUP2 MSTORE PUSH1 0x20 ADD PUSH0 KECCAK256 SLOAD SWAP1 POP SWAP2 SWAP1 POP JUMP JUMPDEST PUSH0 PUSH1 0x5 PUSH0 SWAP1 SLOAD SWAP1 PUSH2 0x100 EXP SWAP1 DIV PUSH20 0xFFFFFFFFFFFFFFFFFFFFFFFFFFFFFFFFFFFFFFFF AND PUSH20 0xFFFFFFFFFFFFFFFFFFFFFFFFFFFFFFFFFFFFFFFF AND CALLER PUSH20 0xFFFFFFFFFFFFFFFFFFFFFFFFFFFFFFFFFFFFFFFF AND EQ PUSH2 0x4D3 JUMPI PUSH1 0x40 MLOAD PUSH32 0x8C379A000000000000000000000000000000000000000000000000000000000 DUP2 MSTORE PUSH1 0x4 ADD PUSH2 0x4CA SWAP1 PUSH2 0x1F3C JUMP JUMPDEST PUSH1 0x40 MLOAD DUP1 SWAP2 SUB SWAP1 REVERT JUMPDEST PUSH1 0x5 PUSH0 SWAP1 SLOAD SWAP1 PUSH2 0x100 EXP SWAP1 DIV PUSH20 0xFFFFFFFFFFFFFFFFFFFFFFFFFFFFFFFFFFFFFFFF AND SWAP1 POP SWAP1 JUMP JUMPDEST PUSH1 0x60 PUSH1 0x4 DUP1 SLOAD PUSH2 0x509 SWAP1 PUSH2 0x1E9C JUMP JUMPDEST DUP1 PUSH1 0x1F ADD PUSH1 0x20 DUP1 SWAP2 DIV MUL PUSH1 0x20 ADD PUSH1 0x40 MLOAD SWAP1 DUP2 ADD PUSH1 0x40 MSTORE DUP1 SWAP3 SWAP2 SWAP1 DUP2 DUP2 MSTORE PUSH1 0x20 ADD DUP3 DUP1 SLOAD PUSH2 0x535 SWAP1 PUSH2 0x1E9C JUMP JUMPDEST DUP1 ISZERO PUSH2 0x580 JUMPI DUP1 PUSH1 0x1F LT PUSH2 0x557 JUMPI PUSH2 0x100 DUP1 DUP4 SLOAD DIV MUL DUP4 MSTORE SWAP2 PUSH1 0x20 ADD SWAP2 PUSH2 0x580 JUMP JUMPDEST DUP3 ADD SWAP2 SWAP1 PUSH0 MSTORE PUSH1 0x20 PUSH0 KECCAK256 SWAP1 JUMPDEST DUP2 SLOAD DUP2 MSTORE SWAP1 PUSH1 0x1 ADD SWAP1 PUSH1 0x20 ADD DUP1 DUP4 GT PUSH2 0x563 JUMPI DUP3 SWAP1 SUB PUSH1 0x1F AND DUP3 ADD SWAP2 JUMPDEST POP POP POP POP POP SWAP1 POP SWAP1 JUMP JUMPDEST PUSH2 0x592 PUSH2 0x1845 JUMP JUMPDEST PUSH1 0x8 PUSH0 CALLER PUSH20 0xFFFFFFFFFFFFFFFFFFFFFFFFFFFFFFFFFFFFFFFF AND PUSH20 0xFFFFFFFFFFFFFFFFFFFFFFFFFFFFFFFFFFFFFFFF AND DUP2 MSTORE PUSH1 0x20 ADD SWAP1 DUP2 MSTORE PUSH1 0x20 ADD PUSH0 KECCAK256 PUSH0 SWAP1 SLOAD SWAP1 PUSH2 0x100 EXP SWAP1 DIV PUSH1 0xFF AND PUSH2 0x61B JUMPI PUSH1 0x40 MLOAD PUSH32 0x8C379A000000000000000000000000000000000000000000000000000000000 DUP2 MSTORE PUSH1 0x4 ADD PUSH2 0x612 SWAP1 PUSH2 0x1FA4 JUMP JUMPDEST PUSH1 0x40 MLOAD DUP1 SWAP2 SUB SWAP1 REVERT JUMPDEST PUSH1 0x7 PUSH0 CALLER PUSH20 0xFFFFFFFFFFFFFFFFFFFFFFFFFFFFFFFFFFFFFFFF AND PUSH20 0xFFFFFFFFFFFFFFFFFFFFFFFFFFFFFFFFFFFFFFFF AND DUP2 MSTORE PUSH1 0x20 ADD SWAP1 DUP2 MSTORE PUSH1 0x20 ADD PUSH0 KECCAK256 PUSH1 0x40 MLOAD DUP1 PUSH2 0x120 ADD PUSH1 0x40 MSTORE SWAP1 DUP2 PUSH0 DUP3 ADD PUSH0 SWAP1 SLOAD SWAP1 PUSH2 0x100 EXP SWAP1 DIV PUSH20 0xFFFFFFFFFFFFFFFFFFFFFFFFFFFFFFFFFFFFFFFF AND PUSH20 0xFFFFFFFFFFFFFFFFFFFFFFFFFFFFFFFFFFFFFFFF AND PUSH20 0xFFFFFFFFFFFFFFFFFFFFFFFFFFFFFFFFFFFFFFFF AND DUP2 MSTORE PUSH1 0x20 ADD PUSH1 0x1 DUP3 ADD DUP1 SLOAD PUSH2 0x6C8 SWAP1 PUSH2 0x1E9C JUMP JUMPDEST DUP1 PUSH1 0x1F ADD PUSH1 0x20 DUP1 SWAP2 DIV MUL PUSH1 0x20 ADD PUSH1 0x40 MLOAD SWAP1 DUP2 ADD PUSH1 0x40 MSTORE DUP1 SWAP3 SWAP2 SWAP1 DUP2 DUP2 MSTORE PUSH1 0x20 ADD DUP3 DUP1 SLOAD PUSH2 0x6F4 SWAP1 PUSH2 0x1E9C JUMP JUMPDEST DUP1 ISZERO PUSH2 0x73F JUMPI DUP1 PUSH1 0x1F LT PUSH2 0x716 JUMPI PUSH2 0x100 DUP1 DUP4 SLOAD DIV MUL DUP4 MSTORE SWAP2 PUSH1 0x20 ADD SWAP2 PUSH2 0x73F JUMP JUMPDEST DUP3 ADD SWAP2 SWAP1 PUSH0 MSTORE PUSH1 0x20 PUSH0 KECCAK256 SWAP1 JUMPDEST DUP2 SLOAD DUP2 MSTORE SWAP1 PUSH1 0x1 ADD SWAP1 PUSH1 0x20 ADD DUP1 DUP4 GT PUSH2 0x722 JUMPI DUP3 SWAP1 SUB PUSH1 0x1F AND DUP3 ADD SWAP2 JUMPDEST POP POP POP POP POP DUP2 MSTORE PUSH1 0x20 ADD PUSH1 0x2 DUP3 ADD SLOAD DUP2 MSTORE PUSH1 0x20 ADD PUSH1 0x3 DUP3 ADD SLOAD DUP2 MSTORE PUSH1 0x20 ADD PUSH1 0x4 DUP3 ADD SLOAD DUP2 MSTORE PUSH1 0x20 ADD PUSH1 0x5 DUP3 ADD SLOAD DUP2 MSTORE PUSH1 0x20 ADD PUSH1 0x6 DUP3 ADD SLOAD DUP2 MSTORE PUSH1 0x20 ADD PUSH1 0x7 DUP3 ADD SLOAD DUP2 MSTORE PUSH1 0x20 ADD PUSH1 0x8 DUP3 ADD SLOAD DUP2 MSTORE POP POP SWAP1 POP SWAP1 JUMP JUMPDEST PUSH0 DUP1 PUSH2 0x79D PUSH2 0x11EF JUMP JUMPDEST SWAP1 POP PUSH2 0x7AA DUP2 DUP6 DUP6 PUSH2 0x129A JUMP JUMPDEST PUSH1 0x1 SWAP2 POP POP SWAP3 SWAP2 POP POP JUMP JUMPDEST PUSH1 0x7 PUSH0 CALLER PUSH20 0xFFFFFFFFFFFFFFFFFFFFFFFFFFFFFFFFFFFFFFFF AND PUSH20 0xFFFFFFFFFFFFFFFFFFFFFFFFFFFFFFFFFFFFFFFF AND DUP2 MSTORE PUSH1 0x20 ADD SWAP1 DUP2 MSTORE PUSH1 0x20 ADD PUSH0 KECCAK256 PUSH1 0x7 ADD SLOAD TIMESTAMP LT ISZERO PUSH2 0x838 JUMPI PUSH1 0x40 MLOAD PUSH32 0x8C379A000000000000000000000000000000000000000000000000000000000 DUP2 MSTORE PUSH1 0x4 ADD PUSH2 0x82F SWAP1 PUSH2 0x200C JUMP JUMPDEST PUSH1 0x40 MLOAD DUP1 SWAP2 SUB SWAP1 REVERT JUMPDEST DUP1 PUSH9 0x1158E460913D00000 DUP2 LT ISZERO PUSH2 0x885 JUMPI PUSH1 0x40 MLOAD PUSH32 0x8C379A000000000000000000000000000000000000000000000000000000000 DUP2 MSTORE PUSH1 0x4 ADD PUSH2 0x87C SWAP1 PUSH2 0x2074 JUMP JUMPDEST PUSH1 0x40 MLOAD DUP1 SWAP2 SUB SWAP1 REVERT JUMPDEST PUSH0 CALLER SWAP1 POP PUSH0 TIMESTAMP SWAP1 POP PUSH0 PUSH1 0x7 PUSH0 DUP5 PUSH20 0xFFFFFFFFFFFFFFFFFFFFFFFFFFFFFFFFFFFFFFFF AND PUSH20 0xFFFFFFFFFFFFFFFFFFFFFFFFFFFFFFFFFFFFFFFF AND DUP2 MSTORE PUSH1 0x20 ADD SWAP1 DUP2 MSTORE PUSH1 0x20 ADD PUSH0 KECCAK256 SWAP1 POP PUSH32 0x0 PUSH20 0xFFFFFFFFFFFFFFFFFFFFFFFFFFFFFFFFFFFFFFFF AND PUSH4 0x23B872DD DUP5 ADDRESS DUP9 PUSH1 0x40 MLOAD DUP5 PUSH4 0xFFFFFFFF AND PUSH1 0xE0 SHL DUP2 MSTORE PUSH1 0x4 ADD PUSH2 0x92A SWAP4 SWAP3 SWAP2 SWAP1 PUSH2 0x2092 JUMP JUMPDEST PUSH1 0x20 PUSH1 0x40 MLOAD DUP1 DUP4 SUB DUP2 PUSH0 DUP8 GAS CALL ISZERO DUP1 ISZERO PUSH2 0x946 JUMPI RETURNDATASIZE PUSH0 DUP1 RETURNDATACOPY RETURNDATASIZE PUSH0 REVERT JUMPDEST POP POP POP POP PUSH1 0x40 MLOAD RETURNDATASIZE PUSH1 0x1F NOT PUSH1 0x1F DUP3 ADD AND DUP3 ADD DUP1 PUSH1 0x40 MSTORE POP DUP2 ADD SWAP1 PUSH2 0x96A SWAP2 SWAP1 PUSH2 0x20F1 JUMP JUMPDEST POP PUSH0 PUSH2 0x980 PUSH1 0x14 DUP8 PUSH2 0x138A SWAP1 SWAP2 SWAP1 PUSH4 0xFFFFFFFF AND JUMP JUMPDEST SWAP1 POP PUSH2 0x999 DUP7 DUP4 PUSH1 0x2 ADD SLOAD PUSH2 0x139F SWAP1 SWAP2 SWAP1 PUSH4 0xFFFFFFFF AND JUMP JUMPDEST DUP3 PUSH1 0x2 ADD DUP2 SWAP1 SSTORE POP PUSH2 0x9B8 DUP2 DUP4 PUSH1 0x3 ADD SLOAD PUSH2 0x139F SWAP1 SWAP2 SWAP1 PUSH4 0xFFFFFFFF AND JUMP JUMPDEST DUP3 PUSH1 0x3 ADD DUP2 SWAP1 SSTORE POP DUP3 DUP3 PUSH1 0x6 ADD DUP2 SWAP1 SSTORE POP PUSH2 0x9DF PUSH3 0x278D00 DUP5 PUSH2 0x139F SWAP1 SWAP2 SWAP1 PUSH4 0xFFFFFFFF AND JUMP JUMPDEST DUP3 PUSH1 0x7 ADD DUP2 SWAP1 SSTORE POP PUSH1 0xA PUSH0 DUP6 PUSH20 0xFFFFFFFFFFFFFFFFFFFFFFFFFFFFFFFFFFFFFFFF AND PUSH20 0xFFFFFFFFFFFFFFFFFFFFFFFFFFFFFFFFFFFFFFFF AND DUP2 MSTORE PUSH1 0x20 ADD SWAP1 DUP2 MSTORE PUSH1 0x20 ADD PUSH0 KECCAK256 DUP4 SWAP1 DUP1 PUSH1 0x1 DUP2 SLOAD ADD DUP1 DUP3 SSTORE DUP1 SWAP2 POP POP PUSH1 0x1 SWAP1 SUB SWAP1 PUSH0 MSTORE PUSH1 0x20 PUSH0 KECCAK256 ADD PUSH0 SWAP1 SWAP2 SWAP1 SWAP2 SWAP1 SWAP2 POP SSTORE PUSH2 0xA52 DUP5 DUP3 PUSH2 0x13B4 JUMP JUMPDEST POP POP POP POP POP POP JUMP JUMPDEST PUSH1 0x8 PUSH0 CALLER PUSH20 0xFFFFFFFFFFFFFFFFFFFFFFFFFFFFFFFFFFFFFFFF AND PUSH20 0xFFFFFFFFFFFFFFFFFFFFFFFFFFFFFFFFFFFFFFFF AND DUP2 MSTORE PUSH1 0x20 ADD SWAP1 DUP2 MSTORE PUSH1 0x20 ADD PUSH0 KECCAK256 PUSH0 SWAP1 SLOAD SWAP1 PUSH2 0x100 EXP SWAP1 DIV PUSH1 0xFF AND ISZERO PUSH2 0xAE4 JUMPI PUSH1 0x40 MLOAD PUSH32 0x8C379A000000000000000000000000000000000000000000000000000000000 DUP2 MSTORE PUSH1 0x4 ADD PUSH2 0xADB SWAP1 PUSH2 0x2166 JUMP JUMPDEST PUSH1 0x40 MLOAD DUP1 SWAP2 SUB SWAP1 REVERT JUMPDEST DUP4 PUSH9 0x1158E460913D00000 DUP2 LT ISZERO PUSH2 0xB31 JUMPI PUSH1 0x40 MLOAD PUSH32 0x8C379A000000000000000000000000000000000000000000000000000000000 DUP2 MSTORE PUSH1 0x4 ADD PUSH2 0xB28 SWAP1 PUSH2 0x2074 JUMP JUMPDEST PUSH1 0x40 MLOAD DUP1 SWAP2 SUB SWAP1 REVERT JUMPDEST PUSH0 CALLER SWAP1 POP PUSH0 TIMESTAMP SWAP1 POP PUSH0 PUSH2 0xB52 PUSH2 0x16D DUP7 PUSH1 0xFF AND PUSH2 0x138A SWAP1 SWAP2 SWAP1 PUSH4 0xFFFFFFFF AND JUMP JUMPDEST SWAP1 POP PUSH32 0x0 PUSH20 0xFFFFFFFFFFFFFFFFFFFFFFFFFFFFFFFFFFFFFFFF AND PUSH4 0x23B872DD DUP5 ADDRESS DUP12 PUSH1 0x40 MLOAD DUP5 PUSH4 0xFFFFFFFF AND PUSH1 0xE0 SHL DUP2 MSTORE PUSH1 0x4 ADD PUSH2 0xBB1 SWAP4 SWAP3 SWAP2 SWAP1 PUSH2 0x2092 JUMP JUMPDEST PUSH1 0x20 PUSH1 0x40 MLOAD DUP1 DUP4 SUB DUP2 PUSH0 DUP8 GAS CALL ISZERO DUP1 ISZERO PUSH2 0xBCD JUMPI RETURNDATASIZE PUSH0 DUP1 RETURNDATACOPY RETURNDATASIZE PUSH0 REVERT JUMPDEST POP POP POP POP PUSH1 0x40 MLOAD RETURNDATASIZE PUSH1 0x1F NOT PUSH1 0x1F DUP3 ADD AND DUP3 ADD DUP1 PUSH1 0x40 MSTORE POP DUP2 ADD SWAP1 PUSH2 0xBF1 SWAP2 SWAP1 PUSH2 0x20F1 JUMP JUMPDEST POP PUSH0 PUSH2 0xC07 PUSH1 0x14 DUP11 PUSH2 0x138A SWAP1 SWAP2 SWAP1 PUSH4 0xFFFFFFFF AND JUMP JUMPDEST SWAP1 POP PUSH1 0x40 MLOAD DUP1 PUSH2 0x120 ADD PUSH1 0x40 MSTORE DUP1 DUP6 PUSH20 0xFFFFFFFFFFFFFFFFFFFFFFFFFFFFFFFFFFFFFFFF AND DUP2 MSTORE PUSH1 0x20 ADD DUP10 DUP10 DUP1 DUP1 PUSH1 0x1F ADD PUSH1 0x20 DUP1 SWAP2 DIV MUL PUSH1 0x20 ADD PUSH1 0x40 MLOAD SWAP1 DUP2 ADD PUSH1 0x40 MSTORE DUP1 SWAP4 SWAP3 SWAP2 SWAP1 DUP2 DUP2 MSTORE PUSH1 0x20 ADD DUP4 DUP4 DUP1 DUP3 DUP5 CALLDATACOPY PUSH0 DUP2 DUP5 ADD MSTORE PUSH1 0x1F NOT PUSH1 0x1F DUP3 ADD AND SWAP1 POP DUP1 DUP4 ADD SWAP3 POP POP POP POP POP POP POP DUP2 MSTORE PUSH1 0x20 ADD DUP11 DUP2 MSTORE PUSH1 0x20 ADD DUP3 DUP2 MSTORE PUSH1 0x20 ADD DUP11 DUP2 MSTORE PUSH1 0x20 ADD DUP5 DUP2 MSTORE PUSH1 0x20 ADD DUP5 DUP2 MSTORE PUSH1 0x20 ADD PUSH2 0xCAE PUSH3 0x278D00 DUP7 PUSH2 0x139F SWAP1 SWAP2 SWAP1 PUSH4 0xFFFFFFFF AND JUMP JUMPDEST DUP2 MSTORE PUSH1 0x20 ADD PUSH2 0xCD4 PUSH3 0x15180 DUP6 PUSH2 0xCC5 SWAP2 SWAP1 PUSH2 0x21B1 JUMP JUMPDEST DUP7 PUSH2 0x139F SWAP1 SWAP2 SWAP1 PUSH4 0xFFFFFFFF AND JUMP JUMPDEST DUP2 MSTORE POP PUSH1 0x7 PUSH0 DUP7 PUSH20 0xFFFFFFFFFFFFFFFFFFFFFFFFFFFFFFFFFFFFFFFF AND PUSH20 0xFFFFFFFFFFFFFFFFFFFFFFFFFFFFFFFFFFFFFFFF AND DUP2 MSTORE PUSH1 0x20 ADD SWAP1 DUP2 MSTORE PUSH1 0x20 ADD PUSH0 KECCAK256 PUSH0 DUP3 ADD MLOAD DUP2 PUSH0 ADD PUSH0 PUSH2 0x100 EXP DUP2 SLOAD DUP2 PUSH20 0xFFFFFFFFFFFFFFFFFFFFFFFFFFFFFFFFFFFFFFFF MUL NOT AND SWAP1 DUP4 PUSH20 0xFFFFFFFFFFFFFFFFFFFFFFFFFFFFFFFFFFFFFFFF AND MUL OR SWAP1 SSTORE POP PUSH1 0x20 DUP3 ADD MLOAD DUP2 PUSH1 0x1 ADD SWAP1 DUP2 PUSH2 0xD6D SWAP2 SWAP1 PUSH2 0x23B3 JUMP JUMPDEST POP PUSH1 0x40 DUP3 ADD MLOAD DUP2 PUSH1 0x2 ADD SSTORE PUSH1 0x60 DUP3 ADD MLOAD DUP2 PUSH1 0x3 ADD SSTORE PUSH1 0x80 DUP3 ADD MLOAD DUP2 PUSH1 0x4 ADD SSTORE PUSH1 0xA0 DUP3 ADD MLOAD DUP2 PUSH1 0x5 ADD SSTORE PUSH1 0xC0 DUP3 ADD MLOAD DUP2 PUSH1 0x6 ADD SSTORE PUSH1 0xE0 DUP3 ADD MLOAD DUP2 PUSH1 0x7 ADD SSTORE PUSH2 0x100 DUP3 ADD MLOAD DUP2 PUSH1 0x8 ADD SSTORE SWAP1 POP POP PUSH1 0x1 PUSH1 0x8 PUSH0 DUP7 PUSH20 0xFFFFFFFFFFFFFFFFFFFFFFFFFFFFFFFFFFFFFFFF AND PUSH20 0xFFFFFFFFFFFFFFFFFFFFFFFFFFFFFFFFFFFFFFFF AND DUP2 MSTORE PUSH1 0x20 ADD SWAP1 DUP2 MSTORE PUSH1 0x20 ADD PUSH0 KECCAK256 PUSH0 PUSH2 0x100 EXP DUP2 SLOAD DUP2 PUSH1 0xFF MUL NOT AND SWAP1 DUP4 ISZERO ISZERO MUL OR SWAP1 SSTORE POP PUSH1 0xA PUSH0 DUP6 PUSH20 0xFFFFFFFFFFFFFFFFFFFFFFFFFFFFFFFFFFFFFFFF AND PUSH20 0xFFFFFFFFFFFFFFFFFFFFFFFFFFFFFFFFFFFFFFFF AND DUP2 MSTORE PUSH1 0x20 ADD SWAP1 DUP2 MSTORE PUSH1 0x20 ADD PUSH0 KECCAK256 TIMESTAMP SWAP1 DUP1 PUSH1 0x1 DUP2 SLOAD ADD DUP1 DUP3 SSTORE DUP1 SWAP2 POP POP PUSH1 0x1 SWAP1 SUB SWAP1 PUSH0 MSTORE PUSH1 0x20 PUSH0 KECCAK256 ADD PUSH0 SWAP1 SWAP2 SWAP1 SWAP2 SWAP1 SWAP2 POP SSTORE PUSH2 0xE78 DUP5 DUP3 PUSH2 0x13B4 JUMP JUMPDEST DUP4 PUSH20 0xFFFFFFFFFFFFFFFFFFFFFFFFFFFFFFFFFFFFFFFF AND PUSH32 0x9F3F24B66E46F5C1722305DB2FB5F085869D897102460780559F0386085FED3F DUP5 PUSH1 0x40 MLOAD PUSH2 0xEBE SWAP2 SWAP1 PUSH2 0x1A5E JUMP JUMPDEST PUSH1 0x40 MLOAD DUP1 SWAP2 SUB SWAP1 LOG2 POP POP POP POP POP POP POP POP POP JUMP JUMPDEST PUSH0 PUSH1 0x1 PUSH0 DUP5 PUSH20 0xFFFFFFFFFFFFFFFFFFFFFFFFFFFFFFFFFFFFFFFF AND PUSH20 0xFFFFFFFFFFFFFFFFFFFFFFFFFFFFFFFFFFFFFFFF AND DUP2 MSTORE PUSH1 0x20 ADD SWAP1 DUP2 MSTORE PUSH1 0x20 ADD PUSH0 KECCAK256 PUSH0 DUP4 PUSH20 0xFFFFFFFFFFFFFFFFFFFFFFFFFFFFFFFFFFFFFFFF AND PUSH20 0xFFFFFFFFFFFFFFFFFFFFFFFFFFFFFFFFFFFFFFFF AND DUP2 MSTORE PUSH1 0x20 ADD SWAP1 DUP2 MSTORE PUSH1 0x20 ADD PUSH0 KECCAK256 SLOAD SWAP1 POP SWAP3 SWAP2 POP POP JUMP JUMPDEST PUSH32 0x0 DUP2 JUMP JUMPDEST PUSH1 0x8 PUSH0 CALLER PUSH20 0xFFFFFFFFFFFFFFFFFFFFFFFFFFFFFFFFFFFFFFFF AND PUSH20 0xFFFFFFFFFFFFFFFFFFFFFFFFFFFFFFFFFFFFFFFF AND DUP2 MSTORE PUSH1 0x20 ADD SWAP1 DUP2 MSTORE PUSH1 0x20 ADD PUSH0 KECCAK256 PUSH0 SWAP1 SLOAD SWAP1 PUSH2 0x100 EXP SWAP1 DIV PUSH1 0xFF AND PUSH2 0x1000 JUMPI PUSH1 0x40 MLOAD PUSH32 0x8C379A000000000000000000000000000000000000000000000000000000000 DUP2 MSTORE PUSH1 0x4 ADD PUSH2 0xFF7 SWAP1 PUSH2 0x1FA4 JUMP JUMPDEST PUSH1 0x40 MLOAD DUP1 SWAP2 SUB SWAP1 REVERT JUMPDEST DUP1 PUSH9 0x3635C9ADC5DEA00000 DUP2 LT ISZERO PUSH2 0x104D JUMPI PUSH1 0x40 MLOAD PUSH32 0x8C379A000000000000000000000000000000000000000000000000000000000 DUP2 MSTORE PUSH1 0x4 ADD PUSH2 0x1044 SWAP1 PUSH2 0x24CC JUMP JUMPDEST PUSH1 0x40 MLOAD DUP1 SWAP2 SUB SWAP1 REVERT JUMPDEST PUSH0 CALLER SWAP1 POP PUSH0 TIMESTAMP SWAP1 POP PUSH0 PUSH2 0x106A PUSH1 0x14 DUP7 PUSH2 0x1433 SWAP1 SWAP2 SWAP1 PUSH4 0xFFFFFFFF AND JUMP JUMPDEST SWAP1 POP PUSH0 PUSH1 0x7 PUSH0 DUP6 PUSH20 0xFFFFFFFFFFFFFFFFFFFFFFFFFFFFFFFFFFFFFFFF AND PUSH20 0xFFFFFFFFFFFFFFFFFFFFFFFFFFFFFFFFFFFFFFFF AND DUP2 MSTORE PUSH1 0x20 ADD SWAP1 DUP2 MSTORE PUSH1 0x20 ADD PUSH0 KECCAK256 SWAP1 POP PUSH2 0x10C3 DUP3 DUP3 PUSH1 0x2 ADD SLOAD PUSH2 0x1448 SWAP1 SWAP2 SWAP1 PUSH4 0xFFFFFFFF AND JUMP JUMPDEST DUP2 PUSH1 0x2 ADD DUP2 SWAP1 SSTORE POP PUSH2 0x10E2 DUP7 DUP3 PUSH1 0x3 ADD SLOAD PUSH2 0x1448 SWAP1 SWAP2 SWAP1 PUSH4 0xFFFFFFFF AND JUMP JUMPDEST DUP2 PUSH1 0x3 ADD DUP2 SWAP1 SSTORE POP PUSH1 0x9 PUSH0 DUP6 PUSH20 0xFFFFFFFFFFFFFFFFFFFFFFFFFFFFFFFFFFFFFFFF AND PUSH20 0xFFFFFFFFFFFFFFFFFFFFFFFFFFFFFFFFFFFFFFFF AND DUP2 MSTORE PUSH1 0x20 ADD SWAP1 DUP2 MSTORE PUSH1 0x20 ADD PUSH0 KECCAK256 DUP4 SWAP1 DUP1 PUSH1 0x1 DUP2 SLOAD ADD DUP1 DUP3 SSTORE DUP1 SWAP2 POP POP PUSH1 0x1 SWAP1 SUB SWAP1 PUSH0 MSTORE PUSH1 0x20 PUSH0 KECCAK256 ADD PUSH0 SWAP1 SWAP2 SWAP1 SWAP2 SWAP1 SWAP2 POP SSTORE PUSH32 0x0 PUSH20 0xFFFFFFFFFFFFFFFFFFFFFFFFFFFFFFFFFFFFFFFF AND PUSH4 0xA9059CBB DUP6 DUP5 PUSH1 0x40 MLOAD DUP4 PUSH4 0xFFFFFFFF AND PUSH1 0xE0 SHL DUP2 MSTORE PUSH1 0x4 ADD PUSH2 0x11A6 SWAP3 SWAP2 SWAP1 PUSH2 0x24EA JUMP JUMPDEST PUSH1 0x20 PUSH1 0x40 MLOAD DUP1 DUP4 SUB DUP2 PUSH0 DUP8 GAS CALL ISZERO DUP1 ISZERO PUSH2 0x11C2 JUMPI RETURNDATASIZE PUSH0 DUP1 RETURNDATACOPY RETURNDATASIZE PUSH0 REVERT JUMPDEST POP POP POP POP PUSH1 0x40 MLOAD RETURNDATASIZE PUSH1 0x1F NOT PUSH1 0x1F DUP3 ADD AND DUP3 ADD DUP1 PUSH1 0x40 MSTORE POP DUP2 ADD SWAP1 PUSH2 0x11E6 SWAP2 SWAP1 PUSH2 0x20F1 JUMP JUMPDEST POP POP POP POP POP POP POP JUMP JUMPDEST PUSH0 CALLER SWAP1 POP SWAP1 JUMP JUMPDEST PUSH2 0x1203 DUP4 DUP4 DUP4 PUSH1 0x1 PUSH2 0x145D JUMP JUMPDEST POP POP POP JUMP JUMPDEST PUSH0 PUSH2 0x1213 DUP5 DUP5 PUSH2 0xED1 JUMP JUMPDEST SWAP1 POP PUSH32 0xFFFFFFFFFFFFFFFFFFFFFFFFFFFFFFFFFFFFFFFFFFFFFFFFFFFFFFFFFFFFFFFF DUP2 EQ PUSH2 0x1294 JUMPI DUP2 DUP2 LT ISZERO PUSH2 0x1285 JUMPI DUP3 DUP2 DUP4 PUSH1 0x40 MLOAD PUSH32 0xFB8F41B200000000000000000000000000000000000000000000000000000000 DUP2 MSTORE PUSH1 0x4 ADD PUSH2 0x127C SWAP4 SWAP3 SWAP2 SWAP1 PUSH2 0x2511 JUMP JUMPDEST PUSH1 0x40 MLOAD DUP1 SWAP2 SUB SWAP1 REVERT JUMPDEST PUSH2 0x1293 DUP5 DUP5 DUP5 DUP5 SUB PUSH0 PUSH2 0x145D JUMP JUMPDEST JUMPDEST POP POP POP POP JUMP JUMPDEST PUSH0 PUSH20 0xFFFFFFFFFFFFFFFFFFFFFFFFFFFFFFFFFFFFFFFF AND DUP4 PUSH20 0xFFFFFFFFFFFFFFFFFFFFFFFFFFFFFFFFFFFFFFFF AND SUB PUSH2 0x130A JUMPI PUSH0 PUSH1 0x40 MLOAD PUSH32 0x96C6FD1E00000000000000000000000000000000000000000000000000000000 DUP2 MSTORE PUSH1 0x4 ADD PUSH2 0x1301 SWAP2 SWAP1 PUSH2 0x1B35 JUMP JUMPDEST PUSH1 0x40 MLOAD DUP1 SWAP2 SUB SWAP1 REVERT JUMPDEST PUSH0 PUSH20 0xFFFFFFFFFFFFFFFFFFFFFFFFFFFFFFFFFFFFFFFF AND DUP3 PUSH20 0xFFFFFFFFFFFFFFFFFFFFFFFFFFFFFFFFFFFFFFFF AND SUB PUSH2 0x137A JUMPI PUSH0 PUSH1 0x40 MLOAD PUSH32 0xEC442F0500000000000000000000000000000000000000000000000000000000 DUP2 MSTORE PUSH1 0x4 ADD PUSH2 0x1371 SWAP2 SWAP1 PUSH2 0x1B35 JUMP JUMPDEST PUSH1 0x40 MLOAD DUP1 SWAP2 SUB SWAP1 REVERT JUMPDEST PUSH2 0x1385 DUP4 DUP4 DUP4 PUSH2 0x162C JUMP JUMPDEST POP POP POP JUMP JUMPDEST PUSH0 DUP2 DUP4 PUSH2 0x1397 SWAP2 SWAP1 PUSH2 0x21B1 JUMP JUMPDEST SWAP1 POP SWAP3 SWAP2 POP POP JUMP JUMPDEST PUSH0 DUP2 DUP4 PUSH2 0x13AC SWAP2 SWAP1 PUSH2 0x2546 JUMP JUMPDEST SWAP1 POP SWAP3 SWAP2 POP POP JUMP JUMPDEST PUSH0 PUSH20 0xFFFFFFFFFFFFFFFFFFFFFFFFFFFFFFFFFFFFFFFF AND DUP3 PUSH20 0xFFFFFFFFFFFFFFFFFFFFFFFFFFFFFFFFFFFFFFFF AND SUB PUSH2 0x1424 JUMPI PUSH0 PUSH1 0x40 MLOAD PUSH32 0xEC442F0500000000000000000000000000000000000000000000000000000000 DUP2 MSTORE PUSH1 0x4 ADD PUSH2 0x141B SWAP2 SWAP1 PUSH2 0x1B35 JUMP JUMPDEST PUSH1 0x40 MLOAD DUP1 SWAP2 SUB SWAP1 REVERT JUMPDEST PUSH2 0x142F PUSH0 DUP4 DUP4 PUSH2 0x162C JUMP JUMPDEST POP POP JUMP JUMPDEST PUSH0 DUP2 DUP4 PUSH2 0x1440 SWAP2 SWAP1 PUSH2 0x25A6 JUMP JUMPDEST SWAP1 POP SWAP3 SWAP2 POP POP JUMP JUMPDEST PUSH0 DUP2 DUP4 PUSH2 0x1455 SWAP2 SWAP1 PUSH2 0x25D6 JUMP JUMPDEST SWAP1 POP SWAP3 SWAP2 POP POP JUMP JUMPDEST PUSH0 PUSH20 0xFFFFFFFFFFFFFFFFFFFFFFFFFFFFFFFFFFFFFFFF AND DUP5 PUSH20 0xFFFFFFFFFFFFFFFFFFFFFFFFFFFFFFFFFFFFFFFF AND SUB PUSH2 0x14CD JUMPI PUSH0 PUSH1 0x40 MLOAD PUSH32 0xE602DF0500000000000000000000000000000000000000000000000000000000 DUP2 MSTORE PUSH1 0x4 ADD PUSH2 0x14C4 SWAP2 SWAP1 PUSH2 0x1B35 JUMP JUMPDEST PUSH1 0x40 MLOAD DUP1 SWAP2 SUB SWAP1 REVERT JUMPDEST PUSH0 PUSH20 0xFFFFFFFFFFFFFFFFFFFFFFFFFFFFFFFFFFFFFFFF AND DUP4 PUSH20 0xFFFFFFFFFFFFFFFFFFFFFFFFFFFFFFFFFFFFFFFF AND SUB PUSH2 0x153D JUMPI PUSH0 PUSH1 0x40 MLOAD PUSH32 0x94280D6200000000000000000000000000000000000000000000000000000000 DUP2 MSTORE PUSH1 0x4 ADD PUSH2 0x1534 SWAP2 SWAP1 PUSH2 0x1B35 JUMP JUMPDEST PUSH1 0x40 MLOAD DUP1 SWAP2 SUB SWAP1 REVERT JUMPDEST DUP2 PUSH1 0x1 PUSH0 DUP7 PUSH20 0xFFFFFFFFFFFFFFFFFFFFFFFFFFFFFFFFFFFFFFFF AND PUSH20 0xFFFFFFFFFFFFFFFFFFFFFFFFFFFFFFFFFFFFFFFF AND DUP2 MSTORE PUSH1 0x20 ADD SWAP1 DUP2 MSTORE PUSH1 0x20 ADD PUSH0 KECCAK256 PUSH0 DUP6 PUSH20 0xFFFFFFFFFFFFFFFFFFFFFFFFFFFFFFFFFFFFFFFF AND PUSH20 0xFFFFFFFFFFFFFFFFFFFFFFFFFFFFFFFFFFFFFFFF AND DUP2 MSTORE PUSH1 0x20 ADD SWAP1 DUP2 MSTORE PUSH1 0x20 ADD PUSH0 KECCAK256 DUP2 SWAP1 SSTORE POP DUP1 ISZERO PUSH2 0x1626 JUMPI DUP3 PUSH20 0xFFFFFFFFFFFFFFFFFFFFFFFFFFFFFFFFFFFFFFFF AND DUP5 PUSH20 0xFFFFFFFFFFFFFFFFFFFFFFFFFFFFFFFFFFFFFFFF AND PUSH32 0x8C5BE1E5EBEC7D5BD14F71427D1E84F3DD0314C0F7B2291E5B200AC8C7C3B925 DUP5 PUSH1 0x40 MLOAD PUSH2 0x161D SWAP2 SWAP1 PUSH2 0x1A5E JUMP JUMPDEST PUSH1 0x40 MLOAD DUP1 SWAP2 SUB SWAP1 LOG3 JUMPDEST POP POP POP POP JUMP JUMPDEST PUSH0 PUSH20 0xFFFFFFFFFFFFFFFFFFFFFFFFFFFFFFFFFFFFFFFF AND DUP4 PUSH20 0xFFFFFFFFFFFFFFFFFFFFFFFFFFFFFFFFFFFFFFFF AND SUB PUSH2 0x167C JUMPI DUP1 PUSH1 0x2 PUSH0 DUP3 DUP3 SLOAD PUSH2 0x1670 SWAP2 SWAP1 PUSH2 0x2546 JUMP JUMPDEST SWAP3 POP POP DUP2 SWAP1 SSTORE POP PUSH2 0x174A JUMP JUMPDEST PUSH0 DUP1 PUSH0 DUP6 PUSH20 0xFFFFFFFFFFFFFFFFFFFFFFFFFFFFFFFFFFFFFFFF AND PUSH20 0xFFFFFFFFFFFFFFFFFFFFFFFFFFFFFFFFFFFFFFFF AND DUP2 MSTORE PUSH1 0x20 ADD SWAP1 DUP2 MSTORE PUSH1 0x20 ADD PUSH0 KECCAK256 SLOAD SWAP1 POP DUP2 DUP2 LT ISZERO PUSH2 0x1705 JUMPI DUP4 DUP2 DUP4 PUSH1 0x40 MLOAD PUSH32 0xE450D38C00000000000000000000000000000000000000000000000000000000 DUP2 MSTORE PUSH1 0x4 ADD PUSH2 0x16FC SWAP4 SWAP3 SWAP2 SWAP1 PUSH2 0x2511 JUMP JUMPDEST PUSH1 0x40 MLOAD DUP1 SWAP2 SUB SWAP1 REVERT JUMPDEST DUP2 DUP2 SUB PUSH0 DUP1 DUP7 PUSH20 0xFFFFFFFFFFFFFFFFFFFFFFFFFFFFFFFFFFFFFFFF AND PUSH20 0xFFFFFFFFFFFFFFFFFFFFFFFFFFFFFFFFFFFFFFFF AND DUP2 MSTORE PUSH1 0x20 ADD SWAP1 DUP2 MSTORE PUSH1 0x20 ADD PUSH0 KECCAK256 DUP2 SWAP1 SSTORE POP POP JUMPDEST PUSH0 PUSH20 0xFFFFFFFFFFFFFFFFFFFFFFFFFFFFFFFFFFFFFFFF AND DUP3 PUSH20 0xFFFFFFFFFFFFFFFFFFFFFFFFFFFFFFFFFFFFFFFF AND SUB PUSH2 0x1791 JUMPI DUP1 PUSH1 0x2 PUSH0 DUP3 DUP3 SLOAD SUB SWAP3 POP POP DUP2 SWAP1 SSTORE POP PUSH2 0x17DB JUMP JUMPDEST DUP1 PUSH0 DUP1 DUP5 PUSH20 0xFFFFFFFFFFFFFFFFFFFFFFFFFFFFFFFFFFFFFFFF AND PUSH20 0xFFFFFFFFFFFFFFFFFFFFFFFFFFFFFFFFFFFFFFFF AND DUP2 MSTORE PUSH1 0x20 ADD SWAP1 DUP2 MSTORE PUSH1 0x20 ADD PUSH0 KECCAK256 PUSH0 DUP3 DUP3 SLOAD ADD SWAP3 POP POP DUP2 SWAP1 SSTORE POP JUMPDEST DUP2 PUSH20 0xFFFFFFFFFFFFFFFFFFFFFFFFFFFFFFFFFFFFFFFF AND DUP4 PUSH20 0xFFFFFFFFFFFFFFFFFFFFFFFFFFFFFFFFFFFFFFFF AND PUSH32 0xDDF252AD1BE2C89B69C2B068FC378DAA952BA7F163C4A11628F55A4DF523B3EF DUP4 PUSH1 0x40 MLOAD PUSH2 0x1838 SWAP2 SWAP1 PUSH2 0x1A5E JUMP JUMPDEST PUSH1 0x40 MLOAD DUP1 SWAP2 SUB SWAP1 LOG3 POP POP POP JUMP JUMPDEST PUSH1 0x40 MLOAD DUP1 PUSH2 0x120 ADD PUSH1 0x40 MSTORE DUP1 PUSH0 PUSH20 0xFFFFFFFFFFFFFFFFFFFFFFFFFFFFFFFFFFFFFFFF AND DUP2 MSTORE PUSH1 0x20 ADD PUSH1 0x60 DUP2 MSTORE PUSH1 0x20 ADD PUSH0 DUP2 MSTORE PUSH1 0x20 ADD PUSH0 DUP2 MSTORE PUSH1 0x20 ADD PUSH0 DUP2 MSTORE PUSH1 0x20 ADD PUSH0 DUP2 MSTORE PUSH1 0x20 ADD PUSH0 DUP2 MSTORE PUSH1 0x20 ADD PUSH0 DUP2 MSTORE PUSH1 0x20 ADD PUSH0 DUP2 MSTORE POP SWAP1 JUMP JUMPDEST PUSH0 DUP2 MLOAD SWAP1 POP SWAP2 SWAP1 POP JUMP JUMPDEST PUSH0 DUP3 DUP3 MSTORE PUSH1 0x20 DUP3 ADD SWAP1 POP SWAP3 SWAP2 POP POP JUMP JUMPDEST PUSH0 JUMPDEST DUP4 DUP2 LT ISZERO PUSH2 0x18D6 JUMPI DUP1 DUP3 ADD MLOAD DUP2 DUP5 ADD MSTORE PUSH1 0x20 DUP2 ADD SWAP1 POP PUSH2 0x18BB JUMP JUMPDEST PUSH0 DUP5 DUP5 ADD MSTORE POP POP POP POP JUMP JUMPDEST PUSH0 PUSH1 0x1F NOT PUSH1 0x1F DUP4 ADD AND SWAP1 POP SWAP2 SWAP1 POP JUMP JUMPDEST PUSH0 PUSH2 0x18FB DUP3 PUSH2 0x189F JUMP JUMPDEST PUSH2 0x1905 DUP2 DUP6 PUSH2 0x18A9 JUMP JUMPDEST SWAP4 POP PUSH2 0x1915 DUP2 DUP6 PUSH1 0x20 DUP7 ADD PUSH2 0x18B9 JUMP JUMPDEST PUSH2 0x191E DUP2 PUSH2 0x18E1 JUMP JUMPDEST DUP5 ADD SWAP2 POP POP SWAP3 SWAP2 POP POP JUMP JUMPDEST PUSH0 PUSH1 0x20 DUP3 ADD SWAP1 POP DUP2 DUP2 SUB PUSH0 DUP4 ADD MSTORE PUSH2 0x1941 DUP2 DUP5 PUSH2 0x18F1 JUMP JUMPDEST SWAP1 POP SWAP3 SWAP2 POP POP JUMP JUMPDEST PUSH0 DUP1 REVERT JUMPDEST PUSH0 DUP1 REVERT JUMPDEST PUSH0 PUSH20 0xFFFFFFFFFFFFFFFFFFFFFFFFFFFFFFFFFFFFFFFF DUP3 AND SWAP1 POP SWAP2 SWAP1 POP JUMP JUMPDEST PUSH0 PUSH2 0x197A DUP3 PUSH2 0x1951 JUMP JUMPDEST SWAP1 POP SWAP2 SWAP1 POP JUMP JUMPDEST PUSH2 0x198A DUP2 PUSH2 0x1970 JUMP JUMPDEST DUP2 EQ PUSH2 0x1994 JUMPI PUSH0 DUP1 REVERT JUMPDEST POP JUMP JUMPDEST PUSH0 DUP2 CALLDATALOAD SWAP1 POP PUSH2 0x19A5 DUP2 PUSH2 0x1981 JUMP JUMPDEST SWAP3 SWAP2 POP POP JUMP JUMPDEST PUSH0 DUP2 SWAP1 POP SWAP2 SWAP1 POP JUMP JUMPDEST PUSH2 0x19BD DUP2 PUSH2 0x19AB JUMP JUMPDEST DUP2 EQ PUSH2 0x19C7 JUMPI PUSH0 DUP1 REVERT JUMPDEST POP JUMP JUMPDEST PUSH0 DUP2 CALLDATALOAD SWAP1 POP PUSH2 0x19D8 DUP2 PUSH2 0x19B4 JUMP JUMPDEST SWAP3 SWAP2 POP POP JUMP JUMPDEST PUSH0 DUP1 PUSH1 0x40 DUP4 DUP6 SUB SLT ISZERO PUSH2 0x19F4 JUMPI PUSH2 0x19F3 PUSH2 0x1949 JUMP JUMPDEST JUMPDEST PUSH0 PUSH2 0x1A01 DUP6 DUP3 DUP7 ADD PUSH2 0x1997 JUMP JUMPDEST SWAP3 POP POP PUSH1 0x20 PUSH2 0x1A12 DUP6 DUP3 DUP7 ADD PUSH2 0x19CA JUMP JUMPDEST SWAP2 POP POP SWAP3 POP SWAP3 SWAP1 POP JUMP JUMPDEST PUSH0 DUP2 ISZERO ISZERO SWAP1 POP SWAP2 SWAP1 POP JUMP JUMPDEST PUSH2 0x1A30 DUP2 PUSH2 0x1A1C JUMP JUMPDEST DUP3 MSTORE POP POP JUMP JUMPDEST PUSH0 PUSH1 0x20 DUP3 ADD SWAP1 POP PUSH2 0x1A49 PUSH0 DUP4 ADD DUP5 PUSH2 0x1A27 JUMP JUMPDEST SWAP3 SWAP2 POP POP JUMP JUMPDEST PUSH2 0x1A58 DUP2 PUSH2 0x19AB JUMP JUMPDEST DUP3 MSTORE POP POP JUMP JUMPDEST PUSH0 PUSH1 0x20 DUP3 ADD SWAP1 POP PUSH2 0x1A71 PUSH0 DUP4 ADD DUP5 PUSH2 0x1A4F JUMP JUMPDEST SWAP3 SWAP2 POP POP JUMP JUMPDEST PUSH0 DUP1 PUSH0 PUSH1 0x60 DUP5 DUP7 SUB SLT ISZERO PUSH2 0x1A8E JUMPI PUSH2 0x1A8D PUSH2 0x1949 JUMP JUMPDEST JUMPDEST PUSH0 PUSH2 0x1A9B DUP7 DUP3 DUP8 ADD PUSH2 0x1997 JUMP JUMPDEST SWAP4 POP POP PUSH1 0x20 PUSH2 0x1AAC DUP7 DUP3 DUP8 ADD PUSH2 0x1997 JUMP JUMPDEST SWAP3 POP POP PUSH1 0x40 PUSH2 0x1ABD DUP7 DUP3 DUP8 ADD PUSH2 0x19CA JUMP JUMPDEST SWAP2 POP POP SWAP3 POP SWAP3 POP SWAP3 JUMP JUMPDEST PUSH0 PUSH1 0xFF DUP3 AND SWAP1 POP SWAP2 SWAP1 POP JUMP JUMPDEST PUSH2 0x1ADC DUP2 PUSH2 0x1AC7 JUMP JUMPDEST DUP3 MSTORE POP POP JUMP JUMPDEST PUSH0 PUSH1 0x20 DUP3 ADD SWAP1 POP PUSH2 0x1AF5 PUSH0 DUP4 ADD DUP5 PUSH2 0x1AD3 JUMP JUMPDEST SWAP3 SWAP2 POP POP JUMP JUMPDEST PUSH0 PUSH1 0x20 DUP3 DUP5 SUB SLT ISZERO PUSH2 0x1B10 JUMPI PUSH2 0x1B0F PUSH2 0x1949 JUMP JUMPDEST JUMPDEST PUSH0 PUSH2 0x1B1D DUP5 DUP3 DUP6 ADD PUSH2 0x1997 JUMP JUMPDEST SWAP2 POP POP SWAP3 SWAP2 POP POP JUMP JUMPDEST PUSH2 0x1B2F DUP2 PUSH2 0x1970 JUMP JUMPDEST DUP3 MSTORE POP POP JUMP JUMPDEST PUSH0 PUSH1 0x20 DUP3 ADD SWAP1 POP PUSH2 0x1B48 PUSH0 DUP4 ADD DUP5 PUSH2 0x1B26 JUMP JUMPDEST SWAP3 SWAP2 POP POP JUMP JUMPDEST PUSH2 0x1B57 DUP2 PUSH2 0x1970 JUMP JUMPDEST DUP3 MSTORE POP POP JUMP JUMPDEST PUSH0 DUP3 DUP3 MSTORE PUSH1 0x20 DUP3 ADD SWAP1 POP SWAP3 SWAP2 POP POP JUMP JUMPDEST PUSH0 PUSH2 0x1B77 DUP3 PUSH2 0x189F JUMP JUMPDEST PUSH2 0x1B81 DUP2 DUP6 PUSH2 0x1B5D JUMP JUMPDEST SWAP4 POP PUSH2 0x1B91 DUP2 DUP6 PUSH1 0x20 DUP7 ADD PUSH2 0x18B9 JUMP JUMPDEST PUSH2 0x1B9A DUP2 PUSH2 0x18E1 JUMP JUMPDEST DUP5 ADD SWAP2 POP POP SWAP3 SWAP2 POP POP JUMP JUMPDEST PUSH2 0x1BAE DUP2 PUSH2 0x19AB JUMP JUMPDEST DUP3 MSTORE POP POP JUMP JUMPDEST PUSH0 PUSH2 0x120 DUP4 ADD PUSH0 DUP4 ADD MLOAD PUSH2 0x1BCA PUSH0 DUP7 ADD DUP3 PUSH2 0x1B4E JUMP JUMPDEST POP PUSH1 0x20 DUP4 ADD MLOAD DUP5 DUP3 SUB PUSH1 0x20 DUP7 ADD MSTORE PUSH2 0x1BE2 DUP3 DUP3 PUSH2 0x1B6D JUMP JUMPDEST SWAP2 POP POP PUSH1 0x40 DUP4 ADD MLOAD PUSH2 0x1BF7 PUSH1 0x40 DUP7 ADD DUP3 PUSH2 0x1BA5 JUMP JUMPDEST POP PUSH1 0x60 DUP4 ADD MLOAD PUSH2 0x1C0A PUSH1 0x60 DUP7 ADD DUP3 PUSH2 0x1BA5 JUMP JUMPDEST POP PUSH1 0x80 DUP4 ADD MLOAD PUSH2 0x1C1D PUSH1 0x80 DUP7 ADD DUP3 PUSH2 0x1BA5 JUMP JUMPDEST POP PUSH1 0xA0 DUP4 ADD MLOAD PUSH2 0x1C30 PUSH1 0xA0 DUP7 ADD DUP3 PUSH2 0x1BA5 JUMP JUMPDEST POP PUSH1 0xC0 DUP4 ADD MLOAD PUSH2 0x1C43 PUSH1 0xC0 DUP7 ADD DUP3 PUSH2 0x1BA5 JUMP JUMPDEST POP PUSH1 0xE0 DUP4 ADD MLOAD PUSH2 0x1C56 PUSH1 0xE0 DUP7 ADD DUP3 PUSH2 0x1BA5 JUMP JUMPDEST POP PUSH2 0x100 DUP4 ADD MLOAD PUSH2 0x1C6B PUSH2 0x100 DUP7 ADD DUP3 PUSH2 0x1BA5 JUMP JUMPDEST POP DUP1 SWAP2 POP POP SWAP3 SWAP2 POP POP JUMP JUMPDEST PUSH0 PUSH1 0x20 DUP3 ADD SWAP1 POP DUP2 DUP2 SUB PUSH0 DUP4 ADD MSTORE PUSH2 0x1C8E DUP2 DUP5 PUSH2 0x1BB4 JUMP JUMPDEST SWAP1 POP SWAP3 SWAP2 POP POP JUMP JUMPDEST PUSH0 PUSH1 0x20 DUP3 DUP5 SUB SLT ISZERO PUSH2 0x1CAB JUMPI PUSH2 0x1CAA PUSH2 0x1949 JUMP JUMPDEST JUMPDEST PUSH0 PUSH2 0x1CB8 DUP5 DUP3 DUP6 ADD PUSH2 0x19CA JUMP JUMPDEST SWAP2 POP POP SWAP3 SWAP2 POP POP JUMP JUMPDEST PUSH0 DUP1 REVERT JUMPDEST PUSH0 DUP1 REVERT JUMPDEST PUSH0 DUP1 REVERT JUMPDEST PUSH0 DUP1 DUP4 PUSH1 0x1F DUP5 ADD SLT PUSH2 0x1CE2 JUMPI PUSH2 0x1CE1 PUSH2 0x1CC1 JUMP JUMPDEST JUMPDEST DUP3 CALLDATALOAD SWAP1 POP PUSH8 0xFFFFFFFFFFFFFFFF DUP2 GT ISZERO PUSH2 0x1CFF JUMPI PUSH2 0x1CFE PUSH2 0x1CC5 JUMP JUMPDEST JUMPDEST PUSH1 0x20 DUP4 ADD SWAP2 POP DUP4 PUSH1 0x1 DUP3 MUL DUP4 ADD GT ISZERO PUSH2 0x1D1B JUMPI PUSH2 0x1D1A PUSH2 0x1CC9 JUMP JUMPDEST JUMPDEST SWAP3 POP SWAP3 SWAP1 POP JUMP JUMPDEST PUSH2 0x1D2B DUP2 PUSH2 0x1AC7 JUMP JUMPDEST DUP2 EQ PUSH2 0x1D35 JUMPI PUSH0 DUP1 REVERT JUMPDEST POP JUMP JUMPDEST PUSH0 DUP2 CALLDATALOAD SWAP1 POP PUSH2 0x1D46 DUP2 PUSH2 0x1D22 JUMP JUMPDEST SWAP3 SWAP2 POP POP JUMP JUMPDEST PUSH0 DUP1 PUSH0 DUP1 PUSH1 0x60 DUP6 DUP8 SUB SLT ISZERO PUSH2 0x1D64 JUMPI PUSH2 0x1D63 PUSH2 0x1949 JUMP JUMPDEST JUMPDEST PUSH0 PUSH2 0x1D71 DUP8 DUP3 DUP9 ADD PUSH2 0x19CA JUMP JUMPDEST SWAP5 POP POP PUSH1 0x20 DUP6 ADD CALLDATALOAD PUSH8 0xFFFFFFFFFFFFFFFF DUP2 GT ISZERO PUSH2 0x1D92 JUMPI PUSH2 0x1D91 PUSH2 0x194D JUMP JUMPDEST JUMPDEST PUSH2 0x1D9E DUP8 DUP3 DUP9 ADD PUSH2 0x1CCD JUMP JUMPDEST SWAP4 POP SWAP4 POP POP PUSH1 0x40 PUSH2 0x1DB1 DUP8 DUP3 DUP9 ADD PUSH2 0x1D38 JUMP JUMPDEST SWAP2 POP POP SWAP3 SWAP6 SWAP2 SWAP5 POP SWAP3 POP JUMP JUMPDEST PUSH0 DUP1 PUSH1 0x40 DUP4 DUP6 SUB SLT ISZERO PUSH2 0x1DD3 JUMPI PUSH2 0x1DD2 PUSH2 0x1949 JUMP JUMPDEST JUMPDEST PUSH0 PUSH2 0x1DE0 DUP6 DUP3 DUP7 ADD PUSH2 0x1997 JUMP JUMPDEST SWAP3 POP POP PUSH1 0x20 PUSH2 0x1DF1 DUP6 DUP3 DUP7 ADD PUSH2 0x1997 JUMP JUMPDEST SWAP2 POP POP SWAP3 POP SWAP3 SWAP1 POP JUMP JUMPDEST PUSH0 DUP2 SWAP1 POP SWAP2 SWAP1 POP JUMP JUMPDEST PUSH0 PUSH2 0x1E1E PUSH2 0x1E19 PUSH2 0x1E14 DUP5 PUSH2 0x1951 JUMP JUMPDEST PUSH2 0x1DFB JUMP JUMPDEST PUSH2 0x1951 JUMP JUMPDEST SWAP1 POP SWAP2 SWAP1 POP JUMP JUMPDEST PUSH0 PUSH2 0x1E2F DUP3 PUSH2 0x1E04 JUMP JUMPDEST SWAP1 POP SWAP2 SWAP1 POP JUMP JUMPDEST PUSH0 PUSH2 0x1E40 DUP3 PUSH2 0x1E25 JUMP JUMPDEST SWAP1 POP SWAP2 SWAP1 POP JUMP JUMPDEST PUSH2 0x1E50 DUP2 PUSH2 0x1E36 JUMP JUMPDEST DUP3 MSTORE POP POP JUMP JUMPDEST PUSH0 PUSH1 0x20 DUP3 ADD SWAP1 POP PUSH2 0x1E69 PUSH0 DUP4 ADD DUP5 PUSH2 0x1E47 JUMP JUMPDEST SWAP3 SWAP2 POP POP JUMP JUMPDEST PUSH32 0x4E487B7100000000000000000000000000000000000000000000000000000000 PUSH0 MSTORE PUSH1 0x22 PUSH1 0x4 MSTORE PUSH1 0x24 PUSH0 REVERT JUMPDEST PUSH0 PUSH1 0x2 DUP3 DIV SWAP1 POP PUSH1 0x1 DUP3 AND DUP1 PUSH2 0x1EB3 JUMPI PUSH1 0x7F DUP3 AND SWAP2 POP JUMPDEST PUSH1 0x20 DUP3 LT DUP2 SUB PUSH2 0x1EC6 JUMPI PUSH2 0x1EC5 PUSH2 0x1E6F JUMP JUMPDEST JUMPDEST POP SWAP2 SWAP1 POP JUMP JUMPDEST PUSH32 0x4F6E6C792074686520636F6E7472616374206F776E657220697320616C6C6F77 PUSH0 DUP3 ADD MSTORE PUSH32 0x656420746F20646F20746865206465736972656420616374696F6E2E00000000 PUSH1 0x20 DUP3 ADD MSTORE POP JUMP JUMPDEST PUSH0 PUSH2 0x1F26 PUSH1 0x3C DUP4 PUSH2 0x18A9 JUMP JUMPDEST SWAP2 POP PUSH2 0x1F31 DUP3 PUSH2 0x1ECC JUMP JUMPDEST PUSH1 0x40 DUP3 ADD SWAP1 POP SWAP2 SWAP1 POP JUMP JUMPDEST PUSH0 PUSH1 0x20 DUP3 ADD SWAP1 POP DUP2 DUP2 SUB PUSH0 DUP4 ADD MSTORE PUSH2 0x1F53 DUP2 PUSH2 0x1F1A JUMP JUMPDEST SWAP1 POP SWAP2 SWAP1 POP JUMP JUMPDEST PUSH32 0x54686520636C69656E74206973206E6F7420696E73757265642E000000000000 PUSH0 DUP3 ADD MSTORE POP JUMP JUMPDEST PUSH0 PUSH2 0x1F8E PUSH1 0x1A DUP4 PUSH2 0x18A9 JUMP JUMPDEST SWAP2 POP PUSH2 0x1F99 DUP3 PUSH2 0x1F5A JUMP JUMPDEST PUSH1 0x20 DUP3 ADD SWAP1 POP SWAP2 SWAP1 POP JUMP JUMPDEST PUSH0 PUSH1 0x20 DUP3 ADD SWAP1 POP DUP2 DUP2 SUB PUSH0 DUP4 ADD MSTORE PUSH2 0x1FBB DUP2 PUSH2 0x1F82 JUMP JUMPDEST SWAP1 POP SWAP2 SWAP1 POP JUMP JUMPDEST PUSH32 0x5061796D656E74206973206E6F7420647565207965742E000000000000000000 PUSH0 DUP3 ADD MSTORE POP JUMP JUMPDEST PUSH0 PUSH2 0x1FF6 PUSH1 0x17 DUP4 PUSH2 0x18A9 JUMP JUMPDEST SWAP2 POP PUSH2 0x2001 DUP3 PUSH2 0x1FC2 JUMP JUMPDEST PUSH1 0x20 DUP3 ADD SWAP1 POP SWAP2 SWAP1 POP JUMP JUMPDEST PUSH0 PUSH1 0x20 DUP3 ADD SWAP1 POP DUP2 DUP2 SUB PUSH0 DUP4 ADD MSTORE PUSH2 0x2023 DUP2 PUSH2 0x1FEA JUMP JUMPDEST SWAP1 POP SWAP2 SWAP1 POP JUMP JUMPDEST PUSH32 0x5072656D69756D206973206E6F742073756666696369656E742E000000000000 PUSH0 DUP3 ADD MSTORE POP JUMP JUMPDEST PUSH0 PUSH2 0x205E PUSH1 0x1A DUP4 PUSH2 0x18A9 JUMP JUMPDEST SWAP2 POP PUSH2 0x2069 DUP3 PUSH2 0x202A JUMP JUMPDEST PUSH1 0x20 DUP3 ADD SWAP1 POP SWAP2 SWAP1 POP JUMP JUMPDEST PUSH0 PUSH1 0x20 DUP3 ADD SWAP1 POP DUP2 DUP2 SUB PUSH0 DUP4 ADD MSTORE PUSH2 0x208B DUP2 PUSH2 0x2052 JUMP JUMPDEST SWAP1 POP SWAP2 SWAP1 POP JUMP JUMPDEST PUSH0 PUSH1 0x60 DUP3 ADD SWAP1 POP PUSH2 0x20A5 PUSH0 DUP4 ADD DUP7 PUSH2 0x1B26 JUMP JUMPDEST PUSH2 0x20B2 PUSH1 0x20 DUP4 ADD DUP6 PUSH2 0x1B26 JUMP JUMPDEST PUSH2 0x20BF PUSH1 0x40 DUP4 ADD DUP5 PUSH2 0x1A4F JUMP JUMPDEST SWAP5 SWAP4 POP POP POP POP JUMP JUMPDEST PUSH2 0x20D0 DUP2 PUSH2 0x1A1C JUMP JUMPDEST DUP2 EQ PUSH2 0x20DA JUMPI PUSH0 DUP1 REVERT JUMPDEST POP JUMP JUMPDEST PUSH0 DUP2 MLOAD SWAP1 POP PUSH2 0x20EB DUP2 PUSH2 0x20C7 JUMP JUMPDEST SWAP3 SWAP2 POP POP JUMP JUMPDEST PUSH0 PUSH1 0x20 DUP3 DUP5 SUB SLT ISZERO PUSH2 0x2106 JUMPI PUSH2 0x2105 PUSH2 0x1949 JUMP JUMPDEST JUMPDEST PUSH0 PUSH2 0x2113 DUP5 DUP3 DUP6 ADD PUSH2 0x20DD JUMP JUMPDEST SWAP2 POP POP SWAP3 SWAP2 POP POP JUMP JUMPDEST PUSH32 0x54686520636C69656E7420697320616C726561647920696E73757265642E0000 PUSH0 DUP3 ADD MSTORE POP JUMP JUMPDEST PUSH0 PUSH2 0x2150 PUSH1 0x1E DUP4 PUSH2 0x18A9 JUMP JUMPDEST SWAP2 POP PUSH2 0x215B DUP3 PUSH2 0x211C JUMP JUMPDEST PUSH1 0x20 DUP3 ADD SWAP1 POP SWAP2 SWAP1 POP JUMP JUMPDEST PUSH0 PUSH1 0x20 DUP3 ADD SWAP1 POP DUP2 DUP2 SUB PUSH0 DUP4 ADD MSTORE PUSH2 0x217D DUP2 PUSH2 0x2144 JUMP JUMPDEST SWAP1 POP SWAP2 SWAP1 POP JUMP JUMPDEST PUSH32 0x4E487B7100000000000000000000000000000000000000000000000000000000 PUSH0 MSTORE PUSH1 0x11 PUSH1 0x4 MSTORE PUSH1 0x24 PUSH0 REVERT JUMPDEST PUSH0 PUSH2 0x21BB DUP3 PUSH2 0x19AB JUMP JUMPDEST SWAP2 POP PUSH2 0x21C6 DUP4 PUSH2 0x19AB JUMP JUMPDEST SWAP3 POP DUP3 DUP3 MUL PUSH2 0x21D4 DUP2 PUSH2 0x19AB JUMP JUMPDEST SWAP2 POP DUP3 DUP3 DIV DUP5 EQ DUP4 ISZERO OR PUSH2 0x21EB JUMPI PUSH2 0x21EA PUSH2 0x2184 JUMP JUMPDEST JUMPDEST POP SWAP3 SWAP2 POP POP JUMP JUMPDEST PUSH32 0x4E487B7100000000000000000000000000000000000000000000000000000000 PUSH0 MSTORE PUSH1 0x41 PUSH1 0x4 MSTORE PUSH1 0x24 PUSH0 REVERT JUMPDEST PUSH0 DUP2 SWAP1 POP DUP2 PUSH0 MSTORE PUSH1 0x20 PUSH0 KECCAK256 SWAP1 POP SWAP2 SWAP1 POP JUMP JUMPDEST PUSH0 PUSH1 0x20 PUSH1 0x1F DUP4 ADD DIV SWAP1 POP SWAP2 SWAP1 POP JUMP JUMPDEST PUSH0 DUP3 DUP3 SHL SWAP1 POP SWAP3 SWAP2 POP POP JUMP JUMPDEST PUSH0 PUSH1 0x8 DUP4 MUL PUSH2 0x227B PUSH32 0xFFFFFFFFFFFFFFFFFFFFFFFFFFFFFFFFFFFFFFFFFFFFFFFFFFFFFFFFFFFFFFFF DUP3 PUSH2 0x2240 JUMP JUMPDEST PUSH2 0x2285 DUP7 DUP4 PUSH2 0x2240 JUMP JUMPDEST SWAP6 POP DUP1 NOT DUP5 AND SWAP4 POP DUP1 DUP7 AND DUP5 OR SWAP3 POP POP POP SWAP4 SWAP3 POP POP POP JUMP JUMPDEST PUSH0 PUSH2 0x22B7 PUSH2 0x22B2 PUSH2 0x22AD DUP5 PUSH2 0x19AB JUMP JUMPDEST PUSH2 0x1DFB JUMP JUMPDEST PUSH2 0x19AB JUMP JUMPDEST SWAP1 POP SWAP2 SWAP1 POP JUMP JUMPDEST PUSH0 DUP2 SWAP1 POP SWAP2 SWAP1 POP JUMP JUMPDEST PUSH2 0x22D0 DUP4 PUSH2 0x229D JUMP JUMPDEST PUSH2 0x22E4 PUSH2 0x22DC DUP3 PUSH2 0x22BE JUMP JUMPDEST DUP5 DUP5 SLOAD PUSH2 0x224C JUMP JUMPDEST DUP3 SSTORE POP POP POP POP JUMP JUMPDEST PUSH0 SWAP1 JUMP JUMPDEST PUSH2 0x22F8 PUSH2 0x22EC JUMP JUMPDEST PUSH2 0x2303 DUP2 DUP5 DUP5 PUSH2 0x22C7 JUMP JUMPDEST POP POP POP JUMP JUMPDEST JUMPDEST DUP2 DUP2 LT ISZERO PUSH2 0x2326 JUMPI PUSH2 0x231B PUSH0 DUP3 PUSH2 0x22F0 JUMP JUMPDEST PUSH1 0x1 DUP2 ADD SWAP1 POP PUSH2 0x2309 JUMP JUMPDEST POP POP JUMP JUMPDEST PUSH1 0x1F DUP3 GT ISZERO PUSH2 0x236B JUMPI PUSH2 0x233C DUP2 PUSH2 0x221F JUMP JUMPDEST PUSH2 0x2345 DUP5 PUSH2 0x2231 JUMP JUMPDEST DUP2 ADD PUSH1 0x20 DUP6 LT ISZERO PUSH2 0x2354 JUMPI DUP2 SWAP1 POP JUMPDEST PUSH2 0x2368 PUSH2 0x2360 DUP6 PUSH2 0x2231 JUMP JUMPDEST DUP4 ADD DUP3 PUSH2 0x2308 JUMP JUMPDEST POP POP JUMPDEST POP POP POP JUMP JUMPDEST PUSH0 DUP3 DUP3 SHR SWAP1 POP SWAP3 SWAP2 POP POP JUMP JUMPDEST PUSH0 PUSH2 0x238B PUSH0 NOT DUP5 PUSH1 0x8 MUL PUSH2 0x2370 JUMP JUMPDEST NOT DUP1 DUP4 AND SWAP2 POP POP SWAP3 SWAP2 POP POP JUMP JUMPDEST PUSH0 PUSH2 0x23A3 DUP4 DUP4 PUSH2 0x237C JUMP JUMPDEST SWAP2 POP DUP3 PUSH1 0x2 MUL DUP3 OR SWAP1 POP SWAP3 SWAP2 POP POP JUMP JUMPDEST PUSH2 0x23BC DUP3 PUSH2 0x189F JUMP JUMPDEST PUSH8 0xFFFFFFFFFFFFFFFF DUP2 GT ISZERO PUSH2 0x23D5 JUMPI PUSH2 0x23D4 PUSH2 0x21F2 JUMP JUMPDEST JUMPDEST PUSH2 0x23DF DUP3 SLOAD PUSH2 0x1E9C JUMP JUMPDEST PUSH2 0x23EA DUP3 DUP3 DUP6 PUSH2 0x232A JUMP JUMPDEST PUSH0 PUSH1 0x20 SWAP1 POP PUSH1 0x1F DUP4 GT PUSH1 0x1 DUP2 EQ PUSH2 0x241B JUMPI PUSH0 DUP5 ISZERO PUSH2 0x2409 JUMPI DUP3 DUP8 ADD MLOAD SWAP1 POP JUMPDEST PUSH2 0x2413 DUP6 DUP3 PUSH2 0x2398 JUMP JUMPDEST DUP7 SSTORE POP PUSH2 0x247A JUMP JUMPDEST PUSH1 0x1F NOT DUP5 AND PUSH2 0x2429 DUP7 PUSH2 0x221F JUMP JUMPDEST PUSH0 JUMPDEST DUP3 DUP2 LT ISZERO PUSH2 0x2450 JUMPI DUP5 DUP10 ADD MLOAD DUP3 SSTORE PUSH1 0x1 DUP3 ADD SWAP2 POP PUSH1 0x20 DUP6 ADD SWAP5 POP PUSH1 0x20 DUP2 ADD SWAP1 POP PUSH2 0x242B JUMP JUMPDEST DUP7 DUP4 LT ISZERO PUSH2 0x246D JUMPI DUP5 DUP10 ADD MLOAD PUSH2 0x2469 PUSH1 0x1F DUP10 AND DUP3 PUSH2 0x237C JUMP JUMPDEST DUP4 SSTORE POP JUMPDEST PUSH1 0x1 PUSH1 0x2 DUP9 MUL ADD DUP9 SSTORE POP POP POP JUMPDEST POP POP POP POP POP POP JUMP JUMPDEST PUSH32 0x436C61696D206973206E6F742073756666696369656E742E0000000000000000 PUSH0 DUP3 ADD MSTORE POP JUMP JUMPDEST PUSH0 PUSH2 0x24B6 PUSH1 0x18 DUP4 PUSH2 0x18A9 JUMP JUMPDEST SWAP2 POP PUSH2 0x24C1 DUP3 PUSH2 0x2482 JUMP JUMPDEST PUSH1 0x20 DUP3 ADD SWAP1 POP SWAP2 SWAP1 POP JUMP JUMPDEST PUSH0 PUSH1 0x20 DUP3 ADD SWAP1 POP DUP2 DUP2 SUB PUSH0 DUP4 ADD MSTORE PUSH2 0x24E3 DUP2 PUSH2 0x24AA JUMP JUMPDEST SWAP1 POP SWAP2 SWAP1 POP JUMP JUMPDEST PUSH0 PUSH1 0x40 DUP3 ADD SWAP1 POP PUSH2 0x24FD PUSH0 DUP4 ADD DUP6 PUSH2 0x1B26 JUMP JUMPDEST PUSH2 0x250A PUSH1 0x20 DUP4 ADD DUP5 PUSH2 0x1A4F JUMP JUMPDEST SWAP4 SWAP3 POP POP POP JUMP JUMPDEST PUSH0 PUSH1 0x60 DUP3 ADD SWAP1 POP PUSH2 0x2524 PUSH0 DUP4 ADD DUP7 PUSH2 0x1B26 JUMP JUMPDEST PUSH2 0x2531 PUSH1 0x20 DUP4 ADD DUP6 PUSH2 0x1A4F JUMP JUMPDEST PUSH2 0x253E PUSH1 0x40 DUP4 ADD DUP5 PUSH2 0x1A4F JUMP JUMPDEST SWAP5 SWAP4 POP POP POP POP JUMP JUMPDEST PUSH0 PUSH2 0x2550 DUP3 PUSH2 0x19AB JUMP JUMPDEST SWAP2 POP PUSH2 0x255B DUP4 PUSH2 0x19AB JUMP JUMPDEST SWAP3 POP DUP3 DUP3 ADD SWAP1 POP DUP1 DUP3 GT ISZERO PUSH2 0x2573 JUMPI PUSH2 0x2572 PUSH2 0x2184 JUMP JUMPDEST JUMPDEST SWAP3 SWAP2 POP POP JUMP JUMPDEST PUSH32 0x4E487B7100000000000000000000000000000000000000000000000000000000 PUSH0 MSTORE PUSH1 0x12 PUSH1 0x4 MSTORE PUSH1 0x24 PUSH0 REVERT JUMPDEST PUSH0 PUSH2 0x25B0 DUP3 PUSH2 0x19AB JUMP JUMPDEST SWAP2 POP PUSH2 0x25BB DUP4 PUSH2 0x19AB JUMP JUMPDEST SWAP3 POP DUP3 PUSH2 0x25CB JUMPI PUSH2 0x25CA PUSH2 0x2579 JUMP JUMPDEST JUMPDEST DUP3 DUP3 DIV SWAP1 POP SWAP3 SWAP2 POP POP JUMP JUMPDEST PUSH0 PUSH2 0x25E0 DUP3 PUSH2 0x19AB JUMP JUMPDEST SWAP2 POP PUSH2 0x25EB DUP4 PUSH2 0x19AB JUMP JUMPDEST SWAP3 POP DUP3 DUP3 SUB SWAP1 POP DUP2 DUP2 GT ISZERO PUSH2 0x2603 JUMPI PUSH2 0x2602 PUSH2 0x2184 JUMP JUMPDEST JUMPDEST SWAP3 SWAP2 POP POP JUMP INVALID LOG2 PUSH5 0x6970667358 0x22 SLT KECCAK256 LOG3 CREATE PUSH10 0x397A57475B7903F40322 CODESIZE 0xC8 PUSH12 0xF7D136AAF4A88A22399D380D LOG4 STOP 0xE0 GT PUSH5 0x736F6C6343 STOP ADDMOD AND STOP CALLER "
				},
				"gasEstimates": {
					"creation": {
						"codeDepositCost": "1958200",
						"executionCost": "infinite",
						"totalCost": "infinite"
					},
					"external": {
						"allowance(address,address)": "infinite",
						"approve(address,uint256)": "infinite",
						"balanceOf(address)": "2896",
						"claimSunsurance(uint256)": "infinite",
						"decimals()": "383",
						"getSunsurance()": "infinite",
						"name()": "infinite",
						"owner()": "4773",
						"pay(uint256)": "infinite",
						"register(uint256,string,uint8)": "infinite",
						"symbol()": "infinite",
						"totalSupply()": "2500",
						"transfer(address,uint256)": "infinite",
						"transferFrom(address,address,uint256)": "infinite",
						"xCHF()": "infinite"
					}
				},
				"methodIdentifiers": {
					"allowance(address,address)": "dd62ed3e",
					"approve(address,uint256)": "095ea7b3",
					"balanceOf(address)": "70a08231",
					"claimSunsurance(uint256)": "edd5bcce",
					"decimals()": "313ce567",
					"getSunsurance()": "96e0736c",
					"name()": "06fdde03",
					"owner()": "8da5cb5b",
					"pay(uint256)": "c290d691",
					"register(uint256,string,uint8)": "d21aa219",
					"symbol()": "95d89b41",
					"totalSupply()": "18160ddd",
					"transfer(address,uint256)": "a9059cbb",
					"transferFrom(address,address,uint256)": "23b872dd",
					"xCHF()": "df201829"
				}
			},
			"storageLayout": {
				"storage": [
					{
						"astId": 163,
						"contract": "contracts/sunsurance.sol:Sunsurance",
						"label": "_balances",
						"offset": 0,
						"slot": "0",
						"type": "t_mapping(t_address,t_uint256)"
					},
					{
						"astId": 169,
						"contract": "contracts/sunsurance.sol:Sunsurance",
						"label": "_allowances",
						"offset": 0,
						"slot": "1",
						"type": "t_mapping(t_address,t_mapping(t_address,t_uint256))"
					},
					{
						"astId": 171,
						"contract": "contracts/sunsurance.sol:Sunsurance",
						"label": "_totalSupply",
						"offset": 0,
						"slot": "2",
						"type": "t_uint256"
					},
					{
						"astId": 173,
						"contract": "contracts/sunsurance.sol:Sunsurance",
						"label": "_name",
						"offset": 0,
						"slot": "3",
						"type": "t_string_storage"
					},
					{
						"astId": 175,
						"contract": "contracts/sunsurance.sol:Sunsurance",
						"label": "_symbol",
						"offset": 0,
						"slot": "4",
						"type": "t_string_storage"
					},
					{
						"astId": 1108,
						"contract": "contracts/sunsurance.sol:Sunsurance",
						"label": "_owner",
						"offset": 0,
						"slot": "5",
						"type": "t_address"
					},
					{
						"astId": 1142,
						"contract": "contracts/sunsurance.sol:Sunsurance",
						"label": "_insuranceLevels",
						"offset": 0,
						"slot": "6",
						"type": "t_mapping(t_uint8,t_struct(InsuranceLevel)1137_storage)"
					},
					{
						"astId": 1156,
						"contract": "contracts/sunsurance.sol:Sunsurance",
						"label": "_contracts",
						"offset": 0,
						"slot": "7",
						"type": "t_mapping(t_address,t_struct(SunsuranceContract)1130_storage)"
					},
					{
						"astId": 1160,
						"contract": "contracts/sunsurance.sol:Sunsurance",
						"label": "_isRegisteredAddress",
						"offset": 0,
						"slot": "8",
						"type": "t_mapping(t_address,t_bool)"
					},
					{
						"astId": 1165,
						"contract": "contracts/sunsurance.sol:Sunsurance",
						"label": "_claims",
						"offset": 0,
						"slot": "9",
						"type": "t_mapping(t_address,t_array(t_uint256)dyn_storage)"
					},
					{
						"astId": 1170,
						"contract": "contracts/sunsurance.sol:Sunsurance",
						"label": "_payments",
						"offset": 0,
						"slot": "10",
						"type": "t_mapping(t_address,t_array(t_uint256)dyn_storage)"
					}
				],
				"types": {
					"t_address": {
						"encoding": "inplace",
						"label": "address",
						"numberOfBytes": "20"
					},
					"t_array(t_uint256)dyn_storage": {
						"base": "t_uint256",
						"encoding": "dynamic_array",
						"label": "uint256[]",
						"numberOfBytes": "32"
					},
					"t_bool": {
						"encoding": "inplace",
						"label": "bool",
						"numberOfBytes": "1"
					},
					"t_mapping(t_address,t_array(t_uint256)dyn_storage)": {
						"encoding": "mapping",
						"key": "t_address",
						"label": "mapping(address => uint256[])",
						"numberOfBytes": "32",
						"value": "t_array(t_uint256)dyn_storage"
					},
					"t_mapping(t_address,t_bool)": {
						"encoding": "mapping",
						"key": "t_address",
						"label": "mapping(address => bool)",
						"numberOfBytes": "32",
						"value": "t_bool"
					},
					"t_mapping(t_address,t_mapping(t_address,t_uint256))": {
						"encoding": "mapping",
						"key": "t_address",
						"label": "mapping(address => mapping(address => uint256))",
						"numberOfBytes": "32",
						"value": "t_mapping(t_address,t_uint256)"
					},
					"t_mapping(t_address,t_struct(SunsuranceContract)1130_storage)": {
						"encoding": "mapping",
						"key": "t_address",
						"label": "mapping(address => struct Sunsurance.SunsuranceContract)",
						"numberOfBytes": "32",
						"value": "t_struct(SunsuranceContract)1130_storage"
					},
					"t_mapping(t_address,t_uint256)": {
						"encoding": "mapping",
						"key": "t_address",
						"label": "mapping(address => uint256)",
						"numberOfBytes": "32",
						"value": "t_uint256"
					},
					"t_mapping(t_uint8,t_struct(InsuranceLevel)1137_storage)": {
						"encoding": "mapping",
						"key": "t_uint8",
						"label": "mapping(uint8 => struct Sunsurance.InsuranceLevel)",
						"numberOfBytes": "32",
						"value": "t_struct(InsuranceLevel)1137_storage"
					},
					"t_string_storage": {
						"encoding": "bytes",
						"label": "string",
						"numberOfBytes": "32"
					},
					"t_struct(InsuranceLevel)1137_storage": {
						"encoding": "inplace",
						"label": "struct Sunsurance.InsuranceLevel",
						"members": [
							{
								"astId": 1132,
								"contract": "contracts/sunsurance.sol:Sunsurance",
								"label": "_level",
								"offset": 0,
								"slot": "0",
								"type": "t_uint8"
							},
							{
								"astId": 1134,
								"contract": "contracts/sunsurance.sol:Sunsurance",
								"label": "_premium",
								"offset": 0,
								"slot": "1",
								"type": "t_uint256"
							},
							{
								"astId": 1136,
								"contract": "contracts/sunsurance.sol:Sunsurance",
								"label": "_insuredHours",
								"offset": 0,
								"slot": "2",
								"type": "t_uint256"
							}
						],
						"numberOfBytes": "96"
					},
					"t_struct(SunsuranceContract)1130_storage": {
						"encoding": "inplace",
						"label": "struct Sunsurance.SunsuranceContract",
						"members": [
							{
								"astId": 1113,
								"contract": "contracts/sunsurance.sol:Sunsurance",
								"label": "_client",
								"offset": 0,
								"slot": "0",
								"type": "t_address"
							},
							{
								"astId": 1115,
								"contract": "contracts/sunsurance.sol:Sunsurance",
								"label": "_panelLocation",
								"offset": 0,
								"slot": "1",
								"type": "t_string_storage"
							},
							{
								"astId": 1117,
								"contract": "contracts/sunsurance.sol:Sunsurance",
								"label": "_chfValueContributed",
								"offset": 0,
								"slot": "2",
								"type": "t_uint256"
							},
							{
								"astId": 1119,
								"contract": "contracts/sunsurance.sol:Sunsurance",
								"label": "_suntValueReceived",
								"offset": 0,
								"slot": "3",
								"type": "t_uint256"
							},
							{
								"astId": 1121,
								"contract": "contracts/sunsurance.sol:Sunsurance",
								"label": "_premiumToPay",
								"offset": 0,
								"slot": "4",
								"type": "t_uint256"
							},
							{
								"astId": 1123,
								"contract": "contracts/sunsurance.sol:Sunsurance",
								"label": "_registrationDate",
								"offset": 0,
								"slot": "5",
								"type": "t_uint256"
							},
							{
								"astId": 1125,
								"contract": "contracts/sunsurance.sol:Sunsurance",
								"label": "_previousPayment",
								"offset": 0,
								"slot": "6",
								"type": "t_uint256"
							},
							{
								"astId": 1127,
								"contract": "contracts/sunsurance.sol:Sunsurance",
								"label": "_nextPayment",
								"offset": 0,
								"slot": "7",
								"type": "t_uint256"
							},
							{
								"astId": 1129,
								"contract": "contracts/sunsurance.sol:Sunsurance",
								"label": "_duration",
								"offset": 0,
								"slot": "8",
								"type": "t_uint256"
							}
						],
						"numberOfBytes": "288"
					},
					"t_uint256": {
						"encoding": "inplace",
						"label": "uint256",
						"numberOfBytes": "32"
					},
					"t_uint8": {
						"encoding": "inplace",
						"label": "uint8",
						"numberOfBytes": "1"
					}
				}
			},
			"userdoc": {
				"kind": "user",
				"methods": {},
				"version": 1
			}
		}
	}
}