{
	"contracts/SolarInsurance.sol": {
		"SolarInsurance": {
			"abi": [
				{
					"inputs": [],
					"stateMutability": "nonpayable",
					"type": "constructor"
				},
				{
					"inputs": [
						{
							"internalType": "enum SolarInsurance.ClientRiskLevels",
							"name": "riskLevel",
							"type": "uint8"
						},
						{
							"internalType": "uint256",
							"name": "panelArea",
							"type": "uint256"
						}
					],
					"name": "calculatePremium",
					"outputs": [
						{
							"internalType": "uint256",
							"name": "",
							"type": "uint256"
						}
					],
					"stateMutability": "view",
					"type": "function"
				},
				{
					"inputs": [
						{
							"internalType": "uint256",
							"name": "year",
							"type": "uint256"
						},
						{
							"internalType": "uint256",
							"name": "duration",
							"type": "uint256"
						},
						{
							"internalType": "enum SolarInsurance.SwissRegion",
							"name": "region",
							"type": "uint8"
						}
					],
					"name": "createSunshineRecord",
					"outputs": [],
					"stateMutability": "nonpayable",
					"type": "function"
				},
				{
					"inputs": [],
					"name": "extendPolicy",
					"outputs": [],
					"stateMutability": "payable",
					"type": "function"
				},
				{
					"inputs": [
						{
							"internalType": "uint256",
							"name": "year",
							"type": "uint256"
						}
					],
					"name": "fileClaim",
					"outputs": [],
					"stateMutability": "nonpayable",
					"type": "function"
				},
				{
					"inputs": [
						{
							"internalType": "uint256",
							"name": "year",
							"type": "uint256"
						}
					],
					"name": "fileClaimWithoutChecks",
					"outputs": [],
					"stateMutability": "nonpayable",
					"type": "function"
				},
				{
					"inputs": [],
					"name": "fundContract",
					"outputs": [],
					"stateMutability": "payable",
					"type": "function"
				},
				{
					"inputs": [],
					"name": "getPolicyInformation",
					"outputs": [
						{
							"components": [
								{
									"internalType": "address",
									"name": "client",
									"type": "address"
								},
								{
									"internalType": "enum SolarInsurance.SwissRegion",
									"name": "panelLocation",
									"type": "uint8"
								},
								{
									"internalType": "enum SolarInsurance.ClientRiskLevels",
									"name": "riskLevel",
									"type": "uint8"
								},
								{
									"internalType": "uint256",
									"name": "panelArea",
									"type": "uint256"
								},
								{
									"internalType": "uint256",
									"name": "premiumToPay",
									"type": "uint256"
								},
								{
									"internalType": "uint256",
									"name": "registrationDate",
									"type": "uint256"
								},
								{
									"internalType": "uint256",
									"name": "validUntil",
									"type": "uint256"
								},
								{
									"internalType": "uint256",
									"name": "claimTimeout",
									"type": "uint256"
								}
							],
							"internalType": "struct SolarInsurance.SolarInsurancePolicy",
							"name": "",
							"type": "tuple"
						}
					],
					"stateMutability": "view",
					"type": "function"
				},
				{
					"inputs": [],
					"name": "owner",
					"outputs": [
						{
							"internalType": "address",
							"name": "",
							"type": "address"
						}
					],
					"stateMutability": "view",
					"type": "function"
				},
				{
					"inputs": [
						{
							"internalType": "enum SolarInsurance.ClientRiskLevels",
							"name": "riskLevel",
							"type": "uint8"
						},
						{
							"internalType": "uint256",
							"name": "panelArea",
							"type": "uint256"
						},
						{
							"internalType": "enum SolarInsurance.SwissRegion",
							"name": "location",
							"type": "uint8"
						}
					],
					"name": "registerPolicy",
					"outputs": [],
					"stateMutability": "payable",
					"type": "function"
				}
			],
			"devdoc": {
				"author": "Fabian Diemand",
				"custom:educational": "This contract is intended only as an educational piece of work. No productive use is intended.",
				"kind": "dev",
				"methods": {
					"calculatePremium(uint8,uint256)": {
						"params": {
							"panelArea": "The area of the solar panel (in square meters).",
							"riskLevel": "The risk level of the client (HIGH, MID, LOW)."
						},
						"returns": {
							"_0": "The calculated premium in wei."
						}
					},
					"extendPolicy()": {
						"details": "The policy will be extended for another year from the current validUntil timestamp.Requirements:- The client must be insured.- The policy must still be active.- The premium must be covered by the amount of wei sent with the message."
					},
					"fileClaim(uint256)": {
						"details": "Requirements:- The client must be insured.- There must be no timeout for client's claims.- The specified year must be claimable by the client.- There must be a recorded sunshine duration for the specified year and region.",
						"params": {
							"year": "The year for which the claim is filed."
						}
					},
					"getPolicyInformation()": {
						"details": "Requirements:- The sender must be insured.",
						"returns": {
							"_0": "The SolarInsurancePolicy with the data from the client's policy "
						}
					},
					"owner()": {
						"returns": {
							"_0": "The address of the contract owner."
						}
					}
				},
				"title": "An insurance for solar power",
				"version": 1
			},
			"evm": {
				"assembly": "    /* \"contracts/SolarInsurance.sol\":627:14991  contract SolarInsurance is Fundable {... */\n  mstore(0x40, 0x80)\n    /* \"contracts/SolarInsurance.sol\":795:808  0.00016 ether */\n  0x9184e72a0000\n    /* \"contracts/SolarInsurance.sol\":762:808  uint256 internal _ENERGY_PRICE = 0.00016 ether */\n  0x01\n  sstore\n    /* \"contracts/SolarInsurance.sol\":885:888  150 */\n  0x96\n    /* \"contracts/SolarInsurance.sol\":849:888  uint256 internal _RADIATION_VALUE = 150 */\n  0x02\n  sstore\n    /* \"contracts/SolarInsurance.sol\":970:972  20 */\n  0x14\n    /* \"contracts/SolarInsurance.sol\":939:972  uint256 internal _EFFICIENCY = 20 */\n  0x03\n  sstore\n    /* \"contracts/SolarInsurance.sol\":2719:3185  constructor() {... */\n  callvalue\n  dup1\n  iszero\n  tag_1\n  jumpi\n  0x00\n  dup1\n  revert\ntag_1:\n  pop\n    /* \"contracts/SolarInsurance.sol\":2752:2762  msg.sender */\n  caller\n    /* \"contracts/SolarInsurance.sol\":2743:2749  _owner */\n  0x00\n  dup1\n    /* \"contracts/SolarInsurance.sol\":2743:2762  _owner = msg.sender */\n  0x0100\n  exp\n  dup2\n  sload\n  dup2\n  0xffffffffffffffffffffffffffffffffffffffff\n  mul\n  not\n  and\n  swap1\n  dup4\n  0xffffffffffffffffffffffffffffffffffffffff\n  and\n  mul\n  or\n  swap1\n  sstore\n  pop\n    /* \"contracts/SolarInsurance.sol\":2867:2938  InsuranceLevel(... */\n  mload(0x40)\n  dup1\n  0x40\n  add\n  0x40\n  mstore\n  dup1\n    /* \"contracts/SolarInsurance.sol\":2895:2908  0.00005 ether */\n  0x2d79883d2000\n    /* \"contracts/SolarInsurance.sol\":2867:2938  InsuranceLevel(... */\n  dup2\n  mstore\n  0x20\n  add\n    /* \"contracts/SolarInsurance.sol\":2923:2927  1639 */\n  0x0667\n    /* \"contracts/SolarInsurance.sol\":2867:2938  InsuranceLevel(... */\n  dup2\n  mstore\n  pop\n    /* \"contracts/SolarInsurance.sol\":2825:2841  _insuranceLevels */\n  0x04\n    /* \"contracts/SolarInsurance.sol\":2825:2864  _insuranceLevels[ClientRiskLevels.HIGH] */\n  0x00\n    /* \"contracts/SolarInsurance.sol\":2842:2863  ClientRiskLevels.HIGH */\n  dup1\n    /* \"contracts/SolarInsurance.sol\":2825:2864  _insuranceLevels[ClientRiskLevels.HIGH] */\n  0x02\n  dup2\n  gt\n  iszero\n  tag_6\n  jumpi\n  tag_7\n  tag_8\n  jump\t// in\ntag_7:\ntag_6:\n  0x02\n  dup2\n  gt\n  iszero\n  tag_9\n  jumpi\n  tag_10\n  tag_8\n  jump\t// in\ntag_10:\ntag_9:\n  dup2\n  mstore\n  0x20\n  add\n  swap1\n  dup2\n  mstore\n  0x20\n  add\n  0x00\n  keccak256\n    /* \"contracts/SolarInsurance.sol\":2825:2938  _insuranceLevels[ClientRiskLevels.HIGH] = InsuranceLevel(... */\n  0x00\n  dup3\n  add\n  mload\n  dup2\n  0x00\n  add\n  sstore\n  0x20\n  dup3\n  add\n  mload\n  dup2\n  0x01\n  add\n  sstore\n  swap1\n  pop\n  pop\n    /* \"contracts/SolarInsurance.sol\":2989:3058  InsuranceLevel(... */\n  mload(0x40)\n  dup1\n  0x40\n  add\n  0x40\n  mstore\n  dup1\n    /* \"contracts/SolarInsurance.sol\":3017:3030  0.00012 ether */\n  0x6d23ad5f8000\n    /* \"contracts/SolarInsurance.sol\":2989:3058  InsuranceLevel(... */\n  dup2\n  mstore\n  0x20\n  add\n    /* \"contracts/SolarInsurance.sol\":3044:3048  1721 */\n  0x06b9\n    /* \"contracts/SolarInsurance.sol\":2989:3058  InsuranceLevel(... */\n  dup2\n  mstore\n  pop\n    /* \"contracts/SolarInsurance.sol\":2948:2964  _insuranceLevels */\n  0x04\n    /* \"contracts/SolarInsurance.sol\":2948:2986  _insuranceLevels[ClientRiskLevels.MID] */\n  0x00\n    /* \"contracts/SolarInsurance.sol\":2965:2985  ClientRiskLevels.MID */\n  0x01\n    /* \"contracts/SolarInsurance.sol\":2948:2986  _insuranceLevels[ClientRiskLevels.MID] */\n  0x02\n  dup2\n  gt\n  iszero\n  tag_11\n  jumpi\n  tag_12\n  tag_8\n  jump\t// in\ntag_12:\ntag_11:\n  0x02\n  dup2\n  gt\n  iszero\n  tag_13\n  jumpi\n  tag_14\n  tag_8\n  jump\t// in\ntag_14:\ntag_13:\n  dup2\n  mstore\n  0x20\n  add\n  swap1\n  dup2\n  mstore\n  0x20\n  add\n  0x00\n  keccak256\n    /* \"contracts/SolarInsurance.sol\":2948:3058  _insuranceLevels[ClientRiskLevels.MID] = InsuranceLevel(... */\n  0x00\n  dup3\n  add\n  mload\n  dup2\n  0x00\n  add\n  sstore\n  0x20\n  dup3\n  add\n  mload\n  dup2\n  0x01\n  add\n  sstore\n  swap1\n  pop\n  pop\n    /* \"contracts/SolarInsurance.sol\":3109:3178  InsuranceLevel(... */\n  mload(0x40)\n  dup1\n  0x40\n  add\n  0x40\n  mstore\n  dup1\n    /* \"contracts/SolarInsurance.sol\":3137:3150  0.00035 ether */\n  0x013e52b9abe000\n    /* \"contracts/SolarInsurance.sol\":3109:3178  InsuranceLevel(... */\n  dup2\n  mstore\n  0x20\n  add\n    /* \"contracts/SolarInsurance.sol\":3164:3168  1803 */\n  0x070b\n    /* \"contracts/SolarInsurance.sol\":3109:3178  InsuranceLevel(... */\n  dup2\n  mstore\n  pop\n    /* \"contracts/SolarInsurance.sol\":3068:3084  _insuranceLevels */\n  0x04\n    /* \"contracts/SolarInsurance.sol\":3068:3106  _insuranceLevels[ClientRiskLevels.LOW] */\n  0x00\n    /* \"contracts/SolarInsurance.sol\":3085:3105  ClientRiskLevels.LOW */\n  0x02\n    /* \"contracts/SolarInsurance.sol\":3068:3106  _insuranceLevels[ClientRiskLevels.LOW] */\n  dup1\n  dup2\n  gt\n  iszero\n  tag_15\n  jumpi\n  tag_16\n  tag_8\n  jump\t// in\ntag_16:\ntag_15:\n  0x02\n  dup2\n  gt\n  iszero\n  tag_17\n  jumpi\n  tag_18\n  tag_8\n  jump\t// in\ntag_18:\ntag_17:\n  dup2\n  mstore\n  0x20\n  add\n  swap1\n  dup2\n  mstore\n  0x20\n  add\n  0x00\n  keccak256\n    /* \"contracts/SolarInsurance.sol\":3068:3178  _insuranceLevels[ClientRiskLevels.LOW] = InsuranceLevel(... */\n  0x00\n  dup3\n  add\n  mload\n  dup2\n  0x00\n  add\n  sstore\n  0x20\n  dup3\n  add\n  mload\n  dup2\n  0x01\n  add\n  sstore\n  swap1\n  pop\n  pop\n    /* \"contracts/SolarInsurance.sol\":627:14991  contract SolarInsurance is Fundable {... */\n  jump(tag_19)\n    /* \"#utility.yul\":7:187   */\ntag_8:\n    /* \"#utility.yul\":55:132   */\n  0x4e487b7100000000000000000000000000000000000000000000000000000000\n    /* \"#utility.yul\":52:53   */\n  0x00\n    /* \"#utility.yul\":45:133   */\n  mstore\n    /* \"#utility.yul\":152:156   */\n  0x21\n    /* \"#utility.yul\":149:150   */\n  0x04\n    /* \"#utility.yul\":142:157   */\n  mstore\n    /* \"#utility.yul\":176:180   */\n  0x24\n    /* \"#utility.yul\":173:174   */\n  0x00\n    /* \"#utility.yul\":166:181   */\n  revert\n    /* \"contracts/SolarInsurance.sol\":627:14991  contract SolarInsurance is Fundable {... */\ntag_19:\n  dataSize(sub_0)\n  dup1\n  dataOffset(sub_0)\n  0x00\n  codecopy\n  0x00\n  return\nstop\n\nsub_0: assembly {\n        /* \"contracts/SolarInsurance.sol\":627:14991  contract SolarInsurance is Fundable {... */\n      mstore(0x40, 0x80)\n      jumpi(tag_1, lt(calldatasize, 0x04))\n      shr(0xe0, calldataload(0x00))\n      dup1\n      0x8da5cb5b\n      gt\n      tag_11\n      jumpi\n      dup1\n      0x8da5cb5b\n      eq\n      tag_6\n      jumpi\n      dup1\n      0xa8e023eb\n      eq\n      tag_7\n      jumpi\n      dup1\n      0xb3155b5e\n      eq\n      tag_8\n      jumpi\n      dup1\n      0xbd097e21\n      eq\n      tag_9\n      jumpi\n      dup1\n      0xd61909f9\n      eq\n      tag_10\n      jumpi\n      jump(tag_1)\n    tag_11:\n      dup1\n      0x7c74cb\n      eq\n      tag_2\n      jumpi\n      dup1\n      0x1a59c5b6\n      eq\n      tag_3\n      jumpi\n      dup1\n      0x51821891\n      eq\n      tag_4\n      jumpi\n      dup1\n      0x70f363a4\n      eq\n      tag_5\n      jumpi\n    tag_1:\n      0x00\n      dup1\n      revert\n        /* \"contracts/SolarInsurance.sol\":10431:10982  function fileClaimWithoutChecks(uint256 year) public... */\n    tag_2:\n      callvalue\n      dup1\n      iszero\n      tag_12\n      jumpi\n      0x00\n      dup1\n      revert\n    tag_12:\n      pop\n      tag_13\n      0x04\n      dup1\n      calldatasize\n      sub\n      dup2\n      add\n      swap1\n      tag_14\n      swap2\n      swap1\n      tag_15\n      jump\t// in\n    tag_14:\n      tag_16\n      jump\t// in\n    tag_13:\n      stop\n        /* \"contracts/SolarInsurance.sol\":4950:5209  function extendPolicy() public payable... */\n    tag_3:\n      tag_17\n      tag_18\n      jump\t// in\n    tag_17:\n      stop\n        /* \"contracts/SolarInsurance.sol\":7158:7349  function calculatePremium(ClientRiskLevels riskLevel, uint256 panelArea) public view returns (uint256){... */\n    tag_4:\n      callvalue\n      dup1\n      iszero\n      tag_19\n      jumpi\n      0x00\n      dup1\n      revert\n    tag_19:\n      pop\n      tag_20\n      0x04\n      dup1\n      calldatasize\n      sub\n      dup2\n      add\n      swap1\n      tag_21\n      swap2\n      swap1\n      tag_22\n      jump\t// in\n    tag_21:\n      tag_23\n      jump\t// in\n    tag_20:\n      mload(0x40)\n      tag_24\n      swap2\n      swap1\n      tag_25\n      jump\t// in\n    tag_24:\n      mload(0x40)\n      dup1\n      swap2\n      sub\n      swap1\n      return\n        /* \"contracts/SolarInsurance.sol\":6713:6870  function getPolicyInformation() public view... */\n    tag_5:\n      callvalue\n      dup1\n      iszero\n      tag_26\n      jumpi\n      0x00\n      dup1\n      revert\n    tag_26:\n      pop\n      tag_27\n      tag_28\n      jump\t// in\n    tag_27:\n      mload(0x40)\n      tag_29\n      swap2\n      swap1\n      tag_30\n      jump\t// in\n    tag_29:\n      mload(0x40)\n      dup1\n      swap2\n      sub\n      swap1\n      return\n        /* \"contracts/SolarInsurance.sol\":6417:6494  function owner() public view returns (address) {... */\n    tag_6:\n      callvalue\n      dup1\n      iszero\n      tag_31\n      jumpi\n      0x00\n      dup1\n      revert\n    tag_31:\n      pop\n      tag_32\n      tag_33\n      jump\t// in\n    tag_32:\n      mload(0x40)\n      tag_34\n      swap2\n      swap1\n      tag_35\n      jump\t// in\n    tag_34:\n      mload(0x40)\n      dup1\n      swap2\n      sub\n      swap1\n      return\n        /* \"contracts/SolarInsurance.sol\":3663:4557  function registerPolicy(ClientRiskLevels riskLevel, uint256 panelArea, SwissRegion location) public payable... */\n    tag_7:\n      tag_36\n      0x04\n      dup1\n      calldatasize\n      sub\n      dup2\n      add\n      swap1\n      tag_37\n      swap2\n      swap1\n      tag_38\n      jump\t// in\n    tag_37:\n      tag_39\n      jump\t// in\n    tag_36:\n      stop\n        /* \"contracts/SolarInsurance.sol\":9655:9970  function createSunshineRecord(uint256 year, uint256 duration, SwissRegion region) public {... */\n    tag_8:\n      callvalue\n      dup1\n      iszero\n      tag_40\n      jumpi\n      0x00\n      dup1\n      revert\n    tag_40:\n      pop\n      tag_41\n      0x04\n      dup1\n      calldatasize\n      sub\n      dup2\n      add\n      swap1\n      tag_42\n      swap2\n      swap1\n      tag_43\n      jump\t// in\n    tag_42:\n      tag_44\n      jump\t// in\n    tag_41:\n      stop\n        /* \"libraries/Fundable.sol\":874:941  function fundContract() public payable requireNonZeroValue {... */\n    tag_9:\n      tag_45\n      tag_46\n      jump\t// in\n    tag_45:\n      stop\n        /* \"contracts/SolarInsurance.sol\":5673:6307  function fileClaim(uint256 year) public... */\n    tag_10:\n      callvalue\n      dup1\n      iszero\n      tag_47\n      jumpi\n      0x00\n      dup1\n      revert\n    tag_47:\n      pop\n      tag_48\n      0x04\n      dup1\n      calldatasize\n      sub\n      dup2\n      add\n      swap1\n      tag_49\n      swap2\n      swap1\n      tag_15\n      jump\t// in\n    tag_49:\n      tag_50\n      jump\t// in\n    tag_48:\n      stop\n        /* \"contracts/SolarInsurance.sol\":10431:10982  function fileClaimWithoutChecks(uint256 year) public... */\n    tag_16:\n        /* \"contracts/SolarInsurance.sol\":13243:13264  bool policyRegistered */\n      0x00\n        /* \"contracts/SolarInsurance.sol\":13307:13308  0 */\n      dup1\n        /* \"contracts/SolarInsurance.sol\":13267:13309  _policies[msg.sender].client != address(0) */\n      0xffffffffffffffffffffffffffffffffffffffff\n      and\n        /* \"contracts/SolarInsurance.sol\":13267:13276  _policies */\n      0x06\n        /* \"contracts/SolarInsurance.sol\":13267:13288  _policies[msg.sender] */\n      0x00\n        /* \"contracts/SolarInsurance.sol\":13277:13287  msg.sender */\n      caller\n        /* \"contracts/SolarInsurance.sol\":13267:13288  _policies[msg.sender] */\n      0xffffffffffffffffffffffffffffffffffffffff\n      and\n      0xffffffffffffffffffffffffffffffffffffffff\n      and\n      dup2\n      mstore\n      0x20\n      add\n      swap1\n      dup2\n      mstore\n      0x20\n      add\n      0x00\n      keccak256\n        /* \"contracts/SolarInsurance.sol\":13267:13295  _policies[msg.sender].client */\n      0x00\n      add\n      0x00\n      swap1\n      sload\n      swap1\n      0x0100\n      exp\n      swap1\n      div\n      0xffffffffffffffffffffffffffffffffffffffff\n      and\n        /* \"contracts/SolarInsurance.sol\":13267:13309  _policies[msg.sender].client != address(0) */\n      0xffffffffffffffffffffffffffffffffffffffff\n      and\n      eq\n      iszero\n        /* \"contracts/SolarInsurance.sol\":13243:13309  bool policyRegistered = _policies[msg.sender].client != address(0) */\n      swap1\n      pop\n        /* \"contracts/SolarInsurance.sol\":13319:13336  bool policyActive */\n      0x00\n        /* \"contracts/SolarInsurance.sol\":13374:13389  block.timestamp */\n      timestamp\n        /* \"contracts/SolarInsurance.sol\":13339:13348  _policies */\n      0x06\n        /* \"contracts/SolarInsurance.sol\":13339:13360  _policies[msg.sender] */\n      0x00\n        /* \"contracts/SolarInsurance.sol\":13349:13359  msg.sender */\n      caller\n        /* \"contracts/SolarInsurance.sol\":13339:13360  _policies[msg.sender] */\n      0xffffffffffffffffffffffffffffffffffffffff\n      and\n      0xffffffffffffffffffffffffffffffffffffffff\n      and\n      dup2\n      mstore\n      0x20\n      add\n      swap1\n      dup2\n      mstore\n      0x20\n      add\n      0x00\n      keccak256\n        /* \"contracts/SolarInsurance.sol\":13339:13371  _policies[msg.sender].validUntil */\n      0x04\n      add\n      sload\n        /* \"contracts/SolarInsurance.sol\":13339:13389  _policies[msg.sender].validUntil > block.timestamp */\n      gt\n        /* \"contracts/SolarInsurance.sol\":13319:13389  bool policyActive = _policies[msg.sender].validUntil > block.timestamp */\n      swap1\n      pop\n        /* \"contracts/SolarInsurance.sol\":13421:13437  policyRegistered */\n      dup2\n        /* \"contracts/SolarInsurance.sol\":13421:13453  policyRegistered && policyActive */\n      dup1\n      iszero\n      tag_52\n      jumpi\n      pop\n        /* \"contracts/SolarInsurance.sol\":13441:13453  policyActive */\n      dup1\n        /* \"contracts/SolarInsurance.sol\":13421:13453  policyRegistered && policyActive */\n    tag_52:\n        /* \"contracts/SolarInsurance.sol\":13400:13505  require(... */\n      tag_53\n      jumpi\n      mload(0x40)\n      0x08c379a000000000000000000000000000000000000000000000000000000000\n      dup2\n      mstore\n      0x04\n      add\n      tag_54\n      swap1\n      tag_55\n      jump\t// in\n    tag_54:\n      mload(0x40)\n      dup1\n      swap2\n      sub\n      swap1\n      revert\n    tag_53:\n        /* \"contracts/SolarInsurance.sol\":10535:10539  year */\n      dup3\n        /* \"contracts/SolarInsurance.sol\":13783:13800  string memory key */\n      0x00\n        /* \"contracts/SolarInsurance.sol\":13803:13822  getRecordsKey(year) */\n      tag_57\n        /* \"contracts/SolarInsurance.sol\":13817:13821  year */\n      dup3\n        /* \"contracts/SolarInsurance.sol\":13803:13816  getRecordsKey */\n      tag_58\n        /* \"contracts/SolarInsurance.sol\":13803:13822  getRecordsKey(year) */\n      jump\t// in\n    tag_57:\n        /* \"contracts/SolarInsurance.sol\":13783:13822  string memory key = getRecordsKey(year) */\n      swap1\n      pop\n        /* \"contracts/SolarInsurance.sol\":13833:13850  bool recordExists */\n      0x00\n        /* \"contracts/SolarInsurance.sol\":13878:13879  0 */\n      dup1\n        /* \"contracts/SolarInsurance.sol\":13853:13869  _sunshineRecords */\n      0x05\n        /* \"contracts/SolarInsurance.sol\":13870:13873  key */\n      dup4\n        /* \"contracts/SolarInsurance.sol\":13853:13874  _sunshineRecords[key] */\n      mload(0x40)\n      tag_59\n      swap2\n      swap1\n      tag_60\n      jump\t// in\n    tag_59:\n      swap1\n      dup2\n      mstore\n      0x20\n      add\n      mload(0x40)\n      dup1\n      swap2\n      sub\n      swap1\n      keccak256\n      sload\n        /* \"contracts/SolarInsurance.sol\":13853:13879  _sunshineRecords[key] != 0 */\n      eq\n      iszero\n        /* \"contracts/SolarInsurance.sol\":13833:13879  bool recordExists = _sunshineRecords[key] != 0 */\n      swap1\n      pop\n        /* \"contracts/SolarInsurance.sol\":13910:13922  recordExists */\n      dup1\n        /* \"contracts/SolarInsurance.sol\":13889:13999  require(... */\n      tag_61\n      jumpi\n      mload(0x40)\n      0x08c379a000000000000000000000000000000000000000000000000000000000\n      dup2\n      mstore\n      0x04\n      add\n      tag_62\n      swap1\n      tag_63\n      jump\t// in\n    tag_62:\n      mload(0x40)\n      dup1\n      swap2\n      sub\n      swap1\n      revert\n    tag_61:\n        /* \"contracts/SolarInsurance.sol\":10590:10609  uint256 claimAmount */\n      0x00\n        /* \"contracts/SolarInsurance.sol\":10612:10632  getClaimAmount(year) */\n      tag_65\n        /* \"contracts/SolarInsurance.sol\":10627:10631  year */\n      dup8\n        /* \"contracts/SolarInsurance.sol\":10612:10626  getClaimAmount */\n      tag_66\n        /* \"contracts/SolarInsurance.sol\":10612:10632  getClaimAmount(year) */\n      jump\t// in\n    tag_65:\n        /* \"contracts/SolarInsurance.sol\":10590:10632  uint256 claimAmount = getClaimAmount(year) */\n      swap1\n      pop\n        /* \"contracts/SolarInsurance.sol\":10702:10712  msg.sender */\n      caller\n        /* \"contracts/SolarInsurance.sol\":10694:10722  payable(msg.sender).transfer */\n      0xffffffffffffffffffffffffffffffffffffffff\n      and\n        /* \"contracts/SolarInsurance.sol\":10694:10735  payable(msg.sender).transfer(claimAmount) */\n      0x08fc\n        /* \"contracts/SolarInsurance.sol\":10723:10734  claimAmount */\n      dup3\n        /* \"contracts/SolarInsurance.sol\":10694:10735  payable(msg.sender).transfer(claimAmount) */\n      swap1\n      dup2\n      iszero\n      mul\n      swap1\n      mload(0x40)\n      0x00\n      mload(0x40)\n      dup1\n      dup4\n      sub\n      dup2\n      dup6\n      dup9\n      dup9\n      call\n      swap4\n      pop\n      pop\n      pop\n      pop\n      iszero\n      dup1\n      iszero\n      tag_68\n      jumpi\n      returndatasize\n      0x00\n      dup1\n      returndatacopy\n      revert(0x00, returndatasize)\n    tag_68:\n      pop\n        /* \"contracts/SolarInsurance.sol\":10816:10868  _policies[msg.sender].claimTimeout.add(1 * 365 days) */\n      tag_69\n        /* \"contracts/SolarInsurance.sol\":10855:10867  1 * 365 days */\n      0x01e13380\n        /* \"contracts/SolarInsurance.sol\":10816:10825  _policies */\n      0x06\n        /* \"contracts/SolarInsurance.sol\":10816:10837  _policies[msg.sender] */\n      0x00\n        /* \"contracts/SolarInsurance.sol\":10826:10836  msg.sender */\n      caller\n        /* \"contracts/SolarInsurance.sol\":10816:10837  _policies[msg.sender] */\n      0xffffffffffffffffffffffffffffffffffffffff\n      and\n      0xffffffffffffffffffffffffffffffffffffffff\n      and\n      dup2\n      mstore\n      0x20\n      add\n      swap1\n      dup2\n      mstore\n      0x20\n      add\n      0x00\n      keccak256\n        /* \"contracts/SolarInsurance.sol\":10816:10850  _policies[msg.sender].claimTimeout */\n      0x05\n      add\n      sload\n        /* \"contracts/SolarInsurance.sol\":10816:10854  _policies[msg.sender].claimTimeout.add */\n      tag_70\n      swap1\n        /* \"contracts/SolarInsurance.sol\":10816:10868  _policies[msg.sender].claimTimeout.add(1 * 365 days) */\n      swap2\n      swap1\n      0xffffffff\n      and\n      jump\t// in\n    tag_69:\n      pop\n        /* \"contracts/SolarInsurance.sol\":10917:10918  0 */\n      0x00\n        /* \"contracts/SolarInsurance.sol\":10882:10891  _policies */\n      0x06\n        /* \"contracts/SolarInsurance.sol\":10882:10903  _policies[msg.sender] */\n      0x00\n        /* \"contracts/SolarInsurance.sol\":10892:10902  msg.sender */\n      caller\n        /* \"contracts/SolarInsurance.sol\":10882:10903  _policies[msg.sender] */\n      0xffffffffffffffffffffffffffffffffffffffff\n      and\n      0xffffffffffffffffffffffffffffffffffffffff\n      and\n      dup2\n      mstore\n      0x20\n      add\n      swap1\n      dup2\n      mstore\n      0x20\n      add\n      0x00\n      keccak256\n        /* \"contracts/SolarInsurance.sol\":10882:10914  _policies[msg.sender].validUntil */\n      0x04\n      add\n      sload\n        /* \"contracts/SolarInsurance.sol\":10882:10918  _policies[msg.sender].validUntil > 0 */\n      gt\n        /* \"contracts/SolarInsurance.sol\":10878:10976  if (_policies[msg.sender].validUntil > 0) {... */\n      iszero\n      tag_71\n      jumpi\n        /* \"contracts/SolarInsurance.sol\":10964:10965  1 */\n      0x01\n        /* \"contracts/SolarInsurance.sol\":10934:10948  _allowedClaims */\n      0x07\n        /* \"contracts/SolarInsurance.sol\":10934:10960  _allowedClaims[msg.sender] */\n      0x00\n        /* \"contracts/SolarInsurance.sol\":10949:10959  msg.sender */\n      caller\n        /* \"contracts/SolarInsurance.sol\":10934:10960  _allowedClaims[msg.sender] */\n      0xffffffffffffffffffffffffffffffffffffffff\n      and\n      0xffffffffffffffffffffffffffffffffffffffff\n      and\n      dup2\n      mstore\n      0x20\n      add\n      swap1\n      dup2\n      mstore\n      0x20\n      add\n      0x00\n      keccak256\n      0x00\n        /* \"contracts/SolarInsurance.sol\":10934:10965  _allowedClaims[msg.sender] += 1 */\n      dup3\n      dup3\n      sload\n      tag_72\n      swap2\n      swap1\n      tag_73\n      jump\t// in\n    tag_72:\n      swap3\n      pop\n      pop\n      dup2\n      swap1\n      sstore\n      pop\n        /* \"contracts/SolarInsurance.sol\":10878:10976  if (_policies[msg.sender].validUntil > 0) {... */\n    tag_71:\n        /* \"contracts/SolarInsurance.sol\":10541:10982  {... */\n      pop\n        /* \"contracts/SolarInsurance.sol\":13773:14017  {... */\n      pop\n      pop\n        /* \"contracts/SolarInsurance.sol\":13515:13516  _ */\n      pop\n        /* \"contracts/SolarInsurance.sol\":13233:13523  {... */\n      pop\n      pop\n        /* \"contracts/SolarInsurance.sol\":10431:10982  function fileClaimWithoutChecks(uint256 year) public... */\n      pop\n      jump\t// out\n        /* \"contracts/SolarInsurance.sol\":4950:5209  function extendPolicy() public payable... */\n    tag_18:\n        /* \"contracts/SolarInsurance.sol\":13243:13264  bool policyRegistered */\n      0x00\n        /* \"contracts/SolarInsurance.sol\":13307:13308  0 */\n      dup1\n        /* \"contracts/SolarInsurance.sol\":13267:13309  _policies[msg.sender].client != address(0) */\n      0xffffffffffffffffffffffffffffffffffffffff\n      and\n        /* \"contracts/SolarInsurance.sol\":13267:13276  _policies */\n      0x06\n        /* \"contracts/SolarInsurance.sol\":13267:13288  _policies[msg.sender] */\n      0x00\n        /* \"contracts/SolarInsurance.sol\":13277:13287  msg.sender */\n      caller\n        /* \"contracts/SolarInsurance.sol\":13267:13288  _policies[msg.sender] */\n      0xffffffffffffffffffffffffffffffffffffffff\n      and\n      0xffffffffffffffffffffffffffffffffffffffff\n      and\n      dup2\n      mstore\n      0x20\n      add\n      swap1\n      dup2\n      mstore\n      0x20\n      add\n      0x00\n      keccak256\n        /* \"contracts/SolarInsurance.sol\":13267:13295  _policies[msg.sender].client */\n      0x00\n      add\n      0x00\n      swap1\n      sload\n      swap1\n      0x0100\n      exp\n      swap1\n      div\n      0xffffffffffffffffffffffffffffffffffffffff\n      and\n        /* \"contracts/SolarInsurance.sol\":13267:13309  _policies[msg.sender].client != address(0) */\n      0xffffffffffffffffffffffffffffffffffffffff\n      and\n      eq\n      iszero\n        /* \"contracts/SolarInsurance.sol\":13243:13309  bool policyRegistered = _policies[msg.sender].client != address(0) */\n      swap1\n      pop\n        /* \"contracts/SolarInsurance.sol\":13319:13336  bool policyActive */\n      0x00\n        /* \"contracts/SolarInsurance.sol\":13374:13389  block.timestamp */\n      timestamp\n        /* \"contracts/SolarInsurance.sol\":13339:13348  _policies */\n      0x06\n        /* \"contracts/SolarInsurance.sol\":13339:13360  _policies[msg.sender] */\n      0x00\n        /* \"contracts/SolarInsurance.sol\":13349:13359  msg.sender */\n      caller\n        /* \"contracts/SolarInsurance.sol\":13339:13360  _policies[msg.sender] */\n      0xffffffffffffffffffffffffffffffffffffffff\n      and\n      0xffffffffffffffffffffffffffffffffffffffff\n      and\n      dup2\n      mstore\n      0x20\n      add\n      swap1\n      dup2\n      mstore\n      0x20\n      add\n      0x00\n      keccak256\n        /* \"contracts/SolarInsurance.sol\":13339:13371  _policies[msg.sender].validUntil */\n      0x04\n      add\n      sload\n        /* \"contracts/SolarInsurance.sol\":13339:13389  _policies[msg.sender].validUntil > block.timestamp */\n      gt\n        /* \"contracts/SolarInsurance.sol\":13319:13389  bool policyActive = _policies[msg.sender].validUntil > block.timestamp */\n      swap1\n      pop\n        /* \"contracts/SolarInsurance.sol\":13421:13437  policyRegistered */\n      dup2\n        /* \"contracts/SolarInsurance.sol\":13421:13453  policyRegistered && policyActive */\n      dup1\n      iszero\n      tag_75\n      jumpi\n      pop\n        /* \"contracts/SolarInsurance.sol\":13441:13453  policyActive */\n      dup1\n        /* \"contracts/SolarInsurance.sol\":13421:13453  policyRegistered && policyActive */\n    tag_75:\n        /* \"contracts/SolarInsurance.sol\":13400:13505  require(... */\n      tag_76\n      jumpi\n      mload(0x40)\n      0x08c379a000000000000000000000000000000000000000000000000000000000\n      dup2\n      mstore\n      0x04\n      add\n      tag_77\n      swap1\n      tag_55\n      jump\t// in\n    tag_77:\n      mload(0x40)\n      dup1\n      swap2\n      sub\n      swap1\n      revert\n    tag_76:\n        /* \"contracts/SolarInsurance.sol\":5055:5064  _policies */\n      0x06\n        /* \"contracts/SolarInsurance.sol\":5055:5076  _policies[msg.sender] */\n      0x00\n        /* \"contracts/SolarInsurance.sol\":5065:5075  msg.sender */\n      caller\n        /* \"contracts/SolarInsurance.sol\":5055:5076  _policies[msg.sender] */\n      0xffffffffffffffffffffffffffffffffffffffff\n      and\n      0xffffffffffffffffffffffffffffffffffffffff\n      and\n      dup2\n      mstore\n      0x20\n      add\n      swap1\n      dup2\n      mstore\n      0x20\n      add\n      0x00\n      keccak256\n        /* \"contracts/SolarInsurance.sol\":5055:5086  _policies[msg.sender].riskLevel */\n      0x00\n      add\n      0x15\n      swap1\n      sload\n      swap1\n      0x0100\n      exp\n      swap1\n      div\n      0xff\n      and\n        /* \"contracts/SolarInsurance.sol\":5100:5109  _policies */\n      0x06\n        /* \"contracts/SolarInsurance.sol\":5100:5121  _policies[msg.sender] */\n      0x00\n        /* \"contracts/SolarInsurance.sol\":5110:5120  msg.sender */\n      caller\n        /* \"contracts/SolarInsurance.sol\":5100:5121  _policies[msg.sender] */\n      0xffffffffffffffffffffffffffffffffffffffff\n      and\n      0xffffffffffffffffffffffffffffffffffffffff\n      and\n      dup2\n      mstore\n      0x20\n      add\n      swap1\n      dup2\n      mstore\n      0x20\n      add\n      0x00\n      keccak256\n        /* \"contracts/SolarInsurance.sol\":5100:5131  _policies[msg.sender].panelArea */\n      0x01\n      add\n      sload\n        /* \"contracts/SolarInsurance.sol\":12140:12152  uint256 prem */\n      0x00\n        /* \"contracts/SolarInsurance.sol\":12193:12202  panelArea */\n      dup2\n        /* \"contracts/SolarInsurance.sol\":12155:12171  _insuranceLevels */\n      0x04\n        /* \"contracts/SolarInsurance.sol\":12155:12182  _insuranceLevels[riskLevel] */\n      0x00\n        /* \"contracts/SolarInsurance.sol\":12172:12181  riskLevel */\n      dup6\n        /* \"contracts/SolarInsurance.sol\":12155:12182  _insuranceLevels[riskLevel] */\n      0x02\n      dup2\n      gt\n      iszero\n      tag_79\n      jumpi\n      tag_80\n      tag_81\n      jump\t// in\n    tag_80:\n    tag_79:\n      0x02\n      dup2\n      gt\n      iszero\n      tag_82\n      jumpi\n      tag_83\n      tag_81\n      jump\t// in\n    tag_83:\n    tag_82:\n      dup2\n      mstore\n      0x20\n      add\n      swap1\n      dup2\n      mstore\n      0x20\n      add\n      0x00\n      keccak256\n        /* \"contracts/SolarInsurance.sol\":12155:12190  _insuranceLevels[riskLevel].premium */\n      0x00\n      add\n      sload\n        /* \"contracts/SolarInsurance.sol\":12155:12202  _insuranceLevels[riskLevel].premium * panelArea */\n      tag_84\n      swap2\n      swap1\n      tag_85\n      jump\t// in\n    tag_84:\n        /* \"contracts/SolarInsurance.sol\":12140:12202  uint256 prem = _insuranceLevels[riskLevel].premium * panelArea */\n      swap1\n      pop\n        /* \"contracts/SolarInsurance.sol\":12221:12240  bool premiumCovered */\n      0x00\n        /* \"contracts/SolarInsurance.sol\":12256:12260  prem */\n      dup2\n        /* \"contracts/SolarInsurance.sol\":12243:12252  msg.value */\n      callvalue\n        /* \"contracts/SolarInsurance.sol\":12243:12260  msg.value == prem */\n      eq\n        /* \"contracts/SolarInsurance.sol\":12221:12260  bool premiumCovered = msg.value == prem */\n      swap1\n      pop\n        /* \"contracts/SolarInsurance.sol\":12291:12305  premiumCovered */\n      dup1\n        /* \"contracts/SolarInsurance.sol\":12270:12389  require(... */\n      tag_86\n      jumpi\n      mload(0x40)\n      0x08c379a000000000000000000000000000000000000000000000000000000000\n      dup2\n      mstore\n      0x04\n      add\n      tag_87\n      swap1\n      tag_88\n      jump\t// in\n    tag_87:\n      mload(0x40)\n      dup1\n      swap2\n      sub\n      swap1\n      revert\n    tag_86:\n        /* \"contracts/SolarInsurance.sol\":5156:5202  _policies[msg.sender].validUntil.add(365 days) */\n      tag_90\n        /* \"contracts/SolarInsurance.sol\":5193:5201  365 days */\n      0x01e13380\n        /* \"contracts/SolarInsurance.sol\":5156:5165  _policies */\n      0x06\n        /* \"contracts/SolarInsurance.sol\":5156:5177  _policies[msg.sender] */\n      0x00\n        /* \"contracts/SolarInsurance.sol\":5166:5176  msg.sender */\n      caller\n        /* \"contracts/SolarInsurance.sol\":5156:5177  _policies[msg.sender] */\n      0xffffffffffffffffffffffffffffffffffffffff\n      and\n      0xffffffffffffffffffffffffffffffffffffffff\n      and\n      dup2\n      mstore\n      0x20\n      add\n      swap1\n      dup2\n      mstore\n      0x20\n      add\n      0x00\n      keccak256\n        /* \"contracts/SolarInsurance.sol\":5156:5188  _policies[msg.sender].validUntil */\n      0x04\n      add\n      sload\n        /* \"contracts/SolarInsurance.sol\":5156:5192  _policies[msg.sender].validUntil.add */\n      tag_70\n      swap1\n        /* \"contracts/SolarInsurance.sol\":5156:5202  _policies[msg.sender].validUntil.add(365 days) */\n      swap2\n      swap1\n      0xffffffff\n      and\n      jump\t// in\n    tag_90:\n      pop\n        /* \"contracts/SolarInsurance.sol\":12042:12407  {... */\n      pop\n      pop\n        /* \"contracts/SolarInsurance.sol\":13515:13516  _ */\n      pop\n      pop\n        /* \"contracts/SolarInsurance.sol\":13233:13523  {... */\n      pop\n      pop\n        /* \"contracts/SolarInsurance.sol\":4950:5209  function extendPolicy() public payable... */\n      jump\t// out\n        /* \"contracts/SolarInsurance.sol\":7158:7349  function calculatePremium(ClientRiskLevels riskLevel, uint256 panelArea) public view returns (uint256){... */\n    tag_23:\n        /* \"contracts/SolarInsurance.sol\":7252:7259  uint256 */\n      0x00\n        /* \"contracts/SolarInsurance.sol\":7289:7305  _insuranceLevels */\n      0x04\n        /* \"contracts/SolarInsurance.sol\":7289:7316  _insuranceLevels[riskLevel] */\n      0x00\n        /* \"contracts/SolarInsurance.sol\":7306:7315  riskLevel */\n      dup5\n        /* \"contracts/SolarInsurance.sol\":7289:7316  _insuranceLevels[riskLevel] */\n      0x02\n      dup2\n      gt\n      iszero\n      tag_92\n      jumpi\n      tag_93\n      tag_81\n      jump\t// in\n    tag_93:\n    tag_92:\n      0x02\n      dup2\n      gt\n      iszero\n      tag_94\n      jumpi\n      tag_95\n      tag_81\n      jump\t// in\n    tag_95:\n    tag_94:\n      dup2\n      mstore\n      0x20\n      add\n      swap1\n      dup2\n      mstore\n      0x20\n      add\n      0x00\n      keccak256\n        /* \"contracts/SolarInsurance.sol\":7289:7324  _insuranceLevels[riskLevel].premium */\n      0x00\n      add\n      sload\n        /* \"contracts/SolarInsurance.sol\":7277:7286  panelArea */\n      dup3\n        /* \"contracts/SolarInsurance.sol\":7277:7324  panelArea * _insuranceLevels[riskLevel].premium */\n      tag_96\n      swap2\n      swap1\n      tag_85\n      jump\t// in\n    tag_96:\n        /* \"contracts/SolarInsurance.sol\":7270:7324  return panelArea * _insuranceLevels[riskLevel].premium */\n      swap1\n      pop\n        /* \"contracts/SolarInsurance.sol\":7158:7349  function calculatePremium(ClientRiskLevels riskLevel, uint256 panelArea) public view returns (uint256){... */\n      swap3\n      swap2\n      pop\n      pop\n      jump\t// out\n        /* \"contracts/SolarInsurance.sol\":6713:6870  function getPolicyInformation() public view... */\n    tag_28:\n        /* \"contracts/SolarInsurance.sol\":6797:6824  SolarInsurancePolicy memory */\n      tag_97\n      tag_98\n      jump\t// in\n    tag_97:\n        /* \"contracts/SolarInsurance.sol\":13243:13264  bool policyRegistered */\n      0x00\n        /* \"contracts/SolarInsurance.sol\":13307:13308  0 */\n      dup1\n        /* \"contracts/SolarInsurance.sol\":13267:13309  _policies[msg.sender].client != address(0) */\n      0xffffffffffffffffffffffffffffffffffffffff\n      and\n        /* \"contracts/SolarInsurance.sol\":13267:13276  _policies */\n      0x06\n        /* \"contracts/SolarInsurance.sol\":13267:13288  _policies[msg.sender] */\n      0x00\n        /* \"contracts/SolarInsurance.sol\":13277:13287  msg.sender */\n      caller\n        /* \"contracts/SolarInsurance.sol\":13267:13288  _policies[msg.sender] */\n      0xffffffffffffffffffffffffffffffffffffffff\n      and\n      0xffffffffffffffffffffffffffffffffffffffff\n      and\n      dup2\n      mstore\n      0x20\n      add\n      swap1\n      dup2\n      mstore\n      0x20\n      add\n      0x00\n      keccak256\n        /* \"contracts/SolarInsurance.sol\":13267:13295  _policies[msg.sender].client */\n      0x00\n      add\n      0x00\n      swap1\n      sload\n      swap1\n      0x0100\n      exp\n      swap1\n      div\n      0xffffffffffffffffffffffffffffffffffffffff\n      and\n        /* \"contracts/SolarInsurance.sol\":13267:13309  _policies[msg.sender].client != address(0) */\n      0xffffffffffffffffffffffffffffffffffffffff\n      and\n      eq\n      iszero\n        /* \"contracts/SolarInsurance.sol\":13243:13309  bool policyRegistered = _policies[msg.sender].client != address(0) */\n      swap1\n      pop\n        /* \"contracts/SolarInsurance.sol\":13319:13336  bool policyActive */\n      0x00\n        /* \"contracts/SolarInsurance.sol\":13374:13389  block.timestamp */\n      timestamp\n        /* \"contracts/SolarInsurance.sol\":13339:13348  _policies */\n      0x06\n        /* \"contracts/SolarInsurance.sol\":13339:13360  _policies[msg.sender] */\n      0x00\n        /* \"contracts/SolarInsurance.sol\":13349:13359  msg.sender */\n      caller\n        /* \"contracts/SolarInsurance.sol\":13339:13360  _policies[msg.sender] */\n      0xffffffffffffffffffffffffffffffffffffffff\n      and\n      0xffffffffffffffffffffffffffffffffffffffff\n      and\n      dup2\n      mstore\n      0x20\n      add\n      swap1\n      dup2\n      mstore\n      0x20\n      add\n      0x00\n      keccak256\n        /* \"contracts/SolarInsurance.sol\":13339:13371  _policies[msg.sender].validUntil */\n      0x04\n      add\n      sload\n        /* \"contracts/SolarInsurance.sol\":13339:13389  _policies[msg.sender].validUntil > block.timestamp */\n      gt\n        /* \"contracts/SolarInsurance.sol\":13319:13389  bool policyActive = _policies[msg.sender].validUntil > block.timestamp */\n      swap1\n      pop\n        /* \"contracts/SolarInsurance.sol\":13421:13437  policyRegistered */\n      dup2\n        /* \"contracts/SolarInsurance.sol\":13421:13453  policyRegistered && policyActive */\n      dup1\n      iszero\n      tag_100\n      jumpi\n      pop\n        /* \"contracts/SolarInsurance.sol\":13441:13453  policyActive */\n      dup1\n        /* \"contracts/SolarInsurance.sol\":13421:13453  policyRegistered && policyActive */\n    tag_100:\n        /* \"contracts/SolarInsurance.sol\":13400:13505  require(... */\n      tag_101\n      jumpi\n      mload(0x40)\n      0x08c379a000000000000000000000000000000000000000000000000000000000\n      dup2\n      mstore\n      0x04\n      add\n      tag_102\n      swap1\n      tag_55\n      jump\t// in\n    tag_102:\n      mload(0x40)\n      dup1\n      swap2\n      sub\n      swap1\n      revert\n    tag_101:\n        /* \"contracts/SolarInsurance.sol\":6842:6851  _policies */\n      0x06\n        /* \"contracts/SolarInsurance.sol\":6842:6863  _policies[msg.sender] */\n      0x00\n        /* \"contracts/SolarInsurance.sol\":6852:6862  msg.sender */\n      caller\n        /* \"contracts/SolarInsurance.sol\":6842:6863  _policies[msg.sender] */\n      0xffffffffffffffffffffffffffffffffffffffff\n      and\n      0xffffffffffffffffffffffffffffffffffffffff\n      and\n      dup2\n      mstore\n      0x20\n      add\n      swap1\n      dup2\n      mstore\n      0x20\n      add\n      0x00\n      keccak256\n        /* \"contracts/SolarInsurance.sol\":6835:6863  return _policies[msg.sender] */\n      mload(0x40)\n      dup1\n      0x0100\n      add\n      0x40\n      mstore\n      swap1\n      dup2\n      0x00\n      dup3\n      add\n      0x00\n      swap1\n      sload\n      swap1\n      0x0100\n      exp\n      swap1\n      div\n      0xffffffffffffffffffffffffffffffffffffffff\n      and\n      0xffffffffffffffffffffffffffffffffffffffff\n      and\n      0xffffffffffffffffffffffffffffffffffffffff\n      and\n      dup2\n      mstore\n      0x20\n      add\n      0x00\n      dup3\n      add\n      0x14\n      swap1\n      sload\n      swap1\n      0x0100\n      exp\n      swap1\n      div\n      0xff\n      and\n      0x01\n      dup2\n      gt\n      iszero\n      tag_104\n      jumpi\n      tag_105\n      tag_81\n      jump\t// in\n    tag_105:\n    tag_104:\n      0x01\n      dup2\n      gt\n      iszero\n      tag_106\n      jumpi\n      tag_107\n      tag_81\n      jump\t// in\n    tag_107:\n    tag_106:\n      dup2\n      mstore\n      0x20\n      add\n      0x00\n      dup3\n      add\n      0x15\n      swap1\n      sload\n      swap1\n      0x0100\n      exp\n      swap1\n      div\n      0xff\n      and\n      0x02\n      dup2\n      gt\n      iszero\n      tag_108\n      jumpi\n      tag_109\n      tag_81\n      jump\t// in\n    tag_109:\n    tag_108:\n      0x02\n      dup2\n      gt\n      iszero\n      tag_110\n      jumpi\n      tag_111\n      tag_81\n      jump\t// in\n    tag_111:\n    tag_110:\n      dup2\n      mstore\n      0x20\n      add\n      0x01\n      dup3\n      add\n      sload\n      dup2\n      mstore\n      0x20\n      add\n      0x02\n      dup3\n      add\n      sload\n      dup2\n      mstore\n      0x20\n      add\n      0x03\n      dup3\n      add\n      sload\n      dup2\n      mstore\n      0x20\n      add\n      0x04\n      dup3\n      add\n      sload\n      dup2\n      mstore\n      0x20\n      add\n      0x05\n      dup3\n      add\n      sload\n      dup2\n      mstore\n      pop\n      pop\n      swap3\n      pop\n        /* \"contracts/SolarInsurance.sol\":13233:13523  {... */\n      pop\n      pop\n        /* \"contracts/SolarInsurance.sol\":6713:6870  function getPolicyInformation() public view... */\n      swap1\n      jump\t// out\n        /* \"contracts/SolarInsurance.sol\":6417:6494  function owner() public view returns (address) {... */\n    tag_33:\n        /* \"contracts/SolarInsurance.sol\":6455:6462  address */\n      0x00\n        /* \"contracts/SolarInsurance.sol\":6481:6487  _owner */\n      dup1\n      0x00\n      swap1\n      sload\n      swap1\n      0x0100\n      exp\n      swap1\n      div\n      0xffffffffffffffffffffffffffffffffffffffff\n      and\n        /* \"contracts/SolarInsurance.sol\":6474:6487  return _owner */\n      swap1\n      pop\n        /* \"contracts/SolarInsurance.sol\":6417:6494  function owner() public view returns (address) {... */\n      swap1\n      jump\t// out\n        /* \"contracts/SolarInsurance.sol\":3663:4557  function registerPolicy(ClientRiskLevels riskLevel, uint256 panelArea, SwissRegion location) public payable... */\n    tag_39:\n        /* \"contracts/SolarInsurance.sol\":12657:12680  bool noPolicyRegistered */\n      0x00\n        /* \"contracts/SolarInsurance.sol\":12723:12724  0 */\n      dup1\n        /* \"contracts/SolarInsurance.sol\":12683:12725  _policies[msg.sender].client == address(0) */\n      0xffffffffffffffffffffffffffffffffffffffff\n      and\n        /* \"contracts/SolarInsurance.sol\":12683:12692  _policies */\n      0x06\n        /* \"contracts/SolarInsurance.sol\":12683:12704  _policies[msg.sender] */\n      0x00\n        /* \"contracts/SolarInsurance.sol\":12693:12703  msg.sender */\n      caller\n        /* \"contracts/SolarInsurance.sol\":12683:12704  _policies[msg.sender] */\n      0xffffffffffffffffffffffffffffffffffffffff\n      and\n      0xffffffffffffffffffffffffffffffffffffffff\n      and\n      dup2\n      mstore\n      0x20\n      add\n      swap1\n      dup2\n      mstore\n      0x20\n      add\n      0x00\n      keccak256\n        /* \"contracts/SolarInsurance.sol\":12683:12711  _policies[msg.sender].client */\n      0x00\n      add\n      0x00\n      swap1\n      sload\n      swap1\n      0x0100\n      exp\n      swap1\n      div\n      0xffffffffffffffffffffffffffffffffffffffff\n      and\n        /* \"contracts/SolarInsurance.sol\":12683:12725  _policies[msg.sender].client == address(0) */\n      0xffffffffffffffffffffffffffffffffffffffff\n      and\n      eq\n        /* \"contracts/SolarInsurance.sol\":12657:12725  bool noPolicyRegistered = _policies[msg.sender].client == address(0) */\n      swap1\n      pop\n        /* \"contracts/SolarInsurance.sol\":12735:12755  bool policyNotActive */\n      0x00\n        /* \"contracts/SolarInsurance.sol\":12793:12808  block.timestamp */\n      timestamp\n        /* \"contracts/SolarInsurance.sol\":12758:12767  _policies */\n      0x06\n        /* \"contracts/SolarInsurance.sol\":12758:12779  _policies[msg.sender] */\n      0x00\n        /* \"contracts/SolarInsurance.sol\":12768:12778  msg.sender */\n      caller\n        /* \"contracts/SolarInsurance.sol\":12758:12779  _policies[msg.sender] */\n      0xffffffffffffffffffffffffffffffffffffffff\n      and\n      0xffffffffffffffffffffffffffffffffffffffff\n      and\n      dup2\n      mstore\n      0x20\n      add\n      swap1\n      dup2\n      mstore\n      0x20\n      add\n      0x00\n      keccak256\n        /* \"contracts/SolarInsurance.sol\":12758:12790  _policies[msg.sender].validUntil */\n      0x04\n      add\n      sload\n        /* \"contracts/SolarInsurance.sol\":12758:12808  _policies[msg.sender].validUntil < block.timestamp */\n      lt\n        /* \"contracts/SolarInsurance.sol\":12735:12808  bool policyNotActive = _policies[msg.sender].validUntil < block.timestamp */\n      swap1\n      pop\n        /* \"contracts/SolarInsurance.sol\":12840:12858  noPolicyRegistered */\n      dup2\n        /* \"contracts/SolarInsurance.sol\":12840:12878  noPolicyRegistered ||  policyNotActive */\n      dup1\n      tag_114\n      jumpi\n      pop\n        /* \"contracts/SolarInsurance.sol\":12863:12878  policyNotActive */\n      dup1\n        /* \"contracts/SolarInsurance.sol\":12840:12878  noPolicyRegistered ||  policyNotActive */\n    tag_114:\n        /* \"contracts/SolarInsurance.sol\":12819:12934  require(... */\n      tag_115\n      jumpi\n      mload(0x40)\n      0x08c379a000000000000000000000000000000000000000000000000000000000\n      dup2\n      mstore\n      0x04\n      add\n      tag_116\n      swap1\n      tag_117\n      jump\t// in\n    tag_116:\n      mload(0x40)\n      dup1\n      swap2\n      sub\n      swap1\n      revert\n    tag_115:\n        /* \"contracts/SolarInsurance.sol\":3827:3836  riskLevel */\n      dup5\n        /* \"contracts/SolarInsurance.sol\":3838:3847  panelArea */\n      dup5\n        /* \"contracts/SolarInsurance.sol\":12140:12152  uint256 prem */\n      0x00\n        /* \"contracts/SolarInsurance.sol\":12193:12202  panelArea */\n      dup2\n        /* \"contracts/SolarInsurance.sol\":12155:12171  _insuranceLevels */\n      0x04\n        /* \"contracts/SolarInsurance.sol\":12155:12182  _insuranceLevels[riskLevel] */\n      0x00\n        /* \"contracts/SolarInsurance.sol\":12172:12181  riskLevel */\n      dup6\n        /* \"contracts/SolarInsurance.sol\":12155:12182  _insuranceLevels[riskLevel] */\n      0x02\n      dup2\n      gt\n      iszero\n      tag_119\n      jumpi\n      tag_120\n      tag_81\n      jump\t// in\n    tag_120:\n    tag_119:\n      0x02\n      dup2\n      gt\n      iszero\n      tag_121\n      jumpi\n      tag_122\n      tag_81\n      jump\t// in\n    tag_122:\n    tag_121:\n      dup2\n      mstore\n      0x20\n      add\n      swap1\n      dup2\n      mstore\n      0x20\n      add\n      0x00\n      keccak256\n        /* \"contracts/SolarInsurance.sol\":12155:12190  _insuranceLevels[riskLevel].premium */\n      0x00\n      add\n      sload\n        /* \"contracts/SolarInsurance.sol\":12155:12202  _insuranceLevels[riskLevel].premium * panelArea */\n      tag_123\n      swap2\n      swap1\n      tag_85\n      jump\t// in\n    tag_123:\n        /* \"contracts/SolarInsurance.sol\":12140:12202  uint256 prem = _insuranceLevels[riskLevel].premium * panelArea */\n      swap1\n      pop\n        /* \"contracts/SolarInsurance.sol\":12221:12240  bool premiumCovered */\n      0x00\n        /* \"contracts/SolarInsurance.sol\":12256:12260  prem */\n      dup2\n        /* \"contracts/SolarInsurance.sol\":12243:12252  msg.value */\n      callvalue\n        /* \"contracts/SolarInsurance.sol\":12243:12260  msg.value == prem */\n      eq\n        /* \"contracts/SolarInsurance.sol\":12221:12260  bool premiumCovered = msg.value == prem */\n      swap1\n      pop\n        /* \"contracts/SolarInsurance.sol\":12291:12305  premiumCovered */\n      dup1\n        /* \"contracts/SolarInsurance.sol\":12270:12389  require(... */\n      tag_124\n      jumpi\n      mload(0x40)\n      0x08c379a000000000000000000000000000000000000000000000000000000000\n      dup2\n      mstore\n      0x04\n      add\n      tag_125\n      swap1\n      tag_88\n      jump\t// in\n    tag_125:\n      mload(0x40)\n      dup1\n      swap2\n      sub\n      swap1\n      revert\n    tag_124:\n        /* \"contracts/SolarInsurance.sol\":3887:4318  SolarInsurancePolicy(... */\n      mload(0x40)\n      dup1\n      0x0100\n      add\n      0x40\n      mstore\n      dup1\n        /* \"contracts/SolarInsurance.sol\":3921:3931  msg.sender */\n      caller\n        /* \"contracts/SolarInsurance.sol\":3887:4318  SolarInsurancePolicy(... */\n      0xffffffffffffffffffffffffffffffffffffffff\n      and\n      dup2\n      mstore\n      0x20\n      add\n        /* \"contracts/SolarInsurance.sol\":3955:3963  location */\n      dup9\n        /* \"contracts/SolarInsurance.sol\":3887:4318  SolarInsurancePolicy(... */\n      0x01\n      dup2\n      gt\n      iszero\n      tag_127\n      jumpi\n      tag_128\n      tag_81\n      jump\t// in\n    tag_128:\n    tag_127:\n      dup2\n      mstore\n      0x20\n      add\n        /* \"contracts/SolarInsurance.sol\":3977:3986  riskLevel */\n      dup11\n        /* \"contracts/SolarInsurance.sol\":3887:4318  SolarInsurancePolicy(... */\n      0x02\n      dup2\n      gt\n      iszero\n      tag_129\n      jumpi\n      tag_130\n      tag_81\n      jump\t// in\n    tag_130:\n    tag_129:\n      dup2\n      mstore\n      0x20\n      add\n        /* \"contracts/SolarInsurance.sol\":4000:4009  panelArea */\n      dup10\n        /* \"contracts/SolarInsurance.sol\":3887:4318  SolarInsurancePolicy(... */\n      dup2\n      mstore\n      0x20\n      add\n        /* \"contracts/SolarInsurance.sol\":4035:4051  _insuranceLevels */\n      0x04\n        /* \"contracts/SolarInsurance.sol\":4035:4062  _insuranceLevels[riskLevel] */\n      0x00\n        /* \"contracts/SolarInsurance.sol\":4052:4061  riskLevel */\n      dup13\n        /* \"contracts/SolarInsurance.sol\":4035:4062  _insuranceLevels[riskLevel] */\n      0x02\n      dup2\n      gt\n      iszero\n      tag_131\n      jumpi\n      tag_132\n      tag_81\n      jump\t// in\n    tag_132:\n    tag_131:\n      0x02\n      dup2\n      gt\n      iszero\n      tag_133\n      jumpi\n      tag_134\n      tag_81\n      jump\t// in\n    tag_134:\n    tag_133:\n      dup2\n      mstore\n      0x20\n      add\n      swap1\n      dup2\n      mstore\n      0x20\n      add\n      0x00\n      keccak256\n        /* \"contracts/SolarInsurance.sol\":4035:4070  _insuranceLevels[riskLevel].premium */\n      0x00\n      add\n      sload\n        /* \"contracts/SolarInsurance.sol\":4023:4032  panelArea */\n      dup11\n        /* \"contracts/SolarInsurance.sol\":4023:4070  panelArea * _insuranceLevels[riskLevel].premium */\n      tag_135\n      swap2\n      swap1\n      tag_85\n      jump\t// in\n    tag_135:\n        /* \"contracts/SolarInsurance.sol\":3887:4318  SolarInsurancePolicy(... */\n      dup2\n      mstore\n      0x20\n      add\n        /* \"contracts/SolarInsurance.sol\":4102:4117  block.timestamp */\n      timestamp\n        /* \"contracts/SolarInsurance.sol\":3887:4318  SolarInsurancePolicy(... */\n      dup2\n      mstore\n      0x20\n      add\n        /* \"contracts/SolarInsurance.sol\":4155:4188  block.timestamp.add(1 * 365 days) */\n      tag_136\n        /* \"contracts/SolarInsurance.sol\":4175:4187  1 * 365 days */\n      0x01e13380\n        /* \"contracts/SolarInsurance.sol\":4155:4170  block.timestamp */\n      timestamp\n        /* \"contracts/SolarInsurance.sol\":4155:4174  block.timestamp.add */\n      tag_70\n      swap1\n        /* \"contracts/SolarInsurance.sol\":4155:4188  block.timestamp.add(1 * 365 days) */\n      swap2\n      swap1\n      0xffffffff\n      and\n      jump\t// in\n    tag_136:\n        /* \"contracts/SolarInsurance.sol\":3887:4318  SolarInsurancePolicy(... */\n      dup2\n      mstore\n      0x20\n      add\n        /* \"contracts/SolarInsurance.sol\":4217:4250  block.timestamp.add(1 * 365 days) */\n      tag_137\n        /* \"contracts/SolarInsurance.sol\":4237:4249  1 * 365 days */\n      0x01e13380\n        /* \"contracts/SolarInsurance.sol\":4217:4232  block.timestamp */\n      timestamp\n        /* \"contracts/SolarInsurance.sol\":4217:4236  block.timestamp.add */\n      tag_70\n      swap1\n        /* \"contracts/SolarInsurance.sol\":4217:4250  block.timestamp.add(1 * 365 days) */\n      swap2\n      swap1\n      0xffffffff\n      and\n      jump\t// in\n    tag_137:\n        /* \"contracts/SolarInsurance.sol\":3887:4318  SolarInsurancePolicy(... */\n      dup2\n      mstore\n      pop\n        /* \"contracts/SolarInsurance.sol\":3863:3872  _policies */\n      0x06\n        /* \"contracts/SolarInsurance.sol\":3863:3884  _policies[msg.sender] */\n      0x00\n        /* \"contracts/SolarInsurance.sol\":3873:3883  msg.sender */\n      caller\n        /* \"contracts/SolarInsurance.sol\":3863:3884  _policies[msg.sender] */\n      0xffffffffffffffffffffffffffffffffffffffff\n      and\n      0xffffffffffffffffffffffffffffffffffffffff\n      and\n      dup2\n      mstore\n      0x20\n      add\n      swap1\n      dup2\n      mstore\n      0x20\n      add\n      0x00\n      keccak256\n        /* \"contracts/SolarInsurance.sol\":3863:4318  _policies[msg.sender] = SolarInsurancePolicy(... */\n      0x00\n      dup3\n      add\n      mload\n      dup2\n      0x00\n      add\n      exp(0x0100, 0x00)\n      dup2\n      sload\n      dup2\n      0xffffffffffffffffffffffffffffffffffffffff\n      mul\n      not\n      and\n      swap1\n      dup4\n      0xffffffffffffffffffffffffffffffffffffffff\n      and\n      mul\n      or\n      swap1\n      sstore\n      pop\n      0x20\n      dup3\n      add\n      mload\n      dup2\n      0x00\n      add\n      exp(0x0100, 0x14)\n      dup2\n      sload\n      dup2\n      0xff\n      mul\n      not\n      and\n      swap1\n      dup4\n      0x01\n      dup2\n      gt\n      iszero\n      tag_138\n      jumpi\n      tag_139\n      tag_81\n      jump\t// in\n    tag_139:\n    tag_138:\n      mul\n      or\n      swap1\n      sstore\n      pop\n      0x40\n      dup3\n      add\n      mload\n      dup2\n      0x00\n      add\n      exp(0x0100, 0x15)\n      dup2\n      sload\n      dup2\n      0xff\n      mul\n      not\n      and\n      swap1\n      dup4\n      0x02\n      dup2\n      gt\n      iszero\n      tag_140\n      jumpi\n      tag_141\n      tag_81\n      jump\t// in\n    tag_141:\n    tag_140:\n      mul\n      or\n      swap1\n      sstore\n      pop\n      0x60\n      dup3\n      add\n      mload\n      dup2\n      0x01\n      add\n      sstore\n      0x80\n      dup3\n      add\n      mload\n      dup2\n      0x02\n      add\n      sstore\n      0xa0\n      dup3\n      add\n      mload\n      dup2\n      0x03\n      add\n      sstore\n      0xc0\n      dup3\n      add\n      mload\n      dup2\n      0x04\n      add\n      sstore\n      0xe0\n      dup3\n      add\n      mload\n      dup2\n      0x05\n      add\n      sstore\n      swap1\n      pop\n      pop\n        /* \"contracts/SolarInsurance.sol\":4329:4350  uint256 yearInSeconds */\n      0x00\n        /* \"contracts/SolarInsurance.sol\":4353:4371  60 * 60 * 24 * 365 */\n      0x01e13380\n        /* \"contracts/SolarInsurance.sol\":4329:4371  uint256 yearInSeconds = 60 * 60 * 24 * 365 */\n      swap1\n      pop\n        /* \"contracts/SolarInsurance.sol\":4381:4403  uint256 epochStartYear */\n      0x00\n        /* \"contracts/SolarInsurance.sol\":4406:4410  1970 */\n      0x07b2\n        /* \"contracts/SolarInsurance.sol\":4381:4410  uint256 epochStartYear = 1970 */\n      swap1\n      pop\n        /* \"contracts/SolarInsurance.sol\":4483:4497  epochStartYear */\n      dup1\n        /* \"contracts/SolarInsurance.sol\":4467:4480  yearInSeconds */\n      dup3\n        /* \"contracts/SolarInsurance.sol\":4449:4464  block.timestamp */\n      timestamp\n        /* \"contracts/SolarInsurance.sol\":4449:4480  block.timestamp / yearInSeconds */\n      tag_142\n      swap2\n      swap1\n      tag_143\n      jump\t// in\n    tag_142:\n        /* \"contracts/SolarInsurance.sol\":4449:4497  block.timestamp / yearInSeconds + epochStartYear */\n      tag_144\n      swap2\n      swap1\n      tag_73\n      jump\t// in\n    tag_144:\n        /* \"contracts/SolarInsurance.sol\":4420:4434  _allowedClaims */\n      0x07\n        /* \"contracts/SolarInsurance.sol\":4420:4446  _allowedClaims[msg.sender] */\n      0x00\n        /* \"contracts/SolarInsurance.sol\":4435:4445  msg.sender */\n      caller\n        /* \"contracts/SolarInsurance.sol\":4420:4446  _allowedClaims[msg.sender] */\n      0xffffffffffffffffffffffffffffffffffffffff\n      and\n      0xffffffffffffffffffffffffffffffffffffffff\n      and\n      dup2\n      mstore\n      0x20\n      add\n      swap1\n      dup2\n      mstore\n      0x20\n      add\n      0x00\n      keccak256\n        /* \"contracts/SolarInsurance.sol\":4420:4497  _allowedClaims[msg.sender] = block.timestamp / yearInSeconds + epochStartYear */\n      dup2\n      swap1\n      sstore\n      pop\n        /* \"contracts/SolarInsurance.sol\":4507:4516  _payments */\n      0x09\n        /* \"contracts/SolarInsurance.sol\":4507:4528  _payments[msg.sender] */\n      0x00\n        /* \"contracts/SolarInsurance.sol\":4517:4527  msg.sender */\n      caller\n        /* \"contracts/SolarInsurance.sol\":4507:4528  _payments[msg.sender] */\n      0xffffffffffffffffffffffffffffffffffffffff\n      and\n      0xffffffffffffffffffffffffffffffffffffffff\n      and\n      dup2\n      mstore\n      0x20\n      add\n      swap1\n      dup2\n      mstore\n      0x20\n      add\n      0x00\n      keccak256\n        /* \"contracts/SolarInsurance.sol\":4534:4549  block.timestamp */\n      timestamp\n        /* \"contracts/SolarInsurance.sol\":4507:4550  _payments[msg.sender].push(block.timestamp) */\n      swap1\n      dup1\n      0x01\n      dup2\n      sload\n      add\n      dup1\n      dup3\n      sstore\n      dup1\n      swap2\n      pop\n      pop\n      0x01\n      swap1\n      sub\n      swap1\n      0x00\n      mstore\n      keccak256(0x00, 0x20)\n      add\n      0x00\n      swap1\n      swap2\n      swap1\n      swap2\n      swap1\n      swap2\n      pop\n      sstore\n        /* \"contracts/SolarInsurance.sol\":3853:4557  {... */\n      pop\n      pop\n        /* \"contracts/SolarInsurance.sol\":12042:12407  {... */\n      pop\n      pop\n        /* \"contracts/SolarInsurance.sol\":12944:12945  _ */\n      pop\n      pop\n        /* \"contracts/SolarInsurance.sol\":12647:12952  {... */\n      pop\n      pop\n        /* \"contracts/SolarInsurance.sol\":3663:4557  function registerPolicy(ClientRiskLevels riskLevel, uint256 panelArea, SwissRegion location) public payable... */\n      pop\n      pop\n      pop\n      jump\t// out\n        /* \"contracts/SolarInsurance.sol\":9655:9970  function createSunshineRecord(uint256 year, uint256 duration, SwissRegion region) public {... */\n    tag_44:\n        /* \"contracts/SolarInsurance.sol\":9754:9774  bool isLocationSouth */\n      0x00\n        /* \"contracts/SolarInsurance.sol\":9787:9804  SwissRegion.SOUTH */\n      dup1\n        /* \"contracts/SolarInsurance.sol\":9777:9804  region == SwissRegion.SOUTH */\n      0x01\n      dup2\n      gt\n      iszero\n      tag_147\n      jumpi\n      tag_148\n      tag_81\n      jump\t// in\n    tag_148:\n    tag_147:\n        /* \"contracts/SolarInsurance.sol\":9777:9783  region */\n      dup3\n        /* \"contracts/SolarInsurance.sol\":9777:9804  region == SwissRegion.SOUTH */\n      0x01\n      dup2\n      gt\n      iszero\n      tag_149\n      jumpi\n      tag_150\n      tag_81\n      jump\t// in\n    tag_150:\n    tag_149:\n      eq\n        /* \"contracts/SolarInsurance.sol\":9754:9804  bool isLocationSouth = region == SwissRegion.SOUTH */\n      swap1\n      pop\n        /* \"contracts/SolarInsurance.sol\":9814:9831  string memory key */\n      0x00\n        /* \"contracts/SolarInsurance.sol\":9834:9849  isLocationSouth */\n      dup2\n        /* \"contracts/SolarInsurance.sol\":9834:9921  isLocationSouth ? Utils.getRecordId(year, \"_SOUTH\") : Utils.getRecordId(year, \"_NORTH\") */\n      tag_151\n      jumpi\n        /* \"contracts/SolarInsurance.sol\":9888:9921  Utils.getRecordId(year, \"_NORTH\") */\n      tag_152\n        /* \"contracts/SolarInsurance.sol\":9906:9910  year */\n      dup6\n        /* \"contracts/SolarInsurance.sol\":9888:9921  Utils.getRecordId(year, \"_NORTH\") */\n      mload(0x40)\n      dup1\n      0x40\n      add\n      0x40\n      mstore\n      dup1\n      0x06\n      dup2\n      mstore\n      0x20\n      add\n      0x5f4e4f5254480000000000000000000000000000000000000000000000000000\n      dup2\n      mstore\n      pop\n        /* \"contracts/SolarInsurance.sol\":9888:9905  Utils.getRecordId */\n      tag_153\n        /* \"contracts/SolarInsurance.sol\":9888:9921  Utils.getRecordId(year, \"_NORTH\") */\n      jump\t// in\n    tag_152:\n        /* \"contracts/SolarInsurance.sol\":9834:9921  isLocationSouth ? Utils.getRecordId(year, \"_SOUTH\") : Utils.getRecordId(year, \"_NORTH\") */\n      jump(tag_154)\n    tag_151:\n        /* \"contracts/SolarInsurance.sol\":9852:9885  Utils.getRecordId(year, \"_SOUTH\") */\n      tag_155\n        /* \"contracts/SolarInsurance.sol\":9870:9874  year */\n      dup6\n        /* \"contracts/SolarInsurance.sol\":9852:9885  Utils.getRecordId(year, \"_SOUTH\") */\n      mload(0x40)\n      dup1\n      0x40\n      add\n      0x40\n      mstore\n      dup1\n      0x06\n      dup2\n      mstore\n      0x20\n      add\n      0x5f534f5554480000000000000000000000000000000000000000000000000000\n      dup2\n      mstore\n      pop\n        /* \"contracts/SolarInsurance.sol\":9852:9869  Utils.getRecordId */\n      tag_153\n        /* \"contracts/SolarInsurance.sol\":9852:9885  Utils.getRecordId(year, \"_SOUTH\") */\n      jump\t// in\n    tag_155:\n        /* \"contracts/SolarInsurance.sol\":9834:9921  isLocationSouth ? Utils.getRecordId(year, \"_SOUTH\") : Utils.getRecordId(year, \"_NORTH\") */\n    tag_154:\n        /* \"contracts/SolarInsurance.sol\":9814:9921  string memory key = isLocationSouth ? Utils.getRecordId(year, \"_SOUTH\") : Utils.getRecordId(year, \"_NORTH\") */\n      swap1\n      pop\n        /* \"contracts/SolarInsurance.sol\":9955:9963  duration */\n      dup4\n        /* \"contracts/SolarInsurance.sol\":9931:9947  _sunshineRecords */\n      0x05\n        /* \"contracts/SolarInsurance.sol\":9948:9951  key */\n      dup3\n        /* \"contracts/SolarInsurance.sol\":9931:9952  _sunshineRecords[key] */\n      mload(0x40)\n      tag_156\n      swap2\n      swap1\n      tag_60\n      jump\t// in\n    tag_156:\n      swap1\n      dup2\n      mstore\n      0x20\n      add\n      mload(0x40)\n      dup1\n      swap2\n      sub\n      swap1\n      keccak256\n        /* \"contracts/SolarInsurance.sol\":9931:9963  _sunshineRecords[key] = duration */\n      dup2\n      swap1\n      sstore\n      pop\n        /* \"contracts/SolarInsurance.sol\":9744:9970  {... */\n      pop\n      pop\n        /* \"contracts/SolarInsurance.sol\":9655:9970  function createSunshineRecord(uint256 year, uint256 duration, SwissRegion region) public {... */\n      pop\n      pop\n      pop\n      jump\t// out\n        /* \"libraries/Fundable.sol\":874:941  function fundContract() public payable requireNonZeroValue {... */\n    tag_46:\n        /* \"libraries/Fundable.sol\":1209:1210  0 */\n      0x00\n        /* \"libraries/Fundable.sol\":1197:1206  msg.value */\n      callvalue\n        /* \"libraries/Fundable.sol\":1197:1210  msg.value > 0 */\n      gt\n        /* \"libraries/Fundable.sol\":1189:1246  require(msg.value > 0, \"Cannot load the contract with 0\") */\n      tag_158\n      jumpi\n      mload(0x40)\n      0x08c379a000000000000000000000000000000000000000000000000000000000\n      dup2\n      mstore\n      0x04\n      add\n      tag_159\n      swap1\n      tag_160\n      jump\t// in\n    tag_159:\n      mload(0x40)\n      dup1\n      swap2\n      sub\n      swap1\n      revert\n    tag_158:\n        /* \"libraries/Fundable.sol\":874:941  function fundContract() public payable requireNonZeroValue {... */\n      jump\t// out\n        /* \"contracts/SolarInsurance.sol\":5673:6307  function fileClaim(uint256 year) public... */\n    tag_50:\n        /* \"contracts/SolarInsurance.sol\":13243:13264  bool policyRegistered */\n      0x00\n        /* \"contracts/SolarInsurance.sol\":13307:13308  0 */\n      dup1\n        /* \"contracts/SolarInsurance.sol\":13267:13309  _policies[msg.sender].client != address(0) */\n      0xffffffffffffffffffffffffffffffffffffffff\n      and\n        /* \"contracts/SolarInsurance.sol\":13267:13276  _policies */\n      0x06\n        /* \"contracts/SolarInsurance.sol\":13267:13288  _policies[msg.sender] */\n      0x00\n        /* \"contracts/SolarInsurance.sol\":13277:13287  msg.sender */\n      caller\n        /* \"contracts/SolarInsurance.sol\":13267:13288  _policies[msg.sender] */\n      0xffffffffffffffffffffffffffffffffffffffff\n      and\n      0xffffffffffffffffffffffffffffffffffffffff\n      and\n      dup2\n      mstore\n      0x20\n      add\n      swap1\n      dup2\n      mstore\n      0x20\n      add\n      0x00\n      keccak256\n        /* \"contracts/SolarInsurance.sol\":13267:13295  _policies[msg.sender].client */\n      0x00\n      add\n      0x00\n      swap1\n      sload\n      swap1\n      0x0100\n      exp\n      swap1\n      div\n      0xffffffffffffffffffffffffffffffffffffffff\n      and\n        /* \"contracts/SolarInsurance.sol\":13267:13309  _policies[msg.sender].client != address(0) */\n      0xffffffffffffffffffffffffffffffffffffffff\n      and\n      eq\n      iszero\n        /* \"contracts/SolarInsurance.sol\":13243:13309  bool policyRegistered = _policies[msg.sender].client != address(0) */\n      swap1\n      pop\n        /* \"contracts/SolarInsurance.sol\":13319:13336  bool policyActive */\n      0x00\n        /* \"contracts/SolarInsurance.sol\":13374:13389  block.timestamp */\n      timestamp\n        /* \"contracts/SolarInsurance.sol\":13339:13348  _policies */\n      0x06\n        /* \"contracts/SolarInsurance.sol\":13339:13360  _policies[msg.sender] */\n      0x00\n        /* \"contracts/SolarInsurance.sol\":13349:13359  msg.sender */\n      caller\n        /* \"contracts/SolarInsurance.sol\":13339:13360  _policies[msg.sender] */\n      0xffffffffffffffffffffffffffffffffffffffff\n      and\n      0xffffffffffffffffffffffffffffffffffffffff\n      and\n      dup2\n      mstore\n      0x20\n      add\n      swap1\n      dup2\n      mstore\n      0x20\n      add\n      0x00\n      keccak256\n        /* \"contracts/SolarInsurance.sol\":13339:13371  _policies[msg.sender].validUntil */\n      0x04\n      add\n      sload\n        /* \"contracts/SolarInsurance.sol\":13339:13389  _policies[msg.sender].validUntil > block.timestamp */\n      gt\n        /* \"contracts/SolarInsurance.sol\":13319:13389  bool policyActive = _policies[msg.sender].validUntil > block.timestamp */\n      swap1\n      pop\n        /* \"contracts/SolarInsurance.sol\":13421:13437  policyRegistered */\n      dup2\n        /* \"contracts/SolarInsurance.sol\":13421:13453  policyRegistered && policyActive */\n      dup1\n      iszero\n      tag_163\n      jumpi\n      pop\n        /* \"contracts/SolarInsurance.sol\":13441:13453  policyActive */\n      dup1\n        /* \"contracts/SolarInsurance.sol\":13421:13453  policyRegistered && policyActive */\n    tag_163:\n        /* \"contracts/SolarInsurance.sol\":13400:13505  require(... */\n      tag_164\n      jumpi\n      mload(0x40)\n      0x08c379a000000000000000000000000000000000000000000000000000000000\n      dup2\n      mstore\n      0x04\n      add\n      tag_165\n      swap1\n      tag_55\n      jump\t// in\n    tag_165:\n      mload(0x40)\n      dup1\n      swap2\n      sub\n      swap1\n      revert\n    tag_164:\n        /* \"contracts/SolarInsurance.sol\":14315:14335  bool claimsOnTimeout */\n      0x00\n        /* \"contracts/SolarInsurance.sol\":14375:14390  block.timestamp */\n      timestamp\n        /* \"contracts/SolarInsurance.sol\":14338:14347  _policies */\n      0x06\n        /* \"contracts/SolarInsurance.sol\":14338:14359  _policies[msg.sender] */\n      0x00\n        /* \"contracts/SolarInsurance.sol\":14348:14358  msg.sender */\n      caller\n        /* \"contracts/SolarInsurance.sol\":14338:14359  _policies[msg.sender] */\n      0xffffffffffffffffffffffffffffffffffffffff\n      and\n      0xffffffffffffffffffffffffffffffffffffffff\n      and\n      dup2\n      mstore\n      0x20\n      add\n      swap1\n      dup2\n      mstore\n      0x20\n      add\n      0x00\n      keccak256\n        /* \"contracts/SolarInsurance.sol\":14338:14372  _policies[msg.sender].claimTimeout */\n      0x05\n      add\n      sload\n        /* \"contracts/SolarInsurance.sol\":14338:14390  _policies[msg.sender].claimTimeout < block.timestamp */\n      lt\n        /* \"contracts/SolarInsurance.sol\":14315:14390  bool claimsOnTimeout = _policies[msg.sender].claimTimeout < block.timestamp */\n      swap1\n      pop\n        /* \"contracts/SolarInsurance.sol\":14422:14437  claimsOnTimeout */\n      dup1\n        /* \"contracts/SolarInsurance.sol\":14421:14437  !claimsOnTimeout */\n      iszero\n        /* \"contracts/SolarInsurance.sol\":14400:14499  require(... */\n      tag_167\n      jumpi\n      mload(0x40)\n      0x08c379a000000000000000000000000000000000000000000000000000000000\n      dup2\n      mstore\n      0x04\n      add\n      tag_168\n      swap1\n      tag_169\n      jump\t// in\n    tag_168:\n      mload(0x40)\n      dup1\n      swap2\n      sub\n      swap1\n      revert\n    tag_167:\n        /* \"contracts/SolarInsurance.sol\":5795:5799  year */\n      dup4\n        /* \"contracts/SolarInsurance.sol\":14784:14804  bool isYearClaimable */\n      0x00\n        /* \"contracts/SolarInsurance.sol\":14837:14841  year */\n      dup2\n        /* \"contracts/SolarInsurance.sol\":14807:14821  _allowedClaims */\n      0x07\n        /* \"contracts/SolarInsurance.sol\":14807:14833  _allowedClaims[msg.sender] */\n      0x00\n        /* \"contracts/SolarInsurance.sol\":14822:14832  msg.sender */\n      caller\n        /* \"contracts/SolarInsurance.sol\":14807:14833  _allowedClaims[msg.sender] */\n      0xffffffffffffffffffffffffffffffffffffffff\n      and\n      0xffffffffffffffffffffffffffffffffffffffff\n      and\n      dup2\n      mstore\n      0x20\n      add\n      swap1\n      dup2\n      mstore\n      0x20\n      add\n      0x00\n      keccak256\n      sload\n        /* \"contracts/SolarInsurance.sol\":14807:14841  _allowedClaims[msg.sender] == year */\n      eq\n        /* \"contracts/SolarInsurance.sol\":14784:14841  bool isYearClaimable = _allowedClaims[msg.sender] == year */\n      swap1\n      pop\n        /* \"contracts/SolarInsurance.sol\":14871:14886  isYearClaimable */\n      dup1\n        /* \"contracts/SolarInsurance.sol\":14851:14971  require(... */\n      tag_171\n      jumpi\n      mload(0x40)\n      0x08c379a000000000000000000000000000000000000000000000000000000000\n      dup2\n      mstore\n      0x04\n      add\n      tag_172\n      swap1\n      tag_173\n      jump\t// in\n    tag_172:\n      mload(0x40)\n      dup1\n      swap2\n      sub\n      swap1\n      revert\n    tag_171:\n        /* \"contracts/SolarInsurance.sol\":5829:5833  year */\n      dup6\n        /* \"contracts/SolarInsurance.sol\":13783:13800  string memory key */\n      0x00\n        /* \"contracts/SolarInsurance.sol\":13803:13822  getRecordsKey(year) */\n      tag_175\n        /* \"contracts/SolarInsurance.sol\":13817:13821  year */\n      dup3\n        /* \"contracts/SolarInsurance.sol\":13803:13816  getRecordsKey */\n      tag_58\n        /* \"contracts/SolarInsurance.sol\":13803:13822  getRecordsKey(year) */\n      jump\t// in\n    tag_175:\n        /* \"contracts/SolarInsurance.sol\":13783:13822  string memory key = getRecordsKey(year) */\n      swap1\n      pop\n        /* \"contracts/SolarInsurance.sol\":13833:13850  bool recordExists */\n      0x00\n        /* \"contracts/SolarInsurance.sol\":13878:13879  0 */\n      dup1\n        /* \"contracts/SolarInsurance.sol\":13853:13869  _sunshineRecords */\n      0x05\n        /* \"contracts/SolarInsurance.sol\":13870:13873  key */\n      dup4\n        /* \"contracts/SolarInsurance.sol\":13853:13874  _sunshineRecords[key] */\n      mload(0x40)\n      tag_176\n      swap2\n      swap1\n      tag_60\n      jump\t// in\n    tag_176:\n      swap1\n      dup2\n      mstore\n      0x20\n      add\n      mload(0x40)\n      dup1\n      swap2\n      sub\n      swap1\n      keccak256\n      sload\n        /* \"contracts/SolarInsurance.sol\":13853:13879  _sunshineRecords[key] != 0 */\n      eq\n      iszero\n        /* \"contracts/SolarInsurance.sol\":13833:13879  bool recordExists = _sunshineRecords[key] != 0 */\n      swap1\n      pop\n        /* \"contracts/SolarInsurance.sol\":13910:13922  recordExists */\n      dup1\n        /* \"contracts/SolarInsurance.sol\":13889:13999  require(... */\n      tag_177\n      jumpi\n      mload(0x40)\n      0x08c379a000000000000000000000000000000000000000000000000000000000\n      dup2\n      mstore\n      0x04\n      add\n      tag_178\n      swap1\n      tag_63\n      jump\t// in\n    tag_178:\n      mload(0x40)\n      dup1\n      swap2\n      sub\n      swap1\n      revert\n    tag_177:\n        /* \"contracts/SolarInsurance.sol\":5849:5878  SolarInsurancePolicy memory p */\n      0x00\n        /* \"contracts/SolarInsurance.sol\":5881:5890  _policies */\n      0x06\n        /* \"contracts/SolarInsurance.sol\":5881:5902  _policies[msg.sender] */\n      0x00\n        /* \"contracts/SolarInsurance.sol\":5891:5901  msg.sender */\n      caller\n        /* \"contracts/SolarInsurance.sol\":5881:5902  _policies[msg.sender] */\n      0xffffffffffffffffffffffffffffffffffffffff\n      and\n      0xffffffffffffffffffffffffffffffffffffffff\n      and\n      dup2\n      mstore\n      0x20\n      add\n      swap1\n      dup2\n      mstore\n      0x20\n      add\n      0x00\n      keccak256\n        /* \"contracts/SolarInsurance.sol\":5849:5902  SolarInsurancePolicy memory p = _policies[msg.sender] */\n      mload(0x40)\n      dup1\n      0x0100\n      add\n      0x40\n      mstore\n      swap1\n      dup2\n      0x00\n      dup3\n      add\n      0x00\n      swap1\n      sload\n      swap1\n      0x0100\n      exp\n      swap1\n      div\n      0xffffffffffffffffffffffffffffffffffffffff\n      and\n      0xffffffffffffffffffffffffffffffffffffffff\n      and\n      0xffffffffffffffffffffffffffffffffffffffff\n      and\n      dup2\n      mstore\n      0x20\n      add\n      0x00\n      dup3\n      add\n      0x14\n      swap1\n      sload\n      swap1\n      0x0100\n      exp\n      swap1\n      div\n      0xff\n      and\n      0x01\n      dup2\n      gt\n      iszero\n      tag_180\n      jumpi\n      tag_181\n      tag_81\n      jump\t// in\n    tag_181:\n    tag_180:\n      0x01\n      dup2\n      gt\n      iszero\n      tag_182\n      jumpi\n      tag_183\n      tag_81\n      jump\t// in\n    tag_183:\n    tag_182:\n      dup2\n      mstore\n      0x20\n      add\n      0x00\n      dup3\n      add\n      0x15\n      swap1\n      sload\n      swap1\n      0x0100\n      exp\n      swap1\n      div\n      0xff\n      and\n      0x02\n      dup2\n      gt\n      iszero\n      tag_184\n      jumpi\n      tag_185\n      tag_81\n      jump\t// in\n    tag_185:\n    tag_184:\n      0x02\n      dup2\n      gt\n      iszero\n      tag_186\n      jumpi\n      tag_187\n      tag_81\n      jump\t// in\n    tag_187:\n    tag_186:\n      dup2\n      mstore\n      0x20\n      add\n      0x01\n      dup3\n      add\n      sload\n      dup2\n      mstore\n      0x20\n      add\n      0x02\n      dup3\n      add\n      sload\n      dup2\n      mstore\n      0x20\n      add\n      0x03\n      dup3\n      add\n      sload\n      dup2\n      mstore\n      0x20\n      add\n      0x04\n      dup3\n      add\n      sload\n      dup2\n      mstore\n      0x20\n      add\n      0x05\n      dup3\n      add\n      sload\n      dup2\n      mstore\n      pop\n      pop\n      swap1\n      pop\n        /* \"contracts/SolarInsurance.sol\":5963:5977  uint256 amount */\n      0x00\n        /* \"contracts/SolarInsurance.sol\":5980:6000  getClaimAmount(year) */\n      tag_188\n        /* \"contracts/SolarInsurance.sol\":5995:5999  year */\n      dup12\n        /* \"contracts/SolarInsurance.sol\":5980:5994  getClaimAmount */\n      tag_66\n        /* \"contracts/SolarInsurance.sol\":5980:6000  getClaimAmount(year) */\n      jump\t// in\n    tag_188:\n        /* \"contracts/SolarInsurance.sol\":5963:6000  uint256 amount = getClaimAmount(year) */\n      swap1\n      pop\n        /* \"contracts/SolarInsurance.sol\":6018:6028  msg.sender */\n      caller\n        /* \"contracts/SolarInsurance.sol\":6010:6038  payable(msg.sender).transfer */\n      0xffffffffffffffffffffffffffffffffffffffff\n      and\n        /* \"contracts/SolarInsurance.sol\":6010:6046  payable(msg.sender).transfer(amount) */\n      0x08fc\n        /* \"contracts/SolarInsurance.sol\":6039:6045  amount */\n      dup3\n        /* \"contracts/SolarInsurance.sol\":6010:6046  payable(msg.sender).transfer(amount) */\n      swap1\n      dup2\n      iszero\n      mul\n      swap1\n      mload(0x40)\n      0x00\n      mload(0x40)\n      dup1\n      dup4\n      sub\n      dup2\n      dup6\n      dup9\n      dup9\n      call\n      swap4\n      pop\n      pop\n      pop\n      pop\n      iszero\n      dup1\n      iszero\n      tag_190\n      jumpi\n      returndatasize\n      0x00\n      dup1\n      returndatacopy\n      revert(0x00, returndatasize)\n    tag_190:\n      pop\n        /* \"contracts/SolarInsurance.sol\":6099:6131  p.claimTimeout.add(1 * 365 days) */\n      tag_191\n        /* \"contracts/SolarInsurance.sol\":6118:6130  1 * 365 days */\n      0x01e13380\n        /* \"contracts/SolarInsurance.sol\":6099:6100  p */\n      dup4\n        /* \"contracts/SolarInsurance.sol\":6099:6113  p.claimTimeout */\n      0xe0\n      add\n      mload\n        /* \"contracts/SolarInsurance.sol\":6099:6117  p.claimTimeout.add */\n      tag_70\n      swap1\n        /* \"contracts/SolarInsurance.sol\":6099:6131  p.claimTimeout.add(1 * 365 days) */\n      swap2\n      swap1\n      0xffffffff\n      and\n      jump\t// in\n    tag_191:\n      pop\n        /* \"contracts/SolarInsurance.sol\":6160:6161  0 */\n      0x00\n        /* \"contracts/SolarInsurance.sol\":6145:6146  p */\n      dup3\n        /* \"contracts/SolarInsurance.sol\":6145:6157  p.validUntil */\n      0xc0\n      add\n      mload\n        /* \"contracts/SolarInsurance.sol\":6145:6161  p.validUntil > 0 */\n      gt\n        /* \"contracts/SolarInsurance.sol\":6141:6301  if (p.validUntil > 0) {... */\n      iszero\n      tag_192\n      jumpi\n        /* \"contracts/SolarInsurance.sol\":6289:6290  1 */\n      0x01\n        /* \"contracts/SolarInsurance.sol\":6259:6273  _allowedClaims */\n      0x07\n        /* \"contracts/SolarInsurance.sol\":6259:6285  _allowedClaims[msg.sender] */\n      0x00\n        /* \"contracts/SolarInsurance.sol\":6274:6284  msg.sender */\n      caller\n        /* \"contracts/SolarInsurance.sol\":6259:6285  _allowedClaims[msg.sender] */\n      0xffffffffffffffffffffffffffffffffffffffff\n      and\n      0xffffffffffffffffffffffffffffffffffffffff\n      and\n      dup2\n      mstore\n      0x20\n      add\n      swap1\n      dup2\n      mstore\n      0x20\n      add\n      0x00\n      keccak256\n      0x00\n        /* \"contracts/SolarInsurance.sol\":6259:6290  _allowedClaims[msg.sender] += 1 */\n      dup3\n      dup3\n      sload\n      tag_193\n      swap2\n      swap1\n      tag_73\n      jump\t// in\n    tag_193:\n      swap3\n      pop\n      pop\n      dup2\n      swap1\n      sstore\n      pop\n        /* \"contracts/SolarInsurance.sol\":6141:6301  if (p.validUntil > 0) {... */\n    tag_192:\n        /* \"contracts/SolarInsurance.sol\":5839:6307  {... */\n      pop\n      pop\n        /* \"contracts/SolarInsurance.sol\":13773:14017  {... */\n      pop\n      pop\n        /* \"contracts/SolarInsurance.sol\":14981:14982  _ */\n      pop\n        /* \"contracts/SolarInsurance.sol\":14774:14989  {... */\n      pop\n        /* \"contracts/SolarInsurance.sol\":14509:14510  _ */\n      pop\n        /* \"contracts/SolarInsurance.sol\":14305:14517  {... */\n      pop\n        /* \"contracts/SolarInsurance.sol\":13233:13523  {... */\n      pop\n      pop\n        /* \"contracts/SolarInsurance.sol\":5673:6307  function fileClaim(uint256 year) public... */\n      pop\n      jump\t// out\n        /* \"contracts/SolarInsurance.sol\":8957:9302  function getRecordsKey(uint256 year) internal view ... */\n    tag_58:\n        /* \"contracts/SolarInsurance.sol\":9049:9062  string memory */\n      0x60\n        /* \"contracts/SolarInsurance.sol\":13243:13264  bool policyRegistered */\n      0x00\n        /* \"contracts/SolarInsurance.sol\":13307:13308  0 */\n      dup1\n        /* \"contracts/SolarInsurance.sol\":13267:13309  _policies[msg.sender].client != address(0) */\n      0xffffffffffffffffffffffffffffffffffffffff\n      and\n        /* \"contracts/SolarInsurance.sol\":13267:13276  _policies */\n      0x06\n        /* \"contracts/SolarInsurance.sol\":13267:13288  _policies[msg.sender] */\n      0x00\n        /* \"contracts/SolarInsurance.sol\":13277:13287  msg.sender */\n      caller\n        /* \"contracts/SolarInsurance.sol\":13267:13288  _policies[msg.sender] */\n      0xffffffffffffffffffffffffffffffffffffffff\n      and\n      0xffffffffffffffffffffffffffffffffffffffff\n      and\n      dup2\n      mstore\n      0x20\n      add\n      swap1\n      dup2\n      mstore\n      0x20\n      add\n      0x00\n      keccak256\n        /* \"contracts/SolarInsurance.sol\":13267:13295  _policies[msg.sender].client */\n      0x00\n      add\n      0x00\n      swap1\n      sload\n      swap1\n      0x0100\n      exp\n      swap1\n      div\n      0xffffffffffffffffffffffffffffffffffffffff\n      and\n        /* \"contracts/SolarInsurance.sol\":13267:13309  _policies[msg.sender].client != address(0) */\n      0xffffffffffffffffffffffffffffffffffffffff\n      and\n      eq\n      iszero\n        /* \"contracts/SolarInsurance.sol\":13243:13309  bool policyRegistered = _policies[msg.sender].client != address(0) */\n      swap1\n      pop\n        /* \"contracts/SolarInsurance.sol\":13319:13336  bool policyActive */\n      0x00\n        /* \"contracts/SolarInsurance.sol\":13374:13389  block.timestamp */\n      timestamp\n        /* \"contracts/SolarInsurance.sol\":13339:13348  _policies */\n      0x06\n        /* \"contracts/SolarInsurance.sol\":13339:13360  _policies[msg.sender] */\n      0x00\n        /* \"contracts/SolarInsurance.sol\":13349:13359  msg.sender */\n      caller\n        /* \"contracts/SolarInsurance.sol\":13339:13360  _policies[msg.sender] */\n      0xffffffffffffffffffffffffffffffffffffffff\n      and\n      0xffffffffffffffffffffffffffffffffffffffff\n      and\n      dup2\n      mstore\n      0x20\n      add\n      swap1\n      dup2\n      mstore\n      0x20\n      add\n      0x00\n      keccak256\n        /* \"contracts/SolarInsurance.sol\":13339:13371  _policies[msg.sender].validUntil */\n      0x04\n      add\n      sload\n        /* \"contracts/SolarInsurance.sol\":13339:13389  _policies[msg.sender].validUntil > block.timestamp */\n      gt\n        /* \"contracts/SolarInsurance.sol\":13319:13389  bool policyActive = _policies[msg.sender].validUntil > block.timestamp */\n      swap1\n      pop\n        /* \"contracts/SolarInsurance.sol\":13421:13437  policyRegistered */\n      dup2\n        /* \"contracts/SolarInsurance.sol\":13421:13453  policyRegistered && policyActive */\n      dup1\n      iszero\n      tag_195\n      jumpi\n      pop\n        /* \"contracts/SolarInsurance.sol\":13441:13453  policyActive */\n      dup1\n        /* \"contracts/SolarInsurance.sol\":13421:13453  policyRegistered && policyActive */\n    tag_195:\n        /* \"contracts/SolarInsurance.sol\":13400:13505  require(... */\n      tag_196\n      jumpi\n      mload(0x40)\n      0x08c379a000000000000000000000000000000000000000000000000000000000\n      dup2\n      mstore\n      0x04\n      add\n      tag_197\n      swap1\n      tag_55\n      jump\t// in\n    tag_197:\n      mload(0x40)\n      dup1\n      swap2\n      sub\n      swap1\n      revert\n    tag_196:\n        /* \"contracts/SolarInsurance.sol\":9078:9098  bool isLocationSouth */\n      0x00\n        /* \"contracts/SolarInsurance.sol\":9140:9157  SwissRegion.SOUTH */\n      dup1\n        /* \"contracts/SolarInsurance.sol\":9101:9157  _policies[msg.sender].panelLocation == SwissRegion.SOUTH */\n      0x01\n      dup2\n      gt\n      iszero\n      tag_199\n      jumpi\n      tag_200\n      tag_81\n      jump\t// in\n    tag_200:\n    tag_199:\n        /* \"contracts/SolarInsurance.sol\":9101:9110  _policies */\n      0x06\n        /* \"contracts/SolarInsurance.sol\":9101:9122  _policies[msg.sender] */\n      0x00\n        /* \"contracts/SolarInsurance.sol\":9111:9121  msg.sender */\n      caller\n        /* \"contracts/SolarInsurance.sol\":9101:9122  _policies[msg.sender] */\n      0xffffffffffffffffffffffffffffffffffffffff\n      and\n      0xffffffffffffffffffffffffffffffffffffffff\n      and\n      dup2\n      mstore\n      0x20\n      add\n      swap1\n      dup2\n      mstore\n      0x20\n      add\n      0x00\n      keccak256\n        /* \"contracts/SolarInsurance.sol\":9101:9136  _policies[msg.sender].panelLocation */\n      0x00\n      add\n      0x14\n      swap1\n      sload\n      swap1\n      0x0100\n      exp\n      swap1\n      div\n      0xff\n      and\n        /* \"contracts/SolarInsurance.sol\":9101:9157  _policies[msg.sender].panelLocation == SwissRegion.SOUTH */\n      0x01\n      dup2\n      gt\n      iszero\n      tag_201\n      jumpi\n      tag_202\n      tag_81\n      jump\t// in\n    tag_202:\n    tag_201:\n      eq\n        /* \"contracts/SolarInsurance.sol\":9078:9157  bool isLocationSouth = _policies[msg.sender].panelLocation == SwissRegion.SOUTH */\n      swap1\n      pop\n        /* \"contracts/SolarInsurance.sol\":9167:9184  string memory key */\n      0x00\n        /* \"contracts/SolarInsurance.sol\":9187:9202  isLocationSouth */\n      dup2\n        /* \"contracts/SolarInsurance.sol\":9187:9274  isLocationSouth ? Utils.getRecordId(year, \"_SOUTH\") : Utils.getRecordId(year, \"_NORTH\") */\n      tag_203\n      jumpi\n        /* \"contracts/SolarInsurance.sol\":9241:9274  Utils.getRecordId(year, \"_NORTH\") */\n      tag_204\n        /* \"contracts/SolarInsurance.sol\":9259:9263  year */\n      dup7\n        /* \"contracts/SolarInsurance.sol\":9241:9274  Utils.getRecordId(year, \"_NORTH\") */\n      mload(0x40)\n      dup1\n      0x40\n      add\n      0x40\n      mstore\n      dup1\n      0x06\n      dup2\n      mstore\n      0x20\n      add\n      0x5f4e4f5254480000000000000000000000000000000000000000000000000000\n      dup2\n      mstore\n      pop\n        /* \"contracts/SolarInsurance.sol\":9241:9258  Utils.getRecordId */\n      tag_153\n        /* \"contracts/SolarInsurance.sol\":9241:9274  Utils.getRecordId(year, \"_NORTH\") */\n      jump\t// in\n    tag_204:\n        /* \"contracts/SolarInsurance.sol\":9187:9274  isLocationSouth ? Utils.getRecordId(year, \"_SOUTH\") : Utils.getRecordId(year, \"_NORTH\") */\n      jump(tag_205)\n    tag_203:\n        /* \"contracts/SolarInsurance.sol\":9205:9238  Utils.getRecordId(year, \"_SOUTH\") */\n      tag_206\n        /* \"contracts/SolarInsurance.sol\":9223:9227  year */\n      dup7\n        /* \"contracts/SolarInsurance.sol\":9205:9238  Utils.getRecordId(year, \"_SOUTH\") */\n      mload(0x40)\n      dup1\n      0x40\n      add\n      0x40\n      mstore\n      dup1\n      0x06\n      dup2\n      mstore\n      0x20\n      add\n      0x5f534f5554480000000000000000000000000000000000000000000000000000\n      dup2\n      mstore\n      pop\n        /* \"contracts/SolarInsurance.sol\":9205:9222  Utils.getRecordId */\n      tag_153\n        /* \"contracts/SolarInsurance.sol\":9205:9238  Utils.getRecordId(year, \"_SOUTH\") */\n      jump\t// in\n    tag_206:\n        /* \"contracts/SolarInsurance.sol\":9187:9274  isLocationSouth ? Utils.getRecordId(year, \"_SOUTH\") : Utils.getRecordId(year, \"_NORTH\") */\n    tag_205:\n        /* \"contracts/SolarInsurance.sol\":9167:9274  string memory key = isLocationSouth ? Utils.getRecordId(year, \"_SOUTH\") : Utils.getRecordId(year, \"_NORTH\") */\n      swap1\n      pop\n        /* \"contracts/SolarInsurance.sol\":9292:9295  key */\n      dup1\n        /* \"contracts/SolarInsurance.sol\":9285:9295  return key */\n      swap5\n      pop\n      pop\n      pop\n        /* \"contracts/SolarInsurance.sol\":13233:13523  {... */\n      pop\n      pop\n        /* \"contracts/SolarInsurance.sol\":8957:9302  function getRecordsKey(uint256 year) internal view ... */\n      swap2\n      swap1\n      pop\n      jump\t// out\n        /* \"contracts/SolarInsurance.sol\":8304:8729  function getClaimAmount(uint256 year) internal view returns (uint256) {... */\n    tag_66:\n        /* \"contracts/SolarInsurance.sol\":8365:8372  uint256 */\n      0x00\n        /* \"contracts/SolarInsurance.sol\":8384:8401  string memory key */\n      dup1\n        /* \"contracts/SolarInsurance.sol\":8404:8423  getRecordsKey(year) */\n      tag_208\n        /* \"contracts/SolarInsurance.sol\":8418:8422  year */\n      dup4\n        /* \"contracts/SolarInsurance.sol\":8404:8417  getRecordsKey */\n      tag_58\n        /* \"contracts/SolarInsurance.sol\":8404:8423  getRecordsKey(year) */\n      jump\t// in\n    tag_208:\n        /* \"contracts/SolarInsurance.sol\":8384:8423  string memory key = getRecordsKey(year) */\n      swap1\n      pop\n        /* \"contracts/SolarInsurance.sol\":8434:8463  SolarInsurancePolicy memory p */\n      0x00\n        /* \"contracts/SolarInsurance.sol\":8466:8475  _policies */\n      0x06\n        /* \"contracts/SolarInsurance.sol\":8466:8487  _policies[msg.sender] */\n      0x00\n        /* \"contracts/SolarInsurance.sol\":8476:8486  msg.sender */\n      caller\n        /* \"contracts/SolarInsurance.sol\":8466:8487  _policies[msg.sender] */\n      0xffffffffffffffffffffffffffffffffffffffff\n      and\n      0xffffffffffffffffffffffffffffffffffffffff\n      and\n      dup2\n      mstore\n      0x20\n      add\n      swap1\n      dup2\n      mstore\n      0x20\n      add\n      0x00\n      keccak256\n        /* \"contracts/SolarInsurance.sol\":8434:8487  SolarInsurancePolicy memory p = _policies[msg.sender] */\n      mload(0x40)\n      dup1\n      0x0100\n      add\n      0x40\n      mstore\n      swap1\n      dup2\n      0x00\n      dup3\n      add\n      0x00\n      swap1\n      sload\n      swap1\n      0x0100\n      exp\n      swap1\n      div\n      0xffffffffffffffffffffffffffffffffffffffff\n      and\n      0xffffffffffffffffffffffffffffffffffffffff\n      and\n      0xffffffffffffffffffffffffffffffffffffffff\n      and\n      dup2\n      mstore\n      0x20\n      add\n      0x00\n      dup3\n      add\n      0x14\n      swap1\n      sload\n      swap1\n      0x0100\n      exp\n      swap1\n      div\n      0xff\n      and\n      0x01\n      dup2\n      gt\n      iszero\n      tag_209\n      jumpi\n      tag_210\n      tag_81\n      jump\t// in\n    tag_210:\n    tag_209:\n      0x01\n      dup2\n      gt\n      iszero\n      tag_211\n      jumpi\n      tag_212\n      tag_81\n      jump\t// in\n    tag_212:\n    tag_211:\n      dup2\n      mstore\n      0x20\n      add\n      0x00\n      dup3\n      add\n      0x15\n      swap1\n      sload\n      swap1\n      0x0100\n      exp\n      swap1\n      div\n      0xff\n      and\n      0x02\n      dup2\n      gt\n      iszero\n      tag_213\n      jumpi\n      tag_214\n      tag_81\n      jump\t// in\n    tag_214:\n    tag_213:\n      0x02\n      dup2\n      gt\n      iszero\n      tag_215\n      jumpi\n      tag_216\n      tag_81\n      jump\t// in\n    tag_216:\n    tag_215:\n      dup2\n      mstore\n      0x20\n      add\n      0x01\n      dup3\n      add\n      sload\n      dup2\n      mstore\n      0x20\n      add\n      0x02\n      dup3\n      add\n      sload\n      dup2\n      mstore\n      0x20\n      add\n      0x03\n      dup3\n      add\n      sload\n      dup2\n      mstore\n      0x20\n      add\n      0x04\n      dup3\n      add\n      sload\n      dup2\n      mstore\n      0x20\n      add\n      0x05\n      dup3\n      add\n      sload\n      dup2\n      mstore\n      pop\n      pop\n      swap1\n      pop\n        /* \"contracts/SolarInsurance.sol\":8497:8518  uint256 sunshineDelta */\n      0x00\n        /* \"contracts/SolarInsurance.sol\":8566:8582  _sunshineRecords */\n      0x05\n        /* \"contracts/SolarInsurance.sol\":8583:8586  key */\n      dup4\n        /* \"contracts/SolarInsurance.sol\":8566:8587  _sunshineRecords[key] */\n      mload(0x40)\n      tag_217\n      swap2\n      swap1\n      tag_60\n      jump\t// in\n    tag_217:\n      swap1\n      dup2\n      mstore\n      0x20\n      add\n      mload(0x40)\n      dup1\n      swap2\n      sub\n      swap1\n      keccak256\n      sload\n        /* \"contracts/SolarInsurance.sol\":8521:8537  _insuranceLevels */\n      0x04\n        /* \"contracts/SolarInsurance.sol\":8521:8550  _insuranceLevels[p.riskLevel] */\n      0x00\n        /* \"contracts/SolarInsurance.sol\":8538:8539  p */\n      dup5\n        /* \"contracts/SolarInsurance.sol\":8538:8549  p.riskLevel */\n      0x40\n      add\n      mload\n        /* \"contracts/SolarInsurance.sol\":8521:8550  _insuranceLevels[p.riskLevel] */\n      0x02\n      dup2\n      gt\n      iszero\n      tag_218\n      jumpi\n      tag_219\n      tag_81\n      jump\t// in\n    tag_219:\n    tag_218:\n      0x02\n      dup2\n      gt\n      iszero\n      tag_220\n      jumpi\n      tag_221\n      tag_81\n      jump\t// in\n    tag_221:\n    tag_220:\n      dup2\n      mstore\n      0x20\n      add\n      swap1\n      dup2\n      mstore\n      0x20\n      add\n      0x00\n      keccak256\n        /* \"contracts/SolarInsurance.sol\":8521:8563  _insuranceLevels[p.riskLevel].insuredHours */\n      0x01\n      add\n      sload\n        /* \"contracts/SolarInsurance.sol\":8521:8587  _insuranceLevels[p.riskLevel].insuredHours - _sunshineRecords[key] */\n      tag_222\n      swap2\n      swap1\n      tag_223\n      jump\t// in\n    tag_222:\n        /* \"contracts/SolarInsurance.sol\":8497:8587  uint256 sunshineDelta = _insuranceLevels[p.riskLevel].insuredHours - _sunshineRecords[key] */\n      swap1\n      pop\n        /* \"contracts/SolarInsurance.sol\":8597:8611  uint256 amount */\n      0x00\n        /* \"contracts/SolarInsurance.sol\":8677:8690  _ENERGY_PRICE */\n      sload(0x01)\n        /* \"contracts/SolarInsurance.sol\":8663:8664  p */\n      dup4\n        /* \"contracts/SolarInsurance.sol\":8663:8674  p.panelArea */\n      0x60\n      add\n      mload\n        /* \"contracts/SolarInsurance.sol\":8649:8660  _EFFICIENCY */\n      sload(0x03)\n        /* \"contracts/SolarInsurance.sol\":8633:8646  sunshineDelta */\n      dup5\n        /* \"contracts/SolarInsurance.sol\":8614:8630  _RADIATION_VALUE */\n      sload(0x02)\n        /* \"contracts/SolarInsurance.sol\":8614:8646  _RADIATION_VALUE * sunshineDelta */\n      tag_224\n      swap2\n      swap1\n      tag_85\n      jump\t// in\n    tag_224:\n        /* \"contracts/SolarInsurance.sol\":8614:8660  _RADIATION_VALUE * sunshineDelta * _EFFICIENCY */\n      tag_225\n      swap2\n      swap1\n      tag_85\n      jump\t// in\n    tag_225:\n        /* \"contracts/SolarInsurance.sol\":8614:8674  _RADIATION_VALUE * sunshineDelta * _EFFICIENCY * p.panelArea */\n      tag_226\n      swap2\n      swap1\n      tag_85\n      jump\t// in\n    tag_226:\n        /* \"contracts/SolarInsurance.sol\":8614:8690  _RADIATION_VALUE * sunshineDelta * _EFFICIENCY * p.panelArea * _ENERGY_PRICE */\n      tag_227\n      swap2\n      swap1\n      tag_85\n      jump\t// in\n    tag_227:\n        /* \"contracts/SolarInsurance.sol\":8597:8690  uint256 amount = _RADIATION_VALUE * sunshineDelta * _EFFICIENCY * p.panelArea * _ENERGY_PRICE */\n      swap1\n      pop\n        /* \"contracts/SolarInsurance.sol\":8716:8722  100000 */\n      0x0186a0\n        /* \"contracts/SolarInsurance.sol\":8707:8713  amount */\n      dup2\n        /* \"contracts/SolarInsurance.sol\":8707:8722  amount / 100000 */\n      tag_228\n      swap2\n      swap1\n      tag_143\n      jump\t// in\n    tag_228:\n        /* \"contracts/SolarInsurance.sol\":8700:8722  return amount / 100000 */\n      swap5\n      pop\n      pop\n      pop\n      pop\n      pop\n        /* \"contracts/SolarInsurance.sol\":8304:8729  function getClaimAmount(uint256 year) internal view returns (uint256) {... */\n      swap2\n      swap1\n      pop\n      jump\t// out\n        /* \"@openzeppelin/contracts/utils/math/SafeMath.sol\":2755:2851  function add(uint256 a, uint256 b) internal pure returns (uint256) {... */\n    tag_70:\n        /* \"@openzeppelin/contracts/utils/math/SafeMath.sol\":2813:2820  uint256 */\n      0x00\n        /* \"@openzeppelin/contracts/utils/math/SafeMath.sol\":2843:2844  b */\n      dup2\n        /* \"@openzeppelin/contracts/utils/math/SafeMath.sol\":2839:2840  a */\n      dup4\n        /* \"@openzeppelin/contracts/utils/math/SafeMath.sol\":2839:2844  a + b */\n      tag_230\n      swap2\n      swap1\n      tag_73\n      jump\t// in\n    tag_230:\n        /* \"@openzeppelin/contracts/utils/math/SafeMath.sol\":2832:2844  return a + b */\n      swap1\n      pop\n        /* \"@openzeppelin/contracts/utils/math/SafeMath.sol\":2755:2851  function add(uint256 a, uint256 b) internal pure returns (uint256) {... */\n      swap3\n      swap2\n      pop\n      pop\n      jump\t// out\n        /* \"libraries/Utils.sol\":136:300  function getRecordId(uint256 year, string memory region) internal pure returns(string memory){... */\n    tag_153:\n        /* \"libraries/Utils.sol\":215:228  string memory */\n      0x60\n        /* \"libraries/Utils.sol\":261:283  Strings.toString(year) */\n      tag_232\n        /* \"libraries/Utils.sol\":278:282  year */\n      dup4\n        /* \"libraries/Utils.sol\":261:277  Strings.toString */\n      tag_233\n        /* \"libraries/Utils.sol\":261:283  Strings.toString(year) */\n      jump\t// in\n    tag_232:\n        /* \"libraries/Utils.sol\":285:291  region */\n      dup3\n        /* \"libraries/Utils.sol\":247:292  string.concat(Strings.toString(year), region) */\n      add(0x20, mload(0x40))\n      tag_234\n      swap3\n      swap2\n      swap1\n      tag_235\n      jump\t// in\n    tag_234:\n      mload(0x40)\n      0x20\n      dup2\n      dup4\n      sub\n      sub\n      dup2\n      mstore\n      swap1\n      0x40\n      mstore\n        /* \"libraries/Utils.sol\":240:292  return string.concat(Strings.toString(year), region) */\n      swap1\n      pop\n        /* \"libraries/Utils.sol\":136:300  function getRecordId(uint256 year, string memory region) internal pure returns(string memory){... */\n      swap3\n      swap2\n      pop\n      pop\n      jump\t// out\n        /* \"@openzeppelin/contracts/utils/Strings.sol\":637:1335  function toString(uint256 value) internal pure returns (string memory) {... */\n    tag_233:\n        /* \"@openzeppelin/contracts/utils/Strings.sol\":693:706  string memory */\n      0x60\n        /* \"@openzeppelin/contracts/utils/Strings.sol\":742:756  uint256 length */\n      0x00\n        /* \"@openzeppelin/contracts/utils/Strings.sol\":779:780  1 */\n      0x01\n        /* \"@openzeppelin/contracts/utils/Strings.sol\":759:776  Math.log10(value) */\n      tag_237\n        /* \"@openzeppelin/contracts/utils/Strings.sol\":770:775  value */\n      dup5\n        /* \"@openzeppelin/contracts/utils/Strings.sol\":759:769  Math.log10 */\n      tag_238\n        /* \"@openzeppelin/contracts/utils/Strings.sol\":759:776  Math.log10(value) */\n      jump\t// in\n    tag_237:\n        /* \"@openzeppelin/contracts/utils/Strings.sol\":759:780  Math.log10(value) + 1 */\n      add\n        /* \"@openzeppelin/contracts/utils/Strings.sol\":742:780  uint256 length = Math.log10(value) + 1 */\n      swap1\n      pop\n        /* \"@openzeppelin/contracts/utils/Strings.sol\":794:814  string memory buffer */\n      0x00\n        /* \"@openzeppelin/contracts/utils/Strings.sol\":828:834  length */\n      dup2\n        /* \"@openzeppelin/contracts/utils/Strings.sol\":817:835  new string(length) */\n      0xffffffffffffffff\n      dup2\n      gt\n      iszero\n      tag_239\n      jumpi\n      tag_240\n      tag_241\n      jump\t// in\n    tag_240:\n    tag_239:\n      mload(0x40)\n      swap1\n      dup1\n      dup3\n      mstore\n      dup1\n      0x1f\n      add\n      not(0x1f)\n      and\n      0x20\n      add\n      dup3\n      add\n      0x40\n      mstore\n      dup1\n      iszero\n      tag_242\n      jumpi\n      dup2\n      0x20\n      add\n      0x01\n      dup3\n      mul\n      dup1\n      calldatasize\n      dup4\n      calldatacopy\n      dup1\n      dup3\n      add\n      swap2\n      pop\n      pop\n      swap1\n      pop\n    tag_242:\n      pop\n        /* \"@openzeppelin/contracts/utils/Strings.sol\":794:835  string memory buffer = new string(length) */\n      swap1\n      pop\n        /* \"@openzeppelin/contracts/utils/Strings.sol\":849:860  uint256 ptr */\n      0x00\n        /* \"@openzeppelin/contracts/utils/Strings.sol\":975:981  length */\n      dup3\n        /* \"@openzeppelin/contracts/utils/Strings.sol\":971:973  32 */\n      0x20\n        /* \"@openzeppelin/contracts/utils/Strings.sol\":967:982  add(32, length) */\n      add\n        /* \"@openzeppelin/contracts/utils/Strings.sol\":959:965  buffer */\n      dup3\n        /* \"@openzeppelin/contracts/utils/Strings.sol\":955:983  add(buffer, add(32, length)) */\n      add\n        /* \"@openzeppelin/contracts/utils/Strings.sol\":948:983  ptr := add(buffer, add(32, length)) */\n      swap1\n      pop\n        /* \"@openzeppelin/contracts/utils/Strings.sol\":1010:1292  while (true) {... */\n    tag_243:\n        /* \"@openzeppelin/contracts/utils/Strings.sol\":1017:1021  true */\n      0x01\n        /* \"@openzeppelin/contracts/utils/Strings.sol\":1010:1292  while (true) {... */\n      iszero\n      tag_244\n      jumpi\n        /* \"@openzeppelin/contracts/utils/Strings.sol\":1041:1046  ptr-- */\n      dup1\n      dup1\n      0x01\n      swap1\n      sub\n      swap2\n      pop\n      pop\n        /* \"@openzeppelin/contracts/utils/Strings.sol\":1180:1190  HEX_DIGITS */\n      0x3031323334353637383961626364656600000000000000000000000000000000\n        /* \"@openzeppelin/contracts/utils/Strings.sol\":1175:1177  10 */\n      0x0a\n        /* \"@openzeppelin/contracts/utils/Strings.sol\":1168:1173  value */\n      dup7\n        /* \"@openzeppelin/contracts/utils/Strings.sol\":1164:1178  mod(value, 10) */\n      mod\n        /* \"@openzeppelin/contracts/utils/Strings.sol\":1159:1191  byte(mod(value, 10), HEX_DIGITS) */\n      byte\n        /* \"@openzeppelin/contracts/utils/Strings.sol\":1154:1157  ptr */\n      dup2\n        /* \"@openzeppelin/contracts/utils/Strings.sol\":1146:1192  mstore8(ptr, byte(mod(value, 10), HEX_DIGITS)) */\n      mstore8\n        /* \"@openzeppelin/contracts/utils/Strings.sol\":1236:1238  10 */\n      0x0a\n        /* \"@openzeppelin/contracts/utils/Strings.sol\":1227:1238  value /= 10 */\n      dup6\n      dup2\n      tag_245\n      jumpi\n      tag_246\n      tag_247\n      jump\t// in\n    tag_246:\n    tag_245:\n      div\n      swap5\n      pop\n        /* \"@openzeppelin/contracts/utils/Strings.sol\":1269:1270  0 */\n      0x00\n        /* \"@openzeppelin/contracts/utils/Strings.sol\":1260:1265  value */\n      dup6\n        /* \"@openzeppelin/contracts/utils/Strings.sol\":1260:1270  value == 0 */\n      sub\n        /* \"@openzeppelin/contracts/utils/Strings.sol\":1010:1292  while (true) {... */\n      tag_243\n        /* \"@openzeppelin/contracts/utils/Strings.sol\":1256:1277  if (value == 0) break */\n      jumpi\n        /* \"@openzeppelin/contracts/utils/Strings.sol\":1010:1292  while (true) {... */\n    tag_244:\n        /* \"@openzeppelin/contracts/utils/Strings.sol\":1312:1318  buffer */\n      dup2\n        /* \"@openzeppelin/contracts/utils/Strings.sol\":1305:1318  return buffer */\n      swap4\n      pop\n      pop\n      pop\n      pop\n        /* \"@openzeppelin/contracts/utils/Strings.sol\":637:1335  function toString(uint256 value) internal pure returns (string memory) {... */\n      swap2\n      swap1\n      pop\n      jump\t// out\n        /* \"@openzeppelin/contracts/utils/math/Math.sol\":12214:13130  function log10(uint256 value) internal pure returns (uint256) {... */\n    tag_238:\n        /* \"@openzeppelin/contracts/utils/math/Math.sol\":12267:12274  uint256 */\n      0x00\n        /* \"@openzeppelin/contracts/utils/math/Math.sol\":12286:12300  uint256 result */\n      dup1\n        /* \"@openzeppelin/contracts/utils/math/Math.sol\":12303:12304  0 */\n      0x00\n        /* \"@openzeppelin/contracts/utils/math/Math.sol\":12286:12304  uint256 result = 0 */\n      swap1\n      pop\n        /* \"@openzeppelin/contracts/utils/math/Math.sol\":12351:12359  10 ** 64 */\n      0x184f03e93ff9f4daa797ed6e38ed64bf6a1f010000000000000000\n        /* \"@openzeppelin/contracts/utils/math/Math.sol\":12342:12347  value */\n      dup4\n        /* \"@openzeppelin/contracts/utils/math/Math.sol\":12342:12359  value >= 10 ** 64 */\n      lt\n        /* \"@openzeppelin/contracts/utils/math/Math.sol\":12338:12441  if (value >= 10 ** 64) {... */\n      tag_250\n      jumpi\n        /* \"@openzeppelin/contracts/utils/math/Math.sol\":12388:12396  10 ** 64 */\n      0x184f03e93ff9f4daa797ed6e38ed64bf6a1f010000000000000000\n        /* \"@openzeppelin/contracts/utils/math/Math.sol\":12379:12396  value /= 10 ** 64 */\n      dup4\n      dup2\n      tag_251\n      jumpi\n      tag_252\n      tag_247\n      jump\t// in\n    tag_252:\n    tag_251:\n      div\n      swap3\n      pop\n        /* \"@openzeppelin/contracts/utils/math/Math.sol\":12424:12426  64 */\n      0x40\n        /* \"@openzeppelin/contracts/utils/math/Math.sol\":12414:12426  result += 64 */\n      dup2\n      add\n      swap1\n      pop\n        /* \"@openzeppelin/contracts/utils/math/Math.sol\":12338:12441  if (value >= 10 ** 64) {... */\n    tag_250:\n        /* \"@openzeppelin/contracts/utils/math/Math.sol\":12467:12475  10 ** 32 */\n      0x04ee2d6d415b85acef8100000000\n        /* \"@openzeppelin/contracts/utils/math/Math.sol\":12458:12463  value */\n      dup4\n        /* \"@openzeppelin/contracts/utils/math/Math.sol\":12458:12475  value >= 10 ** 32 */\n      lt\n        /* \"@openzeppelin/contracts/utils/math/Math.sol\":12454:12557  if (value >= 10 ** 32) {... */\n      tag_253\n      jumpi\n        /* \"@openzeppelin/contracts/utils/math/Math.sol\":12504:12512  10 ** 32 */\n      0x04ee2d6d415b85acef8100000000\n        /* \"@openzeppelin/contracts/utils/math/Math.sol\":12495:12512  value /= 10 ** 32 */\n      dup4\n      dup2\n      tag_254\n      jumpi\n      tag_255\n      tag_247\n      jump\t// in\n    tag_255:\n    tag_254:\n      div\n      swap3\n      pop\n        /* \"@openzeppelin/contracts/utils/math/Math.sol\":12540:12542  32 */\n      0x20\n        /* \"@openzeppelin/contracts/utils/math/Math.sol\":12530:12542  result += 32 */\n      dup2\n      add\n      swap1\n      pop\n        /* \"@openzeppelin/contracts/utils/math/Math.sol\":12454:12557  if (value >= 10 ** 32) {... */\n    tag_253:\n        /* \"@openzeppelin/contracts/utils/math/Math.sol\":12583:12591  10 ** 16 */\n      0x2386f26fc10000\n        /* \"@openzeppelin/contracts/utils/math/Math.sol\":12574:12579  value */\n      dup4\n        /* \"@openzeppelin/contracts/utils/math/Math.sol\":12574:12591  value >= 10 ** 16 */\n      lt\n        /* \"@openzeppelin/contracts/utils/math/Math.sol\":12570:12673  if (value >= 10 ** 16) {... */\n      tag_256\n      jumpi\n        /* \"@openzeppelin/contracts/utils/math/Math.sol\":12620:12628  10 ** 16 */\n      0x2386f26fc10000\n        /* \"@openzeppelin/contracts/utils/math/Math.sol\":12611:12628  value /= 10 ** 16 */\n      dup4\n      dup2\n      tag_257\n      jumpi\n      tag_258\n      tag_247\n      jump\t// in\n    tag_258:\n    tag_257:\n      div\n      swap3\n      pop\n        /* \"@openzeppelin/contracts/utils/math/Math.sol\":12656:12658  16 */\n      0x10\n        /* \"@openzeppelin/contracts/utils/math/Math.sol\":12646:12658  result += 16 */\n      dup2\n      add\n      swap1\n      pop\n        /* \"@openzeppelin/contracts/utils/math/Math.sol\":12570:12673  if (value >= 10 ** 16) {... */\n    tag_256:\n        /* \"@openzeppelin/contracts/utils/math/Math.sol\":12699:12706  10 ** 8 */\n      0x05f5e100\n        /* \"@openzeppelin/contracts/utils/math/Math.sol\":12690:12695  value */\n      dup4\n        /* \"@openzeppelin/contracts/utils/math/Math.sol\":12690:12706  value >= 10 ** 8 */\n      lt\n        /* \"@openzeppelin/contracts/utils/math/Math.sol\":12686:12786  if (value >= 10 ** 8) {... */\n      tag_259\n      jumpi\n        /* \"@openzeppelin/contracts/utils/math/Math.sol\":12735:12742  10 ** 8 */\n      0x05f5e100\n        /* \"@openzeppelin/contracts/utils/math/Math.sol\":12726:12742  value /= 10 ** 8 */\n      dup4\n      dup2\n      tag_260\n      jumpi\n      tag_261\n      tag_247\n      jump\t// in\n    tag_261:\n    tag_260:\n      div\n      swap3\n      pop\n        /* \"@openzeppelin/contracts/utils/math/Math.sol\":12770:12771  8 */\n      0x08\n        /* \"@openzeppelin/contracts/utils/math/Math.sol\":12760:12771  result += 8 */\n      dup2\n      add\n      swap1\n      pop\n        /* \"@openzeppelin/contracts/utils/math/Math.sol\":12686:12786  if (value >= 10 ** 8) {... */\n    tag_259:\n        /* \"@openzeppelin/contracts/utils/math/Math.sol\":12812:12819  10 ** 4 */\n      0x2710\n        /* \"@openzeppelin/contracts/utils/math/Math.sol\":12803:12808  value */\n      dup4\n        /* \"@openzeppelin/contracts/utils/math/Math.sol\":12803:12819  value >= 10 ** 4 */\n      lt\n        /* \"@openzeppelin/contracts/utils/math/Math.sol\":12799:12899  if (value >= 10 ** 4) {... */\n      tag_262\n      jumpi\n        /* \"@openzeppelin/contracts/utils/math/Math.sol\":12848:12855  10 ** 4 */\n      0x2710\n        /* \"@openzeppelin/contracts/utils/math/Math.sol\":12839:12855  value /= 10 ** 4 */\n      dup4\n      dup2\n      tag_263\n      jumpi\n      tag_264\n      tag_247\n      jump\t// in\n    tag_264:\n    tag_263:\n      div\n      swap3\n      pop\n        /* \"@openzeppelin/contracts/utils/math/Math.sol\":12883:12884  4 */\n      0x04\n        /* \"@openzeppelin/contracts/utils/math/Math.sol\":12873:12884  result += 4 */\n      dup2\n      add\n      swap1\n      pop\n        /* \"@openzeppelin/contracts/utils/math/Math.sol\":12799:12899  if (value >= 10 ** 4) {... */\n    tag_262:\n        /* \"@openzeppelin/contracts/utils/math/Math.sol\":12925:12932  10 ** 2 */\n      0x64\n        /* \"@openzeppelin/contracts/utils/math/Math.sol\":12916:12921  value */\n      dup4\n        /* \"@openzeppelin/contracts/utils/math/Math.sol\":12916:12932  value >= 10 ** 2 */\n      lt\n        /* \"@openzeppelin/contracts/utils/math/Math.sol\":12912:13012  if (value >= 10 ** 2) {... */\n      tag_265\n      jumpi\n        /* \"@openzeppelin/contracts/utils/math/Math.sol\":12961:12968  10 ** 2 */\n      0x64\n        /* \"@openzeppelin/contracts/utils/math/Math.sol\":12952:12968  value /= 10 ** 2 */\n      dup4\n      dup2\n      tag_266\n      jumpi\n      tag_267\n      tag_247\n      jump\t// in\n    tag_267:\n    tag_266:\n      div\n      swap3\n      pop\n        /* \"@openzeppelin/contracts/utils/math/Math.sol\":12996:12997  2 */\n      0x02\n        /* \"@openzeppelin/contracts/utils/math/Math.sol\":12986:12997  result += 2 */\n      dup2\n      add\n      swap1\n      pop\n        /* \"@openzeppelin/contracts/utils/math/Math.sol\":12912:13012  if (value >= 10 ** 2) {... */\n    tag_265:\n        /* \"@openzeppelin/contracts/utils/math/Math.sol\":13038:13045  10 ** 1 */\n      0x0a\n        /* \"@openzeppelin/contracts/utils/math/Math.sol\":13029:13034  value */\n      dup4\n        /* \"@openzeppelin/contracts/utils/math/Math.sol\":13029:13045  value >= 10 ** 1 */\n      lt\n        /* \"@openzeppelin/contracts/utils/math/Math.sol\":13025:13091  if (value >= 10 ** 1) {... */\n      tag_268\n      jumpi\n        /* \"@openzeppelin/contracts/utils/math/Math.sol\":13075:13076  1 */\n      0x01\n        /* \"@openzeppelin/contracts/utils/math/Math.sol\":13065:13076  result += 1 */\n      dup2\n      add\n      swap1\n      pop\n        /* \"@openzeppelin/contracts/utils/math/Math.sol\":13025:13091  if (value >= 10 ** 1) {... */\n    tag_268:\n        /* \"@openzeppelin/contracts/utils/math/Math.sol\":13117:13123  result */\n      dup1\n        /* \"@openzeppelin/contracts/utils/math/Math.sol\":13110:13123  return result */\n      swap2\n      pop\n      pop\n        /* \"@openzeppelin/contracts/utils/math/Math.sol\":12214:13130  function log10(uint256 value) internal pure returns (uint256) {... */\n      swap2\n      swap1\n      pop\n      jump\t// out\n    tag_98:\n      mload(0x40)\n      dup1\n      0x0100\n      add\n      0x40\n      mstore\n      dup1\n      and(0xffffffffffffffffffffffffffffffffffffffff, 0x00)\n      dup2\n      mstore\n      0x20\n      add\n      0x00\n      0x01\n      dup2\n      gt\n      iszero\n      tag_269\n      jumpi\n      tag_270\n      tag_81\n      jump\t// in\n    tag_270:\n    tag_269:\n      dup2\n      mstore\n      0x20\n      add\n      0x00\n      0x02\n      dup2\n      gt\n      iszero\n      tag_271\n      jumpi\n      tag_272\n      tag_81\n      jump\t// in\n    tag_272:\n    tag_271:\n      dup2\n      mstore\n      0x20\n      add\n      0x00\n      dup2\n      mstore\n      0x20\n      add\n      0x00\n      dup2\n      mstore\n      0x20\n      add\n      0x00\n      dup2\n      mstore\n      0x20\n      add\n      0x00\n      dup2\n      mstore\n      0x20\n      add\n      0x00\n      dup2\n      mstore\n      pop\n      swap1\n      jump\t// out\n        /* \"#utility.yul\":88:205   */\n    tag_274:\n        /* \"#utility.yul\":197:198   */\n      0x00\n        /* \"#utility.yul\":194:195   */\n      dup1\n        /* \"#utility.yul\":187:199   */\n      revert\n        /* \"#utility.yul\":334:411   */\n    tag_276:\n        /* \"#utility.yul\":371:378   */\n      0x00\n        /* \"#utility.yul\":400:405   */\n      dup2\n        /* \"#utility.yul\":389:405   */\n      swap1\n      pop\n        /* \"#utility.yul\":334:411   */\n      swap2\n      swap1\n      pop\n      jump\t// out\n        /* \"#utility.yul\":417:539   */\n    tag_277:\n        /* \"#utility.yul\":490:514   */\n      tag_324\n        /* \"#utility.yul\":508:513   */\n      dup2\n        /* \"#utility.yul\":490:514   */\n      tag_276\n      jump\t// in\n    tag_324:\n        /* \"#utility.yul\":483:488   */\n      dup2\n        /* \"#utility.yul\":480:515   */\n      eq\n        /* \"#utility.yul\":470:533   */\n      tag_325\n      jumpi\n        /* \"#utility.yul\":529:530   */\n      0x00\n        /* \"#utility.yul\":526:527   */\n      dup1\n        /* \"#utility.yul\":519:531   */\n      revert\n        /* \"#utility.yul\":470:533   */\n    tag_325:\n        /* \"#utility.yul\":417:539   */\n      pop\n      jump\t// out\n        /* \"#utility.yul\":545:684   */\n    tag_278:\n        /* \"#utility.yul\":591:596   */\n      0x00\n        /* \"#utility.yul\":629:635   */\n      dup2\n        /* \"#utility.yul\":616:636   */\n      calldataload\n        /* \"#utility.yul\":607:636   */\n      swap1\n      pop\n        /* \"#utility.yul\":645:678   */\n      tag_327\n        /* \"#utility.yul\":672:677   */\n      dup2\n        /* \"#utility.yul\":645:678   */\n      tag_277\n      jump\t// in\n    tag_327:\n        /* \"#utility.yul\":545:684   */\n      swap3\n      swap2\n      pop\n      pop\n      jump\t// out\n        /* \"#utility.yul\":690:1019   */\n    tag_15:\n        /* \"#utility.yul\":749:755   */\n      0x00\n        /* \"#utility.yul\":798:800   */\n      0x20\n        /* \"#utility.yul\":786:795   */\n      dup3\n        /* \"#utility.yul\":777:784   */\n      dup5\n        /* \"#utility.yul\":773:796   */\n      sub\n        /* \"#utility.yul\":769:801   */\n      slt\n        /* \"#utility.yul\":766:885   */\n      iszero\n      tag_329\n      jumpi\n        /* \"#utility.yul\":804:883   */\n      tag_330\n      tag_274\n      jump\t// in\n    tag_330:\n        /* \"#utility.yul\":766:885   */\n    tag_329:\n        /* \"#utility.yul\":924:925   */\n      0x00\n        /* \"#utility.yul\":949:1002   */\n      tag_331\n        /* \"#utility.yul\":994:1001   */\n      dup5\n        /* \"#utility.yul\":985:991   */\n      dup3\n        /* \"#utility.yul\":974:983   */\n      dup6\n        /* \"#utility.yul\":970:992   */\n      add\n        /* \"#utility.yul\":949:1002   */\n      tag_278\n      jump\t// in\n    tag_331:\n        /* \"#utility.yul\":939:1002   */\n      swap2\n      pop\n        /* \"#utility.yul\":895:1012   */\n      pop\n        /* \"#utility.yul\":690:1019   */\n      swap3\n      swap2\n      pop\n      pop\n      jump\t// out\n        /* \"#utility.yul\":1025:1145   */\n    tag_279:\n        /* \"#utility.yul\":1119:1120   */\n      0x03\n        /* \"#utility.yul\":1112:1117   */\n      dup2\n        /* \"#utility.yul\":1109:1121   */\n      lt\n        /* \"#utility.yul\":1099:1139   */\n      tag_333\n      jumpi\n        /* \"#utility.yul\":1135:1136   */\n      0x00\n        /* \"#utility.yul\":1132:1133   */\n      dup1\n        /* \"#utility.yul\":1125:1137   */\n      revert\n        /* \"#utility.yul\":1099:1139   */\n    tag_333:\n        /* \"#utility.yul\":1025:1145   */\n      pop\n      jump\t// out\n        /* \"#utility.yul\":1151:1332   */\n    tag_280:\n        /* \"#utility.yul\":1218:1223   */\n      0x00\n        /* \"#utility.yul\":1256:1262   */\n      dup2\n        /* \"#utility.yul\":1243:1263   */\n      calldataload\n        /* \"#utility.yul\":1234:1263   */\n      swap1\n      pop\n        /* \"#utility.yul\":1272:1326   */\n      tag_335\n        /* \"#utility.yul\":1320:1325   */\n      dup2\n        /* \"#utility.yul\":1272:1326   */\n      tag_279\n      jump\t// in\n    tag_335:\n        /* \"#utility.yul\":1151:1332   */\n      swap3\n      swap2\n      pop\n      pop\n      jump\t// out\n        /* \"#utility.yul\":1338:1854   */\n    tag_22:\n        /* \"#utility.yul\":1427:1433   */\n      0x00\n        /* \"#utility.yul\":1435:1441   */\n      dup1\n        /* \"#utility.yul\":1484:1486   */\n      0x40\n        /* \"#utility.yul\":1472:1481   */\n      dup4\n        /* \"#utility.yul\":1463:1470   */\n      dup6\n        /* \"#utility.yul\":1459:1482   */\n      sub\n        /* \"#utility.yul\":1455:1487   */\n      slt\n        /* \"#utility.yul\":1452:1571   */\n      iszero\n      tag_337\n      jumpi\n        /* \"#utility.yul\":1490:1569   */\n      tag_338\n      tag_274\n      jump\t// in\n    tag_338:\n        /* \"#utility.yul\":1452:1571   */\n    tag_337:\n        /* \"#utility.yul\":1610:1611   */\n      0x00\n        /* \"#utility.yul\":1635:1709   */\n      tag_339\n        /* \"#utility.yul\":1701:1708   */\n      dup6\n        /* \"#utility.yul\":1692:1698   */\n      dup3\n        /* \"#utility.yul\":1681:1690   */\n      dup7\n        /* \"#utility.yul\":1677:1699   */\n      add\n        /* \"#utility.yul\":1635:1709   */\n      tag_280\n      jump\t// in\n    tag_339:\n        /* \"#utility.yul\":1625:1709   */\n      swap3\n      pop\n        /* \"#utility.yul\":1581:1719   */\n      pop\n        /* \"#utility.yul\":1758:1760   */\n      0x20\n        /* \"#utility.yul\":1784:1837   */\n      tag_340\n        /* \"#utility.yul\":1829:1836   */\n      dup6\n        /* \"#utility.yul\":1820:1826   */\n      dup3\n        /* \"#utility.yul\":1809:1818   */\n      dup7\n        /* \"#utility.yul\":1805:1827   */\n      add\n        /* \"#utility.yul\":1784:1837   */\n      tag_278\n      jump\t// in\n    tag_340:\n        /* \"#utility.yul\":1774:1837   */\n      swap2\n      pop\n        /* \"#utility.yul\":1729:1847   */\n      pop\n        /* \"#utility.yul\":1338:1854   */\n      swap3\n      pop\n      swap3\n      swap1\n      pop\n      jump\t// out\n        /* \"#utility.yul\":1860:1978   */\n    tag_281:\n        /* \"#utility.yul\":1947:1971   */\n      tag_342\n        /* \"#utility.yul\":1965:1970   */\n      dup2\n        /* \"#utility.yul\":1947:1971   */\n      tag_276\n      jump\t// in\n    tag_342:\n        /* \"#utility.yul\":1942:1945   */\n      dup3\n        /* \"#utility.yul\":1935:1972   */\n      mstore\n        /* \"#utility.yul\":1860:1978   */\n      pop\n      pop\n      jump\t// out\n        /* \"#utility.yul\":1984:2206   */\n    tag_25:\n        /* \"#utility.yul\":2077:2081   */\n      0x00\n        /* \"#utility.yul\":2115:2117   */\n      0x20\n        /* \"#utility.yul\":2104:2113   */\n      dup3\n        /* \"#utility.yul\":2100:2118   */\n      add\n        /* \"#utility.yul\":2092:2118   */\n      swap1\n      pop\n        /* \"#utility.yul\":2128:2199   */\n      tag_344\n        /* \"#utility.yul\":2196:2197   */\n      0x00\n        /* \"#utility.yul\":2185:2194   */\n      dup4\n        /* \"#utility.yul\":2181:2198   */\n      add\n        /* \"#utility.yul\":2172:2178   */\n      dup5\n        /* \"#utility.yul\":2128:2199   */\n      tag_281\n      jump\t// in\n    tag_344:\n        /* \"#utility.yul\":1984:2206   */\n      swap3\n      swap2\n      pop\n      pop\n      jump\t// out\n        /* \"#utility.yul\":2212:2338   */\n    tag_282:\n        /* \"#utility.yul\":2249:2256   */\n      0x00\n        /* \"#utility.yul\":2289:2331   */\n      0xffffffffffffffffffffffffffffffffffffffff\n        /* \"#utility.yul\":2282:2287   */\n      dup3\n        /* \"#utility.yul\":2278:2332   */\n      and\n        /* \"#utility.yul\":2267:2332   */\n      swap1\n      pop\n        /* \"#utility.yul\":2212:2338   */\n      swap2\n      swap1\n      pop\n      jump\t// out\n        /* \"#utility.yul\":2344:2440   */\n    tag_283:\n        /* \"#utility.yul\":2381:2388   */\n      0x00\n        /* \"#utility.yul\":2410:2434   */\n      tag_347\n        /* \"#utility.yul\":2428:2433   */\n      dup3\n        /* \"#utility.yul\":2410:2434   */\n      tag_282\n      jump\t// in\n    tag_347:\n        /* \"#utility.yul\":2399:2434   */\n      swap1\n      pop\n        /* \"#utility.yul\":2344:2440   */\n      swap2\n      swap1\n      pop\n      jump\t// out\n        /* \"#utility.yul\":2446:2554   */\n    tag_284:\n        /* \"#utility.yul\":2523:2547   */\n      tag_349\n        /* \"#utility.yul\":2541:2546   */\n      dup2\n        /* \"#utility.yul\":2523:2547   */\n      tag_283\n      jump\t// in\n    tag_349:\n        /* \"#utility.yul\":2518:2521   */\n      dup3\n        /* \"#utility.yul\":2511:2548   */\n      mstore\n        /* \"#utility.yul\":2446:2554   */\n      pop\n      pop\n      jump\t// out\n        /* \"#utility.yul\":2560:2740   */\n    tag_81:\n        /* \"#utility.yul\":2608:2685   */\n      0x4e487b7100000000000000000000000000000000000000000000000000000000\n        /* \"#utility.yul\":2605:2606   */\n      0x00\n        /* \"#utility.yul\":2598:2686   */\n      mstore\n        /* \"#utility.yul\":2705:2709   */\n      0x21\n        /* \"#utility.yul\":2702:2703   */\n      0x04\n        /* \"#utility.yul\":2695:2710   */\n      mstore\n        /* \"#utility.yul\":2729:2733   */\n      0x24\n        /* \"#utility.yul\":2726:2727   */\n      0x00\n        /* \"#utility.yul\":2719:2734   */\n      revert\n        /* \"#utility.yul\":2746:2867   */\n    tag_285:\n        /* \"#utility.yul\":2835:2836   */\n      0x02\n        /* \"#utility.yul\":2828:2833   */\n      dup2\n        /* \"#utility.yul\":2825:2837   */\n      lt\n        /* \"#utility.yul\":2815:2861   */\n      tag_352\n      jumpi\n        /* \"#utility.yul\":2841:2859   */\n      tag_353\n      tag_81\n      jump\t// in\n    tag_353:\n        /* \"#utility.yul\":2815:2861   */\n    tag_352:\n        /* \"#utility.yul\":2746:2867   */\n      pop\n      jump\t// out\n        /* \"#utility.yul\":2873:3016   */\n    tag_286:\n        /* \"#utility.yul\":2926:2933   */\n      0x00\n        /* \"#utility.yul\":2955:2960   */\n      dup2\n        /* \"#utility.yul\":2944:2960   */\n      swap1\n      pop\n        /* \"#utility.yul\":2961:3010   */\n      tag_355\n        /* \"#utility.yul\":3004:3009   */\n      dup3\n        /* \"#utility.yul\":2961:3010   */\n      tag_285\n      jump\t// in\n    tag_355:\n        /* \"#utility.yul\":2873:3016   */\n      swap2\n      swap1\n      pop\n      jump\t// out\n        /* \"#utility.yul\":3022:3165   */\n    tag_287:\n        /* \"#utility.yul\":3086:3095   */\n      0x00\n        /* \"#utility.yul\":3119:3159   */\n      tag_357\n        /* \"#utility.yul\":3153:3158   */\n      dup3\n        /* \"#utility.yul\":3119:3159   */\n      tag_286\n      jump\t// in\n    tag_357:\n        /* \"#utility.yul\":3106:3159   */\n      swap1\n      pop\n        /* \"#utility.yul\":3022:3165   */\n      swap2\n      swap1\n      pop\n      jump\t// out\n        /* \"#utility.yul\":3171:3320   */\n    tag_288:\n        /* \"#utility.yul\":3262:3313   */\n      tag_359\n        /* \"#utility.yul\":3307:3312   */\n      dup2\n        /* \"#utility.yul\":3262:3313   */\n      tag_287\n      jump\t// in\n    tag_359:\n        /* \"#utility.yul\":3257:3260   */\n      dup3\n        /* \"#utility.yul\":3250:3314   */\n      mstore\n        /* \"#utility.yul\":3171:3320   */\n      pop\n      pop\n      jump\t// out\n        /* \"#utility.yul\":3326:3452   */\n    tag_289:\n        /* \"#utility.yul\":3420:3421   */\n      0x03\n        /* \"#utility.yul\":3413:3418   */\n      dup2\n        /* \"#utility.yul\":3410:3422   */\n      lt\n        /* \"#utility.yul\":3400:3446   */\n      tag_361\n      jumpi\n        /* \"#utility.yul\":3426:3444   */\n      tag_362\n      tag_81\n      jump\t// in\n    tag_362:\n        /* \"#utility.yul\":3400:3446   */\n    tag_361:\n        /* \"#utility.yul\":3326:3452   */\n      pop\n      jump\t// out\n        /* \"#utility.yul\":3458:3611   */\n    tag_290:\n        /* \"#utility.yul\":3516:3523   */\n      0x00\n        /* \"#utility.yul\":3545:3550   */\n      dup2\n        /* \"#utility.yul\":3534:3550   */\n      swap1\n      pop\n        /* \"#utility.yul\":3551:3605   */\n      tag_364\n        /* \"#utility.yul\":3599:3604   */\n      dup3\n        /* \"#utility.yul\":3551:3605   */\n      tag_289\n      jump\t// in\n    tag_364:\n        /* \"#utility.yul\":3458:3611   */\n      swap2\n      swap1\n      pop\n      jump\t// out\n        /* \"#utility.yul\":3617:3770   */\n    tag_291:\n        /* \"#utility.yul\":3686:3695   */\n      0x00\n        /* \"#utility.yul\":3719:3764   */\n      tag_366\n        /* \"#utility.yul\":3758:3763   */\n      dup3\n        /* \"#utility.yul\":3719:3764   */\n      tag_290\n      jump\t// in\n    tag_366:\n        /* \"#utility.yul\":3706:3764   */\n      swap1\n      pop\n        /* \"#utility.yul\":3617:3770   */\n      swap2\n      swap1\n      pop\n      jump\t// out\n        /* \"#utility.yul\":3776:3935   */\n    tag_292:\n        /* \"#utility.yul\":3872:3928   */\n      tag_368\n        /* \"#utility.yul\":3922:3927   */\n      dup2\n        /* \"#utility.yul\":3872:3928   */\n      tag_291\n      jump\t// in\n    tag_368:\n        /* \"#utility.yul\":3867:3870   */\n      dup3\n        /* \"#utility.yul\":3860:3929   */\n      mstore\n        /* \"#utility.yul\":3776:3935   */\n      pop\n      pop\n      jump\t// out\n        /* \"#utility.yul\":3941:4049   */\n    tag_293:\n        /* \"#utility.yul\":4018:4042   */\n      tag_370\n        /* \"#utility.yul\":4036:4041   */\n      dup2\n        /* \"#utility.yul\":4018:4042   */\n      tag_276\n      jump\t// in\n    tag_370:\n        /* \"#utility.yul\":4013:4016   */\n      dup3\n        /* \"#utility.yul\":4006:4043   */\n      mstore\n        /* \"#utility.yul\":3941:4049   */\n      pop\n      pop\n      jump\t// out\n        /* \"#utility.yul\":4151:5818   */\n    tag_294:\n        /* \"#utility.yul\":4324:4330   */\n      0x0100\n        /* \"#utility.yul\":4319:4322   */\n      dup3\n        /* \"#utility.yul\":4315:4331   */\n      add\n        /* \"#utility.yul\":4415:4419   */\n      0x00\n        /* \"#utility.yul\":4408:4413   */\n      dup3\n        /* \"#utility.yul\":4404:4420   */\n      add\n        /* \"#utility.yul\":4398:4421   */\n      mload\n        /* \"#utility.yul\":4434:4497   */\n      tag_372\n        /* \"#utility.yul\":4491:4495   */\n      0x00\n        /* \"#utility.yul\":4486:4489   */\n      dup6\n        /* \"#utility.yul\":4482:4496   */\n      add\n        /* \"#utility.yul\":4468:4480   */\n      dup3\n        /* \"#utility.yul\":4434:4497   */\n      tag_284\n      jump\t// in\n    tag_372:\n        /* \"#utility.yul\":4341:4507   */\n      pop\n        /* \"#utility.yul\":4598:4602   */\n      0x20\n        /* \"#utility.yul\":4591:4596   */\n      dup3\n        /* \"#utility.yul\":4587:4603   */\n      add\n        /* \"#utility.yul\":4581:4604   */\n      mload\n        /* \"#utility.yul\":4617:4694   */\n      tag_373\n        /* \"#utility.yul\":4688:4692   */\n      0x20\n        /* \"#utility.yul\":4683:4686   */\n      dup6\n        /* \"#utility.yul\":4679:4693   */\n      add\n        /* \"#utility.yul\":4665:4677   */\n      dup3\n        /* \"#utility.yul\":4617:4694   */\n      tag_288\n      jump\t// in\n    tag_373:\n        /* \"#utility.yul\":4517:4704   */\n      pop\n        /* \"#utility.yul\":4791:4795   */\n      0x40\n        /* \"#utility.yul\":4784:4789   */\n      dup3\n        /* \"#utility.yul\":4780:4796   */\n      add\n        /* \"#utility.yul\":4774:4797   */\n      mload\n        /* \"#utility.yul\":4810:4892   */\n      tag_374\n        /* \"#utility.yul\":4886:4890   */\n      0x40\n        /* \"#utility.yul\":4881:4884   */\n      dup6\n        /* \"#utility.yul\":4877:4891   */\n      add\n        /* \"#utility.yul\":4863:4875   */\n      dup3\n        /* \"#utility.yul\":4810:4892   */\n      tag_292\n      jump\t// in\n    tag_374:\n        /* \"#utility.yul\":4714:4902   */\n      pop\n        /* \"#utility.yul\":4989:4993   */\n      0x60\n        /* \"#utility.yul\":4982:4987   */\n      dup3\n        /* \"#utility.yul\":4978:4994   */\n      add\n        /* \"#utility.yul\":4972:4995   */\n      mload\n        /* \"#utility.yul\":5008:5071   */\n      tag_375\n        /* \"#utility.yul\":5065:5069   */\n      0x60\n        /* \"#utility.yul\":5060:5063   */\n      dup6\n        /* \"#utility.yul\":5056:5070   */\n      add\n        /* \"#utility.yul\":5042:5054   */\n      dup3\n        /* \"#utility.yul\":5008:5071   */\n      tag_293\n      jump\t// in\n    tag_375:\n        /* \"#utility.yul\":4912:5081   */\n      pop\n        /* \"#utility.yul\":5171:5175   */\n      0x80\n        /* \"#utility.yul\":5164:5169   */\n      dup3\n        /* \"#utility.yul\":5160:5176   */\n      add\n        /* \"#utility.yul\":5154:5177   */\n      mload\n        /* \"#utility.yul\":5190:5253   */\n      tag_376\n        /* \"#utility.yul\":5247:5251   */\n      0x80\n        /* \"#utility.yul\":5242:5245   */\n      dup6\n        /* \"#utility.yul\":5238:5252   */\n      add\n        /* \"#utility.yul\":5224:5236   */\n      dup3\n        /* \"#utility.yul\":5190:5253   */\n      tag_293\n      jump\t// in\n    tag_376:\n        /* \"#utility.yul\":5091:5263   */\n      pop\n        /* \"#utility.yul\":5357:5361   */\n      0xa0\n        /* \"#utility.yul\":5350:5355   */\n      dup3\n        /* \"#utility.yul\":5346:5362   */\n      add\n        /* \"#utility.yul\":5340:5363   */\n      mload\n        /* \"#utility.yul\":5376:5439   */\n      tag_377\n        /* \"#utility.yul\":5433:5437   */\n      0xa0\n        /* \"#utility.yul\":5428:5431   */\n      dup6\n        /* \"#utility.yul\":5424:5438   */\n      add\n        /* \"#utility.yul\":5410:5422   */\n      dup3\n        /* \"#utility.yul\":5376:5439   */\n      tag_293\n      jump\t// in\n    tag_377:\n        /* \"#utility.yul\":5273:5449   */\n      pop\n        /* \"#utility.yul\":5537:5541   */\n      0xc0\n        /* \"#utility.yul\":5530:5535   */\n      dup3\n        /* \"#utility.yul\":5526:5542   */\n      add\n        /* \"#utility.yul\":5520:5543   */\n      mload\n        /* \"#utility.yul\":5556:5619   */\n      tag_378\n        /* \"#utility.yul\":5613:5617   */\n      0xc0\n        /* \"#utility.yul\":5608:5611   */\n      dup6\n        /* \"#utility.yul\":5604:5618   */\n      add\n        /* \"#utility.yul\":5590:5602   */\n      dup3\n        /* \"#utility.yul\":5556:5619   */\n      tag_293\n      jump\t// in\n    tag_378:\n        /* \"#utility.yul\":5459:5629   */\n      pop\n        /* \"#utility.yul\":5719:5723   */\n      0xe0\n        /* \"#utility.yul\":5712:5717   */\n      dup3\n        /* \"#utility.yul\":5708:5724   */\n      add\n        /* \"#utility.yul\":5702:5725   */\n      mload\n        /* \"#utility.yul\":5738:5801   */\n      tag_379\n        /* \"#utility.yul\":5795:5799   */\n      0xe0\n        /* \"#utility.yul\":5790:5793   */\n      dup6\n        /* \"#utility.yul\":5786:5800   */\n      add\n        /* \"#utility.yul\":5772:5784   */\n      dup3\n        /* \"#utility.yul\":5738:5801   */\n      tag_293\n      jump\t// in\n    tag_379:\n        /* \"#utility.yul\":5639:5811   */\n      pop\n        /* \"#utility.yul\":4293:5818   */\n      pop\n        /* \"#utility.yul\":4151:5818   */\n      pop\n      pop\n      jump\t// out\n        /* \"#utility.yul\":5824:6199   */\n    tag_30:\n        /* \"#utility.yul\":5993:5997   */\n      0x00\n        /* \"#utility.yul\":6031:6034   */\n      0x0100\n        /* \"#utility.yul\":6020:6029   */\n      dup3\n        /* \"#utility.yul\":6016:6035   */\n      add\n        /* \"#utility.yul\":6008:6035   */\n      swap1\n      pop\n        /* \"#utility.yul\":6045:6192   */\n      tag_381\n        /* \"#utility.yul\":6189:6190   */\n      0x00\n        /* \"#utility.yul\":6178:6187   */\n      dup4\n        /* \"#utility.yul\":6174:6191   */\n      add\n        /* \"#utility.yul\":6165:6171   */\n      dup5\n        /* \"#utility.yul\":6045:6192   */\n      tag_294\n      jump\t// in\n    tag_381:\n        /* \"#utility.yul\":5824:6199   */\n      swap3\n      swap2\n      pop\n      pop\n      jump\t// out\n        /* \"#utility.yul\":6205:6323   */\n    tag_295:\n        /* \"#utility.yul\":6292:6316   */\n      tag_383\n        /* \"#utility.yul\":6310:6315   */\n      dup2\n        /* \"#utility.yul\":6292:6316   */\n      tag_283\n      jump\t// in\n    tag_383:\n        /* \"#utility.yul\":6287:6290   */\n      dup3\n        /* \"#utility.yul\":6280:6317   */\n      mstore\n        /* \"#utility.yul\":6205:6323   */\n      pop\n      pop\n      jump\t// out\n        /* \"#utility.yul\":6329:6551   */\n    tag_35:\n        /* \"#utility.yul\":6422:6426   */\n      0x00\n        /* \"#utility.yul\":6460:6462   */\n      0x20\n        /* \"#utility.yul\":6449:6458   */\n      dup3\n        /* \"#utility.yul\":6445:6463   */\n      add\n        /* \"#utility.yul\":6437:6463   */\n      swap1\n      pop\n        /* \"#utility.yul\":6473:6544   */\n      tag_385\n        /* \"#utility.yul\":6541:6542   */\n      0x00\n        /* \"#utility.yul\":6530:6539   */\n      dup4\n        /* \"#utility.yul\":6526:6543   */\n      add\n        /* \"#utility.yul\":6517:6523   */\n      dup5\n        /* \"#utility.yul\":6473:6544   */\n      tag_295\n      jump\t// in\n    tag_385:\n        /* \"#utility.yul\":6329:6551   */\n      swap3\n      swap2\n      pop\n      pop\n      jump\t// out\n        /* \"#utility.yul\":6557:6672   */\n    tag_296:\n        /* \"#utility.yul\":6646:6647   */\n      0x02\n        /* \"#utility.yul\":6639:6644   */\n      dup2\n        /* \"#utility.yul\":6636:6648   */\n      lt\n        /* \"#utility.yul\":6626:6666   */\n      tag_387\n      jumpi\n        /* \"#utility.yul\":6662:6663   */\n      0x00\n        /* \"#utility.yul\":6659:6660   */\n      dup1\n        /* \"#utility.yul\":6652:6664   */\n      revert\n        /* \"#utility.yul\":6626:6666   */\n    tag_387:\n        /* \"#utility.yul\":6557:6672   */\n      pop\n      jump\t// out\n        /* \"#utility.yul\":6678:6849   */\n    tag_297:\n        /* \"#utility.yul\":6740:6745   */\n      0x00\n        /* \"#utility.yul\":6778:6784   */\n      dup2\n        /* \"#utility.yul\":6765:6785   */\n      calldataload\n        /* \"#utility.yul\":6756:6785   */\n      swap1\n      pop\n        /* \"#utility.yul\":6794:6843   */\n      tag_389\n        /* \"#utility.yul\":6837:6842   */\n      dup2\n        /* \"#utility.yul\":6794:6843   */\n      tag_296\n      jump\t// in\n    tag_389:\n        /* \"#utility.yul\":6678:6849   */\n      swap3\n      swap2\n      pop\n      pop\n      jump\t// out\n        /* \"#utility.yul\":6855:7548   */\n    tag_38:\n        /* \"#utility.yul\":6969:6975   */\n      0x00\n        /* \"#utility.yul\":6977:6983   */\n      dup1\n        /* \"#utility.yul\":6985:6991   */\n      0x00\n        /* \"#utility.yul\":7034:7036   */\n      0x60\n        /* \"#utility.yul\":7022:7031   */\n      dup5\n        /* \"#utility.yul\":7013:7020   */\n      dup7\n        /* \"#utility.yul\":7009:7032   */\n      sub\n        /* \"#utility.yul\":7005:7037   */\n      slt\n        /* \"#utility.yul\":7002:7121   */\n      iszero\n      tag_391\n      jumpi\n        /* \"#utility.yul\":7040:7119   */\n      tag_392\n      tag_274\n      jump\t// in\n    tag_392:\n        /* \"#utility.yul\":7002:7121   */\n    tag_391:\n        /* \"#utility.yul\":7160:7161   */\n      0x00\n        /* \"#utility.yul\":7185:7259   */\n      tag_393\n        /* \"#utility.yul\":7251:7258   */\n      dup7\n        /* \"#utility.yul\":7242:7248   */\n      dup3\n        /* \"#utility.yul\":7231:7240   */\n      dup8\n        /* \"#utility.yul\":7227:7249   */\n      add\n        /* \"#utility.yul\":7185:7259   */\n      tag_280\n      jump\t// in\n    tag_393:\n        /* \"#utility.yul\":7175:7259   */\n      swap4\n      pop\n        /* \"#utility.yul\":7131:7269   */\n      pop\n        /* \"#utility.yul\":7308:7310   */\n      0x20\n        /* \"#utility.yul\":7334:7387   */\n      tag_394\n        /* \"#utility.yul\":7379:7386   */\n      dup7\n        /* \"#utility.yul\":7370:7376   */\n      dup3\n        /* \"#utility.yul\":7359:7368   */\n      dup8\n        /* \"#utility.yul\":7355:7377   */\n      add\n        /* \"#utility.yul\":7334:7387   */\n      tag_278\n      jump\t// in\n    tag_394:\n        /* \"#utility.yul\":7324:7387   */\n      swap3\n      pop\n        /* \"#utility.yul\":7279:7397   */\n      pop\n        /* \"#utility.yul\":7436:7438   */\n      0x40\n        /* \"#utility.yul\":7462:7531   */\n      tag_395\n        /* \"#utility.yul\":7523:7530   */\n      dup7\n        /* \"#utility.yul\":7514:7520   */\n      dup3\n        /* \"#utility.yul\":7503:7512   */\n      dup8\n        /* \"#utility.yul\":7499:7521   */\n      add\n        /* \"#utility.yul\":7462:7531   */\n      tag_297\n      jump\t// in\n    tag_395:\n        /* \"#utility.yul\":7452:7531   */\n      swap2\n      pop\n        /* \"#utility.yul\":7407:7541   */\n      pop\n        /* \"#utility.yul\":6855:7548   */\n      swap3\n      pop\n      swap3\n      pop\n      swap3\n      jump\t// out\n        /* \"#utility.yul\":7554:8205   */\n    tag_43:\n        /* \"#utility.yul\":7647:7653   */\n      0x00\n        /* \"#utility.yul\":7655:7661   */\n      dup1\n        /* \"#utility.yul\":7663:7669   */\n      0x00\n        /* \"#utility.yul\":7712:7714   */\n      0x60\n        /* \"#utility.yul\":7700:7709   */\n      dup5\n        /* \"#utility.yul\":7691:7698   */\n      dup7\n        /* \"#utility.yul\":7687:7710   */\n      sub\n        /* \"#utility.yul\":7683:7715   */\n      slt\n        /* \"#utility.yul\":7680:7799   */\n      iszero\n      tag_397\n      jumpi\n        /* \"#utility.yul\":7718:7797   */\n      tag_398\n      tag_274\n      jump\t// in\n    tag_398:\n        /* \"#utility.yul\":7680:7799   */\n    tag_397:\n        /* \"#utility.yul\":7838:7839   */\n      0x00\n        /* \"#utility.yul\":7863:7916   */\n      tag_399\n        /* \"#utility.yul\":7908:7915   */\n      dup7\n        /* \"#utility.yul\":7899:7905   */\n      dup3\n        /* \"#utility.yul\":7888:7897   */\n      dup8\n        /* \"#utility.yul\":7884:7906   */\n      add\n        /* \"#utility.yul\":7863:7916   */\n      tag_278\n      jump\t// in\n    tag_399:\n        /* \"#utility.yul\":7853:7916   */\n      swap4\n      pop\n        /* \"#utility.yul\":7809:7926   */\n      pop\n        /* \"#utility.yul\":7965:7967   */\n      0x20\n        /* \"#utility.yul\":7991:8044   */\n      tag_400\n        /* \"#utility.yul\":8036:8043   */\n      dup7\n        /* \"#utility.yul\":8027:8033   */\n      dup3\n        /* \"#utility.yul\":8016:8025   */\n      dup8\n        /* \"#utility.yul\":8012:8034   */\n      add\n        /* \"#utility.yul\":7991:8044   */\n      tag_278\n      jump\t// in\n    tag_400:\n        /* \"#utility.yul\":7981:8044   */\n      swap3\n      pop\n        /* \"#utility.yul\":7936:8054   */\n      pop\n        /* \"#utility.yul\":8093:8095   */\n      0x40\n        /* \"#utility.yul\":8119:8188   */\n      tag_401\n        /* \"#utility.yul\":8180:8187   */\n      dup7\n        /* \"#utility.yul\":8171:8177   */\n      dup3\n        /* \"#utility.yul\":8160:8169   */\n      dup8\n        /* \"#utility.yul\":8156:8178   */\n      add\n        /* \"#utility.yul\":8119:8188   */\n      tag_297\n      jump\t// in\n    tag_401:\n        /* \"#utility.yul\":8109:8188   */\n      swap2\n      pop\n        /* \"#utility.yul\":8064:8198   */\n      pop\n        /* \"#utility.yul\":7554:8205   */\n      swap3\n      pop\n      swap3\n      pop\n      swap3\n      jump\t// out\n        /* \"#utility.yul\":8211:8380   */\n    tag_298:\n        /* \"#utility.yul\":8295:8306   */\n      0x00\n        /* \"#utility.yul\":8329:8335   */\n      dup3\n        /* \"#utility.yul\":8324:8327   */\n      dup3\n        /* \"#utility.yul\":8317:8336   */\n      mstore\n        /* \"#utility.yul\":8369:8373   */\n      0x20\n        /* \"#utility.yul\":8364:8367   */\n      dup3\n        /* \"#utility.yul\":8360:8374   */\n      add\n        /* \"#utility.yul\":8345:8374   */\n      swap1\n      pop\n        /* \"#utility.yul\":8211:8380   */\n      swap3\n      swap2\n      pop\n      pop\n      jump\t// out\n        /* \"#utility.yul\":8386:8562   */\n    tag_299:\n        /* \"#utility.yul\":8526:8554   */\n      0x54686520636c69656e74206973206e6f7420696e73757265642e000000000000\n        /* \"#utility.yul\":8522:8523   */\n      0x00\n        /* \"#utility.yul\":8514:8520   */\n      dup3\n        /* \"#utility.yul\":8510:8524   */\n      add\n        /* \"#utility.yul\":8503:8555   */\n      mstore\n        /* \"#utility.yul\":8386:8562   */\n      pop\n      jump\t// out\n        /* \"#utility.yul\":8568:8934   */\n    tag_300:\n        /* \"#utility.yul\":8710:8713   */\n      0x00\n        /* \"#utility.yul\":8731:8798   */\n      tag_405\n        /* \"#utility.yul\":8795:8797   */\n      0x1a\n        /* \"#utility.yul\":8790:8793   */\n      dup4\n        /* \"#utility.yul\":8731:8798   */\n      tag_298\n      jump\t// in\n    tag_405:\n        /* \"#utility.yul\":8724:8798   */\n      swap2\n      pop\n        /* \"#utility.yul\":8807:8900   */\n      tag_406\n        /* \"#utility.yul\":8896:8899   */\n      dup3\n        /* \"#utility.yul\":8807:8900   */\n      tag_299\n      jump\t// in\n    tag_406:\n        /* \"#utility.yul\":8925:8927   */\n      0x20\n        /* \"#utility.yul\":8920:8923   */\n      dup3\n        /* \"#utility.yul\":8916:8928   */\n      add\n        /* \"#utility.yul\":8909:8928   */\n      swap1\n      pop\n        /* \"#utility.yul\":8568:8934   */\n      swap2\n      swap1\n      pop\n      jump\t// out\n        /* \"#utility.yul\":8940:9359   */\n    tag_55:\n        /* \"#utility.yul\":9106:9110   */\n      0x00\n        /* \"#utility.yul\":9144:9146   */\n      0x20\n        /* \"#utility.yul\":9133:9142   */\n      dup3\n        /* \"#utility.yul\":9129:9147   */\n      add\n        /* \"#utility.yul\":9121:9147   */\n      swap1\n      pop\n        /* \"#utility.yul\":9193:9202   */\n      dup2\n        /* \"#utility.yul\":9187:9191   */\n      dup2\n        /* \"#utility.yul\":9183:9203   */\n      sub\n        /* \"#utility.yul\":9179:9180   */\n      0x00\n        /* \"#utility.yul\":9168:9177   */\n      dup4\n        /* \"#utility.yul\":9164:9181   */\n      add\n        /* \"#utility.yul\":9157:9204   */\n      mstore\n        /* \"#utility.yul\":9221:9352   */\n      tag_408\n        /* \"#utility.yul\":9347:9351   */\n      dup2\n        /* \"#utility.yul\":9221:9352   */\n      tag_300\n      jump\t// in\n    tag_408:\n        /* \"#utility.yul\":9213:9352   */\n      swap1\n      pop\n        /* \"#utility.yul\":8940:9359   */\n      swap2\n      swap1\n      pop\n      jump\t// out\n        /* \"#utility.yul\":9365:9464   */\n    tag_301:\n        /* \"#utility.yul\":9417:9423   */\n      0x00\n        /* \"#utility.yul\":9451:9456   */\n      dup2\n        /* \"#utility.yul\":9445:9457   */\n      mload\n        /* \"#utility.yul\":9435:9457   */\n      swap1\n      pop\n        /* \"#utility.yul\":9365:9464   */\n      swap2\n      swap1\n      pop\n      jump\t// out\n        /* \"#utility.yul\":9470:9618   */\n    tag_302:\n        /* \"#utility.yul\":9572:9583   */\n      0x00\n        /* \"#utility.yul\":9609:9612   */\n      dup2\n        /* \"#utility.yul\":9594:9612   */\n      swap1\n      pop\n        /* \"#utility.yul\":9470:9618   */\n      swap3\n      swap2\n      pop\n      pop\n      jump\t// out\n        /* \"#utility.yul\":9624:9870   */\n    tag_303:\n        /* \"#utility.yul\":9705:9706   */\n      0x00\n        /* \"#utility.yul\":9715:9828   */\n    tag_412:\n        /* \"#utility.yul\":9729:9735   */\n      dup4\n        /* \"#utility.yul\":9726:9727   */\n      dup2\n        /* \"#utility.yul\":9723:9736   */\n      lt\n        /* \"#utility.yul\":9715:9828   */\n      iszero\n      tag_414\n      jumpi\n        /* \"#utility.yul\":9814:9815   */\n      dup1\n        /* \"#utility.yul\":9809:9812   */\n      dup3\n        /* \"#utility.yul\":9805:9816   */\n      add\n        /* \"#utility.yul\":9799:9817   */\n      mload\n        /* \"#utility.yul\":9795:9796   */\n      dup2\n        /* \"#utility.yul\":9790:9793   */\n      dup5\n        /* \"#utility.yul\":9786:9797   */\n      add\n        /* \"#utility.yul\":9779:9818   */\n      mstore\n        /* \"#utility.yul\":9751:9753   */\n      0x20\n        /* \"#utility.yul\":9748:9749   */\n      dup2\n        /* \"#utility.yul\":9744:9754   */\n      add\n        /* \"#utility.yul\":9739:9754   */\n      swap1\n      pop\n        /* \"#utility.yul\":9715:9828   */\n      jump(tag_412)\n    tag_414:\n        /* \"#utility.yul\":9862:9863   */\n      0x00\n        /* \"#utility.yul\":9853:9859   */\n      dup5\n        /* \"#utility.yul\":9848:9851   */\n      dup5\n        /* \"#utility.yul\":9844:9860   */\n      add\n        /* \"#utility.yul\":9837:9864   */\n      mstore\n        /* \"#utility.yul\":9686:9870   */\n      pop\n        /* \"#utility.yul\":9624:9870   */\n      pop\n      pop\n      pop\n      jump\t// out\n        /* \"#utility.yul\":9876:10266   */\n    tag_304:\n        /* \"#utility.yul\":9982:9985   */\n      0x00\n        /* \"#utility.yul\":10010:10049   */\n      tag_416\n        /* \"#utility.yul\":10043:10048   */\n      dup3\n        /* \"#utility.yul\":10010:10049   */\n      tag_301\n      jump\t// in\n    tag_416:\n        /* \"#utility.yul\":10065:10154   */\n      tag_417\n        /* \"#utility.yul\":10147:10153   */\n      dup2\n        /* \"#utility.yul\":10142:10145   */\n      dup6\n        /* \"#utility.yul\":10065:10154   */\n      tag_302\n      jump\t// in\n    tag_417:\n        /* \"#utility.yul\":10058:10154   */\n      swap4\n      pop\n        /* \"#utility.yul\":10163:10228   */\n      tag_418\n        /* \"#utility.yul\":10221:10227   */\n      dup2\n        /* \"#utility.yul\":10216:10219   */\n      dup6\n        /* \"#utility.yul\":10209:10213   */\n      0x20\n        /* \"#utility.yul\":10202:10207   */\n      dup7\n        /* \"#utility.yul\":10198:10214   */\n      add\n        /* \"#utility.yul\":10163:10228   */\n      tag_303\n      jump\t// in\n    tag_418:\n        /* \"#utility.yul\":10253:10259   */\n      dup1\n        /* \"#utility.yul\":10248:10251   */\n      dup5\n        /* \"#utility.yul\":10244:10260   */\n      add\n        /* \"#utility.yul\":10237:10260   */\n      swap2\n      pop\n        /* \"#utility.yul\":9986:10266   */\n      pop\n        /* \"#utility.yul\":9876:10266   */\n      swap3\n      swap2\n      pop\n      pop\n      jump\t// out\n        /* \"#utility.yul\":10272:10547   */\n    tag_60:\n        /* \"#utility.yul\":10404:10407   */\n      0x00\n        /* \"#utility.yul\":10426:10521   */\n      tag_420\n        /* \"#utility.yul\":10517:10520   */\n      dup3\n        /* \"#utility.yul\":10508:10514   */\n      dup5\n        /* \"#utility.yul\":10426:10521   */\n      tag_304\n      jump\t// in\n    tag_420:\n        /* \"#utility.yul\":10419:10521   */\n      swap2\n      pop\n        /* \"#utility.yul\":10538:10541   */\n      dup2\n        /* \"#utility.yul\":10531:10541   */\n      swap1\n      pop\n        /* \"#utility.yul\":10272:10547   */\n      swap3\n      swap2\n      pop\n      pop\n      jump\t// out\n        /* \"#utility.yul\":10553:10791   */\n    tag_305:\n        /* \"#utility.yul\":10693:10727   */\n      0x5468657265206973206e6f207265636f726420666f7220746865207265717569\n        /* \"#utility.yul\":10689:10690   */\n      0x00\n        /* \"#utility.yul\":10681:10687   */\n      dup3\n        /* \"#utility.yul\":10677:10691   */\n      add\n        /* \"#utility.yul\":10670:10728   */\n      mstore\n        /* \"#utility.yul\":10762:10783   */\n      0x7265642079656172206f7220726567696f6e2e00000000000000000000000000\n        /* \"#utility.yul\":10757:10759   */\n      0x20\n        /* \"#utility.yul\":10749:10755   */\n      dup3\n        /* \"#utility.yul\":10745:10760   */\n      add\n        /* \"#utility.yul\":10738:10784   */\n      mstore\n        /* \"#utility.yul\":10553:10791   */\n      pop\n      jump\t// out\n        /* \"#utility.yul\":10797:11163   */\n    tag_306:\n        /* \"#utility.yul\":10939:10942   */\n      0x00\n        /* \"#utility.yul\":10960:11027   */\n      tag_423\n        /* \"#utility.yul\":11024:11026   */\n      0x33\n        /* \"#utility.yul\":11019:11022   */\n      dup4\n        /* \"#utility.yul\":10960:11027   */\n      tag_298\n      jump\t// in\n    tag_423:\n        /* \"#utility.yul\":10953:11027   */\n      swap2\n      pop\n        /* \"#utility.yul\":11036:11129   */\n      tag_424\n        /* \"#utility.yul\":11125:11128   */\n      dup3\n        /* \"#utility.yul\":11036:11129   */\n      tag_305\n      jump\t// in\n    tag_424:\n        /* \"#utility.yul\":11154:11156   */\n      0x40\n        /* \"#utility.yul\":11149:11152   */\n      dup3\n        /* \"#utility.yul\":11145:11157   */\n      add\n        /* \"#utility.yul\":11138:11157   */\n      swap1\n      pop\n        /* \"#utility.yul\":10797:11163   */\n      swap2\n      swap1\n      pop\n      jump\t// out\n        /* \"#utility.yul\":11169:11588   */\n    tag_63:\n        /* \"#utility.yul\":11335:11339   */\n      0x00\n        /* \"#utility.yul\":11373:11375   */\n      0x20\n        /* \"#utility.yul\":11362:11371   */\n      dup3\n        /* \"#utility.yul\":11358:11376   */\n      add\n        /* \"#utility.yul\":11350:11376   */\n      swap1\n      pop\n        /* \"#utility.yul\":11422:11431   */\n      dup2\n        /* \"#utility.yul\":11416:11420   */\n      dup2\n        /* \"#utility.yul\":11412:11432   */\n      sub\n        /* \"#utility.yul\":11408:11409   */\n      0x00\n        /* \"#utility.yul\":11397:11406   */\n      dup4\n        /* \"#utility.yul\":11393:11410   */\n      add\n        /* \"#utility.yul\":11386:11433   */\n      mstore\n        /* \"#utility.yul\":11450:11581   */\n      tag_426\n        /* \"#utility.yul\":11576:11580   */\n      dup2\n        /* \"#utility.yul\":11450:11581   */\n      tag_306\n      jump\t// in\n    tag_426:\n        /* \"#utility.yul\":11442:11581   */\n      swap1\n      pop\n        /* \"#utility.yul\":11169:11588   */\n      swap2\n      swap1\n      pop\n      jump\t// out\n        /* \"#utility.yul\":11594:11774   */\n    tag_307:\n        /* \"#utility.yul\":11642:11719   */\n      0x4e487b7100000000000000000000000000000000000000000000000000000000\n        /* \"#utility.yul\":11639:11640   */\n      0x00\n        /* \"#utility.yul\":11632:11720   */\n      mstore\n        /* \"#utility.yul\":11739:11743   */\n      0x11\n        /* \"#utility.yul\":11736:11737   */\n      0x04\n        /* \"#utility.yul\":11729:11744   */\n      mstore\n        /* \"#utility.yul\":11763:11767   */\n      0x24\n        /* \"#utility.yul\":11760:11761   */\n      0x00\n        /* \"#utility.yul\":11753:11768   */\n      revert\n        /* \"#utility.yul\":11780:11971   */\n    tag_73:\n        /* \"#utility.yul\":11820:11823   */\n      0x00\n        /* \"#utility.yul\":11839:11859   */\n      tag_429\n        /* \"#utility.yul\":11857:11858   */\n      dup3\n        /* \"#utility.yul\":11839:11859   */\n      tag_276\n      jump\t// in\n    tag_429:\n        /* \"#utility.yul\":11834:11859   */\n      swap2\n      pop\n        /* \"#utility.yul\":11873:11893   */\n      tag_430\n        /* \"#utility.yul\":11891:11892   */\n      dup4\n        /* \"#utility.yul\":11873:11893   */\n      tag_276\n      jump\t// in\n    tag_430:\n        /* \"#utility.yul\":11868:11893   */\n      swap3\n      pop\n        /* \"#utility.yul\":11916:11917   */\n      dup3\n        /* \"#utility.yul\":11913:11914   */\n      dup3\n        /* \"#utility.yul\":11909:11918   */\n      add\n        /* \"#utility.yul\":11902:11918   */\n      swap1\n      pop\n        /* \"#utility.yul\":11937:11940   */\n      dup1\n        /* \"#utility.yul\":11934:11935   */\n      dup3\n        /* \"#utility.yul\":11931:11941   */\n      gt\n        /* \"#utility.yul\":11928:11964   */\n      iszero\n      tag_431\n      jumpi\n        /* \"#utility.yul\":11944:11962   */\n      tag_432\n      tag_307\n      jump\t// in\n    tag_432:\n        /* \"#utility.yul\":11928:11964   */\n    tag_431:\n        /* \"#utility.yul\":11780:11971   */\n      swap3\n      swap2\n      pop\n      pop\n      jump\t// out\n        /* \"#utility.yul\":11977:12387   */\n    tag_85:\n        /* \"#utility.yul\":12017:12024   */\n      0x00\n        /* \"#utility.yul\":12040:12060   */\n      tag_434\n        /* \"#utility.yul\":12058:12059   */\n      dup3\n        /* \"#utility.yul\":12040:12060   */\n      tag_276\n      jump\t// in\n    tag_434:\n        /* \"#utility.yul\":12035:12060   */\n      swap2\n      pop\n        /* \"#utility.yul\":12074:12094   */\n      tag_435\n        /* \"#utility.yul\":12092:12093   */\n      dup4\n        /* \"#utility.yul\":12074:12094   */\n      tag_276\n      jump\t// in\n    tag_435:\n        /* \"#utility.yul\":12069:12094   */\n      swap3\n      pop\n        /* \"#utility.yul\":12129:12130   */\n      dup3\n        /* \"#utility.yul\":12126:12127   */\n      dup3\n        /* \"#utility.yul\":12122:12131   */\n      mul\n        /* \"#utility.yul\":12151:12181   */\n      tag_436\n        /* \"#utility.yul\":12169:12180   */\n      dup2\n        /* \"#utility.yul\":12151:12181   */\n      tag_276\n      jump\t// in\n    tag_436:\n        /* \"#utility.yul\":12140:12181   */\n      swap2\n      pop\n        /* \"#utility.yul\":12330:12331   */\n      dup3\n        /* \"#utility.yul\":12321:12328   */\n      dup3\n        /* \"#utility.yul\":12317:12332   */\n      div\n        /* \"#utility.yul\":12314:12315   */\n      dup5\n        /* \"#utility.yul\":12311:12333   */\n      eq\n        /* \"#utility.yul\":12291:12292   */\n      dup4\n        /* \"#utility.yul\":12284:12293   */\n      iszero\n        /* \"#utility.yul\":12264:12347   */\n      or\n        /* \"#utility.yul\":12241:12380   */\n      tag_437\n      jumpi\n        /* \"#utility.yul\":12360:12378   */\n      tag_438\n      tag_307\n      jump\t// in\n    tag_438:\n        /* \"#utility.yul\":12241:12380   */\n    tag_437:\n        /* \"#utility.yul\":12025:12387   */\n      pop\n        /* \"#utility.yul\":11977:12387   */\n      swap3\n      swap2\n      pop\n      pop\n      jump\t// out\n        /* \"#utility.yul\":12393:12638   */\n    tag_308:\n        /* \"#utility.yul\":12533:12567   */\n      0x546865207072656d69756d206d75737420626520636f766572656420746f2072\n        /* \"#utility.yul\":12529:12530   */\n      0x00\n        /* \"#utility.yul\":12521:12527   */\n      dup3\n        /* \"#utility.yul\":12517:12531   */\n      add\n        /* \"#utility.yul\":12510:12568   */\n      mstore\n        /* \"#utility.yul\":12602:12630   */\n      0x65676973746572206f722072656e6577206120706f6c6963792e000000000000\n        /* \"#utility.yul\":12597:12599   */\n      0x20\n        /* \"#utility.yul\":12589:12595   */\n      dup3\n        /* \"#utility.yul\":12585:12600   */\n      add\n        /* \"#utility.yul\":12578:12631   */\n      mstore\n        /* \"#utility.yul\":12393:12638   */\n      pop\n      jump\t// out\n        /* \"#utility.yul\":12644:13010   */\n    tag_309:\n        /* \"#utility.yul\":12786:12789   */\n      0x00\n        /* \"#utility.yul\":12807:12874   */\n      tag_441\n        /* \"#utility.yul\":12871:12873   */\n      0x3a\n        /* \"#utility.yul\":12866:12869   */\n      dup4\n        /* \"#utility.yul\":12807:12874   */\n      tag_298\n      jump\t// in\n    tag_441:\n        /* \"#utility.yul\":12800:12874   */\n      swap2\n      pop\n        /* \"#utility.yul\":12883:12976   */\n      tag_442\n        /* \"#utility.yul\":12972:12975   */\n      dup3\n        /* \"#utility.yul\":12883:12976   */\n      tag_308\n      jump\t// in\n    tag_442:\n        /* \"#utility.yul\":13001:13003   */\n      0x40\n        /* \"#utility.yul\":12996:12999   */\n      dup3\n        /* \"#utility.yul\":12992:13004   */\n      add\n        /* \"#utility.yul\":12985:13004   */\n      swap1\n      pop\n        /* \"#utility.yul\":12644:13010   */\n      swap2\n      swap1\n      pop\n      jump\t// out\n        /* \"#utility.yul\":13016:13435   */\n    tag_88:\n        /* \"#utility.yul\":13182:13186   */\n      0x00\n        /* \"#utility.yul\":13220:13222   */\n      0x20\n        /* \"#utility.yul\":13209:13218   */\n      dup3\n        /* \"#utility.yul\":13205:13223   */\n      add\n        /* \"#utility.yul\":13197:13223   */\n      swap1\n      pop\n        /* \"#utility.yul\":13269:13278   */\n      dup2\n        /* \"#utility.yul\":13263:13267   */\n      dup2\n        /* \"#utility.yul\":13259:13279   */\n      sub\n        /* \"#utility.yul\":13255:13256   */\n      0x00\n        /* \"#utility.yul\":13244:13253   */\n      dup4\n        /* \"#utility.yul\":13240:13257   */\n      add\n        /* \"#utility.yul\":13233:13280   */\n      mstore\n        /* \"#utility.yul\":13297:13428   */\n      tag_444\n        /* \"#utility.yul\":13423:13427   */\n      dup2\n        /* \"#utility.yul\":13297:13428   */\n      tag_309\n      jump\t// in\n    tag_444:\n        /* \"#utility.yul\":13289:13428   */\n      swap1\n      pop\n        /* \"#utility.yul\":13016:13435   */\n      swap2\n      swap1\n      pop\n      jump\t// out\n        /* \"#utility.yul\":13441:13621   */\n    tag_310:\n        /* \"#utility.yul\":13581:13613   */\n      0x54686520636c69656e7420697320616c726561647920696e73757265642e0000\n        /* \"#utility.yul\":13577:13578   */\n      0x00\n        /* \"#utility.yul\":13569:13575   */\n      dup3\n        /* \"#utility.yul\":13565:13579   */\n      add\n        /* \"#utility.yul\":13558:13614   */\n      mstore\n        /* \"#utility.yul\":13441:13621   */\n      pop\n      jump\t// out\n        /* \"#utility.yul\":13627:13993   */\n    tag_311:\n        /* \"#utility.yul\":13769:13772   */\n      0x00\n        /* \"#utility.yul\":13790:13857   */\n      tag_447\n        /* \"#utility.yul\":13854:13856   */\n      0x1e\n        /* \"#utility.yul\":13849:13852   */\n      dup4\n        /* \"#utility.yul\":13790:13857   */\n      tag_298\n      jump\t// in\n    tag_447:\n        /* \"#utility.yul\":13783:13857   */\n      swap2\n      pop\n        /* \"#utility.yul\":13866:13959   */\n      tag_448\n        /* \"#utility.yul\":13955:13958   */\n      dup3\n        /* \"#utility.yul\":13866:13959   */\n      tag_310\n      jump\t// in\n    tag_448:\n        /* \"#utility.yul\":13984:13986   */\n      0x20\n        /* \"#utility.yul\":13979:13982   */\n      dup3\n        /* \"#utility.yul\":13975:13987   */\n      add\n        /* \"#utility.yul\":13968:13987   */\n      swap1\n      pop\n        /* \"#utility.yul\":13627:13993   */\n      swap2\n      swap1\n      pop\n      jump\t// out\n        /* \"#utility.yul\":13999:14418   */\n    tag_117:\n        /* \"#utility.yul\":14165:14169   */\n      0x00\n        /* \"#utility.yul\":14203:14205   */\n      0x20\n        /* \"#utility.yul\":14192:14201   */\n      dup3\n        /* \"#utility.yul\":14188:14206   */\n      add\n        /* \"#utility.yul\":14180:14206   */\n      swap1\n      pop\n        /* \"#utility.yul\":14252:14261   */\n      dup2\n        /* \"#utility.yul\":14246:14250   */\n      dup2\n        /* \"#utility.yul\":14242:14262   */\n      sub\n        /* \"#utility.yul\":14238:14239   */\n      0x00\n        /* \"#utility.yul\":14227:14236   */\n      dup4\n        /* \"#utility.yul\":14223:14240   */\n      add\n        /* \"#utility.yul\":14216:14263   */\n      mstore\n        /* \"#utility.yul\":14280:14411   */\n      tag_450\n        /* \"#utility.yul\":14406:14410   */\n      dup2\n        /* \"#utility.yul\":14280:14411   */\n      tag_311\n      jump\t// in\n    tag_450:\n        /* \"#utility.yul\":14272:14411   */\n      swap1\n      pop\n        /* \"#utility.yul\":13999:14418   */\n      swap2\n      swap1\n      pop\n      jump\t// out\n        /* \"#utility.yul\":14424:14604   */\n    tag_247:\n        /* \"#utility.yul\":14472:14549   */\n      0x4e487b7100000000000000000000000000000000000000000000000000000000\n        /* \"#utility.yul\":14469:14470   */\n      0x00\n        /* \"#utility.yul\":14462:14550   */\n      mstore\n        /* \"#utility.yul\":14569:14573   */\n      0x12\n        /* \"#utility.yul\":14566:14567   */\n      0x04\n        /* \"#utility.yul\":14559:14574   */\n      mstore\n        /* \"#utility.yul\":14593:14597   */\n      0x24\n        /* \"#utility.yul\":14590:14591   */\n      0x00\n        /* \"#utility.yul\":14583:14598   */\n      revert\n        /* \"#utility.yul\":14610:14795   */\n    tag_143:\n        /* \"#utility.yul\":14650:14651   */\n      0x00\n        /* \"#utility.yul\":14667:14687   */\n      tag_453\n        /* \"#utility.yul\":14685:14686   */\n      dup3\n        /* \"#utility.yul\":14667:14687   */\n      tag_276\n      jump\t// in\n    tag_453:\n        /* \"#utility.yul\":14662:14687   */\n      swap2\n      pop\n        /* \"#utility.yul\":14701:14721   */\n      tag_454\n        /* \"#utility.yul\":14719:14720   */\n      dup4\n        /* \"#utility.yul\":14701:14721   */\n      tag_276\n      jump\t// in\n    tag_454:\n        /* \"#utility.yul\":14696:14721   */\n      swap3\n      pop\n        /* \"#utility.yul\":14740:14741   */\n      dup3\n        /* \"#utility.yul\":14730:14765   */\n      tag_455\n      jumpi\n        /* \"#utility.yul\":14745:14763   */\n      tag_456\n      tag_247\n      jump\t// in\n    tag_456:\n        /* \"#utility.yul\":14730:14765   */\n    tag_455:\n        /* \"#utility.yul\":14787:14788   */\n      dup3\n        /* \"#utility.yul\":14784:14785   */\n      dup3\n        /* \"#utility.yul\":14780:14789   */\n      div\n        /* \"#utility.yul\":14775:14789   */\n      swap1\n      pop\n        /* \"#utility.yul\":14610:14795   */\n      swap3\n      swap2\n      pop\n      pop\n      jump\t// out\n        /* \"#utility.yul\":14801:14982   */\n    tag_312:\n        /* \"#utility.yul\":14941:14974   */\n      0x43616e6e6f74206c6f61642074686520636f6e74726163742077697468203000\n        /* \"#utility.yul\":14937:14938   */\n      0x00\n        /* \"#utility.yul\":14929:14935   */\n      dup3\n        /* \"#utility.yul\":14925:14939   */\n      add\n        /* \"#utility.yul\":14918:14975   */\n      mstore\n        /* \"#utility.yul\":14801:14982   */\n      pop\n      jump\t// out\n        /* \"#utility.yul\":14988:15354   */\n    tag_313:\n        /* \"#utility.yul\":15130:15133   */\n      0x00\n        /* \"#utility.yul\":15151:15218   */\n      tag_459\n        /* \"#utility.yul\":15215:15217   */\n      0x1f\n        /* \"#utility.yul\":15210:15213   */\n      dup4\n        /* \"#utility.yul\":15151:15218   */\n      tag_298\n      jump\t// in\n    tag_459:\n        /* \"#utility.yul\":15144:15218   */\n      swap2\n      pop\n        /* \"#utility.yul\":15227:15320   */\n      tag_460\n        /* \"#utility.yul\":15316:15319   */\n      dup3\n        /* \"#utility.yul\":15227:15320   */\n      tag_312\n      jump\t// in\n    tag_460:\n        /* \"#utility.yul\":15345:15347   */\n      0x20\n        /* \"#utility.yul\":15340:15343   */\n      dup3\n        /* \"#utility.yul\":15336:15348   */\n      add\n        /* \"#utility.yul\":15329:15348   */\n      swap1\n      pop\n        /* \"#utility.yul\":14988:15354   */\n      swap2\n      swap1\n      pop\n      jump\t// out\n        /* \"#utility.yul\":15360:15779   */\n    tag_160:\n        /* \"#utility.yul\":15526:15530   */\n      0x00\n        /* \"#utility.yul\":15564:15566   */\n      0x20\n        /* \"#utility.yul\":15553:15562   */\n      dup3\n        /* \"#utility.yul\":15549:15567   */\n      add\n        /* \"#utility.yul\":15541:15567   */\n      swap1\n      pop\n        /* \"#utility.yul\":15613:15622   */\n      dup2\n        /* \"#utility.yul\":15607:15611   */\n      dup2\n        /* \"#utility.yul\":15603:15623   */\n      sub\n        /* \"#utility.yul\":15599:15600   */\n      0x00\n        /* \"#utility.yul\":15588:15597   */\n      dup4\n        /* \"#utility.yul\":15584:15601   */\n      add\n        /* \"#utility.yul\":15577:15624   */\n      mstore\n        /* \"#utility.yul\":15641:15772   */\n      tag_462\n        /* \"#utility.yul\":15767:15771   */\n      dup2\n        /* \"#utility.yul\":15641:15772   */\n      tag_313\n      jump\t// in\n    tag_462:\n        /* \"#utility.yul\":15633:15772   */\n      swap1\n      pop\n        /* \"#utility.yul\":15360:15779   */\n      swap2\n      swap1\n      pop\n      jump\t// out\n        /* \"#utility.yul\":15785:16008   */\n    tag_314:\n        /* \"#utility.yul\":15925:15959   */\n      0x436c61696d732063616e206f6e6c792062652066696c65642065766572792079\n        /* \"#utility.yul\":15921:15922   */\n      0x00\n        /* \"#utility.yul\":15913:15919   */\n      dup3\n        /* \"#utility.yul\":15909:15923   */\n      add\n        /* \"#utility.yul\":15902:15960   */\n      mstore\n        /* \"#utility.yul\":15994:16000   */\n      0x6561722e00000000000000000000000000000000000000000000000000000000\n        /* \"#utility.yul\":15989:15991   */\n      0x20\n        /* \"#utility.yul\":15981:15987   */\n      dup3\n        /* \"#utility.yul\":15977:15992   */\n      add\n        /* \"#utility.yul\":15970:16001   */\n      mstore\n        /* \"#utility.yul\":15785:16008   */\n      pop\n      jump\t// out\n        /* \"#utility.yul\":16014:16380   */\n    tag_315:\n        /* \"#utility.yul\":16156:16159   */\n      0x00\n        /* \"#utility.yul\":16177:16244   */\n      tag_465\n        /* \"#utility.yul\":16241:16243   */\n      0x24\n        /* \"#utility.yul\":16236:16239   */\n      dup4\n        /* \"#utility.yul\":16177:16244   */\n      tag_298\n      jump\t// in\n    tag_465:\n        /* \"#utility.yul\":16170:16244   */\n      swap2\n      pop\n        /* \"#utility.yul\":16253:16346   */\n      tag_466\n        /* \"#utility.yul\":16342:16345   */\n      dup3\n        /* \"#utility.yul\":16253:16346   */\n      tag_314\n      jump\t// in\n    tag_466:\n        /* \"#utility.yul\":16371:16373   */\n      0x40\n        /* \"#utility.yul\":16366:16369   */\n      dup3\n        /* \"#utility.yul\":16362:16374   */\n      add\n        /* \"#utility.yul\":16355:16374   */\n      swap1\n      pop\n        /* \"#utility.yul\":16014:16380   */\n      swap2\n      swap1\n      pop\n      jump\t// out\n        /* \"#utility.yul\":16386:16805   */\n    tag_169:\n        /* \"#utility.yul\":16552:16556   */\n      0x00\n        /* \"#utility.yul\":16590:16592   */\n      0x20\n        /* \"#utility.yul\":16579:16588   */\n      dup3\n        /* \"#utility.yul\":16575:16593   */\n      add\n        /* \"#utility.yul\":16567:16593   */\n      swap1\n      pop\n        /* \"#utility.yul\":16639:16648   */\n      dup2\n        /* \"#utility.yul\":16633:16637   */\n      dup2\n        /* \"#utility.yul\":16629:16649   */\n      sub\n        /* \"#utility.yul\":16625:16626   */\n      0x00\n        /* \"#utility.yul\":16614:16623   */\n      dup4\n        /* \"#utility.yul\":16610:16627   */\n      add\n        /* \"#utility.yul\":16603:16650   */\n      mstore\n        /* \"#utility.yul\":16667:16798   */\n      tag_468\n        /* \"#utility.yul\":16793:16797   */\n      dup2\n        /* \"#utility.yul\":16667:16798   */\n      tag_315\n      jump\t// in\n    tag_468:\n        /* \"#utility.yul\":16659:16798   */\n      swap1\n      pop\n        /* \"#utility.yul\":16386:16805   */\n      swap2\n      swap1\n      pop\n      jump\t// out\n        /* \"#utility.yul\":16811:17057   */\n    tag_316:\n        /* \"#utility.yul\":16951:16985   */\n      0x546865207370656369666965642079656172206973206e6f7420616c6c6f7769\n        /* \"#utility.yul\":16947:16948   */\n      0x00\n        /* \"#utility.yul\":16939:16945   */\n      dup3\n        /* \"#utility.yul\":16935:16949   */\n      add\n        /* \"#utility.yul\":16928:16986   */\n      mstore\n        /* \"#utility.yul\":17020:17049   */\n      0x6e67206120636c61696d20666f7220796f757220706f6c6963792e0000000000\n        /* \"#utility.yul\":17015:17017   */\n      0x20\n        /* \"#utility.yul\":17007:17013   */\n      dup3\n        /* \"#utility.yul\":17003:17018   */\n      add\n        /* \"#utility.yul\":16996:17050   */\n      mstore\n        /* \"#utility.yul\":16811:17057   */\n      pop\n      jump\t// out\n        /* \"#utility.yul\":17063:17429   */\n    tag_317:\n        /* \"#utility.yul\":17205:17208   */\n      0x00\n        /* \"#utility.yul\":17226:17293   */\n      tag_471\n        /* \"#utility.yul\":17290:17292   */\n      0x3b\n        /* \"#utility.yul\":17285:17288   */\n      dup4\n        /* \"#utility.yul\":17226:17293   */\n      tag_298\n      jump\t// in\n    tag_471:\n        /* \"#utility.yul\":17219:17293   */\n      swap2\n      pop\n        /* \"#utility.yul\":17302:17395   */\n      tag_472\n        /* \"#utility.yul\":17391:17394   */\n      dup3\n        /* \"#utility.yul\":17302:17395   */\n      tag_316\n      jump\t// in\n    tag_472:\n        /* \"#utility.yul\":17420:17422   */\n      0x40\n        /* \"#utility.yul\":17415:17418   */\n      dup3\n        /* \"#utility.yul\":17411:17423   */\n      add\n        /* \"#utility.yul\":17404:17423   */\n      swap1\n      pop\n        /* \"#utility.yul\":17063:17429   */\n      swap2\n      swap1\n      pop\n      jump\t// out\n        /* \"#utility.yul\":17435:17854   */\n    tag_173:\n        /* \"#utility.yul\":17601:17605   */\n      0x00\n        /* \"#utility.yul\":17639:17641   */\n      0x20\n        /* \"#utility.yul\":17628:17637   */\n      dup3\n        /* \"#utility.yul\":17624:17642   */\n      add\n        /* \"#utility.yul\":17616:17642   */\n      swap1\n      pop\n        /* \"#utility.yul\":17688:17697   */\n      dup2\n        /* \"#utility.yul\":17682:17686   */\n      dup2\n        /* \"#utility.yul\":17678:17698   */\n      sub\n        /* \"#utility.yul\":17674:17675   */\n      0x00\n        /* \"#utility.yul\":17663:17672   */\n      dup4\n        /* \"#utility.yul\":17659:17676   */\n      add\n        /* \"#utility.yul\":17652:17699   */\n      mstore\n        /* \"#utility.yul\":17716:17847   */\n      tag_474\n        /* \"#utility.yul\":17842:17846   */\n      dup2\n        /* \"#utility.yul\":17716:17847   */\n      tag_317\n      jump\t// in\n    tag_474:\n        /* \"#utility.yul\":17708:17847   */\n      swap1\n      pop\n        /* \"#utility.yul\":17435:17854   */\n      swap2\n      swap1\n      pop\n      jump\t// out\n        /* \"#utility.yul\":17860:18054   */\n    tag_223:\n        /* \"#utility.yul\":17900:17904   */\n      0x00\n        /* \"#utility.yul\":17920:17940   */\n      tag_476\n        /* \"#utility.yul\":17938:17939   */\n      dup3\n        /* \"#utility.yul\":17920:17940   */\n      tag_276\n      jump\t// in\n    tag_476:\n        /* \"#utility.yul\":17915:17940   */\n      swap2\n      pop\n        /* \"#utility.yul\":17954:17974   */\n      tag_477\n        /* \"#utility.yul\":17972:17973   */\n      dup4\n        /* \"#utility.yul\":17954:17974   */\n      tag_276\n      jump\t// in\n    tag_477:\n        /* \"#utility.yul\":17949:17974   */\n      swap3\n      pop\n        /* \"#utility.yul\":17998:17999   */\n      dup3\n        /* \"#utility.yul\":17995:17996   */\n      dup3\n        /* \"#utility.yul\":17991:18000   */\n      sub\n        /* \"#utility.yul\":17983:18000   */\n      swap1\n      pop\n        /* \"#utility.yul\":18022:18023   */\n      dup2\n        /* \"#utility.yul\":18016:18020   */\n      dup2\n        /* \"#utility.yul\":18013:18024   */\n      gt\n        /* \"#utility.yul\":18010:18047   */\n      iszero\n      tag_478\n      jumpi\n        /* \"#utility.yul\":18027:18045   */\n      tag_479\n      tag_307\n      jump\t// in\n    tag_479:\n        /* \"#utility.yul\":18010:18047   */\n    tag_478:\n        /* \"#utility.yul\":17860:18054   */\n      swap3\n      swap2\n      pop\n      pop\n      jump\t// out\n        /* \"#utility.yul\":18060:18495   */\n    tag_235:\n        /* \"#utility.yul\":18240:18243   */\n      0x00\n        /* \"#utility.yul\":18262:18357   */\n      tag_481\n        /* \"#utility.yul\":18353:18356   */\n      dup3\n        /* \"#utility.yul\":18344:18350   */\n      dup6\n        /* \"#utility.yul\":18262:18357   */\n      tag_304\n      jump\t// in\n    tag_481:\n        /* \"#utility.yul\":18255:18357   */\n      swap2\n      pop\n        /* \"#utility.yul\":18374:18469   */\n      tag_482\n        /* \"#utility.yul\":18465:18468   */\n      dup3\n        /* \"#utility.yul\":18456:18462   */\n      dup5\n        /* \"#utility.yul\":18374:18469   */\n      tag_304\n      jump\t// in\n    tag_482:\n        /* \"#utility.yul\":18367:18469   */\n      swap2\n      pop\n        /* \"#utility.yul\":18486:18489   */\n      dup2\n        /* \"#utility.yul\":18479:18489   */\n      swap1\n      pop\n        /* \"#utility.yul\":18060:18495   */\n      swap4\n      swap3\n      pop\n      pop\n      pop\n      jump\t// out\n        /* \"#utility.yul\":18501:18681   */\n    tag_241:\n        /* \"#utility.yul\":18549:18626   */\n      0x4e487b7100000000000000000000000000000000000000000000000000000000\n        /* \"#utility.yul\":18546:18547   */\n      0x00\n        /* \"#utility.yul\":18539:18627   */\n      mstore\n        /* \"#utility.yul\":18646:18650   */\n      0x41\n        /* \"#utility.yul\":18643:18644   */\n      0x04\n        /* \"#utility.yul\":18636:18651   */\n      mstore\n        /* \"#utility.yul\":18670:18674   */\n      0x24\n        /* \"#utility.yul\":18667:18668   */\n      0x00\n        /* \"#utility.yul\":18660:18675   */\n      revert\n\n    auxdata: 0xa26469706673582212201731b1b001818ff6fb3cfcf5c6968cd7c161cfac9920a0a5d76b1855560fbbac64736f6c63430008160033\n}\n",
				"bytecode": {
					"linkReferences": {},
					"object": "6080604052659184e72a00006001556096600255601460035534801562000024575f80fd5b50335f806101000a81548173ffffffffffffffffffffffffffffffffffffffff021916908373ffffffffffffffffffffffffffffffffffffffff1602179055506040518060400160405280652d79883d2000815260200161066781525060045f8060028111156200009a5762000099620001b3565b5b6002811115620000af57620000ae620001b3565b5b81526020019081526020015f205f820151815f0155602082015181600101559050506040518060400160405280656d23ad5f800081526020016106b981525060045f60016002811115620001085762000107620001b3565b5b60028111156200011d576200011c620001b3565b5b81526020019081526020015f205f820151815f015560208201518160010155905050604051806040016040528066013e52b9abe000815260200161070b81525060045f600280811115620001765762000175620001b3565b5b60028111156200018b576200018a620001b3565b5b81526020019081526020015f205f820151815f015560208201518160010155905050620001e0565b7f4e487b71000000000000000000000000000000000000000000000000000000005f52602160045260245ffd5b6124e180620001ee5f395ff3fe608060405260043610610084575f3560e01c80638da5cb5b116100585780638da5cb5b14610120578063a8e023eb1461014a578063b3155b5e14610166578063bd097e211461018e578063d61909f91461019857610084565b80627c74cb146100885780631a59c5b6146100b057806351821891146100ba57806370f363a4146100f6575b5f80fd5b348015610093575f80fd5b506100ae60048036038101906100a99190611bc8565b6101c0565b005b6100b86104a0565b005b3480156100c5575f80fd5b506100e060048036038101906100db9190611c16565b61073a565b6040516100ed9190611c63565b60405180910390f35b348015610101575f80fd5b5061010a610786565b6040516101179190611e23565b60405180910390f35b34801561012b575f80fd5b506101346109f8565b6040516101419190611e4c565b60405180910390f35b610164600480360381019061015f9190611e88565b610a1f565b005b348015610171575f80fd5b5061018c60048036038101906101879190611ed8565b610e95565b005b610196610f75565b005b3480156101a3575f80fd5b506101be60048036038101906101b99190611bc8565b610fb9565b005b5f8073ffffffffffffffffffffffffffffffffffffffff1660065f3373ffffffffffffffffffffffffffffffffffffffff1673ffffffffffffffffffffffffffffffffffffffff1681526020019081526020015f205f015f9054906101000a900473ffffffffffffffffffffffffffffffffffffffff1673ffffffffffffffffffffffffffffffffffffffff16141590505f4260065f3373ffffffffffffffffffffffffffffffffffffffff1673ffffffffffffffffffffffffffffffffffffffff1681526020019081526020015f20600401541190508180156102a15750805b6102e0576040517f08c379a00000000000000000000000000000000000000000000000000000000081526004016102d790611f82565b60405180910390fd5b825f6102eb82611476565b90505f806005836040516102ff919061200c565b9081526020016040518091039020541415905080610352576040517f08c379a000000000000000000000000000000000000000000000000000000000815260040161034990612092565b60405180910390fd5b5f61035c876116a6565b90503373ffffffffffffffffffffffffffffffffffffffff166108fc8290811502906040515f60405180830381858888f193505050501580156103a1573d5f803e3d5ffd5b506103f96301e1338060065f3373ffffffffffffffffffffffffffffffffffffffff1673ffffffffffffffffffffffffffffffffffffffff1681526020019081526020015f20600501546118b690919063ffffffff16565b505f60065f3373ffffffffffffffffffffffffffffffffffffffff1673ffffffffffffffffffffffffffffffffffffffff1681526020019081526020015f2060040154111561049757600160075f3373ffffffffffffffffffffffffffffffffffffffff1673ffffffffffffffffffffffffffffffffffffffff1681526020019081526020015f205f82825461048f91906120dd565b925050819055505b50505050505050565b5f8073ffffffffffffffffffffffffffffffffffffffff1660065f3373ffffffffffffffffffffffffffffffffffffffff1673ffffffffffffffffffffffffffffffffffffffff1681526020019081526020015f205f015f9054906101000a900473ffffffffffffffffffffffffffffffffffffffff1673ffffffffffffffffffffffffffffffffffffffff16141590505f4260065f3373ffffffffffffffffffffffffffffffffffffffff1673ffffffffffffffffffffffffffffffffffffffff1681526020019081526020015f20600401541190508180156105815750805b6105c0576040517f08c379a00000000000000000000000000000000000000000000000000000000081526004016105b790611f82565b60405180910390fd5b60065f3373ffffffffffffffffffffffffffffffffffffffff1673ffffffffffffffffffffffffffffffffffffffff1681526020019081526020015f205f0160159054906101000a900460ff1660065f3373ffffffffffffffffffffffffffffffffffffffff1673ffffffffffffffffffffffffffffffffffffffff1681526020019081526020015f20600101545f8160045f85600281111561066657610665611cbb565b5b600281111561067857610677611cbb565b5b81526020019081526020015f205f01546106929190612110565b90505f8134149050806106da576040517f08c379a00000000000000000000000000000000000000000000000000000000081526004016106d1906121c1565b60405180910390fd5b6107316301e1338060065f3373ffffffffffffffffffffffffffffffffffffffff1673ffffffffffffffffffffffffffffffffffffffff1681526020019081526020015f20600401546118b690919063ffffffff16565b50505050505050565b5f60045f84600281111561075157610750611cbb565b5b600281111561076357610762611cbb565b5b81526020019081526020015f205f01548261077e9190612110565b905092915050565b61078e611b1a565b5f8073ffffffffffffffffffffffffffffffffffffffff1660065f3373ffffffffffffffffffffffffffffffffffffffff1673ffffffffffffffffffffffffffffffffffffffff1681526020019081526020015f205f015f9054906101000a900473ffffffffffffffffffffffffffffffffffffffff1673ffffffffffffffffffffffffffffffffffffffff16141590505f4260065f3373ffffffffffffffffffffffffffffffffffffffff1673ffffffffffffffffffffffffffffffffffffffff1681526020019081526020015f206004015411905081801561086f5750805b6108ae576040517f08c379a00000000000000000000000000000000000000000000000000000000081526004016108a590611f82565b60405180910390fd5b60065f3373ffffffffffffffffffffffffffffffffffffffff1673ffffffffffffffffffffffffffffffffffffffff1681526020019081526020015f20604051806101000160405290815f82015f9054906101000a900473ffffffffffffffffffffffffffffffffffffffff1673ffffffffffffffffffffffffffffffffffffffff1673ffffffffffffffffffffffffffffffffffffffff1681526020015f820160149054906101000a900460ff16600181111561096f5761096e611cbb565b5b600181111561098157610980611cbb565b5b81526020015f820160159054906101000a900460ff1660028111156109a9576109a8611cbb565b5b60028111156109bb576109ba611cbb565b5b8152602001600182015481526020016002820154815260200160038201548152602001600482015481526020016005820154815250509250505090565b5f805f9054906101000a900473ffffffffffffffffffffffffffffffffffffffff16905090565b5f8073ffffffffffffffffffffffffffffffffffffffff1660065f3373ffffffffffffffffffffffffffffffffffffffff1673ffffffffffffffffffffffffffffffffffffffff1681526020019081526020015f205f015f9054906101000a900473ffffffffffffffffffffffffffffffffffffffff1673ffffffffffffffffffffffffffffffffffffffff161490505f4260065f3373ffffffffffffffffffffffffffffffffffffffff1673ffffffffffffffffffffffffffffffffffffffff1681526020019081526020015f20600401541090508180610afe5750805b610b3d576040517f08c379a0000000000000000000000000000000000000000000000000000000008152600401610b3490612229565b60405180910390fd5b84845f8160045f856002811115610b5757610b56611cbb565b5b6002811115610b6957610b68611cbb565b5b81526020019081526020015f205f0154610b839190612110565b90505f813414905080610bcb576040517f08c379a0000000000000000000000000000000000000000000000000000000008152600401610bc2906121c1565b60405180910390fd5b6040518061010001604052803373ffffffffffffffffffffffffffffffffffffffff168152602001886001811115610c0657610c05611cbb565b5b81526020018a6002811115610c1e57610c1d611cbb565b5b815260200189815260200160045f8c6002811115610c3f57610c3e611cbb565b5b6002811115610c5157610c50611cbb565b5b81526020019081526020015f205f01548a610c6c9190612110565b8152602001428152602001610c8e6301e13380426118b690919063ffffffff16565b8152602001610caa6301e13380426118b690919063ffffffff16565b81525060065f3373ffffffffffffffffffffffffffffffffffffffff1673ffffffffffffffffffffffffffffffffffffffff1681526020019081526020015f205f820151815f015f6101000a81548173ffffffffffffffffffffffffffffffffffffffff021916908373ffffffffffffffffffffffffffffffffffffffff1602179055506020820151815f0160146101000a81548160ff02191690836001811115610d5857610d57611cbb565b5b02179055506040820151815f0160156101000a81548160ff02191690836002811115610d8757610d86611cbb565b5b0217905550606082015181600101556080820151816002015560a0820151816003015560c0820151816004015560e082015181600501559050505f6301e1338090505f6107b29050808242610ddc9190612274565b610de691906120dd565b60075f3373ffffffffffffffffffffffffffffffffffffffff1673ffffffffffffffffffffffffffffffffffffffff1681526020019081526020015f208190555060095f3373ffffffffffffffffffffffffffffffffffffffff1673ffffffffffffffffffffffffffffffffffffffff1681526020019081526020015f2042908060018154018082558091505060019003905f5260205f20015f90919091909150555050505050505050505050565b5f806001811115610ea957610ea8611cbb565b5b826001811115610ebc57610ebb611cbb565b5b1490505f81610f0957610f04856040518060400160405280600681526020017f5f4e4f52544800000000000000000000000000000000000000000000000000008152506118cb565b610f49565b610f48856040518060400160405280600681526020017f5f534f55544800000000000000000000000000000000000000000000000000008152506118cb565b5b905083600582604051610f5c919061200c565b9081526020016040518091039020819055505050505050565b5f3411610fb7576040517f08c379a0000000000000000000000000000000000000000000000000000000008152600401610fae906122ee565b60405180910390fd5b565b5f8073ffffffffffffffffffffffffffffffffffffffff1660065f3373ffffffffffffffffffffffffffffffffffffffff1673ffffffffffffffffffffffffffffffffffffffff1681526020019081526020015f205f015f9054906101000a900473ffffffffffffffffffffffffffffffffffffffff1673ffffffffffffffffffffffffffffffffffffffff16141590505f4260065f3373ffffffffffffffffffffffffffffffffffffffff1673ffffffffffffffffffffffffffffffffffffffff1681526020019081526020015f206004015411905081801561109a5750805b6110d9576040517f08c379a00000000000000000000000000000000000000000000000000000000081526004016110d090611f82565b60405180910390fd5b5f4260065f3373ffffffffffffffffffffffffffffffffffffffff1673ffffffffffffffffffffffffffffffffffffffff1681526020019081526020015f20600501541090508015611160576040517f08c379a00000000000000000000000000000000000000000000000000000000081526004016111579061237c565b60405180910390fd5b835f8160075f3373ffffffffffffffffffffffffffffffffffffffff1673ffffffffffffffffffffffffffffffffffffffff1681526020019081526020015f2054149050806111e4576040517f08c379a00000000000000000000000000000000000000000000000000000000081526004016111db9061240a565b60405180910390fd5b855f6111ef82611476565b90505f80600583604051611203919061200c565b9081526020016040518091039020541415905080611256576040517f08c379a000000000000000000000000000000000000000000000000000000000815260040161124d90612092565b60405180910390fd5b5f60065f3373ffffffffffffffffffffffffffffffffffffffff1673ffffffffffffffffffffffffffffffffffffffff1681526020019081526020015f20604051806101000160405290815f82015f9054906101000a900473ffffffffffffffffffffffffffffffffffffffff1673ffffffffffffffffffffffffffffffffffffffff1673ffffffffffffffffffffffffffffffffffffffff1681526020015f820160149054906101000a900460ff16600181111561131857611317611cbb565b5b600181111561132a57611329611cbb565b5b81526020015f820160159054906101000a900460ff16600281111561135257611351611cbb565b5b600281111561136457611363611cbb565b5b81526020016001820154815260200160028201548152602001600382015481526020016004820154815260200160058201548152505090505f6113a68b6116a6565b90503373ffffffffffffffffffffffffffffffffffffffff166108fc8290811502906040515f60405180830381858888f193505050501580156113eb573d5f803e3d5ffd5b506114076301e133808360e001516118b690919063ffffffff16565b505f8260c00151111561146957600160075f3373ffffffffffffffffffffffffffffffffffffffff1673ffffffffffffffffffffffffffffffffffffffff1681526020019081526020015f205f82825461146191906120dd565b925050819055505b5050505050505050505050565b60605f8073ffffffffffffffffffffffffffffffffffffffff1660065f3373ffffffffffffffffffffffffffffffffffffffff1673ffffffffffffffffffffffffffffffffffffffff1681526020019081526020015f205f015f9054906101000a900473ffffffffffffffffffffffffffffffffffffffff1673ffffffffffffffffffffffffffffffffffffffff16141590505f4260065f3373ffffffffffffffffffffffffffffffffffffffff1673ffffffffffffffffffffffffffffffffffffffff1681526020019081526020015f20600401541190508180156115595750805b611598576040517f08c379a000000000000000000000000000000000000000000000000000000000815260040161158f90611f82565b60405180910390fd5b5f8060018111156115ac576115ab611cbb565b5b60065f3373ffffffffffffffffffffffffffffffffffffffff1673ffffffffffffffffffffffffffffffffffffffff1681526020019081526020015f205f0160149054906101000a900460ff16600181111561160b5761160a611cbb565b5b1490505f8161165857611653866040518060400160405280600681526020017f5f4e4f52544800000000000000000000000000000000000000000000000000008152506118cb565b611698565b611697866040518060400160405280600681526020017f5f534f55544800000000000000000000000000000000000000000000000000008152506118cb565b5b905080945050505050919050565b5f806116b183611476565b90505f60065f3373ffffffffffffffffffffffffffffffffffffffff1673ffffffffffffffffffffffffffffffffffffffff1681526020019081526020015f20604051806101000160405290815f82015f9054906101000a900473ffffffffffffffffffffffffffffffffffffffff1673ffffffffffffffffffffffffffffffffffffffff1673ffffffffffffffffffffffffffffffffffffffff1681526020015f820160149054906101000a900460ff16600181111561177557611774611cbb565b5b600181111561178757611786611cbb565b5b81526020015f820160159054906101000a900460ff1660028111156117af576117ae611cbb565b5b60028111156117c1576117c0611cbb565b5b81526020016001820154815260200160028201548152602001600382015481526020016004820154815260200160058201548152505090505f60058360405161180a919061200c565b90815260200160405180910390205460045f8460400151600281111561183357611832611cbb565b5b600281111561184557611844611cbb565b5b81526020019081526020015f20600101546118609190612428565b90505f60015483606001516003548460025461187c9190612110565b6118869190612110565b6118909190612110565b61189a9190612110565b9050620186a0816118ab9190612274565b945050505050919050565b5f81836118c391906120dd565b905092915050565b60606118d6836118ff565b826040516020016118e892919061245b565b604051602081830303815290604052905092915050565b60605f600161190d846119c9565b0190505f8167ffffffffffffffff81111561192b5761192a61247e565b5b6040519080825280601f01601f19166020018201604052801561195d5781602001600182028036833780820191505090505b5090505f82602001820190505b6001156119be578080600190039150507f3031323334353637383961626364656600000000000000000000000000000000600a86061a8153600a85816119b3576119b2612247565b5b0494505f850361196a575b819350505050919050565b5f805f90507a184f03e93ff9f4daa797ed6e38ed64bf6a1f0100000000000000008310611a25577a184f03e93ff9f4daa797ed6e38ed64bf6a1f0100000000000000008381611a1b57611a1a612247565b5b0492506040810190505b6d04ee2d6d415b85acef81000000008310611a62576d04ee2d6d415b85acef81000000008381611a5857611a57612247565b5b0492506020810190505b662386f26fc100008310611a9157662386f26fc100008381611a8757611a86612247565b5b0492506010810190505b6305f5e1008310611aba576305f5e1008381611ab057611aaf612247565b5b0492506008810190505b6127108310611adf576127108381611ad557611ad4612247565b5b0492506004810190505b60648310611b025760648381611af857611af7612247565b5b0492506002810190505b600a8310611b11576001810190505b80915050919050565b6040518061010001604052805f73ffffffffffffffffffffffffffffffffffffffff1681526020015f6001811115611b5557611b54611cbb565b5b81526020015f6002811115611b6d57611b6c611cbb565b5b81526020015f81526020015f81526020015f81526020015f81526020015f81525090565b5f80fd5b5f819050919050565b611ba781611b95565b8114611bb1575f80fd5b50565b5f81359050611bc281611b9e565b92915050565b5f60208284031215611bdd57611bdc611b91565b5b5f611bea84828501611bb4565b91505092915050565b60038110611bff575f80fd5b50565b5f81359050611c1081611bf3565b92915050565b5f8060408385031215611c2c57611c2b611b91565b5b5f611c3985828601611c02565b9250506020611c4a85828601611bb4565b9150509250929050565b611c5d81611b95565b82525050565b5f602082019050611c765f830184611c54565b92915050565b5f73ffffffffffffffffffffffffffffffffffffffff82169050919050565b5f611ca582611c7c565b9050919050565b611cb581611c9b565b82525050565b7f4e487b71000000000000000000000000000000000000000000000000000000005f52602160045260245ffd5b60028110611cf957611cf8611cbb565b5b50565b5f819050611d0982611ce8565b919050565b5f611d1882611cfc565b9050919050565b611d2881611d0e565b82525050565b60038110611d3f57611d3e611cbb565b5b50565b5f819050611d4f82611d2e565b919050565b5f611d5e82611d42565b9050919050565b611d6e81611d54565b82525050565b611d7d81611b95565b82525050565b61010082015f820151611d985f850182611cac565b506020820151611dab6020850182611d1f565b506040820151611dbe6040850182611d65565b506060820151611dd16060850182611d74565b506080820151611de46080850182611d74565b5060a0820151611df760a0850182611d74565b5060c0820151611e0a60c0850182611d74565b5060e0820151611e1d60e0850182611d74565b50505050565b5f61010082019050611e375f830184611d83565b92915050565b611e4681611c9b565b82525050565b5f602082019050611e5f5f830184611e3d565b92915050565b60028110611e71575f80fd5b50565b5f81359050611e8281611e65565b92915050565b5f805f60608486031215611e9f57611e9e611b91565b5b5f611eac86828701611c02565b9350506020611ebd86828701611bb4565b9250506040611ece86828701611e74565b9150509250925092565b5f805f60608486031215611eef57611eee611b91565b5b5f611efc86828701611bb4565b9350506020611f0d86828701611bb4565b9250506040611f1e86828701611e74565b9150509250925092565b5f82825260208201905092915050565b7f54686520636c69656e74206973206e6f7420696e73757265642e0000000000005f82015250565b5f611f6c601a83611f28565b9150611f7782611f38565b602082019050919050565b5f6020820190508181035f830152611f9981611f60565b9050919050565b5f81519050919050565b5f81905092915050565b5f5b83811015611fd1578082015181840152602081019050611fb6565b5f8484015250505050565b5f611fe682611fa0565b611ff08185611faa565b9350612000818560208601611fb4565b80840191505092915050565b5f6120178284611fdc565b915081905092915050565b7f5468657265206973206e6f207265636f726420666f72207468652072657175695f8201527f7265642079656172206f7220726567696f6e2e00000000000000000000000000602082015250565b5f61207c603383611f28565b915061208782612022565b604082019050919050565b5f6020820190508181035f8301526120a981612070565b9050919050565b7f4e487b71000000000000000000000000000000000000000000000000000000005f52601160045260245ffd5b5f6120e782611b95565b91506120f283611b95565b925082820190508082111561210a576121096120b0565b5b92915050565b5f61211a82611b95565b915061212583611b95565b925082820261213381611b95565b9150828204841483151761214a576121496120b0565b5b5092915050565b7f546865207072656d69756d206d75737420626520636f766572656420746f20725f8201527f65676973746572206f722072656e6577206120706f6c6963792e000000000000602082015250565b5f6121ab603a83611f28565b91506121b682612151565b604082019050919050565b5f6020820190508181035f8301526121d88161219f565b9050919050565b7f54686520636c69656e7420697320616c726561647920696e73757265642e00005f82015250565b5f612213601e83611f28565b915061221e826121df565b602082019050919050565b5f6020820190508181035f83015261224081612207565b9050919050565b7f4e487b71000000000000000000000000000000000000000000000000000000005f52601260045260245ffd5b5f61227e82611b95565b915061228983611b95565b92508261229957612298612247565b5b828204905092915050565b7f43616e6e6f74206c6f61642074686520636f6e747261637420776974682030005f82015250565b5f6122d8601f83611f28565b91506122e3826122a4565b602082019050919050565b5f6020820190508181035f830152612305816122cc565b9050919050565b7f436c61696d732063616e206f6e6c792062652066696c656420657665727920795f8201527f6561722e00000000000000000000000000000000000000000000000000000000602082015250565b5f612366602483611f28565b91506123718261230c565b604082019050919050565b5f6020820190508181035f8301526123938161235a565b9050919050565b7f546865207370656369666965642079656172206973206e6f7420616c6c6f77695f8201527f6e67206120636c61696d20666f7220796f757220706f6c6963792e0000000000602082015250565b5f6123f4603b83611f28565b91506123ff8261239a565b604082019050919050565b5f6020820190508181035f830152612421816123e8565b9050919050565b5f61243282611b95565b915061243d83611b95565b9250828203905081811115612455576124546120b0565b5b92915050565b5f6124668285611fdc565b91506124728284611fdc565b91508190509392505050565b7f4e487b71000000000000000000000000000000000000000000000000000000005f52604160045260245ffdfea26469706673582212201731b1b001818ff6fb3cfcf5c6968cd7c161cfac9920a0a5d76b1855560fbbac64736f6c63430008160033",
					"opcodes": "PUSH1 0x80 PUSH1 0x40 MSTORE PUSH6 0x9184E72A0000 PUSH1 0x1 SSTORE PUSH1 0x96 PUSH1 0x2 SSTORE PUSH1 0x14 PUSH1 0x3 SSTORE CALLVALUE DUP1 ISZERO PUSH3 0x24 JUMPI PUSH0 DUP1 REVERT JUMPDEST POP CALLER PUSH0 DUP1 PUSH2 0x100 EXP DUP2 SLOAD DUP2 PUSH20 0xFFFFFFFFFFFFFFFFFFFFFFFFFFFFFFFFFFFFFFFF MUL NOT AND SWAP1 DUP4 PUSH20 0xFFFFFFFFFFFFFFFFFFFFFFFFFFFFFFFFFFFFFFFF AND MUL OR SWAP1 SSTORE POP PUSH1 0x40 MLOAD DUP1 PUSH1 0x40 ADD PUSH1 0x40 MSTORE DUP1 PUSH6 0x2D79883D2000 DUP2 MSTORE PUSH1 0x20 ADD PUSH2 0x667 DUP2 MSTORE POP PUSH1 0x4 PUSH0 DUP1 PUSH1 0x2 DUP2 GT ISZERO PUSH3 0x9A JUMPI PUSH3 0x99 PUSH3 0x1B3 JUMP JUMPDEST JUMPDEST PUSH1 0x2 DUP2 GT ISZERO PUSH3 0xAF JUMPI PUSH3 0xAE PUSH3 0x1B3 JUMP JUMPDEST JUMPDEST DUP2 MSTORE PUSH1 0x20 ADD SWAP1 DUP2 MSTORE PUSH1 0x20 ADD PUSH0 KECCAK256 PUSH0 DUP3 ADD MLOAD DUP2 PUSH0 ADD SSTORE PUSH1 0x20 DUP3 ADD MLOAD DUP2 PUSH1 0x1 ADD SSTORE SWAP1 POP POP PUSH1 0x40 MLOAD DUP1 PUSH1 0x40 ADD PUSH1 0x40 MSTORE DUP1 PUSH6 0x6D23AD5F8000 DUP2 MSTORE PUSH1 0x20 ADD PUSH2 0x6B9 DUP2 MSTORE POP PUSH1 0x4 PUSH0 PUSH1 0x1 PUSH1 0x2 DUP2 GT ISZERO PUSH3 0x108 JUMPI PUSH3 0x107 PUSH3 0x1B3 JUMP JUMPDEST JUMPDEST PUSH1 0x2 DUP2 GT ISZERO PUSH3 0x11D JUMPI PUSH3 0x11C PUSH3 0x1B3 JUMP JUMPDEST JUMPDEST DUP2 MSTORE PUSH1 0x20 ADD SWAP1 DUP2 MSTORE PUSH1 0x20 ADD PUSH0 KECCAK256 PUSH0 DUP3 ADD MLOAD DUP2 PUSH0 ADD SSTORE PUSH1 0x20 DUP3 ADD MLOAD DUP2 PUSH1 0x1 ADD SSTORE SWAP1 POP POP PUSH1 0x40 MLOAD DUP1 PUSH1 0x40 ADD PUSH1 0x40 MSTORE DUP1 PUSH7 0x13E52B9ABE000 DUP2 MSTORE PUSH1 0x20 ADD PUSH2 0x70B DUP2 MSTORE POP PUSH1 0x4 PUSH0 PUSH1 0x2 DUP1 DUP2 GT ISZERO PUSH3 0x176 JUMPI PUSH3 0x175 PUSH3 0x1B3 JUMP JUMPDEST JUMPDEST PUSH1 0x2 DUP2 GT ISZERO PUSH3 0x18B JUMPI PUSH3 0x18A PUSH3 0x1B3 JUMP JUMPDEST JUMPDEST DUP2 MSTORE PUSH1 0x20 ADD SWAP1 DUP2 MSTORE PUSH1 0x20 ADD PUSH0 KECCAK256 PUSH0 DUP3 ADD MLOAD DUP2 PUSH0 ADD SSTORE PUSH1 0x20 DUP3 ADD MLOAD DUP2 PUSH1 0x1 ADD SSTORE SWAP1 POP POP PUSH3 0x1E0 JUMP JUMPDEST PUSH32 0x4E487B7100000000000000000000000000000000000000000000000000000000 PUSH0 MSTORE PUSH1 0x21 PUSH1 0x4 MSTORE PUSH1 0x24 PUSH0 REVERT JUMPDEST PUSH2 0x24E1 DUP1 PUSH3 0x1EE PUSH0 CODECOPY PUSH0 RETURN INVALID PUSH1 0x80 PUSH1 0x40 MSTORE PUSH1 0x4 CALLDATASIZE LT PUSH2 0x84 JUMPI PUSH0 CALLDATALOAD PUSH1 0xE0 SHR DUP1 PUSH4 0x8DA5CB5B GT PUSH2 0x58 JUMPI DUP1 PUSH4 0x8DA5CB5B EQ PUSH2 0x120 JUMPI DUP1 PUSH4 0xA8E023EB EQ PUSH2 0x14A JUMPI DUP1 PUSH4 0xB3155B5E EQ PUSH2 0x166 JUMPI DUP1 PUSH4 0xBD097E21 EQ PUSH2 0x18E JUMPI DUP1 PUSH4 0xD61909F9 EQ PUSH2 0x198 JUMPI PUSH2 0x84 JUMP JUMPDEST DUP1 PUSH3 0x7C74CB EQ PUSH2 0x88 JUMPI DUP1 PUSH4 0x1A59C5B6 EQ PUSH2 0xB0 JUMPI DUP1 PUSH4 0x51821891 EQ PUSH2 0xBA JUMPI DUP1 PUSH4 0x70F363A4 EQ PUSH2 0xF6 JUMPI JUMPDEST PUSH0 DUP1 REVERT JUMPDEST CALLVALUE DUP1 ISZERO PUSH2 0x93 JUMPI PUSH0 DUP1 REVERT JUMPDEST POP PUSH2 0xAE PUSH1 0x4 DUP1 CALLDATASIZE SUB DUP2 ADD SWAP1 PUSH2 0xA9 SWAP2 SWAP1 PUSH2 0x1BC8 JUMP JUMPDEST PUSH2 0x1C0 JUMP JUMPDEST STOP JUMPDEST PUSH2 0xB8 PUSH2 0x4A0 JUMP JUMPDEST STOP JUMPDEST CALLVALUE DUP1 ISZERO PUSH2 0xC5 JUMPI PUSH0 DUP1 REVERT JUMPDEST POP PUSH2 0xE0 PUSH1 0x4 DUP1 CALLDATASIZE SUB DUP2 ADD SWAP1 PUSH2 0xDB SWAP2 SWAP1 PUSH2 0x1C16 JUMP JUMPDEST PUSH2 0x73A JUMP JUMPDEST PUSH1 0x40 MLOAD PUSH2 0xED SWAP2 SWAP1 PUSH2 0x1C63 JUMP JUMPDEST PUSH1 0x40 MLOAD DUP1 SWAP2 SUB SWAP1 RETURN JUMPDEST CALLVALUE DUP1 ISZERO PUSH2 0x101 JUMPI PUSH0 DUP1 REVERT JUMPDEST POP PUSH2 0x10A PUSH2 0x786 JUMP JUMPDEST PUSH1 0x40 MLOAD PUSH2 0x117 SWAP2 SWAP1 PUSH2 0x1E23 JUMP JUMPDEST PUSH1 0x40 MLOAD DUP1 SWAP2 SUB SWAP1 RETURN JUMPDEST CALLVALUE DUP1 ISZERO PUSH2 0x12B JUMPI PUSH0 DUP1 REVERT JUMPDEST POP PUSH2 0x134 PUSH2 0x9F8 JUMP JUMPDEST PUSH1 0x40 MLOAD PUSH2 0x141 SWAP2 SWAP1 PUSH2 0x1E4C JUMP JUMPDEST PUSH1 0x40 MLOAD DUP1 SWAP2 SUB SWAP1 RETURN JUMPDEST PUSH2 0x164 PUSH1 0x4 DUP1 CALLDATASIZE SUB DUP2 ADD SWAP1 PUSH2 0x15F SWAP2 SWAP1 PUSH2 0x1E88 JUMP JUMPDEST PUSH2 0xA1F JUMP JUMPDEST STOP JUMPDEST CALLVALUE DUP1 ISZERO PUSH2 0x171 JUMPI PUSH0 DUP1 REVERT JUMPDEST POP PUSH2 0x18C PUSH1 0x4 DUP1 CALLDATASIZE SUB DUP2 ADD SWAP1 PUSH2 0x187 SWAP2 SWAP1 PUSH2 0x1ED8 JUMP JUMPDEST PUSH2 0xE95 JUMP JUMPDEST STOP JUMPDEST PUSH2 0x196 PUSH2 0xF75 JUMP JUMPDEST STOP JUMPDEST CALLVALUE DUP1 ISZERO PUSH2 0x1A3 JUMPI PUSH0 DUP1 REVERT JUMPDEST POP PUSH2 0x1BE PUSH1 0x4 DUP1 CALLDATASIZE SUB DUP2 ADD SWAP1 PUSH2 0x1B9 SWAP2 SWAP1 PUSH2 0x1BC8 JUMP JUMPDEST PUSH2 0xFB9 JUMP JUMPDEST STOP JUMPDEST PUSH0 DUP1 PUSH20 0xFFFFFFFFFFFFFFFFFFFFFFFFFFFFFFFFFFFFFFFF AND PUSH1 0x6 PUSH0 CALLER PUSH20 0xFFFFFFFFFFFFFFFFFFFFFFFFFFFFFFFFFFFFFFFF AND PUSH20 0xFFFFFFFFFFFFFFFFFFFFFFFFFFFFFFFFFFFFFFFF AND DUP2 MSTORE PUSH1 0x20 ADD SWAP1 DUP2 MSTORE PUSH1 0x20 ADD PUSH0 KECCAK256 PUSH0 ADD PUSH0 SWAP1 SLOAD SWAP1 PUSH2 0x100 EXP SWAP1 DIV PUSH20 0xFFFFFFFFFFFFFFFFFFFFFFFFFFFFFFFFFFFFFFFF AND PUSH20 0xFFFFFFFFFFFFFFFFFFFFFFFFFFFFFFFFFFFFFFFF AND EQ ISZERO SWAP1 POP PUSH0 TIMESTAMP PUSH1 0x6 PUSH0 CALLER PUSH20 0xFFFFFFFFFFFFFFFFFFFFFFFFFFFFFFFFFFFFFFFF AND PUSH20 0xFFFFFFFFFFFFFFFFFFFFFFFFFFFFFFFFFFFFFFFF AND DUP2 MSTORE PUSH1 0x20 ADD SWAP1 DUP2 MSTORE PUSH1 0x20 ADD PUSH0 KECCAK256 PUSH1 0x4 ADD SLOAD GT SWAP1 POP DUP2 DUP1 ISZERO PUSH2 0x2A1 JUMPI POP DUP1 JUMPDEST PUSH2 0x2E0 JUMPI PUSH1 0x40 MLOAD PUSH32 0x8C379A000000000000000000000000000000000000000000000000000000000 DUP2 MSTORE PUSH1 0x4 ADD PUSH2 0x2D7 SWAP1 PUSH2 0x1F82 JUMP JUMPDEST PUSH1 0x40 MLOAD DUP1 SWAP2 SUB SWAP1 REVERT JUMPDEST DUP3 PUSH0 PUSH2 0x2EB DUP3 PUSH2 0x1476 JUMP JUMPDEST SWAP1 POP PUSH0 DUP1 PUSH1 0x5 DUP4 PUSH1 0x40 MLOAD PUSH2 0x2FF SWAP2 SWAP1 PUSH2 0x200C JUMP JUMPDEST SWAP1 DUP2 MSTORE PUSH1 0x20 ADD PUSH1 0x40 MLOAD DUP1 SWAP2 SUB SWAP1 KECCAK256 SLOAD EQ ISZERO SWAP1 POP DUP1 PUSH2 0x352 JUMPI PUSH1 0x40 MLOAD PUSH32 0x8C379A000000000000000000000000000000000000000000000000000000000 DUP2 MSTORE PUSH1 0x4 ADD PUSH2 0x349 SWAP1 PUSH2 0x2092 JUMP JUMPDEST PUSH1 0x40 MLOAD DUP1 SWAP2 SUB SWAP1 REVERT JUMPDEST PUSH0 PUSH2 0x35C DUP8 PUSH2 0x16A6 JUMP JUMPDEST SWAP1 POP CALLER PUSH20 0xFFFFFFFFFFFFFFFFFFFFFFFFFFFFFFFFFFFFFFFF AND PUSH2 0x8FC DUP3 SWAP1 DUP2 ISZERO MUL SWAP1 PUSH1 0x40 MLOAD PUSH0 PUSH1 0x40 MLOAD DUP1 DUP4 SUB DUP2 DUP6 DUP9 DUP9 CALL SWAP4 POP POP POP POP ISZERO DUP1 ISZERO PUSH2 0x3A1 JUMPI RETURNDATASIZE PUSH0 DUP1 RETURNDATACOPY RETURNDATASIZE PUSH0 REVERT JUMPDEST POP PUSH2 0x3F9 PUSH4 0x1E13380 PUSH1 0x6 PUSH0 CALLER PUSH20 0xFFFFFFFFFFFFFFFFFFFFFFFFFFFFFFFFFFFFFFFF AND PUSH20 0xFFFFFFFFFFFFFFFFFFFFFFFFFFFFFFFFFFFFFFFF AND DUP2 MSTORE PUSH1 0x20 ADD SWAP1 DUP2 MSTORE PUSH1 0x20 ADD PUSH0 KECCAK256 PUSH1 0x5 ADD SLOAD PUSH2 0x18B6 SWAP1 SWAP2 SWAP1 PUSH4 0xFFFFFFFF AND JUMP JUMPDEST POP PUSH0 PUSH1 0x6 PUSH0 CALLER PUSH20 0xFFFFFFFFFFFFFFFFFFFFFFFFFFFFFFFFFFFFFFFF AND PUSH20 0xFFFFFFFFFFFFFFFFFFFFFFFFFFFFFFFFFFFFFFFF AND DUP2 MSTORE PUSH1 0x20 ADD SWAP1 DUP2 MSTORE PUSH1 0x20 ADD PUSH0 KECCAK256 PUSH1 0x4 ADD SLOAD GT ISZERO PUSH2 0x497 JUMPI PUSH1 0x1 PUSH1 0x7 PUSH0 CALLER PUSH20 0xFFFFFFFFFFFFFFFFFFFFFFFFFFFFFFFFFFFFFFFF AND PUSH20 0xFFFFFFFFFFFFFFFFFFFFFFFFFFFFFFFFFFFFFFFF AND DUP2 MSTORE PUSH1 0x20 ADD SWAP1 DUP2 MSTORE PUSH1 0x20 ADD PUSH0 KECCAK256 PUSH0 DUP3 DUP3 SLOAD PUSH2 0x48F SWAP2 SWAP1 PUSH2 0x20DD JUMP JUMPDEST SWAP3 POP POP DUP2 SWAP1 SSTORE POP JUMPDEST POP POP POP POP POP POP POP JUMP JUMPDEST PUSH0 DUP1 PUSH20 0xFFFFFFFFFFFFFFFFFFFFFFFFFFFFFFFFFFFFFFFF AND PUSH1 0x6 PUSH0 CALLER PUSH20 0xFFFFFFFFFFFFFFFFFFFFFFFFFFFFFFFFFFFFFFFF AND PUSH20 0xFFFFFFFFFFFFFFFFFFFFFFFFFFFFFFFFFFFFFFFF AND DUP2 MSTORE PUSH1 0x20 ADD SWAP1 DUP2 MSTORE PUSH1 0x20 ADD PUSH0 KECCAK256 PUSH0 ADD PUSH0 SWAP1 SLOAD SWAP1 PUSH2 0x100 EXP SWAP1 DIV PUSH20 0xFFFFFFFFFFFFFFFFFFFFFFFFFFFFFFFFFFFFFFFF AND PUSH20 0xFFFFFFFFFFFFFFFFFFFFFFFFFFFFFFFFFFFFFFFF AND EQ ISZERO SWAP1 POP PUSH0 TIMESTAMP PUSH1 0x6 PUSH0 CALLER PUSH20 0xFFFFFFFFFFFFFFFFFFFFFFFFFFFFFFFFFFFFFFFF AND PUSH20 0xFFFFFFFFFFFFFFFFFFFFFFFFFFFFFFFFFFFFFFFF AND DUP2 MSTORE PUSH1 0x20 ADD SWAP1 DUP2 MSTORE PUSH1 0x20 ADD PUSH0 KECCAK256 PUSH1 0x4 ADD SLOAD GT SWAP1 POP DUP2 DUP1 ISZERO PUSH2 0x581 JUMPI POP DUP1 JUMPDEST PUSH2 0x5C0 JUMPI PUSH1 0x40 MLOAD PUSH32 0x8C379A000000000000000000000000000000000000000000000000000000000 DUP2 MSTORE PUSH1 0x4 ADD PUSH2 0x5B7 SWAP1 PUSH2 0x1F82 JUMP JUMPDEST PUSH1 0x40 MLOAD DUP1 SWAP2 SUB SWAP1 REVERT JUMPDEST PUSH1 0x6 PUSH0 CALLER PUSH20 0xFFFFFFFFFFFFFFFFFFFFFFFFFFFFFFFFFFFFFFFF AND PUSH20 0xFFFFFFFFFFFFFFFFFFFFFFFFFFFFFFFFFFFFFFFF AND DUP2 MSTORE PUSH1 0x20 ADD SWAP1 DUP2 MSTORE PUSH1 0x20 ADD PUSH0 KECCAK256 PUSH0 ADD PUSH1 0x15 SWAP1 SLOAD SWAP1 PUSH2 0x100 EXP SWAP1 DIV PUSH1 0xFF AND PUSH1 0x6 PUSH0 CALLER PUSH20 0xFFFFFFFFFFFFFFFFFFFFFFFFFFFFFFFFFFFFFFFF AND PUSH20 0xFFFFFFFFFFFFFFFFFFFFFFFFFFFFFFFFFFFFFFFF AND DUP2 MSTORE PUSH1 0x20 ADD SWAP1 DUP2 MSTORE PUSH1 0x20 ADD PUSH0 KECCAK256 PUSH1 0x1 ADD SLOAD PUSH0 DUP2 PUSH1 0x4 PUSH0 DUP6 PUSH1 0x2 DUP2 GT ISZERO PUSH2 0x666 JUMPI PUSH2 0x665 PUSH2 0x1CBB JUMP JUMPDEST JUMPDEST PUSH1 0x2 DUP2 GT ISZERO PUSH2 0x678 JUMPI PUSH2 0x677 PUSH2 0x1CBB JUMP JUMPDEST JUMPDEST DUP2 MSTORE PUSH1 0x20 ADD SWAP1 DUP2 MSTORE PUSH1 0x20 ADD PUSH0 KECCAK256 PUSH0 ADD SLOAD PUSH2 0x692 SWAP2 SWAP1 PUSH2 0x2110 JUMP JUMPDEST SWAP1 POP PUSH0 DUP2 CALLVALUE EQ SWAP1 POP DUP1 PUSH2 0x6DA JUMPI PUSH1 0x40 MLOAD PUSH32 0x8C379A000000000000000000000000000000000000000000000000000000000 DUP2 MSTORE PUSH1 0x4 ADD PUSH2 0x6D1 SWAP1 PUSH2 0x21C1 JUMP JUMPDEST PUSH1 0x40 MLOAD DUP1 SWAP2 SUB SWAP1 REVERT JUMPDEST PUSH2 0x731 PUSH4 0x1E13380 PUSH1 0x6 PUSH0 CALLER PUSH20 0xFFFFFFFFFFFFFFFFFFFFFFFFFFFFFFFFFFFFFFFF AND PUSH20 0xFFFFFFFFFFFFFFFFFFFFFFFFFFFFFFFFFFFFFFFF AND DUP2 MSTORE PUSH1 0x20 ADD SWAP1 DUP2 MSTORE PUSH1 0x20 ADD PUSH0 KECCAK256 PUSH1 0x4 ADD SLOAD PUSH2 0x18B6 SWAP1 SWAP2 SWAP1 PUSH4 0xFFFFFFFF AND JUMP JUMPDEST POP POP POP POP POP POP POP JUMP JUMPDEST PUSH0 PUSH1 0x4 PUSH0 DUP5 PUSH1 0x2 DUP2 GT ISZERO PUSH2 0x751 JUMPI PUSH2 0x750 PUSH2 0x1CBB JUMP JUMPDEST JUMPDEST PUSH1 0x2 DUP2 GT ISZERO PUSH2 0x763 JUMPI PUSH2 0x762 PUSH2 0x1CBB JUMP JUMPDEST JUMPDEST DUP2 MSTORE PUSH1 0x20 ADD SWAP1 DUP2 MSTORE PUSH1 0x20 ADD PUSH0 KECCAK256 PUSH0 ADD SLOAD DUP3 PUSH2 0x77E SWAP2 SWAP1 PUSH2 0x2110 JUMP JUMPDEST SWAP1 POP SWAP3 SWAP2 POP POP JUMP JUMPDEST PUSH2 0x78E PUSH2 0x1B1A JUMP JUMPDEST PUSH0 DUP1 PUSH20 0xFFFFFFFFFFFFFFFFFFFFFFFFFFFFFFFFFFFFFFFF AND PUSH1 0x6 PUSH0 CALLER PUSH20 0xFFFFFFFFFFFFFFFFFFFFFFFFFFFFFFFFFFFFFFFF AND PUSH20 0xFFFFFFFFFFFFFFFFFFFFFFFFFFFFFFFFFFFFFFFF AND DUP2 MSTORE PUSH1 0x20 ADD SWAP1 DUP2 MSTORE PUSH1 0x20 ADD PUSH0 KECCAK256 PUSH0 ADD PUSH0 SWAP1 SLOAD SWAP1 PUSH2 0x100 EXP SWAP1 DIV PUSH20 0xFFFFFFFFFFFFFFFFFFFFFFFFFFFFFFFFFFFFFFFF AND PUSH20 0xFFFFFFFFFFFFFFFFFFFFFFFFFFFFFFFFFFFFFFFF AND EQ ISZERO SWAP1 POP PUSH0 TIMESTAMP PUSH1 0x6 PUSH0 CALLER PUSH20 0xFFFFFFFFFFFFFFFFFFFFFFFFFFFFFFFFFFFFFFFF AND PUSH20 0xFFFFFFFFFFFFFFFFFFFFFFFFFFFFFFFFFFFFFFFF AND DUP2 MSTORE PUSH1 0x20 ADD SWAP1 DUP2 MSTORE PUSH1 0x20 ADD PUSH0 KECCAK256 PUSH1 0x4 ADD SLOAD GT SWAP1 POP DUP2 DUP1 ISZERO PUSH2 0x86F JUMPI POP DUP1 JUMPDEST PUSH2 0x8AE JUMPI PUSH1 0x40 MLOAD PUSH32 0x8C379A000000000000000000000000000000000000000000000000000000000 DUP2 MSTORE PUSH1 0x4 ADD PUSH2 0x8A5 SWAP1 PUSH2 0x1F82 JUMP JUMPDEST PUSH1 0x40 MLOAD DUP1 SWAP2 SUB SWAP1 REVERT JUMPDEST PUSH1 0x6 PUSH0 CALLER PUSH20 0xFFFFFFFFFFFFFFFFFFFFFFFFFFFFFFFFFFFFFFFF AND PUSH20 0xFFFFFFFFFFFFFFFFFFFFFFFFFFFFFFFFFFFFFFFF AND DUP2 MSTORE PUSH1 0x20 ADD SWAP1 DUP2 MSTORE PUSH1 0x20 ADD PUSH0 KECCAK256 PUSH1 0x40 MLOAD DUP1 PUSH2 0x100 ADD PUSH1 0x40 MSTORE SWAP1 DUP2 PUSH0 DUP3 ADD PUSH0 SWAP1 SLOAD SWAP1 PUSH2 0x100 EXP SWAP1 DIV PUSH20 0xFFFFFFFFFFFFFFFFFFFFFFFFFFFFFFFFFFFFFFFF AND PUSH20 0xFFFFFFFFFFFFFFFFFFFFFFFFFFFFFFFFFFFFFFFF AND PUSH20 0xFFFFFFFFFFFFFFFFFFFFFFFFFFFFFFFFFFFFFFFF AND DUP2 MSTORE PUSH1 0x20 ADD PUSH0 DUP3 ADD PUSH1 0x14 SWAP1 SLOAD SWAP1 PUSH2 0x100 EXP SWAP1 DIV PUSH1 0xFF AND PUSH1 0x1 DUP2 GT ISZERO PUSH2 0x96F JUMPI PUSH2 0x96E PUSH2 0x1CBB JUMP JUMPDEST JUMPDEST PUSH1 0x1 DUP2 GT ISZERO PUSH2 0x981 JUMPI PUSH2 0x980 PUSH2 0x1CBB JUMP JUMPDEST JUMPDEST DUP2 MSTORE PUSH1 0x20 ADD PUSH0 DUP3 ADD PUSH1 0x15 SWAP1 SLOAD SWAP1 PUSH2 0x100 EXP SWAP1 DIV PUSH1 0xFF AND PUSH1 0x2 DUP2 GT ISZERO PUSH2 0x9A9 JUMPI PUSH2 0x9A8 PUSH2 0x1CBB JUMP JUMPDEST JUMPDEST PUSH1 0x2 DUP2 GT ISZERO PUSH2 0x9BB JUMPI PUSH2 0x9BA PUSH2 0x1CBB JUMP JUMPDEST JUMPDEST DUP2 MSTORE PUSH1 0x20 ADD PUSH1 0x1 DUP3 ADD SLOAD DUP2 MSTORE PUSH1 0x20 ADD PUSH1 0x2 DUP3 ADD SLOAD DUP2 MSTORE PUSH1 0x20 ADD PUSH1 0x3 DUP3 ADD SLOAD DUP2 MSTORE PUSH1 0x20 ADD PUSH1 0x4 DUP3 ADD SLOAD DUP2 MSTORE PUSH1 0x20 ADD PUSH1 0x5 DUP3 ADD SLOAD DUP2 MSTORE POP POP SWAP3 POP POP POP SWAP1 JUMP JUMPDEST PUSH0 DUP1 PUSH0 SWAP1 SLOAD SWAP1 PUSH2 0x100 EXP SWAP1 DIV PUSH20 0xFFFFFFFFFFFFFFFFFFFFFFFFFFFFFFFFFFFFFFFF AND SWAP1 POP SWAP1 JUMP JUMPDEST PUSH0 DUP1 PUSH20 0xFFFFFFFFFFFFFFFFFFFFFFFFFFFFFFFFFFFFFFFF AND PUSH1 0x6 PUSH0 CALLER PUSH20 0xFFFFFFFFFFFFFFFFFFFFFFFFFFFFFFFFFFFFFFFF AND PUSH20 0xFFFFFFFFFFFFFFFFFFFFFFFFFFFFFFFFFFFFFFFF AND DUP2 MSTORE PUSH1 0x20 ADD SWAP1 DUP2 MSTORE PUSH1 0x20 ADD PUSH0 KECCAK256 PUSH0 ADD PUSH0 SWAP1 SLOAD SWAP1 PUSH2 0x100 EXP SWAP1 DIV PUSH20 0xFFFFFFFFFFFFFFFFFFFFFFFFFFFFFFFFFFFFFFFF AND PUSH20 0xFFFFFFFFFFFFFFFFFFFFFFFFFFFFFFFFFFFFFFFF AND EQ SWAP1 POP PUSH0 TIMESTAMP PUSH1 0x6 PUSH0 CALLER PUSH20 0xFFFFFFFFFFFFFFFFFFFFFFFFFFFFFFFFFFFFFFFF AND PUSH20 0xFFFFFFFFFFFFFFFFFFFFFFFFFFFFFFFFFFFFFFFF AND DUP2 MSTORE PUSH1 0x20 ADD SWAP1 DUP2 MSTORE PUSH1 0x20 ADD PUSH0 KECCAK256 PUSH1 0x4 ADD SLOAD LT SWAP1 POP DUP2 DUP1 PUSH2 0xAFE JUMPI POP DUP1 JUMPDEST PUSH2 0xB3D JUMPI PUSH1 0x40 MLOAD PUSH32 0x8C379A000000000000000000000000000000000000000000000000000000000 DUP2 MSTORE PUSH1 0x4 ADD PUSH2 0xB34 SWAP1 PUSH2 0x2229 JUMP JUMPDEST PUSH1 0x40 MLOAD DUP1 SWAP2 SUB SWAP1 REVERT JUMPDEST DUP5 DUP5 PUSH0 DUP2 PUSH1 0x4 PUSH0 DUP6 PUSH1 0x2 DUP2 GT ISZERO PUSH2 0xB57 JUMPI PUSH2 0xB56 PUSH2 0x1CBB JUMP JUMPDEST JUMPDEST PUSH1 0x2 DUP2 GT ISZERO PUSH2 0xB69 JUMPI PUSH2 0xB68 PUSH2 0x1CBB JUMP JUMPDEST JUMPDEST DUP2 MSTORE PUSH1 0x20 ADD SWAP1 DUP2 MSTORE PUSH1 0x20 ADD PUSH0 KECCAK256 PUSH0 ADD SLOAD PUSH2 0xB83 SWAP2 SWAP1 PUSH2 0x2110 JUMP JUMPDEST SWAP1 POP PUSH0 DUP2 CALLVALUE EQ SWAP1 POP DUP1 PUSH2 0xBCB JUMPI PUSH1 0x40 MLOAD PUSH32 0x8C379A000000000000000000000000000000000000000000000000000000000 DUP2 MSTORE PUSH1 0x4 ADD PUSH2 0xBC2 SWAP1 PUSH2 0x21C1 JUMP JUMPDEST PUSH1 0x40 MLOAD DUP1 SWAP2 SUB SWAP1 REVERT JUMPDEST PUSH1 0x40 MLOAD DUP1 PUSH2 0x100 ADD PUSH1 0x40 MSTORE DUP1 CALLER PUSH20 0xFFFFFFFFFFFFFFFFFFFFFFFFFFFFFFFFFFFFFFFF AND DUP2 MSTORE PUSH1 0x20 ADD DUP9 PUSH1 0x1 DUP2 GT ISZERO PUSH2 0xC06 JUMPI PUSH2 0xC05 PUSH2 0x1CBB JUMP JUMPDEST JUMPDEST DUP2 MSTORE PUSH1 0x20 ADD DUP11 PUSH1 0x2 DUP2 GT ISZERO PUSH2 0xC1E JUMPI PUSH2 0xC1D PUSH2 0x1CBB JUMP JUMPDEST JUMPDEST DUP2 MSTORE PUSH1 0x20 ADD DUP10 DUP2 MSTORE PUSH1 0x20 ADD PUSH1 0x4 PUSH0 DUP13 PUSH1 0x2 DUP2 GT ISZERO PUSH2 0xC3F JUMPI PUSH2 0xC3E PUSH2 0x1CBB JUMP JUMPDEST JUMPDEST PUSH1 0x2 DUP2 GT ISZERO PUSH2 0xC51 JUMPI PUSH2 0xC50 PUSH2 0x1CBB JUMP JUMPDEST JUMPDEST DUP2 MSTORE PUSH1 0x20 ADD SWAP1 DUP2 MSTORE PUSH1 0x20 ADD PUSH0 KECCAK256 PUSH0 ADD SLOAD DUP11 PUSH2 0xC6C SWAP2 SWAP1 PUSH2 0x2110 JUMP JUMPDEST DUP2 MSTORE PUSH1 0x20 ADD TIMESTAMP DUP2 MSTORE PUSH1 0x20 ADD PUSH2 0xC8E PUSH4 0x1E13380 TIMESTAMP PUSH2 0x18B6 SWAP1 SWAP2 SWAP1 PUSH4 0xFFFFFFFF AND JUMP JUMPDEST DUP2 MSTORE PUSH1 0x20 ADD PUSH2 0xCAA PUSH4 0x1E13380 TIMESTAMP PUSH2 0x18B6 SWAP1 SWAP2 SWAP1 PUSH4 0xFFFFFFFF AND JUMP JUMPDEST DUP2 MSTORE POP PUSH1 0x6 PUSH0 CALLER PUSH20 0xFFFFFFFFFFFFFFFFFFFFFFFFFFFFFFFFFFFFFFFF AND PUSH20 0xFFFFFFFFFFFFFFFFFFFFFFFFFFFFFFFFFFFFFFFF AND DUP2 MSTORE PUSH1 0x20 ADD SWAP1 DUP2 MSTORE PUSH1 0x20 ADD PUSH0 KECCAK256 PUSH0 DUP3 ADD MLOAD DUP2 PUSH0 ADD PUSH0 PUSH2 0x100 EXP DUP2 SLOAD DUP2 PUSH20 0xFFFFFFFFFFFFFFFFFFFFFFFFFFFFFFFFFFFFFFFF MUL NOT AND SWAP1 DUP4 PUSH20 0xFFFFFFFFFFFFFFFFFFFFFFFFFFFFFFFFFFFFFFFF AND MUL OR SWAP1 SSTORE POP PUSH1 0x20 DUP3 ADD MLOAD DUP2 PUSH0 ADD PUSH1 0x14 PUSH2 0x100 EXP DUP2 SLOAD DUP2 PUSH1 0xFF MUL NOT AND SWAP1 DUP4 PUSH1 0x1 DUP2 GT ISZERO PUSH2 0xD58 JUMPI PUSH2 0xD57 PUSH2 0x1CBB JUMP JUMPDEST JUMPDEST MUL OR SWAP1 SSTORE POP PUSH1 0x40 DUP3 ADD MLOAD DUP2 PUSH0 ADD PUSH1 0x15 PUSH2 0x100 EXP DUP2 SLOAD DUP2 PUSH1 0xFF MUL NOT AND SWAP1 DUP4 PUSH1 0x2 DUP2 GT ISZERO PUSH2 0xD87 JUMPI PUSH2 0xD86 PUSH2 0x1CBB JUMP JUMPDEST JUMPDEST MUL OR SWAP1 SSTORE POP PUSH1 0x60 DUP3 ADD MLOAD DUP2 PUSH1 0x1 ADD SSTORE PUSH1 0x80 DUP3 ADD MLOAD DUP2 PUSH1 0x2 ADD SSTORE PUSH1 0xA0 DUP3 ADD MLOAD DUP2 PUSH1 0x3 ADD SSTORE PUSH1 0xC0 DUP3 ADD MLOAD DUP2 PUSH1 0x4 ADD SSTORE PUSH1 0xE0 DUP3 ADD MLOAD DUP2 PUSH1 0x5 ADD SSTORE SWAP1 POP POP PUSH0 PUSH4 0x1E13380 SWAP1 POP PUSH0 PUSH2 0x7B2 SWAP1 POP DUP1 DUP3 TIMESTAMP PUSH2 0xDDC SWAP2 SWAP1 PUSH2 0x2274 JUMP JUMPDEST PUSH2 0xDE6 SWAP2 SWAP1 PUSH2 0x20DD JUMP JUMPDEST PUSH1 0x7 PUSH0 CALLER PUSH20 0xFFFFFFFFFFFFFFFFFFFFFFFFFFFFFFFFFFFFFFFF AND PUSH20 0xFFFFFFFFFFFFFFFFFFFFFFFFFFFFFFFFFFFFFFFF AND DUP2 MSTORE PUSH1 0x20 ADD SWAP1 DUP2 MSTORE PUSH1 0x20 ADD PUSH0 KECCAK256 DUP2 SWAP1 SSTORE POP PUSH1 0x9 PUSH0 CALLER PUSH20 0xFFFFFFFFFFFFFFFFFFFFFFFFFFFFFFFFFFFFFFFF AND PUSH20 0xFFFFFFFFFFFFFFFFFFFFFFFFFFFFFFFFFFFFFFFF AND DUP2 MSTORE PUSH1 0x20 ADD SWAP1 DUP2 MSTORE PUSH1 0x20 ADD PUSH0 KECCAK256 TIMESTAMP SWAP1 DUP1 PUSH1 0x1 DUP2 SLOAD ADD DUP1 DUP3 SSTORE DUP1 SWAP2 POP POP PUSH1 0x1 SWAP1 SUB SWAP1 PUSH0 MSTORE PUSH1 0x20 PUSH0 KECCAK256 ADD PUSH0 SWAP1 SWAP2 SWAP1 SWAP2 SWAP1 SWAP2 POP SSTORE POP POP POP POP POP POP POP POP POP POP POP JUMP JUMPDEST PUSH0 DUP1 PUSH1 0x1 DUP2 GT ISZERO PUSH2 0xEA9 JUMPI PUSH2 0xEA8 PUSH2 0x1CBB JUMP JUMPDEST JUMPDEST DUP3 PUSH1 0x1 DUP2 GT ISZERO PUSH2 0xEBC JUMPI PUSH2 0xEBB PUSH2 0x1CBB JUMP JUMPDEST JUMPDEST EQ SWAP1 POP PUSH0 DUP2 PUSH2 0xF09 JUMPI PUSH2 0xF04 DUP6 PUSH1 0x40 MLOAD DUP1 PUSH1 0x40 ADD PUSH1 0x40 MSTORE DUP1 PUSH1 0x6 DUP2 MSTORE PUSH1 0x20 ADD PUSH32 0x5F4E4F5254480000000000000000000000000000000000000000000000000000 DUP2 MSTORE POP PUSH2 0x18CB JUMP JUMPDEST PUSH2 0xF49 JUMP JUMPDEST PUSH2 0xF48 DUP6 PUSH1 0x40 MLOAD DUP1 PUSH1 0x40 ADD PUSH1 0x40 MSTORE DUP1 PUSH1 0x6 DUP2 MSTORE PUSH1 0x20 ADD PUSH32 0x5F534F5554480000000000000000000000000000000000000000000000000000 DUP2 MSTORE POP PUSH2 0x18CB JUMP JUMPDEST JUMPDEST SWAP1 POP DUP4 PUSH1 0x5 DUP3 PUSH1 0x40 MLOAD PUSH2 0xF5C SWAP2 SWAP1 PUSH2 0x200C JUMP JUMPDEST SWAP1 DUP2 MSTORE PUSH1 0x20 ADD PUSH1 0x40 MLOAD DUP1 SWAP2 SUB SWAP1 KECCAK256 DUP2 SWAP1 SSTORE POP POP POP POP POP POP JUMP JUMPDEST PUSH0 CALLVALUE GT PUSH2 0xFB7 JUMPI PUSH1 0x40 MLOAD PUSH32 0x8C379A000000000000000000000000000000000000000000000000000000000 DUP2 MSTORE PUSH1 0x4 ADD PUSH2 0xFAE SWAP1 PUSH2 0x22EE JUMP JUMPDEST PUSH1 0x40 MLOAD DUP1 SWAP2 SUB SWAP1 REVERT JUMPDEST JUMP JUMPDEST PUSH0 DUP1 PUSH20 0xFFFFFFFFFFFFFFFFFFFFFFFFFFFFFFFFFFFFFFFF AND PUSH1 0x6 PUSH0 CALLER PUSH20 0xFFFFFFFFFFFFFFFFFFFFFFFFFFFFFFFFFFFFFFFF AND PUSH20 0xFFFFFFFFFFFFFFFFFFFFFFFFFFFFFFFFFFFFFFFF AND DUP2 MSTORE PUSH1 0x20 ADD SWAP1 DUP2 MSTORE PUSH1 0x20 ADD PUSH0 KECCAK256 PUSH0 ADD PUSH0 SWAP1 SLOAD SWAP1 PUSH2 0x100 EXP SWAP1 DIV PUSH20 0xFFFFFFFFFFFFFFFFFFFFFFFFFFFFFFFFFFFFFFFF AND PUSH20 0xFFFFFFFFFFFFFFFFFFFFFFFFFFFFFFFFFFFFFFFF AND EQ ISZERO SWAP1 POP PUSH0 TIMESTAMP PUSH1 0x6 PUSH0 CALLER PUSH20 0xFFFFFFFFFFFFFFFFFFFFFFFFFFFFFFFFFFFFFFFF AND PUSH20 0xFFFFFFFFFFFFFFFFFFFFFFFFFFFFFFFFFFFFFFFF AND DUP2 MSTORE PUSH1 0x20 ADD SWAP1 DUP2 MSTORE PUSH1 0x20 ADD PUSH0 KECCAK256 PUSH1 0x4 ADD SLOAD GT SWAP1 POP DUP2 DUP1 ISZERO PUSH2 0x109A JUMPI POP DUP1 JUMPDEST PUSH2 0x10D9 JUMPI PUSH1 0x40 MLOAD PUSH32 0x8C379A000000000000000000000000000000000000000000000000000000000 DUP2 MSTORE PUSH1 0x4 ADD PUSH2 0x10D0 SWAP1 PUSH2 0x1F82 JUMP JUMPDEST PUSH1 0x40 MLOAD DUP1 SWAP2 SUB SWAP1 REVERT JUMPDEST PUSH0 TIMESTAMP PUSH1 0x6 PUSH0 CALLER PUSH20 0xFFFFFFFFFFFFFFFFFFFFFFFFFFFFFFFFFFFFFFFF AND PUSH20 0xFFFFFFFFFFFFFFFFFFFFFFFFFFFFFFFFFFFFFFFF AND DUP2 MSTORE PUSH1 0x20 ADD SWAP1 DUP2 MSTORE PUSH1 0x20 ADD PUSH0 KECCAK256 PUSH1 0x5 ADD SLOAD LT SWAP1 POP DUP1 ISZERO PUSH2 0x1160 JUMPI PUSH1 0x40 MLOAD PUSH32 0x8C379A000000000000000000000000000000000000000000000000000000000 DUP2 MSTORE PUSH1 0x4 ADD PUSH2 0x1157 SWAP1 PUSH2 0x237C JUMP JUMPDEST PUSH1 0x40 MLOAD DUP1 SWAP2 SUB SWAP1 REVERT JUMPDEST DUP4 PUSH0 DUP2 PUSH1 0x7 PUSH0 CALLER PUSH20 0xFFFFFFFFFFFFFFFFFFFFFFFFFFFFFFFFFFFFFFFF AND PUSH20 0xFFFFFFFFFFFFFFFFFFFFFFFFFFFFFFFFFFFFFFFF AND DUP2 MSTORE PUSH1 0x20 ADD SWAP1 DUP2 MSTORE PUSH1 0x20 ADD PUSH0 KECCAK256 SLOAD EQ SWAP1 POP DUP1 PUSH2 0x11E4 JUMPI PUSH1 0x40 MLOAD PUSH32 0x8C379A000000000000000000000000000000000000000000000000000000000 DUP2 MSTORE PUSH1 0x4 ADD PUSH2 0x11DB SWAP1 PUSH2 0x240A JUMP JUMPDEST PUSH1 0x40 MLOAD DUP1 SWAP2 SUB SWAP1 REVERT JUMPDEST DUP6 PUSH0 PUSH2 0x11EF DUP3 PUSH2 0x1476 JUMP JUMPDEST SWAP1 POP PUSH0 DUP1 PUSH1 0x5 DUP4 PUSH1 0x40 MLOAD PUSH2 0x1203 SWAP2 SWAP1 PUSH2 0x200C JUMP JUMPDEST SWAP1 DUP2 MSTORE PUSH1 0x20 ADD PUSH1 0x40 MLOAD DUP1 SWAP2 SUB SWAP1 KECCAK256 SLOAD EQ ISZERO SWAP1 POP DUP1 PUSH2 0x1256 JUMPI PUSH1 0x40 MLOAD PUSH32 0x8C379A000000000000000000000000000000000000000000000000000000000 DUP2 MSTORE PUSH1 0x4 ADD PUSH2 0x124D SWAP1 PUSH2 0x2092 JUMP JUMPDEST PUSH1 0x40 MLOAD DUP1 SWAP2 SUB SWAP1 REVERT JUMPDEST PUSH0 PUSH1 0x6 PUSH0 CALLER PUSH20 0xFFFFFFFFFFFFFFFFFFFFFFFFFFFFFFFFFFFFFFFF AND PUSH20 0xFFFFFFFFFFFFFFFFFFFFFFFFFFFFFFFFFFFFFFFF AND DUP2 MSTORE PUSH1 0x20 ADD SWAP1 DUP2 MSTORE PUSH1 0x20 ADD PUSH0 KECCAK256 PUSH1 0x40 MLOAD DUP1 PUSH2 0x100 ADD PUSH1 0x40 MSTORE SWAP1 DUP2 PUSH0 DUP3 ADD PUSH0 SWAP1 SLOAD SWAP1 PUSH2 0x100 EXP SWAP1 DIV PUSH20 0xFFFFFFFFFFFFFFFFFFFFFFFFFFFFFFFFFFFFFFFF AND PUSH20 0xFFFFFFFFFFFFFFFFFFFFFFFFFFFFFFFFFFFFFFFF AND PUSH20 0xFFFFFFFFFFFFFFFFFFFFFFFFFFFFFFFFFFFFFFFF AND DUP2 MSTORE PUSH1 0x20 ADD PUSH0 DUP3 ADD PUSH1 0x14 SWAP1 SLOAD SWAP1 PUSH2 0x100 EXP SWAP1 DIV PUSH1 0xFF AND PUSH1 0x1 DUP2 GT ISZERO PUSH2 0x1318 JUMPI PUSH2 0x1317 PUSH2 0x1CBB JUMP JUMPDEST JUMPDEST PUSH1 0x1 DUP2 GT ISZERO PUSH2 0x132A JUMPI PUSH2 0x1329 PUSH2 0x1CBB JUMP JUMPDEST JUMPDEST DUP2 MSTORE PUSH1 0x20 ADD PUSH0 DUP3 ADD PUSH1 0x15 SWAP1 SLOAD SWAP1 PUSH2 0x100 EXP SWAP1 DIV PUSH1 0xFF AND PUSH1 0x2 DUP2 GT ISZERO PUSH2 0x1352 JUMPI PUSH2 0x1351 PUSH2 0x1CBB JUMP JUMPDEST JUMPDEST PUSH1 0x2 DUP2 GT ISZERO PUSH2 0x1364 JUMPI PUSH2 0x1363 PUSH2 0x1CBB JUMP JUMPDEST JUMPDEST DUP2 MSTORE PUSH1 0x20 ADD PUSH1 0x1 DUP3 ADD SLOAD DUP2 MSTORE PUSH1 0x20 ADD PUSH1 0x2 DUP3 ADD SLOAD DUP2 MSTORE PUSH1 0x20 ADD PUSH1 0x3 DUP3 ADD SLOAD DUP2 MSTORE PUSH1 0x20 ADD PUSH1 0x4 DUP3 ADD SLOAD DUP2 MSTORE PUSH1 0x20 ADD PUSH1 0x5 DUP3 ADD SLOAD DUP2 MSTORE POP POP SWAP1 POP PUSH0 PUSH2 0x13A6 DUP12 PUSH2 0x16A6 JUMP JUMPDEST SWAP1 POP CALLER PUSH20 0xFFFFFFFFFFFFFFFFFFFFFFFFFFFFFFFFFFFFFFFF AND PUSH2 0x8FC DUP3 SWAP1 DUP2 ISZERO MUL SWAP1 PUSH1 0x40 MLOAD PUSH0 PUSH1 0x40 MLOAD DUP1 DUP4 SUB DUP2 DUP6 DUP9 DUP9 CALL SWAP4 POP POP POP POP ISZERO DUP1 ISZERO PUSH2 0x13EB JUMPI RETURNDATASIZE PUSH0 DUP1 RETURNDATACOPY RETURNDATASIZE PUSH0 REVERT JUMPDEST POP PUSH2 0x1407 PUSH4 0x1E13380 DUP4 PUSH1 0xE0 ADD MLOAD PUSH2 0x18B6 SWAP1 SWAP2 SWAP1 PUSH4 0xFFFFFFFF AND JUMP JUMPDEST POP PUSH0 DUP3 PUSH1 0xC0 ADD MLOAD GT ISZERO PUSH2 0x1469 JUMPI PUSH1 0x1 PUSH1 0x7 PUSH0 CALLER PUSH20 0xFFFFFFFFFFFFFFFFFFFFFFFFFFFFFFFFFFFFFFFF AND PUSH20 0xFFFFFFFFFFFFFFFFFFFFFFFFFFFFFFFFFFFFFFFF AND DUP2 MSTORE PUSH1 0x20 ADD SWAP1 DUP2 MSTORE PUSH1 0x20 ADD PUSH0 KECCAK256 PUSH0 DUP3 DUP3 SLOAD PUSH2 0x1461 SWAP2 SWAP1 PUSH2 0x20DD JUMP JUMPDEST SWAP3 POP POP DUP2 SWAP1 SSTORE POP JUMPDEST POP POP POP POP POP POP POP POP POP POP POP JUMP JUMPDEST PUSH1 0x60 PUSH0 DUP1 PUSH20 0xFFFFFFFFFFFFFFFFFFFFFFFFFFFFFFFFFFFFFFFF AND PUSH1 0x6 PUSH0 CALLER PUSH20 0xFFFFFFFFFFFFFFFFFFFFFFFFFFFFFFFFFFFFFFFF AND PUSH20 0xFFFFFFFFFFFFFFFFFFFFFFFFFFFFFFFFFFFFFFFF AND DUP2 MSTORE PUSH1 0x20 ADD SWAP1 DUP2 MSTORE PUSH1 0x20 ADD PUSH0 KECCAK256 PUSH0 ADD PUSH0 SWAP1 SLOAD SWAP1 PUSH2 0x100 EXP SWAP1 DIV PUSH20 0xFFFFFFFFFFFFFFFFFFFFFFFFFFFFFFFFFFFFFFFF AND PUSH20 0xFFFFFFFFFFFFFFFFFFFFFFFFFFFFFFFFFFFFFFFF AND EQ ISZERO SWAP1 POP PUSH0 TIMESTAMP PUSH1 0x6 PUSH0 CALLER PUSH20 0xFFFFFFFFFFFFFFFFFFFFFFFFFFFFFFFFFFFFFFFF AND PUSH20 0xFFFFFFFFFFFFFFFFFFFFFFFFFFFFFFFFFFFFFFFF AND DUP2 MSTORE PUSH1 0x20 ADD SWAP1 DUP2 MSTORE PUSH1 0x20 ADD PUSH0 KECCAK256 PUSH1 0x4 ADD SLOAD GT SWAP1 POP DUP2 DUP1 ISZERO PUSH2 0x1559 JUMPI POP DUP1 JUMPDEST PUSH2 0x1598 JUMPI PUSH1 0x40 MLOAD PUSH32 0x8C379A000000000000000000000000000000000000000000000000000000000 DUP2 MSTORE PUSH1 0x4 ADD PUSH2 0x158F SWAP1 PUSH2 0x1F82 JUMP JUMPDEST PUSH1 0x40 MLOAD DUP1 SWAP2 SUB SWAP1 REVERT JUMPDEST PUSH0 DUP1 PUSH1 0x1 DUP2 GT ISZERO PUSH2 0x15AC JUMPI PUSH2 0x15AB PUSH2 0x1CBB JUMP JUMPDEST JUMPDEST PUSH1 0x6 PUSH0 CALLER PUSH20 0xFFFFFFFFFFFFFFFFFFFFFFFFFFFFFFFFFFFFFFFF AND PUSH20 0xFFFFFFFFFFFFFFFFFFFFFFFFFFFFFFFFFFFFFFFF AND DUP2 MSTORE PUSH1 0x20 ADD SWAP1 DUP2 MSTORE PUSH1 0x20 ADD PUSH0 KECCAK256 PUSH0 ADD PUSH1 0x14 SWAP1 SLOAD SWAP1 PUSH2 0x100 EXP SWAP1 DIV PUSH1 0xFF AND PUSH1 0x1 DUP2 GT ISZERO PUSH2 0x160B JUMPI PUSH2 0x160A PUSH2 0x1CBB JUMP JUMPDEST JUMPDEST EQ SWAP1 POP PUSH0 DUP2 PUSH2 0x1658 JUMPI PUSH2 0x1653 DUP7 PUSH1 0x40 MLOAD DUP1 PUSH1 0x40 ADD PUSH1 0x40 MSTORE DUP1 PUSH1 0x6 DUP2 MSTORE PUSH1 0x20 ADD PUSH32 0x5F4E4F5254480000000000000000000000000000000000000000000000000000 DUP2 MSTORE POP PUSH2 0x18CB JUMP JUMPDEST PUSH2 0x1698 JUMP JUMPDEST PUSH2 0x1697 DUP7 PUSH1 0x40 MLOAD DUP1 PUSH1 0x40 ADD PUSH1 0x40 MSTORE DUP1 PUSH1 0x6 DUP2 MSTORE PUSH1 0x20 ADD PUSH32 0x5F534F5554480000000000000000000000000000000000000000000000000000 DUP2 MSTORE POP PUSH2 0x18CB JUMP JUMPDEST JUMPDEST SWAP1 POP DUP1 SWAP5 POP POP POP POP POP SWAP2 SWAP1 POP JUMP JUMPDEST PUSH0 DUP1 PUSH2 0x16B1 DUP4 PUSH2 0x1476 JUMP JUMPDEST SWAP1 POP PUSH0 PUSH1 0x6 PUSH0 CALLER PUSH20 0xFFFFFFFFFFFFFFFFFFFFFFFFFFFFFFFFFFFFFFFF AND PUSH20 0xFFFFFFFFFFFFFFFFFFFFFFFFFFFFFFFFFFFFFFFF AND DUP2 MSTORE PUSH1 0x20 ADD SWAP1 DUP2 MSTORE PUSH1 0x20 ADD PUSH0 KECCAK256 PUSH1 0x40 MLOAD DUP1 PUSH2 0x100 ADD PUSH1 0x40 MSTORE SWAP1 DUP2 PUSH0 DUP3 ADD PUSH0 SWAP1 SLOAD SWAP1 PUSH2 0x100 EXP SWAP1 DIV PUSH20 0xFFFFFFFFFFFFFFFFFFFFFFFFFFFFFFFFFFFFFFFF AND PUSH20 0xFFFFFFFFFFFFFFFFFFFFFFFFFFFFFFFFFFFFFFFF AND PUSH20 0xFFFFFFFFFFFFFFFFFFFFFFFFFFFFFFFFFFFFFFFF AND DUP2 MSTORE PUSH1 0x20 ADD PUSH0 DUP3 ADD PUSH1 0x14 SWAP1 SLOAD SWAP1 PUSH2 0x100 EXP SWAP1 DIV PUSH1 0xFF AND PUSH1 0x1 DUP2 GT ISZERO PUSH2 0x1775 JUMPI PUSH2 0x1774 PUSH2 0x1CBB JUMP JUMPDEST JUMPDEST PUSH1 0x1 DUP2 GT ISZERO PUSH2 0x1787 JUMPI PUSH2 0x1786 PUSH2 0x1CBB JUMP JUMPDEST JUMPDEST DUP2 MSTORE PUSH1 0x20 ADD PUSH0 DUP3 ADD PUSH1 0x15 SWAP1 SLOAD SWAP1 PUSH2 0x100 EXP SWAP1 DIV PUSH1 0xFF AND PUSH1 0x2 DUP2 GT ISZERO PUSH2 0x17AF JUMPI PUSH2 0x17AE PUSH2 0x1CBB JUMP JUMPDEST JUMPDEST PUSH1 0x2 DUP2 GT ISZERO PUSH2 0x17C1 JUMPI PUSH2 0x17C0 PUSH2 0x1CBB JUMP JUMPDEST JUMPDEST DUP2 MSTORE PUSH1 0x20 ADD PUSH1 0x1 DUP3 ADD SLOAD DUP2 MSTORE PUSH1 0x20 ADD PUSH1 0x2 DUP3 ADD SLOAD DUP2 MSTORE PUSH1 0x20 ADD PUSH1 0x3 DUP3 ADD SLOAD DUP2 MSTORE PUSH1 0x20 ADD PUSH1 0x4 DUP3 ADD SLOAD DUP2 MSTORE PUSH1 0x20 ADD PUSH1 0x5 DUP3 ADD SLOAD DUP2 MSTORE POP POP SWAP1 POP PUSH0 PUSH1 0x5 DUP4 PUSH1 0x40 MLOAD PUSH2 0x180A SWAP2 SWAP1 PUSH2 0x200C JUMP JUMPDEST SWAP1 DUP2 MSTORE PUSH1 0x20 ADD PUSH1 0x40 MLOAD DUP1 SWAP2 SUB SWAP1 KECCAK256 SLOAD PUSH1 0x4 PUSH0 DUP5 PUSH1 0x40 ADD MLOAD PUSH1 0x2 DUP2 GT ISZERO PUSH2 0x1833 JUMPI PUSH2 0x1832 PUSH2 0x1CBB JUMP JUMPDEST JUMPDEST PUSH1 0x2 DUP2 GT ISZERO PUSH2 0x1845 JUMPI PUSH2 0x1844 PUSH2 0x1CBB JUMP JUMPDEST JUMPDEST DUP2 MSTORE PUSH1 0x20 ADD SWAP1 DUP2 MSTORE PUSH1 0x20 ADD PUSH0 KECCAK256 PUSH1 0x1 ADD SLOAD PUSH2 0x1860 SWAP2 SWAP1 PUSH2 0x2428 JUMP JUMPDEST SWAP1 POP PUSH0 PUSH1 0x1 SLOAD DUP4 PUSH1 0x60 ADD MLOAD PUSH1 0x3 SLOAD DUP5 PUSH1 0x2 SLOAD PUSH2 0x187C SWAP2 SWAP1 PUSH2 0x2110 JUMP JUMPDEST PUSH2 0x1886 SWAP2 SWAP1 PUSH2 0x2110 JUMP JUMPDEST PUSH2 0x1890 SWAP2 SWAP1 PUSH2 0x2110 JUMP JUMPDEST PUSH2 0x189A SWAP2 SWAP1 PUSH2 0x2110 JUMP JUMPDEST SWAP1 POP PUSH3 0x186A0 DUP2 PUSH2 0x18AB SWAP2 SWAP1 PUSH2 0x2274 JUMP JUMPDEST SWAP5 POP POP POP POP POP SWAP2 SWAP1 POP JUMP JUMPDEST PUSH0 DUP2 DUP4 PUSH2 0x18C3 SWAP2 SWAP1 PUSH2 0x20DD JUMP JUMPDEST SWAP1 POP SWAP3 SWAP2 POP POP JUMP JUMPDEST PUSH1 0x60 PUSH2 0x18D6 DUP4 PUSH2 0x18FF JUMP JUMPDEST DUP3 PUSH1 0x40 MLOAD PUSH1 0x20 ADD PUSH2 0x18E8 SWAP3 SWAP2 SWAP1 PUSH2 0x245B JUMP JUMPDEST PUSH1 0x40 MLOAD PUSH1 0x20 DUP2 DUP4 SUB SUB DUP2 MSTORE SWAP1 PUSH1 0x40 MSTORE SWAP1 POP SWAP3 SWAP2 POP POP JUMP JUMPDEST PUSH1 0x60 PUSH0 PUSH1 0x1 PUSH2 0x190D DUP5 PUSH2 0x19C9 JUMP JUMPDEST ADD SWAP1 POP PUSH0 DUP2 PUSH8 0xFFFFFFFFFFFFFFFF DUP2 GT ISZERO PUSH2 0x192B JUMPI PUSH2 0x192A PUSH2 0x247E JUMP JUMPDEST JUMPDEST PUSH1 0x40 MLOAD SWAP1 DUP1 DUP3 MSTORE DUP1 PUSH1 0x1F ADD PUSH1 0x1F NOT AND PUSH1 0x20 ADD DUP3 ADD PUSH1 0x40 MSTORE DUP1 ISZERO PUSH2 0x195D JUMPI DUP2 PUSH1 0x20 ADD PUSH1 0x1 DUP3 MUL DUP1 CALLDATASIZE DUP4 CALLDATACOPY DUP1 DUP3 ADD SWAP2 POP POP SWAP1 POP JUMPDEST POP SWAP1 POP PUSH0 DUP3 PUSH1 0x20 ADD DUP3 ADD SWAP1 POP JUMPDEST PUSH1 0x1 ISZERO PUSH2 0x19BE JUMPI DUP1 DUP1 PUSH1 0x1 SWAP1 SUB SWAP2 POP POP PUSH32 0x3031323334353637383961626364656600000000000000000000000000000000 PUSH1 0xA DUP7 MOD BYTE DUP2 MSTORE8 PUSH1 0xA DUP6 DUP2 PUSH2 0x19B3 JUMPI PUSH2 0x19B2 PUSH2 0x2247 JUMP JUMPDEST JUMPDEST DIV SWAP5 POP PUSH0 DUP6 SUB PUSH2 0x196A JUMPI JUMPDEST DUP2 SWAP4 POP POP POP POP SWAP2 SWAP1 POP JUMP JUMPDEST PUSH0 DUP1 PUSH0 SWAP1 POP PUSH27 0x184F03E93FF9F4DAA797ED6E38ED64BF6A1F010000000000000000 DUP4 LT PUSH2 0x1A25 JUMPI PUSH27 0x184F03E93FF9F4DAA797ED6E38ED64BF6A1F010000000000000000 DUP4 DUP2 PUSH2 0x1A1B JUMPI PUSH2 0x1A1A PUSH2 0x2247 JUMP JUMPDEST JUMPDEST DIV SWAP3 POP PUSH1 0x40 DUP2 ADD SWAP1 POP JUMPDEST PUSH14 0x4EE2D6D415B85ACEF8100000000 DUP4 LT PUSH2 0x1A62 JUMPI PUSH14 0x4EE2D6D415B85ACEF8100000000 DUP4 DUP2 PUSH2 0x1A58 JUMPI PUSH2 0x1A57 PUSH2 0x2247 JUMP JUMPDEST JUMPDEST DIV SWAP3 POP PUSH1 0x20 DUP2 ADD SWAP1 POP JUMPDEST PUSH7 0x2386F26FC10000 DUP4 LT PUSH2 0x1A91 JUMPI PUSH7 0x2386F26FC10000 DUP4 DUP2 PUSH2 0x1A87 JUMPI PUSH2 0x1A86 PUSH2 0x2247 JUMP JUMPDEST JUMPDEST DIV SWAP3 POP PUSH1 0x10 DUP2 ADD SWAP1 POP JUMPDEST PUSH4 0x5F5E100 DUP4 LT PUSH2 0x1ABA JUMPI PUSH4 0x5F5E100 DUP4 DUP2 PUSH2 0x1AB0 JUMPI PUSH2 0x1AAF PUSH2 0x2247 JUMP JUMPDEST JUMPDEST DIV SWAP3 POP PUSH1 0x8 DUP2 ADD SWAP1 POP JUMPDEST PUSH2 0x2710 DUP4 LT PUSH2 0x1ADF JUMPI PUSH2 0x2710 DUP4 DUP2 PUSH2 0x1AD5 JUMPI PUSH2 0x1AD4 PUSH2 0x2247 JUMP JUMPDEST JUMPDEST DIV SWAP3 POP PUSH1 0x4 DUP2 ADD SWAP1 POP JUMPDEST PUSH1 0x64 DUP4 LT PUSH2 0x1B02 JUMPI PUSH1 0x64 DUP4 DUP2 PUSH2 0x1AF8 JUMPI PUSH2 0x1AF7 PUSH2 0x2247 JUMP JUMPDEST JUMPDEST DIV SWAP3 POP PUSH1 0x2 DUP2 ADD SWAP1 POP JUMPDEST PUSH1 0xA DUP4 LT PUSH2 0x1B11 JUMPI PUSH1 0x1 DUP2 ADD SWAP1 POP JUMPDEST DUP1 SWAP2 POP POP SWAP2 SWAP1 POP JUMP JUMPDEST PUSH1 0x40 MLOAD DUP1 PUSH2 0x100 ADD PUSH1 0x40 MSTORE DUP1 PUSH0 PUSH20 0xFFFFFFFFFFFFFFFFFFFFFFFFFFFFFFFFFFFFFFFF AND DUP2 MSTORE PUSH1 0x20 ADD PUSH0 PUSH1 0x1 DUP2 GT ISZERO PUSH2 0x1B55 JUMPI PUSH2 0x1B54 PUSH2 0x1CBB JUMP JUMPDEST JUMPDEST DUP2 MSTORE PUSH1 0x20 ADD PUSH0 PUSH1 0x2 DUP2 GT ISZERO PUSH2 0x1B6D JUMPI PUSH2 0x1B6C PUSH2 0x1CBB JUMP JUMPDEST JUMPDEST DUP2 MSTORE PUSH1 0x20 ADD PUSH0 DUP2 MSTORE PUSH1 0x20 ADD PUSH0 DUP2 MSTORE PUSH1 0x20 ADD PUSH0 DUP2 MSTORE PUSH1 0x20 ADD PUSH0 DUP2 MSTORE PUSH1 0x20 ADD PUSH0 DUP2 MSTORE POP SWAP1 JUMP JUMPDEST PUSH0 DUP1 REVERT JUMPDEST PUSH0 DUP2 SWAP1 POP SWAP2 SWAP1 POP JUMP JUMPDEST PUSH2 0x1BA7 DUP2 PUSH2 0x1B95 JUMP JUMPDEST DUP2 EQ PUSH2 0x1BB1 JUMPI PUSH0 DUP1 REVERT JUMPDEST POP JUMP JUMPDEST PUSH0 DUP2 CALLDATALOAD SWAP1 POP PUSH2 0x1BC2 DUP2 PUSH2 0x1B9E JUMP JUMPDEST SWAP3 SWAP2 POP POP JUMP JUMPDEST PUSH0 PUSH1 0x20 DUP3 DUP5 SUB SLT ISZERO PUSH2 0x1BDD JUMPI PUSH2 0x1BDC PUSH2 0x1B91 JUMP JUMPDEST JUMPDEST PUSH0 PUSH2 0x1BEA DUP5 DUP3 DUP6 ADD PUSH2 0x1BB4 JUMP JUMPDEST SWAP2 POP POP SWAP3 SWAP2 POP POP JUMP JUMPDEST PUSH1 0x3 DUP2 LT PUSH2 0x1BFF JUMPI PUSH0 DUP1 REVERT JUMPDEST POP JUMP JUMPDEST PUSH0 DUP2 CALLDATALOAD SWAP1 POP PUSH2 0x1C10 DUP2 PUSH2 0x1BF3 JUMP JUMPDEST SWAP3 SWAP2 POP POP JUMP JUMPDEST PUSH0 DUP1 PUSH1 0x40 DUP4 DUP6 SUB SLT ISZERO PUSH2 0x1C2C JUMPI PUSH2 0x1C2B PUSH2 0x1B91 JUMP JUMPDEST JUMPDEST PUSH0 PUSH2 0x1C39 DUP6 DUP3 DUP7 ADD PUSH2 0x1C02 JUMP JUMPDEST SWAP3 POP POP PUSH1 0x20 PUSH2 0x1C4A DUP6 DUP3 DUP7 ADD PUSH2 0x1BB4 JUMP JUMPDEST SWAP2 POP POP SWAP3 POP SWAP3 SWAP1 POP JUMP JUMPDEST PUSH2 0x1C5D DUP2 PUSH2 0x1B95 JUMP JUMPDEST DUP3 MSTORE POP POP JUMP JUMPDEST PUSH0 PUSH1 0x20 DUP3 ADD SWAP1 POP PUSH2 0x1C76 PUSH0 DUP4 ADD DUP5 PUSH2 0x1C54 JUMP JUMPDEST SWAP3 SWAP2 POP POP JUMP JUMPDEST PUSH0 PUSH20 0xFFFFFFFFFFFFFFFFFFFFFFFFFFFFFFFFFFFFFFFF DUP3 AND SWAP1 POP SWAP2 SWAP1 POP JUMP JUMPDEST PUSH0 PUSH2 0x1CA5 DUP3 PUSH2 0x1C7C JUMP JUMPDEST SWAP1 POP SWAP2 SWAP1 POP JUMP JUMPDEST PUSH2 0x1CB5 DUP2 PUSH2 0x1C9B JUMP JUMPDEST DUP3 MSTORE POP POP JUMP JUMPDEST PUSH32 0x4E487B7100000000000000000000000000000000000000000000000000000000 PUSH0 MSTORE PUSH1 0x21 PUSH1 0x4 MSTORE PUSH1 0x24 PUSH0 REVERT JUMPDEST PUSH1 0x2 DUP2 LT PUSH2 0x1CF9 JUMPI PUSH2 0x1CF8 PUSH2 0x1CBB JUMP JUMPDEST JUMPDEST POP JUMP JUMPDEST PUSH0 DUP2 SWAP1 POP PUSH2 0x1D09 DUP3 PUSH2 0x1CE8 JUMP JUMPDEST SWAP2 SWAP1 POP JUMP JUMPDEST PUSH0 PUSH2 0x1D18 DUP3 PUSH2 0x1CFC JUMP JUMPDEST SWAP1 POP SWAP2 SWAP1 POP JUMP JUMPDEST PUSH2 0x1D28 DUP2 PUSH2 0x1D0E JUMP JUMPDEST DUP3 MSTORE POP POP JUMP JUMPDEST PUSH1 0x3 DUP2 LT PUSH2 0x1D3F JUMPI PUSH2 0x1D3E PUSH2 0x1CBB JUMP JUMPDEST JUMPDEST POP JUMP JUMPDEST PUSH0 DUP2 SWAP1 POP PUSH2 0x1D4F DUP3 PUSH2 0x1D2E JUMP JUMPDEST SWAP2 SWAP1 POP JUMP JUMPDEST PUSH0 PUSH2 0x1D5E DUP3 PUSH2 0x1D42 JUMP JUMPDEST SWAP1 POP SWAP2 SWAP1 POP JUMP JUMPDEST PUSH2 0x1D6E DUP2 PUSH2 0x1D54 JUMP JUMPDEST DUP3 MSTORE POP POP JUMP JUMPDEST PUSH2 0x1D7D DUP2 PUSH2 0x1B95 JUMP JUMPDEST DUP3 MSTORE POP POP JUMP JUMPDEST PUSH2 0x100 DUP3 ADD PUSH0 DUP3 ADD MLOAD PUSH2 0x1D98 PUSH0 DUP6 ADD DUP3 PUSH2 0x1CAC JUMP JUMPDEST POP PUSH1 0x20 DUP3 ADD MLOAD PUSH2 0x1DAB PUSH1 0x20 DUP6 ADD DUP3 PUSH2 0x1D1F JUMP JUMPDEST POP PUSH1 0x40 DUP3 ADD MLOAD PUSH2 0x1DBE PUSH1 0x40 DUP6 ADD DUP3 PUSH2 0x1D65 JUMP JUMPDEST POP PUSH1 0x60 DUP3 ADD MLOAD PUSH2 0x1DD1 PUSH1 0x60 DUP6 ADD DUP3 PUSH2 0x1D74 JUMP JUMPDEST POP PUSH1 0x80 DUP3 ADD MLOAD PUSH2 0x1DE4 PUSH1 0x80 DUP6 ADD DUP3 PUSH2 0x1D74 JUMP JUMPDEST POP PUSH1 0xA0 DUP3 ADD MLOAD PUSH2 0x1DF7 PUSH1 0xA0 DUP6 ADD DUP3 PUSH2 0x1D74 JUMP JUMPDEST POP PUSH1 0xC0 DUP3 ADD MLOAD PUSH2 0x1E0A PUSH1 0xC0 DUP6 ADD DUP3 PUSH2 0x1D74 JUMP JUMPDEST POP PUSH1 0xE0 DUP3 ADD MLOAD PUSH2 0x1E1D PUSH1 0xE0 DUP6 ADD DUP3 PUSH2 0x1D74 JUMP JUMPDEST POP POP POP POP JUMP JUMPDEST PUSH0 PUSH2 0x100 DUP3 ADD SWAP1 POP PUSH2 0x1E37 PUSH0 DUP4 ADD DUP5 PUSH2 0x1D83 JUMP JUMPDEST SWAP3 SWAP2 POP POP JUMP JUMPDEST PUSH2 0x1E46 DUP2 PUSH2 0x1C9B JUMP JUMPDEST DUP3 MSTORE POP POP JUMP JUMPDEST PUSH0 PUSH1 0x20 DUP3 ADD SWAP1 POP PUSH2 0x1E5F PUSH0 DUP4 ADD DUP5 PUSH2 0x1E3D JUMP JUMPDEST SWAP3 SWAP2 POP POP JUMP JUMPDEST PUSH1 0x2 DUP2 LT PUSH2 0x1E71 JUMPI PUSH0 DUP1 REVERT JUMPDEST POP JUMP JUMPDEST PUSH0 DUP2 CALLDATALOAD SWAP1 POP PUSH2 0x1E82 DUP2 PUSH2 0x1E65 JUMP JUMPDEST SWAP3 SWAP2 POP POP JUMP JUMPDEST PUSH0 DUP1 PUSH0 PUSH1 0x60 DUP5 DUP7 SUB SLT ISZERO PUSH2 0x1E9F JUMPI PUSH2 0x1E9E PUSH2 0x1B91 JUMP JUMPDEST JUMPDEST PUSH0 PUSH2 0x1EAC DUP7 DUP3 DUP8 ADD PUSH2 0x1C02 JUMP JUMPDEST SWAP4 POP POP PUSH1 0x20 PUSH2 0x1EBD DUP7 DUP3 DUP8 ADD PUSH2 0x1BB4 JUMP JUMPDEST SWAP3 POP POP PUSH1 0x40 PUSH2 0x1ECE DUP7 DUP3 DUP8 ADD PUSH2 0x1E74 JUMP JUMPDEST SWAP2 POP POP SWAP3 POP SWAP3 POP SWAP3 JUMP JUMPDEST PUSH0 DUP1 PUSH0 PUSH1 0x60 DUP5 DUP7 SUB SLT ISZERO PUSH2 0x1EEF JUMPI PUSH2 0x1EEE PUSH2 0x1B91 JUMP JUMPDEST JUMPDEST PUSH0 PUSH2 0x1EFC DUP7 DUP3 DUP8 ADD PUSH2 0x1BB4 JUMP JUMPDEST SWAP4 POP POP PUSH1 0x20 PUSH2 0x1F0D DUP7 DUP3 DUP8 ADD PUSH2 0x1BB4 JUMP JUMPDEST SWAP3 POP POP PUSH1 0x40 PUSH2 0x1F1E DUP7 DUP3 DUP8 ADD PUSH2 0x1E74 JUMP JUMPDEST SWAP2 POP POP SWAP3 POP SWAP3 POP SWAP3 JUMP JUMPDEST PUSH0 DUP3 DUP3 MSTORE PUSH1 0x20 DUP3 ADD SWAP1 POP SWAP3 SWAP2 POP POP JUMP JUMPDEST PUSH32 0x54686520636C69656E74206973206E6F7420696E73757265642E000000000000 PUSH0 DUP3 ADD MSTORE POP JUMP JUMPDEST PUSH0 PUSH2 0x1F6C PUSH1 0x1A DUP4 PUSH2 0x1F28 JUMP JUMPDEST SWAP2 POP PUSH2 0x1F77 DUP3 PUSH2 0x1F38 JUMP JUMPDEST PUSH1 0x20 DUP3 ADD SWAP1 POP SWAP2 SWAP1 POP JUMP JUMPDEST PUSH0 PUSH1 0x20 DUP3 ADD SWAP1 POP DUP2 DUP2 SUB PUSH0 DUP4 ADD MSTORE PUSH2 0x1F99 DUP2 PUSH2 0x1F60 JUMP JUMPDEST SWAP1 POP SWAP2 SWAP1 POP JUMP JUMPDEST PUSH0 DUP2 MLOAD SWAP1 POP SWAP2 SWAP1 POP JUMP JUMPDEST PUSH0 DUP2 SWAP1 POP SWAP3 SWAP2 POP POP JUMP JUMPDEST PUSH0 JUMPDEST DUP4 DUP2 LT ISZERO PUSH2 0x1FD1 JUMPI DUP1 DUP3 ADD MLOAD DUP2 DUP5 ADD MSTORE PUSH1 0x20 DUP2 ADD SWAP1 POP PUSH2 0x1FB6 JUMP JUMPDEST PUSH0 DUP5 DUP5 ADD MSTORE POP POP POP POP JUMP JUMPDEST PUSH0 PUSH2 0x1FE6 DUP3 PUSH2 0x1FA0 JUMP JUMPDEST PUSH2 0x1FF0 DUP2 DUP6 PUSH2 0x1FAA JUMP JUMPDEST SWAP4 POP PUSH2 0x2000 DUP2 DUP6 PUSH1 0x20 DUP7 ADD PUSH2 0x1FB4 JUMP JUMPDEST DUP1 DUP5 ADD SWAP2 POP POP SWAP3 SWAP2 POP POP JUMP JUMPDEST PUSH0 PUSH2 0x2017 DUP3 DUP5 PUSH2 0x1FDC JUMP JUMPDEST SWAP2 POP DUP2 SWAP1 POP SWAP3 SWAP2 POP POP JUMP JUMPDEST PUSH32 0x5468657265206973206E6F207265636F726420666F7220746865207265717569 PUSH0 DUP3 ADD MSTORE PUSH32 0x7265642079656172206F7220726567696F6E2E00000000000000000000000000 PUSH1 0x20 DUP3 ADD MSTORE POP JUMP JUMPDEST PUSH0 PUSH2 0x207C PUSH1 0x33 DUP4 PUSH2 0x1F28 JUMP JUMPDEST SWAP2 POP PUSH2 0x2087 DUP3 PUSH2 0x2022 JUMP JUMPDEST PUSH1 0x40 DUP3 ADD SWAP1 POP SWAP2 SWAP1 POP JUMP JUMPDEST PUSH0 PUSH1 0x20 DUP3 ADD SWAP1 POP DUP2 DUP2 SUB PUSH0 DUP4 ADD MSTORE PUSH2 0x20A9 DUP2 PUSH2 0x2070 JUMP JUMPDEST SWAP1 POP SWAP2 SWAP1 POP JUMP JUMPDEST PUSH32 0x4E487B7100000000000000000000000000000000000000000000000000000000 PUSH0 MSTORE PUSH1 0x11 PUSH1 0x4 MSTORE PUSH1 0x24 PUSH0 REVERT JUMPDEST PUSH0 PUSH2 0x20E7 DUP3 PUSH2 0x1B95 JUMP JUMPDEST SWAP2 POP PUSH2 0x20F2 DUP4 PUSH2 0x1B95 JUMP JUMPDEST SWAP3 POP DUP3 DUP3 ADD SWAP1 POP DUP1 DUP3 GT ISZERO PUSH2 0x210A JUMPI PUSH2 0x2109 PUSH2 0x20B0 JUMP JUMPDEST JUMPDEST SWAP3 SWAP2 POP POP JUMP JUMPDEST PUSH0 PUSH2 0x211A DUP3 PUSH2 0x1B95 JUMP JUMPDEST SWAP2 POP PUSH2 0x2125 DUP4 PUSH2 0x1B95 JUMP JUMPDEST SWAP3 POP DUP3 DUP3 MUL PUSH2 0x2133 DUP2 PUSH2 0x1B95 JUMP JUMPDEST SWAP2 POP DUP3 DUP3 DIV DUP5 EQ DUP4 ISZERO OR PUSH2 0x214A JUMPI PUSH2 0x2149 PUSH2 0x20B0 JUMP JUMPDEST JUMPDEST POP SWAP3 SWAP2 POP POP JUMP JUMPDEST PUSH32 0x546865207072656D69756D206D75737420626520636F766572656420746F2072 PUSH0 DUP3 ADD MSTORE PUSH32 0x65676973746572206F722072656E6577206120706F6C6963792E000000000000 PUSH1 0x20 DUP3 ADD MSTORE POP JUMP JUMPDEST PUSH0 PUSH2 0x21AB PUSH1 0x3A DUP4 PUSH2 0x1F28 JUMP JUMPDEST SWAP2 POP PUSH2 0x21B6 DUP3 PUSH2 0x2151 JUMP JUMPDEST PUSH1 0x40 DUP3 ADD SWAP1 POP SWAP2 SWAP1 POP JUMP JUMPDEST PUSH0 PUSH1 0x20 DUP3 ADD SWAP1 POP DUP2 DUP2 SUB PUSH0 DUP4 ADD MSTORE PUSH2 0x21D8 DUP2 PUSH2 0x219F JUMP JUMPDEST SWAP1 POP SWAP2 SWAP1 POP JUMP JUMPDEST PUSH32 0x54686520636C69656E7420697320616C726561647920696E73757265642E0000 PUSH0 DUP3 ADD MSTORE POP JUMP JUMPDEST PUSH0 PUSH2 0x2213 PUSH1 0x1E DUP4 PUSH2 0x1F28 JUMP JUMPDEST SWAP2 POP PUSH2 0x221E DUP3 PUSH2 0x21DF JUMP JUMPDEST PUSH1 0x20 DUP3 ADD SWAP1 POP SWAP2 SWAP1 POP JUMP JUMPDEST PUSH0 PUSH1 0x20 DUP3 ADD SWAP1 POP DUP2 DUP2 SUB PUSH0 DUP4 ADD MSTORE PUSH2 0x2240 DUP2 PUSH2 0x2207 JUMP JUMPDEST SWAP1 POP SWAP2 SWAP1 POP JUMP JUMPDEST PUSH32 0x4E487B7100000000000000000000000000000000000000000000000000000000 PUSH0 MSTORE PUSH1 0x12 PUSH1 0x4 MSTORE PUSH1 0x24 PUSH0 REVERT JUMPDEST PUSH0 PUSH2 0x227E DUP3 PUSH2 0x1B95 JUMP JUMPDEST SWAP2 POP PUSH2 0x2289 DUP4 PUSH2 0x1B95 JUMP JUMPDEST SWAP3 POP DUP3 PUSH2 0x2299 JUMPI PUSH2 0x2298 PUSH2 0x2247 JUMP JUMPDEST JUMPDEST DUP3 DUP3 DIV SWAP1 POP SWAP3 SWAP2 POP POP JUMP JUMPDEST PUSH32 0x43616E6E6F74206C6F61642074686520636F6E74726163742077697468203000 PUSH0 DUP3 ADD MSTORE POP JUMP JUMPDEST PUSH0 PUSH2 0x22D8 PUSH1 0x1F DUP4 PUSH2 0x1F28 JUMP JUMPDEST SWAP2 POP PUSH2 0x22E3 DUP3 PUSH2 0x22A4 JUMP JUMPDEST PUSH1 0x20 DUP3 ADD SWAP1 POP SWAP2 SWAP1 POP JUMP JUMPDEST PUSH0 PUSH1 0x20 DUP3 ADD SWAP1 POP DUP2 DUP2 SUB PUSH0 DUP4 ADD MSTORE PUSH2 0x2305 DUP2 PUSH2 0x22CC JUMP JUMPDEST SWAP1 POP SWAP2 SWAP1 POP JUMP JUMPDEST PUSH32 0x436C61696D732063616E206F6E6C792062652066696C65642065766572792079 PUSH0 DUP3 ADD MSTORE PUSH32 0x6561722E00000000000000000000000000000000000000000000000000000000 PUSH1 0x20 DUP3 ADD MSTORE POP JUMP JUMPDEST PUSH0 PUSH2 0x2366 PUSH1 0x24 DUP4 PUSH2 0x1F28 JUMP JUMPDEST SWAP2 POP PUSH2 0x2371 DUP3 PUSH2 0x230C JUMP JUMPDEST PUSH1 0x40 DUP3 ADD SWAP1 POP SWAP2 SWAP1 POP JUMP JUMPDEST PUSH0 PUSH1 0x20 DUP3 ADD SWAP1 POP DUP2 DUP2 SUB PUSH0 DUP4 ADD MSTORE PUSH2 0x2393 DUP2 PUSH2 0x235A JUMP JUMPDEST SWAP1 POP SWAP2 SWAP1 POP JUMP JUMPDEST PUSH32 0x546865207370656369666965642079656172206973206E6F7420616C6C6F7769 PUSH0 DUP3 ADD MSTORE PUSH32 0x6E67206120636C61696D20666F7220796F757220706F6C6963792E0000000000 PUSH1 0x20 DUP3 ADD MSTORE POP JUMP JUMPDEST PUSH0 PUSH2 0x23F4 PUSH1 0x3B DUP4 PUSH2 0x1F28 JUMP JUMPDEST SWAP2 POP PUSH2 0x23FF DUP3 PUSH2 0x239A JUMP JUMPDEST PUSH1 0x40 DUP3 ADD SWAP1 POP SWAP2 SWAP1 POP JUMP JUMPDEST PUSH0 PUSH1 0x20 DUP3 ADD SWAP1 POP DUP2 DUP2 SUB PUSH0 DUP4 ADD MSTORE PUSH2 0x2421 DUP2 PUSH2 0x23E8 JUMP JUMPDEST SWAP1 POP SWAP2 SWAP1 POP JUMP JUMPDEST PUSH0 PUSH2 0x2432 DUP3 PUSH2 0x1B95 JUMP JUMPDEST SWAP2 POP PUSH2 0x243D DUP4 PUSH2 0x1B95 JUMP JUMPDEST SWAP3 POP DUP3 DUP3 SUB SWAP1 POP DUP2 DUP2 GT ISZERO PUSH2 0x2455 JUMPI PUSH2 0x2454 PUSH2 0x20B0 JUMP JUMPDEST JUMPDEST SWAP3 SWAP2 POP POP JUMP JUMPDEST PUSH0 PUSH2 0x2466 DUP3 DUP6 PUSH2 0x1FDC JUMP JUMPDEST SWAP2 POP PUSH2 0x2472 DUP3 DUP5 PUSH2 0x1FDC JUMP JUMPDEST SWAP2 POP DUP2 SWAP1 POP SWAP4 SWAP3 POP POP POP JUMP JUMPDEST PUSH32 0x4E487B7100000000000000000000000000000000000000000000000000000000 PUSH0 MSTORE PUSH1 0x41 PUSH1 0x4 MSTORE PUSH1 0x24 PUSH0 REVERT INVALID LOG2 PUSH5 0x6970667358 0x22 SLT KECCAK256 OR BALANCE 0xB1 0xB0 ADD DUP2 DUP16 0xF6 0xFB EXTCODECOPY 0xFC CREATE2 0xC6 SWAP7 DUP13 0xD7 0xC1 PUSH2 0xCFAC SWAP10 KECCAK256 LOG0 0xA5 0xD7 PUSH12 0x1855560FBBAC64736F6C6343 STOP ADDMOD AND STOP CALLER "
				},
				"gasEstimates": {
					"creation": {
						"codeDepositCost": "1888200",
						"executionCost": "225875",
						"totalCost": "2114075"
					},
					"external": {
						"calculatePremium(uint8,uint256)": "infinite",
						"createSunshineRecord(uint256,uint256,uint8)": "infinite",
						"extendPolicy()": "infinite",
						"fileClaim(uint256)": "infinite",
						"fileClaimWithoutChecks(uint256)": "infinite",
						"fundContract()": "490",
						"getPolicyInformation()": "infinite",
						"owner()": "2515",
						"registerPolicy(uint8,uint256,uint8)": "infinite"
					},
					"internal": {
						"getClaimAmount(uint256)": "infinite",
						"getRecordsKey(uint256)": "infinite"
					}
				},
				"methodIdentifiers": {
					"calculatePremium(uint8,uint256)": "51821891",
					"createSunshineRecord(uint256,uint256,uint8)": "b3155b5e",
					"extendPolicy()": "1a59c5b6",
					"fileClaim(uint256)": "d61909f9",
					"fileClaimWithoutChecks(uint256)": "007c74cb",
					"fundContract()": "bd097e21",
					"getPolicyInformation()": "70f363a4",
					"owner()": "8da5cb5b",
					"registerPolicy(uint8,uint256,uint8)": "a8e023eb"
				}
			},
			"storageLayout": {
				"storage": [
					{
						"astId": 1741,
						"contract": "contracts/SolarInsurance.sol:SolarInsurance",
						"label": "_owner",
						"offset": 0,
						"slot": "0",
						"type": "t_address"
					},
					{
						"astId": 1744,
						"contract": "contracts/SolarInsurance.sol:SolarInsurance",
						"label": "_ENERGY_PRICE",
						"offset": 0,
						"slot": "1",
						"type": "t_uint256"
					},
					{
						"astId": 1747,
						"contract": "contracts/SolarInsurance.sol:SolarInsurance",
						"label": "_RADIATION_VALUE",
						"offset": 0,
						"slot": "2",
						"type": "t_uint256"
					},
					{
						"astId": 1750,
						"contract": "contracts/SolarInsurance.sol:SolarInsurance",
						"label": "_EFFICIENCY",
						"offset": 0,
						"slot": "3",
						"type": "t_uint256"
					},
					{
						"astId": 1784,
						"contract": "contracts/SolarInsurance.sol:SolarInsurance",
						"label": "_insuranceLevels",
						"offset": 0,
						"slot": "4",
						"type": "t_mapping(t_enum(ClientRiskLevels)1778,t_struct(InsuranceLevel)1774_storage)"
					},
					{
						"astId": 1791,
						"contract": "contracts/SolarInsurance.sol:SolarInsurance",
						"label": "_sunshineRecords",
						"offset": 0,
						"slot": "5",
						"type": "t_mapping(t_string_memory_ptr,t_uint256)"
					},
					{
						"astId": 1801,
						"contract": "contracts/SolarInsurance.sol:SolarInsurance",
						"label": "_policies",
						"offset": 0,
						"slot": "6",
						"type": "t_mapping(t_address,t_struct(SolarInsurancePolicy)1769_storage)"
					},
					{
						"astId": 1805,
						"contract": "contracts/SolarInsurance.sol:SolarInsurance",
						"label": "_allowedClaims",
						"offset": 0,
						"slot": "7",
						"type": "t_mapping(t_address,t_uint256)"
					},
					{
						"astId": 1811,
						"contract": "contracts/SolarInsurance.sol:SolarInsurance",
						"label": "_claims",
						"offset": 0,
						"slot": "8",
						"type": "t_mapping(t_address,t_array(t_struct(Claim)1796_storage)dyn_storage)"
					},
					{
						"astId": 1816,
						"contract": "contracts/SolarInsurance.sol:SolarInsurance",
						"label": "_payments",
						"offset": 0,
						"slot": "9",
						"type": "t_mapping(t_address,t_array(t_uint256)dyn_storage)"
					}
				],
				"types": {
					"t_address": {
						"encoding": "inplace",
						"label": "address",
						"numberOfBytes": "20"
					},
					"t_array(t_struct(Claim)1796_storage)dyn_storage": {
						"base": "t_struct(Claim)1796_storage",
						"encoding": "dynamic_array",
						"label": "struct SolarInsurance.Claim[]",
						"numberOfBytes": "32"
					},
					"t_array(t_uint256)dyn_storage": {
						"base": "t_uint256",
						"encoding": "dynamic_array",
						"label": "uint256[]",
						"numberOfBytes": "32"
					},
					"t_enum(ClientRiskLevels)1778": {
						"encoding": "inplace",
						"label": "enum SolarInsurance.ClientRiskLevels",
						"numberOfBytes": "1"
					},
					"t_enum(SwissRegion)1787": {
						"encoding": "inplace",
						"label": "enum SolarInsurance.SwissRegion",
						"numberOfBytes": "1"
					},
					"t_mapping(t_address,t_array(t_struct(Claim)1796_storage)dyn_storage)": {
						"encoding": "mapping",
						"key": "t_address",
						"label": "mapping(address => struct SolarInsurance.Claim[])",
						"numberOfBytes": "32",
						"value": "t_array(t_struct(Claim)1796_storage)dyn_storage"
					},
					"t_mapping(t_address,t_array(t_uint256)dyn_storage)": {
						"encoding": "mapping",
						"key": "t_address",
						"label": "mapping(address => uint256[])",
						"numberOfBytes": "32",
						"value": "t_array(t_uint256)dyn_storage"
					},
					"t_mapping(t_address,t_struct(SolarInsurancePolicy)1769_storage)": {
						"encoding": "mapping",
						"key": "t_address",
						"label": "mapping(address => struct SolarInsurance.SolarInsurancePolicy)",
						"numberOfBytes": "32",
						"value": "t_struct(SolarInsurancePolicy)1769_storage"
					},
					"t_mapping(t_address,t_uint256)": {
						"encoding": "mapping",
						"key": "t_address",
						"label": "mapping(address => uint256)",
						"numberOfBytes": "32",
						"value": "t_uint256"
					},
					"t_mapping(t_enum(ClientRiskLevels)1778,t_struct(InsuranceLevel)1774_storage)": {
						"encoding": "mapping",
						"key": "t_enum(ClientRiskLevels)1778",
						"label": "mapping(enum SolarInsurance.ClientRiskLevels => struct SolarInsurance.InsuranceLevel)",
						"numberOfBytes": "32",
						"value": "t_struct(InsuranceLevel)1774_storage"
					},
					"t_mapping(t_string_memory_ptr,t_uint256)": {
						"encoding": "mapping",
						"key": "t_string_memory_ptr",
						"label": "mapping(string => uint256)",
						"numberOfBytes": "32",
						"value": "t_uint256"
					},
					"t_string_memory_ptr": {
						"encoding": "bytes",
						"label": "string",
						"numberOfBytes": "32"
					},
					"t_struct(Claim)1796_storage": {
						"encoding": "inplace",
						"label": "struct SolarInsurance.Claim",
						"members": [
							{
								"astId": 1793,
								"contract": "contracts/SolarInsurance.sol:SolarInsurance",
								"label": "year",
								"offset": 0,
								"slot": "0",
								"type": "t_uint256"
							},
							{
								"astId": 1795,
								"contract": "contracts/SolarInsurance.sol:SolarInsurance",
								"label": "amount",
								"offset": 0,
								"slot": "1",
								"type": "t_uint256"
							}
						],
						"numberOfBytes": "64"
					},
					"t_struct(InsuranceLevel)1774_storage": {
						"encoding": "inplace",
						"label": "struct SolarInsurance.InsuranceLevel",
						"members": [
							{
								"astId": 1771,
								"contract": "contracts/SolarInsurance.sol:SolarInsurance",
								"label": "premium",
								"offset": 0,
								"slot": "0",
								"type": "t_uint256"
							},
							{
								"astId": 1773,
								"contract": "contracts/SolarInsurance.sol:SolarInsurance",
								"label": "insuredHours",
								"offset": 0,
								"slot": "1",
								"type": "t_uint256"
							}
						],
						"numberOfBytes": "64"
					},
					"t_struct(SolarInsurancePolicy)1769_storage": {
						"encoding": "inplace",
						"label": "struct SolarInsurance.SolarInsurancePolicy",
						"members": [
							{
								"astId": 1752,
								"contract": "contracts/SolarInsurance.sol:SolarInsurance",
								"label": "client",
								"offset": 0,
								"slot": "0",
								"type": "t_address"
							},
							{
								"astId": 1755,
								"contract": "contracts/SolarInsurance.sol:SolarInsurance",
								"label": "panelLocation",
								"offset": 20,
								"slot": "0",
								"type": "t_enum(SwissRegion)1787"
							},
							{
								"astId": 1758,
								"contract": "contracts/SolarInsurance.sol:SolarInsurance",
								"label": "riskLevel",
								"offset": 21,
								"slot": "0",
								"type": "t_enum(ClientRiskLevels)1778"
							},
							{
								"astId": 1760,
								"contract": "contracts/SolarInsurance.sol:SolarInsurance",
								"label": "panelArea",
								"offset": 0,
								"slot": "1",
								"type": "t_uint256"
							},
							{
								"astId": 1762,
								"contract": "contracts/SolarInsurance.sol:SolarInsurance",
								"label": "premiumToPay",
								"offset": 0,
								"slot": "2",
								"type": "t_uint256"
							},
							{
								"astId": 1764,
								"contract": "contracts/SolarInsurance.sol:SolarInsurance",
								"label": "registrationDate",
								"offset": 0,
								"slot": "3",
								"type": "t_uint256"
							},
							{
								"astId": 1766,
								"contract": "contracts/SolarInsurance.sol:SolarInsurance",
								"label": "validUntil",
								"offset": 0,
								"slot": "4",
								"type": "t_uint256"
							},
							{
								"astId": 1768,
								"contract": "contracts/SolarInsurance.sol:SolarInsurance",
								"label": "claimTimeout",
								"offset": 0,
								"slot": "5",
								"type": "t_uint256"
							}
						],
						"numberOfBytes": "192"
					},
					"t_uint256": {
						"encoding": "inplace",
						"label": "uint256",
						"numberOfBytes": "32"
					}
				}
			},
			"userdoc": {
				"kind": "user",
				"methods": {
					"calculatePremium(uint8,uint256)": {
						"notice": "Calculate the required premium for a Solar Insurance Policy."
					},
					"extendPolicy()": {
						"notice": "Extend an existing Solar Insurance Policy by a year"
					},
					"fileClaim(uint256)": {
						"notice": "Allows the client to file a claim for insurance for a specific year."
					},
					"getPolicyInformation()": {
						"notice": "Get details of own policy "
					},
					"owner()": {
						"notice": "Get owner's address"
					}
				},
				"notice": "The contract is intended to cover damages in form of additional costs resulting from having to consume power from the mainnet.Such damages can result from a lack of sunshine, which limits the power output of photovoltaic panels.",
				"version": 1
			}
		}
	}
}