{
	"data": {
		"bytecode": {
			"linkReferences": {},
			"object": "6080604052659184e72a00006001556096600255601460035534801562000024575f80fd5b50335f806101000a81548173ffffffffffffffffffffffffffffffffffffffff021916908373ffffffffffffffffffffffffffffffffffffffff1602179055506040518060400160405280652d79883d2000815260200161066781525060045f8060028111156200009a5762000099620001b3565b5b6002811115620000af57620000ae620001b3565b5b81526020019081526020015f205f820151815f0155602082015181600101559050506040518060400160405280656d23ad5f800081526020016106b981525060045f60016002811115620001085762000107620001b3565b5b60028111156200011d576200011c620001b3565b5b81526020019081526020015f205f820151815f015560208201518160010155905050604051806040016040528066013e52b9abe000815260200161070b81525060045f600280811115620001765762000175620001b3565b5b60028111156200018b576200018a620001b3565b5b81526020019081526020015f205f820151815f015560208201518160010155905050620001e0565b7f4e487b71000000000000000000000000000000000000000000000000000000005f52602160045260245ffd5b6124e180620001ee5f395ff3fe608060405260043610610084575f3560e01c80638da5cb5b116100585780638da5cb5b14610120578063a8e023eb1461014a578063b3155b5e14610166578063bd097e211461018e578063d61909f91461019857610084565b80627c74cb146100885780631a59c5b6146100b057806351821891146100ba57806370f363a4146100f6575b5f80fd5b348015610093575f80fd5b506100ae60048036038101906100a99190611bc8565b6101c0565b005b6100b86104a0565b005b3480156100c5575f80fd5b506100e060048036038101906100db9190611c16565b61073a565b6040516100ed9190611c63565b60405180910390f35b348015610101575f80fd5b5061010a610786565b6040516101179190611e23565b60405180910390f35b34801561012b575f80fd5b506101346109f8565b6040516101419190611e4c565b60405180910390f35b610164600480360381019061015f9190611e88565b610a1f565b005b348015610171575f80fd5b5061018c60048036038101906101879190611ed8565b610e95565b005b610196610f75565b005b3480156101a3575f80fd5b506101be60048036038101906101b99190611bc8565b610fb9565b005b5f8073ffffffffffffffffffffffffffffffffffffffff1660065f3373ffffffffffffffffffffffffffffffffffffffff1673ffffffffffffffffffffffffffffffffffffffff1681526020019081526020015f205f015f9054906101000a900473ffffffffffffffffffffffffffffffffffffffff1673ffffffffffffffffffffffffffffffffffffffff16141590505f4260065f3373ffffffffffffffffffffffffffffffffffffffff1673ffffffffffffffffffffffffffffffffffffffff1681526020019081526020015f20600401541190508180156102a15750805b6102e0576040517f08c379a00000000000000000000000000000000000000000000000000000000081526004016102d790611f82565b60405180910390fd5b825f6102eb82611476565b90505f806005836040516102ff919061200c565b9081526020016040518091039020541415905080610352576040517f08c379a000000000000000000000000000000000000000000000000000000000815260040161034990612092565b60405180910390fd5b5f61035c876116a6565b90503373ffffffffffffffffffffffffffffffffffffffff166108fc8290811502906040515f60405180830381858888f193505050501580156103a1573d5f803e3d5ffd5b506103f96301e1338060065f3373ffffffffffffffffffffffffffffffffffffffff1673ffffffffffffffffffffffffffffffffffffffff1681526020019081526020015f20600501546118b690919063ffffffff16565b505f60065f3373ffffffffffffffffffffffffffffffffffffffff1673ffffffffffffffffffffffffffffffffffffffff1681526020019081526020015f2060040154111561049757600160075f3373ffffffffffffffffffffffffffffffffffffffff1673ffffffffffffffffffffffffffffffffffffffff1681526020019081526020015f205f82825461048f91906120dd565b925050819055505b50505050505050565b5f8073ffffffffffffffffffffffffffffffffffffffff1660065f3373ffffffffffffffffffffffffffffffffffffffff1673ffffffffffffffffffffffffffffffffffffffff1681526020019081526020015f205f015f9054906101000a900473ffffffffffffffffffffffffffffffffffffffff1673ffffffffffffffffffffffffffffffffffffffff16141590505f4260065f3373ffffffffffffffffffffffffffffffffffffffff1673ffffffffffffffffffffffffffffffffffffffff1681526020019081526020015f20600401541190508180156105815750805b6105c0576040517f08c379a00000000000000000000000000000000000000000000000000000000081526004016105b790611f82565b60405180910390fd5b60065f3373ffffffffffffffffffffffffffffffffffffffff1673ffffffffffffffffffffffffffffffffffffffff1681526020019081526020015f205f0160159054906101000a900460ff1660065f3373ffffffffffffffffffffffffffffffffffffffff1673ffffffffffffffffffffffffffffffffffffffff1681526020019081526020015f20600101545f8160045f85600281111561066657610665611cbb565b5b600281111561067857610677611cbb565b5b81526020019081526020015f205f01546106929190612110565b90505f8134149050806106da576040517f08c379a00000000000000000000000000000000000000000000000000000000081526004016106d1906121c1565b60405180910390fd5b6107316301e1338060065f3373ffffffffffffffffffffffffffffffffffffffff1673ffffffffffffffffffffffffffffffffffffffff1681526020019081526020015f20600401546118b690919063ffffffff16565b50505050505050565b5f60045f84600281111561075157610750611cbb565b5b600281111561076357610762611cbb565b5b81526020019081526020015f205f01548261077e9190612110565b905092915050565b61078e611b1a565b5f8073ffffffffffffffffffffffffffffffffffffffff1660065f3373ffffffffffffffffffffffffffffffffffffffff1673ffffffffffffffffffffffffffffffffffffffff1681526020019081526020015f205f015f9054906101000a900473ffffffffffffffffffffffffffffffffffffffff1673ffffffffffffffffffffffffffffffffffffffff16141590505f4260065f3373ffffffffffffffffffffffffffffffffffffffff1673ffffffffffffffffffffffffffffffffffffffff1681526020019081526020015f206004015411905081801561086f5750805b6108ae576040517f08c379a00000000000000000000000000000000000000000000000000000000081526004016108a590611f82565b60405180910390fd5b60065f3373ffffffffffffffffffffffffffffffffffffffff1673ffffffffffffffffffffffffffffffffffffffff1681526020019081526020015f20604051806101000160405290815f82015f9054906101000a900473ffffffffffffffffffffffffffffffffffffffff1673ffffffffffffffffffffffffffffffffffffffff1673ffffffffffffffffffffffffffffffffffffffff1681526020015f820160149054906101000a900460ff16600181111561096f5761096e611cbb565b5b600181111561098157610980611cbb565b5b81526020015f820160159054906101000a900460ff1660028111156109a9576109a8611cbb565b5b60028111156109bb576109ba611cbb565b5b8152602001600182015481526020016002820154815260200160038201548152602001600482015481526020016005820154815250509250505090565b5f805f9054906101000a900473ffffffffffffffffffffffffffffffffffffffff16905090565b5f8073ffffffffffffffffffffffffffffffffffffffff1660065f3373ffffffffffffffffffffffffffffffffffffffff1673ffffffffffffffffffffffffffffffffffffffff1681526020019081526020015f205f015f9054906101000a900473ffffffffffffffffffffffffffffffffffffffff1673ffffffffffffffffffffffffffffffffffffffff161490505f4260065f3373ffffffffffffffffffffffffffffffffffffffff1673ffffffffffffffffffffffffffffffffffffffff1681526020019081526020015f20600401541090508180610afe5750805b610b3d576040517f08c379a0000000000000000000000000000000000000000000000000000000008152600401610b3490612229565b60405180910390fd5b84845f8160045f856002811115610b5757610b56611cbb565b5b6002811115610b6957610b68611cbb565b5b81526020019081526020015f205f0154610b839190612110565b90505f813414905080610bcb576040517f08c379a0000000000000000000000000000000000000000000000000000000008152600401610bc2906121c1565b60405180910390fd5b6040518061010001604052803373ffffffffffffffffffffffffffffffffffffffff168152602001886001811115610c0657610c05611cbb565b5b81526020018a6002811115610c1e57610c1d611cbb565b5b815260200189815260200160045f8c6002811115610c3f57610c3e611cbb565b5b6002811115610c5157610c50611cbb565b5b81526020019081526020015f205f01548a610c6c9190612110565b8152602001428152602001610c8e6301e13380426118b690919063ffffffff16565b8152602001610caa6301e13380426118b690919063ffffffff16565b81525060065f3373ffffffffffffffffffffffffffffffffffffffff1673ffffffffffffffffffffffffffffffffffffffff1681526020019081526020015f205f820151815f015f6101000a81548173ffffffffffffffffffffffffffffffffffffffff021916908373ffffffffffffffffffffffffffffffffffffffff1602179055506020820151815f0160146101000a81548160ff02191690836001811115610d5857610d57611cbb565b5b02179055506040820151815f0160156101000a81548160ff02191690836002811115610d8757610d86611cbb565b5b0217905550606082015181600101556080820151816002015560a0820151816003015560c0820151816004015560e082015181600501559050505f6301e1338090505f6107b29050808242610ddc9190612274565b610de691906120dd565b60075f3373ffffffffffffffffffffffffffffffffffffffff1673ffffffffffffffffffffffffffffffffffffffff1681526020019081526020015f208190555060095f3373ffffffffffffffffffffffffffffffffffffffff1673ffffffffffffffffffffffffffffffffffffffff1681526020019081526020015f2042908060018154018082558091505060019003905f5260205f20015f90919091909150555050505050505050505050565b5f806001811115610ea957610ea8611cbb565b5b826001811115610ebc57610ebb611cbb565b5b1490505f81610f0957610f04856040518060400160405280600681526020017f5f4e4f52544800000000000000000000000000000000000000000000000000008152506118cb565b610f49565b610f48856040518060400160405280600681526020017f5f534f55544800000000000000000000000000000000000000000000000000008152506118cb565b5b905083600582604051610f5c919061200c565b9081526020016040518091039020819055505050505050565b5f3411610fb7576040517f08c379a0000000000000000000000000000000000000000000000000000000008152600401610fae906122ee565b60405180910390fd5b565b5f8073ffffffffffffffffffffffffffffffffffffffff1660065f3373ffffffffffffffffffffffffffffffffffffffff1673ffffffffffffffffffffffffffffffffffffffff1681526020019081526020015f205f015f9054906101000a900473ffffffffffffffffffffffffffffffffffffffff1673ffffffffffffffffffffffffffffffffffffffff16141590505f4260065f3373ffffffffffffffffffffffffffffffffffffffff1673ffffffffffffffffffffffffffffffffffffffff1681526020019081526020015f206004015411905081801561109a5750805b6110d9576040517f08c379a00000000000000000000000000000000000000000000000000000000081526004016110d090611f82565b60405180910390fd5b5f4260065f3373ffffffffffffffffffffffffffffffffffffffff1673ffffffffffffffffffffffffffffffffffffffff1681526020019081526020015f20600501541090508015611160576040517f08c379a00000000000000000000000000000000000000000000000000000000081526004016111579061237c565b60405180910390fd5b835f8160075f3373ffffffffffffffffffffffffffffffffffffffff1673ffffffffffffffffffffffffffffffffffffffff1681526020019081526020015f2054149050806111e4576040517f08c379a00000000000000000000000000000000000000000000000000000000081526004016111db9061240a565b60405180910390fd5b855f6111ef82611476565b90505f80600583604051611203919061200c565b9081526020016040518091039020541415905080611256576040517f08c379a000000000000000000000000000000000000000000000000000000000815260040161124d90612092565b60405180910390fd5b5f60065f3373ffffffffffffffffffffffffffffffffffffffff1673ffffffffffffffffffffffffffffffffffffffff1681526020019081526020015f20604051806101000160405290815f82015f9054906101000a900473ffffffffffffffffffffffffffffffffffffffff1673ffffffffffffffffffffffffffffffffffffffff1673ffffffffffffffffffffffffffffffffffffffff1681526020015f820160149054906101000a900460ff16600181111561131857611317611cbb565b5b600181111561132a57611329611cbb565b5b81526020015f820160159054906101000a900460ff16600281111561135257611351611cbb565b5b600281111561136457611363611cbb565b5b81526020016001820154815260200160028201548152602001600382015481526020016004820154815260200160058201548152505090505f6113a68b6116a6565b90503373ffffffffffffffffffffffffffffffffffffffff166108fc8290811502906040515f60405180830381858888f193505050501580156113eb573d5f803e3d5ffd5b506114076301e133808360e001516118b690919063ffffffff16565b505f8260c00151111561146957600160075f3373ffffffffffffffffffffffffffffffffffffffff1673ffffffffffffffffffffffffffffffffffffffff1681526020019081526020015f205f82825461146191906120dd565b925050819055505b5050505050505050505050565b60605f8073ffffffffffffffffffffffffffffffffffffffff1660065f3373ffffffffffffffffffffffffffffffffffffffff1673ffffffffffffffffffffffffffffffffffffffff1681526020019081526020015f205f015f9054906101000a900473ffffffffffffffffffffffffffffffffffffffff1673ffffffffffffffffffffffffffffffffffffffff16141590505f4260065f3373ffffffffffffffffffffffffffffffffffffffff1673ffffffffffffffffffffffffffffffffffffffff1681526020019081526020015f20600401541190508180156115595750805b611598576040517f08c379a000000000000000000000000000000000000000000000000000000000815260040161158f90611f82565b60405180910390fd5b5f8060018111156115ac576115ab611cbb565b5b60065f3373ffffffffffffffffffffffffffffffffffffffff1673ffffffffffffffffffffffffffffffffffffffff1681526020019081526020015f205f0160149054906101000a900460ff16600181111561160b5761160a611cbb565b5b1490505f8161165857611653866040518060400160405280600681526020017f5f4e4f52544800000000000000000000000000000000000000000000000000008152506118cb565b611698565b611697866040518060400160405280600681526020017f5f534f55544800000000000000000000000000000000000000000000000000008152506118cb565b5b905080945050505050919050565b5f806116b183611476565b90505f60065f3373ffffffffffffffffffffffffffffffffffffffff1673ffffffffffffffffffffffffffffffffffffffff1681526020019081526020015f20604051806101000160405290815f82015f9054906101000a900473ffffffffffffffffffffffffffffffffffffffff1673ffffffffffffffffffffffffffffffffffffffff1673ffffffffffffffffffffffffffffffffffffffff1681526020015f820160149054906101000a900460ff16600181111561177557611774611cbb565b5b600181111561178757611786611cbb565b5b81526020015f820160159054906101000a900460ff1660028111156117af576117ae611cbb565b5b60028111156117c1576117c0611cbb565b5b81526020016001820154815260200160028201548152602001600382015481526020016004820154815260200160058201548152505090505f60058360405161180a919061200c565b90815260200160405180910390205460045f8460400151600281111561183357611832611cbb565b5b600281111561184557611844611cbb565b5b81526020019081526020015f20600101546118609190612428565b90505f60015483606001516003548460025461187c9190612110565b6118869190612110565b6118909190612110565b61189a9190612110565b9050620186a0816118ab9190612274565b945050505050919050565b5f81836118c391906120dd565b905092915050565b60606118d6836118ff565b826040516020016118e892919061245b565b604051602081830303815290604052905092915050565b60605f600161190d846119c9565b0190505f8167ffffffffffffffff81111561192b5761192a61247e565b5b6040519080825280601f01601f19166020018201604052801561195d5781602001600182028036833780820191505090505b5090505f82602001820190505b6001156119be578080600190039150507f3031323334353637383961626364656600000000000000000000000000000000600a86061a8153600a85816119b3576119b2612247565b5b0494505f850361196a575b819350505050919050565b5f805f90507a184f03e93ff9f4daa797ed6e38ed64bf6a1f0100000000000000008310611a25577a184f03e93ff9f4daa797ed6e38ed64bf6a1f0100000000000000008381611a1b57611a1a612247565b5b0492506040810190505b6d04ee2d6d415b85acef81000000008310611a62576d04ee2d6d415b85acef81000000008381611a5857611a57612247565b5b0492506020810190505b662386f26fc100008310611a9157662386f26fc100008381611a8757611a86612247565b5b0492506010810190505b6305f5e1008310611aba576305f5e1008381611ab057611aaf612247565b5b0492506008810190505b6127108310611adf576127108381611ad557611ad4612247565b5b0492506004810190505b60648310611b025760648381611af857611af7612247565b5b0492506002810190505b600a8310611b11576001810190505b80915050919050565b6040518061010001604052805f73ffffffffffffffffffffffffffffffffffffffff1681526020015f6001811115611b5557611b54611cbb565b5b81526020015f6002811115611b6d57611b6c611cbb565b5b81526020015f81526020015f81526020015f81526020015f81526020015f81525090565b5f80fd5b5f819050919050565b611ba781611b95565b8114611bb1575f80fd5b50565b5f81359050611bc281611b9e565b92915050565b5f60208284031215611bdd57611bdc611b91565b5b5f611bea84828501611bb4565b91505092915050565b60038110611bff575f80fd5b50565b5f81359050611c1081611bf3565b92915050565b5f8060408385031215611c2c57611c2b611b91565b5b5f611c3985828601611c02565b9250506020611c4a85828601611bb4565b9150509250929050565b611c5d81611b95565b82525050565b5f602082019050611c765f830184611c54565b92915050565b5f73ffffffffffffffffffffffffffffffffffffffff82169050919050565b5f611ca582611c7c565b9050919050565b611cb581611c9b565b82525050565b7f4e487b71000000000000000000000000000000000000000000000000000000005f52602160045260245ffd5b60028110611cf957611cf8611cbb565b5b50565b5f819050611d0982611ce8565b919050565b5f611d1882611cfc565b9050919050565b611d2881611d0e565b82525050565b60038110611d3f57611d3e611cbb565b5b50565b5f819050611d4f82611d2e565b919050565b5f611d5e82611d42565b9050919050565b611d6e81611d54565b82525050565b611d7d81611b95565b82525050565b61010082015f820151611d985f850182611cac565b506020820151611dab6020850182611d1f565b506040820151611dbe6040850182611d65565b506060820151611dd16060850182611d74565b506080820151611de46080850182611d74565b5060a0820151611df760a0850182611d74565b5060c0820151611e0a60c0850182611d74565b5060e0820151611e1d60e0850182611d74565b50505050565b5f61010082019050611e375f830184611d83565b92915050565b611e4681611c9b565b82525050565b5f602082019050611e5f5f830184611e3d565b92915050565b60028110611e71575f80fd5b50565b5f81359050611e8281611e65565b92915050565b5f805f60608486031215611e9f57611e9e611b91565b5b5f611eac86828701611c02565b9350506020611ebd86828701611bb4565b9250506040611ece86828701611e74565b9150509250925092565b5f805f60608486031215611eef57611eee611b91565b5b5f611efc86828701611bb4565b9350506020611f0d86828701611bb4565b9250506040611f1e86828701611e74565b9150509250925092565b5f82825260208201905092915050565b7f54686520636c69656e74206973206e6f7420696e73757265642e0000000000005f82015250565b5f611f6c601a83611f28565b9150611f7782611f38565b602082019050919050565b5f6020820190508181035f830152611f9981611f60565b9050919050565b5f81519050919050565b5f81905092915050565b5f5b83811015611fd1578082015181840152602081019050611fb6565b5f8484015250505050565b5f611fe682611fa0565b611ff08185611faa565b9350612000818560208601611fb4565b80840191505092915050565b5f6120178284611fdc565b915081905092915050565b7f5468657265206973206e6f207265636f726420666f72207468652072657175695f8201527f7265642079656172206f7220726567696f6e2e00000000000000000000000000602082015250565b5f61207c603383611f28565b915061208782612022565b604082019050919050565b5f6020820190508181035f8301526120a981612070565b9050919050565b7f4e487b71000000000000000000000000000000000000000000000000000000005f52601160045260245ffd5b5f6120e782611b95565b91506120f283611b95565b925082820190508082111561210a576121096120b0565b5b92915050565b5f61211a82611b95565b915061212583611b95565b925082820261213381611b95565b9150828204841483151761214a576121496120b0565b5b5092915050565b7f546865207072656d69756d206d75737420626520636f766572656420746f20725f8201527f65676973746572206f722072656e6577206120706f6c6963792e000000000000602082015250565b5f6121ab603a83611f28565b91506121b682612151565b604082019050919050565b5f6020820190508181035f8301526121d88161219f565b9050919050565b7f54686520636c69656e7420697320616c726561647920696e73757265642e00005f82015250565b5f612213601e83611f28565b915061221e826121df565b602082019050919050565b5f6020820190508181035f83015261224081612207565b9050919050565b7f4e487b71000000000000000000000000000000000000000000000000000000005f52601260045260245ffd5b5f61227e82611b95565b915061228983611b95565b92508261229957612298612247565b5b828204905092915050565b7f43616e6e6f74206c6f61642074686520636f6e747261637420776974682030005f82015250565b5f6122d8601f83611f28565b91506122e3826122a4565b602082019050919050565b5f6020820190508181035f830152612305816122cc565b9050919050565b7f436c61696d732063616e206f6e6c792062652066696c656420657665727920795f8201527f6561722e00000000000000000000000000000000000000000000000000000000602082015250565b5f612366602483611f28565b91506123718261230c565b604082019050919050565b5f6020820190508181035f8301526123938161235a565b9050919050565b7f546865207370656369666965642079656172206973206e6f7420616c6c6f77695f8201527f6e67206120636c61696d20666f7220796f757220706f6c6963792e0000000000602082015250565b5f6123f4603b83611f28565b91506123ff8261239a565b604082019050919050565b5f6020820190508181035f830152612421816123e8565b9050919050565b5f61243282611b95565b915061243d83611b95565b9250828203905081811115612455576124546120b0565b5b92915050565b5f6124668285611fdc565b91506124728284611fdc565b91508190509392505050565b7f4e487b71000000000000000000000000000000000000000000000000000000005f52604160045260245ffdfea26469706673582212201731b1b001818ff6fb3cfcf5c6968cd7c161cfac9920a0a5d76b1855560fbbac64736f6c63430008160033",
			"opcodes": "PUSH1 0x80 PUSH1 0x40 MSTORE PUSH6 0x9184E72A0000 PUSH1 0x1 SSTORE PUSH1 0x96 PUSH1 0x2 SSTORE PUSH1 0x14 PUSH1 0x3 SSTORE CALLVALUE DUP1 ISZERO PUSH3 0x24 JUMPI PUSH0 DUP1 REVERT JUMPDEST POP CALLER PUSH0 DUP1 PUSH2 0x100 EXP DUP2 SLOAD DUP2 PUSH20 0xFFFFFFFFFFFFFFFFFFFFFFFFFFFFFFFFFFFFFFFF MUL NOT AND SWAP1 DUP4 PUSH20 0xFFFFFFFFFFFFFFFFFFFFFFFFFFFFFFFFFFFFFFFF AND MUL OR SWAP1 SSTORE POP PUSH1 0x40 MLOAD DUP1 PUSH1 0x40 ADD PUSH1 0x40 MSTORE DUP1 PUSH6 0x2D79883D2000 DUP2 MSTORE PUSH1 0x20 ADD PUSH2 0x667 DUP2 MSTORE POP PUSH1 0x4 PUSH0 DUP1 PUSH1 0x2 DUP2 GT ISZERO PUSH3 0x9A JUMPI PUSH3 0x99 PUSH3 0x1B3 JUMP JUMPDEST JUMPDEST PUSH1 0x2 DUP2 GT ISZERO PUSH3 0xAF JUMPI PUSH3 0xAE PUSH3 0x1B3 JUMP JUMPDEST JUMPDEST DUP2 MSTORE PUSH1 0x20 ADD SWAP1 DUP2 MSTORE PUSH1 0x20 ADD PUSH0 KECCAK256 PUSH0 DUP3 ADD MLOAD DUP2 PUSH0 ADD SSTORE PUSH1 0x20 DUP3 ADD MLOAD DUP2 PUSH1 0x1 ADD SSTORE SWAP1 POP POP PUSH1 0x40 MLOAD DUP1 PUSH1 0x40 ADD PUSH1 0x40 MSTORE DUP1 PUSH6 0x6D23AD5F8000 DUP2 MSTORE PUSH1 0x20 ADD PUSH2 0x6B9 DUP2 MSTORE POP PUSH1 0x4 PUSH0 PUSH1 0x1 PUSH1 0x2 DUP2 GT ISZERO PUSH3 0x108 JUMPI PUSH3 0x107 PUSH3 0x1B3 JUMP JUMPDEST JUMPDEST PUSH1 0x2 DUP2 GT ISZERO PUSH3 0x11D JUMPI PUSH3 0x11C PUSH3 0x1B3 JUMP JUMPDEST JUMPDEST DUP2 MSTORE PUSH1 0x20 ADD SWAP1 DUP2 MSTORE PUSH1 0x20 ADD PUSH0 KECCAK256 PUSH0 DUP3 ADD MLOAD DUP2 PUSH0 ADD SSTORE PUSH1 0x20 DUP3 ADD MLOAD DUP2 PUSH1 0x1 ADD SSTORE SWAP1 POP POP PUSH1 0x40 MLOAD DUP1 PUSH1 0x40 ADD PUSH1 0x40 MSTORE DUP1 PUSH7 0x13E52B9ABE000 DUP2 MSTORE PUSH1 0x20 ADD PUSH2 0x70B DUP2 MSTORE POP PUSH1 0x4 PUSH0 PUSH1 0x2 DUP1 DUP2 GT ISZERO PUSH3 0x176 JUMPI PUSH3 0x175 PUSH3 0x1B3 JUMP JUMPDEST JUMPDEST PUSH1 0x2 DUP2 GT ISZERO PUSH3 0x18B JUMPI PUSH3 0x18A PUSH3 0x1B3 JUMP JUMPDEST JUMPDEST DUP2 MSTORE PUSH1 0x20 ADD SWAP1 DUP2 MSTORE PUSH1 0x20 ADD PUSH0 KECCAK256 PUSH0 DUP3 ADD MLOAD DUP2 PUSH0 ADD SSTORE PUSH1 0x20 DUP3 ADD MLOAD DUP2 PUSH1 0x1 ADD SSTORE SWAP1 POP POP PUSH3 0x1E0 JUMP JUMPDEST PUSH32 0x4E487B7100000000000000000000000000000000000000000000000000000000 PUSH0 MSTORE PUSH1 0x21 PUSH1 0x4 MSTORE PUSH1 0x24 PUSH0 REVERT JUMPDEST PUSH2 0x24E1 DUP1 PUSH3 0x1EE PUSH0 CODECOPY PUSH0 RETURN INVALID PUSH1 0x80 PUSH1 0x40 MSTORE PUSH1 0x4 CALLDATASIZE LT PUSH2 0x84 JUMPI PUSH0 CALLDATALOAD PUSH1 0xE0 SHR DUP1 PUSH4 0x8DA5CB5B GT PUSH2 0x58 JUMPI DUP1 PUSH4 0x8DA5CB5B EQ PUSH2 0x120 JUMPI DUP1 PUSH4 0xA8E023EB EQ PUSH2 0x14A JUMPI DUP1 PUSH4 0xB3155B5E EQ PUSH2 0x166 JUMPI DUP1 PUSH4 0xBD097E21 EQ PUSH2 0x18E JUMPI DUP1 PUSH4 0xD61909F9 EQ PUSH2 0x198 JUMPI PUSH2 0x84 JUMP JUMPDEST DUP1 PUSH3 0x7C74CB EQ PUSH2 0x88 JUMPI DUP1 PUSH4 0x1A59C5B6 EQ PUSH2 0xB0 JUMPI DUP1 PUSH4 0x51821891 EQ PUSH2 0xBA JUMPI DUP1 PUSH4 0x70F363A4 EQ PUSH2 0xF6 JUMPI JUMPDEST PUSH0 DUP1 REVERT JUMPDEST CALLVALUE DUP1 ISZERO PUSH2 0x93 JUMPI PUSH0 DUP1 REVERT JUMPDEST POP PUSH2 0xAE PUSH1 0x4 DUP1 CALLDATASIZE SUB DUP2 ADD SWAP1 PUSH2 0xA9 SWAP2 SWAP1 PUSH2 0x1BC8 JUMP JUMPDEST PUSH2 0x1C0 JUMP JUMPDEST STOP JUMPDEST PUSH2 0xB8 PUSH2 0x4A0 JUMP JUMPDEST STOP JUMPDEST CALLVALUE DUP1 ISZERO PUSH2 0xC5 JUMPI PUSH0 DUP1 REVERT JUMPDEST POP PUSH2 0xE0 PUSH1 0x4 DUP1 CALLDATASIZE SUB DUP2 ADD SWAP1 PUSH2 0xDB SWAP2 SWAP1 PUSH2 0x1C16 JUMP JUMPDEST PUSH2 0x73A JUMP JUMPDEST PUSH1 0x40 MLOAD PUSH2 0xED SWAP2 SWAP1 PUSH2 0x1C63 JUMP JUMPDEST PUSH1 0x40 MLOAD DUP1 SWAP2 SUB SWAP1 RETURN JUMPDEST CALLVALUE DUP1 ISZERO PUSH2 0x101 JUMPI PUSH0 DUP1 REVERT JUMPDEST POP PUSH2 0x10A PUSH2 0x786 JUMP JUMPDEST PUSH1 0x40 MLOAD PUSH2 0x117 SWAP2 SWAP1 PUSH2 0x1E23 JUMP JUMPDEST PUSH1 0x40 MLOAD DUP1 SWAP2 SUB SWAP1 RETURN JUMPDEST CALLVALUE DUP1 ISZERO PUSH2 0x12B JUMPI PUSH0 DUP1 REVERT JUMPDEST POP PUSH2 0x134 PUSH2 0x9F8 JUMP JUMPDEST PUSH1 0x40 MLOAD PUSH2 0x141 SWAP2 SWAP1 PUSH2 0x1E4C JUMP JUMPDEST PUSH1 0x40 MLOAD DUP1 SWAP2 SUB SWAP1 RETURN JUMPDEST PUSH2 0x164 PUSH1 0x4 DUP1 CALLDATASIZE SUB DUP2 ADD SWAP1 PUSH2 0x15F SWAP2 SWAP1 PUSH2 0x1E88 JUMP JUMPDEST PUSH2 0xA1F JUMP JUMPDEST STOP JUMPDEST CALLVALUE DUP1 ISZERO PUSH2 0x171 JUMPI PUSH0 DUP1 REVERT JUMPDEST POP PUSH2 0x18C PUSH1 0x4 DUP1 CALLDATASIZE SUB DUP2 ADD SWAP1 PUSH2 0x187 SWAP2 SWAP1 PUSH2 0x1ED8 JUMP JUMPDEST PUSH2 0xE95 JUMP JUMPDEST STOP JUMPDEST PUSH2 0x196 PUSH2 0xF75 JUMP JUMPDEST STOP JUMPDEST CALLVALUE DUP1 ISZERO PUSH2 0x1A3 JUMPI PUSH0 DUP1 REVERT JUMPDEST POP PUSH2 0x1BE PUSH1 0x4 DUP1 CALLDATASIZE SUB DUP2 ADD SWAP1 PUSH2 0x1B9 SWAP2 SWAP1 PUSH2 0x1BC8 JUMP JUMPDEST PUSH2 0xFB9 JUMP JUMPDEST STOP JUMPDEST PUSH0 DUP1 PUSH20 0xFFFFFFFFFFFFFFFFFFFFFFFFFFFFFFFFFFFFFFFF AND PUSH1 0x6 PUSH0 CALLER PUSH20 0xFFFFFFFFFFFFFFFFFFFFFFFFFFFFFFFFFFFFFFFF AND PUSH20 0xFFFFFFFFFFFFFFFFFFFFFFFFFFFFFFFFFFFFFFFF AND DUP2 MSTORE PUSH1 0x20 ADD SWAP1 DUP2 MSTORE PUSH1 0x20 ADD PUSH0 KECCAK256 PUSH0 ADD PUSH0 SWAP1 SLOAD SWAP1 PUSH2 0x100 EXP SWAP1 DIV PUSH20 0xFFFFFFFFFFFFFFFFFFFFFFFFFFFFFFFFFFFFFFFF AND PUSH20 0xFFFFFFFFFFFFFFFFFFFFFFFFFFFFFFFFFFFFFFFF AND EQ ISZERO SWAP1 POP PUSH0 TIMESTAMP PUSH1 0x6 PUSH0 CALLER PUSH20 0xFFFFFFFFFFFFFFFFFFFFFFFFFFFFFFFFFFFFFFFF AND PUSH20 0xFFFFFFFFFFFFFFFFFFFFFFFFFFFFFFFFFFFFFFFF AND DUP2 MSTORE PUSH1 0x20 ADD SWAP1 DUP2 MSTORE PUSH1 0x20 ADD PUSH0 KECCAK256 PUSH1 0x4 ADD SLOAD GT SWAP1 POP DUP2 DUP1 ISZERO PUSH2 0x2A1 JUMPI POP DUP1 JUMPDEST PUSH2 0x2E0 JUMPI PUSH1 0x40 MLOAD PUSH32 0x8C379A000000000000000000000000000000000000000000000000000000000 DUP2 MSTORE PUSH1 0x4 ADD PUSH2 0x2D7 SWAP1 PUSH2 0x1F82 JUMP JUMPDEST PUSH1 0x40 MLOAD DUP1 SWAP2 SUB SWAP1 REVERT JUMPDEST DUP3 PUSH0 PUSH2 0x2EB DUP3 PUSH2 0x1476 JUMP JUMPDEST SWAP1 POP PUSH0 DUP1 PUSH1 0x5 DUP4 PUSH1 0x40 MLOAD PUSH2 0x2FF SWAP2 SWAP1 PUSH2 0x200C JUMP JUMPDEST SWAP1 DUP2 MSTORE PUSH1 0x20 ADD PUSH1 0x40 MLOAD DUP1 SWAP2 SUB SWAP1 KECCAK256 SLOAD EQ ISZERO SWAP1 POP DUP1 PUSH2 0x352 JUMPI PUSH1 0x40 MLOAD PUSH32 0x8C379A000000000000000000000000000000000000000000000000000000000 DUP2 MSTORE PUSH1 0x4 ADD PUSH2 0x349 SWAP1 PUSH2 0x2092 JUMP JUMPDEST PUSH1 0x40 MLOAD DUP1 SWAP2 SUB SWAP1 REVERT JUMPDEST PUSH0 PUSH2 0x35C DUP8 PUSH2 0x16A6 JUMP JUMPDEST SWAP1 POP CALLER PUSH20 0xFFFFFFFFFFFFFFFFFFFFFFFFFFFFFFFFFFFFFFFF AND PUSH2 0x8FC DUP3 SWAP1 DUP2 ISZERO MUL SWAP1 PUSH1 0x40 MLOAD PUSH0 PUSH1 0x40 MLOAD DUP1 DUP4 SUB DUP2 DUP6 DUP9 DUP9 CALL SWAP4 POP POP POP POP ISZERO DUP1 ISZERO PUSH2 0x3A1 JUMPI RETURNDATASIZE PUSH0 DUP1 RETURNDATACOPY RETURNDATASIZE PUSH0 REVERT JUMPDEST POP PUSH2 0x3F9 PUSH4 0x1E13380 PUSH1 0x6 PUSH0 CALLER PUSH20 0xFFFFFFFFFFFFFFFFFFFFFFFFFFFFFFFFFFFFFFFF AND PUSH20 0xFFFFFFFFFFFFFFFFFFFFFFFFFFFFFFFFFFFFFFFF AND DUP2 MSTORE PUSH1 0x20 ADD SWAP1 DUP2 MSTORE PUSH1 0x20 ADD PUSH0 KECCAK256 PUSH1 0x5 ADD SLOAD PUSH2 0x18B6 SWAP1 SWAP2 SWAP1 PUSH4 0xFFFFFFFF AND JUMP JUMPDEST POP PUSH0 PUSH1 0x6 PUSH0 CALLER PUSH20 0xFFFFFFFFFFFFFFFFFFFFFFFFFFFFFFFFFFFFFFFF AND PUSH20 0xFFFFFFFFFFFFFFFFFFFFFFFFFFFFFFFFFFFFFFFF AND DUP2 MSTORE PUSH1 0x20 ADD SWAP1 DUP2 MSTORE PUSH1 0x20 ADD PUSH0 KECCAK256 PUSH1 0x4 ADD SLOAD GT ISZERO PUSH2 0x497 JUMPI PUSH1 0x1 PUSH1 0x7 PUSH0 CALLER PUSH20 0xFFFFFFFFFFFFFFFFFFFFFFFFFFFFFFFFFFFFFFFF AND PUSH20 0xFFFFFFFFFFFFFFFFFFFFFFFFFFFFFFFFFFFFFFFF AND DUP2 MSTORE PUSH1 0x20 ADD SWAP1 DUP2 MSTORE PUSH1 0x20 ADD PUSH0 KECCAK256 PUSH0 DUP3 DUP3 SLOAD PUSH2 0x48F SWAP2 SWAP1 PUSH2 0x20DD JUMP JUMPDEST SWAP3 POP POP DUP2 SWAP1 SSTORE POP JUMPDEST POP POP POP POP POP POP POP JUMP JUMPDEST PUSH0 DUP1 PUSH20 0xFFFFFFFFFFFFFFFFFFFFFFFFFFFFFFFFFFFFFFFF AND PUSH1 0x6 PUSH0 CALLER PUSH20 0xFFFFFFFFFFFFFFFFFFFFFFFFFFFFFFFFFFFFFFFF AND PUSH20 0xFFFFFFFFFFFFFFFFFFFFFFFFFFFFFFFFFFFFFFFF AND DUP2 MSTORE PUSH1 0x20 ADD SWAP1 DUP2 MSTORE PUSH1 0x20 ADD PUSH0 KECCAK256 PUSH0 ADD PUSH0 SWAP1 SLOAD SWAP1 PUSH2 0x100 EXP SWAP1 DIV PUSH20 0xFFFFFFFFFFFFFFFFFFFFFFFFFFFFFFFFFFFFFFFF AND PUSH20 0xFFFFFFFFFFFFFFFFFFFFFFFFFFFFFFFFFFFFFFFF AND EQ ISZERO SWAP1 POP PUSH0 TIMESTAMP PUSH1 0x6 PUSH0 CALLER PUSH20 0xFFFFFFFFFFFFFFFFFFFFFFFFFFFFFFFFFFFFFFFF AND PUSH20 0xFFFFFFFFFFFFFFFFFFFFFFFFFFFFFFFFFFFFFFFF AND DUP2 MSTORE PUSH1 0x20 ADD SWAP1 DUP2 MSTORE PUSH1 0x20 ADD PUSH0 KECCAK256 PUSH1 0x4 ADD SLOAD GT SWAP1 POP DUP2 DUP1 ISZERO PUSH2 0x581 JUMPI POP DUP1 JUMPDEST PUSH2 0x5C0 JUMPI PUSH1 0x40 MLOAD PUSH32 0x8C379A000000000000000000000000000000000000000000000000000000000 DUP2 MSTORE PUSH1 0x4 ADD PUSH2 0x5B7 SWAP1 PUSH2 0x1F82 JUMP JUMPDEST PUSH1 0x40 MLOAD DUP1 SWAP2 SUB SWAP1 REVERT JUMPDEST PUSH1 0x6 PUSH0 CALLER PUSH20 0xFFFFFFFFFFFFFFFFFFFFFFFFFFFFFFFFFFFFFFFF AND PUSH20 0xFFFFFFFFFFFFFFFFFFFFFFFFFFFFFFFFFFFFFFFF AND DUP2 MSTORE PUSH1 0x20 ADD SWAP1 DUP2 MSTORE PUSH1 0x20 ADD PUSH0 KECCAK256 PUSH0 ADD PUSH1 0x15 SWAP1 SLOAD SWAP1 PUSH2 0x100 EXP SWAP1 DIV PUSH1 0xFF AND PUSH1 0x6 PUSH0 CALLER PUSH20 0xFFFFFFFFFFFFFFFFFFFFFFFFFFFFFFFFFFFFFFFF AND PUSH20 0xFFFFFFFFFFFFFFFFFFFFFFFFFFFFFFFFFFFFFFFF AND DUP2 MSTORE PUSH1 0x20 ADD SWAP1 DUP2 MSTORE PUSH1 0x20 ADD PUSH0 KECCAK256 PUSH1 0x1 ADD SLOAD PUSH0 DUP2 PUSH1 0x4 PUSH0 DUP6 PUSH1 0x2 DUP2 GT ISZERO PUSH2 0x666 JUMPI PUSH2 0x665 PUSH2 0x1CBB JUMP JUMPDEST JUMPDEST PUSH1 0x2 DUP2 GT ISZERO PUSH2 0x678 JUMPI PUSH2 0x677 PUSH2 0x1CBB JUMP JUMPDEST JUMPDEST DUP2 MSTORE PUSH1 0x20 ADD SWAP1 DUP2 MSTORE PUSH1 0x20 ADD PUSH0 KECCAK256 PUSH0 ADD SLOAD PUSH2 0x692 SWAP2 SWAP1 PUSH2 0x2110 JUMP JUMPDEST SWAP1 POP PUSH0 DUP2 CALLVALUE EQ SWAP1 POP DUP1 PUSH2 0x6DA JUMPI PUSH1 0x40 MLOAD PUSH32 0x8C379A000000000000000000000000000000000000000000000000000000000 DUP2 MSTORE PUSH1 0x4 ADD PUSH2 0x6D1 SWAP1 PUSH2 0x21C1 JUMP JUMPDEST PUSH1 0x40 MLOAD DUP1 SWAP2 SUB SWAP1 REVERT JUMPDEST PUSH2 0x731 PUSH4 0x1E13380 PUSH1 0x6 PUSH0 CALLER PUSH20 0xFFFFFFFFFFFFFFFFFFFFFFFFFFFFFFFFFFFFFFFF AND PUSH20 0xFFFFFFFFFFFFFFFFFFFFFFFFFFFFFFFFFFFFFFFF AND DUP2 MSTORE PUSH1 0x20 ADD SWAP1 DUP2 MSTORE PUSH1 0x20 ADD PUSH0 KECCAK256 PUSH1 0x4 ADD SLOAD PUSH2 0x18B6 SWAP1 SWAP2 SWAP1 PUSH4 0xFFFFFFFF AND JUMP JUMPDEST POP POP POP POP POP POP POP JUMP JUMPDEST PUSH0 PUSH1 0x4 PUSH0 DUP5 PUSH1 0x2 DUP2 GT ISZERO PUSH2 0x751 JUMPI PUSH2 0x750 PUSH2 0x1CBB JUMP JUMPDEST JUMPDEST PUSH1 0x2 DUP2 GT ISZERO PUSH2 0x763 JUMPI PUSH2 0x762 PUSH2 0x1CBB JUMP JUMPDEST JUMPDEST DUP2 MSTORE PUSH1 0x20 ADD SWAP1 DUP2 MSTORE PUSH1 0x20 ADD PUSH0 KECCAK256 PUSH0 ADD SLOAD DUP3 PUSH2 0x77E SWAP2 SWAP1 PUSH2 0x2110 JUMP JUMPDEST SWAP1 POP SWAP3 SWAP2 POP POP JUMP JUMPDEST PUSH2 0x78E PUSH2 0x1B1A JUMP JUMPDEST PUSH0 DUP1 PUSH20 0xFFFFFFFFFFFFFFFFFFFFFFFFFFFFFFFFFFFFFFFF AND PUSH1 0x6 PUSH0 CALLER PUSH20 0xFFFFFFFFFFFFFFFFFFFFFFFFFFFFFFFFFFFFFFFF AND PUSH20 0xFFFFFFFFFFFFFFFFFFFFFFFFFFFFFFFFFFFFFFFF AND DUP2 MSTORE PUSH1 0x20 ADD SWAP1 DUP2 MSTORE PUSH1 0x20 ADD PUSH0 KECCAK256 PUSH0 ADD PUSH0 SWAP1 SLOAD SWAP1 PUSH2 0x100 EXP SWAP1 DIV PUSH20 0xFFFFFFFFFFFFFFFFFFFFFFFFFFFFFFFFFFFFFFFF AND PUSH20 0xFFFFFFFFFFFFFFFFFFFFFFFFFFFFFFFFFFFFFFFF AND EQ ISZERO SWAP1 POP PUSH0 TIMESTAMP PUSH1 0x6 PUSH0 CALLER PUSH20 0xFFFFFFFFFFFFFFFFFFFFFFFFFFFFFFFFFFFFFFFF AND PUSH20 0xFFFFFFFFFFFFFFFFFFFFFFFFFFFFFFFFFFFFFFFF AND DUP2 MSTORE PUSH1 0x20 ADD SWAP1 DUP2 MSTORE PUSH1 0x20 ADD PUSH0 KECCAK256 PUSH1 0x4 ADD SLOAD GT SWAP1 POP DUP2 DUP1 ISZERO PUSH2 0x86F JUMPI POP DUP1 JUMPDEST PUSH2 0x8AE JUMPI PUSH1 0x40 MLOAD PUSH32 0x8C379A000000000000000000000000000000000000000000000000000000000 DUP2 MSTORE PUSH1 0x4 ADD PUSH2 0x8A5 SWAP1 PUSH2 0x1F82 JUMP JUMPDEST PUSH1 0x40 MLOAD DUP1 SWAP2 SUB SWAP1 REVERT JUMPDEST PUSH1 0x6 PUSH0 CALLER PUSH20 0xFFFFFFFFFFFFFFFFFFFFFFFFFFFFFFFFFFFFFFFF AND PUSH20 0xFFFFFFFFFFFFFFFFFFFFFFFFFFFFFFFFFFFFFFFF AND DUP2 MSTORE PUSH1 0x20 ADD SWAP1 DUP2 MSTORE PUSH1 0x20 ADD PUSH0 KECCAK256 PUSH1 0x40 MLOAD DUP1 PUSH2 0x100 ADD PUSH1 0x40 MSTORE SWAP1 DUP2 PUSH0 DUP3 ADD PUSH0 SWAP1 SLOAD SWAP1 PUSH2 0x100 EXP SWAP1 DIV PUSH20 0xFFFFFFFFFFFFFFFFFFFFFFFFFFFFFFFFFFFFFFFF AND PUSH20 0xFFFFFFFFFFFFFFFFFFFFFFFFFFFFFFFFFFFFFFFF AND PUSH20 0xFFFFFFFFFFFFFFFFFFFFFFFFFFFFFFFFFFFFFFFF AND DUP2 MSTORE PUSH1 0x20 ADD PUSH0 DUP3 ADD PUSH1 0x14 SWAP1 SLOAD SWAP1 PUSH2 0x100 EXP SWAP1 DIV PUSH1 0xFF AND PUSH1 0x1 DUP2 GT ISZERO PUSH2 0x96F JUMPI PUSH2 0x96E PUSH2 0x1CBB JUMP JUMPDEST JUMPDEST PUSH1 0x1 DUP2 GT ISZERO PUSH2 0x981 JUMPI PUSH2 0x980 PUSH2 0x1CBB JUMP JUMPDEST JUMPDEST DUP2 MSTORE PUSH1 0x20 ADD PUSH0 DUP3 ADD PUSH1 0x15 SWAP1 SLOAD SWAP1 PUSH2 0x100 EXP SWAP1 DIV PUSH1 0xFF AND PUSH1 0x2 DUP2 GT ISZERO PUSH2 0x9A9 JUMPI PUSH2 0x9A8 PUSH2 0x1CBB JUMP JUMPDEST JUMPDEST PUSH1 0x2 DUP2 GT ISZERO PUSH2 0x9BB JUMPI PUSH2 0x9BA PUSH2 0x1CBB JUMP JUMPDEST JUMPDEST DUP2 MSTORE PUSH1 0x20 ADD PUSH1 0x1 DUP3 ADD SLOAD DUP2 MSTORE PUSH1 0x20 ADD PUSH1 0x2 DUP3 ADD SLOAD DUP2 MSTORE PUSH1 0x20 ADD PUSH1 0x3 DUP3 ADD SLOAD DUP2 MSTORE PUSH1 0x20 ADD PUSH1 0x4 DUP3 ADD SLOAD DUP2 MSTORE PUSH1 0x20 ADD PUSH1 0x5 DUP3 ADD SLOAD DUP2 MSTORE POP POP SWAP3 POP POP POP SWAP1 JUMP JUMPDEST PUSH0 DUP1 PUSH0 SWAP1 SLOAD SWAP1 PUSH2 0x100 EXP SWAP1 DIV PUSH20 0xFFFFFFFFFFFFFFFFFFFFFFFFFFFFFFFFFFFFFFFF AND SWAP1 POP SWAP1 JUMP JUMPDEST PUSH0 DUP1 PUSH20 0xFFFFFFFFFFFFFFFFFFFFFFFFFFFFFFFFFFFFFFFF AND PUSH1 0x6 PUSH0 CALLER PUSH20 0xFFFFFFFFFFFFFFFFFFFFFFFFFFFFFFFFFFFFFFFF AND PUSH20 0xFFFFFFFFFFFFFFFFFFFFFFFFFFFFFFFFFFFFFFFF AND DUP2 MSTORE PUSH1 0x20 ADD SWAP1 DUP2 MSTORE PUSH1 0x20 ADD PUSH0 KECCAK256 PUSH0 ADD PUSH0 SWAP1 SLOAD SWAP1 PUSH2 0x100 EXP SWAP1 DIV PUSH20 0xFFFFFFFFFFFFFFFFFFFFFFFFFFFFFFFFFFFFFFFF AND PUSH20 0xFFFFFFFFFFFFFFFFFFFFFFFFFFFFFFFFFFFFFFFF AND EQ SWAP1 POP PUSH0 TIMESTAMP PUSH1 0x6 PUSH0 CALLER PUSH20 0xFFFFFFFFFFFFFFFFFFFFFFFFFFFFFFFFFFFFFFFF AND PUSH20 0xFFFFFFFFFFFFFFFFFFFFFFFFFFFFFFFFFFFFFFFF AND DUP2 MSTORE PUSH1 0x20 ADD SWAP1 DUP2 MSTORE PUSH1 0x20 ADD PUSH0 KECCAK256 PUSH1 0x4 ADD SLOAD LT SWAP1 POP DUP2 DUP1 PUSH2 0xAFE JUMPI POP DUP1 JUMPDEST PUSH2 0xB3D JUMPI PUSH1 0x40 MLOAD PUSH32 0x8C379A000000000000000000000000000000000000000000000000000000000 DUP2 MSTORE PUSH1 0x4 ADD PUSH2 0xB34 SWAP1 PUSH2 0x2229 JUMP JUMPDEST PUSH1 0x40 MLOAD DUP1 SWAP2 SUB SWAP1 REVERT JUMPDEST DUP5 DUP5 PUSH0 DUP2 PUSH1 0x4 PUSH0 DUP6 PUSH1 0x2 DUP2 GT ISZERO PUSH2 0xB57 JUMPI PUSH2 0xB56 PUSH2 0x1CBB JUMP JUMPDEST JUMPDEST PUSH1 0x2 DUP2 GT ISZERO PUSH2 0xB69 JUMPI PUSH2 0xB68 PUSH2 0x1CBB JUMP JUMPDEST JUMPDEST DUP2 MSTORE PUSH1 0x20 ADD SWAP1 DUP2 MSTORE PUSH1 0x20 ADD PUSH0 KECCAK256 PUSH0 ADD SLOAD PUSH2 0xB83 SWAP2 SWAP1 PUSH2 0x2110 JUMP JUMPDEST SWAP1 POP PUSH0 DUP2 CALLVALUE EQ SWAP1 POP DUP1 PUSH2 0xBCB JUMPI PUSH1 0x40 MLOAD PUSH32 0x8C379A000000000000000000000000000000000000000000000000000000000 DUP2 MSTORE PUSH1 0x4 ADD PUSH2 0xBC2 SWAP1 PUSH2 0x21C1 JUMP JUMPDEST PUSH1 0x40 MLOAD DUP1 SWAP2 SUB SWAP1 REVERT JUMPDEST PUSH1 0x40 MLOAD DUP1 PUSH2 0x100 ADD PUSH1 0x40 MSTORE DUP1 CALLER PUSH20 0xFFFFFFFFFFFFFFFFFFFFFFFFFFFFFFFFFFFFFFFF AND DUP2 MSTORE PUSH1 0x20 ADD DUP9 PUSH1 0x1 DUP2 GT ISZERO PUSH2 0xC06 JUMPI PUSH2 0xC05 PUSH2 0x1CBB JUMP JUMPDEST JUMPDEST DUP2 MSTORE PUSH1 0x20 ADD DUP11 PUSH1 0x2 DUP2 GT ISZERO PUSH2 0xC1E JUMPI PUSH2 0xC1D PUSH2 0x1CBB JUMP JUMPDEST JUMPDEST DUP2 MSTORE PUSH1 0x20 ADD DUP10 DUP2 MSTORE PUSH1 0x20 ADD PUSH1 0x4 PUSH0 DUP13 PUSH1 0x2 DUP2 GT ISZERO PUSH2 0xC3F JUMPI PUSH2 0xC3E PUSH2 0x1CBB JUMP JUMPDEST JUMPDEST PUSH1 0x2 DUP2 GT ISZERO PUSH2 0xC51 JUMPI PUSH2 0xC50 PUSH2 0x1CBB JUMP JUMPDEST JUMPDEST DUP2 MSTORE PUSH1 0x20 ADD SWAP1 DUP2 MSTORE PUSH1 0x20 ADD PUSH0 KECCAK256 PUSH0 ADD SLOAD DUP11 PUSH2 0xC6C SWAP2 SWAP1 PUSH2 0x2110 JUMP JUMPDEST DUP2 MSTORE PUSH1 0x20 ADD TIMESTAMP DUP2 MSTORE PUSH1 0x20 ADD PUSH2 0xC8E PUSH4 0x1E13380 TIMESTAMP PUSH2 0x18B6 SWAP1 SWAP2 SWAP1 PUSH4 0xFFFFFFFF AND JUMP JUMPDEST DUP2 MSTORE PUSH1 0x20 ADD PUSH2 0xCAA PUSH4 0x1E13380 TIMESTAMP PUSH2 0x18B6 SWAP1 SWAP2 SWAP1 PUSH4 0xFFFFFFFF AND JUMP JUMPDEST DUP2 MSTORE POP PUSH1 0x6 PUSH0 CALLER PUSH20 0xFFFFFFFFFFFFFFFFFFFFFFFFFFFFFFFFFFFFFFFF AND PUSH20 0xFFFFFFFFFFFFFFFFFFFFFFFFFFFFFFFFFFFFFFFF AND DUP2 MSTORE PUSH1 0x20 ADD SWAP1 DUP2 MSTORE PUSH1 0x20 ADD PUSH0 KECCAK256 PUSH0 DUP3 ADD MLOAD DUP2 PUSH0 ADD PUSH0 PUSH2 0x100 EXP DUP2 SLOAD DUP2 PUSH20 0xFFFFFFFFFFFFFFFFFFFFFFFFFFFFFFFFFFFFFFFF MUL NOT AND SWAP1 DUP4 PUSH20 0xFFFFFFFFFFFFFFFFFFFFFFFFFFFFFFFFFFFFFFFF AND MUL OR SWAP1 SSTORE POP PUSH1 0x20 DUP3 ADD MLOAD DUP2 PUSH0 ADD PUSH1 0x14 PUSH2 0x100 EXP DUP2 SLOAD DUP2 PUSH1 0xFF MUL NOT AND SWAP1 DUP4 PUSH1 0x1 DUP2 GT ISZERO PUSH2 0xD58 JUMPI PUSH2 0xD57 PUSH2 0x1CBB JUMP JUMPDEST JUMPDEST MUL OR SWAP1 SSTORE POP PUSH1 0x40 DUP3 ADD MLOAD DUP2 PUSH0 ADD PUSH1 0x15 PUSH2 0x100 EXP DUP2 SLOAD DUP2 PUSH1 0xFF MUL NOT AND SWAP1 DUP4 PUSH1 0x2 DUP2 GT ISZERO PUSH2 0xD87 JUMPI PUSH2 0xD86 PUSH2 0x1CBB JUMP JUMPDEST JUMPDEST MUL OR SWAP1 SSTORE POP PUSH1 0x60 DUP3 ADD MLOAD DUP2 PUSH1 0x1 ADD SSTORE PUSH1 0x80 DUP3 ADD MLOAD DUP2 PUSH1 0x2 ADD SSTORE PUSH1 0xA0 DUP3 ADD MLOAD DUP2 PUSH1 0x3 ADD SSTORE PUSH1 0xC0 DUP3 ADD MLOAD DUP2 PUSH1 0x4 ADD SSTORE PUSH1 0xE0 DUP3 ADD MLOAD DUP2 PUSH1 0x5 ADD SSTORE SWAP1 POP POP PUSH0 PUSH4 0x1E13380 SWAP1 POP PUSH0 PUSH2 0x7B2 SWAP1 POP DUP1 DUP3 TIMESTAMP PUSH2 0xDDC SWAP2 SWAP1 PUSH2 0x2274 JUMP JUMPDEST PUSH2 0xDE6 SWAP2 SWAP1 PUSH2 0x20DD JUMP JUMPDEST PUSH1 0x7 PUSH0 CALLER PUSH20 0xFFFFFFFFFFFFFFFFFFFFFFFFFFFFFFFFFFFFFFFF AND PUSH20 0xFFFFFFFFFFFFFFFFFFFFFFFFFFFFFFFFFFFFFFFF AND DUP2 MSTORE PUSH1 0x20 ADD SWAP1 DUP2 MSTORE PUSH1 0x20 ADD PUSH0 KECCAK256 DUP2 SWAP1 SSTORE POP PUSH1 0x9 PUSH0 CALLER PUSH20 0xFFFFFFFFFFFFFFFFFFFFFFFFFFFFFFFFFFFFFFFF AND PUSH20 0xFFFFFFFFFFFFFFFFFFFFFFFFFFFFFFFFFFFFFFFF AND DUP2 MSTORE PUSH1 0x20 ADD SWAP1 DUP2 MSTORE PUSH1 0x20 ADD PUSH0 KECCAK256 TIMESTAMP SWAP1 DUP1 PUSH1 0x1 DUP2 SLOAD ADD DUP1 DUP3 SSTORE DUP1 SWAP2 POP POP PUSH1 0x1 SWAP1 SUB SWAP1 PUSH0 MSTORE PUSH1 0x20 PUSH0 KECCAK256 ADD PUSH0 SWAP1 SWAP2 SWAP1 SWAP2 SWAP1 SWAP2 POP SSTORE POP POP POP POP POP POP POP POP POP POP POP JUMP JUMPDEST PUSH0 DUP1 PUSH1 0x1 DUP2 GT ISZERO PUSH2 0xEA9 JUMPI PUSH2 0xEA8 PUSH2 0x1CBB JUMP JUMPDEST JUMPDEST DUP3 PUSH1 0x1 DUP2 GT ISZERO PUSH2 0xEBC JUMPI PUSH2 0xEBB PUSH2 0x1CBB JUMP JUMPDEST JUMPDEST EQ SWAP1 POP PUSH0 DUP2 PUSH2 0xF09 JUMPI PUSH2 0xF04 DUP6 PUSH1 0x40 MLOAD DUP1 PUSH1 0x40 ADD PUSH1 0x40 MSTORE DUP1 PUSH1 0x6 DUP2 MSTORE PUSH1 0x20 ADD PUSH32 0x5F4E4F5254480000000000000000000000000000000000000000000000000000 DUP2 MSTORE POP PUSH2 0x18CB JUMP JUMPDEST PUSH2 0xF49 JUMP JUMPDEST PUSH2 0xF48 DUP6 PUSH1 0x40 MLOAD DUP1 PUSH1 0x40 ADD PUSH1 0x40 MSTORE DUP1 PUSH1 0x6 DUP2 MSTORE PUSH1 0x20 ADD PUSH32 0x5F534F5554480000000000000000000000000000000000000000000000000000 DUP2 MSTORE POP PUSH2 0x18CB JUMP JUMPDEST JUMPDEST SWAP1 POP DUP4 PUSH1 0x5 DUP3 PUSH1 0x40 MLOAD PUSH2 0xF5C SWAP2 SWAP1 PUSH2 0x200C JUMP JUMPDEST SWAP1 DUP2 MSTORE PUSH1 0x20 ADD PUSH1 0x40 MLOAD DUP1 SWAP2 SUB SWAP1 KECCAK256 DUP2 SWAP1 SSTORE POP POP POP POP POP POP JUMP JUMPDEST PUSH0 CALLVALUE GT PUSH2 0xFB7 JUMPI PUSH1 0x40 MLOAD PUSH32 0x8C379A000000000000000000000000000000000000000000000000000000000 DUP2 MSTORE PUSH1 0x4 ADD PUSH2 0xFAE SWAP1 PUSH2 0x22EE JUMP JUMPDEST PUSH1 0x40 MLOAD DUP1 SWAP2 SUB SWAP1 REVERT JUMPDEST JUMP JUMPDEST PUSH0 DUP1 PUSH20 0xFFFFFFFFFFFFFFFFFFFFFFFFFFFFFFFFFFFFFFFF AND PUSH1 0x6 PUSH0 CALLER PUSH20 0xFFFFFFFFFFFFFFFFFFFFFFFFFFFFFFFFFFFFFFFF AND PUSH20 0xFFFFFFFFFFFFFFFFFFFFFFFFFFFFFFFFFFFFFFFF AND DUP2 MSTORE PUSH1 0x20 ADD SWAP1 DUP2 MSTORE PUSH1 0x20 ADD PUSH0 KECCAK256 PUSH0 ADD PUSH0 SWAP1 SLOAD SWAP1 PUSH2 0x100 EXP SWAP1 DIV PUSH20 0xFFFFFFFFFFFFFFFFFFFFFFFFFFFFFFFFFFFFFFFF AND PUSH20 0xFFFFFFFFFFFFFFFFFFFFFFFFFFFFFFFFFFFFFFFF AND EQ ISZERO SWAP1 POP PUSH0 TIMESTAMP PUSH1 0x6 PUSH0 CALLER PUSH20 0xFFFFFFFFFFFFFFFFFFFFFFFFFFFFFFFFFFFFFFFF AND PUSH20 0xFFFFFFFFFFFFFFFFFFFFFFFFFFFFFFFFFFFFFFFF AND DUP2 MSTORE PUSH1 0x20 ADD SWAP1 DUP2 MSTORE PUSH1 0x20 ADD PUSH0 KECCAK256 PUSH1 0x4 ADD SLOAD GT SWAP1 POP DUP2 DUP1 ISZERO PUSH2 0x109A JUMPI POP DUP1 JUMPDEST PUSH2 0x10D9 JUMPI PUSH1 0x40 MLOAD PUSH32 0x8C379A000000000000000000000000000000000000000000000000000000000 DUP2 MSTORE PUSH1 0x4 ADD PUSH2 0x10D0 SWAP1 PUSH2 0x1F82 JUMP JUMPDEST PUSH1 0x40 MLOAD DUP1 SWAP2 SUB SWAP1 REVERT JUMPDEST PUSH0 TIMESTAMP PUSH1 0x6 PUSH0 CALLER PUSH20 0xFFFFFFFFFFFFFFFFFFFFFFFFFFFFFFFFFFFFFFFF AND PUSH20 0xFFFFFFFFFFFFFFFFFFFFFFFFFFFFFFFFFFFFFFFF AND DUP2 MSTORE PUSH1 0x20 ADD SWAP1 DUP2 MSTORE PUSH1 0x20 ADD PUSH0 KECCAK256 PUSH1 0x5 ADD SLOAD LT SWAP1 POP DUP1 ISZERO PUSH2 0x1160 JUMPI PUSH1 0x40 MLOAD PUSH32 0x8C379A000000000000000000000000000000000000000000000000000000000 DUP2 MSTORE PUSH1 0x4 ADD PUSH2 0x1157 SWAP1 PUSH2 0x237C JUMP JUMPDEST PUSH1 0x40 MLOAD DUP1 SWAP2 SUB SWAP1 REVERT JUMPDEST DUP4 PUSH0 DUP2 PUSH1 0x7 PUSH0 CALLER PUSH20 0xFFFFFFFFFFFFFFFFFFFFFFFFFFFFFFFFFFFFFFFF AND PUSH20 0xFFFFFFFFFFFFFFFFFFFFFFFFFFFFFFFFFFFFFFFF AND DUP2 MSTORE PUSH1 0x20 ADD SWAP1 DUP2 MSTORE PUSH1 0x20 ADD PUSH0 KECCAK256 SLOAD EQ SWAP1 POP DUP1 PUSH2 0x11E4 JUMPI PUSH1 0x40 MLOAD PUSH32 0x8C379A000000000000000000000000000000000000000000000000000000000 DUP2 MSTORE PUSH1 0x4 ADD PUSH2 0x11DB SWAP1 PUSH2 0x240A JUMP JUMPDEST PUSH1 0x40 MLOAD DUP1 SWAP2 SUB SWAP1 REVERT JUMPDEST DUP6 PUSH0 PUSH2 0x11EF DUP3 PUSH2 0x1476 JUMP JUMPDEST SWAP1 POP PUSH0 DUP1 PUSH1 0x5 DUP4 PUSH1 0x40 MLOAD PUSH2 0x1203 SWAP2 SWAP1 PUSH2 0x200C JUMP JUMPDEST SWAP1 DUP2 MSTORE PUSH1 0x20 ADD PUSH1 0x40 MLOAD DUP1 SWAP2 SUB SWAP1 KECCAK256 SLOAD EQ ISZERO SWAP1 POP DUP1 PUSH2 0x1256 JUMPI PUSH1 0x40 MLOAD PUSH32 0x8C379A000000000000000000000000000000000000000000000000000000000 DUP2 MSTORE PUSH1 0x4 ADD PUSH2 0x124D SWAP1 PUSH2 0x2092 JUMP JUMPDEST PUSH1 0x40 MLOAD DUP1 SWAP2 SUB SWAP1 REVERT JUMPDEST PUSH0 PUSH1 0x6 PUSH0 CALLER PUSH20 0xFFFFFFFFFFFFFFFFFFFFFFFFFFFFFFFFFFFFFFFF AND PUSH20 0xFFFFFFFFFFFFFFFFFFFFFFFFFFFFFFFFFFFFFFFF AND DUP2 MSTORE PUSH1 0x20 ADD SWAP1 DUP2 MSTORE PUSH1 0x20 ADD PUSH0 KECCAK256 PUSH1 0x40 MLOAD DUP1 PUSH2 0x100 ADD PUSH1 0x40 MSTORE SWAP1 DUP2 PUSH0 DUP3 ADD PUSH0 SWAP1 SLOAD SWAP1 PUSH2 0x100 EXP SWAP1 DIV PUSH20 0xFFFFFFFFFFFFFFFFFFFFFFFFFFFFFFFFFFFFFFFF AND PUSH20 0xFFFFFFFFFFFFFFFFFFFFFFFFFFFFFFFFFFFFFFFF AND PUSH20 0xFFFFFFFFFFFFFFFFFFFFFFFFFFFFFFFFFFFFFFFF AND DUP2 MSTORE PUSH1 0x20 ADD PUSH0 DUP3 ADD PUSH1 0x14 SWAP1 SLOAD SWAP1 PUSH2 0x100 EXP SWAP1 DIV PUSH1 0xFF AND PUSH1 0x1 DUP2 GT ISZERO PUSH2 0x1318 JUMPI PUSH2 0x1317 PUSH2 0x1CBB JUMP JUMPDEST JUMPDEST PUSH1 0x1 DUP2 GT ISZERO PUSH2 0x132A JUMPI PUSH2 0x1329 PUSH2 0x1CBB JUMP JUMPDEST JUMPDEST DUP2 MSTORE PUSH1 0x20 ADD PUSH0 DUP3 ADD PUSH1 0x15 SWAP1 SLOAD SWAP1 PUSH2 0x100 EXP SWAP1 DIV PUSH1 0xFF AND PUSH1 0x2 DUP2 GT ISZERO PUSH2 0x1352 JUMPI PUSH2 0x1351 PUSH2 0x1CBB JUMP JUMPDEST JUMPDEST PUSH1 0x2 DUP2 GT ISZERO PUSH2 0x1364 JUMPI PUSH2 0x1363 PUSH2 0x1CBB JUMP JUMPDEST JUMPDEST DUP2 MSTORE PUSH1 0x20 ADD PUSH1 0x1 DUP3 ADD SLOAD DUP2 MSTORE PUSH1 0x20 ADD PUSH1 0x2 DUP3 ADD SLOAD DUP2 MSTORE PUSH1 0x20 ADD PUSH1 0x3 DUP3 ADD SLOAD DUP2 MSTORE PUSH1 0x20 ADD PUSH1 0x4 DUP3 ADD SLOAD DUP2 MSTORE PUSH1 0x20 ADD PUSH1 0x5 DUP3 ADD SLOAD DUP2 MSTORE POP POP SWAP1 POP PUSH0 PUSH2 0x13A6 DUP12 PUSH2 0x16A6 JUMP JUMPDEST SWAP1 POP CALLER PUSH20 0xFFFFFFFFFFFFFFFFFFFFFFFFFFFFFFFFFFFFFFFF AND PUSH2 0x8FC DUP3 SWAP1 DUP2 ISZERO MUL SWAP1 PUSH1 0x40 MLOAD PUSH0 PUSH1 0x40 MLOAD DUP1 DUP4 SUB DUP2 DUP6 DUP9 DUP9 CALL SWAP4 POP POP POP POP ISZERO DUP1 ISZERO PUSH2 0x13EB JUMPI RETURNDATASIZE PUSH0 DUP1 RETURNDATACOPY RETURNDATASIZE PUSH0 REVERT JUMPDEST POP PUSH2 0x1407 PUSH4 0x1E13380 DUP4 PUSH1 0xE0 ADD MLOAD PUSH2 0x18B6 SWAP1 SWAP2 SWAP1 PUSH4 0xFFFFFFFF AND JUMP JUMPDEST POP PUSH0 DUP3 PUSH1 0xC0 ADD MLOAD GT ISZERO PUSH2 0x1469 JUMPI PUSH1 0x1 PUSH1 0x7 PUSH0 CALLER PUSH20 0xFFFFFFFFFFFFFFFFFFFFFFFFFFFFFFFFFFFFFFFF AND PUSH20 0xFFFFFFFFFFFFFFFFFFFFFFFFFFFFFFFFFFFFFFFF AND DUP2 MSTORE PUSH1 0x20 ADD SWAP1 DUP2 MSTORE PUSH1 0x20 ADD PUSH0 KECCAK256 PUSH0 DUP3 DUP3 SLOAD PUSH2 0x1461 SWAP2 SWAP1 PUSH2 0x20DD JUMP JUMPDEST SWAP3 POP POP DUP2 SWAP1 SSTORE POP JUMPDEST POP POP POP POP POP POP POP POP POP POP POP JUMP JUMPDEST PUSH1 0x60 PUSH0 DUP1 PUSH20 0xFFFFFFFFFFFFFFFFFFFFFFFFFFFFFFFFFFFFFFFF AND PUSH1 0x6 PUSH0 CALLER PUSH20 0xFFFFFFFFFFFFFFFFFFFFFFFFFFFFFFFFFFFFFFFF AND PUSH20 0xFFFFFFFFFFFFFFFFFFFFFFFFFFFFFFFFFFFFFFFF AND DUP2 MSTORE PUSH1 0x20 ADD SWAP1 DUP2 MSTORE PUSH1 0x20 ADD PUSH0 KECCAK256 PUSH0 ADD PUSH0 SWAP1 SLOAD SWAP1 PUSH2 0x100 EXP SWAP1 DIV PUSH20 0xFFFFFFFFFFFFFFFFFFFFFFFFFFFFFFFFFFFFFFFF AND PUSH20 0xFFFFFFFFFFFFFFFFFFFFFFFFFFFFFFFFFFFFFFFF AND EQ ISZERO SWAP1 POP PUSH0 TIMESTAMP PUSH1 0x6 PUSH0 CALLER PUSH20 0xFFFFFFFFFFFFFFFFFFFFFFFFFFFFFFFFFFFFFFFF AND PUSH20 0xFFFFFFFFFFFFFFFFFFFFFFFFFFFFFFFFFFFFFFFF AND DUP2 MSTORE PUSH1 0x20 ADD SWAP1 DUP2 MSTORE PUSH1 0x20 ADD PUSH0 KECCAK256 PUSH1 0x4 ADD SLOAD GT SWAP1 POP DUP2 DUP1 ISZERO PUSH2 0x1559 JUMPI POP DUP1 JUMPDEST PUSH2 0x1598 JUMPI PUSH1 0x40 MLOAD PUSH32 0x8C379A000000000000000000000000000000000000000000000000000000000 DUP2 MSTORE PUSH1 0x4 ADD PUSH2 0x158F SWAP1 PUSH2 0x1F82 JUMP JUMPDEST PUSH1 0x40 MLOAD DUP1 SWAP2 SUB SWAP1 REVERT JUMPDEST PUSH0 DUP1 PUSH1 0x1 DUP2 GT ISZERO PUSH2 0x15AC JUMPI PUSH2 0x15AB PUSH2 0x1CBB JUMP JUMPDEST JUMPDEST PUSH1 0x6 PUSH0 CALLER PUSH20 0xFFFFFFFFFFFFFFFFFFFFFFFFFFFFFFFFFFFFFFFF AND PUSH20 0xFFFFFFFFFFFFFFFFFFFFFFFFFFFFFFFFFFFFFFFF AND DUP2 MSTORE PUSH1 0x20 ADD SWAP1 DUP2 MSTORE PUSH1 0x20 ADD PUSH0 KECCAK256 PUSH0 ADD PUSH1 0x14 SWAP1 SLOAD SWAP1 PUSH2 0x100 EXP SWAP1 DIV PUSH1 0xFF AND PUSH1 0x1 DUP2 GT ISZERO PUSH2 0x160B JUMPI PUSH2 0x160A PUSH2 0x1CBB JUMP JUMPDEST JUMPDEST EQ SWAP1 POP PUSH0 DUP2 PUSH2 0x1658 JUMPI PUSH2 0x1653 DUP7 PUSH1 0x40 MLOAD DUP1 PUSH1 0x40 ADD PUSH1 0x40 MSTORE DUP1 PUSH1 0x6 DUP2 MSTORE PUSH1 0x20 ADD PUSH32 0x5F4E4F5254480000000000000000000000000000000000000000000000000000 DUP2 MSTORE POP PUSH2 0x18CB JUMP JUMPDEST PUSH2 0x1698 JUMP JUMPDEST PUSH2 0x1697 DUP7 PUSH1 0x40 MLOAD DUP1 PUSH1 0x40 ADD PUSH1 0x40 MSTORE DUP1 PUSH1 0x6 DUP2 MSTORE PUSH1 0x20 ADD PUSH32 0x5F534F5554480000000000000000000000000000000000000000000000000000 DUP2 MSTORE POP PUSH2 0x18CB JUMP JUMPDEST JUMPDEST SWAP1 POP DUP1 SWAP5 POP POP POP POP POP SWAP2 SWAP1 POP JUMP JUMPDEST PUSH0 DUP1 PUSH2 0x16B1 DUP4 PUSH2 0x1476 JUMP JUMPDEST SWAP1 POP PUSH0 PUSH1 0x6 PUSH0 CALLER PUSH20 0xFFFFFFFFFFFFFFFFFFFFFFFFFFFFFFFFFFFFFFFF AND PUSH20 0xFFFFFFFFFFFFFFFFFFFFFFFFFFFFFFFFFFFFFFFF AND DUP2 MSTORE PUSH1 0x20 ADD SWAP1 DUP2 MSTORE PUSH1 0x20 ADD PUSH0 KECCAK256 PUSH1 0x40 MLOAD DUP1 PUSH2 0x100 ADD PUSH1 0x40 MSTORE SWAP1 DUP2 PUSH0 DUP3 ADD PUSH0 SWAP1 SLOAD SWAP1 PUSH2 0x100 EXP SWAP1 DIV PUSH20 0xFFFFFFFFFFFFFFFFFFFFFFFFFFFFFFFFFFFFFFFF AND PUSH20 0xFFFFFFFFFFFFFFFFFFFFFFFFFFFFFFFFFFFFFFFF AND PUSH20 0xFFFFFFFFFFFFFFFFFFFFFFFFFFFFFFFFFFFFFFFF AND DUP2 MSTORE PUSH1 0x20 ADD PUSH0 DUP3 ADD PUSH1 0x14 SWAP1 SLOAD SWAP1 PUSH2 0x100 EXP SWAP1 DIV PUSH1 0xFF AND PUSH1 0x1 DUP2 GT ISZERO PUSH2 0x1775 JUMPI PUSH2 0x1774 PUSH2 0x1CBB JUMP JUMPDEST JUMPDEST PUSH1 0x1 DUP2 GT ISZERO PUSH2 0x1787 JUMPI PUSH2 0x1786 PUSH2 0x1CBB JUMP JUMPDEST JUMPDEST DUP2 MSTORE PUSH1 0x20 ADD PUSH0 DUP3 ADD PUSH1 0x15 SWAP1 SLOAD SWAP1 PUSH2 0x100 EXP SWAP1 DIV PUSH1 0xFF AND PUSH1 0x2 DUP2 GT ISZERO PUSH2 0x17AF JUMPI PUSH2 0x17AE PUSH2 0x1CBB JUMP JUMPDEST JUMPDEST PUSH1 0x2 DUP2 GT ISZERO PUSH2 0x17C1 JUMPI PUSH2 0x17C0 PUSH2 0x1CBB JUMP JUMPDEST JUMPDEST DUP2 MSTORE PUSH1 0x20 ADD PUSH1 0x1 DUP3 ADD SLOAD DUP2 MSTORE PUSH1 0x20 ADD PUSH1 0x2 DUP3 ADD SLOAD DUP2 MSTORE PUSH1 0x20 ADD PUSH1 0x3 DUP3 ADD SLOAD DUP2 MSTORE PUSH1 0x20 ADD PUSH1 0x4 DUP3 ADD SLOAD DUP2 MSTORE PUSH1 0x20 ADD PUSH1 0x5 DUP3 ADD SLOAD DUP2 MSTORE POP POP SWAP1 POP PUSH0 PUSH1 0x5 DUP4 PUSH1 0x40 MLOAD PUSH2 0x180A SWAP2 SWAP1 PUSH2 0x200C JUMP JUMPDEST SWAP1 DUP2 MSTORE PUSH1 0x20 ADD PUSH1 0x40 MLOAD DUP1 SWAP2 SUB SWAP1 KECCAK256 SLOAD PUSH1 0x4 PUSH0 DUP5 PUSH1 0x40 ADD MLOAD PUSH1 0x2 DUP2 GT ISZERO PUSH2 0x1833 JUMPI PUSH2 0x1832 PUSH2 0x1CBB JUMP JUMPDEST JUMPDEST PUSH1 0x2 DUP2 GT ISZERO PUSH2 0x1845 JUMPI PUSH2 0x1844 PUSH2 0x1CBB JUMP JUMPDEST JUMPDEST DUP2 MSTORE PUSH1 0x20 ADD SWAP1 DUP2 MSTORE PUSH1 0x20 ADD PUSH0 KECCAK256 PUSH1 0x1 ADD SLOAD PUSH2 0x1860 SWAP2 SWAP1 PUSH2 0x2428 JUMP JUMPDEST SWAP1 POP PUSH0 PUSH1 0x1 SLOAD DUP4 PUSH1 0x60 ADD MLOAD PUSH1 0x3 SLOAD DUP5 PUSH1 0x2 SLOAD PUSH2 0x187C SWAP2 SWAP1 PUSH2 0x2110 JUMP JUMPDEST PUSH2 0x1886 SWAP2 SWAP1 PUSH2 0x2110 JUMP JUMPDEST PUSH2 0x1890 SWAP2 SWAP1 PUSH2 0x2110 JUMP JUMPDEST PUSH2 0x189A SWAP2 SWAP1 PUSH2 0x2110 JUMP JUMPDEST SWAP1 POP PUSH3 0x186A0 DUP2 PUSH2 0x18AB SWAP2 SWAP1 PUSH2 0x2274 JUMP JUMPDEST SWAP5 POP POP POP POP POP SWAP2 SWAP1 POP JUMP JUMPDEST PUSH0 DUP2 DUP4 PUSH2 0x18C3 SWAP2 SWAP1 PUSH2 0x20DD JUMP JUMPDEST SWAP1 POP SWAP3 SWAP2 POP POP JUMP JUMPDEST PUSH1 0x60 PUSH2 0x18D6 DUP4 PUSH2 0x18FF JUMP JUMPDEST DUP3 PUSH1 0x40 MLOAD PUSH1 0x20 ADD PUSH2 0x18E8 SWAP3 SWAP2 SWAP1 PUSH2 0x245B JUMP JUMPDEST PUSH1 0x40 MLOAD PUSH1 0x20 DUP2 DUP4 SUB SUB DUP2 MSTORE SWAP1 PUSH1 0x40 MSTORE SWAP1 POP SWAP3 SWAP2 POP POP JUMP JUMPDEST PUSH1 0x60 PUSH0 PUSH1 0x1 PUSH2 0x190D DUP5 PUSH2 0x19C9 JUMP JUMPDEST ADD SWAP1 POP PUSH0 DUP2 PUSH8 0xFFFFFFFFFFFFFFFF DUP2 GT ISZERO PUSH2 0x192B JUMPI PUSH2 0x192A PUSH2 0x247E JUMP JUMPDEST JUMPDEST PUSH1 0x40 MLOAD SWAP1 DUP1 DUP3 MSTORE DUP1 PUSH1 0x1F ADD PUSH1 0x1F NOT AND PUSH1 0x20 ADD DUP3 ADD PUSH1 0x40 MSTORE DUP1 ISZERO PUSH2 0x195D JUMPI DUP2 PUSH1 0x20 ADD PUSH1 0x1 DUP3 MUL DUP1 CALLDATASIZE DUP4 CALLDATACOPY DUP1 DUP3 ADD SWAP2 POP POP SWAP1 POP JUMPDEST POP SWAP1 POP PUSH0 DUP3 PUSH1 0x20 ADD DUP3 ADD SWAP1 POP JUMPDEST PUSH1 0x1 ISZERO PUSH2 0x19BE JUMPI DUP1 DUP1 PUSH1 0x1 SWAP1 SUB SWAP2 POP POP PUSH32 0x3031323334353637383961626364656600000000000000000000000000000000 PUSH1 0xA DUP7 MOD BYTE DUP2 MSTORE8 PUSH1 0xA DUP6 DUP2 PUSH2 0x19B3 JUMPI PUSH2 0x19B2 PUSH2 0x2247 JUMP JUMPDEST JUMPDEST DIV SWAP5 POP PUSH0 DUP6 SUB PUSH2 0x196A JUMPI JUMPDEST DUP2 SWAP4 POP POP POP POP SWAP2 SWAP1 POP JUMP JUMPDEST PUSH0 DUP1 PUSH0 SWAP1 POP PUSH27 0x184F03E93FF9F4DAA797ED6E38ED64BF6A1F010000000000000000 DUP4 LT PUSH2 0x1A25 JUMPI PUSH27 0x184F03E93FF9F4DAA797ED6E38ED64BF6A1F010000000000000000 DUP4 DUP2 PUSH2 0x1A1B JUMPI PUSH2 0x1A1A PUSH2 0x2247 JUMP JUMPDEST JUMPDEST DIV SWAP3 POP PUSH1 0x40 DUP2 ADD SWAP1 POP JUMPDEST PUSH14 0x4EE2D6D415B85ACEF8100000000 DUP4 LT PUSH2 0x1A62 JUMPI PUSH14 0x4EE2D6D415B85ACEF8100000000 DUP4 DUP2 PUSH2 0x1A58 JUMPI PUSH2 0x1A57 PUSH2 0x2247 JUMP JUMPDEST JUMPDEST DIV SWAP3 POP PUSH1 0x20 DUP2 ADD SWAP1 POP JUMPDEST PUSH7 0x2386F26FC10000 DUP4 LT PUSH2 0x1A91 JUMPI PUSH7 0x2386F26FC10000 DUP4 DUP2 PUSH2 0x1A87 JUMPI PUSH2 0x1A86 PUSH2 0x2247 JUMP JUMPDEST JUMPDEST DIV SWAP3 POP PUSH1 0x10 DUP2 ADD SWAP1 POP JUMPDEST PUSH4 0x5F5E100 DUP4 LT PUSH2 0x1ABA JUMPI PUSH4 0x5F5E100 DUP4 DUP2 PUSH2 0x1AB0 JUMPI PUSH2 0x1AAF PUSH2 0x2247 JUMP JUMPDEST JUMPDEST DIV SWAP3 POP PUSH1 0x8 DUP2 ADD SWAP1 POP JUMPDEST PUSH2 0x2710 DUP4 LT PUSH2 0x1ADF JUMPI PUSH2 0x2710 DUP4 DUP2 PUSH2 0x1AD5 JUMPI PUSH2 0x1AD4 PUSH2 0x2247 JUMP JUMPDEST JUMPDEST DIV SWAP3 POP PUSH1 0x4 DUP2 ADD SWAP1 POP JUMPDEST PUSH1 0x64 DUP4 LT PUSH2 0x1B02 JUMPI PUSH1 0x64 DUP4 DUP2 PUSH2 0x1AF8 JUMPI PUSH2 0x1AF7 PUSH2 0x2247 JUMP JUMPDEST JUMPDEST DIV SWAP3 POP PUSH1 0x2 DUP2 ADD SWAP1 POP JUMPDEST PUSH1 0xA DUP4 LT PUSH2 0x1B11 JUMPI PUSH1 0x1 DUP2 ADD SWAP1 POP JUMPDEST DUP1 SWAP2 POP POP SWAP2 SWAP1 POP JUMP JUMPDEST PUSH1 0x40 MLOAD DUP1 PUSH2 0x100 ADD PUSH1 0x40 MSTORE DUP1 PUSH0 PUSH20 0xFFFFFFFFFFFFFFFFFFFFFFFFFFFFFFFFFFFFFFFF AND DUP2 MSTORE PUSH1 0x20 ADD PUSH0 PUSH1 0x1 DUP2 GT ISZERO PUSH2 0x1B55 JUMPI PUSH2 0x1B54 PUSH2 0x1CBB JUMP JUMPDEST JUMPDEST DUP2 MSTORE PUSH1 0x20 ADD PUSH0 PUSH1 0x2 DUP2 GT ISZERO PUSH2 0x1B6D JUMPI PUSH2 0x1B6C PUSH2 0x1CBB JUMP JUMPDEST JUMPDEST DUP2 MSTORE PUSH1 0x20 ADD PUSH0 DUP2 MSTORE PUSH1 0x20 ADD PUSH0 DUP2 MSTORE PUSH1 0x20 ADD PUSH0 DUP2 MSTORE PUSH1 0x20 ADD PUSH0 DUP2 MSTORE PUSH1 0x20 ADD PUSH0 DUP2 MSTORE POP SWAP1 JUMP JUMPDEST PUSH0 DUP1 REVERT JUMPDEST PUSH0 DUP2 SWAP1 POP SWAP2 SWAP1 POP JUMP JUMPDEST PUSH2 0x1BA7 DUP2 PUSH2 0x1B95 JUMP JUMPDEST DUP2 EQ PUSH2 0x1BB1 JUMPI PUSH0 DUP1 REVERT JUMPDEST POP JUMP JUMPDEST PUSH0 DUP2 CALLDATALOAD SWAP1 POP PUSH2 0x1BC2 DUP2 PUSH2 0x1B9E JUMP JUMPDEST SWAP3 SWAP2 POP POP JUMP JUMPDEST PUSH0 PUSH1 0x20 DUP3 DUP5 SUB SLT ISZERO PUSH2 0x1BDD JUMPI PUSH2 0x1BDC PUSH2 0x1B91 JUMP JUMPDEST JUMPDEST PUSH0 PUSH2 0x1BEA DUP5 DUP3 DUP6 ADD PUSH2 0x1BB4 JUMP JUMPDEST SWAP2 POP POP SWAP3 SWAP2 POP POP JUMP JUMPDEST PUSH1 0x3 DUP2 LT PUSH2 0x1BFF JUMPI PUSH0 DUP1 REVERT JUMPDEST POP JUMP JUMPDEST PUSH0 DUP2 CALLDATALOAD SWAP1 POP PUSH2 0x1C10 DUP2 PUSH2 0x1BF3 JUMP JUMPDEST SWAP3 SWAP2 POP POP JUMP JUMPDEST PUSH0 DUP1 PUSH1 0x40 DUP4 DUP6 SUB SLT ISZERO PUSH2 0x1C2C JUMPI PUSH2 0x1C2B PUSH2 0x1B91 JUMP JUMPDEST JUMPDEST PUSH0 PUSH2 0x1C39 DUP6 DUP3 DUP7 ADD PUSH2 0x1C02 JUMP JUMPDEST SWAP3 POP POP PUSH1 0x20 PUSH2 0x1C4A DUP6 DUP3 DUP7 ADD PUSH2 0x1BB4 JUMP JUMPDEST SWAP2 POP POP SWAP3 POP SWAP3 SWAP1 POP JUMP JUMPDEST PUSH2 0x1C5D DUP2 PUSH2 0x1B95 JUMP JUMPDEST DUP3 MSTORE POP POP JUMP JUMPDEST PUSH0 PUSH1 0x20 DUP3 ADD SWAP1 POP PUSH2 0x1C76 PUSH0 DUP4 ADD DUP5 PUSH2 0x1C54 JUMP JUMPDEST SWAP3 SWAP2 POP POP JUMP JUMPDEST PUSH0 PUSH20 0xFFFFFFFFFFFFFFFFFFFFFFFFFFFFFFFFFFFFFFFF DUP3 AND SWAP1 POP SWAP2 SWAP1 POP JUMP JUMPDEST PUSH0 PUSH2 0x1CA5 DUP3 PUSH2 0x1C7C JUMP JUMPDEST SWAP1 POP SWAP2 SWAP1 POP JUMP JUMPDEST PUSH2 0x1CB5 DUP2 PUSH2 0x1C9B JUMP JUMPDEST DUP3 MSTORE POP POP JUMP JUMPDEST PUSH32 0x4E487B7100000000000000000000000000000000000000000000000000000000 PUSH0 MSTORE PUSH1 0x21 PUSH1 0x4 MSTORE PUSH1 0x24 PUSH0 REVERT JUMPDEST PUSH1 0x2 DUP2 LT PUSH2 0x1CF9 JUMPI PUSH2 0x1CF8 PUSH2 0x1CBB JUMP JUMPDEST JUMPDEST POP JUMP JUMPDEST PUSH0 DUP2 SWAP1 POP PUSH2 0x1D09 DUP3 PUSH2 0x1CE8 JUMP JUMPDEST SWAP2 SWAP1 POP JUMP JUMPDEST PUSH0 PUSH2 0x1D18 DUP3 PUSH2 0x1CFC JUMP JUMPDEST SWAP1 POP SWAP2 SWAP1 POP JUMP JUMPDEST PUSH2 0x1D28 DUP2 PUSH2 0x1D0E JUMP JUMPDEST DUP3 MSTORE POP POP JUMP JUMPDEST PUSH1 0x3 DUP2 LT PUSH2 0x1D3F JUMPI PUSH2 0x1D3E PUSH2 0x1CBB JUMP JUMPDEST JUMPDEST POP JUMP JUMPDEST PUSH0 DUP2 SWAP1 POP PUSH2 0x1D4F DUP3 PUSH2 0x1D2E JUMP JUMPDEST SWAP2 SWAP1 POP JUMP JUMPDEST PUSH0 PUSH2 0x1D5E DUP3 PUSH2 0x1D42 JUMP JUMPDEST SWAP1 POP SWAP2 SWAP1 POP JUMP JUMPDEST PUSH2 0x1D6E DUP2 PUSH2 0x1D54 JUMP JUMPDEST DUP3 MSTORE POP POP JUMP JUMPDEST PUSH2 0x1D7D DUP2 PUSH2 0x1B95 JUMP JUMPDEST DUP3 MSTORE POP POP JUMP JUMPDEST PUSH2 0x100 DUP3 ADD PUSH0 DUP3 ADD MLOAD PUSH2 0x1D98 PUSH0 DUP6 ADD DUP3 PUSH2 0x1CAC JUMP JUMPDEST POP PUSH1 0x20 DUP3 ADD MLOAD PUSH2 0x1DAB PUSH1 0x20 DUP6 ADD DUP3 PUSH2 0x1D1F JUMP JUMPDEST POP PUSH1 0x40 DUP3 ADD MLOAD PUSH2 0x1DBE PUSH1 0x40 DUP6 ADD DUP3 PUSH2 0x1D65 JUMP JUMPDEST POP PUSH1 0x60 DUP3 ADD MLOAD PUSH2 0x1DD1 PUSH1 0x60 DUP6 ADD DUP3 PUSH2 0x1D74 JUMP JUMPDEST POP PUSH1 0x80 DUP3 ADD MLOAD PUSH2 0x1DE4 PUSH1 0x80 DUP6 ADD DUP3 PUSH2 0x1D74 JUMP JUMPDEST POP PUSH1 0xA0 DUP3 ADD MLOAD PUSH2 0x1DF7 PUSH1 0xA0 DUP6 ADD DUP3 PUSH2 0x1D74 JUMP JUMPDEST POP PUSH1 0xC0 DUP3 ADD MLOAD PUSH2 0x1E0A PUSH1 0xC0 DUP6 ADD DUP3 PUSH2 0x1D74 JUMP JUMPDEST POP PUSH1 0xE0 DUP3 ADD MLOAD PUSH2 0x1E1D PUSH1 0xE0 DUP6 ADD DUP3 PUSH2 0x1D74 JUMP JUMPDEST POP POP POP POP JUMP JUMPDEST PUSH0 PUSH2 0x100 DUP3 ADD SWAP1 POP PUSH2 0x1E37 PUSH0 DUP4 ADD DUP5 PUSH2 0x1D83 JUMP JUMPDEST SWAP3 SWAP2 POP POP JUMP JUMPDEST PUSH2 0x1E46 DUP2 PUSH2 0x1C9B JUMP JUMPDEST DUP3 MSTORE POP POP JUMP JUMPDEST PUSH0 PUSH1 0x20 DUP3 ADD SWAP1 POP PUSH2 0x1E5F PUSH0 DUP4 ADD DUP5 PUSH2 0x1E3D JUMP JUMPDEST SWAP3 SWAP2 POP POP JUMP JUMPDEST PUSH1 0x2 DUP2 LT PUSH2 0x1E71 JUMPI PUSH0 DUP1 REVERT JUMPDEST POP JUMP JUMPDEST PUSH0 DUP2 CALLDATALOAD SWAP1 POP PUSH2 0x1E82 DUP2 PUSH2 0x1E65 JUMP JUMPDEST SWAP3 SWAP2 POP POP JUMP JUMPDEST PUSH0 DUP1 PUSH0 PUSH1 0x60 DUP5 DUP7 SUB SLT ISZERO PUSH2 0x1E9F JUMPI PUSH2 0x1E9E PUSH2 0x1B91 JUMP JUMPDEST JUMPDEST PUSH0 PUSH2 0x1EAC DUP7 DUP3 DUP8 ADD PUSH2 0x1C02 JUMP JUMPDEST SWAP4 POP POP PUSH1 0x20 PUSH2 0x1EBD DUP7 DUP3 DUP8 ADD PUSH2 0x1BB4 JUMP JUMPDEST SWAP3 POP POP PUSH1 0x40 PUSH2 0x1ECE DUP7 DUP3 DUP8 ADD PUSH2 0x1E74 JUMP JUMPDEST SWAP2 POP POP SWAP3 POP SWAP3 POP SWAP3 JUMP JUMPDEST PUSH0 DUP1 PUSH0 PUSH1 0x60 DUP5 DUP7 SUB SLT ISZERO PUSH2 0x1EEF JUMPI PUSH2 0x1EEE PUSH2 0x1B91 JUMP JUMPDEST JUMPDEST PUSH0 PUSH2 0x1EFC DUP7 DUP3 DUP8 ADD PUSH2 0x1BB4 JUMP JUMPDEST SWAP4 POP POP PUSH1 0x20 PUSH2 0x1F0D DUP7 DUP3 DUP8 ADD PUSH2 0x1BB4 JUMP JUMPDEST SWAP3 POP POP PUSH1 0x40 PUSH2 0x1F1E DUP7 DUP3 DUP8 ADD PUSH2 0x1E74 JUMP JUMPDEST SWAP2 POP POP SWAP3 POP SWAP3 POP SWAP3 JUMP JUMPDEST PUSH0 DUP3 DUP3 MSTORE PUSH1 0x20 DUP3 ADD SWAP1 POP SWAP3 SWAP2 POP POP JUMP JUMPDEST PUSH32 0x54686520636C69656E74206973206E6F7420696E73757265642E000000000000 PUSH0 DUP3 ADD MSTORE POP JUMP JUMPDEST PUSH0 PUSH2 0x1F6C PUSH1 0x1A DUP4 PUSH2 0x1F28 JUMP JUMPDEST SWAP2 POP PUSH2 0x1F77 DUP3 PUSH2 0x1F38 JUMP JUMPDEST PUSH1 0x20 DUP3 ADD SWAP1 POP SWAP2 SWAP1 POP JUMP JUMPDEST PUSH0 PUSH1 0x20 DUP3 ADD SWAP1 POP DUP2 DUP2 SUB PUSH0 DUP4 ADD MSTORE PUSH2 0x1F99 DUP2 PUSH2 0x1F60 JUMP JUMPDEST SWAP1 POP SWAP2 SWAP1 POP JUMP JUMPDEST PUSH0 DUP2 MLOAD SWAP1 POP SWAP2 SWAP1 POP JUMP JUMPDEST PUSH0 DUP2 SWAP1 POP SWAP3 SWAP2 POP POP JUMP JUMPDEST PUSH0 JUMPDEST DUP4 DUP2 LT ISZERO PUSH2 0x1FD1 JUMPI DUP1 DUP3 ADD MLOAD DUP2 DUP5 ADD MSTORE PUSH1 0x20 DUP2 ADD SWAP1 POP PUSH2 0x1FB6 JUMP JUMPDEST PUSH0 DUP5 DUP5 ADD MSTORE POP POP POP POP JUMP JUMPDEST PUSH0 PUSH2 0x1FE6 DUP3 PUSH2 0x1FA0 JUMP JUMPDEST PUSH2 0x1FF0 DUP2 DUP6 PUSH2 0x1FAA JUMP JUMPDEST SWAP4 POP PUSH2 0x2000 DUP2 DUP6 PUSH1 0x20 DUP7 ADD PUSH2 0x1FB4 JUMP JUMPDEST DUP1 DUP5 ADD SWAP2 POP POP SWAP3 SWAP2 POP POP JUMP JUMPDEST PUSH0 PUSH2 0x2017 DUP3 DUP5 PUSH2 0x1FDC JUMP JUMPDEST SWAP2 POP DUP2 SWAP1 POP SWAP3 SWAP2 POP POP JUMP JUMPDEST PUSH32 0x5468657265206973206E6F207265636F726420666F7220746865207265717569 PUSH0 DUP3 ADD MSTORE PUSH32 0x7265642079656172206F7220726567696F6E2E00000000000000000000000000 PUSH1 0x20 DUP3 ADD MSTORE POP JUMP JUMPDEST PUSH0 PUSH2 0x207C PUSH1 0x33 DUP4 PUSH2 0x1F28 JUMP JUMPDEST SWAP2 POP PUSH2 0x2087 DUP3 PUSH2 0x2022 JUMP JUMPDEST PUSH1 0x40 DUP3 ADD SWAP1 POP SWAP2 SWAP1 POP JUMP JUMPDEST PUSH0 PUSH1 0x20 DUP3 ADD SWAP1 POP DUP2 DUP2 SUB PUSH0 DUP4 ADD MSTORE PUSH2 0x20A9 DUP2 PUSH2 0x2070 JUMP JUMPDEST SWAP1 POP SWAP2 SWAP1 POP JUMP JUMPDEST PUSH32 0x4E487B7100000000000000000000000000000000000000000000000000000000 PUSH0 MSTORE PUSH1 0x11 PUSH1 0x4 MSTORE PUSH1 0x24 PUSH0 REVERT JUMPDEST PUSH0 PUSH2 0x20E7 DUP3 PUSH2 0x1B95 JUMP JUMPDEST SWAP2 POP PUSH2 0x20F2 DUP4 PUSH2 0x1B95 JUMP JUMPDEST SWAP3 POP DUP3 DUP3 ADD SWAP1 POP DUP1 DUP3 GT ISZERO PUSH2 0x210A JUMPI PUSH2 0x2109 PUSH2 0x20B0 JUMP JUMPDEST JUMPDEST SWAP3 SWAP2 POP POP JUMP JUMPDEST PUSH0 PUSH2 0x211A DUP3 PUSH2 0x1B95 JUMP JUMPDEST SWAP2 POP PUSH2 0x2125 DUP4 PUSH2 0x1B95 JUMP JUMPDEST SWAP3 POP DUP3 DUP3 MUL PUSH2 0x2133 DUP2 PUSH2 0x1B95 JUMP JUMPDEST SWAP2 POP DUP3 DUP3 DIV DUP5 EQ DUP4 ISZERO OR PUSH2 0x214A JUMPI PUSH2 0x2149 PUSH2 0x20B0 JUMP JUMPDEST JUMPDEST POP SWAP3 SWAP2 POP POP JUMP JUMPDEST PUSH32 0x546865207072656D69756D206D75737420626520636F766572656420746F2072 PUSH0 DUP3 ADD MSTORE PUSH32 0x65676973746572206F722072656E6577206120706F6C6963792E000000000000 PUSH1 0x20 DUP3 ADD MSTORE POP JUMP JUMPDEST PUSH0 PUSH2 0x21AB PUSH1 0x3A DUP4 PUSH2 0x1F28 JUMP JUMPDEST SWAP2 POP PUSH2 0x21B6 DUP3 PUSH2 0x2151 JUMP JUMPDEST PUSH1 0x40 DUP3 ADD SWAP1 POP SWAP2 SWAP1 POP JUMP JUMPDEST PUSH0 PUSH1 0x20 DUP3 ADD SWAP1 POP DUP2 DUP2 SUB PUSH0 DUP4 ADD MSTORE PUSH2 0x21D8 DUP2 PUSH2 0x219F JUMP JUMPDEST SWAP1 POP SWAP2 SWAP1 POP JUMP JUMPDEST PUSH32 0x54686520636C69656E7420697320616C726561647920696E73757265642E0000 PUSH0 DUP3 ADD MSTORE POP JUMP JUMPDEST PUSH0 PUSH2 0x2213 PUSH1 0x1E DUP4 PUSH2 0x1F28 JUMP JUMPDEST SWAP2 POP PUSH2 0x221E DUP3 PUSH2 0x21DF JUMP JUMPDEST PUSH1 0x20 DUP3 ADD SWAP1 POP SWAP2 SWAP1 POP JUMP JUMPDEST PUSH0 PUSH1 0x20 DUP3 ADD SWAP1 POP DUP2 DUP2 SUB PUSH0 DUP4 ADD MSTORE PUSH2 0x2240 DUP2 PUSH2 0x2207 JUMP JUMPDEST SWAP1 POP SWAP2 SWAP1 POP JUMP JUMPDEST PUSH32 0x4E487B7100000000000000000000000000000000000000000000000000000000 PUSH0 MSTORE PUSH1 0x12 PUSH1 0x4 MSTORE PUSH1 0x24 PUSH0 REVERT JUMPDEST PUSH0 PUSH2 0x227E DUP3 PUSH2 0x1B95 JUMP JUMPDEST SWAP2 POP PUSH2 0x2289 DUP4 PUSH2 0x1B95 JUMP JUMPDEST SWAP3 POP DUP3 PUSH2 0x2299 JUMPI PUSH2 0x2298 PUSH2 0x2247 JUMP JUMPDEST JUMPDEST DUP3 DUP3 DIV SWAP1 POP SWAP3 SWAP2 POP POP JUMP JUMPDEST PUSH32 0x43616E6E6F74206C6F61642074686520636F6E74726163742077697468203000 PUSH0 DUP3 ADD MSTORE POP JUMP JUMPDEST PUSH0 PUSH2 0x22D8 PUSH1 0x1F DUP4 PUSH2 0x1F28 JUMP JUMPDEST SWAP2 POP PUSH2 0x22E3 DUP3 PUSH2 0x22A4 JUMP JUMPDEST PUSH1 0x20 DUP3 ADD SWAP1 POP SWAP2 SWAP1 POP JUMP JUMPDEST PUSH0 PUSH1 0x20 DUP3 ADD SWAP1 POP DUP2 DUP2 SUB PUSH0 DUP4 ADD MSTORE PUSH2 0x2305 DUP2 PUSH2 0x22CC JUMP JUMPDEST SWAP1 POP SWAP2 SWAP1 POP JUMP JUMPDEST PUSH32 0x436C61696D732063616E206F6E6C792062652066696C65642065766572792079 PUSH0 DUP3 ADD MSTORE PUSH32 0x6561722E00000000000000000000000000000000000000000000000000000000 PUSH1 0x20 DUP3 ADD MSTORE POP JUMP JUMPDEST PUSH0 PUSH2 0x2366 PUSH1 0x24 DUP4 PUSH2 0x1F28 JUMP JUMPDEST SWAP2 POP PUSH2 0x2371 DUP3 PUSH2 0x230C JUMP JUMPDEST PUSH1 0x40 DUP3 ADD SWAP1 POP SWAP2 SWAP1 POP JUMP JUMPDEST PUSH0 PUSH1 0x20 DUP3 ADD SWAP1 POP DUP2 DUP2 SUB PUSH0 DUP4 ADD MSTORE PUSH2 0x2393 DUP2 PUSH2 0x235A JUMP JUMPDEST SWAP1 POP SWAP2 SWAP1 POP JUMP JUMPDEST PUSH32 0x546865207370656369666965642079656172206973206E6F7420616C6C6F7769 PUSH0 DUP3 ADD MSTORE PUSH32 0x6E67206120636C61696D20666F7220796F757220706F6C6963792E0000000000 PUSH1 0x20 DUP3 ADD MSTORE POP JUMP JUMPDEST PUSH0 PUSH2 0x23F4 PUSH1 0x3B DUP4 PUSH2 0x1F28 JUMP JUMPDEST SWAP2 POP PUSH2 0x23FF DUP3 PUSH2 0x239A JUMP JUMPDEST PUSH1 0x40 DUP3 ADD SWAP1 POP SWAP2 SWAP1 POP JUMP JUMPDEST PUSH0 PUSH1 0x20 DUP3 ADD SWAP1 POP DUP2 DUP2 SUB PUSH0 DUP4 ADD MSTORE PUSH2 0x2421 DUP2 PUSH2 0x23E8 JUMP JUMPDEST SWAP1 POP SWAP2 SWAP1 POP JUMP JUMPDEST PUSH0 PUSH2 0x2432 DUP3 PUSH2 0x1B95 JUMP JUMPDEST SWAP2 POP PUSH2 0x243D DUP4 PUSH2 0x1B95 JUMP JUMPDEST SWAP3 POP DUP3 DUP3 SUB SWAP1 POP DUP2 DUP2 GT ISZERO PUSH2 0x2455 JUMPI PUSH2 0x2454 PUSH2 0x20B0 JUMP JUMPDEST JUMPDEST SWAP3 SWAP2 POP POP JUMP JUMPDEST PUSH0 PUSH2 0x2466 DUP3 DUP6 PUSH2 0x1FDC JUMP JUMPDEST SWAP2 POP PUSH2 0x2472 DUP3 DUP5 PUSH2 0x1FDC JUMP JUMPDEST SWAP2 POP DUP2 SWAP1 POP SWAP4 SWAP3 POP POP POP JUMP JUMPDEST PUSH32 0x4E487B7100000000000000000000000000000000000000000000000000000000 PUSH0 MSTORE PUSH1 0x41 PUSH1 0x4 MSTORE PUSH1 0x24 PUSH0 REVERT INVALID LOG2 PUSH5 0x6970667358 0x22 SLT KECCAK256 OR BALANCE 0xB1 0xB0 ADD DUP2 DUP16 0xF6 0xFB EXTCODECOPY 0xFC CREATE2 0xC6 SWAP7 DUP13 0xD7 0xC1 PUSH2 0xCFAC SWAP10 KECCAK256 LOG0 0xA5 0xD7 PUSH12 0x1855560FBBAC64736F6C6343 STOP ADDMOD AND STOP CALLER "
		},
		"gasEstimates": {
			"creation": {
				"codeDepositCost": "1888200",
				"executionCost": "225875",
				"totalCost": "2114075"
			},
			"external": {
				"calculatePremium(uint8,uint256)": "infinite",
				"createSunshineRecord(uint256,uint256,uint8)": "infinite",
				"extendPolicy()": "infinite",
				"fileClaim(uint256)": "infinite",
				"fileClaimWithoutChecks(uint256)": "infinite",
				"fundContract()": "490",
				"getPolicyInformation()": "infinite",
				"owner()": "2515",
				"registerPolicy(uint8,uint256,uint8)": "infinite"
			},
			"internal": {
				"getClaimAmount(uint256)": "infinite",
				"getRecordsKey(uint256)": "infinite"
			}
		},
		"methodIdentifiers": {
			"calculatePremium(uint8,uint256)": "51821891",
			"createSunshineRecord(uint256,uint256,uint8)": "b3155b5e",
			"extendPolicy()": "1a59c5b6",
			"fileClaim(uint256)": "d61909f9",
			"fileClaimWithoutChecks(uint256)": "007c74cb",
			"fundContract()": "bd097e21",
			"getPolicyInformation()": "70f363a4",
			"owner()": "8da5cb5b",
			"registerPolicy(uint8,uint256,uint8)": "a8e023eb"
		}
	},
	"abi": [
		{
			"inputs": [],
			"stateMutability": "nonpayable",
			"type": "constructor"
		},
		{
			"inputs": [
				{
					"internalType": "enum SolarInsurance.ClientRiskLevels",
					"name": "riskLevel",
					"type": "uint8"
				},
				{
					"internalType": "uint256",
					"name": "panelArea",
					"type": "uint256"
				}
			],
			"name": "calculatePremium",
			"outputs": [
				{
					"internalType": "uint256",
					"name": "",
					"type": "uint256"
				}
			],
			"stateMutability": "view",
			"type": "function"
		},
		{
			"inputs": [
				{
					"internalType": "uint256",
					"name": "year",
					"type": "uint256"
				},
				{
					"internalType": "uint256",
					"name": "duration",
					"type": "uint256"
				},
				{
					"internalType": "enum SolarInsurance.SwissRegion",
					"name": "region",
					"type": "uint8"
				}
			],
			"name": "createSunshineRecord",
			"outputs": [],
			"stateMutability": "nonpayable",
			"type": "function"
		},
		{
			"inputs": [],
			"name": "extendPolicy",
			"outputs": [],
			"stateMutability": "payable",
			"type": "function"
		},
		{
			"inputs": [
				{
					"internalType": "uint256",
					"name": "year",
					"type": "uint256"
				}
			],
			"name": "fileClaim",
			"outputs": [],
			"stateMutability": "nonpayable",
			"type": "function"
		},
		{
			"inputs": [
				{
					"internalType": "uint256",
					"name": "year",
					"type": "uint256"
				}
			],
			"name": "fileClaimWithoutChecks",
			"outputs": [],
			"stateMutability": "nonpayable",
			"type": "function"
		},
		{
			"inputs": [],
			"name": "fundContract",
			"outputs": [],
			"stateMutability": "payable",
			"type": "function"
		},
		{
			"inputs": [],
			"name": "getPolicyInformation",
			"outputs": [
				{
					"components": [
						{
							"internalType": "address",
							"name": "client",
							"type": "address"
						},
						{
							"internalType": "enum SolarInsurance.SwissRegion",
							"name": "panelLocation",
							"type": "uint8"
						},
						{
							"internalType": "enum SolarInsurance.ClientRiskLevels",
							"name": "riskLevel",
							"type": "uint8"
						},
						{
							"internalType": "uint256",
							"name": "panelArea",
							"type": "uint256"
						},
						{
							"internalType": "uint256",
							"name": "premiumToPay",
							"type": "uint256"
						},
						{
							"internalType": "uint256",
							"name": "registrationDate",
							"type": "uint256"
						},
						{
							"internalType": "uint256",
							"name": "validUntil",
							"type": "uint256"
						},
						{
							"internalType": "uint256",
							"name": "claimTimeout",
							"type": "uint256"
						}
					],
					"internalType": "struct SolarInsurance.SolarInsurancePolicy",
					"name": "",
					"type": "tuple"
				}
			],
			"stateMutability": "view",
			"type": "function"
		},
		{
			"inputs": [],
			"name": "owner",
			"outputs": [
				{
					"internalType": "address",
					"name": "",
					"type": "address"
				}
			],
			"stateMutability": "view",
			"type": "function"
		},
		{
			"inputs": [
				{
					"internalType": "enum SolarInsurance.ClientRiskLevels",
					"name": "riskLevel",
					"type": "uint8"
				},
				{
					"internalType": "uint256",
					"name": "panelArea",
					"type": "uint256"
				},
				{
					"internalType": "enum SolarInsurance.SwissRegion",
					"name": "location",
					"type": "uint8"
				}
			],
			"name": "registerPolicy",
			"outputs": [],
			"stateMutability": "payable",
			"type": "function"
		}
	]
}